:020000040800F2
:10000000900A0020D50200085B3D00089F350008DB
:10001000593D00087515000859440008000000000B
:10002000000000000000000000000000D93F0008B0
:10003000AD15000800000000D73F0008DB3F0008B6
:10004000EF020008EF020008EF020008EF020008CC
:10005000EF020008EF020008EF020008EF020008BC
:10006000EF020008EF020008EF020008791500080F
:10007000EF020008EF020008EF020008EF0200089C
:10008000EF020008EF020008EF020008EF0200088C
:10009000EF020008EF020008EF020008EF0200087C
:1000A000EF020008EF0200088D400008EF02000890
:1000B000EF020008EF02000800000000EF02000855
:1000C000EF0200080000000000000000EF0200083E
:1000D00000000000EF020008EF020008EF02000835
:1000E000EF020008EF02000800000000000000001E
:1000F0000000000000000000000000000000000000
:1001000000000000000000000000000000000000EF
:100110000000000000000000EF020008EF020008ED
:1001200000000000000000000000000000000000CF
:1001300000000000000000000000000000000000BF
:10014000EF020008EF02000800000000EF020008C4
:10015000EF020008EF020008EF020008EF020008BB
:10016000EF020008EF02000800000000000000009D
:10017000000000000000000000000000000000007F
:1001800000000000EF02000800F002F800F092F812
:100190000AA090E8000C82448344AAF10107DA45E2
:1001A00001D100F087F8AFF2090EBAE80F0013F0A2
:1001B000010F18BFFB1A43F00103184790550000C8
:1001C000B0550000103A24BF78C878C1FAD8520759
:1001D00024BF30C830C144BF04680C6070470000C1
:1001E0000023002400250026103A28BF78C1FBD840
:1001F000520728BF30C148BF0B6070476E2900F01E
:100200006381702900F0A582662904F0E8856529DC
:1002100004F0E585672904F0E285612904F0E185B1
:1002200003681B0A28BF41F08001692900F0108192
:10023000642900F00D81752900F00A816F2900F012
:100240003382782900F07182E92900F0CD81E42918
:1002500000F0CA81F52900F0C781EF2900F0308253
:10026000F82900F070820368DB0928BF41F08001A3
:10027000632900F07187732900F07687E32900F085
:100280008187F32900F08687002070471FB504F0AE
:1002900099FD00F0D5FF04000020002104F07CFD52
:1002A000401C60600020002104F060FDE0601FBD84
:1002B00010B510BD00F096FF1146FFF7E7FF04F000
:1002C000CDF801F073F803B4FFF7F2FF03BC01F0BF
:1002D000B9F800000948804709480047FEE7FEE7F3
:1002E000FEE7FEE7FEE7FEE7FEE7FEE7FEE7FEE7E6
:1002F00004480549054A064B704700007D40000848
:100300008901000890040020900A00209006002037
:10031000900600201CB50C46064B7B4469460090B5
:10032000204600F0EAF804460020694600F0F8F89C
:1003300020461CBD030200004FF0000200B513462A
:1003400094469646203922BFA0E80C50A0E80C50F5
:10035000B1F12001BFF4F7AF090728BFA0E80C50A6
:1003600048BF0CC05DF804EB890028BF40F8042B9F
:1003700008BF704748BF20F8022B11F0804F18BF0C
:1003800000F8012B704770477047704770B50446FE
:1003900085690068C10601D5302600E02026C00727
:1003A00007D070BDD4E9012130469047206A401C37
:1003B00020626D1EF6D570BD70B504468569007863
:1003C000C00707D170BDD4E9012120209047206AE1
:1003D000401C20626D1EF6D570BD09684A0501D526
:1003E00040B27047C905FCD500B2704709684A059C
:1003F00001D5C0B27047C905FCD580B2704770B551
:100400000C460546012A05D02878800600D5EA6901
:10041000002302E0012305E05B1C934202D2E05C72
:100420000028F9D1A869E618C01AA861286A1844FA
:1004300028622846FFF7AAFF04E0D5E9012114F855
:10044000010B9047B442F8D32846FFF7B5FF70BDC3
:100450002DE9F0410646002410687529314616A59D
:1004600010D0FFF7BAFF002802DA404213A507E0D8
:1004700031688A0701D512A502E0490704D511A504
:10048000012401E0FFF7B2FF00210A2206F1240750
:1004900009E0B0FBF2FCB0FBF2F302FB1C003030D1
:1004A00078541846491C0028F3D123462A46304682
:1004B000BDE8F04100F061BA000000002D0000002E
:1004C0002B0000002000000011680268006A53053C
:1004D00001D508700AE0D30501D5088006E01306AF
:1004E00003D5C217C1E9000200E00860012070478F
:1004F00001694A1C02610878704700B58FB0CDE9E8
:1005000001310021059105497944CDE903101146D7
:10051000684600F029F90FB000BD0000E5FFFFFFBD
:100520000A6802F8010B0A60704700002DE9FF5FBE
:1005300015468A460446DFF8AC80F8440027D8E91F
:1005400000103E46CDE9001010E05AF826106A4629
:1005500002A800F023FE411C07D02178890603D5AC
:10056000E269391891420DD80744761C207880063C
:1005700002D5E069B84205DDAE42E6DB5AF8260056
:100580000028E2D1A069C01BA0612046FFF7FEFE53
:10059000D8E90010CDE90010002017E05AF8281023
:1005A0006A4602A800F0FAFDB0F1FF3F81460BD089
:1005B00000250DF1080B05E0D4E901211BF8050029
:1005C00090476D1C4D45F7D308F10100B0428046BD
:1005D000E4DB206A384420622046FFF7EDFEBDE8E8
:1005E000FF9F0000AA4800002DE9F0418046D21D7F
:1005F00022F007020025D2E90002F52915A614D041
:10060000011E72F1000106DA0023D0EB030063EB58
:10061000020211A608E0D8F800108B0701D50FA63A
:1006200002E0490701D50EA601251146002408F174
:10063000240704E000F05CF930323A55641C50EABB
:100640000102F7D12B46324621464046BDE8F04133
:1006500000F093B9000000002D0000002B00000006
:100660002000000030B4002100F1240408E002F072
:100670000705D208303542EA4372DB086554491C4D
:1006800052EA0305F3D10468002310A2250708D518
:1006900004F020040C4304D0C46901230CA2641E9E
:1006A000C46130BC00F069B910B504462146106839
:1006B000FFF79CFE02462046BDE810400023D1E72C
:1006C000D21D22F00701D1E90023CBE70000000092
:1006D00030000000F0B40D460188090502D5214C18
:1006E0007C4402E01F4C7C440E34002100F12406BF
:1006F00008E002F00F071209E75D42EA03721B09E6
:100700007754491C52EA0307F3D1027800231207F9
:1007100004D5702D06D009B1022311342246F0BC55
:1007200000F02BB901231034F8E770B504460D46EC
:1007300021461068FFF75AFE024629462046BDE8CA
:1007400070400023C6E7D21D22F00703D3E900233F
:10075000C0E70368126843F0200303600823C36105
:100760000023B7E70C4700002DE9F05F89460446F7
:100770004FF0000ADFF874B1FB44C0F820A0204617
:10078000E1688847002874D0252806D0D4E90121E3
:100790009047206A401C2062F1E700265F46204611
:1007A000E16888472028054607DB312D05D27819F6
:1007B00010F8200C08B10643F1E7B00701D526F088
:1007C0000406C4F81CA00027C4F818A02A2D09D0DC
:1007D000284604F0C3FA38B304EB8708303DC8F864
:1007E000185019E059F8041B204604EB8702916168
:1007F000E1688847012F054618D1E069002820DA12
:1008000026F020061DE0D8F8180000EB800005EB6C
:1008100040003038C8F818002046E168884705468F
:1008200004F09CFA0028EED1012F0AD02E2D08D119
:100830002046E16888477F1C0546022F46F02006C7
:10084000C4DBA069002803DA404246F00106A0613B
:10085000F00701D026F010066C2D0BD0682D09D0C2
:100860004C2D39D06A2D35D0742D35D07A2D33D01A
:1008700016E038E0E1682F4620468847B842054632
:1008800009D16C2F26D04FF48060E16806432046E2
:100890008847054604E06C2F1AD04FF48070064359
:1008A0000DB3A5F14100192802D8203546F40066A1
:1008B0004A462946204626604E46FFF79FFC80B1F7
:1008C00001280BD0F61D26F0070000F1080956E7B5
:1008D0004020E4E78020D8E70020D6E706F10409AD
:1008E0004DE7284652E7206ABDE8F09F9C4600008D
:1008F00030B5B0F10A0271F100034FEA900E4EEAF2
:10090000817EB0EB0E0061EB91014FEA101E4EEAC2
:10091000017E10EB0E0041EB11114FEA102E4EEA52
:10092000016E10EB0E0041EB11214FEA104E4EEA22
:10093000014E10EB0E0041EB1141401841F1000156
:100940004FEAD00040EA41704FEAD1014FEA8104FA
:1009500044EA907410EB800544EB01046D1944EBFC
:100960000404521BA3414FF0000348BF0A3200D5D4
:1009700030BD401C41F1000130BD2DE9F0470D466E
:1009800099469246044600F124080168880604D579
:10099000E06921F01001216000E00120A84201DDA2
:1009A000471B00E00027A1697A1902EB0900081A29
:1009B000A0612078C00602D42046FFF7E7FC00269D
:1009C00008E0D4E901211AF806009047206A401C8B
:1009D000761C20624E45F4DB2078C0060AD52046FE
:1009E000FFF7D4FC06E0D4E9012130209047206ACB
:1009F000401C2062381EA7F10107F4DC07E0D4E9AF
:100A0000012118F805009047206A401C2062281E2A
:100A1000A5F10105F3DC2046FFF7CEFC20780006A7
:100A200002D50220BDE8F0870120FBE72DE9FF4F4A
:100A30000C461E464FF0FF378BB0D2E90001DDF8BF
:100A400060800A908A46C1F30A5505B93D460021E7
:100A500008464FF00000BAF1000F00F4400005DA3C
:100A600000EB80004FF4400101EA50004FEA90593A
:100A7000B9F1010F00DDB9460A9850EA4A000ED0DC
:100A800044F61050A5F2FF3545432F14B8F1000F7E
:100A90001ED07542291E1EDDC9F100021CE0B8F10E
:100AA000010F4FF0000001D0302103E0F24305E0D8
:100AB0002154401CB042FBDB30460022002121546F
:100AC0000B99C1F80880C1E900200FB0BDE8F08F94
:100AD000BD1B6D1CDEE74A4600DA694206A800F03D
:100AE000F3FB06AB93E8070003AB83E8070050462F
:100AF0000A9903F053FD8DE80700A0F500501F3858
:100B000000900398002D0ADD42F21F014A46084476
:100B1000002303A90390684603F0BCFF09E0A0F599
:100B200000504A461F38002303A90390684603F08B
:100B3000C6FF8DE807000004000C03D04FF0FF3023
:100B4000410800E01046B8F1000F03D000220092E7
:100B500015461EE0751E05D4FFF7CAFE30326255F9
:100B60006D1EF9D5B3460122084302D000227F1C36
:100B700004E02078302801D100227F1E002A099746
:100B800084D01DE0112D07DAFFF7B2FE3032625536
:100B90006D1C50EA0102F5D1084302D00098C8B19B
:100BA0000EE00021681E05E0235C625C6354225461
:100BB000401E491C8142F7DBAB46A81B401E099032
:100BC000002004F80B000B98099AC0F80880C0E9CF
:100BD000002B7AE711264FF0000857E72DE9F04F78
:100BE00088460446D21D22F0070191B0D1E90001E8
:100BF000CDE90A0104F09AF802460B98C00F01D023
:100C00002D2007E02068810701D52B2002E020215C
:100C100001EAC000032A099001D0072A05DB034638
:100C20004146204600F010FB0BE12078800601D5FC
:100C3000E06900E00620B8F1650F814606D0B8F102
:100C4000660F18D0B8F1670F70D131E00020B9F10C
:100C5000110F009001DB112301E009F101030AAA41
:100C600001A90CA8FFF7E2FEDDE90C70002609F1EE
:100C70000105834647E001204B4600904FF00047B6
:100C80000AAA01A90CA8FFF7D1FEDDE90DB00C9965
:100C90005D46002610B909F101000D18B9EB0500F9
:100CA00003D4C0F1FF3609F10105A5EB09002BE0E3
:100CB000B9F1010F01DA4FF001090020B9F1110F6C
:100CC0000090484601DD112300E003460AAA01A96D
:100CD0000CA8FFF7ABFEDDE90C704D4600268346FD
:100CE000207800070AD4AB4500DA5D4601A8012D43
:100CF00004DD411911F8011C302907D04F4502DAF3
:100D000017F1040F04DA012082460FE06D1EEEE7B2
:100D1000002F02DCED1B3E4403E0781CA84200DDFE
:100D20007D1CB81B00F1010A4FF000472078000736
:100D300003D4AA4501DB4FF0FF3A0021B7F1004F81
:100D40000DF143088DF8431024D002202B23002FEF
:100D500001DA7F422D230A21021EA0F1010000DCEE
:100D60005FB197FBF1FC97FBF1F201FB1C7C17468E
:100D70000CF1300C08F801CDEEE7A8F1010003708A
:100D80002188090501D5452100E06521A0F1010870
:100D900000F8011C09980FA9A1EB0807FF1D00B17D
:100DA0000120411901EBEA70A1693844081A401E7C
:100DB000A0612078C00602D42046FFF7E7FA099820
:100DC00028B1D4E901219047206A401C2062207894
:100DD000C00622D52046FFF7D9FA1EE0002E04DB1C
:100DE000B34502DD01A8805D00E03020D4E9012197
:100DF0009047206A401C2062761CAAF101005FEA3D
:100E0000000A0AD100F01CFAC0680168405CD4E90D
:100E100001219047206A401C2062281EA5F101058F
:100E2000DCDC07E0D4E9012118F8010B9047206AC7
:100E3000401C2062381EA7F10107F3DC2046FFF7B3
:100E4000BBFA032011B041E62DE9F04F04460D46F0
:100E5000D21D22F0070089B0D0E9009748463946F4
:100E600003F064FF0246F80F01D02D2307E020684D
:100E7000810701D52B2302E0202101EAC0038DF870
:100E800020300BB1012000E00020032A824601D06F
:100E9000072A04DB2946204600F0D6F93FE12078F6
:100EA000800601D40D2500E0E569C7F30A560D2D33
:100EB00049DA00214FEA175B08464FF00000002F87
:100EC00000F4400007DA00EB80004FF4400100EB33
:100ED000D07001EA60008115012901DD4FF0FF317A
:100EE00000224FEA850CBCF1180F06D31346ACF173
:100EF00018004FF08052C24003E04FF4801323FAF1
:100F00000CF30CF10C0CBCF1200F04D3ACF1200C51
:100F100009FA0CF001E007FA0CF000294FF0004844
:100F200001DD18B90FE00ED140450CD319EB0209D1
:100F30005F4121B9404502D19F4329EA0209BBEB39
:100F4000175F00D0761C2088000502D57B487844C6
:100F500002E07A487844193808AA302302F80A30A7
:100F6000037C0AF10101002E0AF1020A53546A4679
:100F700002DC4FF0300101E04FF031014FF0010889
:100F80008DF8001002D0A6F2FF3603E059EA4701BF
:100F900000D06B4E002D02DC2178090704D54FF0FC
:100FA00002082E218DF80110C44600210BE0C7F382
:100FB00003433F01C35C491C6D1E02F8083005293C
:100FC00008F1010801DA002DF1DC00210CE000EB52
:100FD0001973491C1B786D1E082902F808304FEA66
:100FE000091908F1010801DA002DF0DC21688B06EF
:100FF00002D516E0A8F10108E04505DD02EB080383
:1010000013F8013C302BF5D0B8F1000F09DD02EBED
:10101000080313F8013C2E2B03D1090701D4A8F1D2
:101020000108002D05DD3E2102F808106D1E08F1B3
:101030000108407C002E02F8080008F1010804DADB
:101040002D20764202F8080002E02B2002F808006A
:101050000A214FF47A70864208F101080BDB96FBF7
:10106000F0F3303302F8083096FBF0F308F1010892
:1010700000FB136601E0642E0CDB642096FBF0F3AA
:10108000303302F8083096FBF0F308F1010800FB5A
:10109000136601E00A2E06DB96FBF1F0303002F811
:1010A000080008F1010896FBF1F001FB10603030F8
:1010B00002F80800A16908F1010808EB050202EB3B
:1010C0000A00081AA0612078C00602D42046FFF763
:1010D0005DF9216A08AE01EB0A00206204E0D4E960
:1010E000012116F8010B9047BAF1010AF7D22078D6
:1010F000C00602D52046FFF749F96E4609E016F80A
:10110000010B3E280FD0D4E901219047206A401CF2
:101110002062B8F10108F2D22046FFF74DF909B07C
:101120000320BDE8F08F206A2844206203E0D4E960
:101130000121302090476D1EEBD3F8E7EA3E000016
:1011400002FCFFFF10B5436913B1AFF3008001E06B
:10115000FFF755F9012010BD127800F124010A7043
:1011600000224A700122EDE711684FF0FF32E9E7F3
:1011700010B5436913B1AFF3008001E0FFF7D6F972
:10118000012010BD126800F1240142620022826237
:101190000122EDE711684FF0FF32E9E72DE9F04158
:1011A00016460C46054600F043F8036893F8010123
:1011B000012807D0FF2C12D8185D80B101202C70B7
:1011C000BDE8F081D3F807013246214603F2071348
:1011D000C7182846BC46BDE8F041012360474FF0E0
:1011E000FF30EDE7754600F0EBF8AE4605006946C6
:1011F000534620F00700854618B020B5FFF778F871
:10120000BDE820404FF000064FF000074FF0000807
:101210004FF0000BAC46ACE8C009ACE8C009ACE844
:10122000C009ACE8C00921F007018D4670470000F5
:1012300010B500F005F8001D10BD00BF5D3B0000BB
:1012400000487047300000202DE9F0411F46044659
:1012500003260168072A01F4006004DB08B116A523
:1012600005E016A503E008B115A500E015A521F0DD
:1012700010002060A069C01EA0610FB1401EA061D7
:101280002046FFF783F84FB1D4E901213846904753
:10129000206A401C2062C01C206206E0206AFAE737
:1012A000D4E9012115F8010B9047761EF8D22046AB
:1012B000FFF782F8BDE8F0814E414E006E616E008E
:1012C000494E4600696E66002DE9F0478146164694
:1012D0008AB0354878440DC88DE80D00324878440E
:1012E000801C03AC0DC884E80D0041F69B30084417
:1012F000372190FBF1F290FBF1F5A5F1800501FBA0
:1013000012041B3C02D56442012000E00020DFF8FB
:1013100098A080460027FA44AAF1BE0A0EE0E00732
:101320000AD03246684607EB470101230AEB8101E8
:1013300003F0C5FB8DE8070064107F1C002CEED184
:10134000194F7F44AE3F19E0E80715D007EB0410B2
:101350000DF1180A90E80E008AE80E00C068F0420D
:1013600001D1981908903246012306A903A803F079
:10137000A6FB03AB83E807006D10641C002DE3D1CE
:101380004FF0010332466946B8F1000F03A802D0BE
:1013900003F080FB01E003F092FBC9E90001C9F80A
:1013A00008200AB0BDE8F087F43B000010B5044601
:1013B000AFF300802046BDE81040FEF784BF000078
:1013C000004870471000002030B44FF0013C50F846
:1013D000042B51F8043BCCFA52F4D51A20D1FCB9B5
:1013E00050F8042B51F8043BCCFA52F4D51A17D11B
:1013F000B4B950F8042B51F8043BCCFA52F4D51A86
:101400000ED16CB950F8042B51F8043BCCFA52F4CD
:10141000D51A05D1002CDAD030BC4FF0000070474F
:1014200029BAB1FA81F111F01801D1F120008440FC
:10143000F2D1CA40CB4012F0FF0213F0FF0330BCE0
:10144000D01A704701491820ABBEFEE72600020003
:1014500070470146806A426C12F0500F03D0C06B97
:10146000426B084610470168426C42F400724264C5
:10147000C96811F4406F18BF00F06CBAC16909B1B6
:1014800000F068BA416C21F480714164416CC90478
:101490005EBF416C41F00101416400F05BBA806ABB
:1014A000416C41F040014164816C41F00401816470
:1014B00000F079BA806A00F075BAB0B504460068E9
:1014C000816801F00301012923D10168C90720D0F7
:1014D000816801F00D01012911D1816841F00201FB
:1014E00081600321016000F0B5FD05462068806839
:1014F000C0070ED000F0AEFD401B0328F6D3606C91
:1015000040F010006064A06C40F00100A064012075
:10151000B0BD0020B0BD0000B0B5044600688168D1
:1015200001F00301012902D10168C9071DD18168B9
:101530000F4A11420FD1816841F00101816000F032
:1015400089FD054620680068C0070ED100F082FDC5
:10155000401B0328F6D3606C40F010006064A06C60
:1015600040F00100A0640120B0BD0020B0BD00BF6C
:101570003F000080FEE70000014800F0D5BB00BF3F
:101580009C01002010B5D0E910CE012404FA0EF41D
:10159000CCF804400468636040681028084608BF1F
:1015A0001046A06008BF0A46E26010BD7047EFF326
:1015B000108072B6FEE70000B0B50268046CE44D1E
:1015C0004FF0A043B2F1A04F08BFA5F50273012C64
:1015D00001D102210FE001240464946864075CBF18
:1015E0009C685FEA447408D5416C41F02001416475
:1015F0000121002202640846B0BDD1F800C02C6869
:1016000024F4604EBCF1000F1FD04C684EEA040E6B
:10161000446B4EEA44342C60946804F00304012CBB
:1016200002D11268D20727D19A6802F00302012A78
:1016300002D11A68D2071FD12A68896840F61F7341
:101640009A4341EA0C01114315E0C5F800E09168A6
:1016500001F00301012902D11168C9070CD1996871
:1016600001F00301012902D11968C90704D12968D1
:1016700040F61F72914329600021BAE778B5002235
:101680000092026C012A01D10221EEE001220264E3
:101690000668B268520700F1E1804A68042A0BD854
:1016A00002EB420253001F2202FA03F4324652F8C0
:1016B000305F25EA040E2BE0092A0CD802EB420227
:1016C0006FF01D0303EB42031F2202FA03F53246BB
:1016D00052F8344F1AE00E2A0CD802EB42026FF097
:1016E0003B0303EB42031F2202FA03F5324652F892
:1016F000384F0BE002EB42026FF0590303EB420359
:101700001F2202FA03F5324652F83C4F24EA050E36
:10171000D1F800C00CFA03F343EA0E031360B26879
:1017200012F00C0F23D0B26802F00302012A02D19A
:101730003268D20768D1CB68012202FA0CF2012B81
:1017400042D1D6F8B030BCF10A0F42EA0302C6F823
:10175000B0204DD30CEB4C02B569072389681B3AC6
:101760009340914025EA03031943B16131E00CEB4A
:101770004C021425BCF1090F4FF0070388BF1E3A35
:1017800088BF18257459934024EA03038C6804FA2F
:1017900002F21A437251D1E9042EF368013A032A86
:1017A00066D8062404EA93030EFA03F3DFE802F096
:1017B0000288929C43EA8C62336E644C23401A4345
:1017C00042F000423266AEE7D6F8B0109143C6F858
:1017D000B010E34ABCF1120F18D0BCF1110F18D0B1
:1017E000BCF1100F10D1116809020DD4012115E0D0
:1017F0000CEB4C02756907238968033293409140D2
:1018000025EA03031943716100212CE011684902A4
:1018100001E01168C9014FF0000124D44FF0A0434A
:10182000B6F1A04F08BFA2F50273B56805F0030535
:10183000012D02D13568ED0710D19D6805F0030533
:10184000012D02D11B68DB0708D1002956D0B6F163
:10185000A04F67D0BCF1120FD6D15EE0416C41F0D1
:1018600020014164012100220264084601B070BDDC
:10187000336E4FEA8C6203F0F843B3EB8C6F02BF18
:10188000336E23F000433366736E03F0F8439342E4
:1018900002BF736E23F000437366B36E03F0F84328
:1018A000934202BFB36E23F00043B366F36E03F0BE
:1018B000F84393427FF437AFF26E22F000421BE010
:1018C00043EA8C62736E214C23401A4342F000427B
:1018D000726628E743EA8C62B36E1C4C23401A43BD
:1018E00042F00042B2661EE743EA8C62F36E174C88
:1018F00023401A4342F00042F26614E7BCF1120F93
:101900000BD0BCF1110F7FF47FAFB6F1A04F7FF485
:101910007BAF116841F0807102E0116841F48001F1
:10192000116071E7116841F4000111608A498B4A26
:101930000968B1FBF2F101EB8101490001E0009976
:101940000139009100990029F9D15DE700F0FF030A
:10195000080300501149884218BF7047B0B5DFF83E
:1019600040C000224FF0050E0CF10C0108460DE0BE
:101970000023002402E0C55A0C332C443C2BFAD13E
:10198000B4FBFEF302302CF812300132062AEFD1FC
:1019900002481E22BDE8B04000F044B948010020D2
:1019A0007000002070477047BCB504460020002C32
:1019B00001904BD0606CC0064AD4606C002590BB8F
:1019C0002046A564C4E91355256400F0CFF82068CB
:1019D0008068C00027D42046FFF76FFD0546606C85
:1019E00000F0100028431ED12068616C41F2021201
:1019F000914302316164816821F0405181608168C6
:101A000041F080518160544854490068B0FBF1F0C6
:101A100000EB8000400001E001980138019001983E
:101A20000028F9D1002520688168C90002D58068A6
:101A300080000ED5606C012540F0100020F00200FF
:101A40006064A06C40F00100A06402E0012050E05E
:101A50000025606C00F01000284342D120688168A6
:101A600049073ED4616C4FF0A042B0F1A04F21F481
:101A7000817101F102016164394908BFA1F5027267
:101A8000836803F00303012B02D10368DB070DD148
:101A9000936803F00303012B02D11268D20705D12A
:101AA0000A68636822F440321A430A60A16BD4E9E1
:101AB00002C5E269636A45EA4235012918BF45F467
:101AC000805545EA0C01012B1CD1A2B1626C42F099
:101AD000200222F002026264A26C42F00102A264BF
:101AE00010E0012010216FF01202636C1A401143C4
:101AF000616402B0B0BDA26A1A4B03EB42421143CB
:101B000041F48031E26A012A1EBF1143226B114366
:101B1000826812F00C0F0AD1C26844F202039A43A1
:101B2000C260A269636B41EA823141EA4301C26843
:101B30000D4B1A401143C1602269016B21F00F0166
:101B4000012A02BF226A013A1143016300200121E8
:101B50006FF00302A064C8E70800002040420F00B5
:101B6000080300500000FEFF07C0F0FFF0B587B08B
:101B7000044602A81421FEF7DFFB2068B0F1A04F55
:101B800045D124480026032702AD016841F0805169
:101B90000160016801F0805101910199016841F4EF
:101BA00000310160016801F400310191019901687F
:101BB00041F4802101602946006800F480200190F2
:101BC0000198049603970F2002904FF0904000F088
:101BD0006DF9114829460496CDE9027700F066F9BF
:101BE0000E4D0F4B4FF480604FF480718022C5E999
:101BF0000036C5E90262C5E904102846C5E9066653
:101C000000F0DEF808B1FFF7D2FCE563AC6207B084
:101C1000F0BD00BF14100240000400489C010020E9
:101C2000080002402DE9F041044600688068400742
:101C300002D4206C012801D1022712E00120364D88
:101C40002064D5F8FC02C00602D00020012707E07E
:101C5000204690460E46FFF75FFC28B1074600205D
:101C600020643846BDE8F081606C40F6017188431D
:101C700000F580706064D5F8FC022168C00618D0B9
:101C8000B1F1A04F13D0606C40F48010606405F196
:101C9000F400814219D155F8F41B8901294614D565
:101CA000616C012262F30D31616401460DE04FF079
:101CB000A041606C20F480106064C868800104D585
:101CC000606C012262F30D306064606C0027134A7F
:101CD000134B144DC0044FF0000044BFA06C20F023
:101CE00006002764A064E06BC0E90B5342631C222A
:101CF00043460A604A6842F010024A60CA6842F0ED
:101D00000102CA604031324600F08CF820688168D8
:101D100041F004018160A4E70C0000509F1400080A
:101D2000B514000853140008B0B5D0E910CEDCF8A3
:101D30000010026813685C0710D5042404FA0EF43E
:101D400014EA01050AD0116889065EBF116821F006
:101D500004011160CCF80440016B2CE09C0714D501
:101D6000022404FA0EF414EA01050ED01168890663
:101D700005D4116821F00A0111600121416200219E
:101D8000CCF804400162C16A15E01B0717D508238F
:101D900003FA0EF3194008BFB0BD116821F00E011F
:101DA0001160012101FA0EF2CCF804200022C16377
:101DB000C0E90821416B11B1BDE8B0400847B0BD92
:101DC00001460120002908BF70472DE9F04391E842
:101DD0000451D1E90495D1E9066743F6F07413681C
:101DE000A3430F4C43EA080343EA0C0343EA0E0300
:101DF00043EA09032B4333433B4314271360224434
:101E0000064BB2FBF7F29200C1E910320022CA631E
:101E1000C1E908200020BDE8F043704700000240FF
:101E2000F8FFFDBF10B50446006A01281CD0012050
:101E30002062606A012815D10020E0630220606200
:101E4000D4F800C0DCF8000020F00100CCF800005D
:101E50002046FFF797FB2068226B016832B141F002
:101E60000E0109E000202062022010BD41F00A01AD
:101E70000160016821F004010160016841F0010185
:101E80000160002010BD0000B0B5044600F0E2F88B
:101E900005460548611C406818BF044400F0DAF8A4
:101EA000401BA042FAD3B0BD000000202DE9FC4F3A
:101EB000614A05234FF0000B4FF0010A4FF0030E6B
:101EC0004FF000080027904208BF032300930A68E0
:101ED00032FA07F608BFBDE8FC8F0AFA07F512EAE6
:101EE000050900F0A3804A68122A67D80AFA02F4AA
:101EF00014F0061F62D08368CE680EFA08F46FEA09
:101F0000040CA34306FA08F633438360C2F30013BC
:101F10004668BB40AE437D0033434360C3688E6870
:101F200003EA0C03AE403343C36042F01003122BAC
:101F300011D16FF003040BF01C020F2304EA5706C3
:101F400093400644346A24EA03030C6904FA02F25B
:101F50001A4332624A68066802F00303D20003FAA9
:101F600005F306EA0C0643EA060303605ED5D14A90
:101F70000BF00C050F26B0F1904F06FA05F613464C
:101F8000126842F001021A601A682C4B02F001023A
:101F9000A3F57E740192019A4FEA970254F8223019
:101FA00023EA060E10D0E64B984210D0254BDDF800
:101FB00000C0984208BF4FF0020C0AE00EFA08F584
:101FC0006FEA050C4546A9E74FF0000C01E04FF021
:101FD000010C0CFA05F343EA0E034FF0030E44F82C
:101FE0002230164A144612684E6842EA0903F50385
:101FF00058BF22EA09032360B503626842EA090375
:1020000058BF22EA09036360F502A26842EA0903A5
:1020100058BF22EA09030A4AA360B60215461268AD
:1020200042EA090358BF22EA09032B600BF1040BB3
:1020300008F1020801374AE7000C0048000401409B
:102040000C040140000800481823002A08BF282378
:10205000C150704701480068704700BF88040020E5
:1020600080B5D0F8C430022B01D102234CE0D0F867
:10207000C0C00223BCF1010F46D0C0F8C430012318
:102080000139C0F8C0300729D0F800C0DCF880E37F
:1020900015D8DFE801F0040B141B14141424518824
:1020A0005268CCF8BC2361F3124E20E0D2E9001252
:1020B000CCF8C023C1F30C4161F3D54E17E00021E9
:1020C000C0F8C0100721C0F8C41010E0D2E9001217
:1020D000CCF8C423C1F3094161F3985E07E0D2E96B
:1020E0000012CCF8C823C1F3064161F35B6ED0F84F
:1020F000C4100123072907D00021CCF880E3C0F8E1
:10210000C010C0F8C4300023184680BDD0F8C030DD
:102110000222012B21D0C0F8C42001224B1CC0F8A0
:10212000C0200268D2F8CCC309D04CF00203C2F838
:10213000CC33D2F8CC3323F00C03194301E02CF05C
:102140000201C2F8CC13D2F8CC1341F00101C2F85D
:10215000CC1301210022C0F8C410104670470000C3
:10216000D0F8C430022B01D102233EE0D0F8C0C029
:102170000223BCF1010F38D0B0B5C0F8C4301C4CFC
:10218000536904EA034CD2E90043D2E902E504F4BE
:10219000E0546FF35F2305F4004523440EF400740C
:1021A0002344146904F480442344124C2B4495695D
:1021B000634405F000752B44156AD26905F080452B
:1021C00002F000422B431A43036803EBC111D1F81C
:1021D000B83023401A430023C1F8B8200121C0F8C9
:1021E000C030C0F8C410BDE8B0401846704700BF0A
:1021F0000000FF010020003C002846D07CB50446CA
:1022000002201821C4F8C40004F1C800FEF794F8B5
:10221000207AC00719D020684749884209D125494A
:102220000A6842F000520A60096801F00051019109
:1022300001990168D4E9042321F4704102F4404279
:10224000114403F4405211440160204600F020F88C
:10225000207A800706D520680168E268120A62F3D6
:1022600009210160002500260120C4F8C050C4F8EF
:10227000C400A82E04BF00207CBDA0191421056352
:102280001830FEF759F81C36F3E70120704700BFFD
:1022900000682949884218BF704781B00548016825
:1022A00041F000510160006800F00050009000987B
:1022B00001B07047181002402DE9F04186B0044685
:1022C00001A81421FEF738F820681B49884230D154
:1022D0001A484FF00D0803260027022501AC0168BB
:1022E00041F480210160016801F48021009100998E
:1022F000016841F4003101602146006800F40030BB
:1023000000900098CDF814800496039702954FF43E
:10231000704001900A48FFF7C9FD4FF47060CDE9A5
:102320000468CDE90257214601904FF09040FFF735
:10233000BDFD06B0BDE8F0810074014014100240FC
:1023400000040048F8B50D460446FFF783FE064634
:102350006F1C2068D0F88803C0030CD4002FF8D07D
:10236000FFF778FE15B1801BA842F2D90720C4F808
:10237000C400032005E000200121C4F8C000C4F817
:10238000C41001B0F0BDD0F8C4C00223BCF1020FEC
:1023900032D080B5C0F8C4300529036810D119685F
:1023A00021F01F0CD2E9021E21F0180141EA0C01B4
:1023B00041EA0E011960116859615168996115E08F
:1023C00003EBC111D1F8803023F01F0CD2E9023E9B
:1023D00023F0180343EA0C0343EA0E03C1F88030EC
:1023E0001368C1F894305268C1F898200121002385
:1023F000C0F8C410BDE880401846704780B5D0F8DA
:10240000C4C0BCF1020F02D14FF0020C8DE0D0F835
:10241000C0E04FF0020CBEF1010F00F08680C0F862
:10242000C4C04FF0010C0529C0F8C0C00CD1511E2A
:1024300007291BD8DFE801F004211A251A1A1A29E6
:1024400001681A68CA6162E0A2F1010CBCF1070FD1
:102450000CD8DFE80CF0041E0B330B0B0B3A0268B0
:1024600002EBC1111A68C1F89C2050E00021C0F8AD
:10247000C0100721C0F8C41049E001681A684A6218
:1024800045E001681A688A6241E001681A68CA6218
:102490003DE0026802EBC11C1968CCF8A41061464B
:1024A000D3F804E051F8802F22F44052BEF1000F1F
:1024B0000A602CD00A6842EA0E021AE0026802EBB7
:1024C000C1111A68C1F8A82021E0026802EBC11C02
:1024D0001968CCF8AC106146D3F804E051F8802FAD
:1024E00022F44042BEF1000F0A6010D00A6842EAAE
:1024F0008E02BEF5405F0A6006D0BEF5005F04BFE5
:102500009968CCF89C1002E09968CCF8A810D0F833
:10251000C410072902D14FF0010C06E04FF0000C67
:102520000121C0F8C0C0C0F8C410604680BDD0F81A
:10253000C0300222012B0BD0C0F8C42002681368FF
:102540001943116000220121C0F8C020C0F8C41056
:1025500010467047B0B50446D0F8C400022804BF46
:102560000220B0BDD4F8C0C00220BCF1010F08BFEA
:10257000B0BDC4F8C40001252046C4F8C05000F026
:10258000B3FF0020C4F8C000C4F8C450B0BDD0F8F8
:10259000C0300222012B0DD0C0F8C4200268D2F84E
:1025A00094331943C2F8941300220121C0F8C020CB
:1025B000C0F8C410104670472DE9FE4FD0F8C43063
:1025C000022B01D10223D4E0D0F8C0700223012FE6
:1025D00000F0CF80C0F8C4300123684C0529C0F852
:1025E000C030D0F800B029D1DBF80070DBF8A0C310
:1025F00004F120052740D2E90546D2E9073E2C40E8
:10260000684D23F06E433C432EF068473540166B0F
:102610002C432343644C3B43576A3B43976A23F064
:10262000604304EA870737433B43D76ACBF800305F
:102630002CF480333B43CBF8A0337CE00BEBC11C84
:10264000E6465EF8803F23F07043CEF800306346E4
:10265000DEF8005053F8E8AF02936346254020347B
:1026600053F8E49F0193DBF8A0330093D2E9057699
:10267000D2E907383C402C43414D2E4005F580659A
:1026800034432B4023433F4C08EA040504F1006423
:102690002B43556A2B432340946A24F4003423438C
:1026A000146BB4F1005F384C08BF43F40033576B30
:1026B000966B1C40136D27F0FE7506F01F06002F69
:1026C00023F0FC7343EA0503956C45EA03052F4BA1
:1026D00003EA0A03D2F83CA01E4405D1D2F8408098
:1026E00029F4807348EA030945EA0408546C46EA71
:1026F0000A0544F48053B3F5F05F01D1402F03D1B4
:1027000029F4F05343EA0409009ED46C042907D845
:102710001FA34F1C53F821303340D66ABE401E43DE
:10272000CEF80080029B1D60019BC3F80090CCF89E
:10273000D440CBF8A063C1EBC1031768052900EBB7
:1027400083031F6257685F6297689F62D768DF6282
:1027500012691A6307D815A252F82110DBF88423F6
:102760001143CBF8841300230121C0F8C030C0F816
:10277000C410184603B0BDE8F08F00BFDFF3FFF1CF
:10278000FFFBFD01FFFFFD07BFFF03FEE0FFFF7F33
:10279000FFFFFDFFFFFFFBFFFFFFF7FFFFFFEFFF67
:1027A000FFFFDFFFFFFBFF11FCFFFFDF0200000068
:1027B00004000000080000001000000020000000DD
:1027C00001000000426C202A02D1026C012A01D1D2
:1027D000022115E0242242640268136823F00103F9
:1027E0001360136823F48053136013681943116056
:1027F000116841F00101116000212022016442644E
:1028000008467047426C202A02D1026C012A01D18D
:10281000022114E0242242640268136823F00103B9
:102820001360136823F4706343EA01211160116897
:1028300041F0010111600021202201644264084638
:1028400070470000F8B110B50446406C20B9002074
:102850002064204600F0D8F82420606420680168D5
:1028600021F001010160616821F0706101618168FE
:1028700021F400418160D4E90212012A05D141F41A
:102880000041816009E00120704741F40441022ABF
:10289000816004BF4FF40061416041680E4A04F159
:1028A000100311434160C16821F40041C1600ECBA7
:1028B000114341EA0321C160D4E9071211430160C9
:1028C000016841F00101016000202021E0646164A1
:1028D0002063A06410BD00BF008000022DE9F84312
:1028E0000446406C202802D1206C012804D1022724
:1028F000384601B0BDE8F08301271E4615468846DC
:102900002764FFF7A7FB8146009020464FF4004163
:102910000122192300F096FE0028E9D121206064ED
:102920001020A0640020E06466856562606334481E
:10293000618DB1F5807F06D3FF21FF224FF08073B8
:102940002185009005E0618D4FF000732185009096
:10295000CAB22046414600F063FE089F0025FF26CC
:1029600036E0204639464A4600F0BDFEC8BB616AE3
:10297000206811F8012B8262608D013860856162E8
:10298000208D411E21850904608D21D100B3204690
:10299000802100223B46CDF8009000F053FE00BBA2
:1029A000608DB0F5807F09D320464146FF224FF06D
:1029B00080732685009500F033FE09E0608D414666
:1029C0004FF000732085C2B22046009500F028FE2B
:1029D000608D0028C5D1204639464A4600F062FE87
:1029E00008B1012784E720682021064B0027C16138
:1029F00042681A40426061642764A76478E700BFB8
:102A00000020008000E800FE2DE9F04387B0044676
:102A100002A81421FDF790FC2068214988423BD18F
:102A2000204D02AC4FF004084FF003090126122795
:102A30002146286840F400302860286800F40030FF
:102A400001900198286840F480202860286800F4EC
:102A5000802001900198CDF81880CDF8149004964C
:102A600003974FF4004002904FF09040FFF71EFA9A
:102A70004FF40070CDE90598CDE903762146029028
:102A80000948FFF713FAA86840F40010A860A86886
:102A900000F400100190019807B0BDE8F08300BF7A
:102AA0000054004014100240000400481A48034932
:102AB00040680A6810440860704700BF880400201E
:102AC00080B5D548016841F010010160032000F095
:102AD00075F8002000F004F800F020F8002080BD18
:102AE00070B50D4E04464FF47A717068B1FBF0F08A
:102AF000D1490968B1FBF0F000F03EFB01250F2C35
:102B000008D838B94FF0FF3021460022002500F0E8
:102B10002BF83460284670BD0000002082B00A48BF
:102B2000016841F001010160016801F001010191BA
:102B30000199416841F080514160406800F0805047
:102B40000090009802B0704718100240002808DB7F
:102B500000F01F010122400902FA01F1014A42F886
:102B60002010704700E100E0B0B500F00F03194DF0
:102B7000114CB0F1FF3FA3F104032B4403F10C030C
:102B8000C8BF031928684FF0FF34C0F30220C51EE8
:102B900080F0070038BF0025042828BF042004FA6D
:102BA00000F021EA000004FA05F1A84022EA010140
:102BB000084300011870B0BD00E400E005494FF67D
:102BC000FF030A681A4060F30A22034810430860B2
:102BD000704700BF0CED00E00000FA052DE9FC4154
:102BE00004468078434EC00756D03068C0000BD4EE
:102BF00030684FF0010840F080503060306800F0DD
:102C000080500190019801E04FF000083A4F386879
:102C1000C00510D4386840F480703860FFF71AFAA5
:102C200005463868C00506D4FFF714FA401B64282F
:102C3000F7D903205AE0706810F440701ED0616824
:102C400001F44071884219D02C49706801220A6051
:102C500000220A6020F44071C00771600ED0FFF7B7
:102C6000F9F9054641F288377068800706D4FFF706
:102C7000F1F9411B0320B942F6D937E07068616869
:102C8000B8F1000F20F4407040EA010070601EBFF0
:102C9000306820F0805030602068C10705D071692D
:102CA000A26821F0030111437161810605D57169A4
:102CB000E26821F0100111437161010605D5316907
:102CC000226921F4F87111433161C10405D571699C
:102CD000626921F4807111437161400405D5706906
:102CE000A16920F4805008437061002002B0BDE863
:102CF000F08100BF1C1002400070004040044242BE
:102D00002DE9F843002800F083800D46424904462F
:102D1000086800F00700A84209D2086820F0070000
:102D200028430860086800F00700A84270D12068B6
:102D3000514B8946810705D51968A26821F0F00139
:102D400011431960C0072DD06068022806D0012801
:102D500009D153F8041C890309D459E053F8041C21
:102D6000890104D454E053F8041C890750D519682C
:102D7000984621F0030108431860FFF76BF90646F7
:102D800041F28837D8F800006168434600F00C0033
:102D9000B0EB810F06D0FFF75DF9801BB842F1D987
:102DA000032036E0D9F8000000F00700A8420CD953
:102DB000D9F8000020F007002843C9F80000D9F82E
:102DC000000000F00700A84222D12068410705D585
:102DD0001968E26821F4E06111431960000706D523
:102DE0001868216920F4605040EAC10018601C4650
:102DF00000F026F82168094AC1F30311515CC8406C
:102E00000D49086006480068FFF76AFE002000E0F0
:102E1000012001B0BDE8F08300200240E44E00082C
:102E20000000002004481449044A00680968C1F3FE
:102E30000221515CC840704708000020F44E000891
:102E400010B50D4C0D48226802F00C03082B18BF7A
:102E500010BD0B49C2F38343D203CB5CA16A02D4F9
:102E60000948584310BD074A01F00F01515CB0FBFF
:102E7000F1F0584310BD00BF0410024000127A0068
:102E8000145700082457000800093D002DE9FC41B3
:102E9000002800F02F8104460078B44EC00747D0C8
:102EA000706800F00C00042805D1306880033FD51D
:102EB0006068E8BB1EE1706800F00C00082802D1D1
:102EC0007068C003F1D467686FB1B7F5803F06D072
:102ED0003068B7F5A02F07D140F48020306030680B
:102EE00040F4803006E0306820F480303060306894
:102EF00020F480203060F06AA16820F00F000843C1
:102F0000F062FFF7A7F8054647B1306880030FD499
:102F1000FFF7A0F8401B6428F7D9CDE030688003A4
:102F200006D5FFF797F8411B03206429F6D9E2E0A4
:102F3000207880072BD5706810F00C0F07D07068D0
:102F400000F00C00082809D17068C00306D430686E
:102F5000800715D52069012812D0CBE0216984486B
:102F600000296FD001210160FFF774F80546306831
:102F7000800705D4FFF76EF8401B0228F7D99BE0C5
:102F80003068616920F0F80040EAC10030602078C4
:102F9000000721D5A06978B175480121C0F88014D7
:102FA000FFF758F80546706A800715D4FFF752F806
:102FB000401B0228F7D97FE06D480021C0F880143B
:102FC000FFF748F80546706A800705D5FFF742F815
:102FD000401B0228F7D96FE02078400775D5F069CB
:102FE000C0000BD4F0694FF0010840F08050F06150
:102FF000F06900F080500190019801E04FF0000866
:103000005C4F3868C0050FD4386840F48070386071
:10301000FFF720F805463868C00505D4FFF71AF811
:10302000401B6428F7D947E0E068D0B1012805D0FB
:10303000316A05282CD141F004003062306A40F03A
:1030400001002BE000210160FFF704F8054630681D
:1030500080079CD5FEF7FEFF411B03200229F6D90D
:1030600049E0306A20F001003062306A20F004004C
:103070003062FEF7EFFF054641F28837306A80077D
:103080001CD5FEF7E7FF411B0320B942F6D932E019
:1030900021F001003062306A20F004003062FEF757
:1030A000D9FF054641F28837306A800706D4FEF71B
:1030B000D1FF401BB842F7D903201CE0B8F1000F44
:1030C0001EBFF06920F08050F061E769002F4AD000
:1030D000706800F00C00082810D1012F0AD0706829
:1030E000216A00F480328A4204D1616A00F47010CF
:1030F000884238D0012002B0BDE8F0811C49002090
:1031000088460866FEF7A6FF0546022F0AD1474605
:103110003068800110D5FEF79DFF411B0320022976
:10312000F6D9E8E7306880011DD5FEF793FF411B13
:1031300003200229F6D9DEE77068D4E9081220F4EA
:10314000741010430843706001203866FEF782FF58
:1031500004463068800106D4FEF77CFF011B032083
:103160000229F6D9C7E70020C5E700BF00100240DA
:103170000000424200700040411E0020B0EB116F81
:103180001CBF01207047044AF023516003490B70B3
:10319000072190601160704710E000E023ED00E02F
:1031A000704770477047E8B110B50446006C20B90D
:1031B0000020E063204600F017F80220211D206463
:1031C000206800F069FF0120E0666064A064E064AC
:1031D00020656065A065E06520666066A066206485
:1031E000002010BD0120704700680C49884218BFBC
:1031F0007047E0B50A480022016841F4802101606F
:103200000021006800F48020019001981A20FFF747
:10321000ABFC1A20BDE88C40FFF798BC0048014089
:1032200018100240016C01291CBF012070470221C7
:1032300001640168C868B1F1804F40F00100C860C6
:1032400008D00C48814205D00B48814202D00B487F
:10325000814209D188680A4A02400020062A08D023
:10326000B2F5803F08BF7047086840F00100086071
:10327000002070470004004000400140002C014045
:1032800007000100704710B504460068016989070E
:1032900044BFC1685FEA81713FD40169490744BFF7
:1032A000C1685FEA417144D40169090744BFC1683C
:1032B0005FEA01714AD40169C90644BFC1685FEA87
:1032C000C1614FD40169C9071CBFC1685FEAC17100
:1032D00055D10169090644BFC1685FEA016156D44E
:1032E0000169C90544BFC1685FEA016157D401693A
:1032F000490644BFC1685FEA416158D40169890643
:1033000046BFC1685FEA816110BD6FF020010161B5
:103310002046BDE81040FFF745BF6FF00201016194
:103320000121E1618069800749D02046FFF7AAFFAB
:103330004BE06FF0040101610221E161806910F44A
:10334000407F46D02046FFF79DFF48E06FF0080120
:1033500001610421E161C069800744D02046FFF784
:1033600091FF46E06FF0100101610821E161C06941
:1033700010F4407F41D02046FFF784FF43E06FF018
:1033800001010161204600F045F82068A1E76FF0D7
:10339000800101612046FFF704FF2068A0E76FF479
:1033A000807101612046FFF7FBFE20689FE76FF008
:1033B00040010161204600F035F820689EE7204674
:1033C00000F025F8204600F023F80020E061206896
:1033D00063E7204600F01BF8204600F019F80020B3
:1033E000E061206860E7204600F011F8204600F018
:1033F0000FF80020E06120685DE7204600F007F844
:10340000204600F005F80020E06120685AE7704788
:10341000704700000249884208BF01F09DB870471C
:1034200018030020704710B598B10446806F20B98A
:1034300000206067204600F025F82420A06720685F
:10344000016821F001010160204600F029FF0128F8
:1034500001D1012010BD606A10B1204600F086FE47
:103460002068416821F490414160816821F02A017F
:103470008160016841F0010101602046BDE8104013
:1034800000F0DDBE10B586B0044601A81421FCF79B
:1034900053FF20681249884220D1EB48416841F42B
:1034A00080414160416801F48041009100990168C8
:1034B00041F48021016001A9006800F4802000909F
:1034C000009807200590032004900020039002201C
:1034D0000290C02001900348FEF7E8FC06B010BD42
:1034E00000380140000400482DE9F0410068551EF5
:1034F000072D00EBC1144FF00001A04658F8E4EF8F
:1035000058F82CCC0ED9102A12D0202A18D0402AD4
:103510000ED0802A18BFB2F5007F11D0B2F5807F9F
:1035200006D014E0DFE805F0040C13041313130CA9
:103530005968C4F8BC109968C4F8C010002106E0AE
:103540005968C4F8C4109968C4F8C8101021FE2244
:103550001D6803F10C071CF0022F02FA01F2D1CF13
:103560002EEA020205FA01F542EA050200FA01F02C
:1035700040EA020004FA01F240EA020006FA01F20F
:1035800040EA020007FA01F242EA000201BF082CF9
:10359000D86988400243C8F80020BDE8F081FEE702
:1035A00000688169890744BF002181628169C90778
:1035B00002BF816941F0010181617047F8B504469D
:1035C00000680E468169C90601D4002024E0154632
:1035D000771C08E03FB1FEF73DFD20219EB1401B66
:1035E000B04210D8206881698906F3D51021C161E5
:1035F0002021C1612046FFF7D3FF2068074A4168B8
:10360000114041600421E06C0843E06420206064C4
:1036100000202064A064012001B0F0BD00E800FE9D
:103620006FF39F210068194341EA0241009A436801
:10363000114323EA5252024B1A4011434160704732
:10364000009C00FC2DE9F843DDF820801D4616465D
:103650000F4681465C1CD9F8000080693840C01BC9
:10366000B0FA80F04009B04218D1002CF3D0FEF738
:10367000F1FC1DB1A0EB0800A842ECD9D9F84C0030
:1036800040F02000C9F84C002020C9F84400002078
:10369000C9F84000C9F84800012000E0002001B04E
:1036A000BDE8F08370B515460E4604462068806973
:1036B000800644BF002070BD204631462A46FFF7F1
:1036C0007DFF70B9FEF7C6FC16B1401BB042EDD9C4
:1036D000E06C40F02000E064202060640020206462
:1036E000A064012070BDF8B515460E4604464F1C77
:1036F00020688069800718D4204631462A46FFF7A3
:103700005DFF80B9002FF3D0FEF7A4FC16B1401B7B
:10371000B042EDD9E06C40F02000E064202060640D
:1037200000202064A064012000E0002001B0F0BD72
:1037300010B58AB0002401A818210994CDE90744E6
:10374000FCF7FAFD344806214FF4806E01224FF059
:10375000A04C4FF4E073446201620421C0E90B3EC7
:10376000C0E90D44C0E900C4C0E90244C0E9042135
:10377000C0E90642FEF718F908B1FDF718FF264820
:1037800007A90794FDF718FF08B1FDF710FF012006
:1037900001A9CDE901000020CDE90500CDE9030034
:1037A0001D48FDF76BFF08B1FDF701FF022001A9DD
:1037B000CDE901001848FDF761FF08B1FDF7F7FEFC
:1037C000032001A9CDE901001348FDF757FF08B117
:1037D000FDF7EDFE042001A9CDE901000E48FDF73B
:1037E0004DFF08B1FDF7E3FE052001A902900B2073
:1037F00001900948FDF742FF08B1FDF7D8FE062009
:1038000001A902900C2001900348FDF737FF08B191
:10381000FDF7CDFE0AB010BD48010020E0B52548F7
:103820000022016841F0010101600721006800F0F9
:103830000100019001980B20FFF796F90B20BDE8DD
:103840008C40FFF783B900BF14100240B0B586B0BA
:1038500000241848002240250594016841F48001A5
:103860000160016801F4800100910099016841F450
:1038700000310160016801F4003100910099016894
:1038800041F4802101604021006800F48020009014
:1038900000984FF09040FEF7D7FB0120CDE903449C
:1038A00001A9CDE901504FF09040FEF7FFFA06B0B4
:1038B000B0BD00BF14100240F0B5B1B0002515A88E
:1038C0005421CDE92E55CDE92C55CDE92A55FCF7EB
:1038D00033FD09A824211495CDE91255FCF72CFDE0
:1038E00001AC20212046FCF727FDDFF8AC0C044991
:1038F000C0E900158560FEF77FFC28B102E000BF3B
:1039000000740140FDF753FEDFF88C0C0C21FEF72C
:10391000FDFB08B1FDF74BFEDFF87C0C0A21FEF73A
:1039200011FD08B1FDF743FE4FF400402EAA01211E
:1039300001252F904FF400302E90DFF85C0CFEF73D
:103940008FFB08B1FDF733FE08202AAA0521CDE937
:103950002C50FF202B904FF4B4402A90CB48FEF718
:1039600012FD08B1FDF723FE0026012015AD05214B
:10397000CDE91766CDE915661D96CDE91B66CDE943
:1039800019064FF000502A4621904FF00060CDE913
:103990001F661E90BD48FEF70FFE08B1FDF707FE3B
:1039A00045F6CC302B962AAA00212A90B748FEF77C
:1039B000EAFC08B1FDF7FBFD0026012705F1340004
:1039C0001821CDE91766CDE915661997FCF7B4FC07
:1039D0001020299600212A462890AC48FEF7ECFDDD
:1039E00008B1FDF7E4FDA94815AA01211997CDE911
:1039F0001766FEF7E1FD08B1FDF7D9FDA3480125E3
:103A0000002615AA02211995CDE91766FEF7D4FD07
:103A100008B1FDF7CCFD4FF48070269615AA03215E
:103A200025909A481995CDE91766FEF7C5FD08B1AE
:103A3000FDF7BDFD41F2883012AB002101220025C7
:103A400012909248FEF7DAFC08B1FDF7B0FD42F2A1
:103A50001070CDE9135512AB0021022212908B4851
:103A6000FEF7CCFC08B1FDF7A2FD002541F288303D
:103A700012AB01210222149512908448FEF7BEFC7D
:103A800008B1FDF794FD4FF6EF70149512AB0221CB
:103A9000022212907D48FEF7B1FC08B1FDF787FDC8
:103AA00041F2883012AB00210422002512907748A1
:103AB000FEF7A4FC08B1FDF77AFD42F210701495F0
:103AC00012AB0021082212907048FEF797FC08B153
:103AD000FDF76DFD00254FF6EF7012AB02210822B5
:103AE000149512906948FEF789FC08B1FDF75FFD57
:103AF0004FF4FA701195CDE90F5509AA0121CDE9CE
:103B00000D50CDE90B55CDE909506048FEF728FB73
:103B100008B1FDF74CFD5D4809AA0321FEF720FB23
:103B200008B1FDF744FD1020002514210390082062
:103B3000029004F10C000195FCF7FEFB53480021B4
:103B400001222346FEF706FD08B1FDF730FD4F4880
:103B500001AB01210422CDE90255FEF7FBFC08B1BF
:103B6000FDF725FD1020082401AB0221102203904F
:103B700046480294FEF7EEFC08B1FDF718FD04205C
:103B8000039401AB03214022402402903F48FEF7FA
:103B9000E1FC08B1FDF70BFD2020039401AB0021EF
:103BA0000222002402903948FEF7D4FC08B1FDF748
:103BB000FEFC364801AB01210822CDE90244FEF7A4
:103BC000C9FC08B1FDF7F3FC402001AB0221202223
:103BD0000390202002902D48FEF7BCFC08B1FDF7B1
:103BE000E6FC002001AB03218022CDE9020027483A
:103BF000FEF7B0FC08B1FDF7DAFC4FF4B4402AAA96
:103C000001212A902148FEF7BEFB08B1FDF7CFFC49
:103C100045F6CC302AAA02212A901C48FEF7B3FBB5
:103C200008B1FDF7C4FC42F2107012AB0221012270
:103C300012901648FEF7E2FB08B1FDF7B8FC4FF60C
:103C4000EF7012AB0221042212901048FEF7D6FB4F
:103C500008B1FDF7ACFC00202AAA03212C900B48E8
:103C6000FEF791FB08B1FDF7A2FC41F2883012ABE0
:103C70000321012212900548FEF7C0FB08B1FDF7B1
:103C800096FC0248FEF718FB31B0F0BDE4010020BD
:103C900010B5B54C124A134B01200021C4E9003283
:103CA000C4E9021004F110001421FCF745FB204682
:103CB000FEF7C8FD08B1FDF77AFCAB480021FEF71E
:103CC00081FD08B1FDF773FCA7480021FEF79AFDBE
:103CD000002814BFBDE8104010BDFDF768BC00BF50
:103CE0003F1E10000054004010B5EA480A4C47231C
:103CF000002140F2E732C0E90043C0E90212C0E906
:103D000004118161FFF74FFA002814BFBDE810408D
:103D100010BDFDF74CBC00BF0048014010B50C4879
:103D20000C4C00220C214FF41643C0E90822C0E9D4
:103D30000043C0E90222C0E90421C0E90622FFF7DE
:103D400072FB002814BFBDE8104010BDFDF72FBC6A
:103D50008803002000380140FEE7FEE770B53E4DC5
:103D60000024E0B2072888BF70BDA4F15000C0B2A3
:103D7000A84700200026A8471020A84703E00020FD
:103D800000F0E0F8013670B20028F8DA0134E8E714
:103D900010B5314C8D20A0471420A047AF202146FC
:103DA000BDE81040084700BF10B54FF4FA70FEF7A9
:103DB0006BF8294CAE20A0470020A0471020A04758
:103DC0004020A0478120A047FF20A047A120A04776
:103DD000C820A047A620A047A820A0473F20A04772
:103DE000D320A0470020A047D520A0478020A0478F
:103DF000D920A047F120A047DA20A0471220A047F1
:103E0000DB20A0474020A0472020A0470220A04759
:103E10008D20A0471420A047A420A047A620A0479B
:103E2000AF20A047FFF79AFF00200021BDE8104017
:103E3000AFF30080B0B50446A1F15000064DC0B20A
:103E4000A84720091030A84704F00E002946013089
:103E5000BDE8B040084700BF213F00082DE9F84306
:103E6000044640B21D46164601EBD4170028D8BFC1
:103E700000242046F9B2FFF7DDFFA6F12000102D47
:103E8000C0B220D1DFF860804FEA0019002608EBAD
:103E9000001503E0A85D00F055F80136082EF9D1B1
:103EA000781CC1B22046FFF7C5FF49F00800002585
:103EB00008EB0004082D08BFBDE8F883605D00F042
:103EC00041F80135F6E7074900EB4000002501EB1A
:103ED000400403E0605D00F035F80135062DF9D1AE
:103EE000BDE8F883FC4E0008245100082DE9F0419C
:103EF000984615460E46074600240BE0F8B2F1B28C
:103F00004346FFF7ABFF08370134F8B2782884BF87
:103F100002360027E0B22A5C002AEFD1BDE8F0812A
:103F2000E0B58DF8070000200DF10602782102238C
:103F30008DF806004FF6FF7000900B48FEF7CEFCA0
:103F40008CBD00BFE0B58DF8070040200DF10602E2
:103F5000782102238DF806004FF6FF70009002488A
:103F6000FEF7BCFC8CBD00BFC40200202DE9FC4163
:103F70000D4D0E46074664211C4690462846FCF728
:103F8000DBF908AA284621460192FCF7C3F904464A
:103F9000384631462A464346FFF7A8FFA0B2002123
:103FA000295402B0BDE8F0812404002090B18AB108
:103FB00080B501701168416051688160916880ED41
:103FC000040AC0ED050AC16020302821FCF7B4F9CD
:103FD000BDE88040704770477047FEF767BDB0B5D9
:103FE00096B0002407A81421CDE91144CDE90F446F
:103FF000FCF7A2F968461C21FCF79EF94FF4E0108B
:104000000225102115904FF48030149013951191D2
:1040100001211091CDE90D0403200C900CA8FEF7AE
:1040200035FF18B1EFF3108072B6FEE74FF48060F1
:104030000B9402210A900F20CDE90854079007A89D
:10404000FEF75EFE18B1EFF3108072B6FEE74FF494
:10405000807044F2A10104900020029000914FF47E
:104060008051069103906846FEF7B8FD18B1EFF352
:10407000108072B6FEE716B0B0BD000002480168BD
:1040800041F470010160704788ED00E00148FFF7DE
:10409000FAB800BF18030020B0B503682E4AB0F18B
:1040A000804F18BF904235D14C6823F070032343F2
:1040B00002F5E054041BB4FA84F44FEA541C02F5F0
:1040C000C054041BB4FA84F4650902F5A054041B1F
:1040D000B4FA84F44FEA541ECC6823F440732343AB
:1040E0004C6923F08003BCF1000F43EA0403036032
:1040F0008B68C3620B68836208BF002D02D0096918
:10410000016304E09042FAD0BEF1000FF7D1012123
:104110004161B0BD114CA042C6D002F5E05502F598
:10412000A054451B041BB5FA85F5B4FA84F44FEA94
:10413000551C02F5C0554FEA541E094C451BB5FAF3
:1041400085F5A0424FEA5515C6D0064CA042C3D013
:10415000054CA042C0D0C3E7002C01400004004041
:10416000004001400048014000440140416ACA0744
:1041700008D002685368D0F828C023F4003343EA1B
:104180000C0353608A0708D502685368D0F82CC026
:1041900023F4803343EA0C0353604A0708D50268CE
:1041A0005368D0F830C023F4802343EA0C035360F3
:1041B0000A0708D502685368D0F834C023F40043D6
:1041C00043EA0C035360CA0608D502689368D0F826
:1041D00038C023F4805343EA0C0393608A0608D561
:1041E00002689368D0F83CC023F4005343EA0C0300
:1041F000936080B54A0615D5D0F800E0DEF804C01B
:10420000036C2CF48012B3F5801F42EA0302CEF84F
:10421000042007D1DEF80420436C22F4C0021A43C4
:10422000CEF804200906BDE8804058BF70470168F9
:104230004A68806C22F40022104348607047BCB585
:1042400004460020C4F88000FDF704FF05462068FE
:10425000016809070BD56FF07E404FF40011002272
:104260002B460090204600F0ABF870B9206800683B
:1042700040070CD56FF07E404FF4800100222B46A2
:104280000090204600F09CF808B1032005E02020B3
:10429000A067E06700206067206602B0B0BD000044
:1042A000B0B5044600683C4DA168D4E9042311432D
:1042B00041EA0302E16903680A432B401A430260A2
:1042C0004268E36822F440521A434260A269236ABA
:1042D0001A43836823F430631A43304B8260002210
:1042E00098420ED02E4B98420BD02E4A904207D1C6
:1042F0002D482EA2006800F0030052F8202000E0B4
:1043000010222E48B1F5004F0CD10121082A3DD8CA
:10431000DFE802F0053C1B3C153C3C3C1900FEF775
:1043200081FD0EE00121082A30D8DFE802F0052FD8
:10433000222F1C2F2F2F2000FEF774FD15E0FEF713
:104340007FFD10B91FE04FF4004061684A0802EB9E
:104350004000B0FBF1F04FF6F071014015D0C0F312
:10436000420008430DE0FEF76BFD10B90BE04FF47F
:104370000040616800EB5100B0FBF1F080B2102802
:1043800003D32168C860002100E001210020C4E9B6
:1043900019000846B0BD00BFF369FFEF00440040BC
:1043A000004800400038014030100240000000008A
:1043B00004000000080000000200000000127A0063
:1043C0002DE9F843DDF820900F460168984616461F
:1043D000044609F10105C8693840C01BB0FA80F0F5
:1043E0004009B04223D1002DF5D0FDF733FE2168FE
:1043F000B9F1000F0A681ED0A0EB080048451AD892
:10440000500744BFC8695FEA0050E4D54FF400602C
:104410000862086820F4D0700860886820F0010005
:1044200088602020A067E06704F180000EE0002093
:1044300001B0BDE8F08322F4D0700860886820F0F5
:10444000010088602020A06704F17C002021016029
:10445000002060670320EBE7FEE70000FEF730FB7B
:10446000FFF7BDFDFFF7F2F9FFF7D8F9FFF724FAE0
:10447000FFF75EF9FFF70CFCFFF750FCFFF734FC89
:104480009FED278AB7EE009A244A26480121B0EE14
:10449000490AF0EE480AFFF789FD2348234A012123
:1044A000B0EE490AF0EE480AFFF780FD204C214D9E
:1044B0004FF480312046A8471F4E20460321B047C5
:1044C00020464FF40031A84720460C21B047204633
:1044D0004FF48021A84720463021B04720464FF4B2
:1044E0000021A8474FF0904040210022FDF7ACFD8D
:1044F00012481E2200F10C011148FDF793FBFFF753
:1045000053FCFFF745FC0FA3002000211022FFF70A
:104510002DFD1048FEF786FEFEE700BF405700085D
:10452000CDCCCC3E00010020B8000020345700085C
:10453000E40100202F2500088F25000870000020CE
:104540004801002048656C6C6F20576F726C642EB8
:1045500000000000180300200F490E480022D1F887
:1045600000C00430B2F5C07F08BF704730F8041CAB
:104570000CEB02038032C3F89C1030F8021CC3F825
:10458000A4100188C3F8A81041880830C3F8AC1003
:10459000E8E700BF0C040020E40100205FEA400CC3
:1045A00008BF91F0000F4FEA8C234FEAC12243EA83
:1045B00051514FEA1C5018BF00F5F0404FEA30004F
:1045C00018BF41F000415FEA6C5C00F02980BCF14B
:1045D000FF3F08BF40F080407047130C06BF120435
:1045E0004FF0100C4FF0000C130E04BF12020CF130
:1045F000080C130F04BF12010CF1040C930F04BF3D
:1046000092000CF1020CD30F04BF52000CF1010C0C
:1046100011464FF00002A0F11F00A0EB0C00704704
:1046200011F0004F08BF704731F000413FF4D5AFA3
:104630000B0C06BF09044FF0100C4FF0000C0B0ED2
:1046400004BF09020CF1080C0B0F04BF09010CF1A7
:10465000040C8B0F04BF89000CF1020CCB0F04BFBC
:1046600049000CF1010CCCF1200322FA03F341EADA
:10467000030102FA0CF2A0EB0C0000F101007047FC
:1046800023F07F4720F07F4C80EA030000F00040D9
:10469000ACEB070303F57C5303F1FF032DE98049DD
:1046A00009B44FEA144324EA03484FEA154B25EABC
:1046B0000B4E0FF2042606EB13273E7803FB06672A
:1046C000C7F5000707FB06F64FEAD64606F10206D5
:1046D0004FEA543707FB066CCCF1005C4FEA1C47ED
:1046E0002CEA074C0CFB06F507FB06F404EB154619
:1046F0004FEA961649085FEA320234BF00204FF0B5
:1047000000404FEAD13706FB07FC4FEA1C4C0CFB7C
:104710000BF7D21B03FB0CF761EB07010CFB0EF749
:10472000B0EB074072EB17420CFB08F734BFA2EB6B
:104730000742B2EB074261EB17414FEA0C444FEAE4
:10474000910706FB07FC4FEA1C4C0CFB0BF7B0EB88
:10475000C74072EB573203FB0CF734BFA2EBC742E2
:10476000B2EBC74261EB57310CFB0EF7B0EBC70061
:1047700072EB57720CFB08F734BFA2EBC702B2EB27
:10478000C70261EB57714FEA816141EA92114FEA2A
:10479000826242EA90124FEA806004EBCC04039FED
:1047A0004FEAD13706FB07FC4FEA1C4C0CFB0BF71A
:1047B000D21B03FB0CF761EB07010CFB0EF7B0EB10
:1047C000074072EB17420CFB08F734BFA2EB07421D
:1047D000B2EB074261EB17414FEA8C5504EB9C2486
:1047E0004FEA910706FB07FC4FEA1C4C0CFB0BF74A
:1047F000B0EBC74072EB573203FB0CF734BFA2EBB0
:10480000C742B2EBC74261EB57310CFB0EF7B0EB7E
:10481000C70072EB57720CFB08F734BFA2EBC7025C
:10482000B2EBC70261EB57714FEA816141EA921125
:104830004FEA826242EA90124FEA806015EB4C2503
:1048400044F100044FEAD13706FB07FC4FEA1C4C49
:104850000CFB0BF7D21B03FB0CF761EB07010CFB06
:104860000EF7B0EB074072EB17420CFB08F734BFB2
:10487000A2EB0742B2EB074261EB17414FEA8131ED
:1048800041EA92414FEA823242EA90424FEA803056
:104890004FEA0C7615EB1C1544F1000448EA03437B
:1048A0004EEA0B484FF0000EB2EB080C71EB030719
:1048B00024BF624639464EEB0E0E4FF0000B001837
:1048C000524149414BEB0B0BB2EB080C71EB030768
:1048D0007BF1000B24BF624639464EEB0E0E4FF0C3
:1048E000000B0018524149414BEB0B0BB2EB080C8B
:1048F00071EB03077BF1000B24BF624639464EEB98
:104900000E0E51EA020718BF46F0010616EB0E76AE
:1049100055F1000254F1000103D5BDE88901BDE85D
:104920000088BDE88901BDE80048B619524141EB55
:104930000101A3F10103704780807F7E7D7C7B7A3B
:104940007978777676757473727171706F6E6E6D3B
:104950006C6C6B6A6A6968686766666564646363E1
:1049600062616160605F5F5E5E5D5D5C5C5B5B5A67
:104970005A595958585757565655555554545353D4
:1049800052525251515050504F4F4F4E4E4D4D4D2F
:104990004C4C4C4B4B4B4A4A4A494949484848477A
:1049A00047474746464645454544444444434343B8
:1049B00043424242424141419C46002B30D4770061
:1049C0002BD04FEA37071CB503B44FF010004FF05F
:1049D0001001BAF1000F06D0BCF1000FDCBF40F0AF
:1049E000080040F008014FF000000FBCBDE8104087
:1049F0000BF1010BBBF1010F08BF5FEA170722BFE4
:104A000012F1010211F101014FF0004143F10003E5
:104A100000F0004043EA00007047F9D35708D0E7A0
:104A200046EA06464FEA164613F1400F1FDD13F122
:104A3000200FDFBF16430A46002120335B42BED061
:104A4000C3F1200746EA06464FEA164602FA07F780
:104A500046EA070622FA03F2C3F1200701FA07F734
:104A600042EA070221FA03F14FF00003A7E746EA02
:104A7000020646EA06464FEA164646EA0106BCBF6B
:104A800046EA0646360C4FF000034FF000024FF0A6
:104A9000000194E72DE9804C70B49A46934691E862
:104AA000380007C831EA400C48BF34EA430C03D54C
:104AB000FFF7E6FDFFF780FFF0BCBDE8008C2DE9B5
:104AC000804C70B49A46934691E8380007C810F0BD
:104AD000804F08BF13F0804F03D100F005F8FFF7B7
:104AE0006BFFF0BCBDE8008C20F07F4723F07F4CCB
:104AF00080EA030000F0004007EB0C03A3F57C53B1
:104B0000A3F1FE0392F0000F00F0B38095F0000FC8
:104B100000F077802DE901494FEA114021EA004871
:104B20004FEA144624EA064700FB06FC08FB06F69B
:104B300007FB08F818EB06484CEB164C00FB07F790
:104B400018EB07484CEB17404FEA124B22EA0B4E8A
:104B50004FEA154625EA06470BFB06FC0EFB06F658
:104B600007FB0EFE1EEB064E4CEB164C0BFB07F73D
:104B70001EEB074E4CEB174B18EB0B0840F10000F7
:104B800018EB0E0B58EB000840F100008F1A4FF0A5
:104B900000014FF000063CBFC943661B14BFB5EBD4
:104BA000040C00213CBFC943F61B4FEA174427EA17
:104BB00004454FEA1C472CEA074C04FB076205FB3F
:104BC00007F70CFB05F616EB074642EB174204FB12
:104BD0000CFC16EB0C4642EB1C421BEB060658EB9A
:104BE000020241414EEA8E0E46EA9E0601D5BDE81C
:104BF0000189B619524141EB0101A3F10103BDE85E
:104C000001894FEA144524EA05464FEA114721EA93
:104C1000074C05FB07F406FB07F70CFB06F111EB4D
:104C2000074144EB174405FB0CFC11EB0C4144EB32
:104C30001C444FEA124722EA074C05FB07F206FB29
:104C400007F70CFB06F616EB074642EB174205FB8F
:104C50000CFC16EB0C4642EB1C456A1854F10001A3
:104C600048BF7047B619524141EB0101A3F101035E
:104C7000704795F0000F37D04FEA114221EA024603
:104C80004FEA144724EA074C02FB07F106FB07F73B
:104C90000CFB06F414EB074441EB174102FB0CFC40
:104CA00014EB0C4441EB1C414FEA154725EA074C35
:104CB00002FB07F506FB07F70CFB06F616EB0746AB
:104CC00045EB174502FB0CFC16EB0C4645EB1C4272
:104CD000121951F1000148BF7047B619524141EB1A
:104CE0000101A3F1010370474FEA144524EA054688
:104CF0004FEA114721EA074C05FB07F106FB07F7CE
:104D00000CFB06F212EB074241EB174105FB0CFCD2
:104D100012EB0C4251EB1C414FF0000648BF7047AC
:104D2000921841EB0101A3F10103704703B401980C
:104D30004100009850EAC12018BF04204A0D18BF56
:104D400040F0010040F2FF72B2EB515F08BF40F04B
:104D50000200012808BF052002B0704730380A2839
:104D600001D20120704700207047000010B50029D3
:104D70000AD00878002807D005487844FCF724FBBF
:104D8000002801D0002010BD0248784410BD00006A
:104D9000F2090000EA09000010B500290AD00878DD
:104DA000002807D005487844FCF70EFB002801D006
:104DB000002010BD0248784410BD0000E209000048
:104DC000DA090000F1EE100A4FF6FF71C0F2C031AF
:104DD00020EA010040F04070E1EE100A7047FBF756
:104DE000FDBEFCF731B8000000000000000000002C
:104DF0003031323334353637383941424344454611
:104E0000403058003031323334353637383961620A
:104E1000636465664030780004000008000000000C
:104E2000000000020001000010303132333435360A
:104E300037383961626364656678700030313233C7
:104E400034353637383941424344454658500000DE
:104E500002400000000000A000000000054000002B
:104E6000000000C8000000000C4000000000409C52
:104E700000000000194000000020BCBE000000003F
:104E800034400000BFC91B8E00000004B540000084
:104E9000504BCFD06607E2CF010000006C4100000C
:104EA0003E8251AADFEEA73401000000D942000083
:104EB000DCB5A0E23A301F97FFFFFFFFB4450000CA
:104EC000FD25A0C8E9A3C14FFFFFFFFFFF3F000082
:104ED0000000008000000000FF3F00000000008094
:104EE00000000000000000000000000001020304B8
:104EF000060708090000000001020304000000008A
:104F000000000000002F0000000007000700001450
:104F10007F147F1400242A7F2A120062640813235E
:104F200000364955225000000503000000001C22F5
:104F30004100000041221C000014083E0814000833
:104F4000083E0808000000A06000000808080808E3
:104F5000000060600000002010080402003E51497B
:104F6000453E0000427F4000004261514946002119
:104F700041454B31001814127F1000274545453933
:104F8000003C4A494930000171090503003649498E
:104F9000493600064949291E000036360000000047
:104FA0005636000000081422410000141414141492
:104FB000000041221408000201510906003249593B
:104FC000513E007C1211127C007F49494936003E57
:104FD00041414122007F4141221C007F4949494112
:104FE000007F09090901003E4149497A007F08080C
:104FF000087F0000417F4100002040413F01007FC9
:1050000008142241007F40404040007F020C027F94
:10501000007F0408107F003E4141413E007F0909A6
:105020000906003E4151215E007F091929460046CC
:10503000494949310001017F0101003F4040403FA3
:10504000001F2040201F003F4038403F00631408ED
:1050500014630007087008070061514945430000C8
:105060007F41410000552A552A55000041417F00EB
:1050700000040201020400404040404000000102E0
:105080000400002054545478007F484444380038C9
:105090004444442000384444487F00385454541851
:1050A00000087E0901020018A4A4A47C007F080463
:1050B00004780000447D4000004080847D00007F33
:1050C000102844000000417F4000007C0418047850
:1050D000007C0804047800384444443800FC24244C
:1050E00024180018242418FC007C08040408004834
:1050F0005454542000043F444020003C4040207C55
:10510000001C2040201C003C4030403C0044281043
:105110002844001CA0A0A07C004464544C441414F7
:10512000141414140000000000000000000000002F
:1051300000000000000000F8000000000000003344
:105140003000000000100C06100C060000000000EB
:105150000000000040C07840C0784000043F0404D4
:105160003F040400007088FC08300000001820FF95
:10517000211E0000F008F000E018000000211C03D0
:105180001E211E0000F00888700000001E2123244C
:105190001927211010160E0000000000000000006A
:1051A00000000000000000E01804020000000007FA
:1051B0001820400000020418E00000000040201801
:1051C00007000000404080F0804040000202010FD4
:1051D00001020200000000F0000000000101011FB8
:1051E00001010100000000000000000080B070001C
:1051F00000000000000000000000000000010101AC
:10520000010101010000000000000000003030003A
:105210000000000000000000806018040060180614
:105220000100000000E010080810E000000F10204E
:1052300020100F00001010F8000000000020203F98
:105240002020000000700808088870000030282422
:1052500022213000003008888848300000182020C3
:1052600020110E000000C02010F8000000070424E8
:10527000243F240000F8088888080800001921202D
:1052800020110E0000E0108888180000000F112087
:1052900020110E0000380808C83808000000003F40
:1052A000000000000070880808887000001C22219F
:1052B00021221C0000E010080810E000000031224C
:1052C00022110F00000000C0C000000000000030EC
:1052D000300000000000008000000000000080603E
:1052E00000000000000080402010080000010204BF
:1052F00008102000404040404040400004040404A6
:105300000404040000081020408000000020100861
:1053100004020100007048080808F0000000003096
:1053200036010000C030C828E810E0000718272424
:1053300023140B000000C038E0000000203C2302D2
:105340000227382008F8888888700000203F202035
:1053500020110E00C0300808080838000718202067
:105360002010080008F808080810E000203F20205E
:1053700020100F0008F88888E8081000203F20203F
:105380002320180008F88888E8081000203F200033
:1053900003000000C030080808380000071820206B
:1053A000221E020008F808000008F808203F21012A
:1053B00001213F20000808F8080800000020203FD5
:1053C0002020000000000808F8080800C080808045
:1053D0007F00000008F888C028180800203F20013E
:1053E0002638200008F8080000000000203F202098
:1053F0002020300008F8F800F8F80800203F003FAF
:10540000003F200008F830C00008F808203F2000C6
:1054100007183F00E01008080810E0000F102020D7
:1054200020100F0008F808080808F000203F2101AC
:1054300001010000E01008080810E0000F18242403
:1054400038504F0008F8888888887000203F200076
:10545000030C30200070880808083800003820212C
:1054600021221C00180808F8080818000000203F36
:105470002000000008F808000008F808001F20209D
:1054800020201F000878880000C83808000007386E
:105490000E010000F80800F80008F800033C0700BF
:1054A000073C0300081868808068180820302C0327
:1054B000032C30200838C800C83808000000203FFE
:1054C0002000000010080808C838080020382621ED
:1054D00020201800000000FE020202000000007FF1
:1054E00040404000000C30C00000000000000001FF
:1054F0000638C00000020202FE00000000404040EA
:105500007F0000000000040202020400000000000E
:10551000000000000000000000000000808080808B
:105520008080808000020204000000000000000073
:10553000000000000000808080800000001924220C
:1055400022223F2008F8008080000000003F112048
:1055500020110E000000008080800000000E11204D
:1055600020201100000000808088F800000E11202B
:1055700020103F200000808080800000001F222239
:1055800022221300008080F0888888180020203FA5
:10559000202000000000808080808000006B9494B8
:1055A0009493600008F8008080800000203F210074
:1055B00000203F2000809898000000000020203F3D
:1055C00020200000000000809898000000C080802B
:1055D000807F000008F8000080808000203F2402C7
:1055E0002D302000000808F8000000000020203FB7
:1055F000202000008080808080808000203F20006C
:105600003F20003F8080008080800000203F2100FC
:1056100000203F200000808080800000001F2020AC
:1056200020201F00808000808000000080FFA120DB
:1056300020110E000000008080808000000E1120EC
:1056400020A0FF80808080008080800020203F217B
:10565000200001000000808080808000003324242E
:1056600024241900008080E0808000000000001FDA
:10567000202000008080000000808000001F20208B
:1056800020103F20808080000080808000010E304C
:105690000806010080800080008080800F300C03AD
:1056A0000C300F0000808000808080000020312EB0
:1056B0000E312000808080000080808080818E708C
:1056C0001806010000808080808080000021302C3E
:1056D0002221300000000000807C02020000000057
:1056E000003F404000000000FF00000000000000FC
:1056F000FF0000000002027C800000000040403FEC
:105700000000000000060101020204040000000085
:105710000000000002030405060708090A0B0C0D2F
:105720000E0F10100102030405060708090A0B0CEE
:105730000D0E0F1000000000CDCCCC3E000000008C
:1057400000000000CDCCCC3E0000000098580008BE
:105750000000002010000000C4010008A858000844
:1057600010000020800A0000E00100081C0000007A
:1057700043000000F8FFFFFF0C0000000E000000D7
:105780000F0000002E000000100100004300000088
:10579000F8FFFFFF00404040404040404040414152
:1057A00041414140404040404040404040404040F6
:1057B0004040404040050202020202020202020290
:1057C000020202020220202020202020202020028D
:1057D000020202020202909090909090101010101D
:1057E00010101010101010101010101010101010B9
:1057F000020202020202888888888888080808084D
:105800000808080808080808080808080808080818
:105810000202020240000000000000000000000040
:105820000000000000000000000000000000000078
:105830000000000000000000000000000000000068
:105840000000000000000000000000000000000058
:105850000000000000000000000000000000000048
:105860000000000000000000000000000000000038
:105870000000000000000000000000000000000028
:105880000000000000000000000000000000000018
:1058900000000000000000001000000001000000F7
:0858A00000127A000000000074
:040000050800018965
:00000001FF
