:020000040800F2
:10000000380C002029020008755D00081153000813
:10001000715D0008B1080008716800080000000068
:1000200000000000000000000000000091600008D7
:1000300061090008000000008D600008E960000808
:10004000430200084302000843020008430200087C
:10005000430200084302000843020008430200086C
:10006000430200084302000843020008B5080008E4
:10007000C5080008430200084302000843020008C4
:10008000430200084302000843020008430200083C
:10009000430200084302000843020008430200082C
:1000A0004302000843020008B96100084302000847
:1000B0004302000843020008000000004302000859
:1000C0004302000800000000000000004302000896
:1000D0000000000043020008430200084302000839
:1000E0004302000843020008000000000000000076
:1000F0000000000000000000000000000000000000
:1001000000000000000000000000000000000000EF
:100110000000000000000000430200084302000845
:1001200000000000000000000000000000000000CF
:1001300000000000000000000000000000000000BF
:1001400043020008430200080000000043020008C8
:10015000430200084302000843020008430200086B
:1001600043020008430200080000000000000000F5
:10017000000000000000000000000000000000007F
:10018000000000004302000800F002F800F03CF814
:100190000AA090E8000C82448344AAF10107DA45E2
:1001A00001D100F031F8AFF2090EBAE80F0013F0F8
:1001B000010F18BFFB1A43F0010318471884000011
:1001C00038840000103A24BF78C878C1FAD85207A2
:1001D00024BF30C830C144BF04680C6070470000C1
:1001E0000023002400250026103A28BF78C1FBD840
:1001F000520728BF30C148BF0B6070471FB507F0DA
:1002000067FC1FBD10B510BD00F06EF91146FFF779
:10021000F5FF06F0EDFB00F08CF903B4FFF7F2FFF9
:1002200003BC00F0F7F9000009488047094800477F
:10023000FEE7FEE7FEE7FEE7FEE7FEE7FEE7FEE796
:10024000FEE7FEE704480549054A064B70470000F3
:10025000A56100088901000838060020380C00203C
:1002600038080020380800209FED1A1AF5EE000A21
:1002700040EE010ABDEEE00AF5EEC00A10EE100AEB
:10028000F1EE10FA38BF401E00EE100A1349F7EEE7
:10029000001AB8EEC00A30EEC00ADFED0F0A20EEF9
:1002A000200AFCEEC00A10EE900AC0F3080000EE2F
:1002B000900A01EB8000F8EE600A90ED011A70EEF2
:1002C000600A90ED000A71EEE01A21EE800A00EE5D
:1002D000810A704783F9223E000000445C7D0008DB
:1002E000B5EEC00AF1EE10FA07D2DFED1E0AB4EE49
:1002F000E00AF1EE10FAA8BF7047DFED1B0AB5EE79
:10030000C00A60EE200ABDEEE01A11EE100AF1EE0E
:1003100010FA38BF401E00EE100A1549F7EE001A19
:10032000B8EEC00A30EEC00ADFED100A60EE200A17
:10033000BCEEE00A10EE100AC0F3080000EE100A4E
:1003400001EB8000B8EE400A90ED011A70EEC00A91
:1003500090ED000A71EEE01A21EE800A00EE810AAB
:1003600070470000CD024CB483F9223E00000044E7
:100370005C7D000853EA020C00F069802DE9F04B27
:100380004FF00006002B1FBFB3FA83F503FA05F404
:1003900024FA05F65E4012BF1643B2FA82F502FA5D
:1003A00005F4C5F120051EBF22FA05FC44EA0C0441
:1003B000203556EA044C4FEA144418BF641C4FF031
:1003C00000084FF00009904271EB030C39D300296B
:1003D00019BFB1FA81F701FA07F6B0FA80F700FA0F
:1003E00007F6C7F120071EBF20FA07FC46EA0C06F5
:1003F0002037B6FBF4FCA7EB0507103F07F01F0BF7
:10040000CBF120062CFA06F60CFA0BFB44BFB346E0
:100410000026202FA4BF5E464FF0000B5BEA060CBF
:1004200008BF4FF0010B19EB0B0948EB0608ABFBBB
:10043000027C06FB02CC0BFB03CCC01B71EB0C0156
:10044000C1E70B46024641464846BDE8F08B13B56E
:10045000084318BF4FF0FF300146AFF30080BDE8FE
:100460001C4070474FF0000200B513469446964674
:10047000203922BFA0E80C50A0E80C50B1F12001B7
:10048000BFF4F7AF090728BFA0E80C5048BF0CC065
:100490005DF804EB890028BF40F8042B08BF7047C3
:1004A00048BF20F8022B11F0804F18BF00F8012B35
:1004B00070477047704770471FB584B000200A9C92
:1004C00006AB04AA02A90094AFF3008018B1DDE9DD
:1004D000020108B010BD0348204000F033F80020AE
:1004E0000146F6E70000207C754600F033F8AE4682
:1004F00005006946534620F00700854618B020B530
:10050000FFF7A0FEBDE820404FF000064FF00007C7
:100510004FF000084FF0000BAC46ACE8C009ACE867
:10052000C009ACE8C009ACE8C00921F007018D465C
:10053000704710B50446AFF300802046BDE8104078
:10054000FFF76BBE10B500F00FF8BDE8104000F0EB
:1005500005B800000048704758000020002801D06E
:1005600000F058B87047000010B5022803D04101D0
:1005700003D50DA112E0002010BD010101D50FA18E
:100580000CE0C10001D511A108E0810001D512A144
:1005900004E0400001D513A100E0002115A000F007
:1005A0003FF8012010BD0000496E76616C6964203F
:1005B0004F7065726174696F6E00000044697669FE
:1005C0006465204279205A65726F00004F7665722B
:1005D000666C6F7700000000556E646572666C6F24
:1005E00077000000496E6578616374205265737509
:1005F0006C7400005349474650453A204172697473
:10060000686D6574696320657863657074696F6E81
:100610003A20000001491820ABBEFEE72600020088
:1006200070B505460C460A2000E06D1C00F011F87C
:1006300035B128780028F8D102E0641C00F009F8F0
:1006400014B120780028F8D1BDE870400A20AFF33B
:10065000008008B569468DF800000320ABBE08BDD8
:100660007047000080B584B003900398406A029000
:100670000298006C10F0500F27D1FFE70298016C30
:1006800041F40071016402980068C06810F4406F82
:1006900017D1FFE70298407E002812D1FFE70298A9
:1006A000016C21F4807101640298006CC004002880
:1006B00006D4FFE70298016C41F001010164FFE7F5
:1006C000FFE7029800F0D6FC08E00298806B006B10
:1006D00003990190084601998847FFE704B080BD5F
:1006E00080B582B001900198406A00900098016C3A
:1006F00041F0400101640098416C41F00401416403
:10070000009800F0BFFC02B080BD000080B582B050
:1007100001900198406A0090009800F0AFFC02B090
:1007200080BD000080B584B0029000200190029945
:100730000968896801F003010129009005D1FFE7EC
:100740000298006800680090FFE70098C007002842
:1007500045D0FFE702980068806800F00D0001288E
:100760000DD1FFE7FFE702980068816841F00201C0
:1007700081600298006803210160FFE70DE00298A4
:10078000016C41F0100101640298416C41F00101DB
:10079000416401208DF80F0025E001F0C9FC0190B3
:1007A000FFE7029800688068C007002816D0FFE7BE
:1007B00001F0BEFC0199401A03280ED3FFE702980E
:1007C000016C41F0100101640298416C41F001019B
:1007D000416401208DF80F0005E0E2E7FFE700200B
:1007E0008DF80F00FFE79DF80F0004B080BD0000FA
:1007F00080B584B002900020019002990968896850
:1008000001F003010129009005D1FFE7029800687B
:1008100000680090FFE70098C00700283FD1FFE77D
:100820000298006880683F21C8F2000108420ED09B
:10083000FFE70298016C41F0100101640298416CDD
:1008400041F00101416401208DF80F002BE0029876
:100850000068816841F00101816001F069FC01904C
:10086000FFE7029800680068C007002816D1FFE77C
:1008700001F05EFC0199401A03280ED3FFE70298AD
:10088000016C41F0100101640298416C41F00101DA
:10089000416401208DF80F0005E0E2E7FFE700204A
:1008A0008DF80F00FFE79DF80F0004B080BD000039
:1008B000FFE7FEE780B540F2A420C2F2000001F09D
:1008C0002DF980BD80B540F2E820C2F2000001F0B1
:1008D00025F980BD81B00090009801684FF6F8724C
:1008E000CBF6FD7211444CF6CD42CCF6CC42A1FBC6
:1008F00002126FF0030303EA9202026400980022DE
:10090000C4F20202C26301B07047000084B00390D9
:100910000291019200930398C16B006C012202FACC
:1009200000F048600098039909684860039840689F
:10093000102809D1FFE70198039909688860029897
:1009400003990968C86008E00298039909688860FB
:10095000019803990968C860FFE704B07047000078
:100960007047000081B0EFF3108072B60090FFE78F
:10097000FEE700009DB01B901A9100208DF86700E3
:100980001A980068002801D0FFE7FFE71B9800686D
:10099000B0F1A04F06D1FFE740F20010C5F2000011
:1009A000049003E04FF0A0400490FFE70498002873
:1009B00004D1FFE701208DF87300B9E0FFE71B9831
:1009C00090F83C00012804D1FFE702208DF8730065
:1009D000AEE01B98012180F83C10FFE7FFE71B9871
:1009E0000068806800F004000021B1EB900F40F037
:1009F0008B80FFE70498806800F004000021B1EBD1
:100A0000900F40F08180FFE740F20030C5F2000017
:100A100018901A980068002842D0FFE7189880685C
:100A200020F460401A9949681B9A92F8302041EAF4
:100A300042310843189988601B980068806800F06C
:100A4000030000210128039105D1FFE71B980068EE
:100A500000680390FFE70398C00700281FD1FFE755
:100A60000498806800F0030000210128029104D15D
:100A7000FFE7049800680290FFE70298C00700288B
:100A80000DD1FFE71898806840F61F7188431A99C6
:100A90000A6889681143084318998860FFE732E0C3
:100AA0001898816821F4604181601B980068806813
:100AB00000F0030000210128019105D1FFE71B98F8
:100AC000006800680190FFE70198C007002819D16D
:100AD000FFE70498806800F00300002101280091DE
:100AE00004D1FFE7049800680090FFE70098C00772
:100AF000002807D1FFE71898816840F61F729143DC
:100B00008160FFE7FFE708E01B98016C41F02001DE
:100B1000016401208DF86700FFE7FFE71B980021C3
:100B200080F83C10FFE79DF867008DF87300FFE741
:100B30009DF873001DB070479FB01D901C91002060
:100B40008DF86F0004901C98C068012801D0FFE761
:100B500000E0FFE7FFE71D9890F83C00012804D172
:100B6000FFE702208DF87B007FE21D98012180F8CD
:100B70003C10FFE7FFE71D980068806800F0040064
:100B80000021B1EB900F40F05C82FFE71C984068B9
:100B9000042813D8FFE71D980068006B1C990A68A9
:100BA000496801EB410149001F238B40984302FA39
:100BB00001F108431D99096808634DE01C984068DD
:100BC000092816D8FFE71D980068406B1C990A6831
:100BD000496801EB41016FF01D0303EB41011F2345
:100BE0008B40984302FA01F108431D990968486354
:100BF00031E01C9840680E2816D8FFE71D98006861
:100C0000806B1C990A68496801EB41016FF03B0356
:100C100003EB41011F238B40984302FA01F1084383
:100C20001D990968886315E01D980068C06B1C99C0
:100C30000A68496801EB41016FF0590303EB410178
:100C40001F238B40984302FA01F108431D9909685C
:100C5000C863FFE7FFE7FFE71D980068806810F0B2
:100C60000C0F40F0D980FFE71C9800680A2812D3C7
:100C7000FFE71D98006880691C990A68896802EB83
:100C800042021E3A072393409843914008431D991E
:100C90000968886110E01D98006840691C990A681D
:100CA000896802EB4202072393409843914008432E
:100CB0001D9909684861FFE71C9840691D990968FA
:100CC000C96801F018018908884005901C980069DE
:100CD000013801460328039154D80399DFE801F055
:100CE00002162A3E1D980068006E4FF20001C0F205
:100CF000FF3108401C990968059A42EA816108435E
:100D000040F000401D990968086684E01D9800685D
:100D1000406E4FF20001C0F2FF3108401C99096893
:100D2000059A42EA8161084340F000401D99096834
:100D3000486670E01D980068806E4FF20001C0F2B6
:100D4000FF3108401C990968059A42EA816108430D
:100D500040F000401D99096888665CE01D980068B5
:100D6000C06E4FF20001C0F2FF3108401C990968C3
:100D7000059A42EA8161084340F000401D990968E4
:100D8000C86648E01D980068006E00F0F8401C99A5
:100D90000968B0EB816F07D1FFE71D980068016E0D
:100DA00021F000410166FFE71D980068406E00F0E9
:100DB000F8401C990968B0EB816F07D1FFE71D98D7
:100DC0000068416E21F000414166FFE71D98006810
:100DD000806E00F0F8401C990968B0EB816F07D174
:100DE000FFE71D980068816E21F000418166FFE7F2
:100DF0001D980068C06E00F0F8401C990968B0EBBF
:100E0000816F07D1FFE71D980068C16E21F0004196
:100E1000C166FFE7FFE7FFE71D980068806800F004
:100E2000030000210128029105D1FFE71D98006809
:100E300000680290FFE70298C007002840F0008198
:100E4000FFE71C98C06801280ED0FFE71C980068D7
:100E5000012101FA00F01D990968D1F8B02022EAB9
:100E60000000C1F8B00035E01C980068012101FACB
:100E700000F01D990968D1F8B0201043C1F8B00006
:100E80001C9800680A2812D3FFE71D980068806943
:100E90001C990A68896802EB42021B3A07239340B7
:100EA0009843914008431D990968886111E01D9895
:100EB000006840691C990A68896802EB42020332A3
:100EC000072393409843914008431D99096848615E
:100ED000FFE7FFE740F20030C5F200001A901C98CF
:100EE0000068102806D1FFE71A98806800020028E1
:100EF00018D5FFE71C980068112806D1FFE71A985B
:100F00008068C00100280DD5FFE71C9800681228F2
:100F100040F09580FFE71A9880684002002800F1B1
:100F20008E80FFE71D980068B0F1A04F06D1FFE763
:100F300040F20010C5F20000069003E04FF0A04020
:100F40000690FFE71D980068806800F0030000210C
:100F50000128019105D1FFE71D9800680068019004
:100F6000FFE70198C00700285FD1FFE70698002837
:100F700012D0FFE70698806800F0030000210128E6
:100F8000009104D1FFE7069800680090FFE7009801
:100F9000C007002849D1FFE71C980068102825D118
:100FA000FFE71D980068B0F1A04F1FD1FFE71A9826
:100FB000816841F40001816040F20000C2F200004B
:100FC00000684DF68361C4F21B31A0FB0101890C5E
:100FD00001EB810149000491FFE70498002804D047
:100FE000FFE7049801380490F7E71DE01C980068BB
:100FF00011280CD1FFE71D980068B0F1A04F06D171
:10100000FFE71A98816841F0807181600BE01C98BD
:101010000068122806D1FFE71A98816841F4800120
:101020008160FFE7FFE7FFE708E01D98016C41F0F2
:101030002001016401208DF86F00FFE7FFE7FFE763
:1010400008E01D98016C41F02001016401208DF839
:101050006F00FFE7FFE71D98002180F83C10FFE7D5
:101060009DF86F008DF87B00FFE79DF87B001FB0B7
:101070007047000081B0009001B0704781B00090CF
:1010800001B0704781B0009001B0704780B59CB04E
:101090001A9000208DF86700039002901A9800289B
:1010A00004D1FFE701208DF86F0096E11A980069DE
:1010B000002808D0FFE71A9890F82000002801D0F7
:1010C000FFE7FFE7FFE71A98006CC006002879D415
:1010D000FFE71A98006C002854D1FFE71A98002106
:1010E00041641A98C1641A9881641A9880F83C1077
:1010F0001A9800F077F91A9800688068C0000028F4
:101100003FD4FFE71A98FFF70DFB8DF867001A9898
:10111000006CC006002833D4FFE79DF86700002864
:101120002ED1FFE71A98006C40F0020020F488509E
:101130001A9908641A980068816821F0405181600A
:101140001A980068816841F08051816040F2000087
:10115000C2F2000000684DF68361C4F21B31A0FBAF
:101160000101890C01EB810149000291FFE702981E
:10117000002804D0FFE7029801380290F7E7FFE764
:10118000FFE7FFE71A9800688068C000002807D5CD
:10119000FFE71A98006880688000002811D5FFE7F3
:1011A0001A98006C40F0100020F002001A990864B0
:1011B0001A98416C41F00101416401208DF86700EB
:1011C000FFE7FFE71A98006CC006002800F1F480E2
:1011D000FFE79DF86700002840F0EE80FFE71A98CF
:1011E0000068806800F004000021B1EB900F40F02F
:1011F000E380FFE71A98006C40F0020020F4807052
:101200001A99086440F20030C5F2000018901A984C
:101210000068B0F1A04F06D1FFE740F20010C5F220
:101220000000049003E04FF0A0400490FFE71A98FC
:101230000068806800F0030000210128019105D1B9
:10124000FFE71A98006800680190FFE70198C0075F
:10125000002820D1FFE70498002812D0FFE7049867
:10126000806800F0030000210128009104D1FFE70D
:10127000049800680090FFE70098C00700280AD192
:10128000FFE71898806820F440301A9949680843AD
:1012900018998860FFE71A98417E4903426B01F56F
:1012A0008053012A18BF19468268C06840EA0100CD
:1012B00040EA0200039940EA010003901A9890F86E
:1012C0002000012821D1FFE71A98407E00280DD187
:1012D000FFE71A98406A0021CFF6FE7101EB40400B
:1012E0000399084340F4803003900DE01A98006C95
:1012F00040F0200020F002001A9908641A98416C0E
:1013000041F001014164FFE7FFE71A98806A012874
:1013100008D0FFE71A98816AC06A08430399084316
:101320000390FFE71A980068806810F00C0F12D144
:10133000FFE71A980068C16844F202029143C16055
:101340001A98017E90F83000890341EA4000039921
:1013500008430390FFE71A980068C0684CF2070141
:10136000CFF6F0710840039908431A990968C860DC
:101370001A98006901280CD1FFE71A980068006BE1
:1013800020F00F001A990A68C969013908431063EF
:1013900006E01A980068016B21F00F010163FFE776
:1013A0001A98002141641A98006C40F0010020F066
:1013B00002001A9908640BE01A98006C40F01000C3
:1013C00020F002001A99086401208DF86700FFE7F9
:1013D0009DF867008DF86F00FFE79DF86F001CB067
:1013E00080BD000080B592B01190002010900F9049
:1013F0000E900D900C9011980068B0F1A04F7ED126
:10140000FFE740F2B800C2F200000168013101605C
:101410000068012810D1FFE7FFE741F21400C4F291
:101420000200016841F080510160006800F08050C6
:101430000B900B98FFE7FFE7FFE741F21400C4F2BF
:101440000200016841F400310160006800F40030DE
:101450000A900A98FFE7FFE741F21400C4F2020085
:10146000016841F480210160006800F48020099047
:101470000998FFE70F200C9003200D9000210E919A
:101480004FF090420CAB059010460491194603931F
:1014900000F094FC05980C900D9004990E9140F288
:1014A0000040C4F60000039900F088FC40F2A4203C
:1014B000C2F200000821C4F20201016004994160F7
:1014C00081608022C2604FF4807202614FF48062BA
:1014D000426120228261C16100F0C4FB002803D078
:1014E000FFE7FFF73FFAFFE7FFE7119840F2A4217B
:1014F000C2F20001816311984862FFE760E0119831
:10150000006840F20011C5F20001884257D1FFE7A0
:1015100040F2B800C2F200000168013101600068C9
:10152000012810D1FFE7FFE741F21400C4F20200E6
:10153000016841F080510160006800F0805008901F
:101540000898FFE7FFE7FFE741F21400C4F202004A
:10155000016841F400310160006800F40030079038
:101560000798FFE7FFE741F21400C4F202000168A8
:1015700041F480210160006800F480200690069804
:10158000FFE730200C9003200D9000210E914FF0CA
:1015900090420CAB0290104601911946009300F066
:1015A0000DFC04200C9002980D9001990E9140F2D0
:1015B0000040C4F60000009900F000FCFFE7FFE7E0
:1015C00012B080BD80B586B00490039102920020D5
:1015D0008DF8070004990968896801F00401B0EBEF
:1015E000910F40F0DC80FFE7FFE7049890F83C00A3
:1015F000012804D1FFE702208DF81700D8E00498F5
:10160000012180F83C10FFE7FFE740F20830C5F207
:1016100000000068C006002840F0B680FFE704988C
:10162000FFF7E6F88DF807009DF80700002840F066
:10163000A380FFE70498006C40F4807040F60161DD
:1016400088430499086440F20830C5F2000000683D
:10165000C006002806D0FFE704980068B0F1A04F4C
:1016600016D1FFE70498016C21F4801101640498FD
:101670000068C0688001002809D5FFE70498006C65
:1016800040F4805020F4005004990864FFE729E0FA
:101690000498016C41F48011016404980068B0F171
:1016A000A04F09D0FFE70498006840F20011C5F28E
:1016B0000001884208D1FFE70C20C5F20000006855
:1016C0008001002804D40CE00120002809D1FFE7A4
:1016D0000498006C40F4805020F400500499086491
:1016E000FFE7FFE70498006CC004002806D5FFE779
:1016F0000498416C21F00601416403E00498002144
:101700004164FFE7FFE70498002180F83C10FFE701
:101710000498806B40F26561C0F600018162049814
:10172000806B40F20D71C0F60001C1620498806BBD
:1017300040F2E161C0F600010163049800681C21D9
:10174000016004980068416841F01001416004980C
:101750000068C16841F00101C16004980168806BB4
:101760004031039A029B00F0C3FA049909688A6821
:1017700042F004028A6006E0FFE70498002180F846
:101780003C10FFE7FFE709E001208DF80700FFE7C5
:101790000498002180F83C10FFE7FFE703E00220F7
:1017A0008DF80700FFE79DF807008DF81700FFE7A9
:1017B0009DF8170006B080BD80B586B0059000206A
:1017C0008DF813000598002807D0FFE7059890F8DA
:1017D0002900C006002804D5FFE701208DF813007A
:1017E0007FE00598006A002801D0FFE7FFE7FFE7E8
:1017F00041F21800C4F20200016841F001010160E9
:10180000006800F0010003900398FFE7059800F0DE
:101810006DF8059890F82900002805D1FFE7059894
:10182000002180F82810FFE705984068602804D060
:10183000FFE70598406801900CE0059800682021BA
:10184000C4F201017022C0F24002884208BF602247
:101850000192FFE7019805994860FFE70020029098
:10186000059800680068029002984FF68F71CFF6D5
:10187000BF7108400599496808430290029805998C
:10188000896808430290029820F4402005998969EC
:101890000843029002980599C968890A61F38D206E
:1018A0000290029820F400400599096908430290CB
:1018B0000298059949690843029002980599C969F7
:1018C0000843029002980599096A08430290029819
:1018D000059909680860FFE70598012180F829103B
:1018E000FFE79DF8130006B080BD000080B588B00A
:1018F00007900020069005900490039002900798AE
:1019000000682021C4F2010188421BD1FFE7FFE7F4
:1019100041F21400C4F20200016841F40031016098
:10192000006800F4003001900198FFE780200290E9
:1019300003200390002004904FF0904002A900F093
:101940003DFA26E0079800683021C4F20101884280
:101950001ED1FFE7FFE741F21400C4F20200016864
:1019600041F480210160006800F48020009000981C
:10197000FFE74FF4006002900320039000200490E2
:1019800040F20040C4F6000002A900F017FAFFE799
:10199000FFE708B080BD000086B00490039102927A
:1019A0000020019000900498006847F20041C4F2C2
:1019B0000001884205D1FFE70298002801D1FFE726
:1019C00000E0FFE7FFE704984079012804D1FFE732
:1019D00002208DF8170056E0049801214171FFE7BD
:1019E000FFE70498022101710498006800680190E3
:1019F0000498006847F20041C4F20001884213D104
:101A0000FFE7029800280FD1FFE7029840F6FE7129
:101A100001FA00F0019921EA0000019003980168A1
:101A20004068084300900EE0029840F6FE7101FA0B
:101A300000F0019921EA0000019003980168806894
:101A400008430090FFE700980299884001990843F5
:101A5000019001980499096808600298C02101FA70
:101A600000F0049909680A6822EA000008600498F6
:101A700001210171FFE7049800214171FFE7002077
:101A80008DF81700FFE79DF8170006B070470000BB
:101A900080B582B000900098002804D1FFE70120B3
:101AA0008DF8070017E000980079002807D1FFE7BC
:101AB000009800214171009800F012F8FFE70098AB
:101AC0000221017100980021016100980122027138
:101AD0008DF80710FFE79DF8070002B080BD0000F9
:101AE00082B001900198006847F20041C4F2000101
:101AF000884210D1FFE7FFE741F21C00C4F2020068
:101B0000016841F000510160006800F00050009051
:101B10000098FFE7FFE702B07047000080B584B08F
:101B200003900398C06B00680290039800680068F7
:101B3000019002980399096CC8404007002825D5F8
:101B4000FFE79DF80400400700281FD5FFE7039832
:101B5000006800688006002807D4FFE70398006843
:101B6000016821F004010160FFE70398C16B006C7C
:101B7000042202FA00F048600398C06A002804D0EA
:101B8000FFE70398C16A8847FFE768E00298039976
:101B9000096CC840800700282FD5FFE79DF8040096
:101BA0008007002829D5FFE70398006800688006B1
:101BB00000280BD4FFE703980068016821F00A01B0
:101BC00001600398012180F82110FFE70398C16BA1
:101BD000006C022202FA00F04860FFE7039800213F
:101BE00080F82010FFE70398806A002804D0FFE700
:101BF0000398816A8847FFE730E002980399096CEF
:101C0000C8400007002828D5FFE79DF8040000071A
:101C1000002822D5FFE703980068016821F00E0133
:101C200001600398C16B006C012202FA00F0486069
:101C300003988263039880F82120FFE7039800212E
:101C400080F82010FFE70398006B002804D0FFE71E
:101C50000398016B8847FFE7FFE7FFE7FFE704B062
:101C600080BD000080B584B00290002001900298F1
:101C7000002804D1FFE701208DF80F0033E002981F
:101C8000022180F8211002980068006801900198F4
:101C900043F6F07188430190029841688268C368F6
:101CA000D0F810C01143194341EA0C0142691143B5
:101CB00082691143C0690843019908430190019862
:101CC0000299096808600298FEF704FE0298002154
:101CD00081630298012280F82120029880F8201068
:101CE0008DF80F10FFE79DF80F0004B080BD0000D5
:101CF00080B586B0049003910292019300208DF884
:101D00000300FFE7049890F82000012804D1FFE7C2
:101D100002208DF817004DE00498012180F8201072
:101D2000FFE7FFE7049890F82100012833D1FFE78F
:101D30000498022180F821100498002181630498FE
:101D40000068016821F00101016004980399029A7A
:101D5000019BFEF7DBFD0498C06A002807D0FFE76F
:101D600004980068016841F00E0101600CE00498DD
:101D70000068016841F00A01016004980068016888
:101D800021F004010160FFE704980068016841F058
:101D90000101016009E0FFE70498002180F82010AC
:101DA000FFE702208DF80300FFE79DF803008DF8A0
:101DB0001700FFE79DF8170006B080BD89B00890B6
:101DC000079100200690FFE7079800680699C84031
:101DD000002800F09081FFE707980068069901222B
:101DE00002FA01F1084005900598002800F07F8173
:101DF000FFE70798406801280FD0FFE70798406881
:101E000002280AD0FFE707984068112805D0FFE7AD
:101E10000798406812282FD1FFE70898806804903F
:101E200006984000032101FA00F0049921EA00001D
:101E300004900798C06806994900884004990843AF
:101E4000049004980899886008984068049006985F
:101E5000012101FA00F0049921EA0000049007989A
:101E60004068C0F300100699884004990843049024
:101E7000049808994860FFE70898C068049006989D
:101E80004000032101FA00F0049921EA00000490C7
:101E9000079880680699490088400499084304908F
:101EA00004980899C86007984068022805D0FFE7A1
:101EB00007984068122826D1FFE7089806996FF026
:101EC000030202EA51010844006A0490069800F0F7
:101ED000070080000F2101FA00F0049921EA0000B8
:101EE000049007980069069901F00701890088406D
:101EF00004990843049004980899069B02EA530247
:101F000011440862FFE708980068049006984000B2
:101F1000032101FA00F0049921EA000004900798D7
:101F2000406800F00300069949008840049908437E
:101F300004900498089908600798C079C0060028A2
:101F400040F1D480FFE7FFE741F21800C4F202003D
:101F5000016841F001010160006800F00100039098
:101F60000398FFE7069820F003000821C4F201015E
:101F700040580490069800F0030080000F2101FAF9
:101F800000F0049921EA000004900898B0F1904F05
:101F900003D1FFE70020029026E0089840F20041BC
:101FA000C4F60001884203D1FFE70120019018E048
:101FB000089840F60001C4F60001884203D1FFE70B
:101FC000022000900AE0089840F60041C4F60001A3
:101FD0000522884208BF03220092FFE70098019083
:101FE000FFE701980290FFE70298069901F00301CC
:101FF000890088400499084304900498069921F0C8
:1020000003010822C4F20102885040F20040C4F2E9
:102010000100006804900598049921EA00000490EA
:1020200007988079C007002805D0FFE70598049934
:1020300008430490FFE7049840F20041C4F2010114
:10204000086040F20440C4F2010000680490059862
:10205000049921EA000004900798807980070028FD
:1020600005D5FFE70598049908430490FFE7049815
:1020700040F20441C4F20101086040F20840C4F299
:102080000100006804900598049921EA000004907A
:1020900007988079C006002805D5FFE705980499C0
:1020A00008430490FFE7049840F20841C4F201019C
:1020B000086040F20C40C4F20100006804900598EA
:1020C000049921EA0000049007988079800600288E
:1020D00005D5FFE70598049908430490FFE70498A5
:1020E00040F20C41C4F201010860FFE7FFE70698E7
:1020F0000130069068E609B07047000082B01346D0
:102100008C460190ADF802108DF801209DF8010079
:10211000002805D0FFE7BDF802000199886104E0BE
:10212000BDF8020001998862FFE702B07047000025
:1021300040F25850C2F200000068704786B0049028
:1021400003910292049890F8C100022804D1FFE79D
:1021500002208DF8170099E0FFE7049890F8C0007E
:10216000012804D1FFE702208DF817008EE00498C3
:10217000012180F8C010FFE7FFE70498022180F8F2
:10218000C11004980068D0F88003019003980138CA
:1021900001460728009151D80099DFE801F00416A4
:1021A0004F294F4F4F3C019820F4E02001900298B6
:1021B000006800F4E020019908430190029840680B
:1021C00004990968C1F8BC0343E0019820F4601049
:1021D00001900298006800F4E020019941EAC000F3
:1021E00001900298406804990968C1F8C00330E082
:1021F000019820F0E07001900298006800F4E0205F
:10220000019941EA80100190029840680499096898
:10221000C1F8C4031DE0019820F0606001900298AD
:10222000006800F4E020019941EA40200190029802
:10223000406804990968C1F8C8030AE004980721B6
:1022400080F8C110FFE70498002180F8C010FFE774
:10225000FFE7049890F8C100072804D1FFE70120A8
:102260008DF8170012E0019804990968C1F88003FD
:102270000498012180F8C110FFE70498002180F83C
:10228000C010FFE700208DF81700FFE79DF817004A
:1022900006B0704783B001900091FFE7019890F875
:1022A000C000012804D1FFE702208DF80B0044E0B4
:1022B0000198012180F8C010FFE7FFE70198022193
:1022C00080F8C11000980130002811D1FFE7019873
:1022D0000068D0F8CC1321F00201C0F8CC130198AB
:1022E0000068D0F8CC1341F00101C0F8CC131CE019
:1022F00001980068D0F8CC1341F00201C0F8CC136B
:1023000001980068D0F8CC0320F00C000099084335
:1023100001990968C1F8CC0301980068D0F8CC1382
:1023200041F00101C0F8CC13FFE70198012180F8CA
:10233000C11000208DF80B00FFE79DF80B0003B0E3
:102340007047000085B0039002910192039890F8C5
:10235000C100022804D1FFE702208DF8130077E0C6
:10236000FFE7039890F8C000012804D1FFE702209E
:102370008DF813006CE00398012180F8C010FFE78E
:10238000FFE70398022180F8C1100198006800F46B
:10239000E0500090019840686FF35F200099084377
:1023A00000900198806800F4007000990843009044
:1023B0000198006900F4804000990843009001985A
:1023C000C06800F4004000990843009001984069FB
:1023D0000021C0F2FF1101EA00400099084300907B
:1023E0000198806900F000700099084300900198FE
:1023F000006A00F080400099084300900198C0698D
:1024000000F000400099084300900398006802998A
:1024100000EBC110D0F8B80042F20001C3F6004151
:1024200008400099084303990968029A01EBC21118
:10243000C1F8B8000398012180F8C110FFE70398A4
:10244000002180F8C010FFE700208DF81300FFE79F
:102450009DF8130005B0704780B586B004900498CD
:10246000002804D1FFE701208DF81700C0E0049890
:10247000022180F8C11004980021C0F8C41004980B
:10248000C0F8C8100498C0F8CC100498C0F8D01058
:102490000498C0F8D4100498C0F8D8100498007AB2
:1024A000C007002838D0FFE70498006847F20041D1
:1024B000C4F20101884210D1FFE7FFE741F21800A2
:1024C000C4F20200016841F000510160006800F0B0
:1024D000005001900198FFE7FFE70498006800684A
:1024E0000290029820F4404002900498006900F4A1
:1024F0004040029908430290029820F44050029014
:102500000498406900F440500299084302900298F0
:10251000049909680860FFE7049800F06DF80498D2
:10252000007A8007002814D5FFE704980068006847
:102530000290029820F4407002900498C06800F461
:102540004070029908430290029804990968086053
:10255000FFE70498012180F8C110FFE704980021EB
:1025600080F8C010FFE700208DF80F00FFE79DF80E
:102570000F00052838D8FFE704989DF80F10C1EB2D
:10258000C10100EB81000021816104989DF80F20BA
:10259000C2EBC20200EB8200C16104989DF80F20DB
:1025A000C2EBC20200EB8200016204989DF80F208A
:1025B000C2EBC20200EB8200416204989DF80F203A
:1025C000C2EBC20200EB8200816204989DF80F20EA
:1025D000C2EBC20200EB82000163FFE79DF80F002F
:1025E00001308DF80F00C2E700208DF81700FFE7DB
:1025F0009DF8170006B080BD82B001900198006878
:1026000047F20041C4F20101884210D1FFE7FFE721
:1026100041F21800C4F20200016841F0005101606B
:10262000006800F0005000900098FFE7FFE702B05C
:102630007047000080B58EB00D9000200C900B907C
:102640000A90099008900D98006847F20041C4F282
:10265000010188424AD1FFE7FFE741F21400C4F2CA
:102660000200016841F480210160006800F48020CC
:1026700007900798FFE7FFE741F21400C4F2020059
:10268000016841F400310160006800F400300690F8
:102690000698FFE74FF4704008900220099000214F
:1026A0000A9103220B920D230C9340F2004CC4F6C6
:1026B000000C0DF1200E05906046049171460392C6
:1026C0000293CDF804E0FFF779FB4FF470600890B7
:1026D0000598099004990A91039A0B92029B0C9316
:1026E0004FF090400199FFF769FBFFE70EB080BD06
:1026F00080B584B002900191FFF71AFD0090FFE7CA
:1027000002980068D0F8880300F480300021B1EB13
:10271000104F1BD1FFE701980130002815D0FFE7CB
:10272000FFF706FD0099401A0199884204D8FFE797
:102730000198002808D1FFE70298072180F8C1100E
:1027400003208DF80F000FE0FFE7D9E70298012181
:1027500080F8C110FFE70298002180F8C010FFE761
:1027600000208DF80F00FFE79DF80F0004B080BD3A
:1027700080B584B0029001910092029890F8C10057
:10278000022804D1FFE702208DF80F001AE002981A
:10279000022180F8C1100198052805D1FFE70298B1
:1027A000009902F001FB05E002980199009A02F0FD
:1027B0003FFCFFE70298012180F8C11000208DF84E
:1027C0000F00FFE79DF80F0004B080BD87B00590B3
:1027D000049103920293059890F8C100022804D155
:1027E000FFE702208DF81B004EE1FFE7059890F807
:1027F000C000012804D1FFE702208DF81B0043E14F
:102800000598012180F8C010FFE7FFE70598022135
:1028100080F8C110049805283BD1FFE703980138E0
:102820000146072801911ED80199DFE801F0040A4A
:102830001C101C1C1C160298006805990968C861C8
:102840001CE00298006805990968486216E0029841
:10285000006805990968886210E002980068059987
:102860000968C8620AE00598072180F8C110FFE7EF
:102870000598002180F8C010FFE7FFE7059890F861
:10288000C100072804D1FFE701208DF81B00FBE001
:10289000ECE00398013801460728009100F2D0804F
:1028A0000099DFE801F0040ECD68CDCDCD7202981D
:1028B000006805990968049A01EBC211C1F89C00EF
:1028C000C9E00298006805990968049A01EBC211F1
:1028D000C1F8A4000298406800283AD0FFE70598A4
:1028E0000068049900EBC110D0F8801021F4405129
:1028F000C0F880100298406805990968049A01EBB5
:10290000C211D1F880201043C1F8800002984068BD
:10291000B0F5005F0AD1FFE7029880680599096861
:10292000049A01EBC211C1F89C0011E002984068C2
:10293000B0F5405F0AD1FFE7029880680599096801
:10294000049A01EBC211C1F8A80000E0FFE7FFE71D
:1029500010E005980068049900EBC110D0F88000E1
:1029600020F4405005990968049A01EBC211C1F89E
:102970008000FFE76FE00298006805990968049AF3
:1029800001EBC211C1F8A80065E002980068059942
:102990000968049A01EBC211C1F8AC0002984068C2
:1029A00000283BD0FFE705980068049900EBC110B0
:1029B000D0F8801021F44041C0F88010029840689F
:1029C00005990968049A01EBC211D1F8802042EA06
:1029D0008000C1F8800002984068B0F5005F0AD11D
:1029E000FFE70298806805990968049A01EBC21113
:1029F000C1F89C0011E002984068B0F5405F0AD130
:102A0000FFE70298806805990968049A01EBC211F2
:102A1000C1F8A80000E0FFE7FFE710E005980068B4
:102A2000049900EBC110D0F8800020F440400599D3
:102A30000968049A01EBC211C1F88000FFE70AE0BF
:102A40000598072180F8C110FFE70598002180F85C
:102A5000C010FFE7FFE7059890F8C100072804D1F0
:102A6000FFE701208DF81B000EE0FFE7059801212C
:102A700080F8C110FFE70598002180F8C010FFE73B
:102A800000208DF81B00FFE79DF81B0007B0704782
:102A900083B001900091FFE7019890F8C0000128F1
:102AA00004D1FFE702208DF80B001DE00198012101
:102AB00080F8C010FFE7FFE70198022180F8C110FD
:102AC0000098019909680A6810430860019801217B
:102AD00080F8C110FFE70198002180F8C010FFE7DF
:102AE00000208DF80B00FFE79DF80B0003B0704746
:102AF00080B586B00490039102920193049890F8F7
:102B0000C100022804D1FFE702208DF8170028E059
:102B1000FFE7049890F8C000012804D1FFE70220E5
:102B20008DF817001DE00498012180F8C010FFE720
:102B3000FFE70498022180F8C11004980399029AD3
:102B4000019B02F0BBF90498012180F8C110FFE756
:102B50000498002180F8C010FFE700208DF81700CE
:102B6000FFE79DF8170006B080BD000083B001901C
:102B70000091FFE7019890F8C000012804D1FFE719
:102B800002208DF80B001FE00198012180F8C01091
:102B9000FFE7FFE70198022180F8C1100098019932
:102BA0000968D1F894231043C1F8940301980121D6
:102BB00080F8C110FFE70198002180F8C010FFE7FE
:102BC00000208DF80B00FFE79DF80B0003B0704765
:102BD00080B584B0029001910092029890F8C100F3
:102BE000022804D1FFE702208DF80F0062E0FFE722
:102BF000029890F8C000012804D1FFE702208DF868
:102C00000F0057E00298012180F8C010FFE7FFE7AE
:102C10000298022180F8C1100198052805D1FFE72C
:102C20000298009902F0EAF805E002980199009AEA
:102C300002F038FAFFE7009800680299019AC2EBA7
:102C4000C20201EB82010862009840680299019A71
:102C5000C2EBC20201EB82014862009880680299CF
:102C6000019AC2EBC20201EB820188620098C0683F
:102C70000299019AC2EBC20201EB8201C86200987C
:102C800000690299019AC2EBC20201EB820108635A
:102C90000298019902F042F80298012180F8C110CF
:102CA000FFE70298002180F8C010FFE700208DF8B0
:102CB0000F00FFE79DF80F0004B080BD83B00190C6
:102CC0000091019890F8410020283BD1FFE7FFE7F1
:102CD000019890F84000012804D1FFE702208DF808
:102CE0000B0033E00198012180F84010FFE7FFE777
:102CF0000198242180F8411001980068016821F0B2
:102D00000101016001980068016821F480510160AF
:102D10000098019909680A681043086001980068E2
:102D2000016841F0010101600198202180F8411003
:102D3000FFE70198002180F84010FFE700208DF8A0
:102D40000B0003E002208DF80B00FFE79DF80B005D
:102D500003B0704784B002900191029890F841004E
:102D6000202840D1FFE7FFE7029890F840000128B3
:102D700004D1FFE702208DF80F0038E0029801210E
:102D800080F84010FFE7FFE70298242180F8411007
:102D900002980068016821F0010101600298006852
:102DA00000680090009820F47060009001980099ED
:102DB00041EA002000900098029909680860029892
:102DC0000068016841F0010101600298202180F84B
:102DD0004110FFE70298002180F84010FFE7002033
:102DE0008DF80F0003E002208DF80F00FFE79DF83B
:102DF0000F0004B07047000080B582B000900098CA
:102E0000002804D1FFE701208DF8070074E0009846
:102E100090F84100002808D1FFE70098002180F8D1
:102E20004010009800F06CF8FFE70098242180F82B
:102E3000411000980068016821F0010101600098CC
:102E40000168406820F0706008610098006881683F
:102E500021F4004181600098C068012807D1FFE794
:102E600000980168806840F40040886006E000989F
:102E70000168806840F404408860FFE70098C068FB
:102E8000022806D1FFE7009800684FF40061416016
:102E9000FFE700980068416848F20002C0F2002293
:102EA0001143416000980068C16821F40041C1608D
:102EB000009801680269436980691A4342EA002068
:102EC000C86000980168C269006A104308600098F1
:102ED0000068016841F0010101600098002141642F
:102EE0000098202280F8412000980163009880F823
:102EF00042108DF80710FFE79DF8070002B080BD73
:102F000080B58EB00D9000200C900B900A90099027
:102F100008900D98006845F20041C4F20001884213
:102F200040F08780FFE7FFE741F21400C4F202009F
:102F3000016841F400310160006800F4003007903E
:102F40000798FFE7FFE741F21400C4F202000168AE
:102F500041F480210160006800F48020069006980A
:102F6000FFE74FF4004008901220099001210A91D8
:102F700003220B9204230C934FF0904C0DF1200E82
:102F8000049060460391714602920193CDF800E0EF
:102F9000FEF714FF4FF4007008900498099003990D
:102FA0000A91029A0B92019B0C9340F20040C4F6E6
:102FB00000000099FEF702FFFFE741F21C00C4F297
:102FC0000200016841F400110160006800F4001083
:102FD00005900598FFE740F2E820C2F200001C21AE
:102FE000C4F2020101601021416000218160802251
:102FF000C260016141618161C161FEF733FE002859
:1030000003D0FFE7FDF7AEFCFFE7FFE75020C4F277
:103010000100016841F040010160FFE7FFE70D9802
:1030200040F2E821C2F2000181630D984862FFE797
:10303000FFE70EB080BD000040F24E00C2F200007B
:10304000007840F25851C2F200010A68104408604A
:103050007047000080B582B042F20000C4F2020066
:10306000016841F010010160032000F093F8002096
:10307000019000F007F8009000F03EF8019802B0CF
:1030800080BD000080B582B0009040F20000C2F226
:103090000000006840F24E01C2F2000109784FF4CE
:1030A0007A72B2FBF1F1B0FBF1F001F043F90028C4
:1030B00004D0FFE701208DF8070018E000980F28E2
:1030C0000DD8FFE700994FF0FF30002200F042F8E2
:1030D000009840F25001C2F20001086003E00120B4
:1030E0008DF8070003E000208DF80700FFE79DF84A
:1030F000070002B080BD000082B0FFE741F2180077
:10310000C4F20200016841F001010160006800F0B2
:10311000010001900198FFE7FFE741F21C00C4F2B3
:103120000200016841F080510160006800F08050A9
:1031300000900098FFE702B07047000080B582B0B1
:1031400001468DF807009DF90700009103F092FBFE
:1031500002B080BD80B588B003468DF81F0006918F
:10316000059200200490039303F09EFB04909DF9C8
:103170001F000499069A059B0290084611461A46BC
:1031800002F0FAFD029901900846019903F094FBC0
:1031900008B080BD80B582B00190019803F0AEFB0D
:1031A00002B080BD80B58AB00890002007900690DC
:1031B0008DF8170008988078C007002800F0D580A7
:1031C000FFE741F21C00C4F202000068C0000028C2
:1031D00013D4FFE7FFE741F21C00C4F202000168CC
:1031E00041F080510160006800F080500490049824
:1031F000FFE701208DF81700FFE747F20000C4F257
:1032000000000068C005002822D4FFE747F2000054
:10321000C4F20000016841F480710160FEF788FF8C
:103220000790FFE747F20000C4F200000068C00505
:1032300000280CD4FFE7FEF77BFF0799401A6528AA
:1032400004D3FFE703208DF82700ECE0EAE7FFE76F
:1032500041F22000C4F20200006800F440700690C1
:103260000698002867D0FFE706980899496801F496
:10327000407188425FD0FFE741F22000C4F20200B3
:10328000016821F44071069140F24041C4F24221AC
:1032900001220A6000220A60069901609DF8180068
:1032A000C007002846D0FFE7FEF742FF0790FFE780
:1032B0000120002807D1FFE741F20000C4F202001C
:1032C0000068039022E00020002807D1FFE741F2C8
:1032D0002000C4F202000068029014E001200028DF
:1032E00007D1FFE741F20400C4F202000068019038
:1032F00006E041F22400C4F2020000680190FFE7FA
:1033000001980290FFE702980390FFE70398800777
:1033100000280ED4FFE7FEF70BFF0799401A41F291
:103320008931884204D3FFE703208DF827007AE033
:10333000BEE7FFE7FFE741F22000C4F202000168A8
:1033400021F44071089A5268114301609DF81700FA
:10335000012809D1FFE741F21C00C4F20200016814
:1033600021F080510160FFE7FFE708980078C0076F
:1033700000280CD0FFE741F23000C4F202000168DF
:1033800021F00301089A926811430160FFE7089851
:103390000078800600280CD5FFE741F23000C4F227
:1033A0000200016821F01001089AD26811430160FF
:1033B000FFE708980078000600280CD5FFE741F2E7
:1033C0002C00C4F20200016821F4F871089A126915
:1033D00011430160FFE708984078C00600280CD52B
:1033E000FFE741F23000C4F20200016821F480716D
:1033F000089A526911430160FFE708984078400637
:1034000000280CD5FFE741F23000C4F20200016849
:1034100021F48051089A926911430160FFE700206E
:103420008DF82700FFE79DF827000AB080BD000057
:1034300080B58EB00C900B9100200A900C9800285B
:1034400004D1FFE701208DF837007CE10B9842F2B0
:103450000001C4F20201096801F00701884216D98F
:10346000FFE742F20000C4F20200016821F0070108
:103470000B9A11430160006800F007000B99884225
:1034800004D0FFE701208DF837005CE1FFE70C98DE
:103490000078800700280CD5FFE741F20400C4F251
:1034A0000200016821F0F0010C9A9268114301605A
:1034B000FFE70C980078C007002800F0DF80FFE7E6
:1034C0000C984068012838D1FFE70020002807D178
:1034D000FFE741F20000C4F202000068099022E018
:1034E0000120002807D1FFE741F22000C4F20200CA
:1034F0000068089014E00120002807D1FFE741F29E
:103500000400C4F202000068079006E041F22400C3
:10351000C4F2020000680790FFE707980890FFE7F1
:1035200008980990FFE709988003002804D4FFE772
:1035300001208DF8370006E175E00C9840680228FC
:1035400038D1FFE70020002807D1FFE741F2000053
:10355000C4F202000068069022E00120002807D192
:10356000FFE741F22000C4F202000068059014E079
:103570000120002807D1FFE741F20400C4F2020055
:103580000068049006E041F22400C4F202000068E2
:103590000490FFE704980590FFE705980690FFE781
:1035A00006988001002804D4FFE701208DF8370039
:1035B000C9E037E00020002807D1FFE741F2000012
:1035C000C4F202000068039022E00120002807D125
:1035D000FFE741F22000C4F202000068029014E00C
:1035E0000120002807D1FFE741F20400C4F20200E5
:1035F0000068019006E041F22400C4F20200006875
:103600000190FFE701980290FFE702980390FFE71F
:1036100003988007002804D4FFE701208DF83700C5
:1036200091E0FFE7FFE741F20400C4F20200016805
:1036300021F003010C9A526811430160FEF778FDF6
:103640000A90FFE741F20400C4F20200006800F0B3
:103650000C000C994968B0EB810F0ED0FFE7FEF724
:1036600067FD0A99401A41F28931884204D3FFE785
:1036700003208DF8370066E0E4E7FFE70B9842F29D
:103680000001C4F20201096801F00701884216D264
:10369000FFE742F20000C4F20200016821F00701D6
:1036A0000B9A11430160006800F007000B998842F3
:1036B00004D0FFE701208DF8370044E0FFE70C98C5
:1036C0000078400700280CD5FFE741F20400C4F25F
:1036D0000200016821F4E0610C9AD2681143016094
:1036E000FFE70C980078000700280DD5FFE741F2AE
:1036F0000400C4F20200016821F460510C9A1269BE
:1037000041EAC2010160FFE700F04CF841F2040118
:10371000C4F202010968C9B2090948F26052C0F650
:103720000002515CC84040F20001C2F20001086092
:1037300040F25000C2F200000068FFF7A3FC002135
:103740008DF83710FFE79DF837000EB080BD000000
:1037500040F20000C2F200000068704780B5FFF739
:10376000F7FF41F20401C4F202010968C1F302212A
:1037700048F27052C0F60002515CC84080BD0000A3
:1037800080B5FFF7E5FF41F20401C4F202010968C8
:10379000C1F3C22148F27052C0F60002515CC84029
:1037A00080BD000080B588B000200790069005908D
:1037B0000490039041F20400C4F2020000680790F4
:1037C000079800F00C0001460028029143D0FFE763
:1037D0000298042804D0FFE70298082806D03BE0AE
:1037E00041F20020C0F27A0003903BE00798C0F35A
:1037F000834048F27851C0F60001085C049041F221
:103800002C00C4F20200006800F00F0048F288515A
:10381000C0F60001085C06909DF81E00C007002855
:103820000ED0FFE7069A41F20020C0F27A00002194
:103830000191019BFCF79EFD04994843059007E028
:10384000049840F60011C0F23D0148430590FFE79F
:103850000598039006E0FFE741F20020C0F27A00ED
:103860000390FFE7039808B080BD000080B5AEB0BC
:103870002C902C98002805D1FFE701208DF8B70087
:1038800000F053BD2C980078C007002800F03D815F
:10389000FFE741F20400C4F20200006800F00C00EF
:1038A000042813D0FFE741F20400C4F202000068CC
:1038B00000F00C00082847D1FFE741F20400C4F2F1
:1038C00002000068C00300283ED5FFE70020002862
:1038D00007D1FFE741F20000C4F202000068279020
:1038E00022E00120002807D1FFE741F22000C4F2C6
:1038F00002000068269014E00120002807D1FFE7AD
:1039000041F20400C4F202000068259006E041F292
:103910002400C4F2020000682590FFE72598269055
:10392000FFE726982790FFE72798800300280AD50D
:10393000FFE72C984068002805D1FFE701208DF8AB
:10394000B70000F0F2BCDFE0FFE72C984068B0F56C
:10395000803F09D1FFE741F20000C4F20200016894
:1039600041F48031016033E02C98406800280DD18B
:10397000FFE741F20000C4F20200016821F4803147
:103980000160016821F48021016020E02C984068EA
:10399000B0F5A02F0DD1FFE741F20000C4F2020004
:1039A000016841F480210160016841F480310160C7
:1039B0000CE041F20000C4F20200016821F4803101
:1039C0000160016821F480210160FFE7FFE7FFE764
:1039D000FFE741F22C00C4F20200016821F00F0160
:1039E0002C9A9268114301602C984068002845D0B9
:1039F000FFE7FEF79DFB2B90FFE70020002807D193
:103A0000FFE741F20000C4F202000068249022E0C7
:103A10000120002807D1FFE741F22000C4F2020094
:103A20000068239014E00120002807D1FFE741F24D
:103A30000400C4F202000068229006E041F2240073
:103A4000C4F2020000682290FFE722982390FFE76B
:103A500023982490FFE72498800300280DD4FFE7E3
:103A6000FEF766FB2B99401A652805D3FFE7032074
:103A70008DF8B70000F059BCBFE744E0FEF758FBF3
:103A80002B90FFE70020002807D1FFE741F200005C
:103A9000C4F202000068219022E00120002807D132
:103AA000FFE741F22000C4F202000068209014E019
:103AB0000120002807D1FFE741F20400C4F2020010
:103AC00000681F9006E041F22400C4F20200006882
:103AD0001F90FFE71F982090FFE720982190FFE7B5
:103AE0002198800300280DD5FFE7FEF721FB2B99D5
:103AF000401A652805D3FFE703208DF8B70000F0D2
:103B000014BCBFE7FFE7FFE7FFE72C9800788007CA
:103B1000002840F10C81FFE741F20400C4F20200EA
:103B2000006810F00C0F13D0FFE741F20400C4F25C
:103B30000200006800F00C00082853D1FFE741F2B2
:103B40000400C4F202000068C00300284AD4FFE762
:103B50000020002807D1FFE741F20000C4F2020074
:103B600000681E9022E00120002807D1FFE741F203
:103B70002000C4F2020000681D9014E0012000281B
:103B800007D1FFE741F20400C4F2020000681C9074
:103B900006E041F22400C4F2020000681C90FFE736
:103BA0001C981D90FFE71D981E90FFE71E98800748
:103BB000002809D5FFE72C980069012804D0FFE709
:103BC00001208DF8B700B0E341F20000C4F202001A
:103BD000016821F0F8012C9A526941EAC2010160A2
:103BE000FFE7A3E02C980069002855D0FFE70020EC
:103BF000C4F2422001210160FEF79AFA2B90FFE700
:103C00000020002807D1FFE741F20000C4F20200C3
:103C100000681B9022E00120002807D1FFE741F255
:103C20002000C4F2020000681A9014E0012000286D
:103C300007D1FFE741F20400C4F2020000681990C6
:103C400006E041F22400C4F2020000681990FFE788
:103C500019981A90FFE71A981B90FFE71B988007A6
:103C600000280CD4FFE7FEF763FA2B99401A0328CB
:103C700004D3FFE703208DF8B70056E3C0E741F215
:103C80000000C4F20200016821F0F8012C9A526988
:103C900041EAC201016048E00020C4F24220002154
:103CA0000160FEF745FA2B90FFE70020002807D1BE
:103CB000FFE741F20000C4F202000068189022E021
:103CC0000120002807D1FFE741F22000C4F20200E2
:103CD0000068179014E00120002807D1FFE741F2A7
:103CE0000400C4F202000068169006E041F22400CD
:103CF000C4F2020000681690FFE716981790FFE7DD
:103D000017981890FFE71898800700280CD5FFE750
:103D1000FEF70EFA2B99401A032804D3FFE703207D
:103D20008DF8B70001E3C0E7FFE7FFE7FFE72C9856
:103D300000780007002840F19B80FFE72C988069FD
:103D400000284AD0FFE740F28040C4F2422001211F
:103D50000160FEF7EDF92B90FFE70120002807D165
:103D6000FFE741F20000C4F202000068159022E073
:103D70000120002807D1FFE741F22000C4F2020031
:103D80000068149014E00120002807D1FFE741F2F9
:103D90000400C4F202000068139006E041F224001F
:103DA000C4F2020000681390FFE713981490FFE735
:103DB00014981590FFE71598800700280CD4FFE7AA
:103DC000FEF7B6F92B99401A032804D3FFE7032026
:103DD0008DF8B700A9E2C0E749E040F28040C4F2A4
:103DE000422000210160FEF7A3F92B90FFE701209C
:103DF000002807D1FFE741F20000C4F2020000688A
:103E0000129022E00120002807D1FFE741F22000B4
:103E1000C4F202000068119014E00120002807D1CC
:103E2000FFE741F20400C4F202000068109006E0CF
:103E300041F22400C4F2020000681090FFE71098DD
:103E40001190FFE711981290FFE712988007002861
:103E50000CD5FFE7FEF76CF92B99401A032804D321
:103E6000FFE703208DF8B7005FE2C0E7FFE7FFE759
:103E70002C9800784007002840F12E81FFE70020B1
:103E80008DF8A70041F21C00C4F202000068C000D7
:103E9000002813D4FFE7FFE741F21C00C4F2020040
:103EA000016841F080510160006800F08050289066
:103EB0002898FFE701208DF8A700FFE747F20000F0
:103EC000C4F200000068C005002822D4FFE747F2D2
:103ED0000000C4F20000016841F480710160FEF747
:103EE00027F92B90FFE747F20000C4F200000068BA
:103EF000C00500280CD4FFE7FEF71AF92B99401AE9
:103F0000652804D3FFE703208DF8B7000DE2EAE748
:103F1000FFE7FFE72C98C068012809D1FFE741F2CD
:103F20002000C4F20200016841F00101016032E0AA
:103F30002C98C06800280DD1FFE741F22000C4F2A0
:103F40000200016821F001010160016821F0040113
:103F500001601FE02C98C06805280DD1FFE741F2F1
:103F60002000C4F20200016841F004010160016810
:103F700041F0010101600CE041F22000C4F20200B6
:103F8000016821F001010160016821F00401016074
:103F9000FFE7FFE7FFE7FFE72C98C068002846D05F
:103FA000FFE7FEF7C5F82B90FFE70120002807D1B7
:103FB000FFE741F20000C4F2020000680F9022E027
:103FC0000020002807D1FFE741F22000C4F20200E0
:103FD00000680E9014E00120002807D1FFE741F2AD
:103FE0000400C4F2020000680D9006E041F22400D3
:103FF000C4F2020000680D90FFE70D980E90FFE7F5
:104000000E980F90FFE70F98800700280ED4FFE767
:10401000FEF78EF82B99401A41F28931884204D379
:10402000FFE703208DF8B7007FE1BEE745E0FEF72C
:104030007FF82B90FFE70120002807D1FFE741F22E
:104040000000C4F2020000680C9022E0002000286A
:1040500007D1FFE741F22000C4F2020000680B9094
:1040600014E00120002807D1FFE741F20400C4F268
:10407000020000680A9006E041F22400C4F2020047
:1040800000680A90FFE70A980B90FFE70B980C90E6
:10409000FFE70C98800700280ED5FFE7FEF748F8E9
:1040A0002B99401A41F28931884204D3FFE703205B
:1040B0008DF8B70039E1BEE7FFE79DF8A7000128BA
:1040C00009D1FFE741F21C00C4F20200016821F0AF
:1040D00080510160FFE7FFE72C98C069002800F0DD
:1040E0002081FFE741F20400C4F20200006800F002
:1040F0000C00082800F0EF80FFE72C98C069022828
:1041000040F09F80FFE76020C4F242200021016060
:10411000FEF70EF82B90FFE70020002807D1FFE7FD
:1041200041F20000C4F202000068099022E0012080
:10413000002807D1FFE741F22000C4F20200006826
:10414000089014E00120002807D1FFE741F20400A5
:10415000C4F202000068079006E041F22400C4F2B5
:10416000020000680790FFE707980890FFE70898AB
:104170000990FFE70998800100280CD5FFE7FDF7BB
:10418000D7FF2B99401A032804D3FFE703208DF8AB
:10419000B700CAE0C0E741F20400C4F202000168BF
:1041A00021F474112C9A136A526A1A431143016064
:1041B0006020C4F2422001210160FDF7B9FF2B907D
:1041C000FFE70020002807D1FFE741F20000C4F21A
:1041D00002000068069022E00120002807D1FFE7D6
:1041E00041F22000C4F202000068059014E00120B2
:1041F000002807D1FFE741F20400C4F20200006882
:10420000049006E041F22400C4F202000068049029
:10421000FFE704980590FFE705980690FFE70698EA
:10422000800100280CD4FFE7FDF782FF2B99401A8C
:10423000032804D3FFE703208DF8B70075E0C0E73B
:1042400048E06020C4F2422000210160FDF770FFC9
:104250002B90FFE70020002807D1FFE741F2000084
:10426000C4F202000068039022E00120002807D178
:10427000FFE741F22000C4F202000068029014E05F
:104280000120002807D1FFE741F20400C4F2020038
:104290000068019006E041F22400C4F202000068C8
:1042A0000190FFE701980290FFE702980390FFE773
:1042B0000398800100280CD5FFE7FDF739FF2B9903
:1042C000401A032804D3FFE703208DF8B7002CE041
:1042D000C0E7FFE724E02C98C069012804D1FFE77C
:1042E00001208DF8B70020E041F20400C4F2020082
:1042F00000682A902A9800F480302C99096A884234
:1043000008D1FFE72A9800F470102C99496A884276
:1043100004D0FFE701208DF8B70006E0FFE7FFE7D4
:10432000FFE700208DF8B700FFE79DF8B7002EB03B
:1043300080BD000080B582B00190019801F0AAFE16
:1043400002B080BD81B0009001B0704781B0009094
:1043500001B0704781B0009001B0704780B584B063
:1043600002900298002804D1FFE701208DF80F0089
:1043700049E0029890F83D00002808D1FFE7029834
:10438000002180F83C10029800F042F8FFE7029804
:10439000022180F83D10029850F8041B0190084655
:1043A000019901F011FF0298012180F84810FFE700
:1043B0000298012180F83E10029880F83F10029880
:1043C00080F84010029880F84110029880F842105E
:1043D000029880F84310FFE7FFE70298012180F878
:1043E0004410029880F84510029880F84610029810
:1043F00080F84710FFE70298012180F83D10002067
:104400008DF80F00FFE79DF80F0004B080BD00009D
:1044100080B584B003900398006844F60001C4F2AC
:10442000010188421AD1FFE7FFE741F21800C4F208
:104430000200016841F480210160006800F48020DE
:1044400002900298FFE71A20002101900091009A43
:10445000FEF780FE0198FEF771FEFFE704B080BD15
:1044600083B00190019890F83D00012804D0FFE747
:1044700001208DF80B004EE00198022180F83D10DC
:1044800001980068C16841F00101C16001980068AD
:1044900042F60041C4F20101884218D0FFE70198BA
:1044A0000068B0F1804F12D0FFE70198006840F239
:1044B0000041C4F20001884209D0FFE7019800687A
:1044C00044F20001C4F20101884219D1FFE70198CA
:1044D000006880680721C0F2010108400090009840
:1044E00006280CD0FFE70098B0F5803F07D0FFE723
:1044F00001980068016841F001010160FFE706E0F2
:1045000001980068016841F001010160FFE70020A7
:104510008DF80B00FFE79DF80B0003B0704700001B
:1045200081B0009001B0704780B582B001900198D1
:104530000068006900F002000021B1EB500F29D0A3
:10454000FFE701980068C06800F002000021B1EBAD
:10455000500F1ED0FFE7019800686FF00201016163
:10456000019801210177019800688069800700287F
:1045700004D0FFE70198FFF7D3FF06E0019800F0B1
:1045800031F9019800F032F9FFE701980021017735
:10459000FFE7FFE701980068006900F004000021D0
:1045A000B1EB900F29D0FFE701980068C06800F0D8
:1045B00004000021B1EB900F1ED0FFE701980068C6
:1045C0006FF00401016101980221017701980068F0
:1045D000806910F4407F04D0FFE70198FFF7A0FF47
:1045E00006E0019800F0FEF8019800F0FFF8FFE700
:1045F000019800210177FFE7FFE701980068006953
:1046000000F008000021B1EBD00F29D0FFE701989E
:104610000068C06800F008000021B1EBD00F1ED088
:10462000FFE7019800686FF008010161019804211B
:10463000017701980068C0698007002804D0FFE76F
:104640000198FFF76DFF06E0019800F0CBF80198A4
:1046500000F0CCF8FFE7019800210177FFE7FFE7C2
:1046600001980068006900F010000021B1EB101FF4
:1046700029D0FFE701980068C06800F01000002111
:10468000B1EB101F1ED0FFE7019800686FF010011A
:10469000016101980821017701980068C06910F450
:1046A000407F04D0FFE70198FFF73AFF06E001984A
:1046B00000F098F8019800F099F8FFE701980021C0
:1046C0000177FFE7FFE7019800680069C00700284D
:1046D00011D0FFE701980068C068C007002809D022
:1046E000FFE7019800686FF001010161019800F097
:1046F00083F8FFE7FFE7019800680069C0B2002176
:10470000B1EBD01F13D0FFE701980068C068C0B2BA
:104710000021B1EBD01F09D0FFE7019800686FF0CE
:10472000800101610198FFF711FEFFE7FFE70198A3
:104730000068006900F480700021B1EB102F13D0E5
:10474000FFE701980068C068C0B20021B1EBD01F3C
:1047500009D0FFE7019800686FF48071016101984A
:10476000FFF7F0FDFFE7FFE701980068006900F040
:1047700040000021B1EB901F14D0FFE701980068C2
:10478000C06800F040000021B1EB901F09D0FFE7A6
:10479000019800686FF040010161019800F01EFA75
:1047A000FFE7FFE701980068006900F020000021A2
:1047B000B1EB501F14D0FFE701980068C06800F00B
:1047C00020000021B1EB501F09D0FFE701980068DD
:1047D0006FF0200101610198FFF7BCFDFFE7FFE7E3
:1047E00002B080BD81B0009001B0704781B00090F0
:1047F00001B070470000000080B594B0139013988A
:1048000040F25441C2F20001884240F0DA81FFE7F1
:1048100002F096FC00208DF84B00FFE79DF84B005E
:10482000022837DCFFE79DF84B0040F2D001C2F2CE
:10483000000131F8102040F2E403C2F2000333F823
:1048400010C0A2EB0C0200EE102AB8EEC00A40F233
:104850001802C2F2000202EB800080ED000A9DF80F
:104860004B00C21C31F8121033F81220891A00EEE6
:10487000101AB8EEC00A40F20C01C2F2000101EBBE
:10488000800080ED000AFFE79DF84B0001308DF8B5
:104890004B00C3E740F29010C2F2000040F2D0019A
:1048A000C2F200010622FCF78DFE40F21801C2F2AE
:1048B000000140F22C02C2F200021190084611469B
:1048C00002F03AF840F20C00C2F2000040F224017B
:1048D000C2F2000102F030F840F25450C2F200007F
:1048E00090ED000A1090FBF7FBFC40F24C50C2F236
:1048F000000080ED000A109890ED000AFBF7B4FC70
:1049000040F2F400C2F2000080ED000A109890ED31
:10491000000A9FEDAF1A30EE010A80ED000A40F266
:104920005051C2F200010A8801320A800988B1F5AB
:10493000B47F0CD1FFE740F25050C2F200000021DA
:10494000018040F25450C2F200000160FFE740F2E3
:104950002400C2F2000040F23401C2F200010F91C3
:1049600002F0BAF940F22C00C2F2000040F23C0121
:10497000C2F200010E9102F0AFF90F9890ED000A1B
:10498000B1EE400A80ED000A90ED010AB1EE400A56
:1049900080ED010A0E9991ED000AB1EE400A81ED19
:1049A000000A91ED010AB1EE400A81ED010A91ED94
:1049B000000A40F24402C2F20002D2ED000A40F2C4
:1049C000A453C2F2000318460D920C9301F00CFAA6
:1049D0000E9890ED011A0D99D1ED010A40F2EC52BA
:1049E000C2F2000210468DED0B0AB0EE410A0A92A7
:1049F00001F0FAF90F9890ED001A0C99D1ED080A20
:104A000040F2F802C2F2000210468DED090AB0EE43
:104A1000410A089201F0E8F90F9890ED011A0A99FD
:104A2000D1ED080A40F24012C2F2000210468DEDAC
:104A3000070AB0EE410A069201F0D6F90898006A1A
:104A40008DED050A02F08EFF41EC100B51EC100BBE
:104A50009FED5D0B53EC102BDB0F63F3DF7141EC2B
:104A6000100B51EC100B0492039302F099FB40F2EF
:104A70008811C2F2000108600698006A029102F0F3
:104A800071FF41EC100B51EC100B039A62F3DF71D4
:104A900041EC100B51EC100B02F082FB02994860C4
:104AA00040F2DC00C2F20000019001F06FFF0198BB
:104AB00090ED000A90ED011A9FED462A20EE020AC1
:104AC00030EE413A0021B5EE403AF1EE10FA0A46D6
:104AD000C8BF01224FEA420202F10103B5EE401ABB
:104AE000F1EE10FAC8BF1A4630EE010AB5EE400AE0
:104AF000F1EE10FAB8BF012142EA810140F24D0205
:104B0000C2F20002117090ED010A20EE020A40F29A
:104B10000401C2F20001098801EE101AB8EEC11AB0
:104B200020EE010A40F20801C2F2000191ED001AE4
:104B300080EE010ABDEEC00A40F2C403C2F20003D7
:104B400083ED000A90ED000A90ED011A81EE021A41
:104B500031EE000A9FED201A20EE010A91ED003A95
:104B600080EE030AB7EE083A20EE030ABDEEC00A53
:104B700040F2C803C2F2000383ED000A90ED000A80
:104B800090ED014A84EE022A32EE400A20EE010A3C
:104B900091ED001A80EE010A20EE030ABDEEC00A74
:104BA00040F2CC01C2F2000181ED000A117840F21E
:104BB0003452C2F2000202EB810151F8041C884712
:104BC000FFE714B080BD00BF00000000000000003F
:104BD00035FA8E3CD7B3DD3F0000B44681B000907B
:104BE00001B0704780B582B000900098002804D1D1
:104BF000FFE701208DF8070047E000988069002852
:104C000001D0FFE700E0FFE70098806F002808D19F
:104C1000FFE70098002180F87410009800F03AF83F
:104C2000FFE700982421816700980068016821F05F
:104C300001010160009801F059FC012804D1FFE74F
:104C400001208DF8070020E00098406A002804D079
:104C5000FFE7009801F050FBFFE70098006841680B
:104C600021F49041416000980068816821F02A0198
:104C7000816000980068016841F0010101600098BE
:104C800001F0E0FB8DF80700FFE79DF8070002B098
:104C900080BD000080B588B0079000200690059088
:104CA0000490039002900798006843F60001C4F254
:104CB0000101884230D1FFE7FFE741F21800C4F25A
:104CC0000200016841F480410160006800F4804006
:104CD00001900198FFE7FFE741F21400C4F20200DF
:104CE000016841F480210160006800F48020009098
:104CF0000098FFE7C020029002200390002004905B
:104D0000032005900720069040F20040C4F6000002
:104D100002A9FDF753F8FFE708B080BD83B0029009
:104D200001910198052800903BD80099DFE801F037
:104D30000C151E27300302980068D0F8841341F048
:104D40000101C0F884132DE002980068D0F88413A4
:104D500041F00201C0F8841324E002980068D0F802
:104D6000841341F00401C0F884131BE0029800682A
:104D7000D0F8841341F00801C0F8841312E00298BF
:104D80000068D0F8841341F01001C0F8841309E0E2
:104D900002980068D0F8841341F02001C0F8841311
:104DA00000E0FFE703B0704783B0029001910298E2
:104DB000006800680090009820F0070000900198BB
:104DC0008068009908430090009820F01800009037
:104DD0000198C068009908430090009802990968FA
:104DE0000860019800680299096848610198406864
:104DF00002990968886103B07047000084B003908D
:104E00000291039800680068019003980068D0F848
:104E1000A0030090019820F02000019002984069C2
:104E2000019908430190019820F4006001900298D4
:104E30008069019908430190019820F480600190F5
:104E40000298C069019908430190019820F0C06060
:104E500001900298006A019908430190019820F09E
:104E6000006001900298406A0199084301900198FE
:104E700020F0404001900298806A019941EA800048
:104E80000190019820F0005001900298006B019968
:104E900008430190009820F4803000900298C06A86
:104EA00000990843009001980399096808600098E8
:104EB00003990968C1F8A00304B0704788B007904F
:104EC00006910592049300200190079800680699C6
:104ED00000EBC110D0F8E400039007980068069931
:104EE00000EBC110D0F8B80002900598012800909E
:104EF00026D0FFE70098022835D0FFE70098042865
:104F00001ED0FFE7009808282DD0FFE70098102852
:104F100016D0FFE70098202825D0FFE7009840280A
:104F20000ED0FFE7009880281DD0FFE70098B0F56D
:104F3000807F05D0FFE70098B0F5007F13D027E011
:104F40000498406807990968069A01EBC211C1F8F4
:104F5000BC000498806807990968069A01EBC211A1
:104F6000C1F8C00015E00498406807990968069ADE
:104F700001EBC211C1F8C400049880680799096860
:104F8000069A01EBC211C1F8C8001020019000E0A0
:104F9000FFE70198FE2101FA00F0039921EA0000E1
:104FA000039004980068019988400399084303908E
:104FB0000498C068019988400399084303900498B5
:104FC0000069019988400399084303900498406957
:104FD00001998840039908430390049880690199D6
:104FE000884003990843039004980069082814D165
:104FF000FFE79DF80900800700280ED4FFE79DF821
:105000000B008007002808D4FFE70498C0690199C5
:105010008840039908430390FFE7039807990968BC
:10502000069A01EBC211C1F8E40008B07047000015
:1050300084B003900291019203980068029900EBFA
:10504000C110D0F880000090009820F00700009078
:1050500001988068009908430090009820F018009B
:1050600000900198C0680099084300900098039947
:105070000968029A01EBC211C1F88000019800682A
:1050800003990968029A01EBC211C1F894000198D2
:10509000406803990968029A01EBC211C1F89800AF
:1050A00004B0704789B0089007910692089800688C
:1050B000079900EBC110D0F8801021F07041C0F8C2
:1050C000801008980068079900EBC110D0F88000A4
:1050D000059008980068079900EBC110D0F8E80027
:1050E000049008980068079900EBC110D0F8E4001C
:1050F000039008980068D0F8A0030190059820F06C
:105100002000059006984069059908430590059888
:1051100020F4006005900698806905990843059081
:10512000059820F4806005900698C06905990843A9
:105130000590059820F0C06005900698006A0599D2
:1051400008430590059820F0006005900698406A95
:10515000059908430590059820F070400590069841
:10516000806A059908430590059820F40030059061
:105170000698006BB0F1005F05D1FFE7059840F499
:1051800000300590FFE7059820F040000590069854
:10519000406B059908430590059820F48020059000
:1051A0000698006D059908430590059820F0FC705D
:1051B00005900698806C059908430590049820F0A6
:1051C0001F0004900698806B00F01F0004990843AC
:1051D0000490049820F0004004900698C06B049955
:1051E000084304900698406B00280AD1FFE7039813
:1051F00020F4807003900698006C03990843039094
:10520000FFE70698406CB0F5606F06D0FFE70698A0
:10521000406CB0F5F05F05D1FFE70698406B402881
:105220000AD1FFE7039820F4F05003900698406CF1
:10523000039908430390FFE70698C06C0290079813
:10524000042800903CD80099DFE801F0030E1924EF
:105250002F00019820F4003001900698C06A01994F
:1052600041EA400001902CE0019820F48020019058
:105270000698C06A019941EA8000019021E00198F6
:1052800020F4002001900698C06A019941EAC0000C
:10529000019016E0019820F4801001900698C06AF1
:1052A000019941EA001001900BE0019820F40010F0
:1052B00001900698C06A019941EA4010019000E00F
:1052C000FFE7059808990968079A01EBC211C1F830
:1052D0008000049808990968079A01EBC211C1F887
:1052E000E800039808990968079A01EBC211C1F810
:1052F000E400029808990968079A01EBC211C1F805
:10530000D400019808990968C1F8A00309B0704752
:10531000FFE7FEE780B58AB000200990089007906B
:1053200006900590049003900290019040F2901135
:10533000C2F200014FF0A0420A604860886001227A
:105340000A614A7681F820004FF48062CA624FF405
:10535000E0728A62C8600622CA6181F830000822C1
:105360004A61087648630846FBF790FE002803D0A0
:10537000FFE7FBF7F7FAFFE70020079040F29010F5
:10538000C2F2000007A9FBF7F5FA002803D0FFE7F7
:10539000FBF7E8FAFFE7012001900290002004905B
:1053A00003900590069040F29010C2F2000001A90F
:1053B000FBF7C2FB002803D0FFE7FBF7D3FAFFE7B8
:1053C00002200190029040F29010C2F2000001A968
:1053D000FBF7B2FB002803D0FFE7FBF7C3FAFFE7B8
:1053E00003200190029040F29010C2F2000001A947
:1053F000FBF7A2FB002803D0FFE7FBF7B3FAFFE7B8
:1054000004200190029040F29010C2F2000001A925
:10541000FBF792FB002803D0FFE7FBF7A3FAFFE7B7
:105420000B2001900520029040F29010C2F2000083
:1054300001A9FBF781FB002803D0FFE7FBF792FAF5
:10544000FFE70C2001900620029040F29010C2F27B
:10545000000001A9FBF770FB002803D0FFE7FBF772
:1054600081FAFFE70AB080BD80B586B000200590C4
:105470000490039002900190009040F2E011C2F27B
:10548000000140F20012C5F200020A604860886024
:105490000861487681F82000C86201228A62C860EB
:1054A000CA6181F8300004224A61087648630846E0
:1054B000FBF7ECFD002803D0FFE7FBF753FAFFE70B
:1054C000012000900190002003900290049005902C
:1054D00040F2E010C2F200006946FBF72DFB002805
:1054E00003D0FFE7FBF73EFAFFE706B080BD000000
:1054F00080B540F23020C2F200002021C4F2010148
:10550000016050214160002181602A22C260016156
:1055100081614162FCF750F9002803D0FFE7FBF7F7
:1055200021FAFFE780BD000080B540F26020C2F2A2
:1055300000003021C4F201010160502141600021CE
:1055400081602A22C260016181614162FCF734F905
:10555000002803D0FFE7FBF705FAFFE780BD000056
:1055600080B584B0002003900290019040F290201A
:10557000C2F2000047F20041C4F200010160FCF7F2
:1055800087FA002803D0FFE7FBF7ECF9FFE70020DC
:105590000190039040F29020C2F2000001A9102275
:1055A000FCF7FAF9002803D0FFE7FBF7DBF9FFE788
:1055B00004B080BD80B584B0FFE741F21400C4F2AE
:1055C0000200016841F001010160006800F0010083
:1055D00003900398FFE70B2007210022029001921D
:1055E000FDF7B8FD0298FDF7A9FD0C200090019988
:1055F000019AFDF7AFFD0098FDF7A0FD04B080BD56
:1056000080B592B00020119010900F900E900D90E8
:10561000FFE741F21400C4F20200016841F40021E6
:105620000160006800F400200C900C98FFE7FFE791
:1056300041F21400C4F20200016841F480010160EB
:10564000006800F480000B900B98FFE7FFE741F241
:105650001400C4F20200016841F4003101600068E6
:1056600000F400300A900A98FFE7FFE741F21400C7
:10567000C4F20200016841F480210160006800F476
:10568000802009900998FFE740F60000C4F600006A
:105690004FF460410022089007910692FCF72EFD1E
:1056A0004FF09040402105900491069AFCF726FDAA
:1056B00040F20040C4F600004FF480710390029164
:1056C000069AFCF71BFD07980D9001210E91069A92
:1056D0000F9210920DAB0898019119460093FCF7B8
:1056E0006DFB04980D9001990E91069A0F921092FD
:1056F00005980099FCF762FB02980D9001990E91B4
:10570000069A0F92109203980099FCF757FB12B07B
:1057100080BD000080B5BAB0002039903890379035
:105720003690359034901FA954220A9008461146AD
:10573000FAF798FE0A981E901D901C9013A8242139
:10574000FAF790FE0A981290119010900F900E9018
:105750000D900C900B9040F22C31C2F2000147F2F8
:105760000042C4F201020A60486088600846FCF703
:1057700073FE002803D0FFE7FBF7F4F8FFE740F2E1
:105780002C30C2F200000C21FCF784FD002803D06D
:10579000FFE7FBF7E7F8FFE740F22C30C2F200002A
:1057A0000A21FCF7A5FF002803D0FFE7FBF7DAF892
:1057B000FFE74FF4003038904FF08070399040F29E
:1057C0002C30C2F20000012138AAFCF7B7FC0028F7
:1057D00003D0FFE7FBF7C6F8FFE74FF4FA40349039
:1057E000FF203590032036900820379040F22C306F
:1057F000C2F20000052134AAFCF7BAFF002803D04A
:10580000FFE7FBF7AFF8FFE700201F902090219003
:1058100022900121239124902590269027904FF0EB
:105820000061289129902A904FF000502B9040F26F
:105830002C30C2F2000005211FAAFDF7C9F900288B
:1058400003D0FFE7FBF78EF8FFE70020359040F22A
:105850002C31C2F2000134AA099008460999FCF7DC
:1058600087FF002803D0FFE7FBF77CF8FFE7002065
:105870001F90209021902290012123912C902D9017
:105880002E904FF480712F913090319010213291F1
:10589000339040F22C31C2F200011FAA0890084652
:1058A0000899FDF795F9002803D0FFE7FBF75AF8B0
:1058B000FFE70020219022900120239040F22C311C
:1058C000C2F200011FAA079008460799FDF780F968
:1058D000002803D0FFE7FBF745F8FFE70020219001
:1058E00022900120239040F22C30C2F200000221CD
:1058F0001FAAFDF76DF9002803D0FFE7FBF732F888
:10590000FFE700202190229001212391309040F266
:105910002C30C2F2000003211FAAFDF759F900281C
:1059200003D0FFE7FBF71EF8FFE741F288301C9039
:1059300040F22C30C2F20000002101221CABFCF727
:1059400045FF002803D0FFE7FBF70CF8FFE742F222
:1059500010701C9000201D901E9040F22C31C2F25D
:10596000000102221CAB069008460699FCF72EFFA8
:10597000002803D0FFE7FAF7F5FFFFE700201E90AD
:1059800040F22C30C2F20000012102221CABFCF7D5
:105990001DFF002803D0FFE7FAF7E4FFFFE74FF60B
:1059A000FB701C9000201E9040F22C30C2F20000D0
:1059B00002211CAB0591059AFCF708FF002803D0D3
:1059C000FFE7FAF7CFFFFFE742F210701C900020CC
:1059D0001E9040F22C30C2F20000032102221CABC8
:1059E000FCF7F4FE002803D0FFE7FAF7BBFFFFE760
:1059F00041F288301C9040F22C30C2F200000021AD
:105A000004221CABFCF7E2FE002803D0FFE7FAF704
:105A1000A9FFFFE7002013904FF4FA71149115903D
:105A200016901790189119901A901B9040F22C31F3
:105A3000C2F2000113AA049008460499FCF782FC04
:105A4000002803D0FFE7FAF78DFFFFE740F22C3084
:105A5000C2F20000012113AAFCF774FC002803D055
:105A6000FFE7FAF77FFFFFE740F22C30C2F20000B9
:105A7000022113AAFCF766FC002803D0FFE7FAF71F
:105A800071FFFFE740F22C30C2F20000032113AA9D
:105A9000FCF758FC002803D0FFE7FAF763FFFFE7A5
:105AA00000200B9008210C9110210D910E900F9069
:105AB00010901190129040F22C31C2F2000101229C
:105AC0000BAB039008460399FDF712F8002803D0AA
:105AD000FFE7FAF747FFFFE740F22C30C2F2000081
