:020000040800F2
:10000000080C002029020008495E00084D52000833
:10001000455E00085D060008E5620008000000007B
:10002000000000000000000000000000D161000896
:100030005D08000800000000CD610008296200088A
:10004000430200084302000843020008430200087C
:10005000430200084302000843020008430200086C
:10006000430200084302000843020008B5070008E5
:10007000C5070008430200084302000843020008C5
:10008000430200084302000843020008430200083C
:10009000430200084302000843020008430200082C
:1000A000430200084302000843020008430200081C
:1000B0004302000843020008000000004302000859
:1000C0004302000800000000000000004302000896
:1000D0000000000043020008430200084302000839
:1000E0004302000843020008000000000000000076
:1000F0000000000000000000000000000000000000
:1001000000000000000000000000000000000000EF
:100110000000000000000000430200084302000845
:1001200000000000000000000000000000000000CF
:1001300000000000000000000000000000000000BF
:10014000430200084302000800000000ED430008DD
:10015000430200084302000843020008430200086B
:1001600043020008430200080000000000000000F5
:10017000000000000000000000000000000000007F
:10018000000000004302000800F002F800F03CF814
:100190000AA090E8000C82448344AAF10107DA45E2
:1001A00001D100F031F8AFF2090EBAE80F0013F0F8
:1001B000010F18BFFB1A43F001031847C07100007C
:1001C000E0710000103A24BF78C878C1FAD852070D
:1001D00024BF30C830C144BF04680C6070470000C1
:1001E0000023002400250026103A28BF78C1FBD840
:1001F000520728BF30C148BF0B6070471FB507F0DA
:100200006EF81FBD10B510BD00F0D0F81146FFF715
:10021000F5FF06F0D1F900F0EEF803B4FFF7F2FFB6
:1002200003BC00F0F5F80000094880470948004782
:10023000FEE7FEE7FEE7FEE7FEE7FEE7FEE7FEE796
:10024000FEE7FEE704480549054A064B70470000F3
:10025000D16200088901000808060020080C00206F
:10026000080800200808002053EA020C00F069800A
:100270002DE9F04B4FF00006002B1FBFB3FA83F5BA
:1002800003FA05F424FA05F65E4012BF1643B2FAEB
:1002900082F502FA05F4C5F120051EBF22FA05FC1D
:1002A00044EA0C04203556EA044C4FEA144418BFC3
:1002B000641C4FF000084FF00009904271EB030CF2
:1002C00039D3002919BFB1FA81F701FA07F6B0FA5C
:1002D00080F700FA07F6C7F120071EBF20FA07FCD7
:1002E00046EA0C062037B6FBF4FCA7EB0507103FE7
:1002F00007F01F0BCBF120062CFA06F60CFA0BFBCD
:1003000044BFB3460026202FA4BF5E464FF0000B2B
:100310005BEA060C08BF4FF0010B19EB0B0948EB29
:100320000608ABFB027C06FB02CC0BFB03CCC01B1C
:1003300071EB0C01C1E70B46024641464846BDE859
:10034000F08B13B5084318BF4FF0FF300146AFF3F1
:100350000080BDE81C4070474FF0000200B5134616
:1003600094469646203922BFA0E80C50A0E80C50D5
:10037000B1F12001BFF4F7AF090728BFA0E80C5086
:1003800048BF0CC05DF804EB890028BF40F8042B7F
:1003900008BF704748BF20F8022B11F0804F18BFEC
:1003A00000F8012B7047704770477047754600F0A2
:1003B0002BF8AE4605006946534620F007008546F7
:1003C00018B020B5FFF73EFFBDE820404FF0000613
:1003D0004FF000074FF000084FF0000BAC46ACE8C0
:1003E000C009ACE8C009ACE8C009ACE8C00921F01C
:1003F00007018D46704710B50446AFF300802046D4
:10040000BDE81040FFF709BF004870479800002082
:1004100001491820ABBEFEE726000200704700002D
:1004200080B582B001900198406A00900098006CFD
:1004300010F0500F26D1FFE70099086C40F40070CF
:10044000086400980068C06810F4406F16D1FFE798
:100450000098407E90B9FFE70099086C20F4807006
:1004600008640098006CC004002806D4FFE70099D7
:10047000086C40F001000864FFE7FFE7009800F017
:1004800069FD05E00098806B016B01988847FFE7E4
:1004900002B080BD80B582B001900198406A0090A2
:1004A0000099086C40F0400008640099486C40F0E6
:1004B00004004864009801F007F902B080BD000014
:1004C00080B582B001900198406A0090009801F0D8
:1004D000F7F802B080BD000080B584B00290002023
:1004E000019002990968896801F0030101290090CF
:1004F00005D1FFE70298006800680090FFE70098C8
:10050000C007002844D0FFE702980068806800F028
:100510000D0001280DD1FFE7FFE702980168886808
:1005200040F0020088600298016803200860FFE73D
:100530000DE00299086C40F0100008640299486CC4
:1005400040F00100486401208DF80F0024E001F024
:1005500067FF0190FFE7029800688068C007B0B1AC
:10056000FFE701F05DFF0199401A03280ED3FFE772
:100570000299086C40F0100008640299486C40F041
:100580000100486401208DF80F0005E0E3E7FFE774
:1005900000208DF80F00FFE79DF80F0004B080BD2C
:1005A00080B584B0029000200190029909688968A2
:1005B00001F003010129009005D1FFE702980068CE
:1005C00000680090FFE70098C00700283ED1FFE7D1
:1005D0000298006880683F21C8F2000108420ED0EE
:1005E000FFE70299086C40F0100008640299486C1B
:1005F00040F00100486401208DF80F002AE00298C5
:100600000168886840F00100886001F009FF0190EE
:10061000FFE7029800680068C007B0B9FFE701F083
:10062000FFFE0199401A03280ED3FFE70299086CD8
:1006300040F0100008640299486C40F001004864E2
:1006400001208DF80F0005E0E3E7FFE700208DF8BB
:100650000F00FFE79DF80F0004B080BDFFE7FEE745
:1006600080B588B040F2F440C2F20000007840F259
:100670009251C2F200010978884200F09880FFE7A9
:1006800040F29250C2F200000078012836D1FFE714
:1006900040F27001C2F200014FF07E50086040F25B
:1006A0009151C2F2000101200790087040F24850B9
:1006B000C2F20000069005F025FD40F29820C2F23B
:1006C0000000059005F01EFD059A06990020C4F271
:1006D0007A5010620020086105F010FF079801F0C1
:1006E000CDFC05F0E1FE40F29250C2F2000000782D
:1006F00040F2F441C2F20001087058E040F292501A
:10070000C2F20000007802283CD1FFE740F27001FD
:10071000C2F200014FF07C50086040F29151C2F2E9
:10072000000101200490087040F20050C2F2000065
:10073000019005F0E7FC40F20820C2F200000290B0
:1007400005F0E0FC40F2C050C2F20000039005F05A
:10075000D9FC019B029A039900201861106108617D
:1007600005F0CCFE049801F089FC05F071FE40F222
:100770009250C2F20000007840F2F441C2F200014F
:10078000087014E040F29250C2F20000007868B99C
:10079000FFE705F0B3FE40F29250C2F2000000788D
:1007A00040F2F441C2F20001087000E0FFE708B037
:1007B00080BD000080B540F29030C2F2000001F030
:1007C00015FB80BD80B540F2D430C2F2000001F0CC
:1007D0000DFB80BD81B00090009908684FF6F8725B
:1007E000CBF6FD7210444CF6CD42CCF6CC42A0FBC9
:1007F00002026FF0030000EA9200086400990020F2
:10080000C4F20200C86301B07047000084B00390D6
:100810000291019200930398C16B026C01209040F9
:100820004860009803990968486003984068102858
:1008300009D1FFE701980399096888600298039934
:100840000968C86008E002980399096888600198FF
:1008500003990968C860FFE704B07047704700005B
:1008600081B0EFF3108072B60090FFE7FEE7000062
:100870009DB01B901A9100208DF867001A980068AF
:1008800008B1FFE7FFE71B980068B0F1A04F06D161
:10089000FFE740F20010C5F20000049003E04FF0C3
:1008A000A0400490FFE7049820B9FFE701208DF8ED
:1008B0007300B4E0FFE71B9890F83C00012804D1D6
:1008C000FFE702208DF87300A9E01B99012081F851
:1008D0003C00FFE7FFE71B980068806800F0040118
:1008E0000020B0EB910F40F08680FFE7049880680D
:1008F00000F004010020B0EB910F7CD1FFE740F243
:100900000030C5F2000018901A980068002840D006
:10091000FFE71898806820F460401A9949681B9A8C
:1009200092F8302041EA42310843189988601B98B8
:100930000068806800F0030100200129039005D1C0
:10094000FFE71B98006800680390FFE70398C00763
:10095000F0B9FFE70498806800F003010020012946
:10096000029004D1FFE7049800680290FFE7029824
:10097000C00768B9FFE71898806840F61F71884380
:100980001A9A116892681143084318998860FFE722
:1009900030E01899886820F4604088601B980068EF
:1009A000806800F0030100200129019005D1FFE7D4
:1009B0001B98006800680190FFE70198C007C0B964
:1009C000FFE70498806800F00301002001290090EF
:1009D00004D1FFE7049800680090FFE70098C00783
:1009E00038B9FFE71899886840F61F72904388600D
:1009F000FFE7FFE708E01B99086C40F0200008645F
:100A000001208DF86700FFE7FFE71B99002081F8C0
:100A10003C00FFE79DF867008DF87300FFE79DF845
:100A200073001DB0704700009FB01D901C91002006
:100A30008DF86F0004901C98C068012801D0FFE772
:100A400000E0FFE7FFE71D9890F83C00012804D183
:100A5000FFE702208DF87B0078E21D99012081F8E4
:100A60003C00FFE7FFE71D980068806800F0040184
:100A70000020B0EB910F40F05582FFE71C984068D2
:100A8000042812D8FFE71D980068006B1C9A1168B3
:100A9000526802EB420252001F2393409843914058
:100AA00008431D99096808634AE01C9840680928B2
:100AB00015D8FFE71D980068406B1C9A11685268B2
:100AC00002EB42036FF01D0202EB43021F2393402F
:100AD0009843914008431D99096848632FE01C988A
:100AE00040680E2815D8FFE71D980068806B1C9A97
:100AF0001168526802EB42036FF03B0202EB4302C3
:100B00001F2393409843914008431D9909688863C7
:100B100014E01D980068C06B1C9A1168526802EBC3
:100B200042036FF0590202EB43021F2393409843A4
:100B3000914008431D990968C863FFE7FFE7FFE795
:100B40001D980068806810F00C0F40F0D980FFE716
:100B50001C9800680A2812D3FFE71D980068806976
:100B60001C990A68896802EB42021E3A07239340E7
:100B70009843914008431D990968886110E01D98C9
:100B8000006840691C990A68896802EB42020723E1
:100B900093409843914008431D9909684861FFE7D5
:100BA0001C9840691D990968C96801F018018908F5
:100BB000884005901C98006901380146039103287C
:100BC00054D80399DFE801F002162A3E1D98006808
:100BD000006E4FF20001C0F2FF3101401C98026824
:100BE000059840EA8260084340F000401D9909687A
:100BF000086684E01D980068406E4FF20001C0F264
:100C0000FF3101401C980268059840EA8260084361
:100C100040F000401D990968486670E01D98006822
:100C2000806E4FF20001C0F2FF3101401C98026853
:100C3000059840EA8260084340F000401D99096829
:100C400088665CE01D980068C06E4FF20001C0F23B
:100C5000FF3101401C980268059840EA8260084311
:100C600040F000401D990968C86648E01D9800687A
:100C7000006E00F0F8401C990968B0EB816F07D155
:100C8000FFE71D980168086E20F000400866FFE746
:100C90001D980068406E00F0F8401C990968B0EBA0
:100CA000816F07D1FFE71D980168486E20F0004072
:100CB0004866FFE71D980068806E00F0F8401C99B8
:100CC0000968B0EB816F07D1FFE71D980168886E56
:100CD00020F000408866FFE71D980068C06E00F0B5
:100CE000F8401C990968B0EB816F07D1FFE71D98A8
:100CF0000168C86E20F00040C866FFE7FFE7FFE725
:100D00001D980068806800F003010020012902900E
:100D100005D1FFE71D98006800680290FFE7029880
:100D2000C007002840F0FD80FFE71C98C06801283C
:100D30000DD0FFE71C980168012000FA01F21D9810
:100D40000168D1F8B0009043C1F8B00035E01C98BC
:100D50000168012000FA01F21D980168D1F8B00085
:100D60001043C1F8B0001C9800680A2812D3FFE7AE
:100D70001D98006880691C990A68896802EB420224
:100D80001B3A072393409843914008431D990968F3
:100D9000886111E01D98006840691C990A6889689B
:100DA00002EB4202033207239340984391400843E9
:100DB0001D9909684861FFE7FFE740F20030C5F27E
:100DC00000001A901C980068102806D1FFE71A98B6
:100DD00080680002002818D5FFE71C9800681128D9
:100DE00006D1FFE71A988068C00100280DD5FFE7FB
:100DF0001C980068122840F09380FFE71A988068DA
:100E00004002002800F18C80FFE71D980068B0F1D7
:100E1000A04F06D1FFE740F20010C5F20000069097
:100E200003E04FF0A0400690FFE71D98006880683F
:100E300000F0030100200129019005D1FFE71D9872
:100E4000006800680190FFE70198C00700285DD1A5
:100E5000FFE7069890B1FFE70698806800F003016D
:100E600000200129009004D1FFE706980068009057
:100E7000FFE70098C007002848D1FFE71C980068EA
:100E8000102824D1FFE71D980068B0F1A04F1ED1B3
:100E9000FFE71A99886840F40000886040F2040077
:100EA000C2F2000000684DF68361C4F21B31A0FB62
:100EB0000110800C00EB800040000490FFE70498D4
:100EC00020B1FFE7049801380490F8E71DE01C9872
:100ED000006811280CD1FFE71D980068B0F1A04F01
:100EE00006D1FFE71A99886840F0807088600BE0AF
:100EF0001C980068122806D1FFE71A99886840F408
:100F000080008860FFE7FFE7FFE708E01D99086CB5
:100F100040F02000086401208DF86F00FFE7FFE734
:100F2000FFE708E01D99086C40F0200008640120EC
:100F30008DF86F00FFE7FFE71D99002081F83C0066
:100F4000FFE79DF86F008DF87B00FFE79DF87B00C1
:100F50001FB0704780B58CB009A907910B900B9812
:100F600040F2F021C2F20001884240F09F83FFE787
:100F700040F29150C2F20000007801283BD1FFE717
:100F800040F24850C2F2000090ED040A9FEDC21AF0
:100F900030EE010A80ED040A90ED040A90ED051A86
:100FA000B4EE410AF1EE10FA01DDFFE7FFE740F28F
:100FB0009820C2F2000090ED040A90ED051AB4EEFC
:100FC000410AF1EE10FA15DBFFE740F24850C2F299
:100FD000000090ED040A90ED051AB4EE410AF1EE1E
:100FE00010FA07DBFFE740F29151C2F20001002046
:100FF0000870FFE7FFE740F29050C2F2000000786F
:1010000001287BD1FFE740F20050C2F2000090EDD2
:10101000040A9FEDA11A30EE010A80ED040A40F2A5
:101020000821C2F2000191ED040A30EE010A81EDBF
:10103000040A40F2C051C2F2000191ED040A30EE00
:10104000010A81ED040A90ED040A90ED051AB4EE50
:10105000410AF1EE10FA01DDFFE7FFE740F2082058
:10106000C2F2000090ED040A90ED051AB4EE410AB8
:10107000F1EE10FA01DDFFE7FFE740F2C050C2F2E7
:10108000000090ED040A90ED051AB4EE410AF1EE6D
:1010900010FA01DDFFE7FFE740F20050C2F2000066
:1010A00090ED040A90ED051AB4EE410AF1EE10FA43
:1010B00023DBFFE740F20820C2F2000090ED040AB3
:1010C00090ED051AB4EE410AF1EE10FA15DBFFE7D8
:1010D00040F2C050C2F2000090ED040A90ED051AF3
:1010E000B4EE410AF1EE10FA07DBFFE740F291514E
:1010F000C2F2000100200870FFE7FFE700208DF832
:101100002300FFE79DF82300062800F38380FFE714
:101110000020ADF82A00FFE7BDF82A0009281BDCF3
:10112000FFE7BDF82A20C2EBC20140F26C10C2F208
:10113000000000EB41009DF8231030F8110040F250
:101140009C51C2F2000121F81200FFE7BDF82A000D
:101150000130ADF82A00DFE740F29C50C2F20000F7
:101160000A2105F021F90220ADF82A00002009909B
:10117000FFE7BDF82A00072812DCFFE7BDF82A10B8
:1011800040F29C50C2F2000030F811100998084457
:101190000990FFE7BDF82A000130ADF82A00E8E722
:1011A000079890ED000AB8EE400AB1EE081A80EEFA
:1011B000010ABDEEC00A10EE100A9DF8231040F29D
:1011C000F812C2F2000222F811009DF8231040F23A
:1011D0002C00C2F2000000EBC10032F8112000EE3A
:1011E000102AB8EEC02A90ED000A90ED011A20EE08
:1011F000020A30EE010A40F20010C2F2000000EBD9
:10120000810080ED000AFFE79DF8230001308DF892
:10121000230077E70020ADF82A00FFE7BDF82A0099
:10122000092815DCFFE7BDF82A2040F21C10C2F2A5
:10123000000030F8320040F29C51C2F2000121F867
:101240001200FFE7BDF82A000130ADF82A00E5E7FB
:1012500040F29C50C2F200000A2105F0A5F80220DD
:10126000ADF82A0000200990FFE7BDF82A00072802
:101270001ADCFFE7BDF82A1040F29C50C2F20000D1
:1012800030F81110099808440990FFE7BDF82A00CA
:101290000130ADF82A00E8E70000C842B84AA03A99
:1012A000B3E88EBCCDCC4CBE079890ED000AB8EEEA
:1012B000400AB2EE001A80EE010A1FED081A20EE75
:1012C000010A1FED091A30EE010A40F2E020C2F2D5
:1012D000000080ED000A40F20010C2F2000090ED24
:1012E000000A1FED101A30EE010A80ED000A40F2EC
:1012F0008401C2F2000191ED001A90ED000A90ED18
:10130000012A21EE021A30EE010AB6EE001A20EE92
:10131000010A40F2BC51C2F2000181ED000A90EDD9
:10132000000A40F28000C2F2000090ED001AB4EE14
:10133000410AF1EE10FA07DDFFE740F29251C2F2E6
:10134000000101200870FFE7FFF78AF940F2925090
:10135000C2F20000007802283FD1FFE740F20010FF
:10136000C2F20000049090ED020A40F29400C2F232
:101370000000D0ED000A40F2C050C2F2000005901B
:1013800004F09AFD0499059891ED030A90ED081A6E
:1013900040F27000C2F20000069090ED002A61EE6B
:1013A000020A40F20050C2F2000004F085FD049AE7
:1013B0000599069892ED060A91ED081A90ED003A0B
:1013C000B7EE002A32EE432A61EE020A40F208200C
:1013D000C2F2000004F070FDFFE740F29250C2F24A
:1013E00000000078012840F09E80FFE740F2E420F2
:1013F000C2F20000018801310180008840F2200122
:10140000C2F20001098888424BD1FFE740F2BC508C
:10141000C2F2000090ED000AB3EE0C1AB4EE410ADD
:10142000F1EE10FA3CDAFFE740F20010C2F20000E1
:10143000039090ED000A40F2BC50C2F20000D0EDE3
:10144000000A40F29820C2F2000004F035FD039833
:1014500040F2E422C2F200020021118090ED050A60
:101460009FED941AB4EE410AF1EE10FA17DDFFE792
:1014700005F044F8FFE740F60000C4F600000190D4
:101480004FF400510291002200F0B4FFC82000F098
:10149000F5FD01980299012200F0ACFFEBE7FFE7B0
:1014A000FFE740F2E020C2F2000090ED000A40F2B7
:1014B0009820C2F20000D0ED080A40F25020C2F29B
:1014C000000004F0F9FC40F20010C2F2000090EDC0
:1014D000000A9FED791AB4EE410AF1EE10FA21DA12
:1014E000FFE740F29820C2F2000090ED0F0A9FED56
:1014F000701AB4EE410AF1EE10FA13DAFFE740F287
:101500000010C2F2000090ED020A40F29400C2F214
:101510000000D0ED000A40F24850C2F2000004F092
:10152000CBFCFFE7FFE703F093FE40F24850C2F226
:10153000000090ED080AB5EE400AF1EE10FA09DA63
:10154000FFE740F24851C2F200010020C4F2C82077
:101550000862FFE740F25020C2F2000090ED080A56
:10156000B5EE400AF1EE10FA09DAFFE740F2502139
:10157000C2F200010020C4F2C8200862FFE740F276
:101580000820C2F2000090ED080AB5EE400AF1EE24
:1015900010FA09DAFFE740F20821C2F20001002048
:1015A000C4F2C8200862FFE740F20050C2F2000017
:1015B00090ED080AB5EE400AF1EE10FA09DAFFE7FD
:1015C00040F20051C2F200010020C4F2C8200862BB
:1015D000FFE740F29250C2F200000078022814D1D6
:1015E000FFE740F20050C2F2000090ED081A9FEDB4
:1015F000330A30EE410A40F21840C2F2000000689F
:10160000BCEEC00A80ED270AFFE740F29250C2F21A
:1016100000000078012814D1FFE740F24850C2F2E0
:10162000000090ED081A9FED250A30EE410A40F2C5
:101630001840C2F200000068BCEEC00A80ED270A24
:10164000FFE740F25020C2F2000090ED080A40F29D
:101650001840C2F200000168BCEEC00A81ED470AE2
:1016600040F20821C2F2000191ED081A9FED130A21
:1016700030EE410A0068BCEEC00A80ED870A40F2F5
:10168000F020C2F2000040F26C11C2F200014622CA
:1016900000F0B4FA40F24030C2F2000040F21C11F7
:1016A000C2F20001282200F0A9FAFFE70CB080BDC9
:1016B0000000C84266668E41000048420000614654
:1016C00081B0009001B0704781B0009001B07047C8
:1016D00080B59CB01A9000208DF8670003900290AE
:1016E0001A9820B9FFE701208DF86F008BE11A9856
:1016F000006938B1FFE71A9890F8200008B1FFE7B9
:10170000FFE7FFE71A98006CC006002877D4FFE7D0
:101710001A98006C002852D1FFE71A9900204864FB
:101720001A99C8641A9988641A9981F83C001A9821
:1017300000F06EF91A9800688068C00000283DD457
:10174000FFE71A98FEF7C8FE8DF867001A98006C3C
:10175000C006002831D4FFE79DF8670068BBFFE7AB
:101760001A98006C40F0020020F488501A9908641E
:101770001A980168886820F0405088601A980168BB
:10178000886840F08050886040F20400C2F2000097
:1017900000684DF68361C4F21B31A0FB0110800C80
:1017A00000EB800040000290FFE7029820B1FFE7C5
:1017B000029801380290F8E7FFE7FFE7FFE71A9881
:1017C00000688068C000002807D5FFE71A98006805
:1017D00080688000002811D5FFE71A98006C40F05F
:1017E000100020F002001A9908641A99486C40F021
:1017F0000100486401208DF86700FFE7FFE71A98B1
:10180000006CC006002800F1ED80FFE79DF867003E
:10181000002840F0E780FFE71A980068806800F031
:1018200004010020B0EB910F40F0DC80FFE71A9834
:10183000006C40F0020020F480701A99086440F2B5
:101840000030C5F2000018901A980068B0F1A04F5F
:1018500006D1FFE740F20010C5F20000049003E05B
:101860004FF0A0400490FFE71A980068806800F0ED
:10187000030100200129019005D1FFE71A980068B3
:1018800000680190FFE70198C007F0B9FFE70498EE
:1018900088B1FFE70498806800F003010020012967
:1018A000009004D1FFE7049800680090FFE70098DB
:1018B000C00750B9FFE71898806820F440301A99A3
:1018C0004968084318998860FFE71A9A507E4003D8
:1018D000536B00F58051012B18BF08469168D26800
:1018E000104301430398084303901A9890F820008E
:1018F000012820D1FFE71A98407E68B9FFE71A98BF
:10190000416A0020CFF6FE7000EB41400399084386
:1019100040F4803003900DE01A98006C40F02000F5
:1019200020F002001A9908641A99486C40F00100EE
:101930004864FFE7FFE71A98806A012808D0FFE7AC
:101940001A99886AC96A0143039808430390FFE71C
:101950001A980068806810F00C0F12D1FFE71A98EF
:101960000168C86844F202029043C8601A99087E70
:1019700091F83010800340EA410103980843039036
:10198000FFE71A980068C0684CF20701CFF6F071C3
:101990000840039908431A990968C8601A980069B1
:1019A00001280CD1FFE71A980068006B20F00F00A7
:1019B0001A9A1168D269013A1043086306E01A982E
:1019C0000168086B20F00F000863FFE71A990020F8
:1019D00048641A98006C40F0010020F002001A9947
:1019E00008640BE01A98006C40F0100020F0020030
:1019F0001A99086401208DF86700FFE79DF86700D9
:101A00008DF86F00FFE79DF86F001CB080BD0000EF
:101A100080B592B01190002010900F900E900D9014
:101A20000C9011980068B0F1A04F7DD1FFE740F213
:101A3000F800C2F20000016801310160006801286D
:101A400010D1FFE7FFE741F21400C4F20200016881
:101A500041F080510160006800F080500B900B98BD
:101A6000FFE7FFE7FFE741F21400C4F2020001685C
:101A700041F400310160006800F400300A900A98D7
:101A8000FFE7FFE741F21400C4F20200016841F4ED
:101A900080210160006800F4802009900998FFE728
:101AA0000F200C90032003900D90002005900E90C5
:101AB0004FF090400CA9049100F002FB039A0499A6
:101AC000059842F203030C930D920E9040F20040F1
:101AD000C4F6000000F0F4FA059940F29030C2F22A
:101AE000000006900822C4F2020202604160816098
:101AF0008022C2604FF4807202614FF480624261C2
:101B00008161C16100F010FA18B1FFE7FEF7A8FE8D
:101B1000FFE7FFE7119840F29031C2F200018163C4
:101B200011984862FFE767E01198006840F20011E1
:101B3000C5F2000188425ED1FFE740F2F800C2F230
:101B400000000168013101600068012810D1FFE741
:101B5000FFE741F21400C4F20200016841F0805135
:101B60000160006800F0805008900898FFE7FFE7E8
:101B7000FFE741F21400C4F20200016841F40031B1
:101B80000160006800F4003007900798FFE7F0203C
:101B90000C9003200D90002001900E904FF090408B
:101BA0000CA900F08DFA019940F2D430C2F2000085
:101BB00002901C22C4F20202026041608160802215
:101BC000C2604FF4807202614FF4806242618161B1
:101BD000C16100F0A9F918B1FFE7FEF741FEFFE788
:101BE000FFE7119840F2D431C2F2000181631198ED
:101BF0004862FFE7FFE7FFE712B080BD80B586B01F
:101C000004900391029200208DF80700049909685E
:101C1000896801F00401B0EB910F40F0DA80FFE732
:101C2000FFE7049890F83C00012804D1FFE7022068
:101C30008DF81700D6E00499012081F83C00FFE7F9
:101C4000FFE740F20830C5F200000068C006002837
:101C500040F0B480FFE70498FEF7A2FC8DF807007F
:101C60009DF80700002840F0A180FFE70498006C71
:101C700040F4807040F6016188430499086440F2A2
:101C80000830C5F200000068C00630B1FFE70498D4
:101C90000068B0F1A04F16D1FFE70499086C20F45A
:101CA0008010086404980068C0688001002809D585
:101CB000FFE70498006C40F4805020F40050049931
:101CC0000864FFE728E00499086C40F48010086479
:101CD00004980068B0F1A04F09D0FFE704980068AD
:101CE00040F20011C5F20001884208D1FFE70C2044
:101CF000C5F2000000688001002803D40BE0012039
:101D000048B9FFE70498006C40F4805020F400507C
:101D100004990864FFE7FFE70498006CC0040028FA
:101D200006D5FFE70499486C20F00600486403E0FC
:101D3000049900204864FFE7FFE70499002081F838
:101D40003C00FFE70498816B40F22140C0F60000A0
:101D500088620498816B40F2C140C0F60000C862FE
:101D60000498816B40F29540C0F600000863049827
:101D700001681C20086004980168486840F0100061
:101D8000486004980168C86840F00100C860049881
:101D90000168806B4031039A029B00F009F90498B6
:101DA0000168886840F00400886006E0FFE7049955
:101DB000002081F83C00FFE7FFE709E001208DF8F3
:101DC0000700FFE70499002081F83C00FFE7FFE7E8
:101DD00003E002208DF80700FFE79DF807008DF86B
:101DE0001700FFE79DF8170006B080BD80B584B0EE
:101DF00003900398C06B0068029003980068006825
:101E0000019002980399096CC8404007002823D527
:101E1000FFE79DF80400400700281DD5FFE7039861
:101E2000006800688006002807D4FFE7039801686F
:101E3000086820F004000860FFE70398C16B026C9B
:101E40000420904048600398C06A20B1FFE70398DF
:101E5000C16A8847FFE765E002980399096CC840AA
:101E6000800700282DD5FFE79DF804008007002893
:101E700027D5FFE7039800680068800600280BD488
:101E8000FFE703980168086820F00A0008600399DA
:101E9000012081F82100FFE70398C16B026C02204A
:101EA00090404860FFE70399002081F82000FFE799
:101EB0000398806A20B1FFE70398816A8847FFE7AB
:101EC0002FE002980399096CC8400007002827D525
:101ED000FFE79DF804000007002821D5FFE70398DD
:101EE0000168086820F00E0008600398C26B016C5E
:101EF000012000FA01F1516003998863039981F888
:101F00002100FFE70399002081F82000FFE70398F4
:101F1000006B20B1FFE70398016B8847FFE7FFE7FD
:101F2000FFE7FFE704B080BD80B584B002900020D9
:101F30000190029820B9FFE701208DF80F0033E0EF
:101F40000299022081F8210002980068006801903F
:101F5000019843F6F0718843019002994868D1F8DE
:101F600008C0CB680A6940EA0C00184310434A696C
:101F700010438A691043C9690143019808430190DD
:101F800001980299096808600298FEF723FC0299FB
:101F900000208863029A012182F82110029981F8B9
:101FA00020008DF80F00FFE79DF80F0004B080BD02
:101FB00080B586B0049003910292019300208DF8C1
:101FC0000300FFE7049890F82000012804D1FFE700
:101FD00002208DF817004CE00499012081F82000C0
:101FE000FFE7FFE7049890F82100012832D1FFE7CE
:101FF0000499022081F82100049900208863049844
:102000000168086820F00100086004980399029AAA
:10201000019BFEF7FBFB0498C06A38B1FFE7049808
:102020000168086840F00E0008600CE00498016840
:10203000086840F00A00086004980168086820F009
:1020400004000860FFE704980168086840F0010098
:10205000086009E0FFE70499002081F82000FFE70D
:1020600002208DF80300FFE79DF803008DF81700AC
:10207000FFE79DF8170006B080BD000080B584B072
:10208000039000F0CDF9029003980190019801307F
:1020900048B1FFE740F28800C2F2000001780198E1
:1020A00008440190FFE7FFE700F0BAF90299401AEF
:1020B0000199884201D2FFE7F6E704B080BD000035
:1020C00089B00890079100200690FFE70798006804
:1020D0000699C840002800F08A81FFE70798006849
:1020E000069A01219140084005900598002800F0CB
:1020F0007A81FFE70798406801280FD0FFE707982B
:10210000406802280AD0FFE707984068112805D0E8
:10211000FFE70798406812282FD1FFE708988068EA
:10212000049006984100032000FA01F104988843C6
:1021300004900798C0680699490000FA01F10498D4
:1021400008430490049808998860089840680490AF
:102150000699012000FA01F1049888430490079839
:102160004068C0F30010069900FA01F10498084392
:102170000490049808994860FFE70898C0680490A4
:1021800006984100032000FA01F104988843049066
:10219000079880680699490000FA01F104980843FD
:1021A000049004980899C86007984068022805D0F0
:1021B000FFE707984068122826D1FFE7089806999C
:1021C0006FF0030202EA51010844006A0490069885
:1021D00000F0070081000F2000FA01F10498884305
:1021E000049007980069069901F00701890000FA38
:1021F00001F104980843049004980899069B02EAA8
:10220000530211440862FFE708980068049006989A
:102210004100032000FA01F10498884304900798D4
:10222000406800F003000699490000FA01F10498A3
:10223000084304900498089908600798C079C0067C
:10224000002840F1CF80FFE7FFE741F21800C4F219
:102250000200016841F001010160006800F0010026
:1022600003900398FFE7069820F003000821C4F2CA
:10227000010140580490069800F0030081000F20EF
:1022800000FA01F10498884304900898B0F1904F47
:1022900003D1FFE70020029026E0089840F20041B9
:1022A000C4F60001884203D1FFE70120019018E045
:1022B000089840F60001C4F60001884203D1FFE708
:1022C000022000900AE0089940F60042C4F600029D
:1022D0000520914208BF03200090FFE7009801907D
:1022E000FFE701980290FFE70298069901F00301C9
:1022F000890000FA01F104980843049004980699B3
:1023000021F003010822C4F20102885040F200408B
:10231000C4F2010000680490059904988843049071
:1023200007988079C00728B1FFE70599049808430A
:102330000490FFE7049840F20041C4F201010860F4
:1023400040F20440C4F2010000680490059904982A
:1023500088430490079880798007002805D5FFE717
:102360000599049808430490FFE7049840F204415B
:10237000C4F20101086040F20840C4F201000068A4
:102380000490059904988843049007988079C006C2
:10239000002805D5FFE70599049808430490FFE756
:1023A000049840F20841C4F20101086040F20C4078
:1023B000C4F20100006804900599049888430490D1
:1023C000079880798006002805D5FFE705990498CD
:1023D00008430490FFE7049840F20C41C4F2010165
:1023E0000860FFE7FFE70698013006906EE609B047
:1023F0007047000082B00190ADF802108DF8012006
:102400009DF8010028B1FFE7BDF80200019988613D
:1024100004E0BDF8020001998862FFE702B070474E
:1024200040F2B850C2F200000068704786B00490D5
:1024300003910292049890F8C100022804D1FFE7AA
:1024400002208DF8170099E0FFE7049890F8C0008B
:10245000012804D1FFE702208DF817008EE00499CF
:10246000012081F8C000FFE7FFE70499022081F80E
:10247000C10004980068D0F88003019003980138E7
:1024800001460091072851D80099DFE801F00416B1
:102490004F294F4F4F3C019820F4E02001900298C3
:1024A000006800F4E0210198084301900298406818
:1024B00004990968C1F8BC0343E0019820F4601056
:1024C00001900298006800F4E021019840EAC10000
:1024D00001900298406804990968C1F8C00330E08F
:1024E000019820F0E07001900298006800F4E0216B
:1024F000019840EA811001900298406804990968A7
:10250000C1F8C4031DE0019820F0606001900298BA
:10251000006800F4E021019840EA4120019002980F
:10252000406804990968C1F8C8030AE004990720C3
:1025300081F8C100FFE70499002081F8C000FFE79F
:10254000FFE7049890F8C100072804D1FFE70120B5
:102550008DF8170012E0019804990968C1F880030A
:102560000499012081F8C100FFE70499002081F857
:10257000C000FFE700208DF81700FFE79DF8170067
:1025800006B0704781B0009001B0704782B00190F2
:10259000009102B07047000082B00190009102B03B
:1025A0007047000082B00190009102B070470000B7
:1025B00082B00190009102B07047000082B001909B
:1025C000009102B07047000082B00190009102B00B
:1025D0007047000082B00190009102B07047000087
:1025E00081B0009001B0704783B001900091FFE787
:1025F000019890F8C000012804D1FFE702208DF86F
:102600000B0043E00199012081F8C000FFE7FFE7DC
:102610000199022081F8C1000098013088B9FFE7D4
:1026200001980168D1F8CC0320F00200C1F8CC0376
:1026300001980168D1F8CC0340F00100C1F8CC0347
:102640001CE001980168D1F8CC0340F00200C1F809
:10265000CC0301980068D0F8CC0320F00C0000995E
:10266000084301990968C1F8CC0301980168D1F8C1
:10267000CC0340F00100C1F8CC03FFE70199012031
:1026800081F8C10000208DF80B00FFE79DF80B00DA
:1026900003B0704785B0039002910192039890F8BF
:1026A000C100022804D1FFE702208DF8130077E073
:1026B000FFE7039890F8C000012804D1FFE702204B
:1026C0008DF813006CE00399012081F8C000FFE74A
:1026D000FFE70399022081F8C1000198006800F427
:1026E000E0500090019841686FF35F210098084323
:1026F00000900198806800F40071009808430090F1
:102700000198006900F48041009808430090019806
:10271000C06800F4004100980843009001984169A6
:102720000020C0F2FF1000EA014100980843009029
:102730000198806900F000710098084300900198AA
:10274000006A00F080410098084300900198C06939
:1027500000F0004100980843009003980068029937
:1027600000EBC110D0F8B80042F20001C3F60041FE
:1027700008400099084303990968029A01EBC211C5
:10278000C1F8B8000399012081F8C100FFE703995F
:10279000002081F8C000FFE700208DF81300FFE75C
:1027A0009DF8130005B0704782B00190009102B00F
:1027B0007047000081B0009001B0704781B0009078
:1027C00001B0704781B0009001B0704781B00090B7
:1027D00001B0704781B0009001B0704780B582B001
:1027E000019000910098FF2804D1FFE7019801F0C3
:1027F0004DFE0DE00098052804D1FFE7019801F097
:102800008DFF04E00198009902F060F9FFE7FFE70F
:1028100002B080BD80B586B00490049820B9FFE76F
:1028200001208DF81700BFE00499022081F8C10053
:1028300004990020C1F8C4000499C1F8C8000499A3
:10284000C1F8CC000499C1F8D0000499C1F8D400B3
:102850000499C1F8D8000498007AC007C0B3FFE714
:102860000498006847F20041C4F20101884210D187
:10287000FFE7FFE741F21800C4F20200016841F0EF
:1028800000510160006800F0005001900198FFE7DE
:10289000FFE70498006800680290029820F4404026
:1028A00002900498006900F44041029808430290A5
:1028B000029820F4405002900498406900F440517E
:1028C0000298084302900298049909680860FFE79B
:1028D000049800F06DF80498007A8007002814D559
:1028E000FFE70498006800680290029820F44070A6
:1028F00002900498C06800F4407102980843029066
:102900000298049909680860FFE70499012081F89A
:10291000C100FFE70499002081F8C000FFE7002014
:102920008DF80F00FFE79DF80F00052838D8FFE766
:1029300004989DF80F10C1EBC10100EB810100204C
:10294000886104999DF80F20C2EBC20201EB82015D
:10295000C86104999DF80F20C2EBC20201EB82010D
:10296000086204999DF80F20C2EBC20201EB8201BC
:10297000486204999DF80F20C2EBC20201EB82016C
:10298000886204999DF80F20C2EBC20201EB82011C
:102990000863FFE79DF80F0001308DF80F00C2E7D4
:1029A00000208DF81700FFE79DF8170006B080BDE6
:1029B00080B584B003900398006847F20041C4F2E8
:1029C0000101884219D1FFE7FFE741F21800C4F284
:1029D0000200016841F000510160006800F0005001
:1029E00002900298FFE7432001900022114600F078
:1029F00071FC019800F064FCFFE704B080BD0000AA
:102A000080B58EB00D9000200C900B900A9009902C
:102A100008900D98006847F20041C4F20101884215
:102A200049D1FFE7FFE741F21400C4F20200016858
:102A300041F480210160006800F48020079007982D
:102A4000FFE7FFE741F21400C4F20200016841F41D
:102A500000310160006800F4003006900698FFE73E
:102A60004FF440400890022001900990002002900D
:102A70000A90032003900B900D2004900C9040F2DC
:102A80000040C4F6000008A90591FFF719FBDDF826
:102A900004C0029B039A049805994FF4706ECDF818
:102AA00020E0CDF824C00A930B920C904FF0904098
:102AB000FFF706FBFFE70EB080BD000082B001907B
:102AC000009102B07047000082B00190009102B006
:102AD0007047000082B00190009102B07047000082
:102AE00082B00190009102B07047000080B584B0C0
:102AF00002900191FFF794FC0090FFE702980068B4
:102B0000D0F8880300F480310020B0EB114F19D1C8
:102B1000FFE701980130A0B1FFE7FFF781FC0099C2
:102B2000401A0199884203D8FFE7019840B9FFE7AE
:102B30000299072081F8C10003208DF80F000FE0F3
:102B4000FFE7DBE70299012081F8C100FFE7029966
:102B5000002081F8C000FFE700208DF80F00FFE79C
:102B60009DF80F0004B080BD82B0019000910098E4
:102B7000052801D1FFE7FFE702B0704782B001905E
:102B8000009102B07047000081B0009001B0704722
:102B900081B0009001B0704780B584B0029001917F
:102BA0000092029890F8C100022804D1FFE70220A9
:102BB0008DF80F001AE00299022081F8C1000198F7
:102BC000052805D1FFE70298009901F01DFD05E0F9
:102BD00002980199009A02F0C9F9FFE702990120D1
:102BE00081F8C10000208DF80F00FFE79DF80F006D
:102BF00004B080BD87B005900491039202930598BC
:102C000090F8C100022804D1FFE702208DF81B00D4
:102C10004CE1FFE7059890F8C000012804D1FFE7D8
:102C200002208DF81B0041E10599012081F8C000C8
:102C3000FFE7FFE70599022081F8C1000498052805
:102C40003BD1FFE7039801380146019107281ED8C0
:102C50000199DFE801F0040A1C101C1C1C160298E4
:102C6000006805990968C8611CE002980068059928
:102C70000968486216E00298006805990968886248
:102C800010E00298006805990968C8620AE0059991
:102C9000072081F8C100FFE70599002081F8C000F6
:102CA000FFE7FFE7059890F8C100072804D1FFE788
:102CB00001208DF81B00F9E0EAE003980138014695
:102CC0000091072800F2CE800099DFE801F0040EA1
:102CD000CB67CBCBCB710298006805990968049A41
:102CE00001EBC211C1F89C00C7E002980068059989
:102CF0000968049A01EBC211C1F8A4000298406867
:102D0000D0B3FFE705980068049900EBC111D1F832
:102D1000800020F44050C1F8800002984268059875
:102D20000068049900EBC111D1F880001043C1F88C
:102D3000800002984068B0F5005F0AD1FFE7029872
:102D4000806805990968049A01EBC211C1F89C00DA
:102D500011E002984068B0F5405F0AD1FFE70298A1
:102D6000806805990968049A01EBC211C1F8A800AE
:102D700000E0FFE7FFE710E005980068049900EB2A
:102D8000C110D0F8800020F4405005990968049AD9
:102D900001EBC211C1F88000FFE76EE00298006805
:102DA00005990968049A01EBC211C1F8A80064E012
:102DB0000298006805990968049A01EBC211C1F8EC
:102DC000AC0002984068D8B3FFE705980068049902
:102DD00000EBC111D1F8800020F44040C1F8800020
:102DE0000298426805980068049900EBC111D1F877
:102DF000800040EA8200C1F8800002984068B0F587
:102E0000005F0AD1FFE70298806805990968049A73
:102E100001EBC211C1F89C0011E002984068B0F5C6
:102E2000405F0AD1FFE70298806805990968049A13
:102E300001EBC211C1F8A80000E0FFE7FFE710E0D6
:102E400005980068049900EBC110D0F8800020F4C8
:102E5000404005990968049A01EBC211C1F880004D
:102E6000FFE70AE00599072081F8C100FFE705990F
:102E7000002081F8C000FFE7FFE7059890F8C10047
:102E8000072804D1FFE701208DF81B000EE0FFE7C3
:102E90000599012081F8C100FFE70599002081F81C
:102EA000C000FFE700208DF81B00FFE79DF81B0026
:102EB00007B0704783B001900091FFE7019890F848
:102EC000C000012804D1FFE702208DF80B001DE0AF
:102ED0000199012081F8C000FFE7FFE70199022076
:102EE00081F8C100009A01980168086810430860E1
:102EF0000199012081F8C100FFE70199002081F8C4
:102F0000C000FFE700208DF80B00FFE79DF80B00E5
:102F100003B0704784B002900191FFE7029890F8E7
:102F2000C000012804D1FFE702208DF80F005FE008
:102F30000299012081F8C000FFE7FFE70299022013
:102F400081F8C100029801684268D1F890031043EB
:102F5000C1F890039DF80600C00740B1FFE7029852
:102F60000168D0F8AC20C8681043C860FFE70020B3
:102F70008DF80300FFE79DF80300042824D8FFE73D
:102F800001989DF8032040F20801C2F2000151F8B7
:102F90002210084211D0FFE702989DF80310C1EB00
:102FA000C10200EB8202126A006800EBC111D1F885
:102FB0008C001043C1F88C00FFE7FFE79DF8030089
:102FC00001308DF80300D6E7019A0298016808687D
:102FD000104308600299012081F8C100FFE70299BF
:102FE000002081F8C000FFE700208DF80F00FFE708
:102FF0009DF80F0004B0704780B586B0049003912F
:1030000002920193049890F8C100022804D1FFE7CE
:1030100002208DF8170028E0FFE7049890F8C00020
:10302000012804D1FFE702208DF817001DE0049964
:10303000012081F8C000FFE7FFE70499022081F832
:10304000C10004980399029A019B01F081FC049944
:10305000012081F8C100FFE70499002081F8C00039
:10306000FFE700208DF81700FFE79DF8170006B076
:1030700080BD000083B001900091FFE7019890F8B7
:10308000C000012804D1FFE702208DF80B001FE0EB
:103090000199012081F8C000FFE7FFE701990220B4
:1030A00081F8C100009A01980168D1F89403104397
:1030B000C1F894030199012081F8C100FFE701994B
:1030C000002081F8C000FFE700208DF80B00FFE72B
:1030D0009DF80B0003B0704780B584B00290019159
:1030E0000092029890F8C100022804D1FFE7022064
:1030F0008DF80F0062E0FFE7029890F8C000012809
:1031000004D1FFE702208DF80F0057E0029901205B
:1031100081F8C000FFE7FFE70299022081F8C100B3
:103120000198052805D1FFE70298009901F096FA69
:1031300005E002980199009A01F052FFFFE700981C
:1031400000680299019AC2EBC20201EB8201086297
:10315000009840680299019AC2EBC20201EB820119
:103160004862009880680299019AC2EBC20201EBA2
:10317000820188620098C0680299019AC2EBC2027B
:1031800001EB8201C862009800690299019AC2EBC2
:10319000C20201EB820108630298019901F030F943
:1031A0000299012081F8C100FFE70299002081F80F
:1031B000C000FFE700208DF80F00FFE79DF80F002B
:1031C00004B080BD40F28800C2F20000027840F2F4
:1031D000B851C2F20001086810440860704700004E
:1031E00080B582B042F20001C4F20201086840F0EA
:1031F00010000860032000F087F80020019000F024
:1032000005F800F03BF8019802B080BD80B582B0AF
:10321000009040F20400C2F20000006840F2880111
:10322000C2F200010A784FF47A71B1FBF2F1B0FBFF
:10323000F1F001F0D3F820B1FFE701208DF807008D
:1032400018E000980F280DD8FFE700994FF0FF30E5
:10325000002200F03FF8009840F28C01C2F2000119
:10326000086003E001208DF8070003E000208DF8DE
:103270000700FFE79DF8070002B080BD82B0FFE7BE
:1032800041F21800C4F20200016841F0010101603E
:10329000006800F0010001900198FFE7FFE741F2AC
:1032A0001C00C4F20200016841F080510160006816
:1032B00000F0805000900098FFE702B070470000D7
:1032C00080B582B08DF807009DF9070003F00CF877
:1032D00002B080BD80B586B08DF8170004910392CE
:1032E0000020029003F018F802909DF91700019059
:1032F00002980499039A02F0A9FD0146019803F08F
:1033000013F806B080BD000080B582B0019001982E
:1033100003F02CF802B080BD80B58AB00890002080
:10332000079006908DF8170008988078C00700284D
:1033300000F0D280FFE741F21C00C4F202000068F6
:10334000C000002813D4FFE7FFE741F21C00C4F2DD
:103350000200016841F080510160006800F0805077
:1033600004900498FFE701208DF81700FFE747F26B
:103370000000C4F200000068C005002822D4FFE766
:1033800047F20001C4F20001086840F48070086050
:10339000FFF746F80790FFE747F20000C4F200008D
:1033A0000068C00500280CD4FFE7FFF739F807993B
:1033B000401A652804D3FFE703208DF82700E8E0D2
:1033C000EAE7FFE741F22000C4F20200006800F4DF
:1033D000407006900698002864D0FFE70698089988
:1033E000496801F4407188425CD0FFE741F2200156
:1033F000C4F20201086820F44070069040F2404296
:10340000C4F242220120106000201060069808607B
:103410009DF81800C007002843D0FFE7FFF700F829
:103420000790FFE7012038B9FFE741F20000C4F23E
:1034300002000068039020E0002038B9FFE741F265
:103440002000C4F202000068029013E0012038B9A5
:10345000FFE741F20400C4F202000068019006E0B8
:1034600041F22400C4F2020000680190FFE70198D5
:103470000290FFE702980390FFE703988007002877
:103480000ED4FFE7FEF7CCFF0799401A41F28931CD
:10349000884204D3FFE703208DF8270079E0C1E7D5
:1034A000FFE7FFE741F22001C4F20201086820F4BF
:1034B0004070089A5268104308609DF81700012870
:1034C00009D1FFE741F21C01C4F20201086820F0B3
:1034D00080500860FFE7FFE708980078C00760B1F8
:1034E000FFE741F23001C4F20201086820F0030056
:1034F000089A926810430860FFE7089800788006F1
:1035000000280CD5FFE741F23001C4F2020108683F
:1035100020F01000089AD26810430860FFE708986E
:103520000078000600280CD5FFE741F22C01C4F218
:103530000201086820F4F870089A126910430860C4
:10354000FFE708984078C00600280CD5FFE741F255
:103550003001C4F20201086820F48070089A5269B0
:1035600010430860FFE708984078400600280CD513
:10357000FFE741F23001C4F20201086820F48050F4
:10358000089A926910430860FFE700208DF8270031
:10359000FFE79DF827000AB080BD000080B58EB01F
:1035A0000C900B9100200A900C9820B9FFE70120A5
:1035B0008DF8370073E10B9842F20001C4F202016A
:1035C000096801F00701884216D9FFE742F20000BE
:1035D000C4F20200016821F007010B9A1143016057
:1035E000006800F007000B99884204D0FFE7012033
:1035F0008DF8370053E1FFE70C980078800700282A
:103600000CD5FFE741F20401C4F20201086820F082
:10361000F0000C9A926810430860FFE70C9800785D
:10362000C007002800F0D680FFE70C98406801280A
:1036300035D1FFE7002038B9FFE741F20000C4F2BE
:1036400002000068099020E0012038B9FFE741F24C
:103650002000C4F202000068089013E0012038B98D
:10366000FFE741F20400C4F202000068079006E0A0
:1036700041F22400C4F2020000680790FFE70798B7
:103680000890FFE708980990FFE709988003002851
:1036900004D4FFE701208DF8370000E16FE00C98BB
:1036A0004068022835D1FFE7002038B9FFE741F232
:1036B0000000C4F202000068069020E0012038B942
:1036C000FFE741F22000C4F202000068059013E019
:1036D000012038B9FFE741F20400C4F2020000689B
:1036E000049006E041F22400C4F202000068049055
:1036F000FFE704980590FFE705980690FFE7069816
:103700008001002804D4FFE701208DF83700C6E0CF
:1037100034E0002038B9FFE741F20000C4F20200B3
:103720000068039020E0012038B9FFE741F2200053
:10373000C4F202000068029013E0012038B9FFE7EC
:1037400041F20400C4F202000068019006E041F278
:103750002400C4F2020000680190FFE70198029083
:10376000FFE702980390FFE703988007002804D43E
:10377000FFE701208DF8370091E0FFE7FFE741F216
:103780000401C4F20201086820F003000C9A526898
:1037900010430860FEF744FE0A90FFE741F2040080
:1037A000C4F20200006800F00C000C994968B0EB0C
:1037B000810F0ED0FFE7FEF733FE0A99401A41F25F
:1037C0008931884204D3FFE703208DF8370066E093
:1037D000E4E7FFE70B9842F20001C4F20201096836
:1037E00001F00701884216D2FFE742F20000C4F25E
:1037F0000200016821F007010B9A11430160006883
:1038000000F007000B99884204D0FFE701208DF8F3
:10381000370044E0FFE70C980078400700280CD5FB
:10382000FFE741F20401C4F20201086820F4E060FD
:103830000C9AD26810430860FFE70C9800780007E4
:1038400000280DD5FFE741F20401C4F20201086827
:1038500020F460500C9A126940EAC2000860FFE749
:1038600000F022F841F20401C4F202010968C9B271
:103870000A0947F20231C0F60001895CC84040F2F3
:103880000401C2F20001086040F28C00C2F20000A4
:103890000068FFF7BBFC00208DF83700FFE79DF8BC
:1038A00037000EB080BD000080B586B000200590C6
:1038B000049003900290019041F20400C4F20200CF
:1038C00000680590059800F00C0001460091002862
:1038D00041D0FFE70098042804D0FFE700980828AB
:1038E00006D039E041F20020C0F27A00019039E0C0
:1038F0000598C0F3834147F21230C0F60000405CE7
:10390000029041F22C00C4F20200006800F00F01A6
:1039100047F22230C0F60000405C04909DF816008B
:10392000C00768B1FFE7049A41F20020C0F27A00B4
:1039300000231946FCF798FC02994843039007E0DE
:10394000029840F60011C0F23D0148430390FFE7A2
:103950000398019006E0FFE741F20020C0F27A00F0
:103960000190FFE7019806B080BD000080B5AEB0C1
:103970002C902C9828B9FFE701208DF8B70000F0B3
:1039800028BD2C980078C007002800F03181FFE79F
:1039900041F20400C4F20200006800F00C000428A8
:1039A00013D0FFE741F20400C4F20200006800F007
:1039B0000C00082843D1FFE741F20400C4F20200E2
:1039C0000068C00300283AD5FFE7002038B9FFE7B8
:1039D00041F20000C4F202000068279020E00120BC
:1039E00038B9FFE741F22000C4F2020000682690D7
:1039F00013E0012038B9FFE741F20400C4F20200ED
:103A00000068259006E041F22400C4F2020000683C
:103A10002590FFE725982690FFE726982790FFE757
:103A200027988003002809D5FFE72C98406828B91B
:103A3000FFE701208DF8B70000F0CBBCD7E0FFE72F
:103A40002C984068B0F5803F09D1FFE741F20001B2
:103A5000C4F20201086840F48030086032E02C981B
:103A6000406868B9FFE741F20001C4F2020108684A
:103A700020F480300860086820F48020086020E08E
:103A80002C984068B0F5A02F0DD1FFE741F200015E
:103A9000C4F20201086840F480200860086840F41D
:103AA000803008600CE041F20001C4F202010868B5
:103AB00020F480300860086820F480200860FFE768
:103AC000FFE7FFE7FFE741F22C01C4F202010868BB
:103AD00020F00F002C9A9268104308602C984068E0
:103AE000002842D0FFE7FEF79BFC2B90FFE7002069
:103AF00038B9FFE741F20000C4F2020000682490E8
:103B000020E0012038B9FFE741F22000C4F20200B2
:103B10000068239013E0012038B9FFE741F2040068
:103B2000C4F202000068229006E041F22400C4F2D0
:103B3000020000682290FFE722982390FFE7239875
:103B40002490FFE72498800300280DD4FFE7FEF7B8
:103B500067FC2B99401A652805D3FFE703208DF8F1
:103B6000B70000F036BCC2E740E0FEF759FC2B90EE
:103B7000FFE7002038B9FFE741F20000C4F202007D
:103B80000068219020E0012038B9FFE741F22000D1
:103B9000C4F202000068209013E0012038B9FFE76A
:103BA00041F20400C4F2020000681F9006E041F2F6
:103BB0002400C4F2020000681F90FFE71F982090C5
:103BC000FFE720982190FFE72198800300280CD57B
:103BD000FFE7FEF725FC2B99401A652804D3FFE781
:103BE00003208DF8B700F4E3C3E7FFE7FFE7FFE743
:103BF0002C9800788007002840F10381FFE741F20C
:103C00000400C4F20200006810F00C0F13D0FFE7AC
:103C100041F20400C4F20200006800F00C00082821
:103C200050D1FFE741F20400C4F202000068C00373
:103C3000002847D4FFE7002038B9FFE741F2000031
:103C4000C4F2020000681E9020E0012038B9FFE7AE
:103C500041F22000C4F2020000681D9013E0012030
:103C600038B9FFE741F20400C4F2020000681C907A
:103C700006E041F22400C4F2020000681C90FFE755
:103C80001C981D90FFE71D981E90FFE71E98800767
:103C9000002809D5FFE72C980069012804D0FFE728
:103CA00001208DF8B70094E341F20001C4F2020153
:103CB000086820F0F8002C9A526940EAC2000860B7
:103CC000FFE79DE02C980069002852D0FFE7002113
:103CD000C4F2422101200860FEF7A2FB2B90FFE70F
:103CE000002038B9FFE741F20000C4F2020000688A
:103CF0001B9020E0012038B9FFE741F22000C4F218
:103D0000020000681A9013E0012038B9FFE741F281
:103D10000400C4F202000068199006E041F2240099
:103D2000C4F2020000681990FFE719981A90FFE7A3
:103D30001A981B90FFE71B98800700280CD4FFE718
:103D4000FEF76EFB2B99401A032804D3FFE70320EC
:103D50008DF8B7003DE3C3E741F20001C4F2020170
:103D6000086820F0F8002C9A526940EAC200086006
:103D700045E00021C4F2422100200860FEF750FB1C
:103D80002B90FFE7002038B9FFE741F20000C4F2B2
:103D900002000068189020E0012038B9FFE741F2E6
:103DA0002000C4F202000068179013E0012038B927
:103DB000FFE741F20400C4F202000068169006E03A
:103DC00041F22400C4F2020000681690FFE7169842
:103DD0001790FFE717981890FFE7189880070028BA
:103DE0000CD5FFE7FEF71CFB2B99401A032804D3E0
:103DF000FFE703208DF8B700EBE2C3E7FFE7FFE73B
:103E0000FFE72C9800780007002840F19580FFE735
:103E10002C988069002847D0FFE740F28041C4F227
:103E2000422101200860FEF7FBFA2B90FFE70120FA
:103E300038B9FFE741F20000C4F2020000681590B3
:103E400020E0012038B9FFE741F22000C4F202006F
:103E50000068149013E0012038B9FFE741F2040034
:103E6000C4F202000068139006E041F22400C4F29C
:103E7000020000681390FFE713981490FFE714986E
:103E80001590FFE71598800700280CD4FFE7FEF790
:103E9000C7FA2B99401A032804D3FFE703208DF8B3
:103EA000B70096E2C3E746E040F28041C4F2422107
:103EB00000200860FEF7B4FA2B90FFE7012038B924
:103EC000FFE741F20000C4F202000068129020E017
:103ED000012038B9FFE741F22000C4F20200006877
:103EE000119013E0012038B9FFE741F20400C4F259
:103EF00002000068109006E041F22400C4F20200C3
:103F000000681090FFE710981190FFE71198129049
:103F1000FFE71298800700280CD5FFE7FEF780FA2C
:103F20002B99401A032804D3FFE703208DF8B7002C
:103F30004FE2C3E7FFE7FFE72C980078400700282F
:103F400040F12781FFE700208DF8A70041F21C0017
:103F5000C4F202000068C000002813D4FFE7FFE7A6
:103F600041F21C00C4F20200016841F0805101607E
:103F7000006800F0805028902898FFE701208DF815
:103F8000A700FFE747F20000C4F200000068C00588
:103F9000002822D4FFE747F20001C4F200010868BC
:103FA00040F480700860FEF73BFA2B90FFE747F281
:103FB0000000C4F200000068C00500280CD4FFE730
:103FC000FEF72EFA2B99401A652804D3FFE7032049
:103FD0008DF8B700FDE1EAE7FFE7FFE72C98C0683E
:103FE000012809D1FFE741F22001C4F2020108686B
:103FF00040F00100086031E02C98C06868B9FFE724
:1040000041F22001C4F20201086820F001000860BA
:10401000086820F0040008601FE02C98C06805289C
:104020000DD1FFE741F22001C4F20201086840F01F
:1040300004000860086840F0010008600CE041F2EC
:104040002001C4F20201086820F00100086008683D
:1040500020F004000860FFE7FFE7FFE7FFE72C9888
:10406000C068002843D0FFE7FEF7DAF92B90FFE79E
:10407000012038B9FFE741F20000C4F202000068F5
:104080000F9020E0002038B9FFE741F22000C4F291
:10409000020000680E9013E0012038B9FFE741F2FA
:1040A0000400C4F2020000680D9006E041F2240012
:1040B000C4F2020000680D90FFE70D980E90FFE734
:1040C0000E980F90FFE70F98800700280ED4FFE7A7
:1040D000FEF7A6F92B99401A41F28931884204D3A0
:1040E000FFE703208DF8B70073E1C1E742E0FEF778
:1040F00097F92B90FFE7012038B9FFE741F2000064
:10410000C4F2020000680C9020E0002038B9FFE7FC
:1041100041F22000C4F2020000680B9013E001207D
:1041200038B9FFE741F20400C4F2020000680A90C7
:1041300006E041F22400C4F2020000680A90FFE7A2
:104140000A980B90FFE70B980C90FFE70C988007FC
:1041500000280ED5FFE7FEF763F92B99401A41F2CC
:104160008931884204D3FFE703208DF8B70030E19E
:10417000C1E7FFE79DF8A700012809D1FFE741F259
:104180001C01C4F20201086820F080500860FFE7BB
:10419000FFE72C98C069002800F01781FFE741F283
:1041A0000400C4F20200006800F00C00082800F0CF
:1041B000E680FFE72C98C069022840F09980FFE76D
:1041C0006021C4F2422100200860FEF729F92B90FB
:1041D000FFE7002038B9FFE741F20000C4F2020017
:1041E0000068099020E0012038B9FFE741F2200083
:1041F000C4F202000068089013E0012038B9FFE71C
:1042000041F20400C4F202000068079006E041F2A7
:104210002400C4F2020000680790FFE707980890A6
:10422000FFE708980990FFE70998800100280CD55E
:10423000FFE7FEF7F5F82B99401A032804D3FFE7B0
:1042400003208DF8B700C4E0C3E741F20401C4F2D3
:104250000201086820F474102C9A136A526A1A43F7
:10426000104308606021C4F2422101200860FEF77B
:10427000D7F82B90FFE7002038B9FFE741F20000A4
:10428000C4F202000068069020E0012038B9FFE780
:1042900041F22000C4F202000068059013E0012002
:1042A00038B9FFE741F20400C4F20200006804904C
:1042B00006E041F22400C4F2020000680490FFE727
:1042C00004980590FFE705980690FFE7069880019F
:1042D00000280CD4FFE7FEF7A3F82B99401A032817
:1042E00004D3FFE703208DF8B70072E0C3E745E091
:1042F0006021C4F2422100200860FEF791F82B9063
:10430000FFE7002038B9FFE741F20000C4F20200E5
:104310000068039020E0012038B9FFE741F2200057
:10432000C4F202000068029013E0012038B9FFE7F0
:1043300041F20400C4F202000068019006E041F27C
:104340002400C4F2020000680190FFE70198029087
:10435000FFE702980390FFE70398800100280CD53F
:10436000FFE7FEF75DF82B99401A032804D3FFE717
:1043700003208DF8B7002CE0C3E7FFE724E02C987A
:10438000C069012804D1FFE701208DF8B70020E0C3
:1043900041F20400C4F2020000682A902A9800F456
:1043A00080302C99096A884208D1FFE72A9800F4E6
:1043B00070102C99496A884204D0FFE701208DF8DB
:1043C000B70006E0FFE7FFE7FFE700208DF8B70042
:1043D000FFE79DF8B7002EB080BD000080B582B029
:1043E0000190019801F0F6FE02B080BD80B540F268
:1043F0001840C2F200000521FEF7F0F980BD000070
:1044000083B0029001910198009005283BD8009953
:10441000DFE801F00C151E27300302980168D1F87F
:10442000840340F00100C1F884032DE00298016884
:10443000D1F8840340F00200C1F8840324E002981C
:104440000168D1F8840340F00400C1F884031BE044
:1044500002980168D1F8840340F00800C1F8840391
:1044600012E002980168D1F8840340F01000C1F80E
:10447000840309E002980168D1F8840340F0200029
:10448000C1F8840300E0FFE703B0704780B582B055
:10449000019001980068D0F88803C00788B1FFE751
:1044A00001980068D0F89003C00748B1FFE7019871
:1044B00001680120C1F88C030198FEF77BF9FFE742
:1044C000FFE701980068D0F8880300F0020100209F
:1044D000B0EB510F15D0FFE701980068D0F89003BA
:1044E00000F002010020B0EB510F09D0FFE7019866
:1044F00001680220C1F88C030198FEF75FF9FFE71D
:10450000FFE701980068D0F8880300F0040100205C
:10451000B0EB910F15D0FFE701980068D0F8900339
:1045200000F004010020B0EB910F09D0FFE70198E3
:1045300001680420C1F88C030198FEF743F9FFE7F6
:10454000FFE701980068D0F8880300F00801002018
:10455000B0EBD10F15D0FFE701980068D0F89003B9
:1045600000F008010020B0EBD10F09D0FFE701985F
:1045700001680820C1F88C030198FEF727F9FFE7CE
:10458000FFE701980068D0F8880300F010010020D0
:10459000B0EB111F15D0FFE701980068D0F8900329
:1045A00000F010010020B0EB111F09D0FFE70198C7
:1045B00001681020C1F88C030198FEF70BF9FFE7A2
:1045C000FFE701980068D0F8880300F02001002080
:1045D000B0EB511F15D0FFE701980068D0F89003A9
:1045E00000F020010020B0EB511F09D0FFE7019837
:1045F00001682020C1F88C030198FEF7C9FAFFE793
:10460000FFE702B080BD000083B0029001910298E4
:10461000006800680090009820F007000090019862
:104620008168009808430090009820F018000090DE
:104630000198C168009808430090009802990968A1
:10464000086001980068029909684861019840680B
:1046500002990968886103B07047000084B0039034
:104660000291039800680068019003980068D0F8F0
:10467000A0030090019820F0200001900298416969
:10468000019808430190019820F40060019002987D
:104690008169019808430190019820F4806001909D
:1046A0000298C169019808430190019820F0C06008
:1046B00001900298016A019808430190019820F046
:1046C000006001900298416A0198084301900198A6
:1046D00020F0404001900298816A019840EA8100F0
:1046E0000190019820F0005001900298016B019810
:1046F00008430190009820F4803000900298C16A2D
:104700000098084300900198039909680860009890
:1047100003990968C1F8A00304B0704780B582B05E
:10472000019001980068D0F8880300F480310020DF
:10473000B0EB114F20D0FFE701980068D0F890034C
:1047400000F480310020B0EB114F14D0FFE7019846
:1047500001684FF48030C1F88C030199012081F881
:10476000C100FFE70199002081F8C000FFE7019830
:10477000FDF736FFFFE7FFE701980068D0F88803F0
:1047800000F400310020B0EB514F16D0FFE7019844
:104790000068D0F8900300F400310020B0EB514FD6
:1047A0000AD0FFE7019801684FF40030C1F88C038C
:1047B0000198FDF7E7FEFFE7FFE701980068406812
:1047C000C00780B1FFE701980068C068C00748B122
:1047D000FFE7019801680120886001980521FDF735
:1047E000E1FEFFE7FFE701980068406800F0020182
:1047F0000020B0EB510F14D0FFE701980068C068AB
:1048000000F002010020B0EB510F09D0FFE7019842
:1048100001680220886001980521FDF7C9FEFFE7C5
:10482000FFE701980068406800F004010020B0EB49
:10483000910F14D0FFE701980068C06800F00401F0
:104840000020B0EB910F09D0FFE701980168042028
:10485000886001980521FDF7B1FEFFE7FFE70198A9
:104860000068406800F008010020B0EBD10F14D0C0
:10487000FFE701980068C06800F008010020B0EB75
:10488000D10F09D0FFE701980168082088600198DE
:104890000521FDF799FEFFE7FFE7019800684068F2
:1048A00000F010010020B0EB111F14D0FFE70198B9
:1048B0000068C06800F010010020B0EB111F09D0A3
:1048C000FFE7019801681020886001980521FEF734
:1048D00055F9FFE7FFE701980068406800F0200104
:1048E0000020B0EB511F13D0FFE701980068C068AB
:1048F00000F020010020B0EB511F08D0FFE7019825
:104900000168202088600198FEF73EF9FFE7FFE785
:1049100001980068406800F040010020B0EB911F52
:1049200014D0FFE701980068C06800F04001002043
:10493000B0EB911F09D0FFE7019801684020886023
:1049400001980521FEF710F9FFE7FFE702B080BDEF
:1049500088B0079006910592049300200190079873
:104960000068069900EBC110D0F8E40003900798A6
:104970000068069900EBC110D0F8B80002900598C5
:104980000090012826D0FFE70098022835D0FFE7E5
:10499000009804281ED0FFE7009808282DD0FFE7D4
:1049A0000098102816D0FFE70098202825D0FFE7B0
:1049B000009840280ED0FFE7009880281DD0FFE720
:1049C0000098B0F5807F05D0FFE70098B0F5007F34
:1049D00013D027E00498406807990968069A01EB0C
:1049E000C211C1F8BC000498806807990968069A4A
:1049F00001EBC211C1F8C00015E0049840680799A6
:104A00000968069A01EBC211C1F8C40004988068D5
:104A100007990968069A01EBC211C1F8C800102075
:104A2000019000E0FFE70199FE2000FA01F10398F0
:104A30008843039004980068019900FA01F10398F3
:104A4000084303900498C068019900FA01F10398A3
:104A50000843039004980069019900FA01F1039852
:104A60000843039004984069019900FA01F1039802
:104A70000843039004988069019900FA01F10398B2
:104A80000843039004980069082815D1FFE79DF8B2
:104A90000900800700280FD4FFE79DF80B0080076E
:104AA000002809D4FFE70498C069019900FA01F1D0
:104AB000039808430390FFE7039807990968069A4B
:104AC00001EBC211C1F8E40008B0704780B582B0B4
:104AD0000190009101980068009900EBC110D0F896
:104AE0008400C007C0B1FFE701980068009900EB9F
:104AF000C110D0F88C00C00768B1FFE701980068CA
:104B0000009900EBC1110120C1F8880001980099BB
:104B1000FDF748FDFFE7FFE701980068009900EB0B
:104B2000C110D0F8840000F002010020B0EB510F5A
:104B30001CD0FFE701980068009900EBC110D0F885
:104B40008C0000F002010020B0EB510F0DD0FFE708
:104B500001980068009900EBC1110220C1F888009B
:104B600001980099FDF724FDFFE7FFE70198006831
:104B7000009900EBC110D0F8840000F0040100207F
:104B8000B0EB910F1CD0FFE701980068009900EB93
:104B9000C110D0F88C0000F004010020B0EB910FA0
:104BA0000DD0FFE701980068009900EBC1110420C7
:104BB000C1F8880001980099FDF700FDFFE7FFE7C5
:104BC00001980068009900EBC110D0F8840000F053
:104BD00008010020B0EBD10F1CD0FFE7019800685E
:104BE000009900EBC110D0F88C0000F00801002003
:104BF000B0EBD10F0DD0FFE701980068009900EBF2
:104C0000C1110820C1F8880001980099FDF7DCFC6B
:104C1000FFE7FFE701980068009900EBC110D0F8AA
:104C2000840000F010010020B0EB111F1CD0FFE742
:104C300001980068009900EBC110D0F88C0000F0DA
:104C400010010020B0EB111F0DD0FFE701980068A4
:104C5000009900EBC1111020C1F88800019800995B
:104C6000FDF78CFFFFE7FFE701980068009900EB74
:104C7000C110D0F8840000F040010020B0EB911F7B
:104C80001CD0FFE701980068009900EBC110D0F834
:104C90008C0000F040010020B0EB911F0DD0FFE729
:104CA00001980068009900EBC1114020C1F888000C
:104CB00001980099FDF758FFFFE7FFE701980068AA
:104CC000009900EBC110D0F88400C1B20020B0EB15
:104CD000D11F1BD0FFE701980068009900EBC110BD
:104CE000D0F88C00C1B20020B0EBD11F0DD0FFE78F
:104CF00001980068009900EBC1118020C1F888007C
:104D000001980099FDF742FCFFE7FFE70198006872
:104D1000009900EBC110D0F8840000F480710020ED
:104D2000B0EB112F1DD0FFE701980068009900EB50
:104D3000C110D0F88C0000F480710020B0EB112F6E
:104D40000ED0FFE701980068009900EBC1114FF405
:104D50008070C1F8880001980099FDF71DFCFFE7FD
:104D6000FFE701980068009900EBC110D0F88400BB
:104D700000F400710020B0EB512F1DD0FFE7019827
:104D80000068009900EBC110D0F88C0000F40071AD
:104D90000020B0EB512F0ED0FFE70198006800997A
:104DA00000EBC1114FF40070C1F888000198009920
:104DB000FDF78AFEFFE7FFE701980068009900EB26
:104DC000C110D0F8840000F480610020B0EB912F76
:104DD0001DD0FFE701980068009900EBC110D0F8E2
:104DE0008C0000F480610020B0EB912F0ED0FFE723
:104DF00001980068009900EBC1114FF48060C1F880
:104E0000880001980099FDF759FEFFE7FFE7019838
:104E10000068009900EBC110D0F8840000F4006134
:104E20000020B0EBD12F1DD0FFE70198006800995A
:104E300000EBC110D0F88C0000F400610020B0EB52
:104E4000D12F0ED0FFE701980068009900EBC11147
:104E50004FF40060C1F8880001980099FDF740FE0A
:104E6000FFE7FFE701980068009900EBC110D0F858
:104E7000840000F480510020B0EB113F1DD0FFE70B
:104E800001980068009900EBC110D0F88C0000F484
:104E900080510020B0EB113F0ED0FFE70198006871
:104EA000009900EBC1114FF48050C1F888000198BF
:104EB0000099FDF70FFEFFE7FFE7019800680099F2
:104EC00000EBC110D0F8840000F400510020B0EBDA
:104ED000513F1DD0FFE701980068009900EBC11019
:104EE000D0F88C0000F400510020B0EB513F0ED000
:104EF000FFE701980068009900EBC1114FF40050E2
:104F0000C1F8880001980099FDF764FBFFE7FFE70F
:104F100001980068009900EBC110D0F8840000F4FB
:104F200080410020B0EB913F1DD0FFE70198006861
:104F3000009900EBC110D0F88C0000F480410020F3
:104F4000B0EB913F0ED0FFE701980068009900EBAD
:104F5000C1114FF48040C1F8880001980099FDF715
:104F600023FCFFE7FFE702B080BD000084B00390A0
:104F70000291019203980068029900EBC110D0F8E9
:104F800080000090009820F0070000900198816850
:104F9000009808430090009820F0180000900198B5
:104FA000C168009808430090009803990968029A24
:104FB00001EBC211C1F880000198006803990968EB
:104FC000029A01EBC211C1F894000198406803995C
:104FD0000968029A01EBC211C1F8980004B0704749
:104FE00089B008900791069208980068079900EB2D
:104FF000C111D1F8800020F07040C1F880000898FD
:105000000068079900EBC110D0F88000059008985F
:105010000068079900EBC110D0F8E80004900898E8
:105020000068079900EBC110D0F8E40003900898DD
:105030000068D0F8A0030190059820F020000590AA
:1050400006984169059808430590059820F400608A
:10505000059006988169059808430590059820F405
:10506000806005900698C1690598084305900598E9
:1050700020F0C06005900698016A059808430590E5
:10508000059820F0006005900698416A059808434D
:105090000590059820F0704005900698816A059863
:1050A00008430590059820F4003005900698006BA1
:1050B000B0F1005F05D1FFE7059840F4003005909E
:1050C000FFE7059820F0400005900698416B059891
:1050D00008430590059820F4802005900698016DFE
:1050E000059808430590059820F0FC7005900698F7
:1050F000816C059808430590049820F01F000490E7
:105100000698806B00F01F010498084304900498EF
:1051100020F0004004900698C16B04980843049066
:105120000698406B50B9FFE7039820F48070039015
:105130000698016C039808430390FFE70698406CBB
:10514000B0F5606F06D0FFE70698406CB0F5F05FF1
:1051500005D1FFE70698406B40280AD1FFE7039886
:1051600020F4F05003900698416C03980843039094
:10517000FFE70698C06C02900798009004283CD87E
:105180000099DFE801F0030E19242F00019820F4A4
:10519000003001900698C16A019840EA41000190F0
:1051A0002CE0019820F4802001900698C16A0198B3
:1051B00040EA8100019021E0019820F40020019054
:1051C0000698C16A019840EAC100019016E0019872
:1051D00020F4801001900698C16A019840EA0110FD
:1051E00001900BE0019820F4001001900698C16A2C
:1051F000019840EA4110019000E0FFE70598089906
:105200000968079A01EBC211C1F880000498089957
:105210000968079A01EBC211C1F8E80003980899E0
:105220000968079A01EBC211C1F8E40002980899D5
:105230000968079A01EBC211C1F8D40001980899D6
:105240000968C1F8A00309B070470000FFE7FEE756
:1052500080B58AB040F2FC00C2F200000188013142
:105260000180008840F20001C2F2000109888842F2
:1052700007D1FFE740F2FC01C2F2000100200880E4
:10528000DEE140F20010C2F2000090ED000A90ED65
:10529000041A20EE010A40F29453C2F2000383ED97
:1052A000000A006840F29851C2F20001086091EDD6
:1052B000000A40F2FC42C2F2000292ED001A30EE07
:1052C000410A40F2EC20C2F2000080ED000A93EDAA
:1052D000000A40F2F84CC2F2000C9CED001A30EECD
:1052E000410A40F2E820C2F2000080ED000A1B688B
:1052F000CCF8003009681160016840F2B050C2F289
:105300000000016040F26801C2F2000191ED000A64
:1053100090ED001A20EE010A40F2B450C2F20000F3
:1053200080ED000A90ED000AB5EE400AF1EE10FAA9
:1053300008DAFFE740F22801C2F200010878404293
:105340000870FFE740F2EC20C2F20000006801F0B4
:105350002BFF41EC100B9FEDBC1B50EC111BC20F3F
:1053600051EC100B62F3DF7141EC100B8DED080B6B
:1053700040F27800C2F20000006801F015FF9DEDD8
:10538000081B41EC100B51EC110B53EC102B01F0EE
:1053900059FF48BBFFE740F2E820C2F20000006876
:1053A00001F002FF41EC100B9FEDA71B50EC111B0D
:1053B000C20F51EC100B62F3DF7141EC100B8DED5D
:1053C000060B40F27400C2F20000006801F0ECFE2F
:1053D0009DED061B41EC100B51EC110B53EC102B07
:1053E00001F022FF08B9FFE72AE140F2FE00C2F215
:1053F00000000078012801D0FFE721E140F292503F
:10540000C2F200000078012840F0F980FFE740F286
:10541000B450C2F20000006801F0C6FE41EC100B6F
:105420009FED891B50EC111BC20F51EC100B62F366
:10543000DF7141EC100B8DED040B40F27C00C2F2E9
:105440000000006801F0B0FE9DED041B41EC100B64
:1054500051EC110B53EC102B01F0F4FE002871D12C
:10546000FFE740F29820C2F200000090006A01F0CD
:105470009BFE0246009801920A46019942EC101BDD
:105480009FED711B51EC112BCB0F52EC101B63F3F2
:10549000DF7242EC101B8DED020B90ED040A9FEDC4
:1054A0006C1A20EE010A10EE100A01F07DFE9DED4F
:1054B000020B41EC110B53EC112B51EC100B01F0D2
:1054C000B3FEE8B9FFE740F22400C2F2000090ED1D
:1054D000000A40F22800C2F2000090F9000001EE3C
:1054E000100AB8EEC11A20EE011A40F29000C2F282
:1054F000000090ED000A30EE010A80ED000A20E085
:1055000040F22400C2F2000090ED000A40F22800B0
:10551000C2F2000090F9000001EE100AB8EEC11AC4
:1055200020EE010A9FED4B1A20EE011A40F298205E
:10553000C2F2000090ED040A30EE010A80ED040A88
:10554000FFE7FFE740F29000C2F2000090ED000A92
:105550009FED411AB4EE410AF1EE10FA0ADDFFE7C1
:1055600040F29001C2F2000146F26660C4F28E1071
:105570000860FFE740F29000C2F2000090ED000AE0
:105580009FED361AB4EE410AF1EE10FA09DAFFE7A0
:1055900040F29001C2F200010020C4F284100860C1
:1055A000FFE740F29820C2F2000090ED040AB5EE49
:1055B000400AF1EE10FA0ADAFFE740F29821C2F24F
:1055C00000014CF6CD40C3F6CC500861FFE740F235
:1055D0009820C2F2000090ED040AB3EE031AB4EE74
:1055E000410AF1EE10FA09DDFFE740F29821C2F21C
:1055F00000010020C4F298100861FFE7FFE740F2C5
:105600009250C2F200000078022819D1FFE740F260
:105610006C00C2F2000090ED000A40F2B050C2F2FD
:10562000000090ED001A20EE011A40F27000C2F264
:10563000000090ED000A30EE010A80ED000AFFE75D
:105640000AB080BD00BF00BF0000000000000000E5
:105650006666663F0000C84266668E41000084416F
:1056600080B58CB0002101910B910A9109910891AC
:105670000791069105910491039140F2F020C2F246
:10568000000002904FF0A042026041608160012260
:105690000261427680F820104FF48062C2624FF4BB
:1056A000E0728262C1600722C26180F83010042279
:1056B000426101764163FCF70BF818B1FFE7FBF795
:1056C000CFF8FFE70020099040F2F020C2F200007E
:1056D00009A9FBF7CDF818B1FFE7FBF7C1F8FFE721
:1056E00001200390049000200690059007900890F8
:1056F00040F2F020C2F2000003A9FBF795F918B1BF
:10570000FFE7FBF7ADF8FFE702200390049040F2BB
:10571000F020C2F2000003A9FBF786F918B1FFE7F9
:10572000FBF79EF8FFE703200390049040F2F0207F
:10573000C2F2000003A9FBF777F918B1FFE7FBF706
:105740008FF8FFE704200390049040F2F020C2F2AB
:10575000000003A9FBF768F918B1FFE7FBF780F831
:10576000FFE70B2003900520049040F2F020C2F2E6
:10577000000003A9FBF758F918B1FFE7FBF770F831
:10578000FFE70C2003900620049040F2F020C2F2C4
:10579000000003A9FBF748F918B1FFE7FBF760F831
:1057A000FFE70D2003900720049040F2F020C2F2A2
:1057B000000003A9FBF738F918B1FFE7FBF750F831
:1057C000FFE70CB080BD000080B588B000210091DB
:1057D00007910691059104910391029140F24030A6
:1057E000C2F20000019040F20012C5F20002026015
:1057F0004160816001220261427680F82010C1621E
:105800008262C1600422C26180F830104261017678
:105810004163FBF75DFF18B1FFE7FBF721F8FFE7F6
:1058200001200290039000200590049006900790BC
:1058300040F24030C2F2000002A9FBF7F5F818B1BF
:10584000FFE7FBF70DF8FFE702200290039040F21C
:105850004030C2F2000002A9FBF7E6F818B1FFE7FA
:10586000FAF7FEFFFFE703200290039040F240307A
:10587000C2F2000002A9FBF7D7F818B1FFE7FAF768
:10588000EFFFFFE704200290039040F24030C2F2A5
:10589000000002A9FBF7C8F818B1FFE7FAF7E0FF2C
:1058A000FFE708B080BD000080B584B0FFE741F29B
:1058B0001400C4F20200016841F0010101600068B7
:1058C00000F0010003900398FFE70B2000900721F0
:1058D00000220192FDF7FEFC0098FDF7F1FC019A11
:1058E0000C2002901146FDF7F5FC0298FDF7E8FC4C
:1058F00004B080BD80B594B0002013901290119038
:1059000010900F90FFE741F21400C4F2020001680A
:1059100041F400210160006800F400200E900E9810
:10592000FFE7FFE741F21400C4F20200016841F40E
:1059300080010160006800F480000D900D98FFE781
:10594000FFE741F21400C4F20200016841F40031A3
:105950000160006800F400300C900C98FFE7FFE74E
:1059600041F21400C4F20200016841F48021016098
:10597000006800F480200B900B98FFE740F60000D1
:10598000C4F6000002904FF40051019100220892E9
:10599000FCF730FD089A4FF0904005904FF400411D
:1059A0000491FCF727FD089A40F20040C4F600007D
:1059B000099038210691FCF71DFD019A029808997B
:1059C0000F92012207921092119112910FA90A9140
:1059D000FCF776FB0298089A0A994FF440430F931C
:1059E0000323039310931192FCF76AFB039B089A1D
:1059F00009980A9941F6044CCDF83CC010931192D5
:105A0000FCF75EFB039B0598089A0A994FF4805CAB
:105A1000CDF83CC010931192FCF752FBDDF810C09A
:105A20000598079B089A0A99CDF83CC010931192EB
:105A30001292FCF745FBDDF818C0079B089A0998FD
:105A40000A99CDF83CC0109311921292FCF738FBE2
:105A5000089A09980A994FF470730F9310920222D2
:105A60001192FCF72DFB14B080BD000080B5B2B0E0
:105A700000200290319030902F902E902D902C90FD
:105A800017A85421FAF768FC029816901590149004
:105A90000BA82421FAF760FC02990A910991089158
:105AA0000791069105910491039140F21840C2F2CA
:105AB000000047F20042C4F20102026041608160CE
:105AC000FCF7A8FE18B1FFE7FAF7CAFEFFE740F2BD
:105AD0001840C2F200000C21FCF786FD18B1FFE768
