:020000040800F2
:10000000100B002029020008FD2E000869290008B5
:10001000F92E0008690400084139000800000000BA
:10002000000000000000000000000000AD300008EB
:10003000E504000800000000A9300008E1300008D5
:10004000430200084302000843020008430200087C
:10005000430200084302000843020008430200086C
:100060004302000843020008430200087D04000820
:10007000430200084302000843020008430200084C
:10008000430200084302000843020008430200083C
:10009000430200084302000843020008430200082C
:1000A00043020008A93100088D310008430200080E
:1000B0004302000843020008000000004302000859
:1000C0004302000800000000000000004302000896
:1000D0000000000043020008430200084302000839
:1000E0004302000843020008000000000000000076
:1000F0000000000000000000000000000000000000
:1001000000000000000000000000000000000000EF
:100110000000000000000000430200084302000845
:1001200000000000000000000000000000000000CF
:1001300000000000000000000000000000000000BF
:100140006D0400084302000800000000430200089C
:10015000430200084302000843020008430200086B
:1001600043020008430200080000000000000000F5
:10017000000000000000000000000000000000007F
:10018000000000004302000800F002F800F03CF814
:100190000AA090E8000C82448344AAF10107DA45E2
:1001A00001D100F031F8AFF2090EBAE80F0013F0F8
:1001B000010F18BFFB1A43F00103184780390000F4
:1001C000A0390000103A24BF78C878C1FAD8520785
:1001D00024BF30C830C144BF04680C6070470000C1
:1001E0000023002400250026103A28BF78C1FBD840
:1001F000520728BF30C148BF0B6070471FB503F0DE
:100200006DFC1FBD10B510BD00F058F81146FFF78A
:10021000F5FF03F0D1FB00F076F803B4FFF7F2FF2F
:1002200003BC00F07DF800000948804709480047FA
:10023000FEE7FEE7FEE7FEE7FEE7FEE7FEE7FEE796
:10024000FEE7FEE704480549054A064B70470000F3
:10025000793100088901000810050020100B0020EA
:1002600010070020100700204FF0000200B51346D1
:1002700094469646203922BFA0E80C50A0E80C50C6
:10028000B1F12001BFF4F7AF090728BFA0E80C5077
:1002900048BF0CC05DF804EB890028BF40F8042B70
:1002A00008BF704748BF20F8022B11F0804F18BFDD
:1002B00000F8012B7047704770477047754600F093
:1002C0002BF8AE4605006946534620F007008546E8
:1002D00018B020B5FFF7B6FFBDE820404FF000068C
:1002E0004FF000074FF000084FF0000BAC46ACE8B1
:1002F000C009ACE8C009ACE8C009ACE8C00921F00D
:1003000007018D46704710B50446AFF300802046C4
:10031000BDE81040FFF781BF00487047180000207B
:1003200001491820ABBEFEE726000200704700001E
:1003300080B50146806A426C12F0500F04D0C06B49
:10034000426B0846904780BD0168426C42F40072DF
:100350004264C96811F4406F02D000F0E5FA80BD34
:10036000C1690029F9D1416C21F480714164416C6B
:10037000C904F2D4416C41F00101416400F0D4FAA7
:1003800080BD000080B5806A416C41F0400141644D
:10039000816C41F00401816400F028FC80BD000004
:1003A00080B5806A00F020FC80BD0000B0B5044636
:1003B0000068816801F00301012902D10168C907C1
:1003C00001D10020B0BD816801F00D01012912D1D9
:1003D000816841F0020181600321016001F09CF815
:1003E000054600BF20688068C007EAD001F094F895
:1003F000401B0328F6D3606C40F010006064A06CD2
:1004000040F00100A0640120B0BD0000B0B504467A
:100410000068816801F00301012902D10168C90760
:100420001FD181683F22C8F2000211420FD18168BA
:1004300041F00101816001F06FF805462068006815
:10044000C0070ED101F068F8401B0328F6D3606C9A
:1004500040F010006064A06C40F00100A064012036
:10046000B0BD0020B0BD0000FEE7000080B540F246
:100470001810C2F2000000F093FD80BD80B540F27C
:100480006410C2F2000000F0B3FE80BD01684FF6B8
:10049000F872CBF6FD7211444CF6CD42CCF6CC424C
:1004A000A1FB02126FF0030101EA92010022C4F2E3
:1004B0000202C0E910217047B0B5D0E900CED0E902
:1004C0001040012505FA00F060600846CCF80430C1
:1004D000BEF1100F04BF10460A46CCF80800CCF855
:1004E0000C20B0BD70470000EFF3108072B600BF63
:1004F000FEE7000070B5026C012A04BF022070BD47
:100500000368012202649A68520744D440F2083C0E
:100510004FF60052C5F2000CCFF6FF72B3F1A04FB8
:1005200004BF4FF60062CFF6FF7252F80C4064072A
:1005300031D4D1F800E0DCF80040BEF1000F24F423
:10054000604431D04D68466B2C4344EA4634CCF8C5
:1005500000409C6804F00304012C02D11C68E407ED
:1005600045D152F80C2002F00302012A09D14FF0C4
:10057000A042B3F1A04F08BFACF502721268D207D7
:1005800037D1DCF80020896840F61F739A4341EAAE
:100590000E01114327E0416C41F02001416401212B
:1005A00000220264084670BDCCF80040996801F052
:1005B0000301012902D11968C9071CD152F80C1096
:1005C00001F00301012909D14FF0A041B3F1A04F7F
:1005D00008BFACF502710968C9070ED1DCF800103C
:1005E00040F61F729143CCF800100021D8E700219B
:1005F000D6E70021D4E70021D2E70021D0E70000B0
:10060000F0B581B000220092026C012A01D10221D2
:1006100086E10122D0F800C00264DCF8082052070D
:1006200000F1F5804A68042A05D802EB42020CF179
:10063000300E520019E0092A06D80CF1340E02EBF4
:1006400042026FF01D040EE00E2A06D80CF1380E9F
:1006500002EB42026FF03B0405E00CF13C0E02EBB2
:1006600042026FF0590404EB4202DEF800401F23FF
:100670000D68934024EA030305FA02F21A43CEF808
:100680000020DCF8082012F00C0F28D0DCF808203D
:1006900002F00302012A04D1DCF80020D20740F066
:1006A0003C810A68CB680127012B07FA02F34BD182
:1006B000DCF8B0700A2A43EA0703CCF8B03049D31B
:1006C00002EB4202DCF818301B3A07278E6897408D
:1006D000BB4306FA02F21A43CCF8182048E00F6830
:1006E000142507EB4702092F88BF1E3A88BF18253B
:1006F0005CF8054007238E68934024EA030306FA5A
:1007000002F21A434CF80520D1E9042EDCF80C4023
:10071000013A032A00F28180062303EA94030EFAC9
:1007200003FEDFE802F002ACBBCADCF860204FF247
:100730000003C0F2FF331A404EEA87631A4342F0C7
:100740000042CCF86020A1E7DCF8B0209A43CCF856
:10075000B0200DE002EB4202DCF814300332072730
:100760008E689740BB4306FA02F21A43CCF8142075
:100770000B6840F20831102BC5F2000102D10A6863
:1007800012020ED5122B08D0112B40F0C6800A6839
:10079000D20106D5122B40F0C0800A68520200F147
:1007A000BC80DCF8082002F00302012A03D1DCF847
:1007B0000020D2072BD14FF60052CFF6FF72BCF1CA
:1007C000A04F04BF4FF60062CFF6FF72525802F0FE
:1007D0000302012A09D14FF0A042BCF1A04F08BF8B
:1007E000A1F502721268D20711D1BCF1A04F08BF67
:1007F000102B71D0BCF1A04F08BF112B00F08980E5
:10080000122B40F08A800A6842F4800284E0416C36
:1008100041F020014164012180E0DCF86020BB064A
:1008200002F0F842B2EB876F05D1DCF8602022F0CD
:100830000042CCF86020DCF8642002F0F8429A42D2
:1008400005D1DCF8642022F00042CCF86420DCF80A
:10085000682002F0F8429A4205D1DCF8682022F0C4
:100860000042CCF86820DCF86C2002F0F8429A4292
:100870007FF40CAFDCF86C2022F0004229E0DCF8B9
:1008800064204FF20003C0F2FF331A404EEA876340
:100890001A4342F00042CCF86420F7E6DCF8682006
:1008A0004FF20003C0F2FF331A404EEA87631A4347
:1008B00042F00042CCF86820E8E6DCF86C204FF209
:1008C0000003C0F2FF331A404EEA87631A4342F036
:1008D0000042CCF86C20D9E60A6842F400020A60B3
:1008E00040F20401C2F2000109684DF68362C4F2CD
:1008F0001B32A1FB0212910C01EB81014900009116
:10090000009951B100990139009100990029F9D15C
:1009100003E00A6842F080720A600021002202644B
:10092000084601B0F0BD000040F2C401C2F200016F
:10093000884218BF70472DE9F04381B04FF09040D6
:10094000402100F0DBFD40F278024AF6AB2340F292
:10095000B40C0021C2F20002CAF6AA23C2F2000CB3
:100960004FF4805700266FF00B0500245019808942
:100970000C35844238BF0446874288BF0746302D75
:100980000644F3D1301BC01BA0FB030778082CF8EA
:1009900011000131062902F10202E1D1BCF8000088
:1009A00040F20457BCF8042042F63848C0F5EB6129
:1009B000C2F2000740F2C009A0F2277040F20856C8
:1009C000C4F201083960A2F22E71C2F20009622855
:1009D000C2F20006C9F8001024D83078FF2801D0F0
:1009E00001281FD140F20024C2F200042046042155
:1009F00001F0FEFE2046042101F016FB40F200400B
:100A0000C4F6000018210022002400F07FFD34709D
:100A1000D8F8000041F61F41081A40F2FC41C2F22A
:100A200000010880307840F21005FE28C2F200056F
:100A30001FD1386815281CDB2878FF2819D140F20F
:100A4000FC41C2F20001D8F800000988884210D9A0
:100A500040F20024C2F200042046042101F03CFED2
:100A60002046042101F07AFA01202870307003F04A
:100A700025F83078FE2820D1386810F1150F1CDCDD
:100A80002878012819D140F2FC41C2F20001D8F8BF
:100A900000000988884210D240F20024C2F200040B
:100AA0002046042101F018FE2046042101F056FAE8
:100AB000FF202870307002F0F1FF307838BB3868C2
:100AC0003230652823D32878FE21FF2831700DD1DC
:100AD00040F2FC40C2F2000041F65731018040F282
:100AE0000020C2F20000042101F038FA2878012821
:100AF0000DD140F2FC40C2F200004FF4FA610180D7
:100B000040F20020C2F20000042101F0E5FD30783F
:100B1000012822D199ED000A97ED001A40F2B44461
:100B2000C2F20004B8EEC00AF8EEC10A204602F094
:100B3000FDF994ED080A0021B5EE400AF1EE10FA35
:100B4000BEBF0020C4F2FA4020620020C4F2FA4086
:100B5000206241F24F4002F09BFF3078FF281FD106
:100B600099ED000A97ED001A40F2B444C2F2000475
:100B7000B8EEC00AF8EEC10A204602F0D7F994EDAB
:100B8000080A0020B5EE400AC4F2FA40F1EE10FA6D
:100B9000B8BF206220624FF4FA60002102F078FFB3
:100BA0003078FE2810D12878FF2801D001280BD1F9
:100BB000D8F8000040F20000C2F200000088D8F827
:100BC0000010081AC8F8000040F2C40040F2780192
:100BD000C2F20000C2F200011E2200F05FF901B073
:100BE000BDE8F04370470000704700007047000008
:100BF000B0B582B004460020002C01903ED0606C5D
:100C0000C0063ED4606C002500283DD12046A56476
:100C1000C4E91355256400F0DDF820688068C00041
:100C200032D42046FFF7C2FB616C054601F010008C
:100C3000284329D12068616C41F2021291430231AC
:100C40006164816821F040518160816841F0805188
:100C5000816040F20400C2F2000000684DF683613A
:100C6000C4F21B31A0FB0101880C00EB80004000A6
:100C70000190019838B101980138F9E7012002B0DC
:100C8000B0BD002512E0002520688168C90002D5AA
:100C9000806880000AD5606C012540F0100020F0CB
:100CA00002006064A06C40F00100A064606C00F081
:100CB000100028434FD12068816849074BD4616CEC
:100CC00021F4817102316164816801F0030101291D
:100CD00002D10168C90723D14FF6005240F2083112
:100CE000CFF6FF72C5F20001B0F1A04F04BF4FF67E
:100CF0000062CFF6FF72525802F00302012A09D1B6
:100D00004FF0A042B0F1A04F08BFA1F502721268E7
:100D1000D20705D10A68636822F440321A430A6098
:100D2000D4E902C3E269A16B656A43EA423301294F
:100D300018BF43F48053012D43EA0C011CD1A2B12A
:100D4000626C42F0200222F002026264A26C42F065
:100D50000102A26410E0012010216FF01202636C06
:100D60001A401143616402B0B0BDA26A0023CFF6FD
:100D7000FF7303EB42421143E26A012A02D0236B64
:100D800011431943826812F00C0F0AD1C26844F271
:100D900002039A43C260A269636B41EA823141EA6D
:100DA0004301C2684CF20703CFF6F0731A401143B7
:100DB000C1602169026B012922F00F0102D1226A70
:100DC000013A11430163002001216FF00302A06486
:100DD000C5E70000F0B587B0044600680026B0F112
:100DE000A04F0696CDE904660396029601D007B09F
:100DF000F0BD41F21400C4F20200016802AD41F0FE
:100E0000805101600168032701F08051019101992F
:100E1000016841F400310160016801F40031019181
:100E20000199016841F4802101600068294600F4BD
:100E30008020019001980F2002904FF09040CDE962
:100E4000037600F087FA40F20040C4F6000029461D
:100E5000CDE90277049600F07DFA40F2641508208F
:100E6000C2F20005C4F202004FF48072C5E9000628
:100E700005F1100080214FF4806320278CC02846A4
:100E8000C5E90261EE6100F003FA002818BFFFF720
:100E90002BFBE563AC6207B0F0BD0000F0B581B09C
:100EA000044600688068400704D4206C012803D100
:100EB000022772E0022770E040F208370120C5F2F5
:100EC000000720643868C00603D000200127206492
:100ED00063E0204615460E46FFF798FA18B1002049
:100EE0002064012759E0606C40F60171884300F5E9
:100EF000807060643868C00611D02068B0F1A04FDF
:100F00000DD0616CA7F5027241F4801190426164CA
:100F100012D14FF60450CFF6FF70385805E0206824
:100F2000616C21F480116164C068800104D5606C3B
:100F3000012161F30D306064606C40F23132C00415
:100F40004FF0000044BFA06C20F00600A064E06BEE
:100F50002168C0F6000240F2A13340F2853C00F166
:100F60002C0E0027C0F60003C0F6000C8EE80C1013
:100F70001C2227640A604A682B4642F010024A602D
:100F8000CA6842F00102CA604031324600F0AEF950
:100F90002068816841F004018160384601B0F0BDED
:100FA000B0B540F2144CC4F2010C026840F2344572
:100FB000ACF57B740123C4F20105ACF57D7EA24241
:100FC00008BF4FF08043724508BF4FF48003DAB288
:100FD0002946002A04BF40F21441C4F20101096805
:100FE0000B4208BFB0BD002A08BF65462B6000F069
:100FF0009BF8B0BD70B582B0002860D00446C06ACE
:10100000C0065CD441F21800C4F20200016841F04D
:1010100001010160006800F0010001900198204684
:1010200000F050F8E06A002804BF0020A062626867
:10103000602A09D1206820217022C4F20101C0F287
:101040004002884208BF6022002062600090D4F80D
:1010500000C0D4E90231D4F810E0DCF800504FF6BB
:101060008F760095009DCFF6BF7635402A430092DB
:10107000009A890A1A430092009AA36922F4402236
:101080001A430092009A61F38D220092009921F494
:10109000004141EA0E0100910099626911430091FB
:1010A0000099E269114300910099226A114300916D
:1010B0000099CCF800100121E16202B070BD01205E
:1010C00002B070BD80B586B000682022C4F2010273
:1010D00000219042CDE90411CDE90211019101D026
:1010E00006B080BD41F21400C4F20200026842F46E
:1010F00000320260006800F4003000900098802008
:1011000001900320CDE9020101A94FF0904000F0C9
:1011100021F940200121002200F052FB402000F084
:101120004BFB06B080BD00007047000010B583681F
:10113000012B4FF002032BD04360D0F800E00824CD
:101140008EF0804383F4E843134340F6FE7303FAC2
:1011500002F36FEA0303DEF800C002BF04244FF27B
:101160000103CFF6FF730C59096803EA0C0321430E
:1011700091401943CEF80010C021DEF800309140B4
:1011800023EA0101CEF800100121002341608360B1
:10119000184610BD002804BF0120704710B5044652
:1011A000406820B90020A060204600F007F8022027
:1011B0006060002001216061616010BD81B0006845
:1011C00047F20041C4F20001884201D001B07047EB
:1011D00041F21C00C4F20200016841F000510160BC
:1011E000006800F000500090009801B070470000C7
:1011F000B0B50268D0E910CEDCF8001013685C07C7
:1012000012D5042404FA0EF414EA01050CD0116876
:10121000890603D4116821F004011160CCF8044060
:10122000016B99B38847B0BD9C0716D5022404FA18
:101230000EF414EA010510D01168890605D411686E
:1012400021F00A01116001214162CCF80440C16A19
:1012500000220262D1B18847B0BD1B0758BFB0BDA4
:10126000082303FA0EF3194010D01168002321F06F
:101270000E011160012202FA0EF1CCF80410C263D3
:10128000416B03620029426218BF8847B0BD00006D
:101290002DE9F04381B04FF0010410B30546022060
:1012A000686295E8010305F10C0E9EE80850D5E947
:1012B0000667016843F6F072914341EA080141EA8A
:1012C0000901194341EA0C0141EA0E013143394356
:1012D00001602846FFF7DAF80020E863C5E9080452
:1012E0000024204601B0BDE8F083000010B504469C
:1012F000006A01281ED0606A4FF0010C0128C4F872
:1013000020C015D1022060620020E063D4F800C044
:10131000DCF8000020F00100CCF800002046FFF7C8
:10132000CBF82068226B016832B141F00E0109E070
:1013300000202062022010BD41F00A010160016816
:1013400021F0040101602068016841F001010160A1
:10135000002010BD2DE9F04F82B00A68002A00F08D
:10136000C98040F60043C4F60003052740F2004E52
:10137000984208BF0327C4F2010E00974FF0010BFB
:10138000002500274FF0010A3EE0012307F00C047E
:101390000F22A2402CEA0202A3401A4346F828205A
:1013A000DEF800204B6842EA0906DC0358BF22EA57
:1013B0000906CEF80060DEF804209C0342EA090624
:1013C00058BF22EA0906CEF80460DEF80820DC02E5
:1013D00042EA090640F20C4458BF22EA0906CEF858
:1013E0000860C4F2010422689B0242EA090658BF61
:1013F00022EA090626600A68043732FA0AF30AF17B
:10140000010A05F1020575D0AAF101080BFA08F4EA
:1014100012EA0409EFD04A68122A16D80BFA02F32E
:1014200013F0061F11D083680326D1F80CC0AE401C
:10143000B3430CFA05F6334383604368C2F30016E6
:10144000A34306FA08F6334343600326C36806FA4B
:1014500005F48E68A343AE4042F010023343122AD3
:10146000C36014D16FF0030202EA58020244D2F8BA
:1014700020C007F01C060F23D1F810B0B3402CEAAF
:1014800003030BFA06F64FF0010B334313620368B4
:101490004E68E2431A4006F00303AB401A43F300E0
:1014A0000260A8D541F21803C4F202031A684FEA99
:1014B000980842F001021A601A68AEF57E7602F0D2
:1014C00001020192019A56F828C0B0F1904F0FD056
:1014D00040F20042C4F6000290423FF456AF40F69C
:1014E0000002C4F60002009B904208BF02234DE7B1
:1014F00000234BE702B0BDE8F08F0000426902EA2A
:101500000103914341EA0341816170471823002A96
:1015100008BF2823C150704740F20050C2F20000BB
:1015200000687047426C202A02D1026C012A01D166
:1015300002207047242242640268136823F00103EA
:101540001360136823F48053136013681943116008
:10155000116841F001011160202141640021016402
:1015600008467047426C202A02D1026C012A01D140
:1015700002207047242242640268136823F00103AA
:101580001360136823F4706343EA0121116011684A
:1015900041F00101116020214164002101640846ED
:1015A00070470000002804BF0120704710B50446B2
:1015B000406C20B900202064204600F03FF8242031
:1015C000606494E80310E368026821F0706122F01F
:1015D0000102026001618168012B21F400418160F8
:1015E0004FF4044108BF4FF4004141EA0C01022BC3
:1015F000816004BF4FF400614160416804F1100C48
:1016000041F0007141F400414160C16821F40041A2
:10161000C1609CE80E10114341EA0321C160216AB8
:1016200041EA0C010160016841F001010160002004
:101630002021E06461642063A06410BD2DE9F043C3
:1016400087B0006845F20041C4F2000188424FF0C3
:1016500000000690CDE90400CDE9020002D007B0F9
:10166000BDE8F08341F21405C4F20205286802AC1B
:1016700040F40030286028684FF0120800F4003071
:101680000190019828684FF0010940F480202860FB
:101690002868032600F48020019001984FF4004050
:1016A000029004274FF090402146CDF80C80CDF8F1
:1016B000109005960697FFF74DFE4FF4007002A9B3
:1016C00081E8010340F20040C4F600002146CDE964
:1016D0000567FFF73FFEA86840F40010A860A868FF
:1016E00000F400100190019807B0BDE8F0830000FD
:1016F00040F2080040F20051C2F20000C2F20001C4
:1017000000680A68104408607047000080B542F223
:101710000000C4F20200016841F0100101600320E2
:1017200000F05EF8002000F005F800F02BF8002033
:1017300080BD0000B0B540F20802C2F2000240F2E3
:1017400004011268C2F200014FF47A730968B3FB16
:10175000F2F20446B1FBF2F1084600F069FB0F2CEF
:101760004FF001050CD858B94FF0FF302146002248
:10177000002500F025F840F20C00C2F200000460E1
:101780002846B0BD82B041F21800C4F202000168E0
:1017900041F001010160016801F00101019101992D
:1017A000416841F080514160406800F080500090F5
:1017B000009802B07047000080B502F0C3F880BD09
:1017C00070B514460D46064602F0CCF8294622466E
:1017D00001F096FB0146304602F0CCF870BD0000E7
:1017E00080B502F0D9F880BD2DE9F04182B0044601
:1017F000807841F23006C007C4F2020655D056F890
:10180000140C10F080580BD156F8140C40F0805096
:1018100046F8140C56F8140C00F080500190019812
:1018200047F20007C4F200073868C00512D43868D0
:1018300040F480703860FFF76FFE05463868C005D9
:1018400008D4FFF769FE401B6428F7D9032002B0D3
:10185000BDE8F08156F8100C10F4407014D06168A7
:1018600001F4407188420FD056F8100C40F240420B
:10187000C4F24222012320F4407113600023C00708
:10188000136046F8101C4BD156F8100C616820F418
:1018900040700843B8F1000F46F8100C05D156F817
:1018A000140C20F0805046F8140C2068C1070BD1AE
:1018B000810611D4010617D4C1041FD4400425D4D5
:1018C000002002B0BDE8F0813168A26821F0030178
:1018D000114331608106EDD53168E26821F01001D5
:1018E000114331600106E7D556F8041C226921F442
:1018F000F871114346F8041CC104DFD531686269F0
:1019000021F48071114331604004D9D53068A16958
:1019100020F4805008433060002002B0BDE8F08120
:10192000FFF7FAFD054641F2883700BF56F8100C64
:101930008007A9D4FFF7F0FD401BB8424FF0030029
:10194000F4D9EAE72DE9F04381B0002878D042F2DB
:101950000008C4F202080446D8F800000D4600F062
:10196000070088420CD2D8F8000020F00700284376
:10197000C8F80000D8F8000000F00700A8425FD1C6
:10198000206841F204098107C4F2020907D5D9F899
:101990000010A26821F0F0011143C9F80010C0073F
:1019A00045D1D8F8000000F00700A8420CD9D8F8BB
:1019B000000020F007002843C8F80000D8F8000015
:1019C00000F00700A8423BD12068410707D5D9F8AD
:1019D0000010E26821F4E0611143C9F8001000072B
:1019E00008D5D9F80000216920F4605040EAC10010
:1019F000C9F8000000F066F8D9F8001043F6F622A6
:101A0000C1F30311C0F60002515C40F2040220FA57
:101A100001F140F20C00C2F200000068C2F20002C4
:101A20001160FFF787FE002001B0BDE8F083606819
:101A3000022809D0012828D159F8041C890307D4A9
:101A4000012001B0BDE8F08359F8041C8901F7D5E5
:101A5000D9F8001021F003010843C9F80000FFF78E
:101A60005BFD064641F28837D9F80000616800F056
:101A70000C00B0EB810F94D0FFF74EFD801BB842F5
:101A8000F2D9032001B0BDE8F08359F8041C89079E
:101A9000D6D5DDE740F20400C2F2000000687047CE
:101AA00080B5FFF7F7FF41F20401C4F202010968B3
:101AB00043F60632C1F30221C0F60002515CC84071
:101AC00080BD000041F2040CC4F2020CDCF80030CE
:101AD00003F00C00082841F20020C0F27A0018BF81
:101AE000704743F60E31C3F38342C0F600018A5CAF
:101AF000DCF82810DB0305D440F60010C0F23D00EE
:101B00005043704743F61E3301F00F01C0F6000347
:101B1000595CB0FBF1F05043704700002DE9F041F3
:101B200082B0002800F08F800446007841F2000661
:101B3000C007C4F202064BD0706800F00C00042805
:101B400006D13068800343D56068002840D17AE030
:101B5000706800F00C00082802D17068C003F0D44F
:101B600065682DB1B5F5A02F0AD0B5F5803F0BD033
:101B7000306820F480303060306820F4802006E047
:101B8000306840F480203060306840F4803030604D
:101B9000F06AA16820F00F000843F062FFF7BCFC78
:101BA000002D054611D000BF3068800310D4FFF728
:101BB000B3FC401B6428F7D908E100BFFFF7ACFC79
:101BC000401B64284FF003003AD830688003F5D4F6
:101BD0002078800718D5706810F00C0F07D0706857
:101BE00000F00C0008286CD17068C00369D430681C
:101BF000800702D52069012825D13068616920F06D
:101C0000F80040EAC1003060207800071FD4207837
:101C1000400732D4E56995B1706800F00C000828DF
:101C200040F08880012D0ED07068216A00F4803267
:101C30008A4208D1616A00F47010884203D1002002
:101C400002B0BDE8F081012002B0BDE8F081A069DA
:101C500000285BD00020C4F242200121C0F880148B
:101C6000FFF75AFC054600BF706A8007CFD4FFF724
:101C700053FC401B0228F7D9A8E0F06910F0805807
:101C800008D1F06940F08050F061F06900F08050B8
:101C90000190019847F20007C4F200073868C005B8
:101CA00026D4386840F480703860FFF735FC05466C
:101CB0003868C0051CD4FFF72FFC401B6428F7D9F7
:101CC00084E02069002840F20000C4F2422053D092
:101CD00001210160FFF720FC054600BF3068800746
:101CE0003FF58BAFFFF718FC401B0228F6D96DE0DB
:101CF000E5681DB1052D51D0012D53D0306A20F07B
:101D000001003062306A20F004004EE00020C4F28E
:101D100042200021C0F88014FFF7FEFB054600BFFB
:101D2000706A80077FF573AFFFF7F6FB401B022850
:101D3000F6D94BE00027C4F2422700203866FFF7AF
:101D4000EBFB022D05460BD13068800156D5FFF71D
:101D5000E3FB401B02284FF00300F5D970E700BFFA
:101D6000306880017FF56BAFFFF7D6FB401B022880
:101D70004FF00300F4D963E700210160FFF7CCFBCB
:101D8000054600BF306880077FF53EAFFFF7C4FB14
:101D9000401B02284FF00300F4D951E7306A40F0AD
:101DA00004003062306A40F001003062FFF7B4FB9B
:101DB000002D054641F2883714D000BF306A8007F5
:101DC00013D4FFF7A9FB401BB842F7D9032002B098
:101DD000BDE8F081FFF7A0FB401BB8424FF00300C5
:101DE0003FF62EAF306A8007F4D4B8F1000F7FF4CD
:101DF00011AFF06920F08050F0610BE77068D4E912
:101E0000082120F4741008431043706001203866E4
:101E1000FFF782FB044600BF306880013FF50FAF3B
:101E2000FFF77AFB001B02284FF00300F4D907E705
:101E300080B501F03DF980BD70470000704700009B
:101E40007047000010B5C26B012A04BF022010BD0C
:101E50000122C263D1E90232D1E900CE22F47C52E0
:101E600023F470531A4348F2FF73CFF6F07303EA7A
:101E70000E0342EA030E0A692CF477234EEA030CA0
:101E800022F476224B6942EA0C021A438B6A22F44E
:101E9000742223F4702342EA030C8B69D0F800E02B
:101EA00042F60042C4F2010296454CEA03430FD1C8
:101EB00023F07C72D1E9073C496A0024CFF6F04454
:101EC00004EA0151114323F00072114341EA0C036B
:101ED0000021CEF84430C163084610BD10B5C26B76
:101EE000012A4FF0020236D00123C3630264026864
:101EF00042F6004C5368D2F808E0C4F2010C624587
:101F000003D14C6823F4700323430C6823F070035F
:101F1000234342F6FF34C4F20104A242536009DCB9
:101F2000B2F1804F0ED040F20043C4F200039A4257
:101F300008D00CE044F20003C4F201039A4201D03D
:101F4000624504D189682EF0800319439160012114
:101F500000220164C263104610BD000010B50446A3
:101F600041B1082909D0042914BF04F1680004F123
:101F7000600004E004F15C0001E004F1640000682A
:101F800001281CBF012010BD41B1082909D0042936
:101F900014BF04F1680004F1600004E004F15C0087
:101FA00001E004F16400022202602068042201F0D2
:101FB00077F9216842F6FF32486CC4F2010240F41E
:101FC00000409142486409DCB1F1804F12D040F2E8
:101FD0000040C4F2000081420CD01EE044F2000038
:101FE000C4F20100814205D042F60040C4F2010073
:101FF000814212D188680722C0F201020240062AFB
:102000004FF000000ED0B2F5803F08BF10BD086849
:1020100040F001000860002010BD086840F0010099
:102020000860002010BD0000B0B504460068002222
:102030000D4601F035F9206841F21111026A0A4299
:1020400008D1026A40F244431A4203D1426C22F49E
:1020500000424264026A0A4204D1016A40F24442E8
:1020600011420DD0082D11D0042D06D0002D14BF23
:1020700004F1680104F15C010AE004F1600107E089
:10208000016821F001010160082DEDD104F1640126
:10209000012200200A60B0BD002804BF0120704763
:1020A00010B50446006C20B90020E063204600F023
:1020B00015F8022020642068211D01F083F801201A
:1020C000E0666064A064E06420656065A065E0652A
:1020D00020666066A0662064002010BD80B582B0D6
:1020E000006843F6FF71C4F2010188421FDD44F22B
:1020F0000001C4F20101884244D044F20041C4F21C
:10210000010188424AD044F60001C4F2010188422C
:1021100059D141F21800C4F20200016841F4802153
:102120000160006800F480200190019820E041F2F5
:102130000001C4F20001884247D042F60041C4F2D7
:10214000010188423FD141F21800C4F20200016847
:10215000002241F4006101600068002100F4006089
:10216000019001981920FFF72BFB1920FFF724FBA2
:102170001A2001210022FFF723FB1A20FFF71CFB86
:1021800002B080BD41F21800C4F20200016841F4BF
:1021900080310160006800F4803021E041F21800D5
:1021A000C4F202000168002241F4003101600068BD
:1021B000002100F40030019001981920FFF700FB86
:1021C0001920FFF7F9FA02B080BD41F21800C4F2FD
:1021D0000200416841F010014160406800F01000C9
:1021E0000190019802B080BD016C01291CBF012043
:1021F000704702210164016842F6FF30C4F2010019
:10220000814209DCB1F1804F12D040F20040C4F2AB
:10221000000081420CD01EE044F20000C4F2010034
:10222000814205D042F60040C4F20100814212D141
:1022300088680722C0F201020240062A4FF000001F
:102240000ED0B2F5803F08BF7047086840F001002B
:10225000086000207047086840F001000860002016
:1022600070470000016C01291CBF0120704702214A
:102270000164016842F6FF32C868C4F2010291426B
:1022800040F00100C86009DCB1F1804F12D040F28B
:102290000040C4F2000081420CD01EE044F2000075
:1022A000C4F20100814205D042F60040C4F20100B0
:1022B000814212D188680722C0F201020240062A38
:1022C0004FF000000ED0B2F5803F08BF704708689D
:1022D00040F00100086000207047086840F00100ED
:1022E000086000207047000010B50446C06B01284C
:1022F0004FF0020008BF10BD0122E2632064206895
:1023000088238268CFF6FE731A4082600A683F2AEB
:1023100014DD5F2A18DD602A28D0B2F5005F2DD0C9
:10232000702A40D1D1E9012CCB68614600F0CAFF88
:102330002068816841F07701816034E01F2A0FDC5A
:1023400092B1102A10D02EE0402A23D0502A2AD150
:102350004B68CA68194601F021F92068502120E035
:10236000202A01D0302A1ED111461AE04B68CA68D3
:10237000194601F025F92068602112E0D1E9012C0D
:10238000CB68614600F09EFF2068816841F480417F
:10239000816008E04B68CA68194601F0FFF82068C0
:1023A000402100F09BFF012020640020E06310BD6D
:1023B0007047000010B5044600680169890744BFF2
:1023C000C1685FEA817140D420680169490744BF50
:1023D000C1685FEA417144D420680169090744BFBC
:1023E000C1685FEA017149D420680169C90644BF28
:1023F000C1685FEAC1614DD420680169C9071CBF8B
:10240000C1685FEAC17152D120680169090644BF01
:10241000C1685FEA016151D420680169C90544BF00
:10242000C1685FEA016150D420680169490644BF70
:10243000C1685FEA41614FD420680169890644BFE1
:10244000C1685FEA81614ED410BD6FF00201016185
:102450000121E161806980074CD02046FFF7A8FF89
:102460004EE06FF0040101610221E161806910F426
:10247000407F48D02046FFF79BFF4AE06FF00801FD
:1024800001610421E161C069800745D02046FFF762
:102490008FFF47E06FF0100101610821E161C06921
:1024A00010F4407F41D02046FFF782FF43E06FF0F9
:1024B00001010161204600F0EBF9A5E76FF0800112
:1024C00001612046FFF7BAFCA6E76FF48071016155
:1024D0002046FFF7B1FCA7E76FF0400101612046FD
:1024E00000F0D8F9A8E76FF0200101612046FFF75E
:1024F000A7FC10BD204600F06DF8204600F0EAF879
:102500000020E06160E7204600F064F8204600F01B
:10251000E1F80020E0615FE7204600F05BF820462C
:1025200000F0D8F80020E0615EE7204600F052F8A5
:10253000204600F0CFF80020E0615DE72DE9F04192
:1025400086B0006842F60041C4F2010100258842CD
:10255000CDE90455CDE90255019502D006B0BDE89C
:10256000F08141F21400C4F20200016801AC41F4B0
:102570008021016001684FF0020801F48021009180
:1025800000990168032741F40031016000680626C4
:1025900000F40030009000984FF48040019040F229
:1025A0000040C4F600002146CDE902850497059657
:1025B000FEF7D0FE4FF40070CDE901084FF09040D7
:1025C0002146CDE903570596FEF7C4FE06B0BDE8E7
:1025D000F081000070470000B0B50446C06B0128D0
:1025E00004BF0220B0BD4FEAB2000D46012105280C
:1025F000E16347D8DFE800F0030B131B23332068A7
:10260000294600F073FE206850F8181F1EE020686D
:10261000294600F0ABFE206850F8181F26E020681D
:10262000294600F0E7FE206850F81C1F0EE02068E5
:10263000294600F023FF206850F81C1F16E0206890
:10264000294600F04BFF206850F8541F41F0080164
:102650000160016821F00401016029690FE0206830
:10266000294600F06BFF206850F8541F41F40061C8
:102670000160016821F48061016029690902026832
:10268000114301600020E063B0BD0000002804BFDA
:102690000120704710B50446006C20B90020E063AB
:1026A000204600F015F8022020642068211D00F06B
:1026B00089FD0120E0666064A064E06420656065D7
:1026C000A065E06520666066A0662064002010BDFD
:1026D0007047000070470000B0B5044659B1081FAC
:1026E0004FEAB000032809D8DFE800F0020B0E1112
:1026F00004F148000DE004F144000AE004F1580040
:1027000007E004F14C0004E004F1500001E004F1A2
:102710005400006801281CBF0120B0BD59B1081F3A
:102720004FEAB000032809D8DFE800F0020B0E11D1
:1027300004F148000DE004F144000AE004F15800FF
:1027400007E004F14C0004E004F1500001E004F162
:1027500054000222026020680122012500F08EFD53
:102760002168A1F18040A0F596304FEAB0200728FB
:1027700008D805FA00F010F0E10F1EBF486C40F4D5
:102780000040486442F6FF30C4F20100814209DC97
:10279000B1F1804F12D040F20040C4F200008142FB
:1027A0000CD01EE044F20000C4F20100814205D0CA
:1027B00042F60040C4F20100814212D1886807222B
:1027C000C0F201020240062A4FF000000ED0B2F51E
:1027D000803F08BFB0BD086840F0010008600020DD
:1027E000B0BD086840F0010008600020B0BD0000E6
:1027F000B0B50446006800220D4600F03FFD206899
:10280000A0F18041A1F596314FEAB121072913D8F3
:10281000012202FA01F111F0E10F0DD0016A41F23B
:102820001112114208D1016A40F24442114203D10F
:10283000416C21F400414164016A41F211121142DC
:1028400008D1016A40F24442114203D1016821F0EB
:10285000010101604FEAB500042807D8DFE800F065
:1028600003090C0F120004F144010DE004F15801BA
:102870000AE004F1480107E004F14C0104E004F12E
:10288000500101E004F15401012200200A60B0BDB2
:10289000704700007047000010B598B10446806F83
:1028A00020B900206067204600F024F82420A067AB
:1028B0002068016821F001010160204600F03AFF24
:1028C000012801D1012010BD606A10B1204600F03E
:1028D00089FE2068416821F490414160816821F0BF
:1028E0002A018160016841F001010160204600F089
:1028F000EDFE10BD80B586B0006843F60002C4F25C
:10290000010200219042CDE90411CDE902110191AB
:1029100001D006B080BD41F21400C4F2020042684A
:1029200042F480424260426802F480420092009A7F
:10293000026842F480220260006800F48020009067
:102940000098C02001900220CDE9020103200490EC
:102950000720059040F20040C4F6000001A9FEF7F0
:10296000F9FC06B080BD0000FEE7000010B58AB09B
:1029700040F2C4000024C2F200004FF0A041012246
:102980004FF4806C4FF4507E0623C0E9001400F130
:1029900010010994CDE90744CDE90544CDE903448C
:1029A000CDE90144C0E908340423C0E902441CC154
:1029B000C261C0E90BECC0E90D44FEF719F900282B
:1029C00018BFFDF791FD40F2C400C2F2000007A954
:1029D0000794FDF78FFD002818BFFDF785FD012046
:1029E000CDE901000020CDE90300CDE9050040F26A
:1029F000C400C2F2000001A9FDF702FE002818BFC2
:102A0000FDF772FD0220CDE9010040F2C400C2F2E0
:102A1000000001A9FDF7F4FD002818BFFDF764FDD3
:102A20000320CDE9010040F2C400C2F2000001A978
:102A3000FDF7E6FD002818BFFDF756FD0420CDE99F
:102A4000010040F2C400C2F2000001A9FDF7D8FD68
:102A5000002818BFFDF748FD0B20019005200290CB
:102A600040F2C400C2F2000001A9FDF7C9FD002830
:102A700018BFFDF739FD0C2001900620029040F2AE
:102A8000C400C2F2000001A9FDF7BAFD002818BF7A
:102A9000FDF72AFD0AB010BD80B540F218102021C4
:102AA000C2F20000C4F20101502200234FF02A0CB0
:102AB00080E80E100121036183614162FEF79AFAFA
:102AC000002818BFFDF710FD80BD000010B584B0D0
:102AD00040F24C1047F200410024C2F20000C4F260
:102AE00000010394CDE901440160FEF753FB002887
:102AF00018BFFDF7F9FC3C20019040F24C10C2F2E7
:102B0000000001A910220394FEF710FB002818BF53
:102B1000FDF7EAFC04B010BD80B582B041F21400AC
:102B2000C4F202000168002241F001010160006866
:102B3000072100F00100019001980B20FEF740FEF4
:102B40000B20FEF739FE02B080BD00002DE9F041F8
:102B500086B0002641F214000596CDE90366CDE962
:102B60000166C4F202000168002241F480010160A4
:102B70000168402501F4800100910099016841F449
:102B800000310160016801F4003100910099016891
:102B900041F4802101600068402100F48020009011
:102BA00000984FF09040FEF7B1FC40F20044C4F6AC
:102BB00000042046182100224FF01808FEF7A6FC5A
:102BC000019501AD01274FF090402946CDE90276ED
:102BD0000496FEF7BFFB0220CDE9030620462946F6
:102BE000CDE90187FEF7B6FB06B0BDE8F081000035
:102BF00080B540F2AC1045F20041C2F20000C4F2D0
:102C0000000141F63F620023C0F210024FF0010CB8
:102C100080E80E10C0E90433C0E906330362FEF712
:102C2000C1FC002818BFFDF75FFC40F2AC10C2F2F7
:102C300000000021FEF776FC002818BFFDF754FCC9
:102C400040F2AC10C2F200000021FEF78BFC00281D
:102C500018BFFDF749FC80BD80B588B040F27020F8
:102C600044F200020021C2F20000C4F20102472334
:102C70004FF6FF7C0791CDE90511CDE90311CDE9B0
:102C80000111C0E90023C0E9021CC0E904118161FF
:102C9000FFF702FA002818BFFDF726FC4FF480501A
:102CA000049040F27020C2F2000004A9FFF71CFB60
:102CB000002818BFFDF718FC00200190039040F297
:102CC0007020C2F2000001A9FFF708F9002818BF20
:102CD000FDF70AFC08B080BD80B540F2E02044F268
:102CE0000041C2F20000C4F2010100234FF0800E47
:102CF000472240F2E73C80E80E10C0E90433C0F8F8
:102D000018E0FFF7C9F9002818BFFDF7EDFB80BDFB
:102D100080B540F2503044F60001C2F20000C4F227
:102D20000101002240F60F634FF0800CC0E9001251
:102D3000C0E90223C0E90422C0F818C0FFF7ACF9CB
:102D4000002818BFFDF7D0FB80BD000010B59AB079
:102D5000002401A82C21CDE91844CDE91644CDE981
:102D60001444CDE91244CDE91044CDE90E44CDE937
:102D70000C44FDF779FA40F2002042F60041C2F21D
:102D80000000C4F2010141F61F42C0E90014C0E98D
:102D90000242C0E904448461FFF77EF9002818BFAD
:102DA000FDF7A2FB4FF48050169040F20020C2F2D3
:102DB000000016A9FFF798FA002818BFFDF794FB4A
:102DC00040F20020C2F20000FFF760FC002818BFAC
:102DD000FDF78AFB40F200200024C2F2000013A994
:102DE000CDE913441594FFF779F8002818BFFDF7D3
:102DF0007BFB6020CDE90C0440F20020C2F2000011
:102E00000CA90422CDE90E44CDE910441294FFF739
:102E1000E3FB002818BFFDF767FB00203221CDE956
:102E200004104FF40051CDE906104FF00071CDE9C8
:102E3000010003900890CDE909100B9040F20020AA
:102E4000C2F2000001A9FEF7FDFF002818BFFDF740
:102E50004BFB40F20020C2F20000FFF76FFB1AB0FC
:102E600010BD000010B584B040F2C03041F2000146
:102E70000024C2F20000C4F2000141F61F42C0E982
:102E8000001480210394CDE90144C0E9024281612C
:102E9000FFF702F9002818BFFDF726FB202001905C
:102EA00040F2C030C2F2000001A90394FFF716F807
:102EB000002818BFFDF718FB04B010BD80B540F224
:102EC000304043F60001C2F20000C4F201010023C9
:102ED0004FF00C0C4FF4164280E80E00C0E90333AB
:102EE000C0E905C3C0E907334362FFF7D5FC0028FA
:102EF00018BFFDF7F9FA80BDFEE70000FEE700000D
:102F000000F0070080F00703042B28BF04234FF0D4
:102F1000FF3C03380CFA03F338BF0020994381408B
:102F20000CFA00F022EA000008437047E0B3017891
:102F300090ED0F1A90ED102A80ED070A30EEC00ACE
:102F40000129C0ED060A80ED0F0A80ED101A80ED10
:102F5000112A2CD000297AD190ED024A90ED0A6A0C
:102F600090ED012A90ED053A20EE044A90ED035AC7
:102F700036EE044A20EE022AD0E90C1230EE410A65
:102F8000B4EE434A80ED0C0A20EE050AF1EE10FA89
:102F900080ED092A80ED0A4AC0E90D1280ED0B0A86
:102FA0003BDD80ED0A3A41E09FED320A704790ED3B
:102FB000015A90ED026A30EE414A31EE011A90ED6D
:102FC000037A24EE054A20EE065A30EE410A32EE2C
:102FD000000AD0E90C1280ED0C0A20EE070A34EE4C
:102FE000051A90ED082A90ED043A80ED0B0A31EEB7
:102FF000000A32EE000AB4EE430AF1EE10FA80ED58
:10300000094A80ED0A5AC0E90D1280ED080A21DD57
:1030100080ED083A90ED080A7047B1EE433AB4EEFD
:10302000434AF1EE10FAB8BF80ED0A3A90ED0A3A41
:1030300090ED041A32EE032A30EE020AB4EE410A91
:10304000F1EE10FA80ED080A07DD80ED081A90ED28
:10305000080A7047B1EE431A01E0B1EE411AB4EE2E
:10306000410AF1EE10FAB8BF80ED081A90ED080A97
:10307000704700BF00000000002818BF002A00D1E0
:10308000704780B501701168416051688160916836
:1030900080ED040AC160C0ED050A20302821FDF74B
:1030A000E3F8BDE8804070477047000070470000BB
:1030B000B0B501380024B4EB106F1CBF0120B0BDC7
:1030C0004EF21005CEF2000568604FF0FF300F2180
:1030D00000F050FC0720AC6028602046B0BD000026
:1030E00080B5FEF705FB80BD70B596B00CAC2046F0
:1030F0002821FDF7B9F8032000250C904FF480300B
:103100000226CDE90D050121CDE913604FF4E01051
:103110001091102115902046CDE90A55CDE90855AA
:10312000CDE90655CDE90455CDE90255CDE9005567
:103130001191FEF7F3FCE8B90F20CDE907064FF433
:103140008060CDE90A0507A802210995FEF7FAFB80
:1031500080B941F2A100009000204FF480710290EC
:10316000CDE9030105906846FEF73EFB002804BF49
:1031700016B070BDFDF7B8F94EF68850CEF20000DB
:10318000016841F4700101607047000080B540F2B1
:103190000020C2F20000FFF70DF940F25030C2F2F9
:1031A0000000FFF707F980BD80B540F20020C2F2B1
:1031B0000000FFF7FFF840F2E020C2F20000FFF746
:1031C000F9F880BD80B50268B0F1804F0BD042F6AF
:1031D0000043C4F20103984205D040F20043C4F218
:1031E0000003984203D14B6822F070021A4343F661
:1031F000FF73C4F2010398420BDCB0F1804F1AD088
:1032000040F20043C4F20003984214D042F6004357
:103210000DE044F20003C4F2010398420BD044F6DF
:103220000003C4F20103984205D044F20043C4F203
:103230000103984203D1CB6822F440721A434B69D0
:1032400022F0800E8A6843EA0E03D1F800C00360C2
:10325000C262A0F18042A2F596324FEAB222072A5A
:10326000C0F828C007D8012303FA02F212F0E10FD8
:103270001CBF096901630121416180BD80B501F076
:103280001F014FF0010CD0F820E00CFA01F32EEAF8
:1032900003030362036A02FA01F11943016280BD6C
:1032A00080B501F01F014FF0040CD0F820E00CFABB
:1032B00001F32EEA03030362036A02FA01F11943E0
:1032C000016280BDD0F808C011432CF47F4C41EA64
:1032D000032141EA0C01816070470000826822F0FE
:1032E0007002114341F0070181607047B0B5026A76
:1032F000A0F1804422F001020262036A4268D0F821
:1033000018C08D68A4F59634D1F800E023F00203CC
:103310004FEAB424072C43EA05030AD80125A54047
:1033200015F0E10F1FBFCD6823F00C0325F0040555
:103330002B43072C0BD8012505FA04F414F0E10FF8
:103340001FBF22F44072D1E9054522432A434FF6BC
:103350008C74CFF6FE740CEA040545EA0E05426053
:103360008561496841630362B0BD0000B0B5026A7F
:1033700042F6004422F010020262026AC4F2010422
:103380004368D0F818C0A0428C6822F0200242EABC
:10339000041208D1CC6822F0C00E6FF0400202EA9D
:1033A000041242EA0E02A0F18044A4F59634D1F84A
:1033B00000E04FEAB424072C0DD8012505FA04F4E7
:1033C00014F0E10F1FBF23F44063D1E9054543EA40
:1033D000840343EA850348F6FF44CFF6FF640CEA12
:1033E000040545EA0E2543608561496881630262F0
:1033F000B0BD0000B0B5026A42F6004422F480720B
:103400000262026AC4F201044368D0F81CC0A04200
:103410008C6822F4007242EA042209D1CC6822F4BA
:10342000406E240240F2FF4224EA020242EA0E0207
:10343000A0F18044A4F59634D1F800E04FEAB4241A
:10344000072C0DD8012505FA04F414F0E10F1FBF75
:1034500023F44053D1E9054543EA041343EA051335
:103460004FF68C74CFF6FE740CEA040545EA0E059F
:103470004360C5614968C1630262B0BD70B5026A4C
:10348000A0F1804522F480520262A5F59635D0F86D
:1034900020C04268C3690C68D1F808E04FEAB5253E
:1034A000072D0AD8012606FA05F515F0E10F1EBF13
:1034B0004D6922F4804242EA851248F6FF45CFF674
:1034C000FF652B4043EA04234260C3612CF400569D
:1034D000496846EA0E320164026270BD70B5026A44
:1034E000A0F1804522F480320262A5F59635D0F82D
:1034F00020C04268436D0C68D1F808E04FEAB5255A
:10350000072D0AD8012606FA05F515F0E10F1EBFB2
:103510004D6922F4803242EA05224FF68F75CFF6CC
:10352000FE752B402343426043652CF40036496806
:1035300046EA0E428165026270BD000070B5026A03
:10354000A0F1804522F480120262A5F59635D0F8EC
:1035500020C04268436D0C68D1F808E04FEAB525F9
:10356000072D0AD8012606FA05F515F0E10F1EBF52
:103570004D6922F4802242EA852248F6FF75CFF693
:10358000FF652B4043EA0423426043652CF4001698
:10359000496846EA0E52C165026270BDD0F820C08B
:1035A000036A23F001030362836923F0F00343EA13
:1035B00002122CF00A031943826101627047000075
:1035C000036A23F0100303628369D0F820C023F458
:1035D000704343EA02322CF0A00343EA01118261F6
:1035E0000162704780B5416ACA070CD18A0715D4B9
:1035F0004A071ED40A0727D4CA0630D48A0639D40B
:103600004A0657D541E00268D0F828C0536823F431
:10361000003343EA0C0353608A07E9D50268D0F807
:103620002CC0536823F4803343EA0C0353604A07E9
:10363000E0D50268D0F830C0536823F4802343EA11
:103640000C0353600A07D7D50268D0F834C053681A
:1036500023F4004343EA0C035360CA06CED5026844
:10366000D0F838C0936823F4805343EA0C03936086
:103670008A06C5D50268D0F83CC0936823F400538D
:1036800043EA0C0393604A0614D50268D0F840C0A0
:103690005368BCF5801F23F4801343EA0C03536086
:1036A00008D1D2F804C0D0F844E02CF4C00343EAB7
:1036B0000E035360090658BF80BD0168806C4A68DC
:1036C00022F400221043486080BD0000B0B582B0F3
:1036D00004460020C4F88000FDF71EFF216805465F
:1036E000096809070BD56FF07E4C20464FF4001196
:1036F00000222B46CDF800C000F0CAF878B9206847
:10370000006840070ED56FF07E4C20464FF48001D4
:1037100000222B46CDF800C000F0BAF810B103200B
:1037200002B0B0BD2020A067E0670020206660677F
:1037300002B0B0BDB0B5044602688068D4E9033178
:1037400065690143D4F81CC02943156846F6F31097
:10375000CEF6FF7041EA0C01284008431060506823
:1037600020F4405018435060A069216A93680843D0
:1037700023F430610843906044F20040C4F200003A
:1037800082424FF0000117D044F60000C4F200005E
:10379000824211D043F60000C4F2010082420AD1F5
:1037A00041F23000C4F20200006835A100F00300CD
:1037B00051F8201000E0102141F20020BCF5004F2C
:1037C000C0F27A000ED108291BD80025DFE801F0ED
:1037D000051920191D19191933000025FEF760F984
:1037E000B8B941E008292CD80025DFE801F0052A06
:1037F000312A2E2A2A2A42000025FEF751F940BB21
:1038000032E00020012520B92EE00025FEF75AF90C
:1038100050B361684A0802EB4000B0FBF1F14FF68B
:10382000F070084005D0C1F3420122680843D0601F
:103830001AE0012518E04FF4004000250028E8D1E7
:1038400012E00020012520B90EE00025FEF73AF92C
:1038500050B1616800EB5100B0FBF1F080B210286C
:1038600026BF2168C8600125002128466166A1663F
:10387000B0BD4FF4004000250028EAD1F4E700BFB6
:10388000000000000400000008000000020000002A
:103890002DE9F04381B004460068C0690840401A31
:1038A000B0FA80F04009904235D1DDF8208015460D
:1038B0000E46994608F1010709E000BF2068C0697B
:1038C0003040801BB0FA80F04009A84223D1002F7D
:1038D000F4D0FDF721FE2168B8F1000F0A681ED070
:1038E000A0EB090040451AD8500744BFC8695FEAF9
:1038F0000050E3D54FF400600862086820F4D070EF
:103900000860886820F0010088602020A067E067D8
:10391000C4F880000DE0002001B0BDE8F08322F47F
:10392000D0700860886820F0010088602020A067BF
:10393000E06700206067032001B0BDE8F08300006D
:10394000FEE70000002848BF704700F01F01012279
:1039500002FA01F14EF200124009CEF2000242F8E2
:10396000201070474EF60C50CEF200000068C0F3F5
:10397000022070474EF6145300F00F02CEF20003FF
:1039800009011A4400F16043B0F1FF3FC8BF03F5DD
:1039900064421170704700004EF60C51CEF20001E7
:1039A0000A684FF6FF031A4060F30A2242F0806073
:1039B00040F0FD7008607047FDF7A8FEFFF794FB2C
:1039C000FFF7C4F8FFF7A8F8FFF7A2F9FEF7CEFF5C
:1039D000FFF762F8FFF77AF8FFF70AF9FFF76EFAD8
:1039E000FFF77AF9FFF738F9FFF73CFAFFF7AEF97E
:1039F0009FED260A40F2B44043F63032C2F2000096
:103A0000C0F600020121F0EE400AFFF735FB40F25C
:103A10000044C4F60004204608210022FDF776FD8C
:103A2000204610210022FDF771FD4FF0904040210B
:103A30000022FDF76BFD40F20024C2F20004204694
:103A40000421FEF749FE20460421FEF787FA40F2E2
:103A5000C030C2F20000FEF7C7FB40F25030C2F2A5
:103A60000000FEF7FFFB40F2E020C2F20000FEF78C
:103A7000F9FB40F2C40040F27801C2F20000C2F249
:103A800000011E22FDF70AFAFEE700BF00F8E0453C
:103A900042F63841C4F201010860704710B540F2A7
:103AA0000044C4F60004204608210022FDF72EFD44
:103AB000204610210122FDF729FD10BD10B540F26E
:103AC0000044C4F60004204610210022FDF71EFD2C
:103AD000204608210122FDF719FD10BDF1EE100A64
:103AE0004FF6FF71C0F2C03120EA010040F0407093
:103AF000E1EE100A70470000000000000000010223
:103B00000304060708090000000001020304020381
:103B10000405060708090A0B0C0D0E0F1010010210
:103B2000030405060708090A0B0C0D0E0F10000010
:103B3000000000000000000000000000603B0008E2
:103B40000000002018000000C4010008783B0008B5
:103B500018000020F80A0000E00100080000000042
:103B6000F401000000127A000100000010000000C3
:083B700001000000000000004C
:040000050800018965
:00000001FF
