:020000040800F2
:10000000300B002029020008693800080D30000874
:100010006538000889040008553E0008000000000B
:10002000000000000000000000000000CD380008C3
:100030000505000800000000C93800080139000863
:10004000430200084302000843020008430200087C
:10005000430200084302000843020008430200086C
:100060004302000843020008430200089D04000800
:10007000430200084302000843020008430200084C
:10008000430200084302000843020008430200083C
:10009000430200084302000843020008430200082C
:1000A00043020008C1390008B139000843020008C2
:1000B0004302000843020008000000004302000859
:1000C0004302000800000000000000004302000896
:1000D0000000000043020008430200084302000839
:1000E0004302000843020008000000000000000076
:1000F0000000000000000000000000000000000000
:1001000000000000000000000000000000000000EF
:100110000000000000000000430200084302000845
:1001200000000000000000000000000000000000CF
:1001300000000000000000000000000000000000BF
:100140008D0400084302000800000000430200087C
:10015000430200084302000843020008430200086B
:1001600043020008430200080000000000000000F5
:10017000000000000000000000000000000000007F
:10018000000000004302000800F002F800F03CF814
:100190000AA090E8000C82448344AAF10107DA45E2
:1001A00001D100F031F8AFF2090EBAE80F0013F0F8
:1001B000010F18BFFB1A43F001031847F446000073
:1001C00014470000103A24BF78C878C1FAD8520703
:1001D00024BF30C830C144BF04680C6070470000C1
:1001E0000023002400250026103A28BF78C1FBD840
:1001F000520728BF30C148BF0B6070471FB504F0DD
:100200005AFA1FBD10B510BD00F06CF81146FFF78B
:10021000F5FF03F05BFE00F08AF803B4FFF7F2FF8E
:1002200003BC00F08DF800000948804709480047EA
:10023000FEE7FEE7FEE7FEE7FEE7FEE7FEE7FEE796
:10024000FEE7FEE704480549054A064B70470000F3
:100250009D3900088901000830050020300B00207E
:1002600030070020300700204FF0000200B5134691
:1002700094469646203922BFA0E80C50A0E80C50C6
:10028000B1F12001BFF4F7AF090728BFA0E80C5077
:1002900048BF0CC05DF804EB890028BF40F8042B70
:1002A00008BF704748BF20F8022B11F0804F18BFDD
:1002B00000F8012B704770477047704710B500F089
:1002C00009F8006810BD10B5044600F003F804609A
:1002D00010BD000000487047100000200048704723
:1002E000100000207546FFF7F9FFAE46050069468D
:1002F000534620F00700854618B020B5FFF7A2FF4F
:10030000BDE820404FF000064FF000074FF0000816
:100310004FF0000BAC46ACE8C009ACE8C009ACE853
:10032000C009ACE8C00921F007018D46704710B53F
:100330000446AFF300802046BDE81040FFF76DBFD4
:1003400001491820ABBEFEE72600020070470000FE
:1003500080B50146806A426C12F0500F04D0C06B29
:10036000426B0846904780BD0168426C42F40072BF
:100370004264C96811F4406F02D000F0E5FA80BD14
:10038000C1690029F9D1416C21F480714164416C4B
:10039000C904F2D4416C41F00101416400F0D4FA87
:1003A00080BD000080B5806A416C41F0400141642D
:1003B000816C41F00401816400F09EFB80BD00006F
:1003C00080B5806A00F096FB80BD0000B0B50446A1
:1003D0000068816801F00301012902D10168C907A1
:1003E00001D10020B0BD816801F00D01012912D1B9
:1003F000816841F0020181600321016001F034F95C
:10040000054600BF20688068C007EAD001F02CF9DB
:10041000401B0328F6D3606C40F010006064A06CB1
:1004200040F00100A0640120B0BD0000B0B504465A
:100430000068816801F00301012902D10168C90740
:100440001FD181683F22C8F2000211420FD181689A
:1004500041F00101816001F007F90546206800685C
:10046000C0070ED101F000F9401B0328F6D3606CE1
:1004700040F010006064A06C40F00100A064012016
:10048000B0BD0020B0BD0000FEE7000080B540F226
:100490007810C2F2000000F007FD80BD80B540F288
:1004A000C410C2F2000000F04BFF80BD01684FF69F
:1004B000F872CBF6FD7211444CF6CD42CCF6CC422C
:1004C000A1FB02126FF0030101EA92010022C4F2C3
:1004D0000202C0E910217047B0B5D0E900CED0E9E2
:1004E0001040012505FA00F060600846CCF80430A1
:1004F000BEF1100F04BF10460A46CCF80800CCF835
:100500000C20B0BD70470000EFF3108072B600BF42
:10051000FEE7000070B5026C012A04BF022070BD26
:100520000368012202649A68520744D440F2083CEE
:100530004FF60052C5F2000CCFF6FF72B3F1A04F98
:1005400004BF4FF60062CFF6FF7252F80C4064070A
:1005500031D4D1F800E0DCF80040BEF1000F24F403
:10056000604431D04D68466B2C4344EA4634CCF8A5
:1005700000409C6804F00304012C02D11C68E407CD
:1005800045D152F80C2002F00302012A09D14FF0A4
:10059000A042B3F1A04F08BFACF502721268D207B7
:1005A00037D1DCF80020896840F61F739A4341EA8E
:1005B0000E01114327E0416C41F02001416401210B
:1005C00000220264084670BDCCF80040996801F032
:1005D0000301012902D11968C9071CD152F80C1076
:1005E00001F00301012909D14FF0A041B3F1A04F5F
:1005F00008BFACF502710968C9070ED1DCF800101C
:1006000040F61F729143CCF800100021D8E700217A
:10061000D6E70021D4E70021D2E70021D0E700008F
:10062000F0B581B000220092026C012A01D10221B2
:1006300086E10122D0F800C00264DCF808205207ED
:1006400000F1F5804A68042A05D802EB42020CF159
:10065000300E520019E0092A06D80CF1340E02EBD4
:1006600042026FF01D040EE00E2A06D80CF1380E7F
:1006700002EB42026FF03B0405E00CF13C0E02EB92
:1006800042026FF0590404EB4202DEF800401F23DF
:100690000D68934024EA030305FA02F21A43CEF8E8
:1006A0000020DCF8082012F00C0F28D0DCF808201D
:1006B00002F00302012A04D1DCF80020D20740F046
:1006C0003C810A68CB680127012B07FA02F34BD162
:1006D000DCF8B0700A2A43EA0703CCF8B03049D3FB
:1006E00002EB4202DCF818301B3A07278E6897406D
:1006F000BB4306FA02F21A43CCF8182048E00F6810
:10070000142507EB4702092F88BF1E3A88BF18251A
:100710005CF8054007238E68934024EA030306FA39
:1007200002F21A434CF80520D1E9042EDCF80C4003
:10073000013A032A00F28180062303EA94030EFAA9
:1007400003FEDFE802F002ACBBCADCF860204FF227
:100750000003C0F2FF331A404EEA87631A4342F0A7
:100760000042CCF86020A1E7DCF8B0209A43CCF836
:10077000B0200DE002EB4202DCF814300332072710
:100780008E689740BB4306FA02F21A43CCF8142055
:100790000B6840F20831102BC5F2000102D10A6843
:1007A00012020ED5122B08D0112B40F0C6800A6819
:1007B000D20106D5122B40F0C0800A68520200F127
:1007C000BC80DCF8082002F00302012A03D1DCF827
:1007D0000020D2072BD14FF60052CFF6FF72BCF1AA
:1007E000A04F04BF4FF60062CFF6FF72525802F0DE
:1007F0000302012A09D14FF0A042BCF1A04F08BF6B
:10080000A1F502721268D20711D1BCF1A04F08BF46
:10081000102B71D0BCF1A04F08BF112B00F08980C4
:10082000122B40F08A800A6842F4800284E0416C16
:1008300041F020014164012180E0DCF86020BB062A
:1008400002F0F842B2EB876F05D1DCF8602022F0AD
:100850000042CCF86020DCF8642002F0F8429A42B2
:1008600005D1DCF8642022F00042CCF86420DCF8EA
:10087000682002F0F8429A4205D1DCF8682022F0A4
:100880000042CCF86820DCF86C2002F0F8429A4272
:100890007FF40CAFDCF86C2022F0004229E0DCF899
:1008A00064204FF20003C0F2FF331A404EEA876320
:1008B0001A4342F00042CCF86420F7E6DCF86820E6
:1008C0004FF20003C0F2FF331A404EEA87631A4327
:1008D00042F00042CCF86820E8E6DCF86C204FF2E9
:1008E0000003C0F2FF331A404EEA87631A4342F016
:1008F0000042CCF86C20D9E60A6842F400020A6093
:1009000040F20001C2F2000109684DF68362C4F2B0
:100910001B32A1FB0212910C01EB810149000091F5
:10092000009951B100990139009100990029F9D13C
:1009300003E00A6842F080720A600021002202642B
:10094000084601B0F0BD000040F22411C2F20001DF
:10095000884218BF704770B540F276014CF6CD431F
:1009600040F2B2020020C2F20001CCF6CC43C2F247
:10097000000200BF00266FF00B0500BF4C19A489D0
:100980000C35302D2644F9D1A6FB0365AE0822F8BC
:1009900010600130062801F10201EBD140F274032E
:1009A000C2F200031088198840F20402884240F223
:1009B0007001C2F20002C2F2000120D916889FED38
:1009C000481A861B00EE106AB8EEC00A9FED452A51
:1009D00020EE010A20EE020AB3EE041A80EE010AAC
:1009E0009FED411A9FED412A188020EE010A9FEDEC
:1009F000401A20EE020A30EE010A81ED000A168844
:100A0000B04220D21B889FED361A1B1A00EE103A16
:100A1000B8EEC00A9FED332A20EE010A20EE020A4A
:100A2000B3EE041A80EE010A9FED2F1A9FED2F2AD4
:100A3000108020EE010A9FED2E1A20EE020A30EE01
:100A4000010A81ED000AA0F26C7000EE100A9FED21
:100A5000241AB8EEC00A9FED232A20EE010A20EEE8
:100A6000020AB3EE041A80EE010A9FED1F1A9FEDF1
:100A7000202A20EE010A9FED1D1A20EE010A30EE19
:100A8000020A10EE100A03F0A5FD02460B4603F021
:100A9000B5FB40F22456C2F20006044630680D460B
:100AA00003F098FD02460B462046294603F0FEFA65
:100AB00003F0CAFA40F22851C2F200010A883060FD
:100AC000501C088040F2241040F27601C2F200006F
:100AD000C2F200011E2200F065F9BDE870407047C7
:100AE000000080393333534000007F434A0CC23F3B
:100AF000D509E83D7047000070470000B0B582B0EE
:100B000004460020002C01903ED0606CC0063ED40C
:100B1000606C002500283DD12046A564C4E913552A
:100B2000256400F0DDF820688068C00032D42046DB
:100B3000FFF74CFC616C054601F01000284329D1F9
:100B40002068616C41F20212914302316164816854
:100B500021F040518160816841F08051816040F214
:100B60000000C2F2000000684DF68361C4F21B3140
:100B7000A0FB0101880C00EB80004000019001986F
:100B800038B101980138F9E7012002B0B0BD002565
:100B900012E0002520688168C90002D580688000C5
:100BA0000AD5606C012540F0100020F0020060645E
:100BB000A06C40F00100A064606C00F010002843BD
:100BC0004FD12068816849074BD4616C21F4817151
:100BD00002316164816801F00301012902D10168D9
:100BE000C90723D14FF6005240F20831CFF6FF7209
:100BF000C5F20001B0F1A04F04BF4FF60062CFF67E
:100C0000FF72525802F00302012A09D14FF0A042AC
:100C1000B0F1A04F08BFA1F502721268D20705D14A
:100C20000A68636822F440321A430A60D4E902C3B6
:100C3000E269A16B656A43EA4233012918BF43F4B4
:100C40008053012D43EA0C011CD1A2B1626C42F029
:100C5000200222F002026264A26C42F00102A2644D
:100C600010E0012010216FF01202636C1A40114352
:100C7000616402B0B0BDA26A0023CFF6FF7303EB3C
:100C800042421143E26A012A02D0236B1143194305
:100C9000826812F00C0F0AD1C26844F202039A4330
:100CA000C260A269636B41EA823141EA4301C268D2
:100CB0004CF20703CFF6F0731A401143C16021696B
:100CC000026B012922F00F0102D1226A013A11437D
:100CD0000163002001216FF00302A064C5E700005A
:100CE000F0B587B0044600680026B0F1A04F069624
:100CF000CDE904660396029601D007B0F0BD41F23B
:100D00001400C4F20200016802AD41F0805101609C
:100D10000168032701F0805101910199016841F4B4
:100D200000310160016801F400310191019901680D
:100D300041F4802101600068294600F48020019080
:100D400001980F2002904FF09040CDE9037600F01B
:100D5000A9FB40F20040C4F600002946CDE9027725
:100D6000049600F09FFB40F2C4150820C2F2000573
:100D7000C4F202004FF48072C5E9000605F11000CC
:100D800080214FF480634CC02846C5E90261EE61C2
:100D900000F026FB002818BFFFF7B6FBE563AC6246
:100DA00007B0F0BDF0B581B0044600688068400728
:100DB00004D4206C012803D1022772E0022770E0DE
:100DC00040F208370120C5F2000720643868C006E9
:100DD00003D000200127206463E0204615460E461C
:100DE000FFF724FB18B100202064012759E0606C54
:100DF00040F60171884300F5807060643868C00671
:100E000011D02068B0F1A04F0DD0616CA7F502722F
:100E100041F480119042616412D14FF60450CFF634
:100E2000FF70385805E02068616C21F4801161641E
:100E3000C068800104D5606C012161F30D306064ED
:100E4000606C40F25132C0044FF0000044BFA06C0F
:100E500020F00600A064E06B2168C0F6000240F2BA
:100E6000C13340F2A53C00F12C0E0027C0F6000370
:100E7000C0F6000C8EE80C101C2227640A604A6839
:100E80002B4642F010024A60CA6842F00102CA6072
:100E90004031324600F0D2FA2068816841F0040106
:100EA0008160384601B0F0BDB0B540F2144CC4F2D8
:100EB000010C026840F23445ACF57B740123C4F2A6
:100EC0000105ACF57D7EA24208BF4FF0804372451C
:100ED00008BF4FF48003DAB22946002A04BF40F26B
:100EE0001441C4F2010109680B4208BFB0BD002AD9
:100EF00008BF65462B6000F00BF9B0BD70B582B03D
:100F0000002860D00446C06AC0065CD441F21800D4
:100F1000C4F20200016841F001010160006800F0C4
:100F2000010001900198204600F050F8E06A002886
:100F300004BF0020A0626268602A09D120682021D5
:100F40007022C4F20101C0F24002884208BF602250
:100F5000002062600090D4F800C0D4E90231D4F8D7
:100F600010E0DCF800504FF68F760095009DCFF62C
:100F7000BF7635402A430092009A890A1A430092AC
:100F8000009AA36922F440221A430092009A61F366
:100F90008D220092009921F4004141EA0E01009156
:100FA00000996269114300910099E269114300912F
:100FB0000099226A114300910099CCF80010012198
:100FC000E16202B070BD012002B070BD80B586B094
:100FD00000682022C4F2010200219042CDE90411F0
:100FE000CDE90211019101D006B080BD41F214009B
:100FF000C4F20200026842F400320260006800F4A9
:10100000003000900098802001900320CDE902017B
:1010100001A94FF0904000F045FA40200121002244
:1010200000F066FF402000F05FFF06B080BD0000CA
:1010300070B528B3C16AC90622D4C16A01291FD17B
:10104000436A01215FEA837C5FD040F20846C4F224
:1010500001060268A6F57875A6F57A74AA4208BF5B
:101060004FF08041A24208BF4FF48001DB07CBB2B2
:1010700009D1002B6FEA01030AD135682B4005E046
:101080000121084670BD33B933680B43336005E076
:10109000356A2B4001E0336A0B43336240F22C4E39
:1010A000C4F2010EBCF1000F01F0010306D46FEA97
:1010B000010C43B9746804EA0C0502E043B9756891
:1010C0000D43756009E0DEF8004004EA0C0502E01B
:1010D000DEF800500D43CEF800500EF10805002B4D
:1010E00008BF06F10C05296005D156F8083C1943E4
:1010F00046F8081C02E0B3691943B161116841F078
:10110000010111600221C1620021084670BD00008A
:1011100010B540F27811C2F20001884200D010BD33
:1011200040F24034C2F200042068406AB0F5FA6F21
:1011300098BF10BD204601F051FB4FF09040402178
:1011400000F084FA206840F21E1E416A40F20A1242
:10115000B1F57A7FC2F2000EC2F2000207D9436AEB
:101160009EF80040611C8EF8001022F814309EF8A2
:1011700000100A2938D140F2201CC2F2000CDCF821
:10118000004000216FF001038EF80010D11849884B
:101190000233122B0C44F9D14CF6CD41CCF6CC41A4
:1011A000A4FB01124FF6FE7101EA920101EBC102AC
:1011B00048F21F53D200C5F2EB13A2FB032340F207
:1011C0000812C2F20002118040F220420021C2F255
:1011D0000002CCF800108EF800104FF0FF311468B8
:1011E00001EBD311E162D1600021416240F2403055
:1011F000C2F2000001F072FA10BD000010B5836861
:10120000012B4FF002032BD04360D0F800E00824FC
:101210008EF0804383F4E843134340F6FE7303FAF1
:1012200002F36FEA0303DEF800C002BF04244FF2AA
:101230000103CFF6FF730C59096803EA0C0321433D
:1012400091401943CEF80010C021DEF800309140E3
:1012500023EA0101CEF800100121002341608360E0
:10126000184610BD002804BF0120704710B5044681
:10127000406820B90020A060204600F007F8022056
:101280006060002001216061616010BD81B0006874
:1012900047F20041C4F20001884201D001B070471A
:1012A00041F21C00C4F20200016841F000510160EB
:1012B000006800F000500090009801B070470000F6
:1012C00081B04FF0000CCDF800C0006800290090FC
:1012D0000098104414BF143008300090009900208A
:1012E0000B6001B07047000080B58268012A4FF0A2
:1012F000020223D04FF0010CC0F808C0426002681F
:101300000CFA01F3D2F800E043EA0E03136013680D
:1013100041B103F47011B1F5701F0BD1516841F068
:10132000020106E003F03C013C2903D1516841F081
:10133000010151600121002241608260104680BDA0
:10134000B0B50268D0E910CEDCF8001013685C0775
:1013500012D5042404FA0EF414EA01050CD0116825
:10136000890603D4116821F004011160CCF804400F
:10137000016B99B38847B0BD9C0716D5022404FAC7
:101380000EF414EA010510D01168890605D411681D
:1013900021F00A01116001214162CCF80440C16AC8
:1013A00000220262D1B18847B0BD1B0758BFB0BD53
:1013B000082303FA0EF3194010D01168002321F01E
:1013C0000E011160012202FA0EF1CCF80410C26382
:1013D000416B03620029426218BF8847B0BD00001C
:1013E0002DE9F04381B04FF0010410B3054602200F
:1013F000686295E8010305F10C0E9EE80850D5E9F6
:101400000667016843F6F072914341EA080141EA38
:101410000901194341EA0C0141EA0E013143394304
:1014200001602846FFF742F80020E863C5E9080498
:101430000024204601B0BDE8F083000010B504464A
:10144000006A01281ED0606A4FF0010C0128C4F820
:1014500020C015D1022060620020E063D4F800C0F3
:10146000DCF8000020F00100CCF800002046FFF777
:1014700033F82068226B016832B141F00E0109E0B7
:1014800000202062022010BD41F00A0101600168C5
:1014900021F0040101602068016841F00101016050
:1014A000002010BD2DE9F04F82B00A68002A00F03C
:1014B000C98040F60043C4F60003052740F2004E01
:1014C000984208BF0327C4F2010E00974FF0010BAA
:1014D000002500274FF0010A3EE0012307F00C042D
:1014E0000F22A2402CEA0202A3401A4346F8282009
:1014F000DEF800204B6842EA0906DC0358BF22EA06
:101500000906CEF80060DEF804209C0342EA0906D2
:1015100058BF22EA0906CEF80460DEF80820DC0293
:1015200042EA090640F20C4458BF22EA0906CEF806
:101530000860C4F2010422689B0242EA090658BF0F
:1015400022EA090626600A68043732FA0AF30AF129
:10155000010A05F1020575D0AAF101080BFA08F499
:1015600012EA0409EFD04A68122A16D80BFA02F3DD
:1015700013F0061F11D083680326D1F80CC0AE40CB
:10158000B3430CFA05F6334383604368C2F3001695
:10159000A34306FA08F6334343600326C36806FAFA
:1015A00005F48E68A343AE4042F010023343122A82
:1015B000C36014D16FF0030202EA58020244D2F869
:1015C00020C007F01C060F23D1F810B0B3402CEA5E
:1015D00003030BFA06F64FF0010B33431362036863
:1015E0004E68E2431A4006F00303AB401A43F3008F
:1015F0000260A8D541F21803C4F202031A684FEA48
:10160000980842F001021A601A68AEF57E7602F080
:1016100001020192019A56F828C0B0F1904F0FD004
:1016200040F20042C4F6000290423FF456AF40F64A
:101630000002C4F60002009B904208BF02234DE75F
:1016400000234BE702B0BDE8F08F0000426902EAD8
:101650000103914341EA0341816170471823002A45
:1016600008BF2823C150704740F22050C2F200004A
:101670000068704710B5D0F8C430022B04BF0220B8
:1016800010BDD0F8C0300224012B45D00123C0F892
:10169000C030C0F8C440D0F800C00139DCF880E3A5
:1016A000072915D8DFE801F0040B141B14141424C7
:1016B0005188526861F3124ECCF8BC2320E0D2E985
:1016C0000012C1F30C4161F3D54ECCF8C02317E0F2
:1016D0000721C0F8C4100021C0F8C01010E0D2E902
:1016E0000012C1F3094161F3985ECCF8C42307E00E
:1016F000D2E90012C1F3064161F35B6ECCF8C82356
:10170000D0F8C4100124072906D0CCF880E3C0F833
:10171000C4400024C0F8C040204610BDD0F8C0200E
:10172000012A4FF0020221D00123C0F8C030C0F8D6
:10173000C42002684B1CD2F8CCC309D04CF0020381
:10174000C2F8CC33D2F8CC3323F00C03194301E0B8
:101750002CF00201C2F8CC13D2F8CC1341F00101F5
:10176000C2F8CC1301210022C0F8C4101046704703
:1017700070B5D0F8C430022B04BF022070BDD0F881
:10178000C030012B4FF002033AD0C0F8C430D2E988
:1017900000C3D2E902E60CF4E0546FF35F2315694D
:1017A00023440EF40074234405F480452B4406F4CE
:1017B0000046334456690025C0F2FF1505EA064687
:1017C0009569334405F00076156A334405F0804688
:1017D000D2693343066802F0004206EBC1111A4396
:1017E000D1F8B83042F20006C3F6004633401A433F
:1017F000C1F8B82001210023C0F8C410C0F8C030DF
:10180000184670BD002804BF0120704710B582B093
:1018100004460220C4F8C400207AC0074FF000003C
:10182000C4E93200C4E93400C4E936001FD020689E
:1018300047F20041C4F2010188420CD141F2180183
:10184000C4F202010A6842F000520A60096801F01D
:101850000051019101990168D4E9042321F47041F8
:1018600002F44042114403F4405211440160204606
:1018700000F01EF8207A800706D52068E16802682B
:10188000090A61F3092202600120C4F8C4000020A3
:101890006FF01B01C4F8C00062181C318C29D064A1
:1018A000C2E90D00C2E90F005064F5D102B010BDCD
:1018B00081B0006847F20041C4F20101884201D0C2
:1018C00001B0704741F21800C4F20200016841F013
:1018D00000510160006800F000500090009801B0D5
:1018E000704700002DE9F04186B0006847F20041E2
:1018F000C4F2010100258842CDE90455CDE9025525
:10190000019502D006B0BDE8F08141F21400C4F2A6
:101910000200016801AC41F48021016001684FF0D0
:10192000020801F48021009100990168032741F425
:101930000031016000680D2600F40030009000982E
:101940004FF47040019040F20040C4F60000214680
:10195000CDE9028504970596FFF7A4FD4FF470606A
:10196000CDE901084FF090402146CDE90357059697
:10197000FFF798FD06B0BDE8F0810000F0B581B03A
:101980000D460446FFF770FE2168D1F88813C9039D
:1019900015D406466F1C04E02068D0F88803C00305
:1019A0000DD4002FF8D0FFF75FFE15B1801BA842C1
:1019B000F2D90720C4F8C400032001B0F0BD012013
:1019C000C4F8C4000020C4F8C00001B0F0BD00009D
:1019D00010B50446D0F8C40002284FF0020008BF3A
:1019E00010BD0529C4F8C400204603D1114601F0FA
:1019F00095F901E001F04EFA0120C4F8C40000207E
:101A000010BD000080B5D0F8C4C0BCF1020F04BF07
:101A1000022080BDD0F8C0C0BCF1010F4FF0020C15
:101A200000F094804FF0010E0529C0F8C0E0C0F826
:101A3000C4C00ED1511E072923D80FF20602DFE8D9
:101A400001F0041C20272020202B19680268D16196
:101A500025E0A2F1010CBCF1070F3BD80FF2040204
:101A6000DFE80CF00424383F3838384602681B6839
:101A700002EBC111C1F89C305BE019680268516249
:101A80000DE00721C0F8C4100021C0F8C01006E026
:101A900019680268916202E019680268D162D0F8A0
:101AA000C410072904BF012080BD48E0026802EB92
:101AB000C11CD3E9001ECCF8A410614651F8802F58
:101AC000BEF1000F22F440520A6032D00A6842EAA6
:101AD0000E0220E00721C0F8C4100021C0F8C01099
:101AE00027E002681B6802EBC111C1F8A83020E0B2
:101AF000026802EBC11CD3E9001ECCF8AC106146B1
:101B000051F8802FBEF1000F22F440420A6010D03D
:101B10000A6842EA8E02BEF5405F0A6006D0BEF552
:101B2000005F06D19968CCF89C1002E09968CCF867
:101B3000A810D0F8C410072904BF012080BD0121DE
:101B40004FF0000CC0F8C410C0F8C0C0604680BDA3
:101B5000D0F8C020012A4FF002020BD0C0F8C420F8
:101B6000026813681943116001210022C0F8C410F3
:101B7000C0F8C02010467047B0B50446D0F8C40085
:101B8000022804BF0220B0BDD4F8C00001284FF0E5
:101B9000020008BFB0BD0125C4F8C050C4F8C4009D
:101BA000204601F003F90020C4F8C450C4F8C00076
:101BB000B0BD0000D0F8C020012A4FF002020DD0C5
:101BC000C0F8C4200268D2F894331943C2F89413C1
:101BD00001210022C0F8C410C0F8C0201046704790
:101BE00070B50446D0F8C400022804BF022070BDBE
:101BF000D4F8C00001284FF0020008BF70BD0D46A8
:101C000001211646C4F8C010052DC4F8C4002046B2
:101C100003D1314601F096F803E02946324601F03F
:101C200051F9C5EBC50004EB800096E80E1000F1F9
:101C3000200E8EE80E003169C0E90BC1204629460E
:101C400001F052F80120C4F8C4000020C4F8C0001C
:101C500070BD0000426C202A02D1026C012A01D121
:101C600002207047242242640268136823F00103B3
:101C70001360136823F480531360136819431160D1
:101C8000116841F0010111602021416400210164CB
:101C900008467047426C202A02D1026C012A01D109
:101CA00002207047242242640268136823F0010373
:101CB0001360136823F4706343EA01211160116813
:101CC00041F00101116020214164002101640846B6
:101CD00070470000002804BF0120704710B504467B
:101CE000406C20B900202064204600F03FF82420FA
:101CF000606494E80310E368026821F0706122F0E8
:101D00000102026001618168012B21F400418160C0
:101D10004FF4044108BF4FF4004141EA0C01022B8B
:101D2000816004BF4FF400614160416804F1100C10
:101D300041F0007141F400414160C16821F400416B
:101D4000C1609CE80E10114341EA0321C160216A81
:101D500041EA0C010160016841F0010101600020CD
:101D60002021E06461642063A06410BD2DE9F0438C
:101D700087B0006845F20041C4F2000188424FF08C
:101D800000000690CDE90400CDE9020002D007B0C2
:101D9000BDE8F08341F21405C4F20205286802ACE4
:101DA00040F40030286028684FF0120800F400303A
:101DB0000190019828684FF0010940F480202860C4
:101DC0002868032600F48020019001984FF4004019
:101DD000029004274FF090402146CDF80C80CDF8BA
:101DE000109005960697FFF75DFB4FF4007002A96F
:101DF00081E8010340F20040C4F600002146CDE92D
:101E00000567FFF74FFBA86840F40010A860A868BA
:101E100000F400100190019807B0BDE8F0830000C5
:101E200040F2080040F22051C2F20000C2F200016C
:101E300000680A68104408607047000080B542F2EC
:101E40000000C4F20200016841F0100101600320AB
:101E500000F05EF8002000F005F800F02BF80020FC
:101E600080BD0000B0B540F20802C2F2000240F2AC
:101E700000011268C2F200014FF47A730968B3FBE3
:101E8000F2F20446B1FBF2F1084600F069FB0F2CB8
:101E90004FF001050CD858B94FF0FF302146002211
:101EA000002500F025F840F20C00C2F200000460AA
:101EB0002846B0BD82B041F21800C4F202000168A9
:101EC00041F001010160016801F0010101910199F6
:101ED000416841F080514160406800F080500090BE
:101EE000009802B07047000080B501F0B5FF80BDDA
:101EF00070B514460D46064601F0BEFF294622463F
:101F000001F0B4FC0146304601F0BEFF70BD000098
:101F100080B501F0CBFF80BD2DE9F04182B00446D1
:101F2000807841F23006C007C4F2020655D056F858
:101F3000140C10F080580BD156F8140C40F080505F
:101F400046F8140C56F8140C00F0805001900198DB
:101F500047F20007C4F200073868C00512D4386899
:101F600040F480703860FFF77FFB05463868C00595
:101F700008D4FFF779FB401B6428F7D9032002B08F
:101F8000BDE8F08156F8100C10F4407014D0616870
:101F900001F4407188420FD056F8100C40F24042D4
:101FA000C4F24222012320F4407113600023C007D1
:101FB000136046F8101C4BD156F8100C616820F4E1
:101FC00040700843B8F1000F46F8100C05D156F8E0
:101FD000140C20F0805046F8140C2068C1070BD177
:101FE000810611D4010617D4C1041FD4400425D49E
:101FF000002002B0BDE8F0813168A26821F0030141
:10200000114331608106EDD53168E26821F010019D
:10201000114331600106E7D556F8041C226921F40A
:10202000F871114346F8041CC104DFD531686269B8
:1020300021F48071114331604004D9D53068A16921
:1020400020F4805008433060002002B0BDE8F081E9
:10205000FFF70AFB054641F2883700BF56F8100C1F
:102060008007A9D4FFF700FB401BB8424FF00300E4
:10207000F4D9EAE72DE9F04381B0002878D042F2A4
:102080000008C4F202080446D8F800000D4600F02B
:10209000070088420CD2D8F8000020F0070028433F
:1020A000C8F80000D8F8000000F00700A8425FD18F
:1020B000206841F204098107C4F2020907D5D9F862
:1020C0000010A26821F0F0011143C9F80010C00708
:1020D00045D1D8F8000000F00700A8420CD9D8F884
:1020E000000020F007002843C8F80000D8F80000DE
:1020F00000F00700A8423BD12068410707D5D9F876
:102100000010E26821F4E0611143C9F800100007F3
:1021100008D5D9F80000216920F4605040EAC100D8
:10212000C9F8000000F066F8D9F8001044F2DA624D
:10213000C1F30311C0F60002515C40F2000220FA24
:1021400001F140F20C00C2F200000068C2F200028D
:102150001160FFF787FE002001B0BDE8F0836068E2
:10216000022809D0012828D159F8041C890307D472
:10217000012001B0BDE8F08359F8041C8901F7D5AE
:10218000D9F8001021F003010843C9F80000FFF757
:102190006BFA064641F28837D9F80000616800F012
:1021A0000C00B0EB810F94D0FFF75EFA801BB842B1
:1021B000F2D9032001B0BDE8F08359F8041C890767
:1021C000D6D5DDE740F20000C2F20000006870479B
:1021D00080B5FFF7F7FF41F20401C4F2020109687C
:1021E00044F2EA62C1F30221C0F60002515CC84029
:1021F00080BD000041F2040CC4F2020CDCF8003097
:1022000003F00C00082841F20020C0F27A0018BF49
:10221000704744F2F261C3F38342C0F600018A5C66
:10222000DCF82810DB0305D440F60010C0F23D00B6
:102230005043704744F2027301F00F01C0F60003EF
:10224000595CB0FBF1F05043704700002DE9F041BC
:1022500082B0002800F08F800446007841F200062A
:10226000C007C4F202064BD0706800F00C000428CE
:1022700006D13068800343D56068002840D17AE0F9
:10228000706800F00C00082802D17068C003F0D418
:1022900065682DB1B5F5A02F0AD0B5F5803F0BD0FC
:1022A000306820F480303060306820F4802006E010
:1022B000306840F480203060306840F48030306016
:1022C000F06AA16820F00F000843F062FFF7CCF934
:1022D000002D054611D000BF3068800310D4FFF7F1
:1022E000C3F9401B6428F7D908E100BFFFF7BCF928
:1022F000401B64284FF003003AD830688003F5D4BF
:102300002078800718D5706810F00C0F07D070681F
:1023100000F00C0008286CD17068C00369D43068E4
:10232000800702D52069012825D13068616920F035
:10233000F80040EAC1003060207800071FD4207800
:10234000400732D4E56995B1706800F00C000828A8
:1023500040F08880012D0ED07068216A00F4803230
:102360008A4208D1616A00F47010884203D10020CB
:1023700002B0BDE8F081012002B0BDE8F081A069A3
:1023800000285BD00020C4F242200121C0F8801454
:10239000FFF76AF9054600BF706A8007CFD4FFF7E0
:1023A00063F9401B0228F7D9A8E0F06910F08058C3
:1023B00008D1F06940F08050F061F06900F0805081
:1023C0000190019847F20007C4F200073868C00581
:1023D00026D4386840F480703860FFF745F9054628
:1023E0003868C0051CD4FFF73FF9401B6428F7D9B3
:1023F00084E02069002840F20000C4F2422053D05B
:1024000001210160FFF730F9054600BF3068800701
:102410003FF58BAFFFF728F9401B0228F6D96DE096
:10242000E5681DB1052D51D0012D53D0306A20F043
:1024300001003062306A20F004004EE00020C4F257
:1024400042200021C0F88014FFF70EF9054600BFB6
:10245000706A80077FF573AFFFF706F9401B02280B
:10246000F6D94BE00027C4F2422700203866FFF778
:10247000FBF8022D05460BD13068800156D5FFF7D9
:10248000F3F8401B02284FF00300F5D970E700BFB6
:10249000306880017FF56BAFFFF7E6F8401B02283C
:1024A0004FF00300F4D963E700210160FFF7DCF887
:1024B000054600BF306880077FF53EAFFFF7D4F8D0
:1024C000401B02284FF00300F4D951E7306A40F076
:1024D00004003062306A40F001003062FFF7C4F857
:1024E000002D054641F2883714D000BF306A8007BE
:1024F00013D4FFF7B9F8401BB842F7D9032002B054
:10250000BDE8F081FFF7B0F8401BB8424FF0030080
:102510003FF62EAF306A8007F4D4B8F1000F7FF495
:1025200011AFF06920F08050F0610BE77068D4E9DA
:10253000082120F4741008431043706001203866AD
:10254000FFF792F8044600BF306880013FF50FAFF7
:10255000FFF78AF8001B02284FF00300F4D907E7C1
:1025600080B501F0B5F980BD7047000070470000EC
:102570007047000010B5C26B012A4FF0020236D03E
:102580000123C3630264026842F6004C5368D2F828
:1025900008E0C4F2010C624503D14C6823F47003D7
:1025A00023430C6823F07003234342F6FF34C4F244
:1025B0000104A242536009DCB2F1804F0ED040F218
:1025C0000043C4F200039A4208D00CE044F2000336
:1025D000C4F201039A4201D0624504D189682EF009
:1025E000800319439160012100220164C2631046F7
:1025F00010BD0000002804BF0120704710B504463C
:10260000006C20B90020E063204600F015F802209D
:1026100020642068211D01F0DBF90120E066606480
:10262000A064E06420656065A065E0652066606682
:10263000A0662064002010BD80B584B0006844F618
:102640000001C4F2010188421AD044F20041C4F2F0
:10265000010188422BD044F20001C4F201018842FA
:1026600023D141F21800C4F20200016841F4803124
:102670000160006800F480300390039804B080BDCE
:1026800041F21800C4F202000168002241F48021E6
:1026900001600068012100F48020019001981A2057
:1026A000FFF726FC1A20FFF71FFC04B080BD41F2A3
:1026B0001800C4F202000168002241F400310160F8
:1026C0000068002100F40030029002981920FFF702
:1026D0000FFC1920FFF708FC04B080BD016C012934
:1026E0001CBF0120704702210164016842F6FF30DF
:1026F000C4F20100814209DCB1F1804F12D040F2F6
:102700000040C4F2000081420CD01EE044F2000000
:10271000C4F20100814205D042F60040C4F201003B
:10272000814212D188680722C0F201020240062AC3
:102730004FF000000ED0B2F5803F08BF7047086828
:1027400040F00100086000207047086840F0010078
:102750000860002070470000016C01291CBF0120A7
:10276000704702210164016842F6FF32C868C4F272
:102770000102914240F00100C86009DCB1F1804FD4
:1027800012D040F20040C4F2000081420CD01EE0A2
:1027900044F20000C4F20100814205D042F600403C
:1027A000C4F20100814212D188680722C0F20102FE
:1027B0000240062A4FF000000ED0B2F5803F08BF5D
:1027C0007047086840F00100086000207047086802
:1027D00040F00100086000207047000001460068DA
:1027E00041F21113026A1A4208D1026A40F24443CC
:1027F0001A4203D1026822F0010202600122002085
:102800000A64704710B50446C06B01284FF00200FF
:1028100008BF10BD0122E26320642068882382681B
:10282000CFF6FE731A4082600A683F2A14DD5F2AE1
:1028300018DD602A28D0B2F5005F2DD0702A40D173
:10284000D1E9012CCB68614601F01EF9206881684E
:1028500041F07701816034E01F2A0FDC92B1102A29
:1028600010D02EE0402A23D0502A2AD14B68CA68C3
:10287000194601F01DF92068502120E0202A01D0DE
:10288000302A1ED111461AE04B68CA68194601F079
:1028900021F92068602112E0D1E9012CCB68614662
:1028A00001F0F2F82068816841F48041816008E01D
:1028B0004B68CA68194601F0FBF82068402101F016
:1028C000EFF8012020640020E06310BD7047000095
:1028D00010B5044600680169890744BFC1685FEA12
:1028E000817140D420680169490744BFC1685FEA2B
:1028F000417144D420680169090744BFC1685FEA97
:10290000017149D420680169C90644BFC1685FEA02
:10291000C1614DD420680169C9071CBFC1685FEA65
:10292000C17152D120680169090644BFC1685FEADC
:10293000016151D420680169C90544BFC1685FEADB
:10294000016150D420680169490644BFC1685FEA4B
:1029500041614FD420680169890644BFC1685FEABC
:1029600081614ED410BD6FF0020101610121E1616E
:10297000806980074CD02046FFF7A8FF4EE06FF03B
:10298000040101610221E161806910F4407F48D0B7
:102990002046FFF79BFF4AE06FF008010161042128
:1029A000E161C069800745D02046FFF78FFF47E00F
:1029B0006FF0100101610821E161C06910F4407FEE
:1029C00041D02046FFF782FF43E06FF00101016133
:1029D000204600F045F8A5E76FF080010161204630
:1029E000FFF7C4FDA6E76FF4807101612046FFF791
:1029F000BBFDA7E76FF040010161204600F00AF936
:102A0000A8E76FF0200101612046FFF7B1FD10BD7E
:102A1000204600F021F8204600F020F80020E06178
:102A200060E7204600F018F8204600F017F8002074
:102A3000E0615FE7204600F00FF8204600F00EF856
:102A40000020E0615EE7204600F006F8204600F036
:102A500005F80020E0615DE7704700007047000066
:102A6000F0B581B0044640F2B030C2F200008442BA
:102A70004ED140F2081240F21C50C2F20002C2F2E3
:102A80000000128844F6D3530168C1F26203A2FB2E
:102A9000032301319A09B1FBF2F3016003FB121227
:102AA000B2BB40F22856C2F2000640F224553088EC
:102AB000C2F2000595ED000A01EE100AB8EE411AC7
:102AC00080EE011A40F20400C2F200004FF480517F
:102AD000018040F27400C2F2000000270780B1EECE
:102AE000C10A85ED001AB4EE400AF1EE10FA80F149
:102AF0008C8040F21450C2F2000080ED000A40F2D7
:102B0000C000C2F200004FF07E512F60378001629A
:102B100040F22040C2F20000844201D001B0F0BD7A
:102B200040F21855C2F200052888C7282CD844F274
:102B30002071C0F6000131F81000012101F054FAB3
:102B4000288808BB40F20044C4F600042046102147
:102B50000022FEF783FD00BF00BF00BF00BF00BF23
:102B600000BF00BF00BF00BF00BF00BF00BF00BF6D
:102B700000BF00BF00BF00BF00BF00BF204608214C
:102B8000012200BFFEF76AFD2888C82833D340F22F
:102B90008F11081A44F22071C0F6000131F81000BC
:102BA0000121C0F5B44080B201F01EFA2888C8287F
:102BB00021D140F20044C4F600042046082100223E
:102BC000FEF74CFD00BF00BF00BF00BF00BF00BF4D
:102BD00000BF00BF00BF00BF00BF00BF00BF00BFFD
:102BE00000BF00BF00BF00BF00BF20461021012270
:102BF00000BFFEF733FD2888013081B2B1F5C871FE
:102C000018BF0146298001B0F0BDB0EE410A01F0C5
:102C1000FEF96EE77047000010B598B10446806F6A
:102C200020B900206067204600F024F82420A06727
:102C30002068016821F001010160204601F004F8DC
:102C4000012801D1012010BD606A10B1204600F0BA
:102C500053FF2068416821F490414160816821F070
:102C60002A018160016841F001010160204600F005
:102C7000B7FF10BD80B586B0006843F60002C4F20D
:102C8000010200219042CDE90411CDE90211019128
:102C900001D006B080BD41F21400C4F202004268C7
:102CA00042F480424260426802F480420092009AFC
:102CB000026842F480220260006800F480200090E4
:102CC0000098C02001900220CDE902010320049069
:102CD0000720059040F20040C4F6000001A9FEF76D
:102CE000E1FB06B080BD0000052988BF7047006881
:102CF00004A252F82110D0F884231143C0F88413A1
:102D0000704700BF0200000004000000080000003F
:102D100010000000200000000100000080B50068E5
:102D20000268D1E900ECD1E9023122F01F0223F060
:102D300018031A4311430160C0F814E0C0F818C02A
:102D400080BD000070B500684FF2DF330268CFF23B
:102D5000FF1301F11406D0F8A0C302EA030E74CEEB
:102D600020331A404FF6FF33C1F2FF1342EA0E023E
:102D700023401A4325F06E431A4326F068434E6AF7
:102D80001A4332438B6A4FF6FC76CDF6FF760D6B15
:102D900006EA830322F060422B43C96A1A432CF4EB
:102DA000803319430260C0F8A01370BD2DE9F041D3
:102DB00000687F2A00EBC114A04658F8E4EF4FF0FA
:102DC000000158F82CCC00F32E80013A3F2A00F283
:102DD0003A80DFE802F0203138203838383138388E
:102DE000383838383820383838383838383838387B
:102DF000383838383831383838383838383838385A
:102E00003838383838383838383838383838383842
:102E1000383838383820D3E90112C4F8BC10C4F867
:102E2000C02000210FE0802A06D0B2F5007F03D039
:102E3000B2F5807FEFD006E0D3E90112C4F8C410E8
:102E40001021C4F8C820FE221D6803F10C078A4037
:102E5000D1CF2EEA02028D402A438840104304FA63
:102E600001F2104306FA01F2104307FA01F21CF0D6
:102E7000022F42EA000208BF082C03D0C8F8002045
:102E8000BDE8F081D86988400243C8F80020BDE859
:102E9000F081000080B5006800EBC110D0F8801010
:102EA000D2E900ECD2E9023221F01F0123F018032D
:102EB00019431143C0F88010C0F894E0C0F898C0DE
:102EC00080BD00002DE9F04F87B000684FF2DF357C
:102ED00000EBC11E734653F8807FF14627F0704720
:102EE0001F601C6859F8E87FF046059758F8E4CF52
:102EF0000690D0F8A003CFF2FF15D2E905672C4069
:102F0000203535402C434FF6FF35D669C0F2FD150C
:102F10002F4005F580653C43176A35404FF6FF7634
:102F2000C0F2FD762C4307EA0605576A2C43556B21
:102F30003C43976A06F1006604902DB9D2F840A090
:102F40002CF480704AEA000C04EA060B146D106B36
:102F50000194D2E9114627F400370096966B039648
:102F6000D66B029644F48056B6F5F05F01D1402D41
:102F700003D12CF4F05646EA040CD2F84CA00429F4
:102F800047EA0B070AD81CA454F82140D26A049ED1
:102F90000131344002FA01F10C4300E0049CB0F12D
:102FA000005F08BF47F40037019A25F0FE7122F058
:102FB000FC724FF6BF701143009ACFF603603840A1
:102FC0001143084318604FF6E0700599C7F6FF708B
:102FD0000840039901F01F01084402990843C9F809
:102FE0000000C8F800C0CEF8D4A00698C0F8A043EE
:102FF00007B0BDE8F08F00BFFFFFFDFFFFFFFBFF45
:10300000FFFFF7FFFFFFEFFFFFFFDFFFFEE700001F
:1030100010B58AB040F224100024C2F200004FF034
:10302000A04101224FF4806C4FF4E07E0623C0E9FA
:10303000001400F110010994CDE90744CDE90544DD
:10304000CDE90344CDE90144C0E908340423C0E9D3
:1030500002441CC1C261C0E90BECC0E90D44FDF79C
:103060004DFD002818BFFDF74FFA40F22410C2F2C0
:10307000000007A90794FDF74DFA002818BFFDF7D7
:1030800043FA0120CDE901000020CDE90300CDE99C
:10309000050040F22410C2F2000001A9FDF7C0FAB9
:1030A000002818BFFDF730FA0220CDE9010040F2F8
:1030B0002410C2F2000001A9FDF7B2FA002818BFDF
:1030C000FDF722FA0320CDE9010040F22410C2F2FC
:1030D000000001A9FDF7A4FA002818BFFDF714FAB3
:1030E0000420CDE9010040F22410C2F2000001A941
:1030F000FDF796FA002818BFFDF706FA0B2001909D
:103100000520029040F22410C2F2000001A9FDF750
:1031100087FA002818BFFDF7F7F90C200190062068
:10312000029040F22410C2F2000001A9FDF778FAE3
:10313000002818BFFDF7E8F90AB010BD80B540F2CD
:1031400078102021C2F20000C4F2010150220023B5
:103150004FF02A0C80E80E10012103618361416267
:10316000FDF7CCFE002818BFFDF7CEF980BD0000AA
:1031700010B584B040F2AC1047F200410024C2F216
:103180000000C4F200010394CDE901440160FEF7A0
:1031900069F8002818BFFDF7B7F93C20019040F20C
:1031A000AC10C2F2000001A910220394FEF726F829
:1031B000002818BFFDF7A8F904B010BD80B582B093
:1031C00041F21400C4F202000168002241F0010142
:1031D00001600068072100F00100019001980B20B8
:1031E000FEF786FE0B20FEF77FFE02B080BD0000DA
:1031F0002DE9F04186B0002641F214000596CDE994
:103200000366CDE90166C4F202000168002241F4C0
:10321000800101600168402501F48001009100995E
:10322000016841F400310160016801F4003100914E
:103230000099016841F4802101600068402100F498
:103240008020009000984FF09040FEF707FA40F27F
:103250000044C4F600042046182100224FF018084C
:10326000FEF7FCF9019501AD01274FF0904029468A
:10327000CDE902760496FEF715F90220CDE90306A2
:1032800020462946CDE90187FEF70CF906B0BDE8D6
:10329000F0810000B0B5B0B0002415A85421CDE9EC
:1032A0002E44CDE92C44CDE92A44FCF7DDFF09A8E2
:1032B00024211494CDE91244FCF7D6FF40F20C20EF
:1032C00047F20041C2F20000C4F20101CDE9074417
:1032D000CDE90544CDE90344CDE90144C0E900143A
:1032E0008460FEF78FFA002818BFFDF70DF940F251
:1032F0000C20C2F200000C21FEF710FA002818BFC3
:10330000FDF702F940F20C20C2F200000A21FEF79C
:1033100035FB002818BFFDF7F7F84FF480302E90EA
:103320004FF480602F9040F20C20C2F200002EAAD1
:1033300001210124FEF79EF9002818BFFDF7E4F8EB
:103340004FF4B4402A90FF20CDE92B0408202D90A3
:1033500040F20C20C2F200002AAA0521FEF738FB39
:10336000002818BFFDF7D0F800240120CDE919048A
:103370004FF00060CDE91E044FF00050219040F264
:103380000C20C2F2000015AA0521CDE91744CDE9B1
:103390001544CDE91B441D942094FEF721FC002820
:1033A00018BFFDF7B1F840F20C20C2F200002AAAC3
:1033B00000212B94FEF70CFB002818BFFDF7A4F8A2
:1033C00000244FF48070CDE925041020CDE92804B5
:1033D00040F20C200125C2F2000015AA0021CDE91F
:1033E0001744CDE915441995CDE922442494279436
:1033F000FEF7F6FB002818BFFDF786F840F20C2018
:10340000C2F2000015AA0121CDE917441995FEF773
:10341000E7FB002818BFFDF777F840F20C200024E6
:103420000125C2F2000015AA0221CDE91744199521
:10343000FEF7D6FB002818BFFDF766F840F20C2017
:10344000C2F2000015AA0321CDE91744199526946C
:10345000FEF7C6FB002818BFFDF756F841F288308A
:10346000129040F20C20C2F2000012AB00210122A7
:103470000024FEF7C7FA002818BFFDF745F842F20E
:103480001070CDE9120440F20C20C2F2000012AB21
:10349000002102221494FEF7B5FA002818BFFDF7A8
:1034A00033F809AC20462421FCF7DEFE40F20C2064
:1034B000C2F2000000212246FEF75AF9002818BF88
:1034C000FDF722F8C8200A900E9040F20C20C2F2BC
:1034D000000009AA0121FEF74BF9002818BFFDF7EB
:1034E00013F84FF4FA700A900E9040F20C20C2F2DA
:1034F000000009AA0221FEF73BF9002818BFFDF7DA
:1035000003F840F20C20C2F2000009AA0321FEF7E2
:103510002FF9002818BFFCF7F7FF042100200291C3
:1035200008210190CDE90310CDE90500CDE90700A0
:1035300040F20C20C2F2000001AB00210122FEF794
:103540001BFB002818BFFCF7DFFF40F20C20C2F283
:10355000000001AB01210422FEF70EFB002818BF7A
:10356000FCF7D2FF8020029040F20C20C2F2000053
:1035700001AB02211022FEF7FFFA002818BFFCF76A
:10358000C3FF0420029040F20C20C2F2000001AB05
:1035900003214022FEF7F0FA002818BFFCF7B4FF21
:1035A0000020CDE9020040F20C20C2F2000001AB85
:1035B00000210222FEF7E0FA002818BFFCF7A4FF62
:1035C00040F20C20C2F2000001AB01210822FEF7FC
:1035D000D3FA002818BFFCF797FF40F20C20C2F284
:1035E000000001AB02212022FEF7C6FA002818BF16
:1035F000FCF78AFF40F20C20C2F2000001AB03216D
:103600008022FEF7B9FA002818BFFCF77DFF40F2D0
:103610000C20C2F200002AAA0121FEF7D9F90028E5
:1036200018BFFCF771FF41F28830129040F20C2075
:10363000C2F2000012AB01210122FEF7E3F90028DB
:1036400018BFFCF761FF00202C9040F20C20C2F262
:1036500000002AAA0221FEF7BBF9002818BFFCF7D8
:1036600053FF42F21070129040F20C20C2F20000A0
:1036700012AB02210122FEF7C5F9002818BFFCF7A2
:1036800043FF40F20C20C2F200002AAA0321FEF7F9
:103690009FF9002818BFFCF737FF41F288301290DD
:1036A00040F20C20C2F2000012AB03210122FEF70F
:1036B000A9F9002818BFFCF727FF40F20C20C2F23E
:1036C0000000FEF70FF930B0B0BD000080B540F249
:1036D000EC2045F20041C2F20000C4F2000141F6C4
:1036E0003F620023C0F210024FF0010C80E80E1080
:1036F000C0E90433C0E906330362FEF7EBFA0028A1
:1037000018BFFCF701FF40F2EC20C2F200000021DC
:10371000FEF7A0FA002818BFFCF7F6FE40F2EC20F6
:10372000C2F200000021FEF7B5FA002818BFFCF72E
:10373000EBFE80BD80B588B040F2403044F200021C
:103740000021C2F20000C4F2010247234FF6FF7CC1
:103750000791CDE90511CDE90311CDE90111C0E9CA
:103760000023C0E9021CC0E904118161FEF742FF99
:10377000002818BFFCF7C8FE4FF48050049040F2B8
:103780004030C2F2000004A9FFF73CF8002818BF3F
:10379000FCF7BAFE00200190039040F24030C2F2E4
:1037A000000001A9FEF7E6FE002818BFFCF7ACFEFA
:1037B00008B080BD80B540F2B03044F20041C2F2A2
:1037C0000000C4F2010100234FF0800E472240F2B6
:1037D000E73C80E80E10C0E90433C0F818E0FEF7BB
:1037E00009FF002818BFFCF78FFE80BD80B540F2AE
:1037F000204044F60001C2F20000C4F201010022A0
:1038000040F60F634FF0800CC0E90012C0E90223BC
:10381000C0E90422C0F818C0FEF7ECFE002818BF6B
:10382000FCF772FE80BD000080B540F2904043F688
:103830000001C2F20000C4F2010100234FF00C0CA1
:103840004FF4164280E80E00C0E90333C0E905C317
:10385000C0E907334362FFF7DFF9002818BFFCF720
:1038600053FE80BDFEE70000FEE7000000F0070009
:1038700080F00703042B28BF04234FF0FF3C0338DC
:103880000CFA03F338BF0020994381400CFA00F092
:1038900022EA000008437047002818BF002A00D120
:1038A000704780B50170116841605168816091680E
:1038B00080ED040AC160C0ED050A20302821FCF724
:1038C000D3FCBDE88040704770470000704700009F
:1038D000B0B501380024B4EB106F1CBF0120B0BD9F
:1038E0004EF21005CEF2000568604FF0FF300F2158
:1038F00000F0CAFA0720AC6028602046B0BD000086
:1039000080B5FEF78DFA80BD70B596B00CAC204640
:103910002821FCF7A9FC032000250C904FF48030EF
:103920000226CDE90D050121CDE913604FF4E01029
:103930001091102115902046CDE90A55CDE9085582
:10394000CDE90655CDE90455CDE90255CDE900553F
:103950001191FEF77BFCF8B90F20CDE907064FF473
:103960008060CDE90A0507A802210995FEF782FBD0
:1039700090B944F2A100009000204FF480710290B1
:10398000CDE903014FF4805006906846FEF7C4FA73
:10399000002804BF16B070BDFCF7B6FD4EF6885087
:1039A000CEF20000016841F4700101607047000030
:1039B00080B540F22040C2F20000FEF789FF80BDD2
:1039C00080B540F2B030C2F20000FEF781FF80BD4A
:1039D00080B50268B0F1804F0BD042F60043C4F2CC
:1039E0000103984205D040F20043C4F2000398421C
:1039F00003D14B6822F070021A4343F6FF73C4F2FE
:103A0000010398420BDCB0F1804F1AD040F2004322
:103A1000C4F20003984214D042F600430DE044F291
:103A20000003C4F2010398420BD044F60003C4F231
:103A30000103984205D044F20043C4F201039842C6
:103A400003D1CB6822F440721A434B6922F0800EF6
:103A50008A6843EA0E03D1F800C00360C262A0F195
:103A60008042A2F596324FEAB222072AC0F828C057
:103A700007D8012303FA02F212F0E10F1CBF096913
:103A800001630121416180BDD0F808C011432CF4CD
:103A90007F4C41EA032141EA0C018160704700003C
:103AA000826822F07002114341F007018160704783
:103AB000D0F820C0036A23F001030362836923F076
:103AC000F00343EA02122CF00A03194382610162F7
:103AD00070470000036A23F0100303628369D0F883
:103AE00020C023F4704343EA02322CF0A00343EADF
:103AF000011182610162704780B5416ACA070CD129
:103B00008A0715D44A071ED40A0727D4CA0630D418
:103B10008A0639D44A0657D541E00268D0F828C051
:103B2000536823F4003343EA0C0353608A07E9D552
:103B30000268D0F82CC0536823F4803343EA0C03A6
:103B400053604A07E0D50268D0F830C0536823F4C8
:103B5000802343EA0C0353600A07D7D50268D0F8E4
:103B600034C0536823F4004343EA0C035360CA068D
:103B7000CED50268D0F838C0936823F4805343EA66
:103B80000C0393608A06C5D50268D0F83CC09368E0
:103B900023F4005343EA0C0393604A0614D50268E9
:103BA000D0F840C05368BCF5801F23F4801343EA6B
:103BB0000C03536008D1D2F804C0D0F844E02CF4D0
:103BC000C00343EA0E035360090658BF80BD016875
:103BD000806C4A6822F400221043486080BD0000D7
:103BE000B0B582B004460020C4F88000FDF73CFD6B
:103BF00021680546096809070BD56FF07E4C204601
:103C00004FF4001100222B46CDF800C000F0CAF896
:103C100078B92068006840070ED56FF07E4C2046CA
:103C20004FF4800100222B46CDF800C000F0BAF816
:103C300010B1032002B0B0BD2020A067E0670020D3
:103C40002066606702B0B0BDB0B504460268806807
:103C5000D4E9033165690143D4F81CC029431568D0
:103C600046F6F310CEF6FF7041EA0C0128400843F7
:103C70001060506820F4405018435060A069216AD9
:103C80009368084323F430610843906044F2004095
:103C9000C4F2000082424FF0000117D044F6000049
:103CA000C4F20000824211D043F60000C4F20100C9
:103CB00082420AD141F23000C4F20200006835A10C
:103CC00000F0030051F8201000E0102141F2002024
:103CD000BCF5004FC0F27A000ED108291BD8002590
:103CE000DFE801F0051920191D1919193300002505
:103CF000FEF76EFAB8B941E008292CD80025DFE8B4
:103D000001F0052A312A2E2A2A2A42000025FEF730
:103D10005FFA40BB32E00020012520B92EE00025EB
:103D2000FEF768FA50B361684A0802EB4000B0FB46
:103D3000F1F14FF6F070084005D0C1F3420122685E
:103D40000843D0601AE0012518E04FF40040002538
:103D50000028E8D112E00020012520B90EE000255E
:103D6000FEF748FA50B1616800EB5100B0FBF1F08A
:103D700080B2102826BF2168C8600125002128468E
:103D80006166A166B0BD4FF4004000250028EAD16D
:103D9000F4E700BF0000000004000000080000007D
:103DA000020000002DE9F04381B004460068C069BC
:103DB0000840401AB0FA80F04009904235D1DDF851
:103DC000208015460E46994608F1010709E000BF1C
:103DD0002068C0693040801BB0FA80F04009A842DA
:103DE00023D1002FF4D0FDF73FFC2168B8F1000F7C
:103DF0000A681ED0A0EB090040451AD8500744BFFE
:103E0000C8695FEA0050E3D54FF4006008620868B3
:103E100020F4D0700860886820F0010088602020BD
:103E2000A067E067C4F880000DE0002001B0BDE8A5
:103E3000F08322F4D0700860886820F00100886068
:103E40002020A067E06700206067032001B0BDE884
:103E5000F0830000FEE70000002848BF704700F034
:103E60001F01012202FA01F14EF200124009CEF2C6
:103E7000000242F8201070474EF60C50CEF20000BF
:103E80000068C0F3022070474EF6145300F00F0292
:103E9000CEF2000309011A4400F16043B0F1FF3F84
:103EA000C8BF03F564421170704700004EF60C5114
:103EB000CEF200010A684FF6FF031A4060F30A22AF
:103EC00042F0806040F0FD7008607047FDF7B6FF7B
:103ED000FFF71AFDFFF78CF9FFF770F9FFF7DAF932
:103EE000FFF784FCFFF794F8FFF728F9FFF740F994
:103EF000FFF7ECFBFFF798FCFFF75CFCFFF71AFC01
:103F000040F2C00044F21472DFED360AC2F2000043
:103F1000C0F60002B7EE000A0121FFF7BDFC40F237
:103F20000C24C2F2000420464FF48031FDF710FE4D
:103F300020460321FDF73EFE20464FF40031FDF7F9
:103F400007FE20460C21FDF735FE20464FF4802168
:103F5000FDF7FEFD40F20044C4F6000420460821AF
:103F60000022FDF77BFB204610210022FDF776FBA7
:103F70004FF0904040210022FDF770FB40F22040BE
:103F8000C2F20000FEF7E8FB40F2B030C2F20000DF
:103F9000FEF7E2FB40F2241040F27601C2F200008C
:103FA000C2F200011E22FCF7FDFE40F2AC14C2F288
:103FB00000042046102100224FF4FA63FDF780F937
:103FC00020461021FDF790F940F27810C2F200006F
:103FD000FDF72EF840F24030C2F20000FEF77EFB03
:103FE000FEE700BFCDCCCC3E40F20C22C2F2000274
:103FF000126802EBC11145F66C32121A02EBD27252
:10400000C1F89C0000EB6200C1F8A400704710B535
:104010002DED028BB1EEC08A18EE100A20F00040A0
:10402000C0F1FF40C00F0AD010EE100A20F000408F
:10403000C0F1FF40C00F04BF0120FCF744F9B0EE0F
:10404000480ABDEC028B10BD21F0004201F0004394
:10405000A2F16052B2F5801F28BFD2F17F6C0BD95C
:104060005FEA001C43EAC20242EB507018BF70477F
:1040700028BF20F001007047B2F5801FBCBF184672
:1040800070474FEA410C1CF5001F02D2084600F0B1
:104090001FBB70B500F05CF900000089FFF7F6BFA8
:1040A0004FF00040A0F580007047000010B591EA85
:1040B000030F48BF83F0004300F1A681841A71EB1F
:1040C000030C05D2121943EB0C03001B61EB0C012E
:1040D0004FEA1154A4EB135CDFF81CE11EEA430F16
:1040E00018BF9EEA445F00F0748021EA045123EA7D
:1040F0000E0343F48013DCF1200E32D322FA0CFEBF
:1041000010EB0E0023FA0CFE41EB0E01CCF1200E59
:1041100003FA0EFE10EB0E00CCF1200E51F100015F
:10412000B1F5801F32D201EB045112FA0EF2BDE854
:10413000104058BF7047401C38BF5FEA420218BFAA
:104140007047002814BF20F0010041F100014FEA40
:10415000410313F5001F38BF7047A1F1C04100F0C3
:1041600045B9012A43EB0302ACF1200CDCF11F0E30
:1041700032BF4FF0000E23FA0CF310EB030041EBBB
:104180000451B4EB115FD0D0A1EB045101F58011C3
:10419000490801EB04515FEA30000ED350F10000F2
:1041A00038BF12FA0EFE08D1BDE81040C9E7401C26
:1041B00038BF5FEA4202CAD1C3E7BDE810404FEA08
:1041C000410313F5001F38BF7047A1F1C04100F053
:1041D0000DB99EEA445F08D011EA5E0FBDE81040B9
:1041E00004BF01F0004100207047BDE8104070B5E9
:1041F00000F0AEF864FBBE3E0000E0FF70B5DFF8F3
:1042000048C11CEA111E1EBF1CEA13159EEA0C0FC2
:1042100095EA0C0F00F06F8081EA03044EEAD47E29
:10422000AE4421EA4C1123EA4C1341F4801143F4CB
:104230008013AEF17F7EA1FB024CA0FB0365361913
:1042400055EB0C05A1FB034C4CF10003A0FB021C39
:1042500016EB0C06654153F10003094218BF46F006
:10426000010613F4007F0BD14FEA03314FEA05300A
:1042700041EA155140EA165034036FF003020AE098
:104280004FEAC3214FEAC52041EA555140EA565052
:10429000F4026FF0020202EB2E4201EB025585EAB6
:1042A000CE710AD05FEA440C18BF24F0004450F1EC
:1042B000000041F1000120EAD47040F2FE7C62452A
:1042C00000D270BDA84214BF4FF080444FF040446C
:1042D000002E08BF0024BEF1806FA8BFA1F1C0412D
:1042E000BDE8704080F2828001F1C04101F00041E0
:1042F0004FF0000070470CEA13159EEA0C0F18BF30
:1043000095EA0C0F06D081EA030E4FF000000EF084
:10431000004170BD00F01CF88900013E00F007B8B4
:1043200000F009B84FEA430C5FEA5C5C08D081EA10
:10433000030100F05BB84FEA410C5FEA5C5CF6D128
:1043400002494FF0000070470000FF070000F87FAF
:104350000EF1020E2EF0030E5EF8046B364205D409
:10436000012A43EB030515F5001F12D8012841EB84
:10437000010C1CF5001F0CD80ED14FEAD17C0CEBC0
:104380004C0C0CF1020C15F5001F08BF4CEBD37C54
:1043900004E04FF0080C01E04FEAD37C0CEB4C0535
:1043A00026FA05F606F00706B6F1040C06D20EEB67
:1043B000860CBDE870404CF0010C6047DFE80CF063
:1043C000090B02024FF00041A1F500214FF000005F
:1043D00070BD19461046012851EB010418BFD4F5F1
:1043E000001484BF002001F0004170BD0808A0F552
:1043F00000114FEA3101704710B591EA030F48BF31
:1044000083F000433FF55AAE841A71EB030C07D2D8
:104410008CF0004C121943EB0C03001B61EB0C01F8
:104420004FEA1154A4EB135CDFF8A4E11EEA430F3A
:1044300018BF9EEA445F00F0B48021EA045123EAE9
:104440006E035242C3EB6E0338BF5B1EDCF1200EDD
:1044500025D322FA0CFE10EB0E0043FA0CFE41EBC2
:104460000E01CCF1200E03FA0EFE10EB0E00CCF183
:10447000200E51F1000129D401EB045112FA0EF281
:10448000BDE8104058BF7047401C1CBFB2F1004F40
:10449000704700280CBF491C20F00100704712EB48
:1044A000020E43EB030218BF4FF0010E4EEA420228
:1044B000ACF1200CDCF11E0E56D943FA0CFE10EBC9
:1044C0000E00CCF11E0E51F1FF31D5D50EF1010ECB
:1044D00012FA0EFE404141EB010101EB445C5FEA40
:1044E0005C5C10D901EB045110EBDE7038BFBEF1FB
:1044F000004FBDE8104018BF704700280CBF491C92
:1045000020F00100704734D24FEAD42C24F4006428
:1045100011F500111BD0B1FA81F20B3AA41AA41EB6
:10452000D2F12003914030FA03F31943904001EB9C
:10453000CC7101EB0451002CBDE81040A8BF7047BE
:1045400001F1C04101F000414FF000007047B0FAA6
:1045500080F310FA03F102D1BDE810407047E41A6D
:10456000173C4805C90AE2E701EB0451BDE81040D9
:10457000704749104FEA300001EB0451BDE810408C
:1045800002E04FF0000170474A0008BF0042F8D037
:10459000B2F5001F28BF704701F000414FF0000046
:1045A00070479EEA445F07D011EA5E0FBDE81040F5
:1045B00004BF002100207047BDE8104070B5FFF730
:1045C000C7FE00BF40DFF63E104683F00041704753
:1045D0000000E0FF43004FEAD30C4FEA3C0C43409D
:1045E0001FBF40070CF1605113F0FE4F70471CF0E5
:1045F000006F03D10CF00041002070470CF0004325
:1046000043EA507040EACC0010B500F00EF800BF4D
:10461000000000924FEA0001FFF7E8BE4FF00041B2
:10462000A1F500214FF0000070470EF1020E2EF0B0
:10463000030E5EF8044B244204D44FEA4102B2F167
:104640007F4F11D84FEA4003B3F17F4F0CD80ED102
:104650004FEAD07C0CEB4C0C0CF1020CB2F17F4F0A
:1046600008BF4CEBD17C04E04FF0080C01E04FEAAE
:10467000D17C0CEB4C0324FA03F404F00704B4F1EE
:10468000040C06D20EEB840CBDE810404CF0010C7B
:104690006047DFE80CF0070802024FF00040A0F589
:1046A000800010BD0846420018BFD2F1807288BF5A
:1046B00000F0004010BDF1EE100A4FF6FF71C0F29D
:1046C000C03120EA010040F04070E1EE100A70476E
:1046D000FF2141EAD050C0057047000000000000F3
:1046E000000001020304060708090000000001029F
:1046F000030402030405060708090A0B0C0D0E0F3C
:1047000010100102030405060708090A0B0C0D0E20
:104710000F10000000000000CDCCCC3E00000000D7
:1047200084033004DD048A053606E3068F073B0860
:10473000E60891093C0AE70A910B3A0CE30C8B0D51
:10474000330EDA0E800F2610CB106F111212B41236
:104750005513F51394143215CF156B1605179F17C3
:104760003718CE186319F7198A1A1B1BAA1B391C94
:10477000C51C501DD91D611EE71E6B1FEE1F6F204B
:10478000EE206B21E6215F22D6224B23BF2330246B
:104790009F240C257725E0254726AB260D276D277E
:1047A000CB2727288028D6282B297D29CD291A2AEE
:1047B000652AAD2AF32A362B772BB52BF12B2A2C21
:1047C000612C952CC72CF62C222D4C2D732D972D5A
:1047D000B92DD82DF42D0E2E252E392E4B2E5A2ED6
:1047E000662E6F2E762E7A2E7C2E7A2E762E6F2EB9
:1047F000662E5A2E4B2E392E252E0E2EF42DD82D08
:10480000B92D972D732D4C2D222DF62CC72C952CC0
:10481000612C2A2CF12BB52B772B362BF32AAD2AC2
:10482000652A1A2ACD297D292B29D62880282728D0
:10483000CB276D270D27AB264726E02577250C25AE
:104840009F243024BF234B23D6225F22E6216B21F5
:10485000EE206F20EE1F6B1FE71E611ED91D501D3D
:10486000C51C391CAA1B1B1B8A1AF7196319CE1801
:1048700037189F1705176B16CF1532159414F513BB
:104880005513B41212126F11CB102610800FDA0ECE
:10489000330E8B0DE30C3A0C910BE70A3C0A91099D
:1048A000E6083B088F07E30636068A05DD04300478
:1048B000D04800080000002010000000C4010008DB
:1048C000E048000810000020200B0000E001000874
:1048D00000127A000010000001000000100000002B
:040000050800018965
:00000001FF
