:020000040800F2
:10000000D80900209D01000811630008355600083A
:100010000D630008F5090008C97000080000000021
:10002000000000000000000000000000456A000819
:10003000F10A000800000000416A00089D6A0008FB
:10004000B7010008B7010008B7010008B7010008B0
:10005000B7010008B7010008B7010008B7010008A0
:10006000B7010008B7010008B7010008590A0008E5
:10007000B7010008B7010008B7010008B701000880
:10008000B7010008B7010008B7010008B701000870
:10009000B7010008B7010008B7010008B701000860
:1000A000B7010008B7010008B7010008B701000850
:1000B000B7010008B701000800000000B701000800
:1000C000B70100080000000000000000B7010008B0
:1000D00000000000B7010008B7010008B7010008E0
:1000E000B7010008B7010008000000000000000090
:1000F0000000000000000000000000000000000000
:1001000000000000000000000000000000000000EF
:100110000000000000000000B7010008B70100085F
:1001200000000000000000000000000000000000CF
:1001300000000000000000000000000000000000BF
:10014000B7010008B701000800000000D54700080B
:10015000B7010008B7010008B7010008B70100089F
:10016000B7010008B701000800000000000000000F
:10017000000000000000000000000000000000007F
:1001800000000000B7010008DFF80CD000F092FA80
:1001900000480047ED730008D80900200648804752
:1001A00006480047FEE7FEE7FEE7FEE7FEE7FEE75C
:1001B000FEE7FEE7FEE7FEE7516B00088901000855
:1001C0002DE9F05F0546002092469B46884606468C
:1001D000814640241BE0284641464746224600F01F
:1001E000A0F853465A46C01A914110D311461846FA
:1001F000224600F087F82D1A67EB01084F46224689
:100200000120002100F07EF817EB00094E41201E6E
:10021000A4F10104DFDC484631462A464346BDE8E6
:10022000F09FD2B201E000F8012B491EFBD27047CB
:100230000022F6E710B513460A4604461946FFF7B2
:10024000F0FF204610BD30B5041E71F1000404DB40
:100250004FF00044404264EB0101141E73F10004AE
:1002600005DB1C464FF00043524263EB0403101AB7
:100270008B4101D2012030BD002030BD30B5041EBD
:1002800071F1000404DB4FF00044404264EB0101D3
:10029000141E73F1000405DB1C464FF0004352426C
:1002A00063EB0403101A8B4101D3012030BD002001
:1002B00030BD00F0004230F000400AD0C10D01F521
:1002C0006071C0F3160042EA0151C20840071143B1
:1002D000704700200146704730B50B4601460020AC
:1002E0002022012409E021FA02F59D4205D303FAF8
:1002F00002F5491B04FA02F52844151EA2F1010279
:10030000F1DC30BD202A04DB203A00FA02F10020A3
:1003100070479140C2F1200320FA03F31943904043
:100320007047202A04DB203A21FA02F000217047AE
:1003300021FA02F3D040C2F120029140084319464D
:1003400070472DE9FE4F804681EA0300C00F0C463E
:10035000009021F0004123F00045B8EB0200A941D4
:1003600005D24046214690461C460B46024623F0E5
:100370000040104347D0270DC7F30A00C3F30A51CA
:100380000290401A019040286BDAC3F3130040F446
:10039000801B0098924620B10023D2EB030A63EB46
:1003A0000B0B01985946C0F140025046FFF7AAFFD7
:1003B00006460D4650465946019A00F08DF910EB5D
:1003C00008006141002487EA115284EAE7731A4366
:1003D00040D0009A62B3019A012A4FEA075215DC15
:1003E000001B61EB02014FF0004202EA0752CDE927
:1003F0000042001C41F5801132462B4600F08DF979
:1004000003B0BDE8F08F40462146F9E7001B61EBE1
:100410000201001C41F5801300185B412018A2F571
:10042000001747EB030140EAD570B6196D4111E0A2
:100430006D084FEA360645EAC0754FEA0752001BC1
:1004400061EB0201001C41F5801149084FEA3000C0
:100450000019514132462B4603B0BDE8F04F00F081
:100460004DB90098012240000023D0EB020263EB5B
:10047000E073009821464FEAE074B8EB000061EBAE
:100480000401E9E783F000435BE781F0004158E7AE
:100490002DE9FE4F81EA030404F0004421F00041FD
:1004A00000944FF0000B23F0004350EA01045ED0AB
:1004B00052EA03045BD0C3F30A54C1F30A552C4437
:1004C000A4F2F3340194A0FB0254C1F3130141F4EC
:1004D0008011C3F3130343F4801301FB024400FBB8
:1004E000034E840A970A44EA815447EA8357A4FBDF
:1004F000076802958D0A05FB07854FEA932C04FBDC
:100500000C542705029D4FEA065847EA1637B5EB0B
:1005100008056EEB070C870E920E47EA811742EA38
:100520008312A7FB0201B6EB0B0164EB00042B0D59
:1005300043EA0C335E1844EB1C50DA465146E7FBA5
:100540000201C5F313044FEA0B3343EA14534FEA95
:100550000432019C43EA0603A4F10C040294009CBB
:10056000CDE900B400F0D9F803B0BDE8F08F002069
:100570000146F9E72DE9F04D81EA030404F0004B50
:1005800021F0004514464FF0000A23F0004150EAE4
:10059000050220D054EA01021DD0C5F30A570246D5
:1005A000C5F31303C1F31300C1F30A5640F48015D9
:1005B00043F48013A7EB0608101BD64608F2FD385B
:1005C00073EB050002D308F1010801E092185B41CA
:1005D000B8F1000F03DA00200146BDE8F08D0020DD
:1005E0004FF48011064684460EE0171B73EB050797
:1005F00005D3121B63EB050306434CEA010C4908C3
:100600004FEA300092185B4150EA0107EDD152EAFF
:10061000030012D082EA040083EA0501084305D0F2
:10062000101BAB4106D20122002306E000224FF04E
:10063000004302E06FF0010253101AEB06004CEB8E
:10064000085110EB0A0041EB0B01BDE8F04D00F042
:1006500055B8C1F30A52C1F3130140F2FF3341F41C
:1006600080119A4202DA00200146704740F233437B
:100670009A42A2F2334202DC5242FFF752BEFFF727
:1006800041BE000030B5041E71F1000404DB4FF0E0
:100690000044404264EB0101141E73F1000405DBC9
:1006A0001C464FF00043524263EB0403994208BFDB
:1006B000904230BD064C074D06E0E06840F0010373
:1006C00094E8070098471034AC42F6D3FFF760FD7A
:1006D0004887000868870008202A06DBCB17203AE5
:1006E00041FA02F043EAE07306E041FA02F3D04037
:1006F000C2F12002914008431946704710B5141EFC
:1007000073F1000408DA401C41F1000192185B41CA
:100710001A4301D120F0010010BD2DE9F04D9246A1
:100720009B4611B1B1FA81F202E0B0FA80F22032B8
:100730009046FFF7E7FD04460F4640EA0A0041EA0B
:100740000B0153465A46084313D0114653EA0100A1
:1007500019D0C8F140025046FFF7E3FD05460E46AA
:10076000504659464246FFF7CDFD084305D00120CB
:1007700004E020463946BDE8F08D0020054346EAF6
:10078000E0762C4337430A986305E40AA0EB08009F
:100790000022FD0A44EA47540A3002D500200146EF
:1007A000E9E7010510196941DDE9084500196941CA
:1007B000BDE8F04DA2E7000080B582B0019001983D
:1007C000406A00900098006C10F0500F26D1FFE7AF
:1007D0000099086C40F40070086400980068C068D4
:1007E00010F4406F16D1FFE70098407E90B9FFE704
:1007F0000099086C20F4807008640098006CC004B4
:10080000002806D4FFE70099086C40F00100086456
:10081000FFE7FFE7009800F0E7FC05E00098806B39
:10082000016B01988847FFE702B080BD80B582B0B8
:1008300001900198406A00900099086C40F04000D7
:1008400008640099486C40F004004864009800F087
:1008500047FE02B080BD000080B582B001900198D3
:10086000406A0090009800F037FE02B080BD0000A2
:1008700080B584B0029000200190029909688968CF
:1008800001F003010129009005D1FFE702980068FB
:1008900000680090FFE70098C007002844D0FFE7F9
:1008A00002980068806800F00D0001280DD1FFE774
:1008B000FFE702980168886840F0020088600298AB
:1008C000016803200860FFE70DE00299086C40F022
:1008D000100008640299486C40F00100486401204F
:1008E0008DF80F0024E001F033FC0190FFE702983F
:1008F00000688068C007B0B1FFE701F029FC0199EA
:10090000401A03280ED3FFE70299086C40F010004C
:1009100008640299486C40F00100486401208DF899
:100920000F0005E0E3E7FFE700208DF80F00FFE789
:100930009DF80F0004B080BD80B584B00290002007
:10094000019002990968896801F00301012900906A
:1009500005D1FFE70298006800680090FFE7009863
:10096000C00700283ED1FFE70298006880683F2159
:10097000C8F2000108420ED0FFE70299086C40F06F
:10098000100008640299486C40F00100486401209E
:100990008DF80F002AE002980168886840F0010095
:1009A000886001F0D5FB0190FFE7029800680068BD
:1009B000C007B0B9FFE701F0CBFB0199401A03284B
:1009C0000ED3FFE70299086C40F01000086402990A
:1009D000486C40F00100486401208DF80F0005E0EC
:1009E000E3E7FFE700208DF80F00FFE79DF80F0019
:1009F00004B080BDFFE7FEE780B582B08DF8070048
:100A00009DF8070001280BD1FFE740F26401C2F214
:100A100000014FF07E500860012006F00BFCFFE75C
:100A20009DF8070002280DD1FFE740F26401C2F2F1
:100A300000014CF6CD40C3F6CC500860022006F011
:100A4000F9FBFFE79DF8070020B9FFE7002006F05B
:100A5000F1FBFFE702B080BD80B540F2C020C2F2DA
:100A6000000001F05BF880BD81B00090009908683B
:100A70004FF6F872CBF6FD7210444CF6CD42CCF630
:100A8000CC42A0FB02026FF0030000EA920008646F
:100A900000990020C4F20200C86301B07047000052
:100AA00084B003900291019200930398C16B026C91
:100AB00001209040486000980399096848600398B5
:100AC0004068102809D1FFE70198039909688860F8
:100AD000029803990968C86008E0029803990968B8
:100AE0008860019803990968C860FFE704B07047FF
:100AF0007047000081B0EFF3108072B60090FFE7FE
:100B0000FEE700009DB01B901A9100208DF8670051
:100B10001A98006808B1FFE7FFE71B980068B0F17A
:100B2000A04F06D1FFE740F20010C5F2000004908C
:100B300003E04FF0A0400490FFE7049820B9FFE7DE
:100B400001208DF87300B4E0FFE71B9890F83C009B
:100B5000012804D1FFE702208DF87300A9E01B995A
:100B6000012081F83C00FFE7FFE71B9800688068E0
:100B700000F004010020B0EB910F40F08680FFE709
:100B80000498806800F004010020B0EB910F7CD144
:100B9000FFE740F20030C5F2000018901A98006894
:100BA000002840D0FFE71898806820F460401A9928
:100BB00049681B9A92F8302041EA4231084318995B
:100BC00088601B980068806800F0030100200129FC
:100BD000039005D1FFE71B98006800680390FFE7CA
:100BE0000398C007F0B9FFE70498806800F003019C
:100BF00000200129029004D1FFE7049800680290C8
:100C0000FFE70298C00768B9FFE71898806840F6C8
:100C10001F7188431A9A1168926811430843189902
:100C20008860FFE730E01899886820F460408860A9
:100C30001B980068806800F00301002001290190E2
:100C400005D1FFE71B98006800680190FFE7019855
:100C5000C007C0B9FFE70498806800F003010020D6
:100C60000129009004D1FFE7049800680090FFE795
:100C70000098C00738B9FFE71899886840F61F72D6
:100C800090438860FFE7FFE708E01B99086C40F09D
:100C90002000086401208DF86700FFE7FFE71B993B
:100CA000002081F83C00FFE79DF867008DF8730095
:100CB000FFE79DF873001DB0704700009FB01D90C6
:100CC0001C9100208DF86F0004901C98C0680128CA
:100CD00001D0FFE700E0FFE7FFE71D9890F83C0038
:100CE000012804D1FFE702208DF87B0078E21D99EE
:100CF000012081F83C00FFE7FFE71D98006880684D
:100D000000F004010020B0EB910F40F05582FFE7A6
:100D10001C984068042812D8FFE71D980068006BF3
:100D20001C9A1168526802EB420252001F23934042
:100D30009843914008431D99096808634AE01C984C
:100D40004068092815D8FFE71D980068406B1C9A79
:100D50001168526802EB42036FF01D0202EB43027E
:100D60001F2393409843914008431D9909684863A5
:100D70002FE01C9840680E2815D8FFE71D980068E2
:100D8000806B1C9A1168526802EB42036FF03B02C1
:100D900002EB43021F2393409843914008431D995F
:100DA0000968886314E01D980068C06B1C9A11687C
:100DB000526802EB42036FF0590202EB43021F2319
:100DC00093409843914008431D990968C863FFE721
:100DD000FFE7FFE71D980068806810F00C0F40F0F7
:100DE000D980FFE71C9800680A2812D3FFE71D98F6
:100DF000006880691C990A68896802EB42021E3A01
:100E0000072393409843914008431D9909688861DE
:100E100010E01D98006840691C990A68896802EB17
:100E20004202072393409843914008431D99096863
:100E30004861FFE71C9840691D990968C96801F07D
:100E400018018908884005901C98006901380146FE
:100E50000391032854D80399DFE801F002162A3ED3
:100E60001D980068006E4FF20001C0F2FF31014092
:100E70001C980268059840EA8260084340F00040F0
:100E80001D990968086684E01D980068406E4FF25D
:100E90000001C0F2FF3101401C980268059840EA49
:100EA0008260084340F000401D990968486670E080
:100EB0001D980068806E4FF20001C0F2FF310140C2
:100EC0001C980268059840EA8260084340F00040A0
:100ED0001D99096888665CE01D980068C06E4FF235
:100EE0000001C0F2FF3101401C980268059840EAF9
:100EF0008260084340F000401D990968C86648E0D8
:100F00001D980068006E00F0F8401C990968B0EB6D
:100F1000816F07D1FFE71D980168086E20F000403F
:100F20000866FFE71D980068406E00F0F8401C99C5
:100F30000968B0EB816F07D1FFE71D980168486E23
:100F400020F000404866FFE71D980068806E00F0C2
:100F5000F8401C990968B0EB816F07D1FFE71D9835
:100F60000168886E20F000408866FFE71D980068E1
:100F7000C06E00F0F8401C990968B0EB816F07D192
:100F8000FFE71D980168C86E20F00040C866FFE7C3
:100F9000FFE7FFE71D980068806800F0030100206C
:100FA0000129029005D1FFE71D98006800680290B2
:100FB000FFE70298C007002840F0FD80FFE71C987B
:100FC000C06801280DD0FFE71C980168012000FAD5
:100FD00001F21D980168D1F8B0009043C1F8B0004B
:100FE00035E01C980168012000FA01F21D980168A3
:100FF000D1F8B0001043C1F8B0001C9800680A286E
:1010000012D3FFE71D98006880691C990A688968F7
:1010100002EB42021B3A0723934098439140084356
:101020001D990968886111E01D98006840691C9944
:101030000A68896802EB420203320723934098430F
:10104000914008431D9909684861FFE7FFE740F2B6
:101050000030C5F200001A901C980068102806D1D4
:10106000FFE71A9880680002002818D5FFE71C984F
:101070000068112806D1FFE71A988068C00100288F
:101080000DD5FFE71C980068122840F09380FFE719
:101090001A9880684002002800F18C80FFE71D98B4
:1010A0000068B0F1A04F06D1FFE740F20010C5F292
:1010B0000000069003E04FF0A0400690FFE71D9867
:1010C0000068806800F0030100200129019005D12B
:1010D000FFE71D98006800680190FFE70198C007CE
:1010E00000285DD1FFE7069890B1FFE70698806879
:1010F00000F0030100200129009004D1FFE70698C9
:1011000000680090FFE70098C007002848D1FFE77B
:101110001C980068102824D1FFE71D980068B0F1E2
:10112000A04F1ED1FFE71A99886840F4000088603C
:1011300040F20000C2F2000000684DF68361C4F284
:101140001B31A0FB0110800C00EB800040000490DC
:10115000FFE7049820B1FFE7049801380490F8E70E
:101160001DE01C98006811280CD1FFE71D9800684D
:10117000B0F1A04F06D1FFE71A99886840F080705F
:1011800088600BE01C980068122806D1FFE71A99C6
:10119000886840F480008860FFE7FFE7FFE708E029
:1011A0001D99086C40F02000086401208DF86F0044
:1011B000FFE7FFE7FFE708E01D99086C40F020001B
:1011C000086401208DF86F00FFE7FFE71D990020FC
:1011D00081F83C00FFE79DF86F008DF87B00FFE78A
:1011E0009DF87B001FB0704780B58AB009900998C0
:1011F00040F27021C2F20001884240F06681FFE7B0
:1012000040F28C00C2F200000078012835D1FFE7DF
:1012100040F22020C2F2000090ED040A9FEDAC1ACB
:1012200030EE010A80ED040A40F2D810C2F200004C
:1012300090ED040A30EE010A80ED040A90ED040AF4
:101240009FEDA41AB4EE410AF1EE10FA14DBFFE7A9
:1012500040F28C01C2F200010020087040F220210F
:10126000C2F200010020C4F26160086140F2D811AE
:10127000C2F200010861FFE7FFE700208DF81B00C4
:10128000FFE79DF81B00062800F38280FFE700209F
:10129000ADF82200FFE7BDF8220009281BDCFFE7BC
:1012A000BDF82220C2EBC20140F2F400C2F20000FD
:1012B00000EB41009DF81B1030F8110040F20C517A
:1012C000C2F2000121F81200FFE7BDF82200013050
:1012D000ADF82200DFE740F20C50C2F200000A2114
:1012E00005F054FF0220ADF8220000200790FFE730
:1012F000BDF82200072812DCFFE7BDF8221040F2FB
:101300000C50C2F2000030F8111007980844079002
:10131000FFE7BDF822000130ADF82200E8E79DEDBF
:10132000070AB8EE400AB1EE081A80EE010ABDEED7
:10133000C00A10EE100A9DF81B1040F28012C2F293
:10134000000222F811009DF81B1040F22400C2F2A6
:10135000000000EBC10032F8112000EE102AB8EEB8
:10136000C02A90ED000A90ED011A20EE020A30EE3C
:10137000010A40F2D800C2F2000000EB810080EDCB
:10138000000AFFE79DF81B0001308DF81B0078E78D
:1013900040F2D800C2F20000059090ED020A40F23F
:1013A0008000C2F20000D0ED000A40F29050C2F27C
:1013B0000000019005F0DEF90198059991ED030A0E
:1013C00090ED081A40F26400C2F20000029090ED25
:1013D000002A61EE020A40F2B840C2F20000039017
:1013E00005F0C8F901990298059A92ED060A91ED67
:1013F000081A90ED003AB7EE002A32EE432A61EE69
:10140000020A40F29010C2F20000049005F0B2F916
:101410000399049A059891ED081A9FED2E0A30EE73
:10142000411A40F20431C2F200010B68BCEEC11A4D
:1014300083ED271A92ED081A30EE410A0968BCEED6
:10144000C00A81ED870A90ED050A40F27C00C2F2E5
:101450000000D0ED000A40F22020C2F2000005F0AA
:1014600089F940F28A00C2F200000088B0F57A7F64
:1014700009D1FFE704F078FA40F28A01C2F20001D4
:1014800000200880FFE740F28A01C2F200010888CC
:101490000130088040F22020C2F2000090ED080ADE
:1014A00040F20430C2F200000068BCEEC00A80EDD9
:1014B000470A40F27020C2F2000040F2F401C2F28A
:1014C0000001462200F032FAFFE70AB080BD00BFFB
:1014D0000000FA440000614681B0009001B07047FE
:1014E00081B0009001B0704780B59CB01A90002088
:1014F0008DF86700039002901A9820B9FFE7012049
:101500008DF86F008BE11A98006938B1FFE71A98DF
:1015100090F8200008B1FFE7FFE7FFE71A98006C9A
:10152000C006002877D4FFE71A98006C002852D133
:10153000FFE71A99002048641A99C8641A998864C8
:101540001A9981F83C001A9800F06EF91A98006810
:101550008068C00000283DD4FFE71A98FFF788F99B
:101560008DF867001A98006CC006002831D4FFE798
:101570009DF8670068BBFFE71A98006C40F0020016
:1015800020F488501A9908641A980168886820F035
:10159000405088601A980168886840F080508860E0
:1015A00040F20000C2F2000000684DF68361C4F210
:1015B0001B31A0FB0110800C00EB8000400002906A
:1015C000FFE7029820B1FFE7029801380290F8E7A0
:1015D000FFE7FFE7FFE71A9800688068C00000286F
:1015E00007D5FFE71A98006880688000002811D5A9
:1015F000FFE71A98006C40F0100020F002001A99E2
:1016000008641A99486C40F00100486401208DF884
:101610006700FFE7FFE71A98006CC006002800F19A
:10162000ED80FFE79DF86700002840F0E780FFE7C6
:101630001A980068806800F004010020B0EB910F58
:1016400040F0DC80FFE71A98006C40F0020020F4C4
:1016500080701A99086440F20030C5F200001890BA
:101660001A980068B0F1A04F06D1FFE740F20010D1
:10167000C5F20000049003E04FF0A0400490FFE7A3
:101680001A980068806800F0030100200129019089
:1016900005D1FFE71A98006800680190FFE70198FC
:1016A000C007F0B9FFE7049888B1FFE704988068A5
:1016B00000F0030100200129009004D1FFE7049805
:1016C00000680090FFE70098C00750B9FFE718983E
:1016D000806820F440301A99496808431899886056
:1016E000FFE71A9A507E4003536B00F58051012B9F
:1016F00018BF08469168D268104301430398084315
:1017000003901A9890F82000012820D1FFE71A983A
:10171000407E68B9FFE71A98416A0020CFF6FE7054
:1017200000EB41400399084340F4803003900DE002
:101730001A98006C40F0200020F002001A9908640A
:101740001A99486C40F001004864FFE7FFE71A98D7
:10175000806A012808D0FFE71A99886AC96A01439C
:10176000039808430390FFE71A980068806810F018
:101770000C0F12D1FFE71A980168C86844F2020200
:101780009043C8601A99087E91F83010800340EAAF
:101790004101039808430390FFE71A980068C06866
:1017A0004CF20701CFF6F0710840039908431A99EB
:1017B0000968C8601A98006901280CD1FFE71A98D7
:1017C0000068006B20F00F001A9A1168D269013A84
:1017D0001043086306E01A980168086B20F00F00B8
:1017E0000863FFE71A99002048641A98006C40F0DB
:1017F000010020F002001A9908640BE01A98006CAE
:1018000040F0100020F002001A99086401208DF8C1
:101810006700FFE79DF867008DF86F00FFE79DF810
:101820006F001CB080BD000080B58EB00D90002010
:101830000C900B900A90099008900D980068B0F1F8
:10184000A04F71D1FFE7FFE741F21400C4F202009C
:10185000016841F080510160006800F080500790FD
:101860000798FFE7FFE741F21400C4F202000168A5
:1018700041F400310160006800F4003006900698E1
:10188000FFE7FFE741F21400C4F20200016841F4EF
:1018900080210160006800F4802005900598FFE732
:1018A0000F200890032001900990002003900A90D7
:1018B0004FF0904008A9029100F09AFA019A02991B
:1018C000039842F20303089309920A9040F2004001
:1018D000C4F6000000F08CFA039940F2C020C2F276
:1018E000000004900822C4F202020260416081609C
:1018F0008022C2604FF4807202614FF480624261C4
:101900008161C16100F0A8F918B1FFE7FFF7F2F8B3
:10191000FFE7FFE70D9840F2C021C2F200018163AA
:101920000D984862FFE7FFE70EB080BD80B586B036
:1019300004900391029200208DF807000499096831
:10194000896801F00401B0EB910F40F0DA80FFE705
:10195000FFE7049890F83C00012804D1FFE702203B
:101960008DF81700D6E00499012081F83C00FFE7CC
:10197000FFE740F20830C5F200000068C00600280A
:1019800040F0B480FFE70498FEF7D6FF8DF807001B
:101990009DF80700002840F0A180FFE70498006C44
:1019A00040F4807040F6016188430499086440F275
:1019B0000830C5F200000068C00630B1FFE70498A7
:1019C0000068B0F1A04F16D1FFE70499086C20F42D
:1019D0008010086404980068C0688001002809D558
:1019E000FFE70498006C40F4805020F40050049904
:1019F0000864FFE728E00499086C40F4801008644C
:101A000004980068B0F1A04F09D0FFE7049800687F
:101A100040F20011C5F20001884208D1FFE70C2016
:101A2000C5F2000000688001002803D40BE001200B
:101A300048B9FFE70498006C40F4805020F400504F
:101A400004990864FFE7FFE70498006CC0040028CD
:101A500006D5FFE70499486C20F00600486403E0CF
:101A6000049900204864FFE7FFE70499002081F80B
:101A70003C00FFE70498816B40F2B970C0F60000AB
:101A800088620498816B40F65900C0F60000C86275
:101A90000498816B40F62D00C0F60000086304989E
:101AA00001681C20086004980168486840F0100034
:101AB000486004980168C86840F00100C860049854
:101AC0000168806B4031039A029B00F009F9049889
:101AD0000168886840F00400886006E0FFE7049928
:101AE000002081F83C00FFE7FFE709E001208DF8C6
:101AF0000700FFE70499002081F83C00FFE7FFE7BB
:101B000003E002208DF80700FFE79DF807008DF83D
:101B10001700FFE79DF8170006B080BD80B584B0C0
:101B200003900398C06B00680290039800680068F7
:101B3000019002980399096CC8404007002823D5FA
:101B4000FFE79DF80400400700281DD5FFE7039834
:101B5000006800688006002807D4FFE70398016842
:101B6000086820F004000860FFE70398C16B026C6E
:101B70000420904048600398C06A20B1FFE70398B2
:101B8000C16A8847FFE765E002980399096CC8407D
:101B9000800700282DD5FFE79DF804008007002866
:101BA00027D5FFE7039800680068800600280BD45B
:101BB000FFE703980168086820F00A0008600399AD
:101BC000012081F82100FFE70398C16B026C02201D
:101BD00090404860FFE70399002081F82000FFE76C
:101BE0000398806A20B1FFE70398816A8847FFE77E
:101BF0002FE002980399096CC8400007002827D5F8
:101C0000FFE79DF804000007002821D5FFE70398AF
:101C10000168086820F00E0008600398C26B016C30
:101C2000012000FA01F1516003998863039981F85A
:101C30002100FFE70399002081F82000FFE70398C7
:101C4000006B20B1FFE70398016B8847FFE7FFE7D0
:101C5000FFE7FFE704B080BD80B584B002900020AC
:101C60000190029820B9FFE701208DF80F0033E0C2
:101C70000299022081F82100029800680068019012
:101C8000019843F6F0718843019002994868D1F8B1
:101C900008C0CB680A6940EA0C00184310434A693F
:101CA00010438A691043C9690143019808430190B0
:101CB00001980299096808600298FEF7D5FE02991A
:101CC00000208863029A012182F82110029981F88C
:101CD00020008DF80F00FFE79DF80F0004B080BDD5
:101CE00080B586B0049003910292019300208DF894
:101CF0000300FFE7049890F82000012804D1FFE7D3
:101D000002208DF817004CE00499012081F8200092
:101D1000FFE7FFE7049890F82100012832D1FFE7A0
:101D20000499022081F82100049900208863049816
:101D30000168086820F00100086004980399029A7D
:101D4000019BFEF7ADFE0498C06A38B1FFE7049826
:101D50000168086840F00E0008600CE00498016813
:101D6000086840F00A00086004980168086820F0DC
:101D700004000860FFE704980168086840F001006B
:101D8000086009E0FFE70499002081F82000FFE7E0
:101D900002208DF80300FFE79DF803008DF817007F
:101DA000FFE79DF8170006B080BD000080B584B045
:101DB000039000F0CDF90290039801900198013052
:101DC00048B1FFE740F27400C2F2000001780198C8
:101DD00008440190FFE7FFE700F0BAF90299401AC2
:101DE0000199884201D2FFE7F6E704B080BD000008
:101DF00089B00890079100200690FFE707980068D7
:101E00000699C840002800F08A81FFE7079800681B
:101E1000069A01219140084005900598002800F09D
:101E20007A81FFE70798406801280FD0FFE70798FD
:101E3000406802280AD0FFE707984068112805D0BB
:101E4000FFE70798406812282FD1FFE708988068BD
:101E5000049006984100032000FA01F10498884399
:101E600004900798C0680699490000FA01F10498A7
:101E70000843049004980899886008984068049082
:101E80000699012000FA01F104988843049007980C
:101E90004068C0F30010069900FA01F10498084365
:101EA0000490049808994860FFE70898C068049077
:101EB00006984100032000FA01F104988843049039
:101EC000079880680699490000FA01F104980843D0
:101ED000049004980899C86007984068022805D0C3
:101EE000FFE707984068122826D1FFE7089806996F
:101EF0006FF0030202EA51010844006A0490069858
:101F000000F0070081000F2000FA01F104988843D7
:101F1000049007980069069901F00701890000FA0A
:101F200001F104980843049004980899069B02EA7A
:101F3000530211440862FFE708980068049006986D
:101F40004100032000FA01F10498884304900798A7
:101F5000406800F003000699490000FA01F1049876
:101F6000084304900498089908600798C079C0064F
:101F7000002840F1CF80FFE7FFE741F21800C4F2EC
:101F80000200016841F001010160006800F00100F9
:101F900003900398FFE7069820F003000821C4F29D
:101FA000010140580490069800F0030081000F20C2
:101FB00000FA01F10498884304900898B0F1904F1A
:101FC00003D1FFE70020029026E0089840F200418C
:101FD000C4F60001884203D1FFE70120019018E018
:101FE000089840F60001C4F60001884203D1FFE7DB
:101FF000022000900AE0089940F60042C4F6000270
:102000000520914208BF03200090FFE7009801904F
:10201000FFE701980290FFE70298069901F003019B
:10202000890000FA01F10498084304900498069985
:1020300021F003010822C4F20102885040F200405E
:10204000C4F2010000680490059904988843049044
:1020500007988079C00728B1FFE7059904980843DD
:102060000490FFE7049840F20041C4F201010860C7
:1020700040F20440C4F201000068049005990498FD
:1020800088430490079880798007002805D5FFE7EA
:102090000599049808430490FFE7049840F204412E
:1020A000C4F20101086040F20840C4F20100006877
:1020B0000490059904988843049007988079C00695
:1020C000002805D5FFE70599049808430490FFE729
:1020D000049840F20841C4F20101086040F20C404B
:1020E000C4F20100006804900599049888430490A4
:1020F000079880798006002805D5FFE705990498A0
:1021000008430490FFE7049840F20C41C4F2010137
:102110000860FFE7FFE70698013006906EE609B019
:102120007047000082B00190ADF802108DF80120D8
:102130009DF8010028B1FFE7BDF802000199886110
:1021400004E0BDF8020001998862FFE702B0704721
:1021500040F28C50C2F200000068704786B00490D4
:1021600003910292049890F8C100022804D1FFE77D
:1021700002208DF8170099E0FFE7049890F8C0005E
:10218000012804D1FFE702208DF817008EE00499A2
:10219000012081F8C000FFE7FFE70499022081F8E1
:1021A000C10004980068D0F88003019003980138BA
:1021B00001460091072851D80099DFE801F0041684
:1021C0004F294F4F4F3C019820F4E0200190029896
:1021D000006800F4E02101980843019002984068EB
:1021E00004990968C1F8BC0343E0019820F4601029
:1021F00001900298006800F4E021019840EAC100D3
:1022000001900298406804990968C1F8C00330E061
:10221000019820F0E07001900298006800F4E0213D
:10222000019840EA81100190029840680499096879
:10223000C1F8C4031DE0019820F06060019002988D
:10224000006800F4E021019840EA412001900298E2
:10225000406804990968C1F8C8030AE00499072096
:1022600081F8C100FFE70499002081F8C000FFE772
:10227000FFE7049890F8C100072804D1FFE7012088
:102280008DF8170012E0019804990968C1F88003DD
:102290000499012081F8C100FFE70499002081F82A
:1022A000C000FFE700208DF81700FFE79DF817003A
:1022B00006B0704781B0009001B0704782B00190C5
:1022C000009102B07047000082B00190009102B00E
:1022D0007047000082B00190009102B0704700008A
:1022E00082B00190009102B07047000082B001906E
:1022F000009102B07047000082B00190009102B0DE
:102300007047000082B00190009102B07047000059
:1023100081B0009001B0704783B001900091FFE759
:10232000019890F8C000012804D1FFE702208DF841
:102330000B0043E00199012081F8C000FFE7FFE7AF
:102340000199022081F8C1000098013088B9FFE7A7
:1023500001980168D1F8CC0320F00200C1F8CC0349
:1023600001980168D1F8CC0340F00100C1F8CC031A
:102370001CE001980168D1F8CC0340F00200C1F8DC
:10238000CC0301980068D0F8CC0320F00C00009931
:10239000084301990968C1F8CC0301980168D1F894
:1023A000CC0340F00100C1F8CC03FFE70199012004
:1023B00081F8C10000208DF80B00FFE79DF80B00AD
:1023C00003B0704785B0039002910192039890F892
:1023D000C100022804D1FFE702208DF8130077E046
:1023E000FFE7039890F8C000012804D1FFE702201E
:1023F0008DF813006CE00399012081F8C000FFE71D
:10240000FFE70399022081F8C1000198006800F4F9
:10241000E0500090019841686FF35F2100980843F5
:1024200000900198806800F40071009808430090C3
:102430000198006900F480410098084300900198D9
:10244000C06800F400410098084300900198416979
:102450000020C0F2FF1000EA0141009808430090FC
:102460000198806900F0007100980843009001987D
:10247000006A00F080410098084300900198C0690C
:1024800000F000410098084300900398006802990A
:1024900000EBC110D0F8B80042F20001C3F60041D1
:1024A00008400099084303990968029A01EBC21198
:1024B000C1F8B8000399012081F8C100FFE7039932
:1024C000002081F8C000FFE700208DF81300FFE72F
:1024D0009DF8130005B0704782B00190009102B0E2
:1024E0007047000081B0009001B0704781B000904B
:1024F00001B0704781B0009001B0704781B000908A
:1025000001B0704781B0009001B0704780B582B0D3
:10251000019000910098FF2804D1FFE7019802F094
:10252000A9F90DE00098052804D1FFE7019802F011
:10253000E9FA04E00198009902F0BCFCFFE7FFE72C
:1025400002B080BD80B586B00490049820B9FFE742
:1025500001208DF81700BFE00499022081F8C10026
:1025600004990020C1F8C4000499C1F8C800049976
:10257000C1F8CC000499C1F8D0000499C1F8D40086
:102580000499C1F8D8000498007AC007C0B3FFE7E7
:102590000498006847F20041C4F20101884210D15A
:1025A000FFE7FFE741F21800C4F20200016841F0C2
:1025B00000510160006800F0005001900198FFE7B1
:1025C000FFE70498006800680290029820F44040F9
:1025D00002900498006900F4404102980843029078
:1025E000029820F4405002900498406900F4405151
:1025F0000298084302900298049909680860FFE76E
:10260000049800F06DF80498007A8007002814D52B
:10261000FFE70498006800680290029820F4407078
:1026200002900498C06800F4407102980843029038
:102630000298049909680860FFE70499012081F86D
:10264000C100FFE70499002081F8C000FFE70020E7
:102650008DF80F00FFE79DF80F00052838D8FFE739
:1026600004989DF80F10C1EBC10100EB810100201F
:10267000886104999DF80F20C2EBC20201EB820130
:10268000C86104999DF80F20C2EBC20201EB8201E0
:10269000086204999DF80F20C2EBC20201EB82018F
:1026A000486204999DF80F20C2EBC20201EB82013F
:1026B000886204999DF80F20C2EBC20201EB8201EF
:1026C0000863FFE79DF80F0001308DF80F00C2E7A7
:1026D00000208DF81700FFE79DF8170006B080BDB9
:1026E00080B584B003900398006847F20041C4F2BB
:1026F0000101884219D1FFE7FFE741F21800C4F257
:102700000200016841F000510160006800F00050D3
:1027100002900298FFE7432001900022114600F04A
:102720000BFF019800F0FEFEFFE704B080BD000043
:1027300080B58EB00D9000200C900B900A900990FF
:1027400008900D98006847F20041C4F201018842E8
:1027500049D1FFE7FFE741F21400C4F2020001682B
:1027600041F480210160006800F480200790079800
:10277000FFE7FFE741F21400C4F20200016841F4F0
:1027800000310160006800F4003006900698FFE711
:102790004FF44040089002200190099000200290E0
:1027A0000A90032003900B900D2004900C9040F2AF
:1027B0000040C4F6000008A90591FFF719FBDDF8F9
:1027C00004C0029B039A049805994FF4706ECDF8EB
:1027D00020E0CDF824C00A930B920C904FF090406B
:1027E000FFF706FBFFE70EB080BD000082B001904E
:1027F000009102B07047000082B00190009102B0D9
:102800007047000082B00190009102B07047000054
:1028100082B00190009102B07047000080B584B092
:1028200002900191FFF794FC0090FFE70298006886
:10283000D0F8880300F480310020B0EB114F19D19B
:10284000FFE701980130A0B1FFE7FFF781FC009995
:10285000401A0199884203D8FFE7019840B9FFE781
:102860000299072081F8C10003208DF80F000FE0C6
:10287000FFE7DBE70299012081F8C100FFE7029939
:10288000002081F8C000FFE700208DF80F00FFE76F
:102890009DF80F0004B080BD82B0019000910098B7
:1028A000052801D1FFE7FFE702B0704782B0019031
:1028B000009102B07047000081B0009001B07047F5
:1028C00081B0009001B0704780B584B00290019152
:1028D0000092029890F8C100022804D1FFE702207C
:1028E0008DF80F001AE00299022081F8C1000198CA
:1028F000052805D1FFE70298009902F079F805E074
:1029000002980199009A02F025FDFFE70299012043
:1029100081F8C10000208DF80F00FFE79DF80F003F
:1029200004B080BD87B0059004910392029305988E
:1029300090F8C100022804D1FFE702208DF81B00A7
:102940004CE1FFE7059890F8C000012804D1FFE7AB
:1029500002208DF81B0041E10599012081F8C0009B
:10296000FFE7FFE70599022081F8C10004980528D8
:102970003BD1FFE7039801380146019107281ED893
:102980000199DFE801F0040A1C101C1C1C160298B7
:10299000006805990968C8611CE0029800680599FB
:1029A0000968486216E0029800680599096888621B
:1029B00010E00298006805990968C8620AE0059964
:1029C000072081F8C100FFE70599002081F8C000C9
:1029D000FFE7FFE7059890F8C100072804D1FFE75B
:1029E00001208DF81B00F9E0EAE003980138014668
:1029F0000091072800F2CE800099DFE801F0040E74
:102A0000CB67CBCBCB710298006805990968049A13
:102A100001EBC211C1F89C00C7E00298006805995B
:102A20000968049A01EBC211C1F8A4000298406839
:102A3000D0B3FFE705980068049900EBC111D1F805
:102A4000800020F44050C1F8800002984268059848
:102A50000068049900EBC111D1F880001043C1F85F
:102A6000800002984068B0F5005F0AD1FFE7029845
:102A7000806805990968049A01EBC211C1F89C00AD
:102A800011E002984068B0F5405F0AD1FFE7029874
:102A9000806805990968049A01EBC211C1F8A80081
:102AA00000E0FFE7FFE710E005980068049900EBFD
:102AB000C110D0F8800020F4405005990968049AAC
:102AC00001EBC211C1F88000FFE76EE002980068D8
:102AD00005990968049A01EBC211C1F8A80064E0E5
:102AE0000298006805990968049A01EBC211C1F8BF
:102AF000AC0002984068D8B3FFE7059800680499D5
:102B000000EBC111D1F8800020F44040C1F88000F2
:102B10000298426805980068049900EBC111D1F849
:102B2000800040EA8200C1F8800002984068B0F559
:102B3000005F0AD1FFE70298806805990968049A46
:102B400001EBC211C1F89C0011E002984068B0F599
:102B5000405F0AD1FFE70298806805990968049AE6
:102B600001EBC211C1F8A80000E0FFE7FFE710E0A9
:102B700005980068049900EBC110D0F8800020F49B
:102B8000404005990968049A01EBC211C1F8800020
:102B9000FFE70AE00599072081F8C100FFE70599E2
:102BA000002081F8C000FFE7FFE7059890F8C1001A
:102BB000072804D1FFE701208DF81B000EE0FFE796
:102BC0000599012081F8C100FFE70599002081F8EF
:102BD000C000FFE700208DF81B00FFE79DF81B00F9
:102BE00007B0704783B001900091FFE7019890F81B
:102BF000C000012804D1FFE702208DF80B001DE082
:102C00000199012081F8C000FFE7FFE70199022048
:102C100081F8C100009A01980168086810430860B3
:102C20000199012081F8C100FFE70199002081F896
:102C3000C000FFE700208DF80B00FFE79DF80B00B8
:102C400003B0704784B002900191FFE7029890F8BA
:102C5000C000012804D1FFE702208DF80F005FE0DB
:102C60000299012081F8C000FFE7FFE702990220E6
:102C700081F8C100029801684268D1F890031043BE
:102C8000C1F890039DF80600C00740B1FFE7029825
:102C90000168D0F8AC20C8681043C860FFE7002086
:102CA0008DF80300FFE79DF80300042824D8FFE710
:102CB00001989DF8032040F20401C2F2000151F88E
:102CC0002210084211D0FFE702989DF80310C1EBD3
:102CD000C10200EB8202126A006800EBC111D1F858
:102CE0008C001043C1F88C00FFE7FFE79DF803005C
:102CF00001308DF80300D6E7019A02980168086850
:102D0000104308600299012081F8C100FFE7029991
:102D1000002081F8C000FFE700208DF80F00FFE7DA
:102D20009DF80F0004B0704780B586B00490039101
:102D300002920193049890F8C100022804D1FFE7A1
:102D400002208DF8170028E0FFE7049890F8C000F3
:102D5000012804D1FFE702208DF817001DE0049937
:102D6000012081F8C000FFE7FFE70499022081F805
:102D7000C10004980399029A019B01F0DDFF0499B8
:102D8000012081F8C100FFE70499002081F8C0000C
:102D9000FFE700208DF81700FFE79DF8170006B049
:102DA00080BD000083B001900091FFE7019890F88A
:102DB000C000012804D1FFE702208DF80B001FE0BE
:102DC0000199012081F8C000FFE7FFE70199022087
:102DD00081F8C100009A01980168D1F8940310436A
:102DE000C1F894030199012081F8C100FFE701991E
:102DF000002081F8C000FFE700208DF80B00FFE7FE
:102E00009DF80B0003B0704780B584B0029001912B
:102E10000092029890F8C100022804D1FFE7022036
:102E20008DF80F0062E0FFE7029890F8C0000128DB
:102E300004D1FFE702208DF80F0057E0029901202E
:102E400081F8C000FFE7FFE70299022081F8C10086
:102E50000198052805D1FFE70298009901F0F2FDDD
:102E600005E002980199009A02F0AEFAFFE7009897
:102E700000680299019AC2EBC20201EB820108626A
:102E8000009840680299019AC2EBC20201EB8201EC
:102E90004862009880680299019AC2EBC20201EB75
:102EA000820188620098C0680299019AC2EBC2024E
:102EB00001EB8201C862009800690299019AC2EB95
:102EC000C20201EB820108630298019901F08CFCB7
:102ED0000299012081F8C100FFE70299002081F8E2
:102EE000C000FFE700208DF80F00FFE79DF80F00FE
:102EF00004B080BD83B001900091019890F841002A
:102F000020283BD1FFE7FFE7019890F84000012817
:102F100004D1FFE702208DF80B0033E00199012076
:102F200081F84000FFE7FFE70199242081F8410084
:102F300001980168086820F00100086001980168A4
:102F4000086820F480500860009A019801680868B9
:102F50001043086001980168086840F001000860AB
:102F60000199202081F84100FFE70199002081F8B4
:102F70004000FFE700208DF80B0003E002208DF8F1
:102F80000B00FFE79DF80B0003B0704784B0029080
:102F90000191029890F84100202840D1FFE7FFE717
:102FA000029890F84000012804D1FFE702208DF834
:102FB0000F0038E00299012081F84000FFE7FFE7A9
:102FC0000299242081F8410002980168086820F0E5
:102FD000010008600298006800680090009820F4E2
:102FE000706000900199009840EA012000900098DC
:102FF00002990968086002980168086840F00100B9
:1030000008600299202081F84100FFE70299002022
:1030100081F84000FFE700208DF80F0003E0022058
:103020008DF80F00FFE79DF80F0004B07047000017
:1030300080B582B00090009820B9FFE701208DF89C
:10304000070073E0009890F8410040B9FFE700994D
:10305000002081F84000009800F07AF9FFE700991D
:10306000242081F8410000980168086820F00100E0
:10307000086000980168406820F07060086100985E
:103080000168886820F4004088600098C0680128C2
:1030900007D1FFE700980168806840F4004088602D
:1030A00006E000980168806840F404408860FFE70B
:1030B0000098C068022806D1FFE7009801684FF425
:1030C00000604860FFE700980168486848F2000225
:1030D000C0F200221043486000980168C86820F4DC
:1030E0000040C860009A11681069536992691843DA
:1030F00040EA0220C860009A1168D069126A104341
:10310000086000980168086840F0010008600099B4
:1031100000204864009A202182F841100099086339
:10312000009981F842008DF80700FFE79DF807003D
:1031300002B080BD80B588B0DDF828C00690ADF83B
:1031400016100492ADF80E30069890F84100202831
:1031500040F0F580FFE7FFE7069890F8400001286F
:1031600004D1FFE702208DF81F00ECE00699012052
:1031700081F84000FFE7FFE7FEF7EAFF02900698BC
:1031800002996A4611604FF400410122192302F0AE
:103190000FFB20B1FFE701208DF81F00D3E0069957
:1031A000212081F841000699102081F842000699FB
:1031B000002048640499069A5162BDF80E10069AE0
:1031C0005185069948630698408DB0F5807F14D3E9
:1031D000FFE70699FF2008850698BDF8161090F8BD
:1031E0002820EC4642F20003C8F20003CCF800307D
:1031F0004FF0807302F0B6FA14E00698408D0699FD
:1032000008850698BDF8161090F82820EC4642F282
:103210000003C8F20003CCF800304FF0007302F056
:10322000A1FAFFE7FFE70698408D00285ED0FFE790
:1032300006980A99029A02F049FB20B1FFE70120A3
:103240008DF81F007FE006980168406A0078886268
:103250000699486A013048620699488D01384885C8
:103260000699088D013808850698408DE8B3FFE778
:103270000698008DC8BBFFE706980A9B02996A462C
:1032800011608021002202F093FA20B1FFE70120B3
:103290008DF81F0057E00698408DB0F5807F11D360
:1032A000FFE70699FF2008850698BDF8161090F8EC
:1032B0002820EC460023CCF800304FF0807302F059
:1032C00051FA11E00698408D069908850698BDF8D8
:1032D000161090F82820EC460023CCF800304FF070
:1032E000007302F03FFAFFE7FFE79CE706980A99B0
:1032F000029A02F0A5FA20B1FFE701208DF81F0025
:1033000021E0069801682020C86106990A68516882
:103310004EF60003CFF6006319405160069981F81C
:1033200041000699002081F84200FFE7069900203D
:1033300081F84000FFE700208DF81F0003E0022025
:103340008DF81F00FFE79DF81F0008B080BD00004A
:1033500080B58EB00D9000200C900B900A900990D3
:1033600008900D98006845F20041C4F200018842BF
:1033700058D1FFE7FFE741F21400C4F202000168F0
:1033800041F400310160006800F4003007900798B4
:10339000FFE7FFE741F21400C4F20200016841F4C4
:1033A00080210160006800F4802006900698FFE705
:1033B0004FF40040089012200090099001200190E5
:1033C0000A90032002900B90042003900C904FF081
:1033D000904008A90491FEF70BFDDDF800C0019BA9
:1033E000029A039804994FF4007ECDF820E0CDF8BE
:1033F00024C00A930B920C9040F20040C4F60000E7
:10340000FEF7F6FCFFE741F21C00C4F2020001687F
:1034100041F400110160006800F400100590059867
:10342000FFE7FFE70EB080BD40F27400C2F200007B
:10343000027840F28C51C2F2000108681044086022
:103440007047000080B582B042F20001C4F2020170
:10345000086840F010000860032000F087F80020A2
:10346000019000F005F800F03BF8019802B080BD33
:1034700080B582B0009040F20000C2F20000006807
:1034800040F27401C2F200010A784FF47A71B1FB84
:10349000F2F1B0FBF1F001F0FDF820B1FFE70120FF
:1034A0008DF8070018E000980F280DD8FFE7009965
:1034B0004FF0FF30002200F03FF8009840F2780112
:1034C000C2F20001086003E001208DF8070003E06C
:1034D00000208DF80700FFE79DF8070002B080BDCF
:1034E00082B0FFE741F21800C4F20200016841F027
:1034F00001010160006800F0010001900198FFE700
:10350000FFE741F21C00C4F20200016841F0805163
:103510000160006800F0805000900098FFE702B062
:103520007047000080B582B08DF807009DF9070054
:1035300003F0CCFD02B080BD80B586B08DF81700D9
:10354000049103920020029003F0D8FD02909DF9AF
:103550001700019002980499039A02F0DBFE0146DD
:10356000019803F0D3FD06B080BD000080B582B0A5
:103570000190019803F0ECFD02B080BD80B58AB0E7
:1035800008900020079006908DF817000898807822
:10359000C007002800F0D280FFE741F21C00C4F20F
:1035A00002000068C000002813D4FFE7FFE741F2E3
:1035B0001C00C4F20200016841F080510160006803
:1035C00000F0805004900498FFE701208DF8170068
:1035D000FFE747F20000C4F200000068C0050028C1
:1035E00022D4FFE747F20001C4F20001086840F46A
:1035F00080700860FEF7ACFD0790FFE747F200001F
:10360000C4F200000068C00500280CD4FFE7FEF7F4
:103610009FFD0799401A652804D3FFE703208DF822
:103620002700E8E0EAE7FFE741F22000C4F20200E9
:10363000006800F4407006900698002864D0FFE708
:1036400006980899496801F4407188425CD0FFE708
:1036500041F22001C4F20201086820F44070069093
:1036600040F24042C4F2422201201060002010606B
:10367000069808609DF81800C007002843D0FFE7AF
:10368000FEF766FD0790FFE7012038B9FFE741F23A
:103690000000C4F202000068039020E0002038B966
:1036A000FFE741F22000C4F202000068029013E03C
:1036B000012038B9FFE741F20400C4F202000068BB
:1036C000019006E041F22400C4F20200006801907B
:1036D000FFE701980290FFE702980390FFE7039845
:1036E000800700280ED4FFE7FEF732FD0799401A45
:1036F00041F28931884204D3FFE703208DF8270087
:1037000079E0C1E7FFE7FFE741F22001C4F20201DF
:10371000086820F44070089A5268104308609DF8C9
:103720001700012809D1FFE741F21C01C4F2020190
:10373000086820F080500860FFE7FFE708980078ED
:10374000C00760B1FFE741F23001C4F2020108682E
:1037500020F00300089A926810430860FFE7089879
:103760000078800600280CD5FFE741F23001C4F252
:103770000201086820F01000089AD268104308601F
:10378000FFE708980078000600280CD5FFE741F213
:103790002C01C4F20201086820F4F870089A12693A
:1037A00010430860FFE708984078C00600280CD551
:1037B000FFE741F23001C4F20201086820F4807092
:1037C000089A526910430860FFE70898407840065D
:1037D00000280CD5FFE741F23001C4F2020108686D
:1037E00020F48050089A926910430860FFE7002097
:1037F0008DF82700FFE79DF827000AB080BD000084
:1038000080B58EB00C900B9100200A900C9820B9D6
:10381000FFE701208DF8370073E10B9842F20001B9
:10382000C4F20201096801F00701884216D9FFE7D6
:1038300042F20000C4F20200016821F007010B9A75
:1038400011430160006800F007000B99884204D022
:10385000FFE701208DF8370053E1FFE70C9800786F
:10386000800700280CD5FFE741F20401C4F20201F1
:10387000086820F0F0000C9A926810430860FFE797
:103880000C980078C007002800F0D680FFE70C985D
:103890004068012835D1FFE7002038B9FFE741F241
:1038A0000000C4F202000068099020E0012038B94D
:1038B000FFE741F22000C4F202000068089013E024
:1038C000012038B9FFE741F20400C4F202000068A9
:1038D000079006E041F22400C4F20200006807905D
:1038E000FFE707980890FFE708980990FFE7099815
:1038F0008003002804D4FFE701208DF8370000E1A1
:103900006FE00C984068022835D1FFE7002038B9F5
:10391000FFE741F20000C4F202000068069020E0D8
:10392000012038B9FFE741F22000C4F2020000682C
:10393000059013E0012038B9FFE741F20400C4F21A
:1039400002000068049006E041F22400C4F2020084
:1039500000680490FFE704980590FFE7059806903B
:10396000FFE706988001002804D4FFE701208DF8C6
:103970003700C6E034E0002038B9FFE741F200002C
:10398000C4F202000068039020E0012038B9FFE78C
:1039900041F22000C4F202000068029013E001200E
:1039A00038B9FFE741F20400C4F202000068019058
:1039B00006E041F22400C4F2020000680190FFE733
:1039C00001980290FFE702980390FFE703988007B1
:1039D000002804D4FFE701208DF8370091E0FFE7CD
:1039E000FFE741F20401C4F20201086820F003007D
:1039F0000C9A526810430860FEF7AAFB0A90FFE792
:103A000041F20400C4F20200006800F00C000C99BE
:103A10004968B0EB810F0ED0FFE7FEF799FB0A99DA
:103A2000401A41F28931884204D3FFE703208DF820
:103A3000370066E0E4E7FFE70B9842F20001C4F2CA
:103A40000201096801F00701884216D2FFE742F23D
:103A50000000C4F20200016821F007010B9A114333
:103A60000160006800F007000B99884204D0FFE76E
:103A700001208DF8370044E0FFE70C9800784007FC
:103A800000280CD5FFE741F20401C4F202010868E6
:103A900020F4E0600C9AD26810430860FFE70C98AD
:103AA0000078000700280DD5FFE741F20401C4F2B9
:103AB0000201086820F460500C9A126940EAC200C2
:103AC0000860FFE700F04CF841F20401C4F2020183
:103AD0000968C9B20A0947F6AC61C0F60001895C01
:103AE000C84040F20001C2F20001086040F27800D4
:103AF000C2F200000068FFF7BBFC00208DF8370021
:103B0000FFE79DF837000EB080BD000040F20000D6
:103B1000C2F200000068704780B5FFF7F7FF41F27E
:103B20000401C4F202010968C1F3022247F6BC6134
:103B3000C0F60001895CC84080BD000080B5FFF779
:103B4000E5FF41F20401C4F202010968C1F3C22297
:103B500047F6BC61C0F60001895CC84080BD00002A
:103B600080B586B0002005900490039002900190EB
:103B700041F20400C4F2020000680590059800F0CC
:103B80000C0001460091002841D0FFE7009804286E
:103B900004D0FFE70098082806D039E041F2002061
:103BA000C0F27A00019039E00598C0F3834148F2F1
:103BB000E860C0F60000405C029041F22C00C4F2C4
:103BC0000200006800F00F0148F2F860C0F6000043
:103BD000405C04909DF81600C00768B1FFE7049AA6
:103BE00041F20020C0F27A0000231946FCF7E8FAFF
:103BF00002994843039007E0029840F60011C0F292
:103C00003D0148430390FFE70398019006E0FFE77A
:103C100041F20020C0F27A000190FFE7019806B05F
:103C200080BD000080B5AEB02C902C9828B9FFE77D
:103C300001208DF8B70000F028BD2C980078C0074F
:103C4000002800F03181FFE741F20400C4F20200D5
:103C5000006800F00C00042813D0FFE741F20400D4
:103C6000C4F20200006800F00C00082843D1FFE70E
:103C700041F20400C4F202000068C00300283AD5F3
:103C8000FFE7002038B9FFE741F20000C4F202006C
:103C90000068279020E0012038B9FFE741F22000BA
:103CA000C4F202000068269013E0012038B9FFE753
:103CB00041F20400C4F202000068259006E041F2DF
:103CC0002400C4F2020000682590FFE725982690A2
:103CD000FFE726982790FFE727988003002809D55B
:103CE000FFE72C98406828B9FFE701208DF8B7005E
:103CF00000F0CBBCD7E0FFE72C984068B0F5803FE0
:103D000009D1FFE741F20001C4F20201086840F462
:103D10008030086032E02C98406868B9FFE741F2D3
:103D20000001C4F20201086820F4803008600868CD
:103D300020F48020086020E02C984068B0F5A02F87
:103D40000DD1FFE741F20001C4F20201086840F41E
:103D500080200860086840F4803008600CE041F280
:103D60000001C4F20201086820F48030086008688D
:103D700020F480200860FFE7FFE7FFE7FFE741F25C
:103D80002C01C4F20201086820F00F002C9A9268FE
:103D9000104308602C984068002842D0FFE7FEF7E7
:103DA000D7F92B90FFE7002038B9FFE741F2000078
:103DB000C4F202000068249020E0012038B9FFE737
:103DC00041F22000C4F202000068239013E00120B9
:103DD00038B9FFE741F20400C4F202000068229003
:103DE00006E041F22400C4F2020000682290FFE7DE
:103DF00022982390FFE723982490FFE724988003DC
:103E000000280DD4FFE7FEF7A3F92B99401A652887
:103E100005D3FFE703208DF8B70000F036BCC2E7FA
:103E200040E0FEF795F92B90FFE7002038B9FFE757
:103E300041F20000C4F202000068219020E001205D
:103E400038B9FFE741F22000C4F202000068209078
:103E500013E0012038B9FFE741F20400C4F2020088
:103E600000681F9006E041F22400C4F202000068DE
:103E70001F90FFE71F982090FFE720982190FFE711
:103E80002198800300280CD5FFE7FEF761F92B99F4
:103E9000401A652804D3FFE703208DF8B700F4E348
:103EA000C3E7FFE7FFE7FFE72C98007880070028CB
:103EB00040F10381FFE741F20400C4F20200006810
:103EC00010F00C0F13D0FFE741F20400C4F202001F
:103ED000006800F00C00082850D1FFE741F2040010
:103EE000C4F202000068C003002847D4FFE70020A6
:103EF00038B9FFE741F20000C4F2020000681E90EA
:103F000020E0012038B9FFE741F22000C4F20200AE
:103F100000681D9013E0012038B9FFE741F204006A
:103F2000C4F2020000681C9006E041F22400C4F2D2
:103F3000020000681C90FFE71C981D90FFE71D9889
:103F40001E90FFE71E988007002809D5FFE72C98F0
:103F50000069012804D0FFE701208DF8B70094E341
:103F600041F20001C4F20201086820F0F8002C9A26
:103F7000526940EAC2000860FFE79DE02C980069A2
:103F8000002852D0FFE70021C4F24221012008603E
:103F9000FEF7DEF82B90FFE7002038B9FFE741F28B
:103FA0000000C4F2020000681B9020E0012038B934
:103FB000FFE741F22000C4F2020000681A9013E00B
:103FC000012038B9FFE741F20400C4F202000068A2
:103FD000199006E041F22400C4F202000068199032
:103FE000FFE719981A90FFE71A981B90FFE71B98B4
:103FF000800700280CD4FFE7FEF7AAF82B99401A97
:10400000032804D3FFE703208DF8B7003DE3C3E79F
:1040100041F20001C4F20201086820F0F8002C9A75
:10402000526940EAC200086045E00021C4F2422122
:1040300000200860FEF78CF82B90FFE7002038B9CD
:10404000FFE741F20000C4F202000068189020E08F
:10405000012038B9FFE741F22000C4F202000068F5
:10406000179013E0012038B9FFE741F20400C4F2D1
:1040700002000068169006E041F22400C4F202003B
:1040800000681690FFE716981790FFE717981890AA
:10409000FFE71898800700280CD5FFE7FEF758F8CF
:1040A0002B99401A032804D3FFE703208DF8B700AB
:1040B000EBE2C3E7FFE7FFE7FFE72C980078000794
:1040C000002840F19580FFE72C988069002847D0B0
:1040D000FFE740F28041C4F2422101200860FEF770
:1040E00037F82B90FFE7012038B9FFE741F20000D5
:1040F000C4F202000068159020E0012038B9FFE703
:1041000041F22000C4F202000068149013E0012084
:1041100038B9FFE741F20400C4F2020000681390CE
:1041200006E041F22400C4F2020000681390FFE7A9
:1041300013981490FFE714981590FFE715988007DF
:1041400000280CD4FFE7FEF703F82B99401A032848
:1041500004D3FFE703208DF8B70096E2C3E746E0FB
:1041600040F28041C4F2422100200860FDF7F0FFD8
:104170002B90FFE7012038B9FFE741F20000C4F2BD
:1041800002000068129020E0012038B9FFE741F2F8
:104190002000C4F202000068119013E0012038B939
:1041A000FFE741F20400C4F202000068109006E04C
:1041B00041F22400C4F2020000681090FFE710985A
:1041C0001190FFE711981290FFE7129880070028DE
:1041D0000CD5FFE7FDF7BCFF2B99401A032804D349
:1041E000FFE703208DF8B7004FE2C3E7FFE7FFE7E3
:1041F0002C9800784007002840F12781FFE7002035
:104200008DF8A70041F21C00C4F202000068C00053
:10421000002813D4FFE7FFE741F21C00C4F20200BC
:10422000016841F080510160006800F080502890E2
:104230002898FFE701208DF8A700FFE747F200006C
:10424000C4F200000068C005002822D4FFE747F24E
:104250000001C4F20001086840F480700860FDF7B6
:1042600077FF2B90FFE747F20000C4F200000068E0
:10427000C00500280CD4FFE7FDF76AFF2B99401A10
:10428000652804D3FFE703208DF8B700FDE1EAE7D6
:10429000FFE7FFE72C98C068012809D1FFE741F24A
:1042A0002001C4F20201086840F00100086031E01A
:1042B0002C98C06868B9FFE741F22001C4F20201FE
:1042C000086820F001000860086820F00400086019
:1042D0001FE02C98C06805280DD1FFE741F22001AE
:1042E000C4F20201086840F004000860086840F069
:1042F000010008600CE041F22001C4F202010868EC
:1043000020F001000860086820F004000860FFE762
:10431000FFE7FFE7FFE72C98C068002843D0FFE7DE
:10432000FDF716FF2B90FFE7012038B9FFE741F2B8
:104330000000C4F2020000680F9020E0002038B9AD
:10434000FFE741F22000C4F2020000680E9013E083
:10435000012038B9FFE741F20400C4F2020000680E
:104360000D9006E041F22400C4F2020000680D90B6
:10437000FFE70D980E90FFE70E980F90FFE70F985C
:10438000800700280ED4FFE7FDF7E2FE2B99401AC4
:1043900041F28931884204D3FFE703208DF8B7004A
:1043A00073E1C1E742E0FDF7D3FE2B90FFE7012068
:1043B00038B9FFE741F20000C4F2020000680C9037
:1043C00020E0002038B9FFE741F22000C4F20200EB
:1043D00000680B9013E0012038B9FFE741F20400B8
:1043E000C4F2020000680A9006E041F22400C4F220
:1043F000020000680A90FFE70A980B90FFE70B980D
:104400000C90FFE70C98800700280ED5FFE7FDF71A
:104410009FFE2B99401A41F28931884204D3FFE76D
:1044200003208DF8B70030E1C1E7FFE79DF8A70052
:10443000012809D1FFE741F21C01C4F2020108681A
:1044400020F080500860FFE7FFE72C98C069002843
:1044500000F01781FFE741F20400C4F20200006897
:1044600000F00C00082800F0E680FFE72C98C069F7
:10447000022840F09980FFE76021C4F24221002029
:104480000860FDF765FE2B90FFE7002038B9FFE7D5
:1044900041F20000C4F202000068099020E001200F
:1044A00038B9FFE741F22000C4F20200006808902A
:1044B00013E0012038B9FFE741F20400C4F2020022
:1044C0000068079006E041F22400C4F20200006890
:1044D0000790FFE707980890FFE708980990FFE723
:1044E0000998800100280CD5FFE7FDF731FE2B99D4
:1044F000401A032804D3FFE703208DF8B700C4E077
:10450000C3E741F20401C4F20201086820F4741008
:104510002C9A136A526A1A43104308606021C4F24D
:10452000422101200860FDF713FE2B90FFE70020D9
:1045300038B9FFE741F20000C4F2020000680690BB
:1045400020E0012038B9FFE741F22000C4F2020068
:104550000068059013E0012038B9FFE741F204003C
:10456000C4F202000068049006E041F22400C4F2A4
:10457000020000680490FFE704980590FFE70598A3
:104580000690FFE70698800100280CD4FFE7FDF7AE
:10459000DFFD2B99401A032804D3FFE703208DF891
:1045A000B70072E0C3E745E06021C4F24221002079
:1045B0000860FDF7CDFD2B90FFE7002038B9FFE73D
:1045C00041F20000C4F202000068039020E00120E4
:1045D00038B9FFE741F22000C4F2020000680290FF
:1045E00013E0012038B9FFE741F20400C4F20200F1
:1045F0000068019006E041F22400C4F20200006865
:104600000190FFE701980290FFE702980390FFE70F
:104610000398800100280CD5FFE7FDF799FD2B9941
:10462000401A032804D3FFE703208DF8B7002CE0DD
:10463000C3E7FFE724E02C98C069012804D1FFE715
:1046400001208DF8B70020E041F20400C4F202001E
:1046500000682A902A9800F480302C99096A8842D0
:1046600008D1FFE72A9800F470102C99496A884213
:1046700004D0FFE701208DF8B70006E0FFE7FFE771
:10468000FFE700208DF8B700FFE79DF8B7002EB0D8
:1046900080BD000080B582B00190019802F0D4F98D
:1046A00002B080BD80B582B00090009820B9FFE7CD
:1046B00001208DF8070044E00098806908B1FFE709
:1046C00000E0FFE70098806F40B9FFE70099002005
:1046D00081F87400009800F039F8FFE70099242071
:1046E000886700980168086820F001000860009859
:1046F00002F02EFB012804D1FFE701208DF807000E
:104700001FE00098406A20B1FFE7009802F02AFA03
:10471000FFE700980168486820F4904048600098DE
:104720000168886820F02A0088600098016808689D
:1047300040F001000860009802F0B8FA8DF8070018
:10474000FFE79DF8070002B080BD000080B588B08B
:10475000079000200690059004900390029007981F
:10476000006843F60001C4F20101884230D1FFE73E
:10477000FFE741F21800C4F20200016841F48041F1
:104780000160006800F4804001900198FFE7FFE7B6
:1047900041F21400C4F20200016841F4802101607A
:1047A000006800F4802000900098FFE7C02002908D
:1047B000022003900020049003200590072006901B
:1047C00040F20040C4F6000002A9FDF711FBFFE72C
:1047D00008B080BD80B540F20430C2F2000005216F
:1047E000FDF794FE80BD000083B002900191019816
:1047F000009005283BD80099DFE801F00C151E2732
:10480000300302980168D1F8840340F00100C1F838
:1048100084032DE002980168D1F8840340F002007F
:10482000C1F8840324E002980168D1F8840340F0C1
:104830000400C1F884031BE002980168D1F88403E6
:1048400040F00800C1F8840312E002980168D1F832
:10485000840340F01000C1F8840309E00298016865
:10486000D1F8840340F02000C1F8840300E0FFE7A2
:1048700003B0704780B582B0019001980068D0F80D
:104880008803C00788B1FFE701980068D0F890035B
:10489000C00748B1FFE7019801680120C1F88C0307
:1048A0000198FDF71FFEFFE7FFE701980068D0F8C9
:1048B000880300F002010020B0EB510F15D0FFE794
:1048C00001980068D0F8900300F002010020B0EBDE
:1048D000510F09D0FFE7019801680220C1F88C034D
:1048E0000198FDF703FEFFE7FFE701980068D0F8A5
:1048F000880300F004010020B0EB910F15D0FFE712
:1049000001980068D0F8900300F004010020B0EB9B
:10491000910F09D0FFE7019801680420C1F88C03CA
:104920000198FDF7E7FDFFE7FFE701980068D0F881
:10493000880300F008010020B0EBD10F15D0FFE78D
:1049400001980068D0F8900300F008010020B0EB57
:10495000D10F09D0FFE7019801680820C1F88C0346
:104960000198FDF7CBFDFFE7FFE701980068D0F85D
:10497000880300F010010020B0EB111F15D0FFE7F5
:1049800001980068D0F8900300F010010020B0EB0F
:10499000111F09D0FFE7019801681020C1F88C03AE
:1049A0000198FDF7AFFDFFE7FFE701980068D0F839
:1049B000880300F020010020B0EB511F15D0FFE765
:1049C00001980068D0F8900300F020010020B0EBBF
:1049D000511F09D0FFE7019801682020C1F88C031E
:1049E0000198FDF76DFFFFE7FFE702B080BD000013
:1049F00083B00290019102980068006800900098CE
:104A000020F007000090019881680098084300900A
:104A1000009820F0180000900198C16800980843A1
:104A2000009000980299096808600198006802994E
:104A3000096848610198406802990968886103B073
:104A40007047000084B003900291039800680068EA
:104A5000019003980068D0F8A0030090019820F01E
:104A60002000019002984169019808430190019843
:104A700020F4006001900298816901980843019038
:104A8000019820F4806001900298C1690198084360
:104A90000190019820F0C06001900298016A01988D
:104AA00008430190019820F0006001900298416A4B
:104AB000019808430190019820F04040019002982D
:104AC000816A019840EA81000190019820F000502D
:104AD00001900298016B019808430190009820F41E
:104AE000803000900298C16A0098084300900198B5
:104AF000039909680860009803990968C1F8A00340
:104B000004B0704780B582B0019001980068D0F879
:104B1000880300F480310020B0EB114F20D0FFE774
:104B200001980068D0F8900300F480310020B0EBC9
:104B3000114F14D0FFE7019801684FF48030C1F89D
:104B40008C030199012081F8C100FFE70199002041
:104B500081F8C000FFE70198FDF7DAFBFFE7FFE708
:104B600001980068D0F8880300F400310020B0EB11
:104B7000514F16D0FFE701980068D0F8900300F479
:104B800000310020B0EB514F0AD0FFE701980168D7
:104B90004FF40030C1F88C030198FDF78BFBFFE761
:104BA000FFE7019800684068C00780B1FFE70198FF
:104BB0000068C068C00748B1FFE70198016801209C
:104BC000886001980521FDF785FBFFE7FFE7019865
:104BD0000068406800F002010020B0EB510F14D0D3
:104BE000FFE701980068C06800F002010020B0EB08
:104BF000510F09D0FFE701980168022088600198F1
:104C00000521FDF76DFBFFE7FFE7019800684068AD
:104C100000F004010020B0EB910F14D0FFE70198E1
:104C20000068C06800F004010020B0EB910F09D0CB
:104C3000FFE7019801680420886001980521FDF7CD
:104C400055FBFFE7FFE701980068406800F00801A6
:104C50000020B0EBD10F14D0FFE701980068C068C6
:104C600000F008010020B0EBD10F09D0FFE7019858
:104C700001680820886001980521FDF73DFBFFE7EA
:104C8000FFE701980068406800F010010020B0EBD9
:104C9000111F14D0FFE701980068C06800F01001F0
:104CA0000020B0EB111F09D0FFE701980168102028
:104CB000886001980521FDF7F9FDFFE7FFE70198FE
:104CC0000068406800F020010020B0EB511F13D0B5
:104CD000FFE701980068C06800F020010020B0EBF9
:104CE000511F08D0FFE701980168202088600198D3
:104CF000FDF7E2FDFFE7FFE701980068406800F07C
:104D000040010020B0EB911F14D0FFE7019800682C
:104D1000C06800F040010020B0EB911F09D0FFE710
:104D2000019801684020886001980521FDF7B4FDD5
:104D3000FFE7FFE702B080BD88B0079006910592BB
:104D400004930020019007980068069900EBC110B9
:104D5000D0F8E400039007980068069900EBC110B2
:104D6000D0F8B800029005980090012826D0FFE7FF
:104D70000098022835D0FFE7009804281ED0FFE7EE
:104D8000009808282DD0FFE70098102816D0FFE7DC
:104D90000098202825D0FFE7009840280ED0FFE794
:104DA000009880281DD0FFE70098B0F5807F05D0DF
:104DB000FFE70098B0F5007F13D027E00498406823
:104DC00007990968069A01EBC211C1F8BC00049862
:104DD000806807990968069A01EBC211C1F8C00002
:104DE00015E00498406807990968069A01EBC2111A
:104DF000C1F8C4000498806807990968069A01EB15
:104E0000C211C1F8C8001020019000E0FFE701992D
:104E1000FE2000FA01F1039888430390049800688B
:104E2000019900FA01F10398084303900498C068BF
:104E3000019900FA01F1039808430390049800696E
:104E4000019900FA01F1039808430390049840691E
:104E5000019900FA01F103980843039004988069CE
:104E6000019900FA01F1039808430390049800693E
:104E7000082815D1FFE79DF80900800700280FD406
:104E8000FFE79DF80B008007002809D4FFE704988E
:104E9000C069019900FA01F1039808430390FFE704
:104EA000039807990968069A01EBC211C1F8E4005A
:104EB00008B0704780B582B00190009101980068F9
:104EC000009900EBC110D0F88400C007C0B1FFE723
:104ED00001980068009900EBC110D0F88C00C00761
:104EE00068B1FFE701980068009900EBC11101204B
:104EF000C1F8880001980099FDF7ECF9FFE7FFE79A
:104F000001980068009900EBC110D0F8840000F00F
:104F100002010020B0EB510F1CD0FFE701980068A0
:104F2000009900EBC110D0F88C0000F002010020C5
:104F3000B0EB510F0DD0FFE701980068009900EB2E
:104F4000C1110220C1F8880001980099FDF7C8F945
:104F5000FFE7FFE701980068009900EBC110D0F867
:104F6000840000F004010020B0EB910F1CD0FFE79B
:104F700001980068009900EBC110D0F88C0000F097
:104F800004010020B0EB910F0DD0FFE701980068FD
:104F9000009900EBC1110420C1F888000198009924
:104FA000FDF7A4F9FFE7FFE701980068009900EB1F
:104FB000C110D0F8840000F008010020B0EBD10F40
:104FC0001CD0FFE701980068009900EBC110D0F8F1
:104FD0008C0000F008010020B0EBD10F0DD0FFE7EE
:104FE00001980068009900EBC1110820C1F8880001
:104FF00001980099FDF780F9FFE7FFE70198006845
:10500000009900EBC110D0F8840000F010010020DE
:10501000B0EB111F1CD0FFE701980068009900EB6E
:10502000C110D0F88C0000F010010020B0EB111F6F
:105030000DD0FFE701980068009900EBC111102026
:10504000C1F8880001980099FDF730FCFFE7FFE701
:1050500001980068009900EBC110D0F8840000F0BE
:1050600040010020B0EB911F1CD0FFE701980068C1
:10507000009900EBC110D0F88C0000F04001002036
:10508000B0EB911F0DD0FFE701980068009900EB8D
:10509000C1114020C1F8880001980099FDF7FCFB80
:1050A000FFE7FFE701980068009900EBC110D0F816
:1050B0008400C1B20020B0EBD11F1BD0FFE70198E4
:1050C0000068009900EBC110D0F88C00C1B200203C
:1050D000B0EBD11F0DD0FFE701980068009900EBFD
:1050E000C1118020C1F8880001980099FDF7E6F809
:1050F000FFE7FFE701980068009900EBC110D0F8C6
:10510000840000F480710020B0EB112F1DD0FFE768
:1051100001980068009900EBC110D0F88C0000F4F1
:1051200080710020B0EB112F0ED0FFE701980068CE
:10513000009900EBC1114FF48070C1F8880001980C
:105140000099FDF7C1F8FFE7FFE7019800680099B3
:1051500000EBC110D0F8840000F400710020B0EB27
:10516000512F1DD0FFE701980068009900EBC11096
:10517000D0F88C0000F400710020B0EB512F0ED05D
:10518000FFE701980068009900EBC1114FF400702F
:10519000C1F8880001980099FDF72EFBFFE7FFE7B3
:1051A00001980068009900EBC110D0F8840000F469
:1051B00080610020B0EB912F1DD0FFE701980068BF
:1051C000009900EBC110D0F88C0000F48061002041
:1051D000B0EB912F0ED0FFE701980068009900EB2B
:1051E000C1114FF48060C1F8880001980099FDF763
:1051F000FDFAFFE7FFE701980068009900EBC11096
:10520000D0F8840000F400610020B0EBD12F1DD055
:10521000FFE701980068009900EBC110D0F88C00FE
:1052200000F400610020B0EBD12F0ED0FFE7019811
:105230000068009900EBC1114FF40060C1F88800CC
:1052400001980099FDF7E4FAFFE7FFE7019800688D
:10525000009900EBC110D0F8840000F480510020C8
:10526000B0EB113F1DD0FFE701980068009900EBFB
:10527000C110D0F88C0000F480510020B0EB113F39
:105280000ED0FFE701980068009900EBC1114FF4C0
:105290008050C1F8880001980099FDF7B3FAFFE744
:1052A000FFE701980068009900EBC110D0F8840076
:1052B00000F400510020B0EB513F1DD0FFE70198F2
:1052C0000068009900EBC110D0F88C0000F4005188
:1052D0000020B0EB513F0ED0FFE701980068009925
:1052E00000EBC1114FF40050C1F8880001980099FB
:1052F000FDF708F8FFE7FFE701980068009900EB69
:10530000C110D0F8840000F480410020B0EB913F40
:105310001DD0FFE701980068009900EBC110D0F89C
:105320008C0000F480410020B0EB913F0ED0FFE7ED
:1053300001980068009900EBC1114FF48040C1F85A
:10534000880001980099FDF7C7F8FFE7FFE702B072
:1053500080BD000084B00390029101920398006820
:10536000029900EBC110D0F880000090009820F066
:105370000700009001988168009808430090009809
:1053800020F0180000900198C16800980843009030
:10539000009803990968029A01EBC211C1F88000D4
:1053A0000198006803990968029A01EBC211C1F8DB
:1053B00094000198406803990968029A01EBC211B0
:1053C000C1F8980004B0704789B008900791069220
:1053D00008980068079900EBC111D1F8800020F00F
:1053E0007040C1F8800008980068079900EBC11070
:1053F000D0F88000059008980068079900EBC1106C
:10540000D0F8E800049008980068079900EBC110F4
:10541000D0F8E400039008980068D0F8A003019049
:10542000059820F0200005900698416905980843EA
:105430000590059820F4006005900698816905980C
:1054400008430590059820F4806005900698C1698E
:10545000059808430590059820F0C06005900698CF
:10546000016A059808430590059820F000600590B2
:105470000698416A059808430590059820F0704009
:1054800005900698816A059808430590059820F4D0
:10549000003005900698006BB0F1005F05D1FFE782
:1054A000059840F400300590FFE7059820F0400093
:1054B00005900698416B059808430590059820F4DF
:1054C000802005900698016D059808430590059881
:1054D00020F0FC7005900698816C059808430590B3
:1054E000049820F01F0004900698806B00F01F01C4
:1054F000049808430490049820F000400490069813
:10550000C16B0498084304900698406B50B9FFE7BC
:10551000039820F4807003900698016C0398084368
:105520000390FFE70698406CB0F5606F06D0FFE788
:105530000698406CB0F5F05F05D1FFE70698406B28
:1055400040280AD1FFE7039820F4F0500390069812
:10555000416C039808430390FFE70698C06C0290E3
:105560000798009004283CD80099DFE801F0030E6A
:1055700019242F00019820F4003001900698C16A88
:10558000019840EA410001902CE0019820F480202D
:1055900001900698C16A019840EA8100019021E0DB
:1055A000019820F4002001900698C16A019840EA11
:1055B000C100019016E0019820F480100190069837
:1055C000C16A019840EA011001900BE0019820F4B3
:1055D000001001900698C16A019840EA41100190BC
:1055E00000E0FFE7059808990968079A01EBC211E6
:1055F000C1F88000049808990968079A01EBC21164
:10560000C1F8E800039808990968079A01EBC211EC
:10561000C1F8E400029808990968079A01EBC211E1
:10562000C1F8D400019808990968C1F8A00309B02D
:1056300070470000FFE7FEE781B000900098006827
:10564000806900F002010020B0EB510F05D0FFE7A8
:105650000098016800208862FFE700980068806970
:10566000C00738B9FFE700980168886940F0010079
:105670008861FFE701B0704780B586B00490039160
:10568000029204980068806900F010010120B0EBDC
:10569000111F5FD1FFE7FFE704980068806900F001
:1056A00020010020B0EB511F28D1FFE70398013003
:1056B00018B3FFE7FCF74CFD0299401A03998842A2
:1056C00003D8FFE70398B8B9FFE70499486C40F0A6
:1056D000200048640499202081F8410004990020AA
:1056E00081F84200FFE70499002081F84000FFE7BD
:1056F00001208DF8170031E0FFE7CDE7049801683D
:105700001020C8610498016820200190C8610498A5
:10571000FFF792FF019804990A6851684EF600035A
:10572000CFF6006319405160049A516C41F00401B6
:105730005164049981F841000499002081F84200E5
:10574000FFE70499002081F84000FFE701208DF871
:10575000170003E000208DF81700FFE79DF8170001
:1057600006B080BD83B0DDF80CC00290ADF8061025
:105770008DF805200093029800684068039A20EA9B
:10578000525049F60041CFF600410840BDF80610DE
:105790006FF39F219DF8053041EA0341009B1943B7
:1057A0001143084302990968486003B0704700003C
:1057B00080B586B0DDF820C0049003918DF80B20F1
:1057C0000193FFE704980068806903990840401A34
:1057D000B0FA80F040099DF80B10884228D1FFE70D
:1057E0000198013018B3FFE7FCF7B2FC0899401AA2
:1057F0000199884203D8FFE70198B8B9FFE70499F7
:10580000486C40F0200048640499202081F8410051
:105810000499002081F84200FFE70499002081F8F4
:105820004000FFE701208DF8170005E0FFE7C9E71A
:1058300000208DF81700FFE79DF8170006B080BD27
:1058400080B584B0029001910092FFE70298006851
:10585000806900F020010020B0EB511F2ED1FFE73E
:1058600002980199009AFFF707FF20B1FFE7012096
:105870008DF80F0026E0FCF76BFC0099401A0199A7
:10588000884203D8FFE70198B8B9FFE70299486C4E
:1058900040F0200048640299202081F841000299DC
:1058A000002081F84200FFE70299002081F84000C3
:1058B000FFE701208DF80F0004E0C7E700208DF816
:1058C0000F00FFE79DF80F0004B080BD80B584B0E5
:1058D000029001910092FFE702980068806900F051
:1058E00002010020B0EB510F33D1FFE7029801997C
:1058F000009AFFF7C1FE20B1FFE701208DF80F00ED
:105900002BE00198013018B3FFE7FCF721FC009968
:10591000401A0199884203D8FFE70198B8B9FFE718
:105920000299486C40F0200048640299202081F8D8
:1059300041000299002081F84200FFE7029900200F
:1059400081F84000FFE701208DF80F0005E0FFE738
:10595000C2E700208DF80F00FFE79DF80F0004B0AC
:1059600080BD00000000000080B586B040F2D80085
:10597000C2F2000090ED000A90ED041A20EE010A38
:1059800040F20453C2F2000383ED000A006840F2C3
:105990000851C2F20001086091ED000A40F2B442E1
:1059A000C2F2000292ED001A30EE410A40F26C2081
:1059B000C2F2000080ED000A93ED000A40F2B04C04
:1059C000C2F2000C9CED001A30EE410A40F2682E43
:1059D000C2F2000E8EED000A1B68CCF80030096898
:1059E00011600068FAF765FC41EC100B9FED961B07
:1059F00050EC111BC20F51EC100B62F3DF7141EC44
:105A0000100B8DED040B40F26C00C2F20000006838
:105A1000FAF74FFC9DED041B41EC100B51EC110B00
:105A200053EC102BFAF70FFC48BBFFE740F268205D
:105A3000C2F200000068FAF73CFC41EC100B9FED4D
:105A4000821B50EC111BC20F51EC100B62F3DF7183
:105A500041EC100B8DED020B40F26800C2F2000029
:105A60000068FAF726FC9DED021B41EC100B51EC8F
:105A7000110B53EC102BFAF701FC08B9FFE7DEE03D
:105A800040F28D00C2F200000078012801D0FFE74B
:105A9000D5E040F26820C2F2000090ED000A40F22A
:105AA0006C20C2F2000090ED001A80EE010A40F274
:105AB0008450C2F2000080ED000A40F28800C2F279
:105AC00000000078012840F09980FFE740F25C0078
:105AD000C2F2000090ED000A40F28450C2F20000D1
