:020000040800F2
:10000000500C00202902000845570008554D0008F3
:1000100041570008B1070008FD5F0008000000001C
:100020000000000000000000000000003958000837
:100030005D080008000000003558000891580008CD
:10004000430200084302000843020008430200087C
:10005000430200084302000843020008430200086C
:10006000430200084302000843020008B5070008E5
:10007000C5070008430200084302000843020008C5
:10008000430200084302000843020008430200083C
:10009000430200084302000843020008430200082C
:1000A00043020008430200085959000843020008AF
:1000B0004302000843020008000000004302000859
:1000C0004302000800000000000000004302000896
:1000D0000000000043020008430200084302000839
:1000E0004302000843020008000000000000000076
:1000F0000000000000000000000000000000000000
:1001000000000000000000000000000000000000EF
:100110000000000000000000430200084302000845
:1001200000000000000000000000000000000000CF
:1001300000000000000000000000000000000000BF
:1001400043020008430200080000000043020008C8
:10015000430200084302000843020008430200086B
:1001600043020008430200080000000000000000F5
:10017000000000000000000000000000000000007F
:10018000000000004302000800F002F800F03CF814
:100190000AA090E8000C82448344AAF10107DA45E2
:1001A00001D100F031F8AFF2090EBAE80F0013F0F8
:1001B000010F18BFFB1A43F0010318479C7C000095
:1001C000BC7C0000103A24BF78C878C1FAD8520726
:1001D00024BF30C830C144BF04680C6070470000C1
:1001E0000023002400250026103A28BF78C1FBD840
:1001F000520728BF30C148BF0B6070471FB507F0DA
:10020000ABFC1FBD10B510BD00F0FCF81146FFF7A8
:10021000F5FF05F0E5FF00F01AF903B4FFF7F2FF70
:1002200003BC00F07FF900000948804709480047F7
:10023000FEE7FEE7FEE7FEE7FEE7FEE7FEE7FEE796
:10024000FEE7FEE704480549054A064B70470000F3
:10025000455900088901000850060020500C002074
:10026000500800205008002053EA020C00F069807A
:100270002DE9F04B4FF00006002B1FBFB3FA83F5BA
:1002800003FA05F424FA05F65E4012BF1643B2FAEB
:1002900082F502FA05F4C5F120051EBF22FA05FC1D
:1002A00044EA0C04203556EA044C4FEA144418BFC3
:1002B000641C4FF000084FF00009904271EB030CF2
:1002C00039D3002919BFB1FA81F701FA07F6B0FA5C
:1002D00080F700FA07F6C7F120071EBF20FA07FCD7
:1002E00046EA0C062037B6FBF4FCA7EB0507103FE7
:1002F00007F01F0BCBF120062CFA06F60CFA0BFBCD
:1003000044BFB3460026202FA4BF5E464FF0000B2B
:100310005BEA060C08BF4FF0010B19EB0B0948EB29
:100320000608ABFB027C06FB02CC0BFB03CCC01B1C
:1003300071EB0C01C1E70B46024641464846BDE859
:10034000F08B13B5084318BF4FF0FF300146AFF3F1
:100350000080BDE81C4070474FF0000200B5134616
:1003600094469646203922BFA0E80C50A0E80C50D5
:10037000B1F12001BFF4F7AF090728BFA0E80C5086
:1003800048BF0CC05DF804EB890028BF40F8042B7F
:1003900008BF704748BF20F8022B11F0804F18BFEC
:1003A00000F8012B704770477047704710B500F098
:1003B00009F8006810BD10B5044600F003F80460A9
:1003C00010BD000000487047480000201FB584B0F1
:1003D00000200A9C06AB04AA02A90094AFF3008097
:1003E00018B1DDE9020108B010BD0348204000F05B
:1003F00037F800200146F6E70000207C00487047EF
:10040000480000207546FFF7F9FFAE460500694633
:10041000534620F00700854618B020B5FFF712FFBD
:10042000BDE820404FF000064FF000074FF00008F5
:100430004FF0000BAC46ACE8C009ACE8C009ACE832
:10044000C009ACE8C00921F007018D46704710B51E
:100450000446AFF300802046BDE81040FFF7DDBE44
:1004600010B500F009F8BDE81040AFF30080002897
:1004700001D000F057B8704710B5022803D04101F1
:1004800003D50DA112E0002010BD010101D50FA17F
:100490000CE0C10001D511A108E0810001D512A135
:1004A00004E0400001D513A100E0002115A000F0F8
:1004B0003FF8012010BD0000496E76616C69642030
:1004C0004F7065726174696F6E00000044697669EF
:1004D0006465204279205A65726F00004F7665721C
:1004E000666C6F7700000000556E646572666C6F15
:1004F00077000000496E65786163742052657375FA
:100500006C7400005349474650453A204172697463
:10051000686D6574696320657863657074696F6E72
:100520003A20000001491820ABBEFEE72600020079
:1005300070B505460C460A2000E06D1C00F011F86D
:1005400035B128780028F8D102E0641C00F009F8E1
:1005500014B120780028F8D1BDE870400A20AFF32C
:10056000008008B569468DF800000320ABBE08BDC9
:100570007047000080B582B001900198406A0090F9
:100580000098006C10F0500F26D1FFE70099086C1E
:1005900040F40070086400980068C06810F4406F70
:1005A00016D1FFE70098407E90B9FFE70099086CEC
:1005B00020F4807008640098006CC004002806D401
:1005C000FFE70099086C40F001000864FFE7FFE7CF
:1005D000009800F0BFFC05E00098806B016B01986B
:1005E0008847FFE702B080BD80B582B001900198D6
:1005F000406A00900099086C40F04000086400993F
:10060000486C40F004004864009800F0ABFC02B075
:1006100080BD000080B582B001900198406A0090D2
:10062000009800F09BFC02B080BD000080B584B053
:1006300002900020019002990968896801F0030185
:100640000129009005D1FFE702980068006800903A
:10065000FFE70098C007002844D0FFE70298006831
:10066000806800F00D0001280DD1FFE7FFE7029838
:100670000168886840F002008860029801680320E1
:100680000860FFE70DE00299086C40F01000086474
:100690000299486C40F00100486401208DF80F0079
:1006A00024E001F09BFC0190FFE70298006880685D
:1006B000C007B0B1FFE701F091FC0199401A03288F
:1006C0000ED3FFE70299086C40F01000086402990D
:1006D000486C40F00100486401208DF80F0005E0EF
:1006E000E3E7FFE700208DF80F00FFE79DF80F001C
:1006F00004B080BD80B584B00290002001900299C2
:100700000968896801F003010129009005D1FFE71C
:100710000298006800680090FFE70098C007002872
:100720003ED1FFE70298006880683F21C8F20001CF
:1007300008420ED0FFE70299086C40F010000864F0
:100740000299486C40F00100486401208DF80F00C8
:100750002AE002980168886840F00100886001F092
:100760003DFC0190FFE7029800680068C007B0B93F
:10077000FFE701F033FC0199401A03280ED3FFE78D
:100780000299086C40F0100008640299486C40F02F
:100790000100486401208DF80F0005E0E3E7FFE762
:1007A00000208DF80F00FFE79DF80F0004B080BD1A
:1007B000FFE7FEE780B540F2BC20C2F2000001F086
:1007C00001F980BD80B540F20030C2F2000001F0B6
:1007D000F9F880BD81B00090009908684FF6F87272
:1007E000CBF6FD7210444CF6CD42CCF6CC42A0FBC9
:1007F00002026FF0030000EA9200086400990020F2
:10080000C4F20200C86301B07047000084B00390D6
:100810000291019200930398C16B026C01209040F9
:100820004860009803990968486003984068102858
:1008300009D1FFE701980399096888600298039934
:100840000968C86008E002980399096888600198FF
:1008500003990968C860FFE704B07047704700005B
:1008600081B0EFF3108072B60090FFE7FEE7000062
:100870009DB01B901A9100208DF867001A980068AF
:1008800008B1FFE7FFE71B980068B0F1A04F06D161
:10089000FFE740F20010C5F20000049003E04FF0C3
:1008A000A0400490FFE7049820B9FFE701208DF8ED
:1008B0007300B4E0FFE71B9890F83C00012804D1D6
:1008C000FFE702208DF87300A9E01B99012081F851
:1008D0003C00FFE7FFE71B980068806800F0040118
:1008E0000020B0EB910F40F08680FFE7049880680D
:1008F00000F004010020B0EB910F7CD1FFE740F243
:100900000030C5F2000018901A980068002840D006
:10091000FFE71898806820F460401A9949681B9A8C
:1009200092F8302041EA42310843189988601B98B8
:100930000068806800F0030100200129039005D1C0
:10094000FFE71B98006800680390FFE70398C00763
:10095000F0B9FFE70498806800F003010020012946
:10096000029004D1FFE7049800680290FFE7029824
:10097000C00768B9FFE71898806840F61F71884380
:100980001A9A116892681143084318998860FFE722
:1009900030E01899886820F4604088601B980068EF
:1009A000806800F0030100200129019005D1FFE7D4
:1009B0001B98006800680190FFE70198C007C0B964
:1009C000FFE70498806800F00301002001290090EF
:1009D00004D1FFE7049800680090FFE70098C00783
:1009E00038B9FFE71899886840F61F72904388600D
:1009F000FFE7FFE708E01B99086C40F0200008645F
:100A000001208DF86700FFE7FFE71B99002081F8C0
:100A10003C00FFE79DF867008DF87300FFE79DF845
:100A200073001DB0704700009FB01D901C91002006
:100A30008DF86F0004901C98C068012801D0FFE772
:100A400000E0FFE7FFE71D9890F83C00012804D183
:100A5000FFE702208DF87B0078E21D99012081F8E4
:100A60003C00FFE7FFE71D980068806800F0040184
:100A70000020B0EB910F40F05582FFE71C984068D2
:100A8000042812D8FFE71D980068006B1C9A1168B3
:100A9000526802EB420252001F2393409843914058
:100AA00008431D99096808634AE01C9840680928B2
:100AB00015D8FFE71D980068406B1C9A11685268B2
:100AC00002EB42036FF01D0202EB43021F2393402F
:100AD0009843914008431D99096848632FE01C988A
:100AE00040680E2815D8FFE71D980068806B1C9A97
:100AF0001168526802EB42036FF03B0202EB4302C3
:100B00001F2393409843914008431D9909688863C7
:100B100014E01D980068C06B1C9A1168526802EBC3
:100B200042036FF0590202EB43021F2393409843A4
:100B3000914008431D990968C863FFE7FFE7FFE795
:100B40001D980068806810F00C0F40F0D980FFE716
:100B50001C9800680A2812D3FFE71D980068806976
:100B60001C990A68896802EB42021E3A07239340E7
:100B70009843914008431D990968886110E01D98C9
:100B8000006840691C990A68896802EB42020723E1
:100B900093409843914008431D9909684861FFE7D5
:100BA0001C9840691D990968C96801F018018908F5
:100BB000884005901C98006901380146039103287C
:100BC00054D80399DFE801F002162A3E1D98006808
:100BD000006E4FF20001C0F2FF3101401C98026824
:100BE000059840EA8260084340F000401D9909687A
:100BF000086684E01D980068406E4FF20001C0F264
:100C0000FF3101401C980268059840EA8260084361
:100C100040F000401D990968486670E01D98006822
:100C2000806E4FF20001C0F2FF3101401C98026853
:100C3000059840EA8260084340F000401D99096829
:100C400088665CE01D980068C06E4FF20001C0F23B
:100C5000FF3101401C980268059840EA8260084311
:100C600040F000401D990968C86648E01D9800687A
:100C7000006E00F0F8401C990968B0EB816F07D155
:100C8000FFE71D980168086E20F000400866FFE746
:100C90001D980068406E00F0F8401C990968B0EBA0
:100CA000816F07D1FFE71D980168486E20F0004072
:100CB0004866FFE71D980068806E00F0F8401C99B8
:100CC0000968B0EB816F07D1FFE71D980168886E56
:100CD00020F000408866FFE71D980068C06E00F0B5
:100CE000F8401C990968B0EB816F07D1FFE71D98A8
:100CF0000168C86E20F00040C866FFE7FFE7FFE725
:100D00001D980068806800F003010020012902900E
:100D100005D1FFE71D98006800680290FFE7029880
:100D2000C007002840F0FD80FFE71C98C06801283C
:100D30000DD0FFE71C980168012000FA01F21D9810
:100D40000168D1F8B0009043C1F8B00035E01C98BC
:100D50000168012000FA01F21D980168D1F8B00085
:100D60001043C1F8B0001C9800680A2812D3FFE7AE
:100D70001D98006880691C990A68896802EB420224
:100D80001B3A072393409843914008431D990968F3
:100D9000886111E01D98006840691C990A6889689B
:100DA00002EB4202033207239340984391400843E9
:100DB0001D9909684861FFE7FFE740F20030C5F27E
:100DC00000001A901C980068102806D1FFE71A98B6
:100DD00080680002002818D5FFE71C9800681128D9
:100DE00006D1FFE71A988068C00100280DD5FFE7FB
:100DF0001C980068122840F09380FFE71A988068DA
:100E00004002002800F18C80FFE71D980068B0F1D7
:100E1000A04F06D1FFE740F20010C5F20000069097
:100E200003E04FF0A0400690FFE71D98006880683F
:100E300000F0030100200129019005D1FFE71D9872
:100E4000006800680190FFE70198C00700285DD1A5
:100E5000FFE7069890B1FFE70698806800F003016D
:100E600000200129009004D1FFE706980068009057
:100E7000FFE70098C007002848D1FFE71C980068EA
:100E8000102824D1FFE71D980068B0F1A04F1ED1B3
:100E9000FFE71A99886840F40000886040F200007B
:100EA000C2F2000000684DF68361C4F21B31A0FB62
:100EB0000110800C00EB800040000490FFE70498D4
:100EC00020B1FFE7049801380490F8E71DE01C9872
:100ED000006811280CD1FFE71D980068B0F1A04F01
:100EE00006D1FFE71A99886840F0807088600BE0AF
:100EF0001C980068122806D1FFE71A99886840F408
:100F000080008860FFE7FFE7FFE708E01D99086CB5
:100F100040F02000086401208DF86F00FFE7FFE734
:100F2000FFE708E01D99086C40F0200008640120EC
:100F30008DF86F00FFE7FFE71D99002081F83C0066
:100F4000FFE79DF86F008DF87B00FFE79DF87B00C1
:100F50001FB0704781B0009001B0704781B0009021
:100F600001B0704781B0009001B0704780B59CB06F
:100F70001A9000208DF86700039002901A9820B90B
:100F8000FFE701208DF86F008BE11A98006938B1F6
:100F9000FFE71A9890F8200008B1FFE7FFE7FFE7A6
:100FA0001A98006CC006002877D4FFE71A98006CE6
:100FB000002852D1FFE71A99002048641A99C864A2
:100FC0001A9988641A9981F83C001A9800F06EF911
:100FD0001A9800688068C00000283DD4FFE71A987E
:100FE000FFF724FB8DF867001A98006CC0060028F4
:100FF00031D4FFE79DF8670068BBFFE71A98006CE3
:1010000040F0020020F488501A9908641A98016888
:10101000886820F0405088601A980168886840F01D
:101020008050886040F20000C2F2000000684DF677
:101030008361C4F21B31A0FB0110800C00EB800027
:1010400040000290FFE7029820B1FFE702980138C4
:101050000290F8E7FFE7FFE7FFE71A98006880686B
:10106000C000002807D5FFE71A9800688068800054
:10107000002811D5FFE71A98006C40F0100020F00E
:1010800002001A9908641A99486C40F001004864FB
:1010900001208DF86700FFE7FFE71A98006CC00693
:1010A000002800F1ED80FFE79DF86700002840F080
:1010B000E780FFE71A980068806800F004010020CC
:1010C000B0EB910F40F0DC80FFE71A98006C40F025
:1010D000020020F480701A99086440F20030C5F2D2
:1010E000000018901A980068B0F1A04F06D1FFE7F1
:1010F00040F20010C5F20000049003E04FF0A04061
:101100000490FFE71A980068806800F0030100204F
:101110000129019005D1FFE71A9800680068019045
:10112000FFE70198C007F0B9FFE7049888B1FFE72F
:101130000498806800F0030100200129009004D188
:10114000FFE7049800680090FFE70098C00750B9D7
:10115000FFE71898806820F440301A9949680843DE
:1011600018998860FFE71A9A507E4003536B00F588
:101170008051012B18BF08469168D2681043014383
:101180000398084303901A9890F82000012820D172
:10119000FFE71A98407E68B9FFE71A98416A002075
:1011A000CFF6FE7000EB41400399084340F48030D5
:1011B00003900DE01A98006C40F0200020F002002F
:1011C0001A9908641A99486C40F001004864FFE7D6
:1011D000FFE71A98806A012808D0FFE71A99886A01
:1011E000C96A0143039808430390FFE71A9800680F
:1011F000806810F00C0F12D1FFE71A980168C868D8
:1012000044F202029043C8601A99087E91F83010A7
:10121000800340EA4101039808430390FFE71A98CE
:101220000068C0684CF20701CFF6F07108400399DE
:1012300008431A990968C8601A98006901280CD1F6
:10124000FFE71A980068006B20F00F001A9A1168E7
:10125000D269013A1043086306E01A980168086BE6
:1012600020F00F000863FFE71A99002048641A98DD
:10127000006C40F0010020F002001A9908640BE0B5
:101280001A98006C40F0100020F002001A990864CF
:1012900001208DF86700FFE79DF867008DF86F006B
:1012A000FFE79DF86F001CB080BD000080B594B0D2
:1012B000139000201290119010900F900E901398A0
:1012C0000068B0F1A04F7CD1FFE740F2A800C2F265
:1012D00000000168013101600068012810D1FFE7BA
:1012E000FFE741F21400C4F20200016841F08051AE
:1012F0000160006800F080500D900D98FFE7FFE757
:10130000FFE741F21400C4F20200016841F4003129
:101310000160006800F400300C900C98FFE7FFE7D4
:1013200041F21400C4F20200016841F4802101601E
:10133000006800F480200B900B98FFE70F200E90C0
:10134000032004900F900020069010904FF09040E2
:101350000EA9059100F07EFC049A059906980E925C
:101360000F92109040F20040C4F6000000F072FCB2
:10137000069940F2BC20C2F2000007900822C4F295
:1013800002020260416081608022C2604FF480727C
:1013900002614FF48062426120228261C16100F0EB
:1013A000AFFB18B1FFE7FFF75BFAFFE7FFE7139822
:1013B00040F2BC21C2F20001816313984862FFE74A
:1013C0005EE01398006840F20011C5F20001884207
:1013D00055D1FFE740F2A800C2F2000001680131D8
:1013E00001600068012810D1FFE7FFE741F2140017
:1013F000C4F20200016841F080510160006800F011
:1014000080500A900A98FFE7FFE7FFE741F21400D7
:10141000C4F20200016841F400310160006800F488
:10142000003009900998FFE7FFE741F21400C4F289
:101430000200016841F480210160006800F480200E
:1014400008900898FFE730200E90032001900F903D
:101450000020029010904FF090400EA9039100F0F0
:10146000F9FB019A0298039904230E930F921090AE
:1014700040F20040C4F6000000F0ECFBFFE7FFE79D
:1014800014B080BD80B586B0049003910292002014
:101490008DF8070004990968896801F00401B0EB30
:1014A000910F40F0DA80FFE7FFE7049890F83C00E6
:1014B000012804D1FFE702208DF81700D6E0049937
:1014C000012081F83C00FFE7FFE740F20830C5F259
:1014D00000000068C006002840F0B480FFE70498D0
:1014E000FFF708F98DF807009DF80700002840F085
:1014F000A180FFE70498006C40F4807040F6016121
:1015000088430499086440F20830C5F2000000687E
:10151000C00630B1FFE704980068B0F1A04F16D1C3
:10152000FFE70499086C20F48010086404980068B0
:10153000C0688001002809D5FFE70498006C40F4DA
:10154000805020F4005004990864FFE728E00499D3
:10155000086C40F48010086404980068B0F1A04F53
:1015600009D0FFE70498006840F20011C5F20001BD
:10157000884208D1FFE70C20C5F200000068800116
:10158000002803D40BE0012048B9FFE70498006C61
:1015900040F4805020F4005004990864FFE7FFE70E
:1015A0000498006CC004002806D5FFE70499486C35
:1015B00020F00600486403E0049900204864FFE737
:1015C000FFE70499002081F83C00FFE70498816B55
:1015D00040F27550C0F6000088620498816B40F2BA
:1015E0001560C0F60000C8620498816B40F2E950B3
:1015F000C0F600000863049801681C200860049885
:101600000168486840F01000486004980168C868A4
:1016100040F00100C86004980168806B4031039A73
:10162000029B00F0B1FA04980168886840F0040059
:10163000886006E0FFE70499002081F83C00FFE79E
:10164000FFE709E001208DF80700FFE7049900207B
:1016500081F83C00FFE7FFE703E002208DF8070078
:10166000FFE79DF807008DF81700FFE79DF81700CA
:1016700006B080BD80B586B0059000208DF81300BF
:10168000059838B1FFE7059890F82900C0060028B2
:1016900004D5FFE701208DF813007DE00598006A6E
:1016A00008B1FFE7FFE7FFE741F21800C4F20200CC
:1016B000016841F001010160006800F00100039041
:1016C0000398FFE7059800F06BF8059890F829005B
:1016D00028B9FFE70599002081F82800FFE7059861
:1016E0004068602804D0FFE70598406801900CE04E
:1016F000059801682022C4F201027020C0F2400067
:10170000914208BF60200190FFE701980599486069
:10171000FFE7002002900598006800680290029898
:101720004FF68F71CFF6BF7108400599496808439D
:10173000029002980599896808430290029820F463
:101740004020059989690843029002980599C96863
:10175000890A61F38D200290029820F400400599D7
:101760000969084302900298059949690843029063
:1017700002980599C9690843029002980599096A77
:10178000084302900298059909680860FFE70599E7
:10179000012081F82900FFE79DF8130006B080BD05
:1017A00080B588B0079000200690059004900390C3
:1017B0000290079800682021C4F2010188421BD1E1
:1017C000FFE7FFE741F21400C4F20200016841F4B0
:1017D00000310160006800F4003001900198FFE7DB
:1017E0008020029003200390002004904FF090404E
:1017F00002A900F02FFA26E0079800683021C4F211
:10180000010188421ED1FFE7FFE741F21400C4F254
:101810000200016841F480210160006800F480202A
:1018200000900098FFE74FF40060029003200390BF
:101830000020049040F20040C4F6000002A900F02D
:1018400009FAFFE7FFE708B080BD000086B004900A
:10185000039102920020019000900498006847F2E2
:101860000041C4F20001884204D1FFE7029808B9A0
:10187000FFE700E0FFE7FFE704984079012804D183
:10188000FFE702208DF8170053E00499012048710A
:10189000FFE7FFE7049902200871049800680068D8
:1018A00001900498006847F20041C4F200018842A8
:1018B00011D1FFE7029870B9FFE7029940F6FE7078
:1018C00000FA01F10198884301900399086849687A
:1018D000084300900DE0029940F6FE7000FA01F115
:1018E000019888430190039908688968084300902B
:1018F000FFE70098029900FA01F10198084301906E
:1019000001980499096808600299C02000FA01F260
:1019100004980168086890430860049901200871E0
:10192000FFE7049900204871FFE700208DF81700B9
:10193000FFE79DF8170006B07047000080B582B041
:101940000090009820B9FFE701208DF8070016E00D
:101950000098007938B9FFE7009900204871009895
:1019600000F012F8FFE700990220087100990020AA
:101970000861009A012111718DF80700FFE79DF8B9
:10198000070002B080BD000082B00190019800689D
:1019900047F20041C4F20001884210D1FFE7FFE79F
:1019A00041F21C00C4F20200016841F000510160E4
:1019B000006800F0005000900098FFE7FFE702B0D9
:1019C0007047000080B584B003900398C06B006836
:1019D0000290039800680068019002980399096CCE
:1019E000C8404007002823D5FFE79DF804004007C2
:1019F00000281DD5FFE703980068006880060028CE
:101A000007D4FFE703980168086820F00400086025
:101A1000FFE70398C16B026C042090404860039874
:101A2000C06A20B1FFE70398C16A8847FFE765E015
:101A300002980399096CC840800700282DD5FFE75C
:101A40009DF804008007002827D5FFE70398006869
:101A50000068800600280BD4FFE703980168086837
:101A600020F00A0008600399012081F82100FFE7B7
:101A70000398C16B026C022090404860FFE7039915
:101A8000002081F82000FFE70398806A20B1FFE77B
:101A90000398816A8847FFE72FE002980399096C51
:101AA000C8400007002827D5FFE79DF8040000077D
:101AB000002821D5FFE703980168086820F00E0090
:101AC00008600398C26B016C012000FA01F15160BB
:101AD00003998863039981F82100FFE703990020A7
:101AE00081F82000FFE70398006B20B1FFE703981F
:101AF000016B8847FFE7FFE7FFE7FFE704B080BD22
:101B000080B584B0029000200190029820B9FFE7D0
:101B100001208DF80F0033E00299022081F82100A6
:101B20000298006800680190019843F6F0718843BC
:101B3000019002994868D1F808C0CB680A6940EA68
:101B40000C00184310434A6910438A691043C9695D
:101B500001430198084301900198029909680860BF
:101B60000298FEF737FE029900208863029A01214D
:101B700082F82110029981F820008DF80F00FFE70C
:101B80009DF80F0004B080BD80B586B0049003912D
:101B90000292019300208DF80300FFE7049890F86B
:101BA0002000012804D1FFE702208DF817004CE047
:101BB0000499012081F82000FFE7FFE7049890F8DE
:101BC0002100012832D1FFE70499022081F8210089
:101BD00004990020886304980168086820F00100D7
:101BE000086004980399029A019BFEF70FFE04987F
:101BF000C06A38B1FFE704980168086840F00E0039
:101C000008600CE004980168086840F00A00086069
:101C100004980168086820F004000860FFE7049851
:101C20000168086840F00100086009E0FFE70499D6
:101C3000002081F82000FFE702208DF80300FFE775
:101C40009DF803008DF81700FFE79DF8170006B018
:101C500080BD000089B00890079100200690FFE742
:101C6000079800680699C840002800F08A81FFE7BD
:101C700007980068069A0121914008400590059850
:101C8000002800F07A81FFE70798406801280FD00C
:101C9000FFE70798406802280AD0FFE707984068E6
:101CA000112805D0FFE70798406812282FD1FFE7D9
:101CB00008988068049006984100032000FA01F11A
:101CC0000498884304900798C0680699490000FA70
:101CD00001F10498084304900498089988600898D2
:101CE000406804900699012000FA01F104988843A5
:101CF000049007984068C0F30010069900FA01F1BB
:101D0000049808430490049808994860FFE70898ED
:101D1000C068049006984100032000FA01F104987D
:101D200088430490079880680699490000FA01F1F9
:101D300004980843049004980899C860079840687C
:101D4000022805D0FFE707984068122826D1FFE750
:101D5000089806996FF0030202EA51010844006AEC
:101D60000490069800F0070081000F2000FA01F1AE
:101D700004988843049007980069069901F00701C8
:101D8000890000FA01F10498084304900498089926
:101D9000069B02EA530211440862FFE708980068B4
:101DA000049006984100032000FA01F1049888434A
:101DB00004900798406800F003000699490000FA73
:101DC00001F1049808430490049808990860079862
:101DD000C079C006002840F1CF80FFE7FFE741F25D
:101DE0001800C4F20200016841F0010101600068BE
:101DF00000F0010003900398FFE7069820F003002D
:101E00000821C4F2010140580490069800F0030034
:101E100081000F2000FA01F104988843049008988B
:101E2000B0F1904F03D1FFE70020029026E0089820
:101E300040F20041C4F60001884203D1FFE70120CF
:101E4000019018E0089840F60001C4F600018842AD
:101E500003D1FFE7022000900AE0089940F6004213
:101E6000C4F600020520914208BF03200090FFE75E
:101E700000980190FFE701980290FFE70298069909
:101E800001F00301890000FA01F10498084304906D
:101E90000498069921F003010822C4F20102885037
:101EA00040F20040C4F201000068049005990498D3
:101EB0008843049007988079C00728B1FFE7059907
:101EC000049808430490FFE7049840F20041C4F2EC
:101ED0000101086040F20440C4F20100006804906F
:101EE0000599049888430490079880798007002812
:101EF00005D5FFE70599049808430490FFE7049887
:101F000040F20441C4F20101086040F20840C4F20A
:101F1000010000680490059904988843049007988C
:101F20008079C006002805D5FFE705990498084385
:101F30000490FFE7049840F20841C4F201010860F0
:101F400040F20C40C4F20100006804900599049826
:101F500088430490079880798006002805D5FFE71C
:101F60000599049808430490FFE7049840F20C4157
:101F7000C4F201010860FFE7FFE706980130069010
:101F80006EE609B07047000083B00290ADF806100D
:101F9000029840690090009ABDF8060002EA00012C
:101FA000904340EA01400299886103B07047000005
:101FB00082B00190ADF802108DF801209DF801006B
:101FC00028B1FFE7BDF802000199886104E0BDF87F
:101FD000020001998862FFE702B0704740F270503A
:101FE000C2F200000068704786B00490039102922C
:101FF000049890F8C100022804D1FFE702208DF870
:10200000170099E0FFE7049890F8C000012804D178
:10201000FFE702208DF817008EE00499012081F877
:10202000C000FFE7FFE70499022081F8C10004988F
:102030000068D0F8800301900398013801460091B0
:10204000072851D80099DFE801F004164F294F4FB7
:102050004F3C019820F4E02001900298006800F4C1
:10206000E0210198084301900298406804990968AA
:10207000C1F8BC0343E0019820F46010019002987D
:10208000006800F4E021019840EAC1000190029844
:10209000406804990968C1F8C00330E0019820F055
:1020A000E07001900298006800F4E021019840EA95
:1020B000811001900298406804990968C1F8C4032E
:1020C0001DE0019820F0606001900298006800F423
:1020D000E021019840EA412001900298406804996B
:1020E0000968C1F8C8030AE00499072081F8C10013
:1020F000FFE70499002081F8C000FFE7FFE704989C
:1021000090F8C100072804D1FFE701208DF81700DF
:1021100012E0019804990968C1F88003049901202C
:1021200081F8C100FFE70499002081F8C000FFE7B3
:1021300000208DF81700FFE79DF8170006B07047E4
:1021400083B001900091FFE7019890F8C00001284A
:1021500004D1FFE702208DF80B0043E00199012034
:1021600081F8C000FFE7FFE70199022081F8C10074
:102170000098013088B9FFE701980168D1F8CC03D5
:1021800020F00200C1F8CC0301980168D1F8CC031B
:1021900040F00100C1F8CC031CE001980168D1F8BF
:1021A000CC0340F00200C1F8CC0301980068D0F8DD
:1021B000CC0320F00C000099084301990968C1F88C
:1021C000CC0301980168D1F8CC0340F00100C1F8BC
:1021D000CC03FFE70199012081F8C10000208DF8B0
:1021E0000B00FFE79DF80B0003B0704785B003902C
:1021F00002910192039890F8C100022804D1FFE7F0
:1022000002208DF8130077E0FFE7039890F8C000F4
:10221000012804D1FFE702208DF813006CE0039938
:10222000012081F8C000FFE7FFE70399022081F851
:10223000C1000198006800F4E050009001984168E6
:102240006FF35F210098084300900198806800F4C4
:1022500000710098084300900198006900F48041E3
:102260000098084300900198C06800F4004100986D
:1022700008430090019841690020C0F2FF1000EA75
:1022800001410098084300900198806900F00071B6
:102290000098084300900198006A00F0804100987F
:1022A000084300900198C06900F00041009808437D
:1022B000009003980068029900EBC110D0F8B800B4
:1022C00042F20001C3F60041084000990843039917
:1022D0000968029A01EBC211C1F8B8000399012004
:1022E00081F8C100FFE70399002081F8C000FFE7F3
:1022F00000208DF81300FFE79DF8130005B070472C
:1023000080B586B00490049820B9FFE701208DF8CD
:102310001700BFE00499022081F8C1000499002051
:10232000C1F8C4000499C1F8C8000499C1F8CC00F0
:102330000499C1F8D0000499C1F8D4000499C1F8F7
:10234000D8000498007AC007C0B3FFE7049800687B
:1023500047F20041C4F20101884210D1FFE7FFE7D4
:1023600041F21800C4F20200016841F0005101601E
:10237000006800F0005001900198FFE7FFE7049823
:10238000006800680290029820F44040029004988F
:10239000006900F44041029808430290029820F43A
:1023A000405002900498406900F44051029808435C
:1023B00002900298049909680860FFE7049800F009
:1023C0006DF80498007A8007002814D5FFE7049878
:1023D000006800680290029820F44070029004980F
:1023E000C06800F440710298084302900298049972
:1023F00009680860FFE70499012081F8C100FFE740
:102400000499002081F8C000FFE700208DF80F003C
:10241000FFE79DF80F00052838D8FFE704989DF8DE
:102420000F10C1EBC10100EB81010020886104990C
:102430009DF80F20C2EBC20201EB8201C861049932
:102440009DF80F20C2EBC20201EB820108620499E1
:102450009DF80F20C2EBC20201EB82014862049991
:102460009DF80F20C2EBC20201EB82018862049941
:102470009DF80F20C2EBC20201EB82010863FFE767
:102480009DF80F0001308DF80F00C2E700208DF895
:102490001700FFE79DF8170006B080BD82B00190DD
:1024A0000198006847F20041C4F20101884210D14E
:1024B000FFE7FFE741F21800C4F20200016841F0B3
:1024C00000510160006800F0005000900098FFE7A4
:1024D000FFE702B07047000080B58EB00D9000207D
:1024E0000C900B900A90099008900D98006847F2A4
:1024F0000041C4F20101884249D1FFE7FFE741F200
:102500001400C4F20200016841F4802101600068F7
:1025100000F4802007900798FFE7FFE741F21400DE
:10252000C4F20200016841F400310160006800F467
:10253000003006900698FFE74FF4704008900220A4
:1025400001900990002002900A90032003900B90C4
:102550000D2004900C9040F20040C4F6000008A941
:102560000591FFF777FBDDF804C0029B039A0498FE
:1025700005994FF4706ECDF820E0CDF824C00A9391
:102580000B920C904FF09040FFF764FBFFE70EB00A
:1025900080BD000080B584B002900191FFF71EFD60
:1025A0000090FFE702980068D0F8880300F48031BB
:1025B0000020B0EB114F19D1FFE701980130A0B115
:1025C000FFE7FFF70BFD0099401A0199884203D8F5
:1025D000FFE7019840B9FFE70299072081F8C100A1
:1025E00003208DF80F000FE0FFE7DBE702990120E1
:1025F00081F8C100FFE70299002081F8C000FFE7E1
:1026000000208DF80F00FFE79DF80F0004B080BD9B
:1026100080B584B0029001910092029890F8C100B8
:10262000022804D1FFE702208DF80F001AE002997A
:10263000022081F8C1000198052805D1FFE7029822
:10264000009902F0CFF805E002980199009A02F093
:1026500011FAFFE70299012081F8C10000208DF8EE
:102660000F00FFE79DF80F0004B080BD87B0059014
:10267000049103920293059890F8C100022804D1B6
:10268000FFE702208DF81B004CE1FFE7059890F86A
:10269000C000012804D1FFE702208DF81B0041E1B2
:1026A0000599012081F8C000FFE7FFE705990220A6
:1026B00081F8C100049805283BD1FFE70398013851
:1026C0000146019107281ED80199DFE801F0040AAC
:1026D0001C101C1C1C160298006805990968C8612A
:1026E0001CE00298006805990968486216E00298A3
:1026F000006805990968886210E0029800680599E9
:102700000968C8620AE00599072081F8C100FFE75F
:102710000599002081F8C000FFE7FFE7059890F8D1
:10272000C100072804D1FFE701208DF81B00F9E064
:10273000EAE00398013801460091072800F2CE80B4
:102740000099DFE801F0040ECB67CBCBCB71029888
:10275000006805990968049A01EBC211C1F89C0050
:10276000C7E00298006805990968049A01EBC21154
:10277000C1F8A40002984068D0B3FFE7059800684C
:10278000049900EBC111D1F8800020F44050C1F849
:1027900080000298426805980068049900EBC11116
:1027A000D1F880001043C1F8800002984068B0F56D
:1027B000005F0AD1FFE70298806805990968049ACA
:1027C00001EBC211C1F89C0011E002984068B0F51D
:1027D000405F0AD1FFE70298806805990968049A6A
:1027E00001EBC211C1F8A80000E0FFE7FFE710E02D
:1027F00005980068049900EBC110D0F8800020F41F
:10280000405005990968049A01EBC211C1F8800093
:10281000FFE76EE00298006805990968049A01EBE9
:10282000C211C1F8A80064E002980068059909681F
:10283000049A01EBC211C1F8AC0002984068D8B309
:10284000FFE705980068049900EBC111D1F88000FA
:1028500020F44040C1F88000029842680598006862
:10286000049900EBC111D1F8800040EA8200C1F860
:10287000800002984068B0F5005F0AD1FFE7029837
:10288000806805990968049A01EBC211C1F89C009F
:1028900011E002984068B0F5405F0AD1FFE7029866
:1028A000806805990968049A01EBC211C1F8A80073
:1028B00000E0FFE7FFE710E005980068049900EBEF
:1028C000C110D0F8800020F4404005990968049AAE
:1028D00001EBC211C1F88000FFE70AE0059907206B
:1028E00081F8C100FFE70599002081F8C000FFE7EB
:1028F000FFE7059890F8C100072804D1FFE7012001
:102900008DF81B000EE0FFE70599012081F8C1005A
:10291000FFE70599002081F8C000FFE700208DF84F
:102920001B00FFE79DF81B0007B0704783B00190C4
:102930000091FFE7019890F8C000012804D1FFE75B
:1029400002208DF80B001DE00199012081F8C000E4
:10295000FFE7FFE70199022081F8C100009A019882
:1029600001680868104308600199012081F8C100DE
:10297000FFE70199002081F8C000FFE700208DF8F3
:102980000B00FFE79DF80B0003B0704780B586B0E1
:102990000490039102920193049890F8C1000228D8
:1029A00004D1FFE702208DF8170028E0FFE7049824
:1029B00090F8C000012804D1FFE702208DF817002D
:1029C0001DE00499012081F8C000FFE7FFE70499AA
:1029D000022081F8C10004980399029A019B01F03A
:1029E0008BFF0499012081F8C100FFE704990020C2
:1029F00081F8C000FFE700208DF81700FFE79DF881
:102A0000170006B080BD000083B001900091FFE781
:102A1000019890F8C000012804D1FFE702208DF84A
:102A20000B001FE00199012081F8C000FFE7FFE7DC
:102A30000199022081F8C100009A01980168D1F83B
:102A400094031043C1F894030199012081F8C10057
:102A5000FFE70199002081F8C000FFE700208DF812
:102A60000B00FFE79DF80B0003B0704780B584B002
:102A7000029001910092029890F8C100022804D1BE
:102A8000FFE702208DF80F0062E0FFE7029890F860
:102A9000C000012804D1FFE702208DF80F0057E0A5
:102AA0000299012081F8C000FFE7FFE702990220A8
:102AB00081F8C1000198052805D1FFE70298009927
:102AC00001F0BAFE05E002980199009A02F00CF8B4
:102AD000FFE7009800680299019AC2EBC20201EB7D
:102AE00082010862009840680299019AC2EBC20212
:102AF00001EB82014862009880680299019AC2EB5A
:102B0000C20201EB820188620098C0680299019AB2
:102B1000C2EBC20201EB8201C8620098006902990F
:102B2000019AC2EBC20201EB82010863029801998B
:102B300001F012FE0299012081F8C100FFE702991D
:102B4000002081F8C000FFE700208DF80F00FFE7AC
:102B50009DF80F0004B080BD83B0019000910198F2
:102B600090F8410020283BD1FFE7FFE7019890F85B
:102B70004000012804D1FFE702208DF80B0033E06C
:102B80000199012081F84000FFE7FFE70199242027
:102B900081F8410001980168086820F00100086090
:102BA00001980168086820F480500860009A019834
:102BB000016808681043086001980168086840F0DF
:102BC000010008600199202081F84100FFE7019988
:102BD000002081F84000FFE700208DF80B0003E0A3
:102BE00002208DF80B00FFE79DF80B0003B0704743
:102BF00084B002900191029890F84100202840D1C1
:102C0000FFE7FFE7029890F84000012804D1FFE7B2
:102C100002208DF80F0038E00299012081F8400071
:102C2000FFE7FFE70299242081F84100029801683C
:102C3000086820F0010008600298006800680090B1
:102C4000009820F4706000900199009840EA0120FB
:102C50000090009802990968086002980168086865
:102C600040F0010008600299202081F84100FFE750
:102C70000299002081F84000FFE700208DF80F0046
:102C800003E002208DF80F00FFE79DF80F0004B06D
:102C90007047000080B582B00090009820B9FFE72F
:102CA00001208DF8070073E0009890F8410040B9CA
:102CB000FFE70099002081F84000009800F06CF8D0
:102CC000FFE70099242081F8410000980168086816
:102CD00020F00100086000980168406820F07060F2
:102CE000086100980168886820F4004088600098B6
:102CF000C068012807D1FFE700980168806840F4A8
:102D00000040886006E000980168806840F4044054
:102D10008860FFE70098C068022806D1FFE70098A6
:102D200001684FF400604860FFE700980168486858
:102D300048F20002C0F20022104348600098016887
:102D4000C86820F40040C860009A1168106953698F
:102D50009269184340EA0220C860009A1168D0695D
:102D6000126A1043086000980168086840F001008A
:102D70000860009900204864009A202182F84110E0
:102D800000990863009981F842008DF80700FFE779
:102D90009DF8070002B080BD80B590B00F90002074
:102DA0000E900D900C900B900A900F98006845F2D1
:102DB0000041C4F20001884240F08680FFE7FFE74F
:102DC00041F21400C4F20200016841F400310160D4
:102DD000006800F4003009900998FFE7FFE741F22E
:102DE0001400C4F20200016841F48021016000680F
:102DF00000F4802008900898FFE74FF400400A9004
:102E0000122002900B90012003900C90032004905C
:102E10000D90042005900E904FF090400AA9069165
:102E2000FEF718FFDDF808C0039B049A0598069981
:102E30004FF4007ECDF828E0CDF82CC00C930D9215
:102E40000E9040F20040C4F60000FEF703FFFFE7DB
:102E500041F21C00C4F20200016841F4001101605B
:102E6000006800F4001007900798FFE740F2003078
:102E7000C2F2000001901C21C4F202010160102185
:102E80004160002181608022C260016141618161F5
:102E9000C161FEF735FE18B1FFE7FDF7E1FCFFE782
:102EA000FFE75021C4F20101086840F040000860CB
:102EB000FFE7FFE70F9840F20031C2F200018163A3
:102EC0000F984862FFE7FFE710B080BD40F2410075
:102ED000C2F20000027840F27051C2F200010868AC
:102EE000104408607047000080B582B042F20001D3
:102EF000C4F20201086840F010000860032000F0EE
:102F000087F80020019000F005F800F03BF80198E8
:102F100002B080BD80B582B0009040F20000C2F2E5
:102F20000000006840F24101C2F200010A784FF44B
:102F30007A71B1FBF2F1B0FBF1F001F0FDF820B1D4
:102F4000FFE701208DF8070018E000980F280DD842
:102F5000FFE700994FF0FF30002200F03FF80098A3
:102F600040F24401C2F20001086003E001208DF844
:102F7000070003E000208DF80700FFE79DF8070039
:102F800002B080BD82B0FFE741F21800C4F2020037
:102F9000016841F001010160006800F0010001904A
:102FA0000198FFE7FFE741F21C00C4F2020001684C
:102FB00041F080510160006800F08050009000985E
:102FC000FFE702B07047000080B582B08DF80700BF
:102FD0009DF9070003F014F802B080BD80B586B0FB
:102FE0008DF81700049103920020029003F020F85E
:102FF00002909DF91700019002980499039A02F03B
:10300000A3FB0146019803F01BF806B080BD000049
:1030100080B582B00190019803F034F802B080BD11
:1030200080B58AB008900020079006908DF81700B0
:1030300008988078C007002800F0D280FFE741F2AE
:103040001C00C4F202000068C000002813D4FFE78F
:10305000FFE741F21C00C4F20200016841F0805118
:103060000160006800F0805004900498FFE70120A0
:103070008DF81700FFE747F20000C4F20000006877
:10308000C005002822D4FFE747F20001C4F2000186
:10309000086840F480700860FEF7A0FF0790FFE723
:1030A00047F20000C4F200000068C00500280CD4FC
:1030B000FFE7FEF793FF0799401A652804D3FFE75F
:1030C00003208DF82700E8E0EAE7FFE741F220005F
:1030D000C4F20200006800F44070069006980028D0
:1030E00064D0FFE706980899496801F44071884266
:1030F0005CD0FFE741F22001C4F20201086820F42D
:103100004070069040F24042C4F24222012010601A
:1031100000201060069808609DF81800C00700287D
:1031200043D0FFE7FEF75AFF0790FFE7012038B9C9
:10313000FFE741F20000C4F202000068039020E0C3
:10314000002038B9FFE741F22000C4F20200006815
:10315000029013E0012038B9FFE741F20400C4F205
:1031600002000068019006E041F22400C4F202006F
:1031700000680190FFE701980290FFE70298039032
:10318000FFE70398800700280ED4FFE7FEF726FF2D
:103190000799401A41F28931884204D3FFE703209E
:1031A0008DF8270079E0C1E7FFE7FFE741F2200152
:1031B000C4F20201086820F44070089A5268104373
:1031C00008609DF81700012809D1FFE741F21C01B2
:1031D000C4F20201086820F080500860FFE7FFE7B2
:1031E00008980078C00760B1FFE741F23001C4F2EF
:1031F0000201086820F00300089A926810430860F2
:10320000FFE708980078800600280CD5FFE741F218
:103210003001C4F20201086820F01000089AD26858
:1032200010430860FFE708980078000600280CD5D6
:10323000FFE741F22C01C4F20201086820F4F870A3
:10324000089A126910430860FFE708984078C006A2
:1032500000280CD5FFE741F23001C4F202010868F2
:1032600020F48070089A526910430860FFE70898BC
:103270004078400600280CD5FFE741F23001C4F247
:103280000201086820F48050089A9269104308608F
:10329000FFE700208DF82700FFE79DF827000AB020
:1032A00080BD000080B58EB00C900B9100200A907C
:1032B0000C9820B9FFE701208DF8370073E10B98D7
:1032C00042F20001C4F20201096801F007018842DC
:1032D00016D9FFE742F20000C4F20200016821F0B3
:1032E00007010B9A11430160006800F007000B9979
:1032F000884204D0FFE701208DF8370053E1FFE753
:103300000C980078800700280CD5FFE741F20401F3
:10331000C4F20201086820F0F0000C9A9268104391
:103320000860FFE70C980078C007002800F0D680FE
:10333000FFE70C984068012835D1FFE7002038B935
:10334000FFE741F20000C4F202000068099020E0AB
:10335000012038B9FFE741F22000C4F20200006802
:10336000089013E0012038B9FFE741F20400C4F2ED
:1033700002000068079006E041F22400C4F2020057
:1033800000680790FFE707980890FFE70898099002
:10339000FFE709988003002804D4FFE701208DF897
:1033A000370000E16FE00C984068022835D1FFE754
:1033B000002038B9FFE741F20000C4F202000068C3
:1033C000069020E0012038B9FFE741F22000C4F266
:1033D00002000068059013E0012038B9FFE741F2D0
:1033E0000400C4F202000068049006E041F22400E8
:1033F000C4F2020000680490FFE704980590FFE71C
:1034000005980690FFE706988001002804D4FFE79E
:1034100001208DF83700C6E034E0002038B9FFE71E
:1034200041F20000C4F202000068039020E0012095
:1034300038B9FFE741F22000C4F2020000680290B0
:1034400013E0012038B9FFE741F20400C4F20200A2
:103450000068019006E041F22400C4F20200006816
:103460000190FFE701980290FFE702980390FFE7C1
:1034700003988007002804D4FFE701208DF8370067
:1034800091E0FFE7FFE741F20401C4F2020108689E
:1034900020F003000C9A526810430860FEF79EFD6E
:1034A0000A90FFE741F20400C4F20200006800F055
:1034B0000C000C994968B0EB810F0ED0FFE7FEF7C6
:1034C0008DFD0A99401A41F28931884204D3FFE701
:1034D00003208DF8370066E0E4E7FFE70B9842F23F
:1034E0000001C4F20201096801F00701884216D206
:1034F000FFE742F20000C4F20200016821F0070178
:103500000B9A11430160006800F007000B99884294
:1035100004D0FFE701208DF8370044E0FFE70C9866
:103520000078400700280CD5FFE741F20401C4F2FF
:103530000201086820F4E0600C9AD2681043086029
:10354000FFE70C980078000700280DD5FFE741F24F
:103550000401C4F20201086820F460500C9A126958
:1035600040EAC2000860FFE700F04CF841F20401B5
:10357000C4F202010968C9B20A0947F6E451C0F66B
:103580000001895CC84040F20001C2F200010860FD
:1035900040F24400C2F200000068FFF7BBFC0020CC
:1035A0008DF83700FFE79DF837000EB080BD0000B2
:1035B00040F20000C2F200000068704780B5FFF7DB
:1035C000F7FF41F20401C4F202010968C1F30222CB
:1035D00047F6F451C0F60001895CC84080BD000088
:1035E00080B5FFF7E5FF41F20401C4F2020109686A
:1035F000C1F3C22247F6F451C0F60001895CC8400D
:1036000080BD000080B586B0002005900490039036
:103610000290019041F20400C4F20200006805909B
:10362000059800F00C0001460091002841D0FFE70A
:103630000098042804D0FFE70098082806D039E055
:1036400041F20020C0F27A00019039E00598C0F301
:10365000834147F6FC50C0F60000405C029041F206
:103660002C00C4F20200006800F00F0147F60C6065
:10367000C0F60000405C04909DF81600C00768B1D9
:10368000FFE7049A41F20020C0F27A0000231946B5
:10369000FCF7EAFD02994843039007E0029840F6E0
:1036A0000011C0F23D0148430390FFE703980190E9
:1036B00006E0FFE741F20020C0F27A000190FFE748
:1036C000019806B080BD000080B5AEB02C902C985B
:1036D00028B9FFE701208DF8B70000F028BD2C982D
:1036E0000078C007002800F03181FFE741F20400B4
:1036F000C4F20200006800F00C00042813D0FFE7B9
:1037000041F20400C4F20200006800F00C00082836
:1037100043D1FFE741F20400C4F202000068C00395
:1037200000283AD5FFE7002038B9FFE741F2000052
:10373000C4F202000068279020E0012038B9FFE7BA
:1037400041F22000C4F202000068269013E001203C
:1037500038B9FFE741F20400C4F202000068259086
:1037600006E041F22400C4F2020000682590FFE761
:1037700025982690FFE726982790FFE72798800353
:10378000002809D5FFE72C98406828B9FFE70120F9
:103790008DF8B70000F0CBBCD7E0FFE72C9840686D
:1037A000B0F5803F09D1FFE741F20001C4F2020108
:1037B000086840F48030086032E02C98406868B9AE
:1037C000FFE741F20001C4F20201086820F48030F2
:1037D0000860086820F48020086020E02C98406889
:1037E000B0F5A02F0DD1FFE741F20001C4F20201B4
:1037F000086840F480200860086840F48030086061
:103800000CE041F20001C4F20201086820F48030AB
:103810000860086820F480200860FFE7FFE7FFE702
:10382000FFE741F22C01C4F20201086820F00F000A
:103830002C9A9268104308602C984068002842D067
:10384000FFE7FEF7CBFB2B90FFE7002038B9FFE73F
:1038500041F20000C4F202000068249020E0012040
:1038600038B9FFE741F22000C4F20200006823905B
:1038700013E0012038B9FFE741F20400C4F202006E
:103880000068229006E041F22400C4F202000068C1
:103890002290FFE722982390FFE723982490FFE7E8
:1038A0002498800300280DD4FFE7FEF797FB2B999F
:1038B000401A652805D3FFE703208DF8B70000F014
:1038C00036BCC2E740E0FEF789FB2B90FFE7002003
:1038D00038B9FFE741F20000C4F20200006821900D
:1038E00020E0012038B9FFE741F22000C4F20200D5
:1038F0000068209013E0012038B9FFE741F204008E
:10390000C4F2020000681F9006E041F22400C4F2F5
:10391000020000681F90FFE71F982090FFE72098A3
:103920002190FFE72198800300280CD5FFE7FEF7E0
:1039300055FB2B99401A652804D3FFE703208DF827
:10394000B700F4E3C3E7FFE7FFE7FFE72C98007851
:103950008007002840F10381FFE741F20400C4F230
:103960000200006810F00C0F13D0FFE741F20400D2
:10397000C4F20200006800F00C00082850D1FFE7F4
:1039800041F20400C4F202000068C003002847D4DA
:10399000FFE7002038B9FFE741F20000C4F202005F
:1039A00000681E9020E0012038B9FFE741F22000B6
:1039B000C4F2020000681D9013E0012038B9FFE74F
:1039C00041F20400C4F2020000681C9006E041F2DB
:1039D0002400C4F2020000681C90FFE71C981D90B0
:1039E000FFE71D981E90FFE71E988007002809D565
:1039F000FFE72C980069012804D0FFE701208DF82B
:103A0000B70094E341F20001C4F20201086820F01B
:103A1000F8002C9A526940EAC2000860FFE79DE076
:103A20002C980069002852D0FFE70021C4F24221FF
:103A300001200860FEF7D2FA2B90FFE7002038B98A
:103A4000FFE741F20000C4F2020000681B9020E092
:103A5000012038B9FFE741F22000C4F202000068FB
:103A60001A9013E0012038B9FFE741F20400C4F2D4
:103A700002000068199006E041F22400C4F202003E
:103A800000681990FFE719981A90FFE71A981B90A1
:103A9000FFE71B98800700280CD4FFE7FEF79EFA8B
:103AA0002B99401A032804D3FFE703208DF8B700B1
:103AB0003DE3C3E741F20001C4F20201086820F0CF
:103AC000F8002C9A526940EAC200086045E00021E3
:103AD000C4F2422100200860FEF780FA2B90FFE735
:103AE000002038B9FFE741F20000C4F2020000688C
:103AF000189020E0012038B9FFE741F22000C4F21D
:103B000002000068179013E0012038B9FFE741F286
:103B10000400C4F202000068169006E041F224009E
:103B2000C4F2020000681690FFE716981790FFE7AE
:103B300017981890FFE71898800700280CD5FFE722
:103B4000FEF74CFA2B99401A032804D3FFE7032011
:103B50008DF8B700EBE2C3E7FFE7FFE7FFE72C983C
:103B600000780007002840F19580FFE72C988069D5
:103B7000002847D0FFE740F28041C4F242210120F3
:103B80000860FEF72BFA2B90FFE7012038B9FFE71A
:103B900041F20000C4F202000068159020E001200C
:103BA00038B9FFE741F22000C4F202000068149027
:103BB00013E0012038B9FFE741F20400C4F202002B
:103BC0000068139006E041F22400C4F2020000688D
:103BD0001390FFE713981490FFE714981590FFE7F0
:103BE0001598800700280CD4FFE7FEF7F7F92B990A
:103BF000401A032804D3FFE703208DF8B70096E2AC
:103C0000C3E746E040F28041C4F242210020086050
:103C1000FEF7E4F92B90FFE7012038B9FFE741F206
:103C20000000C4F202000068129020E0012038B9C0
:103C3000FFE741F22000C4F202000068119013E097
:103C4000012038B9FFE741F20400C4F20200006825
:103C5000109006E041F22400C4F2020000681090C7
:103C6000FFE710981190FFE711981290FFE7129864
:103C7000800700280CD5FFE7FEF7B0F92B99401A12
:103C8000032804D3FFE703208DF8B7004FE2C3E712
:103C9000FFE7FFE72C9800784007002840F12781D4
:103CA000FFE700208DF8A70041F21C00C4F20200DB
:103CB0000068C000002813D4FFE7FFE741F21C00B2
:103CC000C4F20200016841F080510160006800F018
:103CD000805028902898FFE701208DF8A700FFE783
:103CE00047F20000C4F200000068C005002822D49A
:103CF000FFE747F20001C4F20001086840F4807059
:103D00000860FEF76BF92B90FFE747F20000C4F262
:103D100000000068C00500280CD4FFE7FEF75EF93C
:103D20002B99401A652804D3FFE703208DF8B700CC
:103D3000FDE1EAE7FFE7FFE72C98C068012809D119
:103D4000FFE741F22001C4F20201086840F00100DF
:103D5000086031E02C98C06868B9FFE741F22001A3
:103D6000C4F20201086820F001000860086820F031
:103D7000040008601FE02C98C06805280DD1FFE7FB
:103D800041F22001C4F20201086840F0040008601A
:103D9000086840F0010008600CE041F22001C4F224
:103DA0000201086820F001000860086820F00400A3
:103DB0000860FFE7FFE7FFE7FFE72C98C0680028EF
:103DC00043D0FFE7FEF70AF92B90FFE7012038B94F
:103DD000FFE741F20000C4F2020000680F9020E00B
:103DE000002038B9FFE741F22000C4F20200006869
:103DF0000E9013E0012038B9FFE741F20400C4F24D
:103E0000020000680D9006E041F22400C4F20200B6
:103E100000680D90FFE70D980E90FFE70E980F9049
:103E2000FFE70F98800700280ED4FFE7FEF7D6F8CB
:103E30002B99401A41F28931884204D3FFE70320CD
:103E40008DF8B70073E1C1E742E0FEF7C7F82B90A9
:103E5000FFE7012038B9FFE741F20000C4F2020099
:103E600000680C9020E0002038B9FFE741F2200004
:103E7000C4F2020000680B9013E0012038B9FFE79C
:103E800041F20400C4F2020000680A9006E041F228
:103E90002400C4F2020000680A90FFE70A980B9021
:103EA000FFE70B980C90FFE70C98800700280ED5D1
:103EB000FFE7FEF793F82B99401A41F289318842C7
:103EC00004D3FFE703208DF8B70030E1C1E7FFE737
:103ED0009DF8A700012809D1FFE741F21C01C4F2B7
:103EE0000201086820F080500860FFE7FFE72C9887
:103EF000C069002800F01781FFE741F20400C4F216
:103F00000200006800F00C00082800F0E680FFE7DF
:103F10002C98C069022840F09980FFE76021C4F224
:103F2000422100200860FEF759F82B90FFE700209F
:103F300038B9FFE741F20000C4F2020000680990BE
:103F400020E0012038B9FFE741F22000C4F202006E
:103F50000068089013E0012038B9FFE741F204003F
:103F6000C4F202000068079006E041F22400C4F2A7
:103F7000020000680790FFE707980890FFE708989D
:103F80000990FFE70998800100280CD5FFE7FEF7AC
:103F900025F82B99401A032804D3FFE703208DF856
:103FA000B700C4E0C3E741F20401C4F202010868AB
:103FB00020F474102C9A136A526A1A431043086052
:103FC0006021C4F2422101200860FEF707F82B901F
:103FD000FFE7002038B9FFE741F20000C4F2020019
:103FE0000068069020E0012038B9FFE741F2200088
:103FF000C4F202000068059013E0012038B9FFE721
:1040000041F20400C4F202000068049006E041F2AC
:104010002400C4F2020000680490FFE704980590B1
:10402000FFE705980690FFE70698800100280CD46A
:10403000FFE7FDF7D3FF2B99401A032804D3FFE7CE
:1040400003208DF8B70072E0C3E745E06021C4F2B9
:10405000422100200860FDF7C1FF2B90FFE7002000
:1040600038B9FFE741F20000C4F202000068039093
:1040700020E0012038B9FFE741F22000C4F202003D
:104080000068029013E0012038B9FFE741F2040014
:10409000C4F202000068019006E041F22400C4F27C
:1040A000020000680190FFE701980290FFE7029884
:1040B0000390FFE70398800100280CD5FFE7FDF788
:1040C0008DFF2B99401A032804D3FFE703208DF8B6
:1040D000B7002CE0C3E7FFE724E02C98C069012873
:1040E00004D1FFE701208DF8B70020E041F2040081
:1040F000C4F2020000682A902A9800F480302C99BB
:10410000096A884208D1FFE72A9800F470102C99B8
:10411000496A884204D0FFE701208DF8B70006E025
:10412000FFE7FFE7FFE700208DF8B700FFE79DF806
:10413000B7002EB080BD000080B582B0019001981C
:1041400001F07CFB02B080BD81B0009001B07047EF
:1041500081B0009001B0704781B0009001B070470D
:1041600080B582B00090009820B9FFE701208DF85B
:10417000070045E0009890F83D0040B9FFE700993E
:10418000002081F83C00009800F03EF8FFE700991D
:10419000022081F83D00009951F8040B01F0E4FB86
:1041A0000099012081F84800FFE70099012081F87B
:1041B0003E00009981F83F00009981F84000009985
:1041C00081F84100009981F84200009981F843008C
:1041D000FFE7FFE70099012081F84400009981F88A
:1041E0004500009981F84600009981F84700FFE7F3
:1041F0000099012081F83D0000208DF80700FFE7BD
:104200009DF8070002B080BD80B584B0039003988C
:10421000006844F60001C4F20101884219D1FFE7A9
:10422000FFE741F21800C4F20200016841F4802166
:104230000160006800F4802002900298FFE71A20D5
:10424000019000221146FEF7C9FE0198FEF7BCFE60
:10425000FFE704B080BD000083B00190019890F8A2
:104260003D00012804D0FFE701208DF80B004EE04F
:104270000199022081F83D0001980168C86840F06A
:104280000100C8600198006842F60041C4F20101D3
:10429000884218D0FFE701980068B0F1804F12D033
:1042A000FFE70198006840F20041C4F20001884233
:1042B00009D0FFE70198006844F20001C4F201014F
:1042C000884219D1FFE70198006880680721C0F291
:1042D000010108400090009806280CD0FFE70098E4
:1042E000B0F5803F07D0FFE701980168086840F00B
:1042F00001000860FFE706E001980168086840F0E7
:1043000001000860FFE700208DF80B00FFE79DF833
:104310000B0003B07047000081B0009001B07047FF
:1043200080B582B0019001980068006900F0020138
:104330000020B0EB510F28D0FFE701980068C0685B
:1043400000F002010020B0EB510F1DD0FFE70198F3
:1043500001686FF002000861019901200877019857
:1043600000688069800720B1FFE70198FFF7D4FF5C
:1043700006E0019800F02EF9019800F02FF9FFE710
:10438000019900200877FFE7FFE7019800680069BE
:1043900000F004010020B0EB910F29D0FFE7019855
:1043A0000068C06800F004010020B0EB910F1ED03F
:1043B000FFE7019801686FF004000861019902208D
:1043C000087701980068806910F4407F04D0FFE707
:1043D0000198FFF7A1FF06E0019800F0FBF80198B3
:1043E00000F0FCF8FFE7019900200877FFE7FFE7FE
:1043F00001980068006900F008010020B0EBD10FBF
:1044000028D0FFE701980068C06800F0080100208C
:10441000B0EBD10F1DD0FFE7019801686FF00800E5
:10442000086101990420087701980068C069800735
:1044300020B1FFE70198FFF76FFF06E0019800F059
:10444000C9F8019800F0CAF8FFE701990020087741
:10445000FFE7FFE701980068006900F01001002005
:10446000B0EB111F29D0FFE701980068C06800F089
:1044700010010020B0EB111F1ED0FFE7019801686A
:104480006FF0100008610199082008770198006812
:10449000C06910F4407F04D0FFE70198FFF73CFFAC
:1044A00006E0019800F096F8019800F097F8FFE711
:1044B000019900200877FFE7FFE70198006800698D
:1044C000C00780B1FFE701980068C068C00748B125
:1044D000FFE7019801686FF001000861019800F0A2
:1044E00081F8FFE7FFE7019800680069C1B200208A
:1044F000B0EBD11F13D0FFE701980068C068C1B2CC
:104500000020B0EBD11F09D0FFE7019801686FF0E0
:10451000800008610198FFF71BFEFFE7FFE70198A5
:104520000068006900F480710020B0EB112F13D0F7
:10453000FFE701980068C068C1B20020B0EBD11F4E
:1045400009D0FFE7019801686FF480700861019855
:10455000FFF7FAFDFFE7FFE701980068006900F048
:1045600040010020B0EB911F14D0FFE701980068D4
:10457000C06800F040010020B0EB911F09D0FFE7B8
:10458000019801686FF040000861019800F048F858
:10459000FFE7FFE701980068006900F020010020B4
:1045A000B0EB511F14D0FFE701980068C06800F01D
:1045B00020010020B0EB511F09D0FFE701980168EE
:1045C0006FF0200008610198FFF7C6FDFFE7FFE7E5
:1045D00002B080BD81B0009001B0704781B0009002
:1045E00001B0704780B582B00190019840F26C41F3
:1045F000C2F20001884211D1FFE740F24000C2F24E
:104600000000007848B9FFE702F000FC40F24001EA
:10461000C2F2000101200870FFE7FFE702B080BD91
:1046200081B0009001B0704780B582B000900098D2
:1046300020B9FFE701208DF8070044E00098806969
:1046400008B1FFE700E0FFE70098806F40B9FFE79F
:104650000099002081F87400009800F039F8FFE715
:1046600000992420886700980168086820F00100FC
:104670000860009801F006FB012804D1FFE7012043
:104680008DF807001FE00098406A20B1FFE700980E
:1046900001F002FAFFE700980168486820F49040B2
:1046A000486000980168886820F02A0088600098B7
:1046B0000168086840F001000860009801F090FA75
:1046C0008DF80700FFE79DF8070002B080BD0000ED
:1046D00080B588B007900020069005900490039064
:1046E00002900798006843F60001C4F20101884275
:1046F00030D1FFE7FFE741F21800C4F20200016881
:1047000041F480410160006800F48040019001980C
:10471000FFE7FFE741F21400C4F20200016841F430
:1047200080210160006800F4802000900098FFE77D
:10473000C0200290022003900020049003200590E6
:104740000720069040F20040C4F6000002A9FDF7E1
:1047500081FAFFE708B080BD83B002900191019813
:10476000009005283BD80099DFE801F00C151E27C2
:10477000300302980168D1F8840340F00100C1F8C9
:1047800084032DE002980168D1F8840340F0020010
:10479000C1F8840324E002980168D1F8840340F052
:1047A0000400C1F884031BE002980168D1F8840377
:1047B00040F00800C1F8840312E002980168D1F8C3
:1047C000840340F01000C1F8840309E002980168F6
:1047D000D1F8840340F02000C1F8840300E0FFE733
:1047E00003B0704783B0029001910298006800689E
:1047F0000090009820F007000090019881680098D0
:1048000008430090009820F0180000900198C168BB
:104810000098084300900098029909680860019880
:10482000006802990968486101984068029909681E
:10483000886103B07047000084B003900291039830
:1048400000680068019003980068D0F8A003009009
:10485000019820F0200001900298416901980843D6
:104860000190019820F400600190029881690198FC
:1048700008430190019820F4806001900298C1697A
:10488000019808430190019820F0C06001900298BF
:10489000016A019808430190019820F0006001909E
:1048A0000298416A019808430190019820F0404025
:1048B00001900298816A019840EA81000190019874
:1048C00020F0005001900298016B0198084301907C
:1048D000009820F4803000900298C16A0098084344
:1048E0000090019803990968086000980399096885
:1048F000C1F8A00304B0704788B0079006910592F4
:1049000004930020019007980068069900EBC110FD
:10491000D0F8E400039007980068069900EBC110F6
:10492000D0F8B800029005980090012826D0FFE743
:104930000098022835D0FFE7009804281ED0FFE732
:10494000009808282DD0FFE70098102816D0FFE720
:104950000098202825D0FFE7009840280ED0FFE7D8
:10496000009880281DD0FFE70098B0F5807F05D023
:10497000FFE70098B0F5007F13D027E00498406867
:1049800007990968069A01EBC211C1F8BC000498A6
:10499000806807990968069A01EBC211C1F8C00046
:1049A00015E00498406807990968069A01EBC2115E
:1049B000C1F8C4000498806807990968069A01EB59
:1049C000C211C1F8C8001020019000E0FFE7019972
:1049D000FE2000FA01F103988843039004980068D0
:1049E000019900FA01F10398084303900498C06804
:1049F000019900FA01F103980843039004980069B3
:104A0000019900FA01F10398084303900498406962
:104A1000019900FA01F10398084303900498806912
:104A2000019900FA01F10398084303900498006982
:104A3000082815D1FFE79DF80900800700280FD44A
:104A4000FFE79DF80B008007002809D4FFE70498D2
:104A5000C069019900FA01F1039808430390FFE748
:104A6000039807990968069A01EBC211C1F8E4009E
:104A700008B0704784B003900291019203980068D7
:104A8000029900EBC110D0F880000090009820F04F
:104A900007000090019881680098084300900098F2
:104AA00020F0180000900198C16800980843009019
:104AB000009803990968029A01EBC211C1F88000BD
:104AC0000198006803990968029A01EBC211C1F8C4
:104AD00094000198406803990968029A01EBC21199
:104AE000C1F8980004B0704789B008900791069209
:104AF00008980068079900EBC111D1F8800020F0F8
:104B00007040C1F8800008980068079900EBC11058
:104B1000D0F88000059008980068079900EBC11054
:104B2000D0F8E800049008980068079900EBC110DD
:104B3000D0F8E400039008980068D0F8A003019032
:104B4000059820F0200005900698416905980843D3
:104B50000590059820F400600590069881690598F5
:104B600008430590059820F4806005900698C16977
:104B7000059808430590059820F0C06005900698B8
:104B8000016A059808430590059820F0006005909B
:104B90000698416A059808430590059820F07040F2
:104BA00005900698816A059808430590059820F4B9
:104BB000003005900698006BB0F1005F05D1FFE76B
:104BC000059840F400300590FFE7059820F040007C
:104BD00005900698416B059808430590059820F4C8
:104BE000802005900698016D05980843059005986A
:104BF00020F0FC7005900698816C0598084305909C
:104C0000049820F01F0004900698806B00F01F01AC
:104C1000049808430490049820F0004004900698FB
:104C2000C16B0498084304900698406B50B9FFE7A5
:104C3000039820F4807003900698016C0398084351
:104C40000390FFE70698406CB0F5606F06D0FFE771
:104C50000698406CB0F5F05F05D1FFE70698406B11
:104C600040280AD1FFE7039820F4F05003900698FB
:104C7000416C039808430390FFE70698C06C0290CC
:104C80000798009004283CD80099DFE801F0030E53
:104C900019242F00019820F4003001900698C16A71
:104CA000019840EA410001902CE0019820F4802016
:104CB00001900698C16A019840EA8100019021E0C4
:104CC000019820F4002001900698C16A019840EAFA
:104CD000C100019016E0019820F480100190069820
:104CE000C16A019840EA011001900BE0019820F49C
:104CF000001001900698C16A019840EA41100190A5
:104D000000E0FFE7059808990968079A01EBC211CE
:104D1000C1F88000049808990968079A01EBC2114C
:104D2000C1F8E800039808990968079A01EBC211D5
:104D3000C1F8E400029808990968079A01EBC211CA
:104D4000C1F8D400019808990968C1F8A00309B016
:104D500070470000FFE7FEE780B58CB000210191AD
:104D60000B910A910991089107910691059104917F
:104D7000039140F2A810C2F2000002904FF0A0424E
:104D800002604160816001220261427680F8201059
:104D90004FF48062C2624FF4E0728262C160062208
:104DA000C26180F830100822426101764163FCF74D
:104DB000DDF818B1FFE7FBF753FDFFE7002009908E
:104DC00040F2A810C2F2000009A9FBF751FD18B18A
:104DD000FFE7FBF745FDFFE701200390049000206B
:104DE000069005900790089040F2A810C2F20000CB
:104DF00003A9FBF719FE18B1FFE7FBF731FDFFE749
:104E000002200390049040F2A810C2F2000003A90F
:104E1000FBF70AFE18B1FFE7FBF722FDFFE70320CF
:104E20000390049040F2A810C2F2000003A9FBF71F
:104E3000FBFD18B1FFE7FBF713FDFFE7042003902C
:104E4000049040F2A810C2F2000003A9FBF7ECFDA9
:104E500018B1FFE7FBF704FDFFE70B2003900520E7
:104E6000049040F2A810C2F2000003A9FBF7DCFD99
:104E700018B1FFE7FBF7F4FCFFE70C2003900620D6
:104E8000049040F2A810C2F2000003A9FBF7CCFD89
:104E900018B1FFE7FBF7E4FCFFE70CB080BD0000B2
:104EA00080B588B000210091079106910591049189
:104EB0000391029140F2F810C2F20000019040F21A
:104EC0000012C5F20002026041608160016141761A
:104ED00080F82010C16201228262C160C26180F844
:104EE00030100422426101764163FCF73FF818B1AB
:104EF000FFE7FBF7B5FCFFE70120029003900020DD
:104F0000059004900690079040F2F810C2F200005D
:104F100002A9FBF789FD18B1FFE7FBF7A1FCFFE74A
:104F200008B080BD80B582B040F24820C2F20000D7
:104F300001902021C4F20101016050214160002153
:104F400081602A22C260016181614162FCF792FBAB
:104F500018B1FFE7FBF784FCFFE702B080BD00005B
:104F600080B582B040F27820C2F20000019030217A
:104F7000C4F20101016050214160002181602A22B8
:104F8000C260016181614162FCF774FB18B1FFE707
:104F9000FBF766FCFFE702B080BD000080B584B07F
:104FA000002003900290019040F2A820C2F200007D
:104FB00047F20041C4F200010160FCF7BFFC18B1E8
:104FC000FFE7FBF74DFCFFE700200190039040F264
:104FD000A820C2F2000001A91022FCF737FC18B18A
:104FE000FFE7FBF73DFCFFE704B080BD80B584B070
:104FF000FFE741F21400C4F20200016841F0010130
:105000000160006800F0010003900398FFE70B20A7
:105010000090072100220192FDF7E0FF0098FDF7C4
:10502000D3FF019A0C2002901146FDF7D7FF02989A
:10503000FDF7CAFF04B080BD80B592B0002011908A
:1050400010900F900E900D90FFE741F21400C4F203
:105050000200016841F400210160006800F40020B2
:105060000C900C98FFE7FFE741F21400C4F2020035
:10507000016841F480010160006800F480000B9039
:105080000B98FFE7FFE741F21400C4F20200016849
:1050900041F400310160006800F400300A900A9881
:1050A000FFE7FFE741F21400C4F20200016841F497
:1050B00080210160006800F4802009900998FFE7D2
:1050C00040F60000C4F6000001904FF460410091EA
:1050D00000220692FCF76CFF069A4FF09040039076
:1050E00040210291FCF764FF069A40F20040C4F6AA
:1050F000000007904FF480710491FCF759FF009A6B
:10510000019806990D92012205920E920F9110912D
:105110000DA90891FCF79EFDDDF808C00398059BDA
:10512000069A0899CDF834C00E930F921092FCF7AE
:1051300091FDDDF810C0059B069A07980899CDF8F7
:1051400034C00E930F921092FCF784FD12B080BD14
:1051500080B5B4B0002004903390329031903090FC
:105160002F902E9019A85421FBF7F6F80498189068
:10517000179016900DA82421FBF7EEF804990C91D6
:105180000B910A910991089107910691059140F2BE
:105190004430C2F2000047F20042C4F20102026051
:1051A00041608160FDF7ACF818B1FFE7FBF758FBF1
:1051B000FFE740F24430C2F200000C21FCF7C0FFD0
:1051C00018B1FFE7FBF74CFBFFE740F24430C2F2B7
:1051D00000000A21FDF7DEF918B1FFE7FBF740FBFD
:1051E000FFE74FF4003032904FF08070339040F280
:1051F0004430C2F20000012132AAFCF7F5FE18B1DA
:10520000FFE7FBF72DFBFFE74FF4FA402E90FF205E
:105210002F90032030900820319040F24430C2F2A9
:10522000000005212EAAFDF7F3F918B1FFE7FBF7FF
:1052300017FBFFE70020039019901A901B901C9019
:1052400001211D911E901F90209021904FF0006130
:105250002291239024904FF00050259040F244304A
:10526000C2F20000052119AAFDF700FC18B1FFE702
:10527000FBF7F6FAFFE700212F9140F24430C2F22B
:1052800000002EAAFDF7C4F918B1FFE7FBF7E8FA12
:10529000FFE70021029119911A911B911C910120A5
:1052A0001D902691279128914FF4807029902A9182
:1052B0002B9110202C902D9140F24430C2F200002E
:1052C00019AAFDF7D3FB18B1FFE7FBF7C9FAFFE70F
:1052D00000201B901C9001211D9140F24430C2F22D
:1052E000000019AAFDF7C2FB18B1FFE7FBF7B8FAF7
:1052F000FFE700201B901C9001201D9040F24430DD
:10530000C2F20000022119AAFDF7B0FB18B1FFE7B5
:10531000FBF7A6FAFFE700201B901C9001211D91CE
:105320002A9040F24430C2F20000032119AAFDF78E
:105330009DFB18B1FFE7FBF793FAFFE741F28830D6
:10534000169040F24430C2F200000021012216AB58
:10535000FDF78CF918B1FFE7FBF782FAFFE742F29D
:105360001070169000211791189140F24430C2F24B
:105370000000022216ABFDF779F918B1FFE7FBF741
:105380006FFAFFE70020189040F24430C2F20000AC
:105390000121022216ABFDF769F918B1FFE7FBF70F
:1053A0005FFAFFE74FF6FB7016900020189040F26E
:1053B0004430C2F20000022216AB1146FDF756F946
:1053C00018B1FFE7FBF74CFAFFE742F210701690B6
:1053D0000020189040F24430C2F200000321022263
:1053E00016ABFDF743F918B1FFE7FBF739FAFFE712
:1053F00041F28830169040F24430C2F200000021A1
:10540000042216ABFDF732F918B1FFE7FBF728FAD3
:10541000FFE7002101910D914FF4FA700E900F916A
:1054200010911191129013911491159140F2443002
:10543000C2F200000DAAFCF7D9FE18B1FFE7FBF796
:105440000FFAFFE740F24430C2F2000001210DAA3A
:10545000FCF7CCFE18B1FFE7FBF702FAFFE740F2DA
:105460004430C2F2000002210DAAFCF7BFFE18B1C1
:10547000FFE7FBF7F5F9FFE740F24430C2F2000026
:1054800003210DAAFCF7B2FE18B1FFE7FBF7E8F91C
:10549000FFE7002105910820069010200790089151
:1054A00009910A910B910C9140F24430C2F2000034
:1054B000012205ABFDF76AFA18B1FFE7FBF7D0F957
:1054C000FFE740F24430C2F200000121042205ABA4
:1054D000FDF75CFA18B1FFE7FBF7C2F9FFE740F20E
:1054E0004430C2F200000221102205ABFDF74EFA53
:1054F00018B1FFE7FBF7B4F9FFE740F24430C2F21E
:1055000000000321402205ABFDF740FA18B1FFE788
:10551000FBF7A6F9FFE700210691079140F244301E
:10552000C2F20000022205ABFDF730FA18B1FFE726
:10553000FBF796F9FFE740F24430C2F20000012188
:10554000082205ABFDF722FA18B1FFE7FBF788F94F
:10555000FFE740F24430C2F200000221202205ABF6
:10556000FDF714FA18B1FFE7FBF77AF9FFE740F20D
:105570004430C2F200000321802205ABFDF706FA99
:1055800018B1FFE7FBF76CF9FFE740F24430C2F2D5
:10559000000001212EAAFDF73BF818B1FFE7FBF749
:1055A0005FF9FFE740F24430C2F20000012216AB7F
:1055B0001146FDF75BF818B1FFE7FBF751F9FFE77C
:1055C00040F24430C2F2000002212EAAFDF720F87A
:1055D00018B1FFE7FBF744F9FFE742F210701690AD
:1055E00040F24430C2F200000221012216ABFDF766
:1055F0003DF818B1FFE7FBF733F9FFE740F244301D
:10560000C2F2000003212EAAFDF702F818B1FFE74D
:10561000FBF726F9FFE741F28830169040F244305C
:10562000C2F200000321012216ABFDF71FF818B1EA
:10563000FFE7FBF715F9FFE740F24430C2F2000044
:10564000FCF74AFF34B080BD80B582B040F2204004
:10565000C2F20000019045F20041C4F20001016075
:1056600041F63F61C0F210014160002181600122DA
:10567000C260016141618161C1610162FDF70AFBA4
:1056800018B1FFE7FBF7ECF8FFE740F22040C2F269
:1056900000000021FDF760FA18B1FFE7FBF7E0F822
:1056A000FFE740F22040C2F200000021FDF7A0FA1F
:1056B00018B1FFE7FBF7D4F8FFE702B080BD0000A8
:1056C00080B582B040F26C40C2F20000019044F616
:1056D0000001C4F2010101601321416000218160D9
:1056E000C722C260016141618161FEF739FD18B1D5
:1056F000FFE7FBF7B5F8FFE702B080BD80B582B0E9
:1057000040F2B840C2F20000019043F60001C4F23A
:10571000010101604FF41641416000218160C160C8
:1057200001610C2242618161C16101624162FEF747
:105730007BFF18B1FFE7FBF793F8FFE702B080BDEE
:10574000FFE7FEE7FFE7FEE788B0079006910592C6
:10575000079800F0070004900498C0F1070005289E
:1057600003D3FFE70420019004E00498C0F1070090
:105770000190FFE70198039004980430062803D8AD
:10578000FFE70020009003E0049803380090FFE753
:105790000098029006980399012202FA01F101395A
:1057A0000840029B984005999A40013A11400843ED
:1057B00008B0704786B005908DF8131003928DEDF8
:1057C000020ACDED010A059818B1FFE7039808B960
:1057D000FFE72CE09DF81300059908700398006816
:1057E0000599486003984068059988600398806827
:1057F0000599C86002980599086101980599486162
:10580000059900200090886305994863059908630D
:10581000059908620599C8620599886205994862E8
:1058200005994864059908640599C863FFE706B0BF
:1058300070470000704700007047000080B582B0DC
:10584000009000980138B0F1807F03D3FFE701207A
:10585000019019E0009801384EF21401CEF20001D7
:1058600008604FF0FF300F2100F0EAFB4EF2180104
:10587000CEF20001002008604EF21002CEF20002CB
:10588000072111600190FFE7019802B080BD000080
:1058900080B5FDF71BFB80BD80B598B00EA80090C9
:1058A0002821FAF759FD0098002201920D920C92DE
:1058B0000B920A920992089207920692059204921C
:1058C0000392029203210E914FF480310F911092B6
:1058D00001221292102213920222159216914FF475
:1058E000E0111791FDF7F0FE18B1FFE7FAF7B8FFE6
:1058F000FFE70F20099002210A9100200B904FF43E
:1059000080620C920D9009A8FDF7CCFC18B1FFE75E
:10591000FAF7A6FFFFE744F2A100029000200490EE
:105920004FF48071069105904FF48050089002A8C2
:10593000FDF776FB18B1FFE7FAF792FFFFE718B023
:1059400080BD00004EF68851CEF20001086840F498
:10595000700008607047000080B540F26C40C2F2F1
:105960000000FEF7DDFC80BD83B00290019102983B
:1059700000680090029842F60041C4F2010188429A
:105980000DD0FFE70298B0F1804F08D0FFE70298F2
:1059900040F20041C4F2000188420AD1FFE70098BA
:1059A00020F0700000900198416800980843009032
:1059B000FFE7029842F60041C4F20101884225D077
:1059C000FFE70298B0F1804F20D0FFE7029840F245
:1059D0000041C4F20001884218D0FFE7029844F267
:1059E0000001C4F20101884210D0FFE7029844F29E
:1059F0000041C4F20101884208D0FFE7029844F652
:105A00000001C4F2010188420AD1FFE7009820F4A6
:105A1000407000900198C168009808430090FFE72B
:105A2000009820F08000019949690843009000988F
:105A300002990860019880680299C862019800681C
:105A400002998862029842F60041C4F2010188423C
:105A500018D0FFE7029844F20001C4F20101884225
:105A600010D0FFE7029844F20041C4F201018842DD
:105A700008D0FFE7029844F60001C4F20101884211
:105A800005D1FFE70198006902990863FFE70299D1
:105A90000120486103B0704781B00090009890F8F1
:105AA0002400C00758B1FFE700980068406820F460
:105AB0000030009A1168926A10434860FFE700982E
:105AC00090F82400800700280BD5FFE700980068B5
:105AD000406820F48030009A1168D26A1043486010
