:020000040800F2
:10000000800B0020E102000891700008A164000844
:100010008D700008FD190008F57D00080000000043
:10002000000000000000000000000000257600082D
:10003000B51A000800000000217600088576000847
:10004000FB020008FB020008FB020008FB0200089C
:10005000FB020008FB020008FB020008FB0200088C
:10006000FB020008FB020008FB020008011A00085E
:10007000FB020008FB020008FB020008FB0200086C
:10008000FB020008FB020008FB020008FB0200085C
:10009000FB020008FB020008FB020008FB0200084C
:1000A000FB020008FB02000855770008FB0200086D
:1000B000FB020008FB02000800000000FB02000831
:1000C000FB0200080000000000000000FB02000826
:1000D00000000000FB020008FB020008FB02000811
:1000E000FB020008FB020008000000000000000006
:1000F0000000000000000000000000000000000000
:1001000000000000000000000000000000000000EF
:100110000000000000000000FB020008FB020008D5
:1001200000000000000000000000000000000000CF
:1001300000000000000000000000000000000000BF
:10014000FB020008FB02000800000000FB020008A0
:10015000FB020008FB020008FB020008FB0200088B
:10016000FB020008FB020008000000000000000085
:10017000000000000000000000000000000000007F
:1001800000000000FB02000800F002F800F096F802
:100190000AA090E8000C82448344AAF10107DA45E2
:1001A00001D100F08BF8AFF2090EBAE80F0013F09E
:1001B000010F18BFFB1A43F001031847E8A4000021
:1001C00008A50000103A24BF78C878C1FAD85207B1
:1001D00024BF30C830C144BF04680C6070470000C1
:1001E0000023002400250026103A28BF78C1FBD840
:1001F000520728BF30C148BF0B6070476E2900F01E
:100200000F82702900F05183662909F0F98465296D
:1002100009F0F684672909F0F384612909F0F28472
:1002200003681B0A28BF41F08001692900F0BC81E6
:10023000642900F0B981752900F0B6816F2900F0BA
:10024000DF82782900F01D83E92900F07982E42912
:1002500000F07682F52900F07382EF2900F0DC824D
:10026000F82900F01C830368DB0928BF41F08001F6
:10027000632901F02180732901F02680E32901F030
:100280003180F32901F03680002070471FB509F056
:10029000AAFC01F089F804000020002108F0C2FF48
:1002A000401C60600020002108F0A6FFE0600FBC49
:1002B00000F014F80FB41FBD10B510BD01F046F8E2
:1002C0001146FFF7E3FF07F051FE01F023F903B4F5
:1002D000FFF7F2FF03BC01F069F9000001F09EB9DD
:1002E0000948804709480047FEE7FEE7FEE7FEE7CA
:1002F000FEE7FEE7FEE7FEE7FEE7FEE70448054906
:10030000054A064B70470000417700088901000844
:1003100080050020800B002080070020800700203F
:1003200053EA020C00F069802DE9F04B4FF0000613
:10033000002B1FBFB3FA83F503FA05F424FA05F680
:100340005E4012BF1643B2FA82F502FA05F4C5F117
:1003500020051EBF22FA05FC44EA0C04203556EAAB
:10036000044C4FEA144418BF641C4FF000084FF0CF
:100370000009904271EB030C39D3002919BFB1FA7F
:1003800081F701FA07F6B0FA80F700FA07F6C7F12D
:1003900020071EBF20FA07FC46EA0C062037B6FBF2
:1003A000F4FCA7EB0507103F07F01F0BCBF120066D
:1003B0002CFA06F60CFA0BFB44BFB3460026202F9E
:1003C000A4BF5E464FF0000B5BEA060C08BF4FF07F
:1003D000010B19EB0B0948EB0608ABFB027C06FB93
:1003E00002CC0BFB03CCC01B71EB0C01C1E70B462D
:1003F000024641464846BDE8F08B13B54FF0000079
:100400004FF00001AFF30080BDE81C4070470000D2
:100410001CB50C46064B7B4469460090204600F014
:1004200018F904460020694600F026F920461CBD54
:100430005F0200004FF000020429C0F0128010F0AB
:10044000030C00F01B80CCF1040CBCF1020F18BFB0
:1004500000F8012BA8BF20F8022BA1EB0C0100F043
:100460000DB85FEAC17C24BF00F8012B00F8012B16
:1004700048BF00F8012B70474FF0000200B513464B
:1004800094469646203922BFA0E80C50A0E80C50B4
:10049000B1F12001BFF4F7AF090728BFA0E80C5065
:1004A00048BF0CC05DF804EB890028BF40F8042B5E
:1004B00008BF704748BF20F8022B11F0804F18BFCB
:1004C00000F8012B704770477047704710B500F077
:1004D000BBFA006810BD10B5044600F0B5FA046020
:1004E00010BD70B5044685690068C10601D5302687
:1004F00000E02026C00707D070BDD4E901213046B6
:100500009047206A401C20626D1EF6D570BD70B504
:10051000044685690078C00707D170BDD4E9012180
:1005200020209047206A401C20626D1EF6D570BDC9
:1005300009684A0501D540B27047C905FCD500B22B
:10054000704709684A0501D5C0B27047C905FCD596
:1005500080B2704770B50C460546012A05D0287850
:10056000800600D5EA69002302E0012305E05B1C58
:10057000934202D2E05C0028F9D1A869E618C01ABB
:10058000A861286A184428622846FFF7AAFF04E0F9
:10059000D5E9012114F8010B9047B442F8D328465D
:1005A000FFF7B5FF70BD00002DE9F04106460024BD
:1005B00010687529314616A510D0FFF7B9FF00283D
:1005C00002DA404213A507E031688A0701D512A577
:1005D00002E0490704D511A5012401E0FFF7B1FFAE
:1005E00000210A2206F1240709E0B0FBF2FCB0FB6F
:1005F000F2F302FB1C00303078541846491C0028E6
:10060000F3D123462A463046BDE8F04100F065BAF2
:10061000000000002D0000002B0000002000000062
:1006200011680268006A530501D508700AE0D30515
:1006300001D5088006E0130603D5C217C1E9000200
:1006400000E008600120704701694A1C02610878D7
:10065000704700B58FB0CDE9013100210591054902
:100660007944CDE903101146684600F029F90FB02E
:1006700000BD0000E5FFFFFF0A6802F8010B0A60F9
:10068000704700002DE9FF5F15468A460446DFF8F3
:10069000AC80F8440027D8E900103E46CDE90010B0
:1006A00010E05AF826106A4602A800F027FE411C06
:1006B00007D02178890603D5E269391891420DD80F
:1006C0000744761C2078800602D5E069B84205DD33
:1006D000AE42E6DB5AF826000028E2D1A069C01B32
:1006E000A0612046FFF7FDFED8E90010CDE900101B
:1006F000002017E05AF828106A4602A800F0FEFD14
:10070000B0F1FF3F81460BD000250DF1080B05E04D
:10071000D4E901211BF8050090476D1C4D45F7D326
:1007200008F10100B0428046E4DB206A38442062D0
:100730002046FFF7ECFEBDE8FF9F00007295000029
:100740002DE9F0418046D21D22F007020025D2E9B2
:100750000002F52915A614D0011E72F1000106DA77
:100760000023D0EB030063EB020211A608E0D8F8E7
:1007700000108B0701D50FA602E0490701D50EA690
:1007800001251146002408F1240704E000F060F977
:1007900030323A55641C50EA0102F7D12B463246FA
:1007A00021464046BDE8F04100F097B90000000046
:1007B0002D0000002B0000002000000030B40021BC
:1007C00000F1240408E002F00705D208303542EABF
:1007D0004372DB086554491C52EA0305F3D10468EF
:1007E000002310A2250708D504F020040C4304D0F0
:1007F000C46901230CA2641EC46130BC00F06DB951
:1008000010B5044621461068FFF79BFE02462046BD
:10081000BDE810400023D1E7D21D22F00701D1E945
:100820000023CBE70000000030000000F0B40D46CC
:100830000188090502D5214C7C4402E01F4C7C4410
:100840000E34002100F1240608E002F00F0712091F
:10085000E75D42EA03721B097754491C52EA030719
:10086000F3D102780023120704D5702D06D009B108
:10087000022311342246F0BC00F02FB901231034BA
:10088000F8E770B504460D4621461068FFF759FE9B
:10089000024629462046BDE870400023C6E7D21D27
:1008A00022F00703D3E90023C0E70368126843F08E
:1008B000200303600823C3610023B7E7D49300003B
:1008C0002DE9F05F894604464FF0000ADFF874B165
:1008D000FB44C0F820A02046E1688847002874D077
:1008E000252806D0D4E901219047206A401C2062C7
:1008F000F1E700265F462046E16888472028054644
:1009000007DB312D05D2781910F8200C08B1064309
:10091000F1E7B00701D526F00406C4F81CA00027B3
:10092000C4F818A02A2D09D0284608F051FC38B385
:1009300004EB8708303DC8F8185019E059F8041B3B
:10094000204604EB87029161E1688847012F054644
:1009500018D1E069002820DA26F020061DE0D8F83A
:10096000180000EB800005EB40003038C8F8180094
:100970002046E1688847054608F02AFC0028EED1A9
:10098000012F0AD02E2D08D12046E16888477F1C10
:100990000546022F46F02006C4DBA069002803DAD2
:1009A000404246F00106A061F00701D026F0100693
:1009B0006C2D0BD0682D09D04C2D39D06A2D35D037
:1009C000742D35D07A2D33D016E038E0E1682F460B
:1009D00020468847B842054609D16C2F26D04FF4EF
:1009E0008060E168064320468847054604E06C2F96
:1009F0001AD04FF4807006430DB3A5F141001928B9
:100A000002D8203546F400664A462946204626602C
:100A10004E46FFF7F3FB80B101280BD0F61D26F000
:100A2000070000F1080956E74020E4E78020D8E7F6
:100A30000020D6E706F104094DE7284652E7206A70
:100A4000BDE8F09F64930000004870471800002044
:100A500030B5B0F10A0271F100034FEA900E4EEA90
:100A6000817EB0EB0E0061EB91014FEA101E4EEA61
:100A7000017E10EB0E0041EB11114FEA102E4EEAF1
:100A8000016E10EB0E0041EB11214FEA104E4EEAC1
:100A9000014E10EB0E0041EB1141401841F10001F5
:100AA0004FEAD00040EA41704FEAD1014FEA810499
:100AB00044EA907410EB800544EB01046D1944EB9B
:100AC0000404521BA3414FF0000348BF0A3200D573
:100AD00030BD401C41F1000130BD2DE9F0470D460D
:100AE00099469246044600F124080168880604D518
:100AF000E06921F01001216000E00120A84201DD41
:100B0000471B00E00027A1697A1902EB0900081AC7
:100B1000A0612078C00602D42046FFF7E2FC002640
:100B200008E0D4E901211AF806009047206A401C29
:100B3000761C20624E45F4DB2078C0060AD520469C
:100B4000FFF7CFFC06E0D4E9012130209047206A6E
:100B5000401C2062381EA7F10107F4DC07E0D4E94D
:100B6000012118F805009047206A401C2062281EC9
:100B7000A5F10105F3DC2046FFF7C9FC207800064B
:100B800002D50220BDE8F0870120FBE72DE9FF4FE9
:100B90000C461E464FF0FF378BB0D2E90001DDF85E
:100BA00060800A908A46C1F30A5505B93D46002186
:100BB00008464FF00000BAF1000F00F4400005DADB
:100BC00000EB80004FF4400101EA50004FEA9059D9
:100BD000B9F1010F00DDB9460A9850EA4A000ED07B
:100BE00044F61050A5F2FF3545432F14B8F1000F1D
:100BF0001ED07542291E1EDDC9F100021CE0B8F1AD
:100C0000010F4FF0000001D0302103E0F24305E076
:100C10002154401CB042FBDB30460022002121540D
:100C20000B99C1F80880C1E900200FB0BDE8F08F32
:100C3000BD1B6D1CDEE74A4600DA694206A800F0DB
:100C4000F7FB06AB93E8070003AB83E807005046C9
:100C50000A9907F062FA8DE80700A0F500501F38E6
:100C600000900398002D0ADD42F21F014A46084415
:100C7000002303A90390684607F0CBFC09E0A0F528
:100C800000504A461F38002303A90390684607F026
:100C9000D5FC8DE807000004000C03D04FF0FF30B6
:100CA000410800E01046B8F1000F03D00022009286
:100CB00015461EE0751E05D4FFF7CAFE3032625598
:100CC0006D1EF9D5B3460122084302D000227F1CD5
:100CD00004E02078302801D100227F1E002A0997E5
:100CE00084D01DE0112D07DAFFF7B2FE30326255D5
:100CF0006D1C50EA0102F5D1084302D00098C8B13A
:100D00000EE00021681E05E0235C625C63542254FF
:100D1000401E491C8142F7DBAB46A81B401E0990D0
:100D2000002004F80B000B98099AC0F80880C0E96D
:100D3000002B7AE711264FF0000857E72DE9F04F16
:100D400088460446D21D22F0070191B0D1E9000186
:100D5000CDE90A0107F0A9FD02460B98C00F01D0AA
:100D60002D2007E02068810701D52B2002E02021FB
:100D700001EAC000032A099001D0072A05DB0346D7
:100D80004146204600F014FB0BE12078800601D597
:100D9000E06900E00620B8F1650F814606D0B8F1A1
:100DA000660F18D0B8F1670F70D131E00020B9F1AB
:100DB000110F009001DB112301E009F101030AAAE0
:100DC00001A90CA8FFF7E2FEDDE90C70002609F18D
:100DD0000105834647E001204B4600904FF0004755
:100DE0000AAA01A90CA8FFF7D1FEDDE90DB00C9904
:100DF0005D46002610B909F101000D18B9EB050098
:100E000003D4C0F1FF3609F10105A5EB09002BE081
:100E1000B9F1010F01DA4FF001090020B9F1110F0A
:100E20000090484601DD112300E003460AAA01A90B
:100E30000CA8FFF7ABFEDDE90C704D46002683469B
:100E4000207800070AD4AB4500DA5D4601A8012DE1
:100E500004DD411911F8011C302907D04F4502DA91
:100E600017F1040F04DA012082460FE06D1EEEE751
:100E7000002F02DCED1B3E4403E0781CA84200DD9D
:100E80007D1CB81B00F1010A4FF0004720780007D5
:100E900003D4AA4501DB4FF0FF3A0021B7F1004F20
:100EA0000DF143088DF8431024D002202B23002F8E
:100EB00001DA7F422D230A21021EA0F1010000DC8D
:100EC0005FB197FBF1FC97FBF1F201FB1C7C17462D
:100ED0000CF1300C08F801CDEEE7A8F10100037029
:100EE0002188090501D5452100E06521A0F101080F
:100EF00000F8011C09980FA9A1EB0807FF1D00B11C
:100F00000120411901EBEA70A1693844081A401E1A
:100F1000A0612078C00602D42046FFF7E2FA0998C3
:100F200028B1D4E901219047206A401C2062207832
:100F3000C00622D52046FFF7D4FA1EE0002E04DBBF
:100F4000B34502DD01A8805D00E03020D4E9012135
:100F50009047206A401C2062761CAAF101005FEADB
:100F6000000A0AD100F020FAC0680168405CD4E9A8
:100F700001219047206A401C2062281EA5F101052E
:100F8000DCDC07E0D4E9012118F8010B9047206A66
:100F9000401C2062381EA7F10107F3DC2046FFF752
:100FA000B6FA032011B041E62DE9F04F04460D4694
:100FB000D21D22F0070089B0D0E900974846394693
:100FC00007F073FC0246F80F01D02D2307E02068DC
:100FD000810701D52B2302E0202101EAC0038DF80F
:100FE00020300BB1012000E00020032A824601D00E
:100FF000072A04DB2946204600F0DAF93FE1207891
:10100000800601D40D2500E0E569C7F30A560D2DD1
:1010100049DA00214FEA175B08464FF00000002F25
:1010200000F4400007DA00EB80004FF4400100EBD1
:10103000D07001EA60008115012901DD4FF0FF3118
:1010400000224FEA850CBCF1180F06D31346ACF111
:1010500018004FF08052C24003E04FF4801323FA8F
:101060000CF30CF10C0CBCF1200F04D3ACF1200CF0
:1010700009FA0CF001E007FA0CF000294FF00048E3
:1010800001DD18B90FE00ED140450CD319EB020970
:101090005F4121B9404502D19F4329EA0209BBEBD8
:1010A000175F00D0761C2088000502D57B48784465
:1010B00002E07A487844193808AA302302F80A3046
:1010C000037C0AF10101002E0AF1020A53546A4618
:1010D00002DC4FF0300101E04FF031014FF0010828
:1010E0008DF8001002D0A6F2FF3603E059EA47015E
:1010F00000D06B4E002D02DC2178090704D54FF09B
:1011000002082E218DF80110C44600210BE0C7F320
:1011100003433F01C35C491C6D1E02F808300529DA
:1011200008F1010801DA002DF1DC00210CE000EBF0
:101130001973491C1B786D1E082902F808304FEA04
:10114000091908F1010801DA002DF0DC21688B068D
:1011500002D516E0A8F10108E04505DD02EB080321
:1011600013F8013C302BF5D0B8F1000F09DD02EB8C
:10117000080313F8013C2E2B03D1090701D4A8F171
:101180000108002D05DD3E2102F808106D1E08F152
:101190000108407C002E02F8080008F1010804DA7A
:1011A0002D20764202F8080002E02B2002F8080009
:1011B0000A214FF47A70864208F101080BDB96FB96
:1011C000F0F3303302F8083096FBF0F308F1010831
:1011D00000FB136601E0642E0CDB642096FBF0F349
:1011E000303302F8083096FBF0F308F1010800FBF9
:1011F000136601E00A2E06DB96FBF1F0303002F8B0
:10120000080008F1010896FBF1F001FB1060303096
:1012100002F80800A16908F1010808EB050202EBD9
:101220000A00081AA0612078C00602D42046FFF701
:1012300058F9216A08AE01EB0A00206204E0D4E903
:10124000012116F8010B9047BAF1010AF7D2207874
:10125000C00602D52046FFF744F96E4609E016F8AD
:10126000010B3E280FD0D4E901219047206A401C91
:101270002062B8F10108F2D22046FFF748F909B020
:101280000320BDE8F08F206A2844206203E0D4E9FF
:101290000121302090476D1EEBD3F8E7D18C000080
:1012A00002FCFFFF10B5436913B1AFF3008001E00A
:1012B000FFF750F9012010BD127800F124010A70E7
:1012C00000224A700122EDE711684FF0FF32E9E792
:1012D00010B5436913B1AFF3008001E0FFF7D2F915
:1012E000012010BD126800F12401426200228262D6
:1012F0000122EDE711684FF0FF32E9E72DE9F041F7
:1013000016460C46054600F047F8036893F80101BD
:10131000012807D0FF2C12D8185D80B101202C7055
:10132000BDE8F081D3F807013246214603F20713E6
:10133000C7182846BC46BDE8F041012360474FF07E
:10134000FF30EDE700487047180000207546FFF7B2
:10135000F9FFAE4605006946534620F00700854672
:1013600018B020B5FEF7CAFFBDE820404FF00006D8
:101370004FF000074FF000084FF0000BAC46ACE810
:10138000C009ACE8C009ACE8C009ACE8C00921F06C
:1013900007018D467047000010B500F005F8001DEC
:1013A00010BD00BF817E000000487047380000205B
:1013B0002DE9F0411F46044603260168072A01F47F
:1013C000006004DB08B116A505E016A503E008B12E
:1013D00015A500E015A521F010002060A069C01E31
:1013E000A0610FB1401EA0612046FFF77AF84FB10F
:1013F000D4E9012138469047206A401C2062C01C75
:10140000206206E0206AFAE7D4E9012115F8010B11
:101410009047761EF8D22046FFF779F8BDE8F081B4
:101420004E414E006E616E00494E4600696E660088
:101430002DE9F047814616468AB0354878440DC8F4
:101440008DE80D0032487844801C03AC0DC884E858
:101450000D0041F69B300844372190FBF1F290FBE0
:10146000F1F5A5F1800501FB12041B3C02D5644295
:10147000012000E00020DFF898A080460027FA4411
:10148000AAF1BE0A0EE0E0070AD03246684607EB32
:10149000470101230AEB810107F0D0F88DE807002E
:1014A00064107F1C002CEED1194F7F44AE3F19E031
:1014B000E80715D007EB04100DF1180A90E80E00AC
:1014C0008AE80E00C068F04201D1981908903246AF
:1014D000012306A903A807F0B1F803AB83E80700CE
:1014E0006D10641C002DE3D14FF0010332466946B4
:1014F000B8F1000F03A802D007F08BF801E007F065
:101500009DF8C9E90001C9F808200AB0BDE8F087D4
:10151000D489000010B50446AFF300802046BDE832
:101520001040FEF7D4BE002801D000F03FB870474D
:1015300030B44FF0013C50F8042B51F8043BCCFA86
:1015400052F4D51A20D1FCB950F8042B51F8043BC1
:10155000CCFA52F4D51A17D1B4B950F8042B51F87B
:10156000043BCCFA52F4D51A0ED16CB950F8042BC6
:1015700051F8043BCCFA52F4D51A05D1002CDAD03C
:1015800030BC4FF00000704729BAB1FA81F111F078
:101590001801D1F120008440F2D1CA40CB4012F0B2
:1015A000FF0213F0FF0330BCD01A70470149182026
:1015B000ABBEFEE72600020070B505460C460A20C9
:1015C00000E06D1C00F011F835B128780028F8D142
:1015D00002E0641C00F009F814B120780028F8D16A
:1015E000BDE870400A20AFF3008008B569468DF869
:1015F00000000320ABBE08BD70470246C91C21F0A5
:101600000301D2E900031B1A8B4201D2002070476C
:101610000144C91D21F00701116070472DE9F34F06
:1016200083B000274FF48074BA4603A821468DF892
:101630000070FFF7E2FF5FEA000801D100F0AAF8AE
:101640002146404600F070F8060009D04FF0010B2B
:101650004546C14616F8014B8FB15C2C16D01CE0F4
:1016600008F108004146C8F800000020C8F804004E
:10167000D8F800402070012005B0BDE8F08F222C82
:1016800001D0272C0FD12746BA462CE030782228EB
:1016900007D05C2805D0272803D0BC4203D10027FF
:1016A00021E0761C04464CB12FB9202C06D0A4F1C1
:1016B0000900042802D905F8014BCBE74D4502D1BA
:1016C000BAF1000F0FD052464946002005F8010B31
:1016D0006846AFF300809DF8000070B14D464FF0B2
:1016E000000A0BF1010B002CB4D14FEA8B0103A8C7
:1016F000FFF783FF040002D004E0A946EFE70020D3
:1017000000F048F800204246C4F8008005E012F8D6
:10171000011B11B9401C44F82020AA42F7D3002134
:1017200044F820102146A7E71CB50446CDE9000186
:1017300069461520ABBE08B100201CBD20461CBD6B
:101740007047704710B5012805D0002103A0FFF7AE
:1017500033FF012010BD09A1F8E7000053494752AB
:10176000544D454D3A204F7574206F662068656171
:1017700070206D656D6F7279000000003A20486539
:101780006170206D656D6F727920636F7272757014
:101790007465640010B5FFF7D5FFBDE81040FFF792
:1017A000C2BE000080B584B0014603900398806AF1
:1017B00002900298406C10F0500F019127D1FFE782
:1017C0000298416C41F40071416402980068C0685D
:1017D00010F4406F17D1FFE70298C069002812D1BA
:1017E000FFE70298416C21F4807141640298406CDB
:1017F000C004002806D4FFE70298416C41F00101C3
:101800004164FFE7FFE7029800F0D2FC08E002988D
:10181000C06B406B03990090084600998847FFE72A
:1018200004B080BD80B584B0014603900398806AFF
:1018300002900298426C42F0400242640298826C2C
:1018400042F0040282640298019100F079FD04B034
:1018500080BD000080B584B0014603900398806A83
:1018600002900298019100F065FD04B080BD000077
:1018700080B586B00146049000200390049A126857
:10188000926802F00302012A0291019005D1FFE75C
:101890000498006800680190FFE70198C0070028DD
:1018A00045D0FFE704980068806800F00D0001282B
:1018B0000DD1FFE7FFE704980068816841F002015D
:1018C00081600498006803210160FFE70CE0049840
:1018D000416C41F0100141640498816C41F00101B8
:1018E00081640120059025E001F082FB0390FFE771
:1018F000049800688068C007002817D0FFE701F04F
:1019000077FBDDF80CE0A0EB0E0003280DD3FFE71A
:101910000498416C41F0100141640498816C41F0DD
:10192000010181640120059004E0E1E7FFE7002068
:101930000590FFE7059806B080BD000080B586B031
:101940000146049000200390049A1268926802F005
:101950000302012A0291019005D1FFE70498006873
:1019600000680190FFE70198C00700283FD1FFE71A
:101970000498006880683F21C8F2000108420DD039
:10198000FFE70498416C41F0100141640498816CB8
:1019900041F001018164012005902BE0049800686A
:1019A000816841F00101816001F022FB0390FFE7B3
:1019B000049800680068C007002817D1FFE701F00D
:1019C00017FBDDF80CE0A0EB0E0003280DD3FFE7BA
:1019D0000498416C41F0100141640498816C41F01D
:1019E000010181640120059004E0E1E7FFE70020A8
:1019F0000590FFE7059806B080BD0000FFE7FEE711
:101A000080B540F21820C2F2000000F0BDFF80BD9A
:101A100083B001460290029802684FF6F873CBF645
:101A2000FD731A444CF6CD43CCF6CC43A2FB032302
:101A30006FF0030C0CEA9303436402980023C4F292
:101A4000020303640191009203B07047B0B588B0FF
:101A50009C4696460C4605460790069105920493CF
:101A60000798016C406C012202FA00F0486004986B
:101A7000079909684860079840681028CDF80CC09D
:101A8000CDF808E00194009509D1FFE70598079982
:101A900009688860069807990968C86008E0069890
:101AA000079909688860059807990968C860FFE781
:101AB00008B0B0BD7047000081B0EFF3108072B67F
:101AC0000090FFE7FEE70000A0B00A4603461E9024
:101AD0001D9100201C901D98006800280592049319
:101AE00001D0FFE7FFE71E980068B0F1A04F06D1D4
:101AF000FFE740F20010C5F20000069003E04FF04F
:101B0000A0400690FFE70698002803D1FFE70120D8
:101B10001F90B1E0FFE71E98006C012803D1FFE79A
:101B200002201F90A8E01E9801210164FFE7FFE753
:101B30001E980068806800F004000021B1EB900F4F
:101B400040F08A80FFE70698806800F004000021DA
:101B5000B1EB900F40F08080FFE740F20030C5F21B
:101B600000001B901D980068002841D0FFE71B98DB
:101B7000806820F460401D9949681E9A526B41EAC2
:101B8000423108431B9988601E980068806800F005
:101B9000030000210128039105D1FFE71E9800688A
:101BA00000680390FFE70398C00700281FD1FFE7F4
:101BB0000698806800F0030000210128029104D1FA
:101BC000FFE7069800680290FFE70298C007002828
:101BD0000DD1FFE71B98806840F61F7188431D995F
:101BE0000A688968114308431B998860FFE732E05F
:101BF0001B98816821F4604181601E9800688068AC
:101C000000F0030000210128019105D1FFE71E9893
:101C1000006800680190FFE70198C007002819D10B
:101C2000FFE70698806800F003000021012800917A
:101C300004D1FFE7069800680090FFE70098C0070E
:101C4000002807D1FFE71B98816840F61F72914377
:101C50008160FFE7FFE707E01E98416C41F020013B
:101C6000416401201C90FFE7FFE71E9800210164FA
:101C7000FFE71C981F90FFE71F9820B070470000F7
:101C8000A3B00A4603462190209100201F900790A0
:101C90002098C06801280692059301D0FFE700E074
:101CA000FFE7FFE72198006C012803D1FFE702203E
:101CB00022907AE2219801210164FFE7FFE7219851
:101CC0000068806800F004000021B1EB900F40F044
:101CD0005C82FFE720984068042813D8FFE721982A
:101CE0000068006B20990A68496801EB41014900CE
:101CF0001F238B40984302FA01F108432199096898
:101D000008634DE020984068092816D8FFE721981D
:101D10000068406B20990A68496801EB41016FF047
:101D20001D0303EB41011F238B40984302FA01F18D
:101D3000084321990968486331E0209840680E28DB
:101D400016D8FFE721980068806B20990A684968D7
:101D500001EB41016FF03B0303EB41011F238B407B
:101D6000984302FA01F1084321990968886315E054
:101D700021980068C06B20990A68496801EB41010D
:101D80006FF0590303EB41011F238B40984302FA84
:101D900001F1084321990968C863FFE7FFE7FFE7FE
:101DA00021980068806810F00C0F40F0D980FFE7A0
:101DB000209800680A2812D3FFE7219800688069FC
:101DC00020990A68896802EB42021E3A0723934071
:101DD00098439140084321990968886110E021984F
:101DE0000068406920990A68896802EB420207236B
:101DF0009340984391400843219909684861FFE75F
:101E00002098406921990968C96801F0180189087A
:101E10008840089020980069013801460328049101
:101E200054D80499DFE801F002162A3E2198006890
:101E3000006E4FF20001C0F2FF310840209909689E
:101E4000089A42EA8161084340F0004021990968FC
:101E5000086684E021980068406E4FF20001C0F2ED
:101E6000FF31084020990968089A42EA81610843D5
:101E700040F0004021990968486670E021980068A8
:101E8000806E4FF20001C0F2FF31084020990968CE
:101E9000089A42EA8161084340F0004021990968AC
:101EA00088665CE021980068C06E4FF20001C0F2C5
:101EB000FF31084020990968089A42EA8161084385
:101EC00040F0004021990968C86648E02198006800
:101ED000006E00F0F84020990968B0EB816F07D1DF
:101EE000FFE721980068016E21F000410166FFE7DD
:101EF00021980068406E00F0F84020990968B0EB26
:101F0000816F07D1FFE721980068416E21F0004101
:101F10004166FFE721980068806E00F0F840209944
:101F20000968B0EB816F07D1FFE721980068816EE7
:101F300021F000418166FFE721980068C06E00F043
:101F4000F84020990968B0EB816F07D1FFE721982D
:101F50000068C16E21F00041C166FFE7FFE7FFE7BF
:101F600021980068806800F0030000210128039197
:101F700005D1FFE72198006800680390FFE7039808
:101F8000C007002840F00081FFE72098C0680128C2
:101F90000ED0FFE720980068012101FA00F0219996
:101FA0000968D1F8B02022EA0000C1F8B00035E09D
:101FB00020980068012101FA00F021990968D1F800
:101FC000B0201043C1F8B000209800680A2812D34E
:101FD000FFE721980068806920990A68896802EB08
:101FE00042021B3A072393409843914008432199AA
:101FF0000968886111E021980068406920990A68A1
:10200000896802EB420203320723934098439140D0
:102010000843219909684861FFE7FFE740F2003073
:10202000C5F200001E9020980068102806D1FFE736
:102030001E9880680002002818D5FFE720980068E5
:10204000112806D1FFE71E988068C00100280DD531
:10205000FFE720980068122840F09580FFE71E985F
:1020600080684002002800F18E80FFE72198006818
:10207000B0F1A04F06D1FFE740F20010C5F200001A
:10208000099003E04FF0A0400990FFE72198006815
:10209000806800F0030000210128029105D1FFE7CC
:1020A0002198006800680290FFE70298C0070028A6
:1020B00060D1FFE70998002812D0FFE709988068EF
:1020C00000F0030000210128019104D1FFE70998E5
:1020D00000680190FFE70198C00700284AD1FFE798
:1020E00020980068102826D1FFE721980068B0F1F9
:1020F000A04F20D1FFE71E98816841F40001816064
:1021000040F20400C2F2000000684DF68361C4F2A0
:102110001B31A0FB0101890C01EB810149000791F2
:102120000090FFE70798002804D0FFE707980138E0
:102130000790F7E71DE02098006811280CD1FFE711
:1021400021980068B0F1A04F06D1FFE71E98816882
:1021500041F0807181600BE020980068122806D160
:10216000FFE71E98816841F480018160FFE7FFE787
:10217000FFE707E02198416C41F020014164012014
:102180001F90FFE7FFE7FFE707E02198416C41F070
:102190002001416401201F90FFE7FFE72198002103
:1021A0000164FFE71F982290FFE7229823B0704751
:1021B00080B586B001460590059840F2C412C2F27F
:1021C00000029042029140F0AF80FFE70020ADF89E
:1021D0001000FFE7BDF81000022863DCFFE70020D5
:1021E000ADF81200FFE7BDF8120013281BDCFFE773
:1021F000BDF8120000EB400140F27A02C2F2000288
:1022000002EB8101BDF8102031F8121040F2984223
:10221000C2F2000222F81010FFE7BDF812000130F0
:10222000ADF81200DFE740F29840C2F2000014213E
:1022300005F044FE0220ADF8120000200390FFE7F5
:10224000BDF81200112812DCFFE7BDF8120040F2C1
:102250009841C2F2000131F810000399084403903C
:10226000FFE7BDF812000130ADF81200E8E79DED80
:10227000030AB8EE400AB3EE001A80EE010ABDEE82
:10228000C00A10EE100ABDF8101040F26A12C2F235
:10229000000222F81100FFE7BDF810000130ADF890
:1022A000100097E740F26A10C2F20000018800EEC9
:1022B000101AB8EEC00A9FED1D1A20EE010A9FED1C
:1022C0001C2A30EE020A40F23451C2F2000181EDC4
:1022D000000A418800EE101AB8EEC00A20EE010A8A
:1022E00030EE020A40F23051C2F2000181ED000AE4
:1022F000808800EE100AB8EEC00A20EE010A30EE27
:10230000020A40F27810C2F2000080ED000A40F2AA
:10231000C410C2F2000040F27A01C2F20001782239
:1023200000F03CFA0190FFE706B080BDDDB5043C4B
:102330004BEA143F82B001460190009102B0704711
:1023400082B001460190009102B0704780B5A0B004
:1023500001461E9000201D90069005901E980028B2
:10236000049103D1FFE701201F908CE11E980069C2
:10237000002807D0FFE71E98406A002801D0FFE739
:10238000FFE7FFE71E98406CC006002876D4FFE701
:102390001E98406C002852D1FFE71E9800218164EE
:1023A0001E9801651E98C1641E9801641E9800F075
:1023B0006DF91E9800688068C00000283ED4FFE7D1
:1023C0001E98FFF755FA1D901E98406CC006002815
:1023D00033D4FFE71D9800282FD1FFE71E98406CEB
:1023E00040F0020020F488501E9948641E9800684E
:1023F000816821F0405181601E980068816841F039
:102400008051816040F20400C2F2000000684DF685
:102410008361C4F21B31A0FB0101890C01EB810136
:10242000490005910390FFE70598002804D0FFE7D5
:10243000059801380590F7E7FFE7FFE7FFE71E98EB
:1024400000688068C000002807D5FFE71E98006874
:1024500080688000002810D5FFE71E98406C40F08F
:10246000100020F002001E9948641E98816C41F013
:102470000101816401201D90FFE7FFE71E98406C79
:10248000C006002800F1F180FFE71D98002840F009
:10249000EC80FFE71E980068806800F004000021CF
:1024A000B1EB900F40F0E180FFE71E98406C40F0E8
:1024B000020020F480701E99486440F20030C5F29A
:1024C00000001C901E980068B0F1A04F06D1FFE7F5
:1024D00040F20010C5F20000079003E04FF0A0406A
:1024E0000790FFE71E980068806800F00300002155
:1024F0000128029105D1FFE71E980068006802904C
:10250000FFE70298C007002820D1FFE707980028BE
:1025100012D0FFE70798806800F00300002101282F
:10252000019104D1FFE7079800680190FFE7019847
:10253000C00700280AD1FFE71C98806820F44030CB
:102540001E99496808431C998860FFE71E988168B6
:10255000C268C369806B5B0303F5805C012818BF08
:10256000634643EA020040EA0100069940EA01009E
:1025700006901E98406A012821D1FFE71E98C06985
:1025800000280DD1FFE71E98806A0021CFF6FE716A
:1025900001EB40400699084340F4803006900DE07E
:1025A0001E98406C40F0200020F002001E99486404
:1025B0001E98816C41F001018164FFE7FFE71E98DE
:1025C000C06A012808D0FFE71E98C16A006B084363
:1025D000069908430690FFE71E980068806810F08F
:1025E0000C0F11D1FFE71E980068C16844F2020287
:1025F0009143C1601E988169406B890341EA4000A4
:10260000069908430690FFE71E980068C0684CF2E0
:102610000701CFF6F0710840069908431E99096832
:10262000C8601E98006901280CD1FFE71E98006859
:10263000006B20F00F001E990A68096A01390843EF
:10264000106306E01E980068016B21F00F01016322
:10265000FFE71E98002181641E98406C40F0010045
:1026600020F002001E9948640AE01E98406C40F079
:10267000100020F002001E99486401201D90FFE721
:102680001D981F90FFE71F9820B080BD80B590B0C7
:1026900001460F9000200E900D900C900B900A9028
:1026A0000F980068B0F1A04F069174D1FFE7FFE7E3
:1026B00041F21400C4F20200016841F0805101604F
:1026C000006800F08050099009980590FFE7FFE747
:1026D00041F21400C4F20200016841F400310160CB
:1026E000006800F40030089008980490FFE7FFE7C6
:1026F00041F21400C4F20200016841F4802101603B
:10270000006800F48020079007980390FFE70F20EF
:102710000A9003200B9000210C914FF090420AABDD
:102720000290104601911946009300F09FFA02981A
:102730000A900B9001990C9140F20040C4F6000001
:10274000009900F093FA40F21820C2F2000008212C
:10275000C4F2020101600199416081608022C2607F
:102760004FF4807202614FF4806242618161C16105
:1027700000F0ACF9002803D0FFE7FFF79DF9FFE771
:10278000FFE70F9840F21821C2F20001C1630F98D1
:102790008862FFE7FFE710B080BD000080B58AB017
:1027A00013468C46864608900791069200200590B5
:1027B00008990968896801F00401B0EB910F04934E
:1027C000CDF80CC0CDF808E040F0D480FFE7FFE77B
:1027D0000898006C012803D1FFE702200990CFE0A0
:1027E000089801210164FFE7FFE740F20830C5F2D5
:1027F00000000068C006002840F0B380FFE708989A
:10280000FFF79CF805900598002840F0A380FFE7AB
:102810000898406C40F4807040F601618843089944
:10282000486440F20830C5F200000068C006002885
:1028300006D0FFE708980068B0F1A04F16D1FFE777
:102840000898416C21F48011416408980068C068C0
:102850008001002809D5FFE70898406C40F48050BB
:1028600020F4005008994864FFE729E00898416C7B
:1028700041F48011416408980068B0F1A04F09D07C
:10288000FFE70898006840F20011C5F20001884295
:1028900008D1FFE70C20C5F2000000688001002885
:1028A00004D40CE00120002809D1FFE70898406C0F
:1028B00040F4805020F4005008994864FFE7FFE797
:1028C0000898406CC004002806D5FFE70898816C82
:1028D00021F00601816403E0089800218164FFE78C
:1028E000FFE7089800210164FFE70898C06B41F2F8
:1028F000A571C0F60001C1620898C06B41F6550190
:10290000C0F6000101630898C06B41F62501C0F6CE
:1029100000014163089800681C2101600898006864
:10292000416841F01001416008980068C16841F0B9
:102930000101C16008980168C06B4031079A069B8D
:1029400000F006F9089909688A6842F004028A6072
:10295000019005E0FFE7089800210164FFE7FFE729
:1029600007E001200590FFE7089800210164FFE7D8
:10297000FFE702E002200590FFE705980990FFE7D6
:1029800009980AB080BD000080B584B0014603906C
:102990000398006C0068029003980068006801903A
:1029A0000298039A526C042303FA02F21042009137
:1029B00024D0FFE70198400700281FD5FFE70398C0
:1029C000006800688006002807D4FFE703980068C5
:1029D000016821F004010160FFE70398016C406C7D
:1029E000042202FA00F048600398006B002804D02B
:1029F000FFE70398016B8847FFE764E002980399BB
:102A0000496C022202FA01F108422CD0FFE701983A
:102A10008007002827D5FFE7039800680068800634
:102A200000280AD4FFE703980068016821F00A0132
:102A30000160039801214162FFE70398016C406C3B
:102A4000022202FA00F04860FFE7039800210162C9
:102A5000FFE70398C06A002804D0FFE70398C16A23
:102A60008847FFE72EE002980399496C082202FA92
:102A700001F1084225D0FFE701980007002820D582
:102A8000FFE703980068016821F00E0101600398D8
:102A9000016C406C012202FA00F048600398C263A6
:102AA00003984262FFE7039800210162FFE7039861
:102AB000406B002804D0FFE70398416B8847FFE78D
:102AC000FFE7FFE7FFE704B080BD000080B584B0FA
:102AD000014602900020019002980028009103D145
:102AE000FFE7012003902FE0029802214162029843
:102AF000006800680190019843F6F07188430190E6
:102B0000029841688268C368D0F810C01143194325
:102B100041EA0C014269114382691143C0690843CB
:102B20000199084301900198029909680860029888
:102B3000FEF76EFF02980021C163029801224262F3
:102B4000029801620391FFE7039804B080BD000082
:102B5000B0B58AB09C4696460C460546089007914B
:102B60000692059300200490CDF80CC0CDF808E043
:102B700001940095FFE70898006A012803D1FFE758
:102B80000220099046E0089801210162FFE7FFE773
:102B90000898406A012832D1FFE708980221416273
:102BA00008980021C16308980068016821F00101BC
:102BB000016008980799069A059BFEF747FF089859
:102BC000006B002807D0FFE708980068016841F013
:102BD0000E0101600CE008980068016841F00A01EC
:102BE000016008980068016821F004010160FFE7B6
:102BF00008980068016841F00101016007E0FFE703
:102C0000089800210162FFE702200490FFE7049882
:102C10000990FFE709980AB0B0BD000080B584B004
:102C200001460390009100F0E3F9029003980190AF
:102C300001980130002809D0FFE740F20C00C2F2F1
:102C400000000068019908440190FFE7FFE700F0E9
:102C5000CFF9DDF808E0A0EB0E00DDF804E07045E8
:102C600001D2FFE7F3E704B080BD00008CB00A4654
:102C700003460B900A910020099005920493FFE708
:102C80000A9800680999C840002800F09181FFE780
:102C90000A9800680999012202FA01F10840089097
:102CA0000898002800F08081FFE70A984068012812
:102CB0000FD0FFE70A98406802280AD0FFE70A9879
:102CC0004068112805D0FFE70A98406812282FD1E4
:102CD000FFE70B988068079009984000032101FAEC
:102CE00000F0079921EA000007900A98C068099946
:102CF0004900884007990843079007980B99886016
:102D00000B98406807900998012101FA00F0079993
:102D100021EA000007900A984068C0F30010099962
:102D2000884007990843079007980B994860FFE788
:102D30000B98C068079009984000032101FA00F041
:102D4000079921EA000007900A98806809994900CC
:102D5000884007990843079007980B99C8600A981C
:102D60004068022805D0FFE70A984068122826D15B
:102D7000FFE70B9809996FF0030202EA510108443A
:102D8000006A0790099800F0070080000F2101FAFF
:102D900000F0079921EA000007900A980069099954
:102DA00001F00701890088400799084307900798B8
:102DB0000B99099B02EA530211440862FFE70B9842
:102DC0000068079009984000032101FA00F0079974
:102DD00021EA000007900A98406800F00300099972
:102DE0004900884007990843079007980B990860A5
:102DF0000A984068C000002840F1D580FFE7FFE74F
:102E000041F21800C4F20200016841F001010160C2
:102E1000006800F00100069006980390FFE709980B
:102E200020F003000821C4F20101405807900998DE
:102E300000F0030080000F2101FA00F0079921EA59
:102E4000000007900B98B0F1904F03D1FFE70020EE
:102E5000029026E00B9840F20041C4F6000188423F
:102E600003D1FFE70120019018E00B9840F6000124
:102E7000C4F60001884203D1FFE7022000900AE077
:102E80000B9840F60041C4F600010522884208BFB5
:102E900003220092FFE700980190FFE7019802905B
:102EA000FFE70298099901F003018900884007991A
:102EB000084307900798099921F003010822C4F2FA
:102EC0000102885040F20040C4F2010000680790FF
:102ED0000898079921EA000007900A984068C00303
:102EE000002805D5FFE70898079908430790FFE7F2
:102EF000079840F20041C4F20101086040F204402A
:102F0000C4F20100006807900898079921EA0000C0
:102F100007900A9840688003002805D5FFE70898C5
:102F2000079908430790FFE7079840F20441C4F26D
:102F30000101086040F20840C4F2010000680790F7
:102F40000898079921EA000007900A984068C00293
:102F5000002805D5FFE70898079908430790FFE781
:102F6000079840F20841C4F20101086040F20C40A9
:102F7000C4F20100006807900898079921EA000050
:102F800007900A9840688002002805D5FFE7089856
:102F9000079908430790FFE7079840F20C41C4F2F5
:102FA00001010860FFE7FFE709980130099067E633
:102FB0000CB0704780B586B013468C4686460590A7
:102FC000ADF812100392039800280293CDF804C0C4
:102FD000CDF800E005D0FFE7BDF812000599886143
:102FE00004E0BDF8120005998862FFE706B080BDD5
:102FF00040F22C50C2F200000068704780B589B0E2
:1030000013468C4686460790069105920798D0F89D
:10301000C40002280393CDF808C0CDF804E003D122
:10302000FFE70220089096E0FFE70798D0F8C0007D
:10303000012803D1FFE7022008908CE007980121C6
:10304000C0F8C010FFE7FFE707980221C0F8C410DE
:1030500007980068D0F8800304900698013801466C
:103060000728009151D80099DFE801F004164F2994
:103070004F4F4F3C049820F4E020049005980068DE
:1030800000F4E020049908430490059840680799EB
:103090000968C1F8BC0343E0049820F46010049070
:1030A0000598006800F4E020049941EAC00004900B
:1030B0000598406807990968C1F8C00330E0049892
:1030C00020F0E07004900598006800F4E020049976
:1030D00041EA801004900598406807990968C1F892
:1030E000C4031DE0049820F0606004900598006817
:1030F00000F4E020049941EA4020049005984068DB
:1031000007990968C1F8C8030AE007980721C0F8C1
:10311000C410FFE707980021C0F8C010FFE7FFE7E1
:103120000798D0F8C400072803D1FFE701200890D2
:1031300011E0049807990968C1F8800307980121F4
:10314000C0F8C410FFE707980021C0F8C010FFE7DF
:1031500000200890FFE7089809B080BD85B00A46B6
:1031600003460390029101920093FFE70398D0F881
:10317000C000012803D1FFE70220049043E0039838
:103180000121C0F8C010FFE7FFE703980221C0F853
:10319000C41002980130002811D1FFE7039800689D
:1031A000D0F8CC1321F00201C0F8CC1303980068CA
:1031B000D0F8CC1341F00101C0F8CC131CE0039807
:1031C0000068D0F8CC1341F00201C0F8CC1303988A
:1031D0000068D0F8CC0320F00C0002990843039952
:1031E0000968C1F8CC0303980068D0F8CC1341F00B
:1031F0000101C0F8CC13FFE703980121C0F8C41007
:1032000000200490FFE7049805B0704780B588B0AF
:1032100013468C4686460690059104920698D0F88F
:10322000C40002280293CDF804C0CDF800E003D119
:10323000FFE70220079075E0FFE70698D0F8C0008E
:10324000012803D1FFE7022007906BE006980121D7
:10325000C0F8C010FFE7FFE706980221C0F8C410CD
:103260000498006800F4E0500390049840686FF3FD
:103270005F200399084303900498806800F400706D
:103280000399084303900498006900F4804003996F
:10329000084303900498C06800F400400399084371
:1032A0000390049840690021C0F2FF1101EA004038
:1032B0000399084303900498806900F00070039913
:1032C000084303900498006A00F080400399084383
:1032D00003900498C06900F00040039908430390EC
:1032E00006980068059900EBC110D0F8B80042F2CA
:1032F0000001C3F600410840039908430699096894
:10330000059A01EBC211C1F8B80006980121C0F876
:10331000C410FFE706980021C0F8C010FFE70020A6
:103320000790FFE7079808B080BD000080B588B01F
:103330000146069006980028029103D1FFE701207C
:103340000790C0E006980221C0F8C410069800213A
:10335000C0F8C8100698C0F8CC100698C0F8D01075
:103360000698C0F8D4100698C0F8D8100698C0F88F
:10337000DC100698007AC007002839D0FFE70698CD
:10338000006847F20041C4F20101884211D1FFE711
:10339000FFE741F21800C4F20200016841F0005159
:1033A0000160006800F00050039003980190FFE76F
:1033B000FFE70698006800680490049820F44040F5
:1033C00004900698006900F4404004990843049072
:1033D000049820F4405004900698406900F440504E
:1033E0000499084304900498069909680860FFE767
:1033F000069800F06BF80698007A8007002814D52C
:10340000FFE70698006800680490049820F4407074
:1034100004900698C06800F4407004990843049032
:103420000498069909680860FFE706980121C0F82A
:10343000C410FFE706980021C0F8C010FFE7002085
:103440008DF81700FFE79DF81700052838D8FFE72B
:1034500006989DF81710C1EBC10100EB8100002117
:10346000816106989DF81720C2EBC20200EB820032
:10347000C16106989DF81720C2EBC20200EB8200E2
:10348000016206989DF81720C2EBC20200EB820091
:10349000416206989DF81720C2EBC20200EB820041
:1034A000816206989DF81720C2EBC20200EB8200F1
:1034B0000163FFE79DF8170001308DF81700C2E7A0
:1034C00000200790FFE7079808B080BD84B0014650
:1034D00003900398006847F20042C4F20102904250
:1034E000019111D1FFE7FFE741F21800C4F2020099
:1034F000016841F000510160006800F00050029046
:1035000002980090FFE7FFE704B0704780B590B0E5
:1035100001460F9000200E900D900C900B900A9099
:103520000F98006847F20042C4F2010290420791EE
:103530004CD1FFE7FFE741F21400C4F2020001683A
:1035400041F480210160006800F48020099009980E
:103550000690FFE7FFE741F21400C4F202000168A1
:1035600041F400310160006800F4003008900898D0
:103570000590FFE74FF470400A9002200B90002165
:103580000C9103220D920D230E9340F2004CC4F6D1
:10359000000C0DF1280E04906046039171460292D2
:1035A0000193CDF800E0FFF761FB4FF470600A90E3
:1035B00004980B9003990C91029A0D92019B0E9323
:1035C0004FF090400099FFF751FBFFE710B080BD2E
:1035D00080B586B00A460346049003910192009399
:1035E000FFF706FD0290FFE704980068D0F8880313
:1035F00000F480300021B1EB104F1DD1FFE703989C
:103600000130002817D0FFE7FFF7F2FCDDF808E0F3
:10361000A0EB0E00DDF80CE0704504D8FFE703983E
:10362000002807D1FFE704980721C0F8C410032041
:1036300005900EE0FFE7D7E704980121C0F8C41019
:10364000FFE704980021C0F8C010FFE700200590B4
:10365000FFE7059806B080BD80B588B013468C465C
:1036600086460690059104920698D0F8C400022878
:103670000393CDF808C0CDF804E003D1FFE70220A2
:10368000079019E006980221C0F8C4100598052893
:1036900005D1FFE70698049902F028FC05E006989A
:1036A0000599049A02F078FDFFE706980121C0F819
:1036B000C41000200790FFE7079808B080BD000005
:1036C000B0B58BB09C4696460C46054609900891CD
:1036D000079206930998D0F8C4000228CDF814C0C8
:1036E000CDF810E00394029503D1FFE702200A9081
:1036F0004AE1FFE70998D0F8C000012803D1FFE7AD
:1037000002200A9040E109980121C0F8C010FFE7AB
:10371000FFE709980221C0F8C410089805283AD19B
:10372000FFE7079801380146072801911ED8019943
:10373000DFE801F0040A1C101C1C1C160698006827
:1037400009990968C8611CE0069800680999096828
:10375000486216E00698006809990968886210E0D6
:103760000698006809990968C8620AE00998072163
:10377000C0F8C410FFE709980021C0F8C010FFE7A7
:10378000FFE70998D0F8C400072803D1FFE701201C
:103790000A90F9E0EBE0079801380146072800910C
:1037A00000F2D0800099DFE801F0040ECD68CDCDA5
:1037B000CD720698006809990968089A01EBC21150
:1037C000C1F89C00C9E00698006809990968089A40
:1037D00001EBC211C1F8A4000698406800283AD055
:1037E000FFE709980068089900EBC110D0F8801035
:1037F00021F44051C0F88010069840680999096882
:10380000089A01EBC211D1F880201043C1F8800062
:1038100006984068B0F5005F0AD1FFE70698806817
:1038200009990968089A01EBC211C1F89C0011E0DE
:1038300006984068B0F5405F0AD1FFE706988068B7
:1038400009990968089A01EBC211C1F8A80000E0C3
:10385000FFE7FFE710E009980068089900EBC11046
:10386000D0F8800020F4405009990968089A01EBCB
:10387000C211C1F88000FFE76FE00698006809995F
:103880000968089A01EBC211C1F8A80065E0069822
:10389000006809990968089A01EBC211C1F8AC00E7
:1038A0000698406800283BD0FFE70998006808990F
:1038B00000EBC110D0F8801021F44041C0F8801016
:1038C0000698406809990968089A01EBC211D1F875
:1038D000802042EA8000C1F8800006984068B0F578
:1038E000005F0AD1FFE70698806809990968089A7D
:1038F00001EBC211C1F89C0011E006984068B0F5D8
:10390000405F0AD1FFE70698806809990968089A1C
:1039100001EBC211C1F8A80000E0FFE7FFE710E0EB
:1039200009980068089900EBC110D0F8800020F4D5
:10393000404009990968089A01EBC211C1F880005A
:10394000FFE70AE009980721C0F8C410FFE70998CB
:103950000021C0F8C010FFE7FFE70998D0F8C400C5
:10396000072803D1FFE701200A900DE0FFE709983F
:103970000121C0F8C410FFE709980021C0F8C01069
:10398000FFE700200A90FFE70A980BB0B0BD0000E7
:1039900085B00A4603460390029101920093FFE727
:1039A0000398D0F8C000012803D1FFE7022004905B
:1039B0001CE003980121C0F8C010FFE7FFE703985F
:1039C0000221C0F8C4100298039909680A681043DC
:1039D000086003980121C0F8C410FFE70398002194
:1039E000C0F8C010FFE700200490FFE7049805B07E
:1039F00070470000B0B58AB09C4696460C46054616
:103A000008900791069205930898D0F8C400022800
:103A1000CDF810C0CDF80CE00294019503D1FFE77A
:103A20000220099026E0FFE70898D0F8C00001289E
:103A300003D1FFE7022009901CE008980121C0F89B
:103A4000C010FFE7FFE708980221C0F8C4100898EB
:103A50000799069A059B02F0DBFA08980121C0F845
:103A6000C410FFE708980021C0F8C010FFE700204D
:103A70000990FFE709980AB0B0BD000085B00A467A
:103A800003460390029101920093FFE70398D0F858
:103A9000C000012803D1FFE7022004901EE0039834
:103AA0000121C0F8C010FFE7FFE703980221C0F82A
:103AB000C410029803990968D1F894231043C1F8FF
:103AC000940303980121C0F8C410FFE70398002174
:103AD000C0F8C010FFE700200490FFE7049805B08D
:103AE0007047000080B588B013468C468646069025
:103AF000059104920698D0F8C40002280393CDF8EB
:103B000008C0CDF804E003D1FFE70220079060E091
:103B1000FFE70698D0F8C000012803D1FFE7022094
:103B2000079056E006980121C0F8C010FFE7FFE7B4
:103B300006980221C0F8C4100598052805D1FFE7B2
:103B40000698049902F000FA05E006980599049A8F
:103B500002F066FBFFE7049800680699059AC2EB3D
:103B6000C20201EB82010862049840680699059A36
:103B7000C2EBC20201EB8201486204988068069998
:103B8000059AC2EBC20201EB820188620498C06808
:103B90000699059AC2EBC20201EB8201C862049841
:103BA00000690699059AC2EBC20201EB8201086323
:103BB0000698059902F050F906980121C0F8C41042
:103BC000FFE706980021C0F8C010FFE7002007902B
:103BD000FFE7079808B080BD85B00A46034603900A
:103BE00002910398406C20280192009334D1FFE7A2
:103BF000FFE70398006C012803D1FFE7022004903F
:103C00002DE0039801210164FFE7FFE703982421D9
:103C1000416403980068016821F001010160039884
:103C20000068016821F480510160029803990968D5
:103C30000A681043086003980068016841F00101B8
:103C40000160039820214164FFE70398002101648B
:103C5000FFE70020049002E002200490FFE70498B0
:103C600005B0704786B00A46034604900391049855
:103C7000406C20280192009339D1FFE7FFE70498B8
:103C8000006C012803D1FFE70220059032E0049880
:103C900001210164FFE7FFE70498242141640498AF
:103CA0000068016821F00101016004980068006863
:103CB0000290029820F4706002900398029941EA01
:103CC000002002900298049909680860049800682E
:103CD000016841F001010160049820214164FFE77F
:103CE000049800210164FFE70020059002E0022013
:103CF0000590FFE7059806B07047000080B584B0D6
:103D00000146029002980028019103D1FFE70120AB
:103D100003906EE00298406C002807D1FFE70298FC
:103D200000210164029800F079F9FFE7029824214C
:103D3000416402980068016821F001010160029865
:103D40000168406820F0706008610298006881682E
:103D500021F4004181600298C068012807D1FFE783
:103D600002980168806840F40040886006E002988C
:103D70000168806840F404408860FFE70298C068EA
:103D8000022806D1FFE7029800684FF40061416005
:103D9000FFE702980068416848F20002C0F2002282
:103DA0001143416002980068C16821F40041C1607C
:103DB000029801680269436980691A4342EA002057
:103DC000C86002980168C269006A104308600298DE
:103DD0000068016841F00101016002980021C1649E
:103DE0000298202242640298016302988164039140
:103DF000FFE7039804B080BD70B58CB0DDF840C01B
:103E00009E4614460D4606460A90ADF826100892C6
:103E1000ADF81E300A98406C2028CDF814C0CDF8BB
:103E200010E003940295019640F0F280FFE7FFE76F
:103E30000A98006C012803D1FFE702200B90EAE00A
:103E40000A9801210164FFE7FFE7FFF7D1F8069028
:103E50000A98DDF818E06946C1F800E04FF4004127
:103E60000122192302F0F0FB002803D0FFE7012014
:103E70000B90D0E00A98212141640A9810218164B6
:103E80000A980021C16408980A9A5062BDF81E0081
:103E90000A9A50850A9841630A98408DB0F5807F50
:103EA00014D3FFE70A98FF2101850A98BDF8261070
:103EB00090F828206B4642F2000CC8F2000CC3F8C0
:103EC00000C04FF0807302F08DFB14E00A98408D23
:103ED0000A9908850A98BDF8261090F828206B46A4
:103EE00042F2000CC8F2000CC3F800C04FF000739F
:103EF00002F078FBFFE7FFE70A98408D002862D0C8
:103F0000FFE70A981099069A02F03AFC002803D0BD
:103F1000FFE701200B907EE00A980168406A007874
:103F200088620A98416A013141620A98418D0139DB
:103F300041850A98018D013901850A98408D002834
:103F400040D0FFE70A98008D00283BD1FFE70A9890
:103F5000109B06996A4611608021002202F074FBD2
:103F6000002803D0FFE701200B9054E00A98408D11
:103F7000B0F5807F12D3FFE70A98FF2101850A98E8
:103F8000BDF8261090F828206B464FF0000CC3F8BF
:103F900000C04FF0807302F025FB12E00A98408DBC
:103FA0000A9908850A98BDF8261090F828206B46D3
:103FB0004FF0000CC3F800C04FF0007302F012FB8A
:103FC000FFE7FFE798E70A981099069A02F08CFB42
:103FD000002803D0FFE701200B901CE00A9800683E
:103FE0002021C1610A98006842684EF60003CFF6AE
:103FF00000631A4042600A9841640A980021816473
:10400000FFE70A9800210164FFE700200B9002E01F
:1040100002200B90FFE70B980CB070BD80B592B0FA
:1040200001461190002010900F900E900D900C9072
:104030001198006845F20042C4F2000290420891D3
:104040005CD1FFE7FFE741F21400C4F2020001680F
:1040500041F400310160006800F400300B900B98CF
:104060000790FFE7FFE741F21400C4F20200016885
:1040700041F480210160006800F480200A900A98D1
:104080000690FFE74FF400400C9012200D900121A4
:104090000E9103220F92042310934FF0904C0DF1D8
:1040A000300E059060460491714603920293CDF85C
:1040B00004E0FEF7DBFD4FF400700C9005980D90C6
:1040C00004990E91039A0F92029B109340F20040C4
:1040D000C4F600000199FEF7C9FDFFE741F21C009C
:1040E000C4F20200016841F400110160006800F4AC
:1040F0000010099009980090FFE7FFE712B080BD1B
:1041000040F20C00C2F20000006840F22C51C2F2F2
:1041100000010A68104408607047000080B582B052
:1041200042F20000C4F20200016841F01001016097
:10413000032000F095F80020019000F007F80090AF
:1041400000F03CF8019802B080BD000080B584B05A
:104150000146029040F20400C2F20000006840F202
:104160000C02C2F2000212684FF47A73B3FBF2F24F
:10417000B0FBF2F0019101F04DF9002803D0FFE708
:104180000120039016E002980F280DD8FFE702994E
:104190004FF0FF30002200F03FF8029840F210018B
:1041A000C2F20001086002E00120039002E000205A
:1041B0000390FFE7039804B080BD000084B0FFE7E0
:1041C00041F21800C4F20200016841F001010160EF
:1041D000006800F00100039003980190FFE7FFE7FB
:1041E00041F21C00C4F20200016841F080510160FC
:1041F000006800F08050029002980090FFE704B041
:104200007047000080B582B001460190019800918E
:1042100003F0F2FD02B080BD80B58AB013468C4633
:104220008646099008910792002006900593CDF8E4
:1042300010C0CDF80CE003F0F7FD06900998069940
:10424000089A079B0290084611461A4602F022FF80
:10425000029901900846019903F0EEFD0AB080BD75
:1042600080B582B0014601900198009103F006FEEE
:1042700002B080BD80B58CB001460A900020099044
:10428000089007900A980068C0030028059140F143
:10429000D580FFE741F21C00C4F202000068C000B4
:1042A000002813D4FFE7FFE741F21C00C4F202002C
:1042B000016841F080510160006800F08050069074
:1042C00006980490FFE701200790FFE747F20000FF
:1042D000C4F200000068C005002823D4FFE747F2BD
:1042E0000000C4F20000016841F480710160FEF733
:1042F0007FFE0990FFE747F20000C4F2000000686B
:10430000C00500280DD4FFE7FEF772FEDDF824E0BB
:10431000A0EB0E00652803D3FFE703200B90EAE033
:10432000E9E7FFE741F22000C4F20200006800F470
:10433000407008900898002867D0FFE708980A990D
:10434000496801F4407188425FD0FFE741F22000E4
:10435000C4F20200016821F44071089140F240412A
:10436000C4F2422101220A6000220A600899016019
:104370000898C007002847D0FFE7FEF739FE0990EC
:10438000FFE70120002807D1FFE741F20000C4F257
:1043900002000068039022E00020002807D1FFE718
:1043A00041F22000C4F202000068029014E00120F3
:1043B000002807D1FFE741F20400C4F202000068C0
:1043C000019006E041F22400C4F20200006801906E
:1043D000FFE701980290FFE702980390FFE7039838
:1043E000800700280FD4FFE7FEF702FEDDF824E087
:1043F000A0EB0E0041F2893E704503D3FFE7032096
:104400000B9078E0BDE7FFE7FFE741F22000C4F240
:104410000200016821F440710A9A52681143016058
:104420000798012809D1FFE741F21C00C4F20200FD
:10443000016821F080510160FFE7FFE70A980068FA
:10444000C00700280CD0FFE741F23000C4F20200A0
:10445000016821F003010A9A926811430160FFE7A5
:104460000A980068800600280CD5FFE741F230006A
:10447000C4F20200016821F010010A9AD2681143C7
:104480000160FFE70A980068000600280CD5FFE7E6
:1044900041F22C00C4F20200016821F4F8710A9A7A
:1044A000126911430160FFE70A980068C004002800
:1044B0000CD5FFE741F23000C4F20200016821F49C
:1044C00080710A9A526911430160FFE70A980068F7
:1044D000400400280CD5FFE741F23000C4F202008E
:1044E000016821F480510A9A926911430160FFE743
:1044F00000200B90FFE70B980CB080BD80B590B00A
:104500000A4603460E900D9100200C900E9800284C
:104510000B920A9303D1FFE701200F907CE10D98E5
:1045200042F20001C4F20201096801F00701884269
:1045300015D9FFE742F20000C4F20200016821F041
:1045400007010D9A11430160006800F007000D9902
:10455000884203D0FFE701200F905DE1FFE70E984E
:104560000068800700280CD5FFE741F20400C4F280
:104570000200016821F0F0010E9A92681143016077
:10458000FFE70E980068C007002800F0DD80FFE715
:104590000E984068012837D1FFE70020002807D196
:1045A000FFE741F20000C4F202000068099022E037
:1045B0000120002807D1FFE741F22000C4F20200E9
:1045C0000068089014E00120002807D1FFE741F2BD
:1045D0000400C4F202000068079006E041F22400E3
:1045E000C4F2020000680790FFE707980890FFE711
:1045F00008980990FFE709988003002803D4FFE793
:1046000001200F9008E173E00E984068022837D12E
:10461000FFE70020002807D1FFE741F20000C4F2C5
:1046200002000068069022E00120002807D1FFE781
:1046300041F22000C4F202000068059014E001205D
:10464000002807D1FFE741F20400C4F2020000682D
:10465000049006E041F22400C4F2020000680490D5
:10466000FFE704980590FFE705980690FFE7069896
:104670008001002803D4FFE701200F90CCE036E052
:104680000020002807D1FFE741F20000C4F2020039
:104690000068039022E00120002807D1FFE741F2E3
:1046A0002000C4F202000068029014E001200028FB
:1046B00007D1FFE741F20400C4F202000068019054
:1046C00006E041F22400C4F2020000680190FFE716
:1046D00001980290FFE702980390FFE70398800794
:1046E000002803D4FFE701200F9095E0FFE7FFE7E4
:1046F00041F20400C4F20200016821F003010E9AA5
:10470000526811430160FEF773FC0C90FFE741F221
:104710000400C4F20200006800F00C000E99496821
:10472000B0EB810F0FD0FFE7FEF762FCDDF830E061
:10473000A0EB0E0041F2893E704503D3FFE7032052
:104740000F9069E0E3E7FFE70D9842F20001C4F241
:104750000201096801F00701884215D2FFE742F221
:104760000000C4F20200016821F007010D9A114314
:104770000160006800F007000D99884203D0FFE750
:1047800001200F9048E0FFE70E98006840070028DE
:104790000CD5FFE741F20400C4F20200016821F4E5
:1047A000E0610E9AD26811430160FFE70E9800683D
:1047B000000700280DD5FFE741F20400C4F2020013
:1047C000016821F460510E9A126941EAC201016048
:1047D000FFE700F053F841F2040EC4F2020EDEF8D7
:1047E00000E05FFA8EFE4FEA1E1E49F62C61C0F60D
:1047F000000111F80E10C84040F20401C2F200019D
:10480000086040F21000C2F200000068FFF79EFC52
:1048100000210F910090FFE70F9810B080BD0000BD
:1048200040F20400C2F200000068704780B5FFF754
:10483000F7FF41F2040EC4F2020EDEF800E0CEF300
:10484000022E49F63C61C0F6000111F80E10C84076
:1048500080BD000080B5FFF7E3FF41F2040EC4F213
:10486000020EDEF800E0CEF3C22E49F63C61C0F63F
:10487000000111F80E10C84080BD000080B588B05E
:1048800000200790069005900490039041F20400E8
:10489000C4F2020000680790079800F00C0001467F
:1048A0000028029143D0FFE70298042804D0FFE7D4
:1048B0000298082806D03BE041F20020C0F27A00BE
:1048C00003903BE00798C0F383404AF25C61C0F676
:1048D0000001085C049041F22C00C4F20200006860
:1048E00000F00F004AF26C61C0F60001085C06900F
:1048F0009DF81E00C00700280ED0FFE7069A41F27F
:104900000020C0F27A0000210191019BFBF708FD15
:1049100004994843059007E0049840F60011C0F25E
:104920003D0148430590FFE70598039006E0FFE747
:1049300041F20020C0F27A000390FFE7039808B02C
:1049400080BD000080B5B0B001462E902E980028A2
:10495000299104D1FFE701202F9000F058BD2E9837
:104960000068C007002800F03E81FFE741F2040024
:10497000C4F20200006800F00C00042813D0FFE726
:1049800041F20400C4F20200006800F00C000828A4
:1049900046D1FFE741F20400C4F202000068C00300
:1049A00000283DD5FFE70020002807D1FFE741F2AE
:1049B0000000C4F202000068289022E001200028D4
:1049C00007D1FFE741F22000C4F2020000682790FF
:1049D00014E00120002807D1FFE741F20400C4F2EF
:1049E00002000068269006E041F22400C4F20200B2
:1049F00000682690FFE726982790FFE727982890E1
:104A0000FFE728988003002809D5FFE72E98406823
:104A1000002804D1FFE701202F9000F0F8BCE1E06E
:104A2000FFE72E984068B0F5803F09D1FFE741F2DB
:104A30000000C4F20200016841F48031016033E0FB
:104A40002E98406800280DD1FFE741F20000C4F223
:104A50000200016821F480310160016821F48021A5
:104A6000016020E02E984068B0F5A02F0DD1FFE73F
:104A700041F20000C4F20200016841F480210160AB
:104A8000016841F4803101600CE041F20000C4F2A1
:104A90000200016821F480310160016821F4802165
:104AA0000160FFE7FFE7FFE7FFE741F22C00C4F2F8
:104AB0000200016821F00F012E9A926811430160F3
:104AC0002E984068002846D0FFE7FEF791FA2D9017
:104AD000FFE70020002807D1FFE741F20000C4F201
:104AE00002000068259022E00120002807D1FFE79E
:104AF00041F22000C4F202000068249014E001207A
:104B0000002807D1FFE741F20400C4F20200006868
:104B1000239006E041F22400C4F2020000682390D2
:104B2000FFE723982490FFE724982590FFE7259836
:104B3000800300280ED4FFE7FEF75AFADDF8B4E050
:104B4000A0EB0E00652804D3FFE703202F9000F0B0
:104B50005EBCBEE745E0FEF74BFA2D90FFE7002074
:104B6000002807D1FFE741F20000C4F2020000680C
:104B7000229022E00120002807D1FFE741F2200027
:104B8000C4F202000068219014E00120002807D13F
:104B9000FFE741F20400C4F202000068209006E042
:104BA00041F22400C4F2020000682090FFE7209840
:104BB0002190FFE721982290FFE7229880030028A8
:104BC0000ED5FFE7FEF714FADDF8B4E0A0EB0E0017
:104BD000652804D3FFE703202F9000F018BCBEE740
:104BE000FFE7FFE7FFE72E9800688007002840F105
:104BF0000D81FFE741F20400C4F20200006810F0EA
:104C00000C0F13D0FFE741F20400C4F20200006869
:104C100000F00C00082852D1FFE741F20400C4F272
:104C200002000068C003002849D4FFE700200028E4
:104C300007D1FFE741F20000C4F2020000681F90B4
:104C400022E00120002807D1FFE741F22000C4F252
:104C5000020000681E9014E00120002807D1FFE741
:104C600041F20400C4F2020000681D9006E041F227
:104C70002400C4F2020000681D90FFE71D981E90FA
:104C8000FFE71E981F90FFE71F988007002808D5B0
:104C9000FFE72E980069012803D0FFE701202F903D
:104CA000B5E341F20000C4F20200016821F0F8010E
:104CB0002E9A526941EAC2010160FFE7A5E02E98F1
:104CC0000069002856D0FFE70020C4F242200121ED
:104CD0000160FEF78DF92D90FFE70020002807D135
:104CE000FFE741F20000C4F2020000681C9022E0DD
:104CF0000120002807D1FFE741F22000C4F20200A2
:104D000000681B9014E00120002807D1FFE741F262
:104D10000400C4F2020000681A9006E041F2240088
:104D2000C4F2020000681A90FFE71A981B90FFE790
:104D30001B981C90FFE71C98800700280DD4FFE704
:104D4000FEF756F9DDF8B4E0A0EB0E00032803D31C
:104D5000FFE703202F905AE3BFE741F20000C4F2BF
:104D60000200016821F0F8012E9A526941EAC2015D
:104D7000016049E00020C4F2422000210160FEF7FA
:104D800037F92D90FFE70020002807D1FFE741F217
:104D90000000C4F202000068199022E001200028FF
:104DA00007D1FFE741F22000C4F20200006818902A
:104DB00014E00120002807D1FFE741F20400C4F20B
:104DC00002000068179006E041F22400C4F20200DD
:104DD00000681790FFE717981890FFE71898199048
:104DE000FFE71998800700280DD5FFE7FEF700F9C7
:104DF000DDF8B4E0A0EB0E00032803D3FFE70320A7
:104E00002F9004E3BFE7FFE7FFE7FFE72E98006876
:104E10000007002840F19D80FFE72E988069002858
:104E20004BD0FFE740F28040C4F2422001210160F4
:104E3000FEF7DEF82D90FFE70120002807D1FFE7FD
:104E400041F20000C4F202000068169022E0012046
:104E5000002807D1FFE741F22000C4F202000068F9
:104E6000159014E00120002807D1FFE741F204006B
:104E7000C4F202000068149006E041F22400C4F27B
:104E8000020000681490FFE714981590FFE715984A
:104E90001690FFE71698800700280DD4FFE7FEF76D
:104EA000A7F8DDF8B4E0A0EB0E00032803D3FFE77A
:104EB00003202F90ABE2BFE74AE040F28040C4F20B
:104EC000422000210160FEF793F82D90FFE70120BA
:104ED000002807D1FFE741F20000C4F20200006899
:104EE000139022E00120002807D1FFE741F22000C3
:104EF000C4F202000068129014E00120002807D1DB
:104F0000FFE741F20400C4F202000068119006E0DD
:104F100041F22400C4F2020000681190FFE71198EA
:104F20001290FFE712981390FFE71398800700286C
:104F30000DD5FFE7FEF75CF8DDF8B4E0A0EB0E005E
:104F4000032803D3FFE703202F9060E2BFE7FFE7CA
:104F5000FFE72E9800684007002840F12F81FFE707
:104F600000202B9041F21C00C4F202000068C00037
:104F7000002813D4FFE7FFE741F21C00C4F202004F
:104F8000016841F080510160006800F080502A9073
:104F90002A981090FFE701202B90FFE747F20000CE
:104FA000C4F200000068C005002823D4FFE747F2E0
:104FB0000000C4F20000016841F480710160FEF756
:104FC00017F82D90FFE747F20000C4F200000068D8
:104FD000C00500280DD4FFE7FEF70AF8DDF8B4E0BD
:104FE000A0EB0E00652803D3FFE703202F900EE20D
:104FF000E9E7FFE7FFE72E98C068012809D1FFE73E
:1050000041F22000C4F20200016841F00101016098
:1050100032E02E98C06800280DD1FFE741F2200051
:10502000C4F20200016821F001010160016821F071
:10503000040101601FE02E98C06805280DD1FFE72C
:1050400041F22000C4F20200016841F00401016055
:10505000016841F0010101600CE041F22000C4F25E
:105060000200016821F001010160016821F00401E2
:105070000160FFE7FFE7FFE7FFE72E98C068002821
:1050800047D0FFE7FDF7B4FF2D90FFE70120002890
:1050900007D1FFE741F20000C4F2020000680F9060
:1050A00022E00020002807D1FFE741F22000C4F2EF
:1050B000020000680E9014E00120002807D1FFE7ED
:1050C00041F20400C4F2020000680D9006E041F2D3
:1050D0002400C4F2020000680D90FFE70D980E90C6
:1050E000FFE70E980F90FFE70F98800700280FD476
:1050F000FFE7FDF77DFFDDF8B4E0A0EB0E0041F225
:10510000893E704503D3FFE703202F907FE1BDE781
:1051100046E0FDF76DFF2D90FFE70120002807D145
:10512000FFE741F20000C4F2020000680C9022E0A8
:105130000020002807D1FFE741F22000C4F202005E
:1051400000680B9014E00120002807D1FFE741F22E
:105150000400C4F2020000680A9006E041F2240054
:10516000C4F2020000680A90FFE70A980B90FFE77C
:105170000B980C90FFE70C98800700280FD5FFE7ED
:10518000FDF736FFDDF8B4E0A0EB0E0041F2893EFA
:10519000704503D3FFE703202F9038E1BDE7FFE719
:1051A0002B98012809D1FFE741F21C00C4F202004C
:1051B000016821F080510160FFE7FFE72E98C06988
:1051C000002800F02181FFE741F20400C4F2020050
:1051D000006800F00C00082800F0F280FFE72E982D
:1051E000C069022840F0A180FFE76020C4F242209D
:1051F00000210160FDF7FCFE2D90FFE70020002854
:1052000007D1FFE741F20000C4F2020000680990F4
:1052100022E00120002807D1FFE741F22000C4F27C
:1052200002000068089014E00120002807D1FFE781
:1052300041F20400C4F202000068079006E041F267
:105240002400C4F2020000680790FFE70798089066
:10525000FFE708980990FFE70998800100280DD51D
:10526000FFE7FDF7C5FEDDF8B4E0A0EB0E00032874
:1052700003D3FFE703202F90C9E0BFE741F204000A
:10528000C4F20200016821F474112E9A136A526A62
:105290001A43114301606020C4F2422001210160E1
:1052A000FDF7A6FE2D90FFE70020002807D1FFE7BD
:1052B00041F20000C4F202000068069022E00120E2
:1052C000002807D1FFE741F22000C4F20200006885
:1052D000059014E00120002807D1FFE741F2040007
:1052E000C4F202000068049006E041F22400C4F217
:1052F000020000680490FFE704980590FFE7059816
:105300000690FFE70698800100280DD4FFE7FDF71F
:105310006FFEDDF8B4E0A0EB0E00032803D3FFE737
:1053200003202F9073E0BFE749E06020C4F24220E1
:1053300000210160FDF75CFE2D90FFE700200028B2
:1053400007D1FFE741F20000C4F2020000680390B9
:1053500022E00120002807D1FFE741F22000C4F23B
:1053600002000068029014E00120002807D1FFE746
:1053700041F20400C4F202000068019006E041F22C
:105380002400C4F2020000680190FFE70198029037
:10539000FFE702980390FFE70398800100280DD5EE
:1053A000FFE7FDF725FEDDF8B4E0A0EB0E000328D3
:1053B00003D3FFE703202F9029E0BFE7FFE722E0B8
:1053C0002E98C069012803D1FFE701202F901EE02D
:1053D00041F20400C4F2020000682C902C9800F402
:1053E00080302E99096A884208D1FFE72C9800F492
:1053F00070102E99496A884203D0FFE701202F9050
:1054000005E0FFE7FFE7FFE700202F90FFE72F9879
:1054100030B080BD80B582B0014601900198009106
:1054200002F002F902B080BD82B001460190009105
:1054300002B0704782B001460190009102B07047FF
:1054400082B001460190009102B0704780B584B0EF
:105450000146029002980028019103D1FFE7012044
:10546000039039E00298006C002807D1FFE702980A
:105470000021C163029800F033F8FFE7029802218F
:105480000164029850F8041B00900846009902F04D
:1054900069F902980121C166FFE702980121416480
:1054A000029881640298C16402980165029841657E
:1054B00002988165FFE7FFE702980121C165029824
:1054C00001660298416602988166FFE70298012111
:1054D000016400200390FFE7039804B080BD000042
:1054E00080B586B0014605900598006844F6000234
:1054F000C4F20102904203911BD1FFE7FFE741F2A2
:105500001800C4F20200016841F4802101600068C3
:1055100000F48020049004980290FFE71A200021F4
:1055200001900091009AFEF777FE0198FEF76AFE5F
:10553000FFE706B080BD000084B0014602900298EB
:10554000006C0128009103D0FFE7012003904CE09C
:1055500002980221016402980068C16841F00101CB
:10556000C1600298006842F60041C4F2010188421D
:1055700018D0FFE702980068B0F1804F12D0FFE723
:105580000298006840F20041C4F20001884209D04C
:10559000FFE70298006844F20001C4F2010188426A
:1055A00019D1FFE70298006880680721C0F2010165
:1055B00008400190019806280CD0FFE70198B0F54B
:1055C000803F07D0FFE702980068016841F00101C1
:1055D0000160FFE706E002980068016841F0010100
:1055E0000160FFE700200390FFE7039804B07047D5
:1055F00082B001460190009102B0704780B582B040
:105600000146019001980068006900F00200002244
:10561000B2EB500F009129D0FFE701980068C068F5
:1056200000F002000021B1EB500F1ED0FFE70198FF
:1056300000686FF00201016101980121C1610198C8
:10564000006880698007002804D0FFE70198FFF711
:10565000CFFF06E0019800F031F9019800F034F92D
:10566000FFE701980021C161FFE7FFE701980068AB
:10567000006900F004000021B1EB900F29D0FFE792
:1056800001980068C06800F004000021B1EB900FA1
:105690001ED0FFE7019800686FF0040101610198D6
:1056A0000221C16101980068806910F4407F04D034
:1056B000FFE70198FFF79CFF06E0019800F0FEF875
:1056C000019800F001F9FFE701980021C161FFE7AF
:1056D000FFE701980068006900F008000021B1EBC5
:1056E000D00F29D0FFE701980068C06800F00800DB
:1056F0000021B1EBD00F1ED0FFE7019800686FF0DA
:105700000801016101980421C16101980068C06924
:105710008007002804D0FFE70198FFF769FF06E043
:10572000019800F0CBF8019800F0CEF8FFE701985F
:105730000021C161FFE7FFE701980068006900F000
:1057400010000021B1EB101F29D0FFE7019800687D
:10575000C06800F010000021B1EB101F1ED0FFE761
:10576000019800686FF01001016101980821C16182
:1057700001980068C06910F4407F04D0FFE70198E9
:10578000FFF736FF06E0019800F098F8019800F066
:105790009BF8FFE701980021C161FFE7FFE701984F
:1057A00000680069C007002811D0FFE70198006871
:1057B000C068C007002809D0FFE7019800686FF0B3
:1057C00001010161019800F085F8FFE7FFE701980A
:1057D00000680069C0B20021B1EBD01F13D0FFE711
:1057E00001980068C068C0B20021B1EBD01F09D099
:1057F000FFE7019800686FF0800101610198FFF7F1
:1058000019FEFFE7FFE701980068006900F4807067
:105810000021B1EB102F13D0FFE701980068C0689A
:10582000C0B20021B1EBD01F09D0FFE7019800689A
:105830006FF4807101610198FFF7F6FDFFE7FFE764
:1058400001980068006900F040000021B1EB901F52
:1058500014D0FFE701980068C06800F04000002104
:10586000B1EB901F09D0FFE7019800686FF040018D
:105870000161019800F04EFAFFE7FFE70198006828
:10588000006900F020000021B1EB501F14D0FFE7A9
:1058900001980068C06800F020000021B1EB501FA3
:1058A00009D0FFE7019800686FF0200101610198BD
:1058B000FFF7C6FDFFE7FFE702B080BD82B00146FB
:1058C0000190009102B0704782B0014601900091B2
:1058D00002B0704780B592B001461190119840F225
:1058E0009432C2F2000290420B9140F01182FFE725
:1058F00040F20800C2F2000090ED000A9FEDE61AA7
:1059000020EE010A10EE101A0A9008468DED091AD1
:1059100004F0F8F841EC120B40F27800C2F20000FB
:10592000018800EE101AB8EEC00A9FEDDC1A80EE76
:10593000010AB7EE003A33EE400A9FEDD93A20EE65
:10594000030A10EE101A089008468DED062B8DED17
:10595000051A8DED043A04F0D5F841EC100B02F075
:10596000BFFF9DED062B51EC120B53EC102B03F0F7
:10597000D5FE41EC100B51EC100B03F075FEADF8A9
:1059800038000A9890ED001A9DED093A21EE031AAD
:1059900011EE100A04F0B6F841EC100B08980188DB
:1059A00001EE101AB8EEC11A9DED043A21EE031A69
:1059B0009DED054A81EE041A11EE100A8DED020BE1
:1059C00004F0A0F841EC100B02F08AFF9DED022BD1
:1059D00051EC120B53EC102B03F0A0FE41EC100B1A
:1059E00051EC100B03F040FEADF83600BDF8360068
:1059F000C0F5B440BDF83810401AADF83400BDF819
:105A000034004008ADF83A00ADF83C0040F2000028
:105A1000C2F200000078013801460528019100F229
:105A20000E810199DFE801F0032F5B87B3DFBDF83A
:105A30003C00400840F28841C2F200010880BDF8F5
:105A40003C004FF4B442A2EB50004880BDF8360051
:105A5000BDF83A2010444FF43452A2EB50000881B4
:105A6000BDF83600BDF83A30184402EB50004881CA
:105A7000BDF83A00A2EB50008881BDF83A0002EB75
:105A80005000C881DBE0BDF83C00400840F288418E
:105A9000C2F200010881BDF83C004FF4B442A2EB11
:105AA00050004881BDF83800BDF83A2010444FF44A
:105AB0003452A2EB50000880BDF83800BDF83A30EF
:105AC000184402EB50004880BDF83A00A2EB5000A9
:105AD0008881BDF83A0002EB5000C881AFE0BDF804
