:020000040800F2
:10000000900C00201503000867550008FB4C000801
:10001000655500089D1E0008015D000800000000F5
:10002000000000000000000000000000435800082D
:10003000031F000800000000415800084558000850
:100040002F0300082F0300082F0300082F030008C8
:100050002F0300082F0300082F0300082F030008B8
:100060002F0300082F0300082F030008AD1E00080F
:100070002F0300082F0300082F0300082F03000898
:100080002F0300082F0300082F0300082F03000888
:100090002F0300082F0300082F0300082F03000878
:1000A0002F030008F5580008E95800082F0300083E
:1000B0002F0300082F030008000000002F03000892
:1000C0002F03000800000000000000002F030008BC
:1000D000000000002F0300082F0300082F03000872
:1000E0002F0300082F03000800000000000000009C
:1000F0000000000000000000000000000000000000
:1001000000000000000000000000000000000000EF
:1001100000000000000000002F0300082F0300086B
:1001200000000000000000000000000000000000CF
:1001300000000000000000000000000000000000BF
:10014000A11E00082F030008000000002F03000874
:100150002F0300082F0300082F0300082F030008B7
:100160002F0300082F03000800000000000000001B
:10017000000000000000000000000000000000007F
:10018000000000002F03000800F002F800F0B2F8B1
:100190000AA090E8000C82448344AAF10107DA45E2
:1001A00001D100F0A7F8AFF2090EBAE80F0013F082
:1001B000010F18BFFB1A43F00103184770830000BA
:1001C000908300000A444FF0000C10F8013B13F03C
:1001D000070408BF10F8014B1D1108BF10F8015BA0
:1001E000641E05D010F8016B641E01F8016BF9D193
:1001F00013F0080F1EBF10F8014BAD1C0C1B09D1EA
:100200006D1E58BF01F801CBFAD505E014F8016B5B
:1002100001F8016B6D1EF9D59142D6D370470000ED
:100220000023002400250026103A28BF78C1FBD8FF
:10023000520728BF30C148BF0B6070476E2900F0DD
:100240000982702900F04B83662907F0F88365293D
:1002500007F0F583672907F0F283612907F0F1833E
:1002600003681B0A28BF41F08001692900F0B681AC
:10027000642900F0B381752900F0B0816F2900F086
:10028000D882782900F01783E92900F07382E429E5
:1002900000F07082F52900F06D82EF2900F0D58220
:1002A000F82900F016830368DB0928BF41F08001BC
:1002B000632901F01D80732901F02280E32901F0F8
:1002C0002D80F32901F03280002070471FB507F020
:1002D000ACFB01F081F804000020002106F082FD53
:1002E000401C60600020002106F066FDE0601FBD3C
:1002F00010B510BD01F042F81146FFF7E7FF06F018
:1003000077FC01F01FF903B4FFF7F2FF03BC01F023
:1003100063F900000948804709480047FEE7FEE707
:10032000FEE7FEE7FEE7FEE7FEE7FEE7FEE7FEE7A5
:1003300004480549054A064B70470000D958000893
:100340008901000890060020900C002090080020F1
:100350009008002053EA020C00F069802DE9F04B70
:100360004FF00006002B1FBFB3FA83F503FA05F424
:1003700024FA05F65E4012BF1643B2FA82F502FA7D
:1003800005F4C5F120051EBF22FA05FC44EA0C0461
:10039000203556EA044C4FEA144418BF641C4FF051
:1003A00000084FF00009904271EB030C39D300298B
:1003B00019BFB1FA81F701FA07F6B0FA80F700FA2F
:1003C00007F6C7F120071EBF20FA07FC46EA0C0615
:1003D0002037B6FBF4FCA7EB0507103F07F01F0B17
:1003E000CBF120060CFA0BFB2CFA06F644BFB34601
:1003F0000026202FA4BF5E464FF0000B5BEA060CE0
:1004000008BF4FF0010B19EB0B09ABFB027C48EB6B
:100410000608C01B06FB02CC0BFB03CC71EB0C01E6
:10042000C1E70B46024641464846BDE8F08B13B58E
:100430004FF000004FF00001AFF30080BDE81C401A
:10044000704700001CB50C46064B7B446946009083
:10045000204600F018F904460020694600F026F90D
:1004600020461CBD5F0200004FF000020429C0F0CE
:10047000128010F0030C00F01B80CCF1040CBCF1D6
:10048000020F18BF00F8012BA8BF20F8022BA1EB28
:100490000C0100F00DB85FEAC17C24BF00F8012B0D
:1004A00000F8012B48BF00F8012B70474FF0000205
:1004B00000B5134694469646203922BFA0E80C505A
:1004C000A0E80C50B1F12001BFF4F7AF090728BF35
:1004D000A0E80C5048BF0CC05DF804EB890028BFB1
:1004E00040F8042B08BF704748BF20F8022B11F0DA
:1004F000804F18BF00F8012B704770477047704756
:1005000010B500F0BBFA006810BD10B5044600F04D
:10051000B5FA046010BD70B5044685690068C1066F
:1005200001D5302600E02026C00707D070BDD4E9F1
:10053000012130469047206A401C20626D1EF6D58E
:1005400070BD70B5044685690078C00707D170BDDD
:10055000D4E9012120209047206A401C20626D1EB2
:10056000F6D570BD09684A0501D540B27047C90586
:10057000FCD500B2704709684A0501D5C0B2704782
:10058000C905FCD580B2704770B50C460546012AF6
:1005900005D02878800600D5EA69002302E001230F
:1005A00005E05B1C934202D2E05C0028F9D1A86907
:1005B000E618C01AA861286A184428622846FFF77E
:1005C000AAFF04E0D5E9012114F8010B9047B442D9
:1005D000F8D32846FFF7B5FF70BD00002DE9F041C4
:1005E0000646002410687529314616A510D0FFF77D
:1005F000B9FF002802DA404213A507E031688A07F4
:1006000001D512A502E0490704D511A5012401E096
:10061000FFF7B1FF00210A2206F1240709E0B0FB31
:10062000F2FCB0FBF2F302FB1C00303078541846A9
:10063000491C0028F3D123462A463046BDE8F04144
:1006400000F065BA000000002D0000002B00000043
:100650002000000011680268006A530501D5087087
:100660000AE0D30501D5088006E0130603D5C217BA
:10067000C1E9000200E008600120704701694A1CDE
:1006800002610878704700B58FB0CDE901310021D3
:10069000059105497944CDE903101146684600F0FB
:1006A00029F90FB000BD0000E5FFFFFF0A6802F85E
:1006B000010B0A60704700002DE9FF5F15468A466E
:1006C0000446DFF8AC80F8440027D8E900103E4625
:1006D000CDE9001010E03AF816106A4602A800F0C2
:1006E00029FE411C07D02178890603D5E269391813
:1006F00091420DD80744761C2078800602D5E06927
:10070000B84205DDAE42E6DB3AF816000028E2D139
:10071000A069C01BA0612046FFF7FDFED8E90010CC
:10072000CDE90010002017E03AF818106A4602A838
:1007300000F000FEB0F1FF3F81460BD000250DF127
:10074000080B05E0D4E901211BF8050090476D1C5A
:100750004D45F7D308F10100B0428046E4DB206A42
:10076000384420622046FFF7ECFEBDE8FF9F000002
:10077000567D00002DE9F0418046D21D22F007028F
:100780000025D2E90002F52915A614D0011E72F148
:10079000000106DA0023D0EB030063EB020211A68E
:1007A00008E0D8F800108B0701D50FA602E0490732
:1007B00001D50EA601251146002408F1240704E006
:1007C00000F060F930323A55641C50EA0102F7D16A
:1007D0002B46324621464046BDE8F04100F097B92D
:1007E000000000002D0000002B0000002000000091
:1007F00030B4002100F1240408E002F00705D2081B
:10080000303542EA4372DB086554491C52EA03055D
:10081000F3D10468002310A2250707D5A40600D44D
:1008200021B1C46901230DA2641EC46130BC00F073
:100830006EB910B5044621461068FFF79CFE0246CB
:100840002046BDE810400023D2E7D21D22F0070168
:10085000D1E90023CCE700000000000030000000D8
:10086000F0B40D460188090502D5214C7C4402E014
:100870001F4C7C440E34002100F1240608E002F0F5
:100880000F071209E75D42EA03721B097754491CFE
:1008900052EA0307F3D102780023120704D5702D22
:1008A00006D009B1022311342246F0BC00F02FB962
:1008B00001231034F8E770B504460D462146106850
:1008C000FFF759FE024629462046BDE87040002346
:1008D000C6E7D21D22F00703D3E90023C0E703686F
:1008E000126843F0200303600823C3610023B7E7C5
:1008F000B87B00002DE9F05F894604464FF0000AFE
:10090000DFF874B1FB44C0F820A02046E1688847B6
:10091000002874D0252806D0D4E901219047206A08
:10092000401C2062F1E700265F462046E1688847C8
:100930002028054607DB312D05D2781910F8200C48
:1009400008B10643F1E7B00701D526F00406C4F864
:100950001CA00027C4F818A02A2D09D0284606F0AC
:1009600033F938B304EB8708303DC8F8185019E064
:1009700059F8041B204604EB87029161E16888471F
:10098000012F054618D1E069002820DA26F020065C
:100990001DE0D8F8180000EB800005EB400030386F
:1009A000C8F818002046E1688847054606F00CF9AB
:1009B0000028EED1012F0AD02E2D08D12046E16863
:1009C00088477F1C0546022F46F02006C4DBA0693D
:1009D000002803DA404246F00106A061F00701D08A
:1009E00026F010066C2D0BD0682D09D04C2D39D077
:1009F0006A2D35D0742D35D07A2D33D016E038E0FD
:100A0000E1682F4620468847B842054609D16C2F39
:100A100026D04FF48060E1680643204688470546AB
:100A200004E06C2F1AD04FF4807006430DB3A5F18B
:100A30004100192802D8203546F400664A46294666
:100A4000204626604E46FFF7F9FB80B101280BD007
:100A5000F61D26F0070000F1080956E74020E4E7FC
:100A60008020D8E70020D6E706F104094DE72846A4
:100A700052E7206ABDE8F09F487B000000487047BD
:100A80003006002030B5B0F10A024FEA900E71F145
:100A900000034EEA817EB0EB0E0061EB91014FEA5C
:100AA000101E4EEA017E10EB0E0041EB11114FEAD1
:100AB000102E4EEA016E10EB0E0041EB11214FEAB1
:100AC000104E4EEA014E10EB0E0041EB1141401862
:100AD00041F100014FEAD00040EA41704FEAD101F4
:100AE00010EB80054FEA810444EA907444EB010462
:100AF0006D1944EB0404521BA3414FF0000348BF9F
:100B00000A3200D530BD401C41F1000130BD2DE955
:100B1000F0470D4699469246044600F124080168C4
:100B2000880604D5E06921F01001216000E0012071
:100B3000A84201DD471B00E00027A1697A1902EBFA
:100B40000900081AA0612078C00602D42046FFF7E9
:100B5000E2FC002608E0D4E901211AF806009047DB
:100B6000206A401C761C20624E45F4DB2078C006CB
:100B70000AD52046FFF7CFFC06E0D4E9012130205A
:100B80009047206A401C2062381EA7F10107F4DC60
:100B900007E0D4E9012118F805009047206A401CBD
:100BA0002062281EA5F10105F3DC2046FFF7C9FCF1
:100BB0002078000602D50220BDE8F0870120FBE77F
:100BC00070472DE9FF4F0C461E464FF0FF378BB0A4
:100BD000D2E90001DDF860800A908A46C1F30A5527
:100BE00005B93D46002108464FF00000BAF1000F5C
:100BF00000F4400005DA00EB80004FF4400101EA08
:100C000050004FEA9059B9F1010F00DDB9460A983A
:100C100050EA4A000ED044F61050A5F2FF35454385
:100C20002F14B8F1000F1ED07542291E1EDDC9F128
:100C300000021CE0B8F1010F4FF0000001D030219C
:100C400003E0F24305E02154401CB042FBDB304698
:100C50000022002121540B99C1F80880C1E900202D
:100C60000FB0BDE8F08FBD1B6D1CDEE74A4600DA11
:100C7000694206A800F0F4FB06AB93E8070003AB5B
:100C800083E8070050460A9900F0ADFC8DE80700A4
:100C9000A0F500501F3800900398002D0ADD42F2A5
:100CA0001F014A460844002303A90390684600F048
:100CB00016FF09E0A0F500504A461F38002303A99B
:100CC0000390684600F020FF8DE807000004000C48
:100CD00003D04FF0FF30410800E01046B8F1000F9C
:100CE00003D00022009215461EE0751E05D4FFF7C2
:100CF000C9FE303262556D1EF9D5B3460122084354
:100D000002D000227F1C04E02078302801D100228C
:100D10007F1E002A099784D01DE0112D07DAFFF706
:100D2000B1FE303262556D1C50EA0102F5D1084324
:100D300002D00098C8B10EE00021681E05E0235CD7
:100D4000625C63542254401E491C8142F7DBAB466F
:100D5000A81B401E0990002004F80B000B98099A6C
:100D6000C0F80880C0E9002B7AE711264FF0000890
:100D700057E72DE9F04F88460446D21D22F00701BF
:100D800091B0D1E90001CDE90A0104F0BAFF0246B1
:100D90000B98C00F01D02D2007E02068810701D5F6
:100DA0002B2002E0202101EAC000032A099001D093
:100DB000072A05DB03464146204600F011FB0BE104
:100DC0002078800601D5E06900E00620B8F1650FC3
:100DD000814606D0B8F1660F18D0B8F1670F70D110
:100DE00031E00020B9F1110F009001DB112301E087
:100DF00009F101030AAA01A90CA8FFF7E2FEDDE947
:100E00000C70002609F10105834647E001204B469E
:100E100000904FF000470AAA01A90CA8FFF7D1FEE5
:100E2000DDE90DB00C995D46002610B909F101000D
:100E30000D18B9EB050003D4C0F1FF3609F1010527
:100E4000A5EB09002BE0B9F1010F01DA4FF0010920
:100E50000020B9F1110F0090484601DD112300E098
:100E600003460AAA01A90CA8FFF7ABFEDDE90C7046
:100E70004D4600268346207800070AD4AB4500DAA9
:100E80005D4601A8012D04DD411911F8011C30292E
:100E900007D04F4502DA17F1040F04DA0120824629
:100EA0000FE06D1EEEE7002F02DCED1B3E4403E079
:100EB000781CA84200DD7D1CB81B00F1010A4FF030
:100EC00000472078000703D4AA4501DB4FF0FF3A22
:100ED0000021B7F1004F0DF143088DF8431024D0E5
:100EE00002202B23002F01DA7F422D230A21021E2C
:100EF000A0F1010000DC5FB197FBF1FC97FBF1F280
:100F000001FB1C7C17460CF1300C08F801CDEEE714
:100F1000A8F1010003702188090501D5452100E0F1
:100F20006521A0F1010800F8011C09980FA9A1EBA7
:100F30000807FF1D00B10120411901EBEA70A1690A
:100F40003844081A401EA0612078C00602D420460A
:100F5000FFF7E1FA099828B1D4E901219047206A06
:100F6000401C20622078C00622D52046FFF7D3FA25
:100F70001EE0002E04DBB34502DD01A8805D00E029
:100F80003020D4E901219047206A401C2062761C61
:100F9000AAF101005FEA000A0AD100F01DFAC06858
:100FA0000168405CD4E901219047206A401C20621E
:100FB000281EA5F10105DCDC07E0D4E9012118F8C1
:100FC000010B9047206A401C2062381EA7F10107E0
:100FD000F3DC2046FFF7B5FA032011B041E600002C
:100FE0002DE9F04F04460D46D21D22F0070089B0CE
:100FF000D0E900974846394604F083FE0246F80FD0
:1010000001D02D2307E02068810701D52B2302E0C2
:10101000202101EAC0038DF820300BB1012000E04F
:101020000020032A824601D0072A04DB29462046F5
:1010300000F0D6F93FE12078800601D40D2500E0CC
:10104000E569C7F30A560D2D49DA00214FEA175B0F
:1010500008464FF00000002F00F4400007DA00EBD4
:1010600080004FF4400100EBD07001EA6000811570
:10107000012901DD4FF0FF3100224FEA850CBCF160
:10108000180F06D31346ACF118004FF08052C2403F
:1010900003E04FF4801323FA0CF30CF10C0CBCF1B9
:1010A000200F04D3ACF1200C09FA0CF001E007FA90
:1010B0000CF000294FF0004801DD18B90FE00ED107
:1010C00040450CD319EB02095F4121B9404502D1DB
:1010D0009F4329EA0209BBEB175F00D0761C2088EA
:1010E000000502D57B48784402E07A4878441938F4
:1010F00008AA302302F80A30037C0AF10101002E0D
:101100000AF1020A53546A4602DC4FF0300101E052
:101110004FF031014FF001088DF8001002D0A6F217
:10112000FF3603E059EA470100D06B4E002D02DC88
:101130002178090704D54FF002082E218DF80110FF
:10114000C44600210BE0C7F303433F01C35C491CC5
:101150006D1E02F80830052908F1010801DA002D9A
:10116000F1DC00210CE000EB1973491C1B786D1EAB
:10117000082902F808304FEA091908F1010801DAD4
:10118000002DF0DC21688B0602D516E0A8F10108DD
:10119000E04505DD02EB080313F8013C302BF5D0E8
:1011A000B8F1000F09DD02EB080313F8013C2E2B08
:1011B00003D1090701D4A8F10108002D05DD3E2166
:1011C00002F808106D1E08F10108407C002E02F89C
:1011D000080008F1010804DA2D20764202F8080020
:1011E00002E02B2002F808000A214FF47A708642B0
:1011F00008F101080BDB96FBF0F3303302F80830FE
:1012000096FBF0F308F1010800FB136601E0642E81
:101210000CDB642096FBF0F3303302F8083096FBC9
:10122000F0F308F1010800FB136601E00A2E06DB6B
:1012300096FBF1F0303002F8080008F1010896FB47
:10124000F1F001FB1060303002F80800A16908F1EC
:10125000010808EB050202EB0A00081AA0612078D9
:10126000C00602D42046FFF756F9216A08AE01EB0A
:101270000A00206204E0D4E9012116F8010B90472E
:10128000BAF1010AF7D22078C00602D52046FFF74E
:1012900042F96E4609E016F8010B3E280FD0D4E95A
:1012A00001219047206A401C2062B8F10108F2D267
:1012B0002046FFF746F909B00320BDE8F08F206A09
:1012C0002844206203E0D4E90121302090476D1EBC
:1012D000EBD3F8E79973000002FCFFFF10B54369F8
:1012E00013B1AFF3008001E0FFF74EF9012010BD0C
:1012F000127800F124010A7000224A700122EDE701
:1013000011684FF0FF32E9E710B5436913B1AFF34D
:10131000008001E0FFF7D0F9012010BD128800F134
:10132000240182840022C2840122EDE711684FF07B
:10133000FF32E9E770B516460C46054600F044F862
:10134000036893F80101012806D0FF2C0FD8185D1F
:1013500068B101202C7070BDD3F8070132462146D8
:1013600003F2071303442846BDE8704018474FF0C6
:10137000FF3070BD00487047300600207546FFF70B
:10138000F9FFAE4605006946534620F00700854642
:1013900018B020B5FEF7CCFFBDE820404FF00006A6
:1013A0004FF000074FF000084FF0000B21F007014D
:1013B000AC46ACE8C009ACE8C009ACE8C009ACE890
:1013C000C0098D467047000010B500F005F8001DFB
:1013D00010BD00BF115A00000048704750060020A1
:1013E0002DE9F0411F46044603260168072A01F44F
:1013F000006004DB08B116A505E016A503E008B1FE
:1014000015A500E015A521F010002060A069C01E00
:10141000A0610FB1401EA0612046FFF77CF84FB1DC
:10142000D4E9012138469047206A401C2062C01C44
:10143000206206E0206AFAE7D4E9012115F8010BE1
:101440009047761EF8D22046FFF77BF8BDE8F08182
:101450004E414E006E616E00494E4600696E660058
:101460002DE9F047814616468AB0354878440DC8C4
:101470008DE80D0032487844801C03AC0DC884E828
:101480000D0041F69B300844372190FBF1F290FBB0
:10149000F1F5A5F1800501FB12041B3C02D5644265
:1014A000012000E00020DFF898A080460027FA44E1
:1014B000AAF1BE0A0EE0E0070AD03246684607EB02
:1014C000470101230AEB810100F01EFB8DE80700B4
:1014D00064107F1C002CEED1194F7F44AE3F19E001
:1014E000E80715D007EB04100DF1180A90E80E007C
:1014F0008AE80E00C068F04201D19819089032467F
:10150000012306A903A800F0FFFA03AB83E8070054
:101510006D10641C002DE3D14FF001033246694683
:10152000B8F1000F03A802D000F0D9FA01E000F0F2
:10153000EBFAC9E90001C9F808200AB0BDE8F08754
:10154000A470000010B50446AFF300802046BDE84B
:101550001040FEF7D8BE00004FF0013C50F8042BBD
:1015600051F8043B9A4221D1A2EB0C03934313EAB6
:10157000CC1317D150F8042B51F8043B9A4215D1E3
:10158000A2EB0C03934313EACC130BD150F8042BBA
:1015900051F8043B9A4209D1A2EB0C03934313EA9E
:1015A000CC13DBD04FF00000704700BFD01A01BA57
:1015B000B1FA81F101F0180122FA01F0CB40C1F13A
:1015C0002001DBB2C0B2C01A2CFA01F3D11A914348
:1015D00011EAC311E6D1704701491820ABBEFEE7FE
:1015E0002600020070475FEA400C08BF91F0000F30
:1015F0004FEA8C234FEAC12243EA51514FEA1C5073
:1016000018BF00F5F0404FEA300018BF41F000412C
:101610005FEA6C5C00F02980BCF1FF3F08BF40F03E
:1016200080407047130C06BF12044FF0100C4FF0AF
:10163000000C130E04BF12020CF1080C130F04BFB0
:1016400012010CF1040C930F04BF92000CF1020C78
:10165000D30F04BF52000CF1010C11464FF00002F1
:10166000A0F11F00A0EB0C00704711F0004F08BF65
:10167000704731F000413FF4D5AF0B0C06BF0904B1
:101680004FF0100C4FF0000C0B0E04BF09020CF1D0
:10169000080C0B0F04BF09010CF1040C8B0F04BFE5
:1016A00089000CF1020CCB0F04BF49000CF1010CB6
:1016B000CCF12003A0EB0C0022FA03F302FA0CF2A7
:1016C00041EA030100F10100704720F07F4C80EAFD
:1016D000030023F07F47ACEB070303F57C5300F0D6
:1016E000004003F1FF032DE980494FEA154B09B48F
:1016F0004FEA144325EA0B4E24EA03480FF204266E
:1017000006EB132749083E785FEA320203FB0667BF
:10171000C7F5000707FB06F64FEA54374FEAD646EF
:1017200006F1020607FB066CCCF1005C4FEA1C4791
:101730002CEA074C07FB06F40CFB06F504EB1546F8
:101740004FEA961634BF00204FF000404FEAD137E1
:1017500006FB07FC4FEA1C4C0CFB0BF7D21B03FBF0
:101760000CF761EB07010CFB0EF7B0EB074072EBD7
:1017700017420CFB08F734BFA2EB0742B2EB07425B
:1017800061EB17414FEA0C444FEA910706FB07FC57
:101790004FEA1C4C0CFB0BF7B0EBC74072EB573217
:1017A00003FB0CF734BFA2EBC742B2EBC74261EBBD
:1017B00057310CFB0EF7B0EBC70072EB57720CFB06
:1017C00008F734BFA2EBC702B2EBC70261EB577157
:1017D000039F4FEA816141EA921104EBCC044FEA86
:1017E000D1374FEA826206FB07FC42EA90124FEAC9
:1017F00080604FEA1C4C0CFB0BF7D21B03FB0CF771
:1018000061EB07010CFB0EF7B0EB074072EB1742E0
:101810000CFB08F734BFA2EB0742B2EB074261EBC7
:1018200017414FEA8C554FEA910704EB9C2406FBC5
:1018300007FC4FEA1C4C0CFB0BF7B0EBC74072EBFC
:10184000573203FB0CF734BFA2EBC742B2EBC742DF
:1018500061EB57310CFB0EF7B0EBC70072EB577220
:101860000CFB08F734BFA2EBC702B2EBC70261EB77
:10187000577115EB4C254FEA816141EA92114FEA0D
:1018800082624FEAD13742EA901206FB07FC44F12C
:1018900000044FEA80604FEA1C4C0CFB0BF7D21B94
:1018A00003FB0CF761EB07010CFB0EF7B0EB0740F5
:1018B00072EB17420CFB08F734BFA2EB0742B2EB06
:1018C000074261EB174115EB1C154FEA813141EAE4
:1018D00092414FEA823242EA90424FEA80304FEA28
:1018E0000C7644F1000448EA03434EEA0B484FF0FB
:1018F000000EB2EB080C71EB030724BF62463946B9
:101900004EEB0E0E4FF0000B0018524149414BEBCD
:101910000B0BB2EB080C71EB03077BF1000B24BF40
:10192000624639464EEB0E0E4FF0000B0018524146
:1019300049414BEB0B0BB2EB080C71EB03077BF14E
:10194000000B24BF624639464EEB0E0E51EA0207E9
:1019500018BF46F0010616EB0E7655F1000254F161
:10196000000103D5BDE88901BDE80088BDE8890113
:10197000BDE80048B619524141EB0101A3F1010352
:10198000704780807F7E7D7C7B7A797877767675EC
:101990007473727171706F6E6E6D6C6C6B6A6A6964
:1019A0006868676666656464636362616160605FFE
:1019B0005F5E5E5D5D5C5C5B5B5A5A595958585777
:1019C00057565655555554545353525252515150DF
:1019D00050504F4F4F4E4E4D4D4D4C4C4C4B4B4B32
:1019E0004A4A4A4949494848484747474746464678
:1019F00045454544444444434343434242424241B3
:101A00004141002B9C4630D477002BD01CB54FEAC7
:101A1000370703B44FF010004FF01001BAF1000F78
:101A200006D0BCF1000FDCBF40F0080040F0080118
:101A30004FF000000FBCBDE810400BF1010BBBF1F3
:101A4000010F08BF5FEA170722BF12F1010211F16F
:101A500001014FF0004143F1000300F0004043EA70
:101A600000007047F9D35708D0E746EA064613F15D
:101A7000400F4FEA16461FDD13F1200FDFBF16435C
:101A80000A46002120335B42BED0C3F1200746EA5C
:101A9000064602FA07F74FEA164646EA0706C3F17A
:101AA000200722FA03F201FA07F721FA03F14FF0B7
:101AB000000342EA0702A7E746EA020646EA0646AC
:101AC0004FEA164646EA0106BCBF46EA0646360C11
:101AD0004FF000034FF000024FF0000194E72DE9B2
:101AE000804C9A46934670B491E8380007C831EAB2
:101AF000400C48BF34EA430C03D5FFF7E6FDFFF77F
:101B000080FFF0BCBDE8008C2DE9804C9A469346DE
:101B100070B491E8380007C810F0804F08BF13F088
:101B2000804F03D100F005F8FFF76BFFF0BCBDE874
:101B3000008C20F07F4780EA030023F07F4C07EB06
:101B40000C03A3F57C5300F00040A3F1FE0392F0D8
:101B5000000F00F0B38095F0000F00F077802DE9C2
:101B600001494FEA11404FEA144621EA004800FBC0
:101B700006FC24EA064708FB06F607FB08F800FB0C
:101B800007F718EB06484CEB164C4FEA124B18EBD4
:101B900007484FEA15464CEB174022EA0B4E0BFB69
:101BA00006FC25EA06470EFB06F607FB0EFE0BFBBE
:101BB00007F71EEB064E4CEB164C4FF000061EEBE3
:101BC000074E4CEB174B18EB0B0840F1000018EBDD
:101BD0000E0B58EB000840F100008F1A4FF0000187
:101BE0003CBFC943661B14BFB5EB040C00213CBFCE
:101BF000C943F61B4FEA17444EEA8E0E27EA044506
:101C00004FEA1C4704FB07622CEA074C05FB07F769
:101C10000CFB05F604FB0CFC16EB074642EB1742E7
:101C200016EB0C4642EB1C421BEB060658EB02027D
:101C3000414146EA9E0601D5BDE80189B6195241E7
:101C400041EB0101A3F10103BDE801894FEA14450D
:101C50004FEA114724EA054621EA074C05FB07F441
:101C600006FB07F70CFB06F105FB0CFC11EB07412B
:101C700044EB17444FEA124711EB0C4144EB1C4470
:101C800022EA074C05FB07F206FB07F70CFB06F6FA
:101C900005FB0CFC16EB074642EB174216EB0C4615
:101CA00042EB1C456A1854F1000148BF7047B61951
:101CB000524141EB0101A3F10103704795F0000F80
:101CC00037D04FEA11424FEA144721EA024624EA8C
:101CD000074C02FB07F106FB07F70CFB06F402FBBF
:101CE0000CFC14EB074441EB17414FEA154714EB8A
:101CF0000C4441EB1C4125EA074C02FB07F506FBAF
:101D000007F70CFB06F602FB0CFC16EB074645EB4F
:101D1000174516EB0C4645EB1C42121951F1000118
:101D200048BF7047B619524141EB0101A3F10103CD
:101D300070474FEA14454FEA114724EA054621EA65
:101D4000074C05FB07F106FB07F70CFB06F24FF00B
:101D5000000605FB0CFC12EB074241EB174112EBAE
:101D60000C4251EB1C4148BF7047921841EB0101F6
:101D7000A3F1010370470146406A026C12F0500F54
:101D800003D0806B026B08461047016C41F4007170
:101D900001640168C96811F4406F0CD1417E51B9EA
:101DA000016C21F480710164016CC90403D4016CDD
:101DB00041F00101016400F0BFBA406A016C41F0DA
:101DC00040010164416C41F00401416400F027BB13
:101DD000406A00F023BB000070B5044600688168CB
:101DE00001F00301012926D10168C90723D08168C8
:101DF00001F00D01012910D1816841F002018160DB
:101E000021680320086001F075F805460FE000BF67
:101E100001F070F8401B022809D9206C40F0100036
:101E20002064606C40F001006064012070BD206897
:101E30008068C007ECD1002070BD000070B504467A
:101E40000068816801F00301012902D10168C90716
:101E500020D18168104A11420DD1816841F0010101
:101E6000816001F047F805460FE000BF01F042F83D
:101E7000401B022809D9206C40F010002064606CDF
:101E800040F001006064012070BD20680068C0431C
:101E9000C007EBD1002070BD3F000080FEE70000CE
:101EA000014800F087BC00005C030020014800F0FE
:101EB00084BE000018030020054A01681144142262
:101EC000B1FBF2F1890001640249C163704700006F
:101ED000F8FFFDBF0000024030B590F840500124EB
:101EE000AC40C56B6C60046863604368102B03688A
:101EF00003D099600068C26030BD9A600068C1601C
:101F000030BD704772B6FEE770B5026800234FF02F
:101F1000A04494B0A24200D1314C009490F83C40CF
:101F2000012C1FD0012480F83C40926852074CD409
:101F3000009A9268520748D42A4A0D6840F61F74E6
:101F400045B3956890F8306025F4604545EA46351C
:101F50004E68354395600568AE6806F00306012EAD
:101F600006D102E0022014B070BD2D68ED0731D11A
:101F7000009DAD6805F00305012D03D1009D2D687E
:101F8000ED0727D10D6889680D439168A1430D4382
:101F900095601FE0916821F46041916001688D684F
:101FA00005F00305012D02D10968C90712D1009976
:101FB000896801F00301012903D100990968C90763
:101FC00008D19168A143916004E0016C41F02001C7
:101FD00001640123002180F83C101846C3E700008B
:101FE0000001005000030050F0B594B000250095AA
:101FF00090F83C202E46012A19D0012780F83C7029
:1020000003689A6852077CD44A681F24052A11D2B3
:10201000D3F830C002EB4202520094402CEA040C88
:102020000C6894404CEA040CC3F830C035E0022040
:1020300014B0F0BD0A2A0FD2D3F834C0521F02EBFD
:102040004202520094402CEA040C0C6894404CEA82
:10205000040CC3F834C020E00F2A0FD2D3F838C0E4
:102060000A3A02EB4202520094402CEA040C0C683B
:1020700094404CEA040CC3F838C00EE0D3F83CC0DE
:102080000F3A02EB4202520094402CEA040C0C6816
:1020900094404CEA040CC3F83CC00268936813F007
:1020A0000C0F4FF0070374D1D1F800E0BEF10A0F16
:1020B00010D39469AEF10A0E0EEB4E0C03FA0CFE2F
:1020C00024EA0E04D1F808E00EFA0CFE44EA0E04ED
:1020D00094610FE0D2F814C00EEB4E0403FA04FE34
:1020E0002CEA0E0CD1F808E00EFA04FE4CEA0E0CB5
:1020F000C2F814C002684C69D2F80CC0CCF3C10C11
:1021000000E0E1E04FEA4C0C04FA0CF4D1F810E0E6
:10211000DFF810C2BEF1010F42D0BEF1020F4DD068
:10212000BEF1030F58D0BEF1040F63D0146E91F8C6
:1021300000C004F0F844B4EB8C6F03D1146E24F0AB
:10214000004414660268546E91F800C004F0F8442C
:10215000B4EB8C6F03D1546E24F0004454660268D3
:10216000946E91F800C004F0F844B4EB8C6F03D186
:10217000946E24F0004494660268D46E91F800C016
:1021800004F0F844B4EB8C6F03D1D46E24F0004417
:10219000D4660268946804F00304012C3AD136E056
:1021A000D2F860E00EEA0C0E91F800C044EA8C64AC
:1021B0004EEA040E4EF000441466EAE7D2F864E0FA
:1021C0000EEA0C0E91F800C044EA8C644EEA040E4C
:1021D0004EF000445466DCE7D2F868E00EEA0C0EDC
:1021E00091F800C044EA8C644EEA040E4EF00044BC
:1021F0009466CEE7D2F86CE00EEA0C0E91F800C0BF
:1022000044EA8C644EEA040E4EF00044C0E71468C1
:10221000E4075ED1CC68012C06D052F8B03F0C78B0
:10222000A740BB43136020E052F8B04F91F800C0C4
:1022300007FA0CF73C4314600A6804680A2A0AD3B8
:10224000A769093A02EB420293409F438B6893408F
:102250001F43A76109E06769521C02EB42029340E9
:102260009F438B6893401F43676109682E4A10297A
:1022700004D0112905D0122906D02AE093681B0248
:1022800004E09368DB0101E093685B02002B20DB34
:1022900003684FF0A044A34202D1244F009700E00E
:1022A00000949F6807F00307012F02D11F68FF0702
:1022B0000AD1009F8FB1BF6807F00307012F0CD12F
:1022C000009F3F68FF0708D0016C41F020010164C6
:1022D000012580F83C602846AAE6102908D011297B
:1022E0001AD01229F5D1916841F480019160F0E78C
:1022F000A342EED1916841F4000191600C490D4A6E
:102300000968B1FBF2F101EB8101490000E0491ECF
:1023100000910029FBD1DCE7A342DAD1916841F0BA
:102320008071E3E700F0FF830003005000010050DC
:10233000C401002040420F00F0B4314988425CD112
:10234000304C0020052504F13C0300224FEA020135
:1023500001EB410604EB8606491C36F8106089B291
:1023600032440529F4D3B2FBF5F123F81010401CD8
:1023700080B20628E9D3244918880B464C889FED83
:10238000231ADFED231ADFED232A9FED230A9A8813
:10239000D3ED070AB3EE042AA04213D9831A03EE41
:1023A000103A4880B8EEC33A23EE013A63EE213A80
:1023B00083EE823A63EE203AB0EE403A03EEA23A60
:1023C00081ED043A904212D288804A88101A03EEB6
:1023D000100AB8EEC33A23EE011A21EE211AC1EE1B
:1023E000021A61EEA00A00EEA20A81ED040AF0BC16
:1023F0001E220449024800F059B9F0BC70470000A1
:10240000C80200202C0200200000002000008039BB
:10241000333353404A0CC23FD509E83D70477047FB
:10242000F0B54FF0000595B004002F462E460095FC
:1024300005D0206CC00648D4206C18B133E00120D0
:1024400015B0F0BD6664E664A66484F83C6020467E
:1024500000F0D8F820688068C00024D42046FFF738
:10246000BBFC0546206CC0061DD4E5B9206C20F4E9
:10247000885040F0020020642068816821F04051BB
:1024800081602068816841F08051816057485849D7
:102490000068B0FBF1F000EB8000400000E0401E5F
:1024A00000900028FBD120688168C90002D58068AF
:1024B00080000AD5206C20F0020040F0100020645B
:1024C000606C40F0010060640125206CC0067DD482
:1024D000002D7BD12068816849077ED4216C21F4CE
:1024E000807141F00201216442494FF0A0429042C4
:1024F00000D1414A0092826802F00302012A02D10F
:102500000068C00710D1009840B1806800F0030057
:10251000012803D100980068C00705D18868626867
:1025200020F4403010438860D4E902100843616B06
:10253000012902D04FF4805200E00022617E42EA7D
:102540004132104394F820203843012A0AD1A9B11E
:10255000216C21F0020141F020012164616C41F005
:1025600001016164A16A012902D0E26A11430843B2
:1025700021688A6812F00C0F08D013E0A18C1F4A62
:1025800002EB4141014341F48030EBE7CA6844F279
:1025900002039A43CA60217E94F83020890341EAFD
:1025A000420108432168CA68154B1A400243CA60B9
:1025B000206901282068016B21F00F0102D1E26936
:1025C000521E114301636664206C00E005E020F0B8
:1025D000020040F00100206406E0206C20F00200C0
:1025E00040F0100020640125284629E7C40100209E
:1025F00040420F0000030050000100500000FEFFA9
:1026000007C0F0FF70B586B0064614216846FDF796
:102610004DFF3068B0F1A04F3ED12049486940F0ED
:1026200080504861486900F080500590486940F446
:1026300000304861486900F400300590486940F472
:10264000802048614869032400F4802005900F2011
:1026500000258DE8310069464FF0904000F072FB94
:10266000009469460E48CDE9014500F06BFB0E4C25
:102670000C48C4E900058020C4E9025040002061F4
:102680008000C4E905052046E56100F0EAFA08B1DA
:10269000FFF738FCB463666206B070BD00100240FC
:1026A0000004004808000240180300202DE9F0470C
:1026B0000446006890468946806840076ED494F8C6
:1026C0003C0001280CD001204FF0A04684F83C00CB
:1026D000D6F808034FF00007C00604D0012507E034
:1026E0000220BDE8F0872046FFF7A8FB050002D0D6
:1026F00084F83C7053E0206C40F60161884340F45C
:1027000080702064D6F80803C00602D02068B0426A
:1027100006D1206C20F4801020642068C06807E097
:10272000216C41F4801121641E49884208D1F0686F
:10273000800105D5206C20F4005040F480502064C6
:10274000206CC00404D5606C20F00600606400E0DA
:10275000676484F83C70A16B13488862A16B1348CE
:10276000C862A16B1248086321681C2008602068B9
:10277000416841F0100141602068C16841F00101E9
:10278000C160216843464A464031A06B00F090FA90
:102790002068816841F00401816000E0022528463C
:1027A0009FE7000000010050771D0008D11D0008C0
:1027B000BB1D000810B50F4A0168914201D14904C0
:1027C00006E00C4A0832914201D1C90600E001211D
:1027D000094B0A4CCA0701D01A6800E022680A4275
:1027E00006D0CA0701D0196000E0216000F0FEF8B1
:1027F00010BD0000200001403404014014040140D9
:1028000038B504004FF0000503D094F82900C00645
:1028100001D5012547E02548816941F00101816129
:10282000806900F001000090204600F045F894F81F
:102830002910002009B984F828006068602806D1B2
:102840001B492068884201D1602000E0194860607F
:1028500021680A68174BDB431A4002430092A068C4
:1028600010430090A26920F4402010430090A289F8
:1028700020F4705002F4705210430090226920F44A
:102880000040104300906069009A10430090E06996
:10289000009A10430090206A009A1043009008604C
:1028A000012084F82900284638BD000000100240AD
:1028B000200001407000400010B586B0044614218D
:1028C0006846FDF7F3FD1149206888421BD1104886
:1028D000416941F4003141614069694600F40030CA
:1028E00005908020009003200190002002904FF07E
:1028F000904000F027FA00220121402001F002F868
:10290000402000F0F1FF06B010BD000020000140A3
:102910000010024030B50024C0B390F82910C90659
:1029200056D490F82910012952D1426A91074FD00C
:10293000294B0168994201D1490406E0264B08332E
:10294000994201D1C90600E00121D507234B244A51
:102950004FEAC17506D015B11A680A4305E013683D
:102960000B4306E01DB11A688A431A6002E013683F
:102970008B43136090F824201B4B9507194A4FEAAC
:10298000C17507D51DB113680B4306E020E01A6836
:102990000A430BE045B113688B431360114A0832B8
:1029A00011600E4A083A07E01A688A431A600E4A14
:1029B000083211600A4A083A13680B431360016831
:1029C0000A6842F001020A60022180F8291000E042
:1029D0000124204630BD00002000014028040140B1
:1029E000080401402C0401400C04014070B5294941
:1029F00088424DD1284D2868406A284C80B2A08179
:102A00006189411A642942DD21784FF09040D1B1AB
:102A10000122402100F068FA2078B0B10020207037
:102A20001D4801F073FD21781D4881B1E189A2891B
:102A30000A44617820F81120491C617061780026F1
:102A4000052907D01AE00022E3E70120E7E7A18982
:102A5000E181F3E7667001884288C3881144828867
:102A600000891A441144084405212062B0FBF1F0AA
:102A7000401DE08044F6206004F052F9A681668192
:102A800028684662BDE87040034801F0E1BC6081FF
:102A900070BD00005C030020C8040020000000207E
:102AA00074020020F0B54379134F0568012B1CD048
:102AB00001264671022303712C6840F6FE73BD4265
:102AC00000D1A2B193409C430B6889680B439340AB
:102AD00023432B6001680B68C0249440A3430B6020
:102AE0000671002141710846F0BD0220F0BD9C43F3
:102AF000D1E90031EAE700000074004070B504003D
:102B000003D02079002510B105E0012070BD65716A
:102B1000204600F007F80220207125610120207175
:102B2000002070BD08B500680649884208D10648F3
:102B3000C16941F00051C161C06900F000500090CE
:102B400008BD0000007400400010024018B5046881
:102B500000940068104421B11430009003600020FC
:102B600018BD0830F9E730B54279012A12D00122A8
:102B700042710223037103681D6802FA01F42543C0
:102B80001D60002901680B6806D0C3F383430F2B37
:102B90000AD00DE0022030BDC3F383030F2B07D111
:102BA0004B6843F0010302E04B6843F002034B60C3
:102BB000027100214171084630BDF0B4C16B0D684F
:102BC00001680C68066C042202FA06F32B420FD04F
:102BD00063070DD50B689B0603D40B6823F0040331
:102BE0000B6090F840108A40C16B4A60C16A1BE0DC
:102BF000022303FA06F72F424FF0000C4FF00102B8
:102C000016D0A70714D50C68A40605D40C6824F0C8
:102C10000A040C6080F8212090F840108B40C16BB2
:102C20004B6080F820C0816A002918D0F0BC0847AA
:102C30000823B3402B4212D0230710D50B6823F092
:102C40000E030B6090F84010C36B02FA01F159605B
:102C5000826380F8212080F820C0016BE4E7F0BC9B
:102C6000704770B5040021D0022084F8210022684A
:102C7000116843F6F0708143D4E901031843D4E9A5
:102C800003352B43184363691843A3691843E36969
:102C90001843084310602046FFF70EF90020A06398
:102CA000012184F8211084F8200070BD012070BD3E
:102CB00070B5044690F82000002501280CD00120B2
:102CC00084F8200094F821600020012E06D084F8BA
:102CD00020000225284670BD022070BD022684F81F
:102CE0002160A0632068066826F001060660204681
:102CF000FFF7F2F8E06A00282068016802D041F08E
:102D00000E0106E041F00A0101602068016821F02F
:102D1000040101602068016841F001010160D9E708
:102D200070B5044600F0E6F80546601C02D0044881
:102D30000078044400F0DEF8401BA042FAD370BDD6
:102D4000B80100202DE9FC4FDFF884A10023012504
:102D50000AF1040B03244FF00F0C0BF1040EB0E04A
:102D600005FA03F73A406ED04E68012E05D0022EC8
:102D700003D0112E01D0122E17D1D0F808905E008A
:102D800004FA06F829EA08090096D1F80C8008FA36
:102D900006F848EA0908C0F808804668BE430F797B
:102DA000C7F300179F4037434760C6684FEA4308A0
:102DB00004FA08F7BE4301978F6807FA08F737430C
:102DC000C7604E68022E01D0122E10D1DE0800EB33
:102DD00086060096366A5F074FEAD7690CFA09F74C
:102DE000BE430F6907FA09F73743009E376206684A
:102DF000019FBE430F7907F0030707FA08F737432F
:102E000007604E68F6005BD5324EB76947F00107A0
:102E1000B761B66923F0030706F0010600962E4E4F
:102E20003E44B146B6689F074FEA17780CFA08F798
:102E3000BE43B0F1904F04D0284FB84204D10127CF
:102E40000DE000270BE03BE0254FB84201D10227FF
:102E500005E0244FB84201D1032700E0052707FA17
:102E600008F73743C9F80870DAF800605746D1F818
:102E7000048096435FEAC83800D516433E60DBF80D
:102E800000605F46D1F8048096435FEA883800D539
:102E900016433E60DEF800607746D1F80480964322
:102EA0005FEAC82800D516433E60094F0C373E68DC
:102EB000D1F8048096435FEA882800D516433E6027
:102EC0005B1C0E683246DE407FF44AAFBDE8FC8FE3
:102ED00000040140001002400000014000040048CE
:102EE00000080048000C00480AB181617047816207
:102EF000704700000148806870470000B80100205A
:102F0000F0B590F8C130022B27D090F8C030012BDB
:102F100023D0012580F8C050022380F8C130046816
:102F2000D4F880330026012919D0022921D00429A0
:102F30002BD0082935D0072180F8C11080F8C06057
:102F400090F8C110072938D00168C1F8803380F8A3
:102F5000C15080F8C0600020F0BD0220F0BD23F415
:102F6000E021136803F4E0230B435168C4F8BC1359
:102F7000E6E723F4601113684FF4601707EAC30310
:102F80000B435168C4F8C013DAE723F0E07113680B
:102F90004FF0E07707EA83130B435168C4F8C4137A
:102FA000CEE723F0606113684FF0606707EA4323C0
:102FB0000B435168C4F8C813C2E70120F0BD10B537
:102FC00090F8C020012A21D0012280F8C0200223DD
:102FD00080F8C1304B1C1BD00368D3F8CC4344F0BD
:102FE0000204C3F8CC430368D3F8CC4324F00C04A8
:102FF0000C43C3F8CC430168D1F8CC3343F0010350
:10300000C1F8CC3380F8C120002010BD022010BDD3
:103010000168D1F8CC3323F00203C1F8CC33EAE7DE
:1030200070B590F8C130022B3CD090F8C030012B25
:1030300038D0012500F8C05F0223437013889488BC
:1030400003F4E053C4F308041C4313896FF07E4675
:1030500003F400732343148A04F480441C439389CB
:1030600003F400432343948A06EA04441C4393690F
:1030700003F000732343146AD26904F080441C43B4
:1030800002F00042224350F8C03CB82404EBC114C3
:103090001959054E314011431951457000210170F5
:1030A000084670BD022070BD0020003C38B5040009
:1030B00054D0022084F8C1000025C4F8C450C4F8DC
:1030C000C850C4F8CC50C4F8D050C4F8D450C4F898
:1030D000D850207AC0071BD021492068884208D1E7
:1030E0002048816941F000518161806900F0005001
:1030F00000902168086820F44042208A00F4404093
:10310000104320F44052A08A00F44050104308605D
:10311000204600F029F8207A800708D52168086841
:1031200020F44072A08900F4407010430860012030
:1031300084F8C10084F8C0505FF00001C1EBC10009
:1031400004EB8000491C8561C561056245628562AA
:10315000C9B205630529F1D9002038BD012038BD69
:10316000007401400010024008B50068064988421A
:1031700008D10648816941F000518161806900F001
:103180000050009008BD0000007401400010024093
:10319000F0B587B0044614216846FDF787F9164953
:1031A0002068884225D11548416941F48021416158
:1031B000416901F480210591416941F40031416187
:1031C0004069022400F4003005904FF4704000255F
:1031D00003260D278DE8F10069460948FFF7B2FD87
:1031E0004FF470608DE8F10069464FF09040FFF7B2
:1031F000A9FD07B0F0BD00000074014000100240BE
:103200000004004870B50D460446FFF773FE0646FD
:1032100007E0681C05D0FFF76DFE801BA8420DD8A3
:1032200065B12068D0F88803C043C003F1D4012001
:1032300084F8C100002084F8C00070BD072084F825
:10324000C100032070BD70B590F8C130022B23D0AF
:10325000022380F8C130052920D08023046803EBC5
:10326000C115635923F007069368334323F018060A
:10327000D368334363519425046805EBC115136883
:1032800063519824036804EBC11152685A5001211C
:1032900080F8C110002070BD022070BD036819685D
:1032A00021F007049168214321F01804D1682143DB
:1032B0001960036811685961516802689161E6E715
:1032C0002DE9F04F90F8C140022C25D090F8C04075
:1032D000012C21D04FF0010980F8C090022480F821
:1032E000C14000274FF0070C052918D09C2404EB9F
:1032F000C116012A39D08024A8254FF4005A4FF472
:10330000405B05EBC11504EBC114022A2FD0042A3F
:1033100045D0082A0BD144E00220BDE8F08F012AF5
:103320000AD0022A0CD0042A0ED0082A10D080F825
:10333000C1C080F8C0700EE002681968D1610AE06F
:1033400002681968516206E002681968916202E039
:1033500002681968D16290F8C110072948D080F836
:10336000C19080F8C0700020D7E7196835E04FF0B1
:10337000A408D0F800C008EBC1111A684CF801206D
:103380005968002901680A5922F440522ED00A5186
:1033900001680A59D3F804C042EA0C0218E019681F
:1033A00021E04FF0AC08D0F800C008EBC1111A685A
:1033B0004CF801205968002901680A5922F440425A
:1033C00014D00A5101680A59D3F804C042EA8C02A9
:1033D0000A515968514503D1996802689151BAE779
:1033E0005945B8D1996802685151B4E70A51B2E71A
:1033F000012092E710B590F8C020012A0ED00122DA
:1034000000F8C02F0223437050F8C03C1C680C43E6
:103410001C60427000210170084610BD022010BDE2
:1034200070B5044690F8C100022811D094F8C0008D
:1034300001280ED0012584F8C050022084F8C10074
:10344000204601F052FB84F8C150002084F8C000EF
:1034500070BD022070BD10B590F8C020012A10D0B8
:10346000012200F8C02F0223437050F8C03CD3F86B
:1034700094430C43C3F89443427000210170084602
:1034800010BD022010BD2DE9F041054690F8C100A5
:1034900014460E46022825D095F8C000012823D0F6
:1034A000012785F8C070022085F8C100052E1DD0C7
:1034B000284601F081FBC6EBC60005EB80002168C1
:1034C000016261684162A1688162E168C16221694B
:1034D00001633146284601F0DBFA85F8C17000200F
:1034E00085F8C000BDE8F0810220FBE7286801688C
:1034F000D0F8A02321F020036169194321F400636F
:10350000A169194321F48063E169194321F0C06383
:10351000216A194321F00063616A1943A36A21F00B
:10352000404141EA830121F00053216B194322F409
:103530008033E26A01601A432868C0F8A023BAE722
:1035400090F84120202A24D190F84020012A20D050
:10355000012280F84020242280F84120026813686C
:1035600023F0010313600268136823F4805313608F
:10357000026813680B43136001680A6842F0010295
:103580000A60202180F84110002180F84010084690
:1035900070470220704790F84120202A22D190F8ED
:1035A0004020012A1ED0012280F84020242280F8E9
:1035B00041200268136823F0010313600268136856
:1035C00023F4706343EA0121116001680A6842F044
:1035D00001020A60202180F84110002180F840108B
:1035E000084670470220704770B5040004D094F874
:1035F0004100002510B106E0012070BD84F8405064
:10360000204600F0DFF8242084F84100206801689B
:1036100021F0010101606068216820F0706008619C
:103620002068816821F400418160E0680128A06879
:1036300007D040F4044021688860E068022803D085
:1036400006E040F40040F6E721684FF4006048606F
:1036500020684168114A114341602068C16821F423
:103660000041C160D4E904010843A16940EA012096
:103670002168C860D4E90701084321680860206810
:10368000016841F0010101606564202084F8410077
:10369000256384F84250002070BD000000800002C5
:1036A0002DE9F84F044690F84100DDF828A01F46A8
:1036B00090468B4620287ED194F8400001287AD08D
:1036C000012084F84000FFF715FC06460122009017
:1036D0001923D103204601F07BFBE0BB212084F8B5
:1036E0004100102084F8420000256564C4F824805D
:1036F00067856563618D3148FF274FF080784FF013
:103700000079FF2903D927853A46009039E0618D79
:10371000218500903AE05946204601F043FB13E032
:1037200001F0A8FBB8B9606A216800788862606A15
:10373000401C6062608D401E6085208D401E80B2FE
:103740002085618D01B168B1608D324600285146F7
:103750002046E5D100E002E001F066FBD0B1012097
:10376000BDE8F88F5346002280212046009601F0E4
:103770002FFB0028F3D1608DFF2804D927853A4616
:1037800000954346C7E7608D2085009594F8282072
:103790004B46C0E721682020C86121684A68084B71
:1037A0001A404A6084F8410084F8425084F840503E
:1037B0000020D5E7FFE70220D2E7000000200080CC
:1037C00000E800FE2DE9F04186B004461421684669
:1037D000FCF76CFE1949206888422BD1184C6069AF
:1037E00040F400306061606900F400300590606969
:1037F00040F4802060616069122500F4802005900B
:10380000C813012603274FF004088DE8E10169463B
:10381000A806FFF797FA60158DE8E10169460948A7
:10382000FFF790FAE06940F40010E061E06900F40D
:103830000010059006B0BDE8F08100000054004083
:1038400000100240000400480248816802781144D8
:1038500081607047B8010020074810B5016841F049
:1038600010010160032000F06DF8002000F006F860
:1038700000F024F8002010BD0020024070B50D4D6E
:1038800004464FF47A712878B1FBF0F00A490968D0
:10389000B1FBF0F000F01AFD48B9102C07D200225D
:1038A0002146501E00F02EF800206C6070BD0120F3
:1038B00070BD0000B8010020C4010020094808B50F
:1038C000816941F001018161816901F0010100918B
:1038D000C16941F08051C161C06900F08050009021
:1038E00008BD000000100240002809DB00F01F02A4
:1038F000012191404009800000F1E020C0F8001152
:1039000070470000F0B40E4B1B680C46C3F3022353
:10391000C3F10705042D00D90425191D072901D27B
:10392000002300E0DB1E012606FA05F1491E2140B6
:1039300099409E40761E16403143F0BC02F0F9B922
:103940000CED00E0064900F0070208684FF6FF039F
:10395000184040EA0220034A104308607047000004
:103960000CED00E00000FA052DE9F84F0446006870
:1039700000265C4DC0036ED5E869C00008D4E86934
:1039800040F08050E861E869012600F08050009026
:1039900055480168C90512D40168804641F4807118
:1039A0000160FFF7A7FA074605E000BFFFF7A2FA9C
:1039B000C01B642835D8D8F80000C005F6D5286AA1
:1039C00010F4407053D0A18801F4407181424ED070
:1039D000286A4FF4803191FAA1F2B2FA82F297008C
:1039E000424A4FF00108174420F44070C7F80084A1
:1039F00091FAA1F1B1FA81F102EB81010023C1F842
:103A000000342862C00732D0FFF774FA074641F24B
:103A1000883A4FF0020907E0FFF76CFAC11B5145E5
:103A200002D90320BDE8F88F99FAA9F1B1FA81F122
:103A300041F040014846B8EB511F01D129680CE024
:103A400090FAA0F1B1FA81F141F04001B0EB511FC1
:103A500002D1296A01E015E0696A99FAA9F0B0FA81
:103A600080F000F01F0008FA00F21142D4D0286A5A
:103A7000616820F44070084328621EB1E86920F0B4
:103A80008050E8612078C00705D0286BA16820F03D
:103A90000300084328632078800605D5286BE16879
:103AA00020F01000084328632078000605D5E86A56
:103AB000216920F4F8700843E8622088C00405D525
:103AC000286B616920F480700843286320884004D3
:103AD00005D5286BA16920F4805008432863002095
:103AE000A0E70000001002400070004000004242C9
:103AF0002DE9F0470F46050069D04A4E306800F0C6
:103B00000700B84209D2306820F00700384330601F
:103B1000306800F00700B84259D12878424C80073D
:103B200005D56068A96820F0F00008436060287837
:103B3000C0073DD06968012001290DD0022923D09A
:103B40005FF0020393FAA3F2B2FA82F242F020028B
:103B5000520904D0226803E04FF40033F2E7626AAE
:103B600093FAA3F3B3FA83F303F01F0398400242DE
:103B70002DD0606820F0030008436060FFF7BAF9B9
:103B8000804641F288390CE04FF00073DAE700BF5D
:103B9000FFF7B0F9A0EB0801494502D90320BDE8C1
:103BA000F0876068696800F00C00B0EB810FEFD11E
:103BB000306800F00700B8420BD9306820F00700E9
:103BC00038433060306800F00700B84201D001206F
:103BD000E5E72878400705D56068E96820F4E060EB
:103BE000084360602878000706D56068296920F4DA
:103BF000605040EAC100606000F04EF86168F02259
:103C000092FAA2F201F0F001B2FA82F2D140074A30
:103C1000515CC8400649086006480068FFF72EFE60
:103C20000020BCE700200240001002407C83000816
:103C3000C4010020BC010020084809490068496807
:103C40004FF4E06292FAA2F201F4E061B2FA82F279
:103C5000D140044A515CC84070470000C4010020B4
:103C6000001002408C830008084809490068496830
:103C70004FF4605292FAA2F201F46051B2FA82F269
:103C8000D140044A515CC84070470000C401002084
:103C9000001002408C830008164A10B5516816487F
:103CA00001F00C03042B20D0082B1ED14FF470140C
:103CB00094FAA4F401F47013B4FA84F4E3400F4CC2
:103CC000D26AE45C0F2393FAA3F302F00F02B3FA73
:103CD00083F3DA40094B1033C9039A5C06D50023FD
:103CE0001946FCF737FBA0FB040110BD0448A4FBF8
:103CF000000110BD0010024000127A005C83000831
:103D000000093D002DE9F84F050071D02878FC4EE0
:103D1000C0074FF0010425D070686704C0F381002C
:103D2000012807D07068C0F3810002281BD1706899
:103D3000C00318D597FAA7F0B0FA80F040F0200041
:103D4000400901D0306800E0706A97FAA7F1B1FA33
:103D500081F101F01F0104FA01F1084265D06868A1
:103D60000028D2D061E06868B0F5803F0BD010B178
:103D7000B0F5A02F17D0306820F480303060306864
:103D800020F4802002E0306840F480303060F06A37
:103D9000A96820F00F000843F062686820B3FFF7BD
:103DA000A9F880460AE0306840F480203060EAE7F5
:103DB000FFF7A0F8A0EB0800642871D897FAA7F0E5
:103DC000B0FA80F040F02000400901D0306800E0F7
:103DD000706A97FAA7F1B1FA81F101F01F0104FAB4
:103DE00001F10842E4D020E0FFF784F8804607E0C4
:103DF000C2E000BFFFF77EF8A0EB08006428DCD823
:103E000097FAA7F0B0FA80F040F02000400901D006
:103E1000306800E0706A97FAA7F1B1FA81F101F019
:103E20001F0104FA01F10842E4D12878DFF8D482B6
:103E300080074FF0000A4FF0020730D570684FF04E
:103E4000F80B10F00C0F07D07068C0F38100022847
:103E500027D17068C00324D497FAA7F0B0FA80F095
:103E600040F02000400901D0306800E0706A97FA05
:103E7000A7F1B1FA81F101F01F0104FA01F1084242
:103E800002D02869012877D130689BFAABF220F084
:103E9000F8016869B2FA82F29040014331605AE059
:103EA00064E1286988B394FAA4F0B0FA80F048F885
:103EB0002040FFF71FF8814606E000BFFFF71AF821
:103EC000A0EB090002289AD897FAA7F0B0FA80F080
:103ED00040F02000400901D0306800E0706A97FA95
:103EE000A7F1B1FA81F101F01F0104FA01F10842D2
:103EF000E4D030689BFAABF26969B2FA82F220F042
:103F0000F80091400843306025E0FFE794FAA4F000
:103F1000B0FA80F048F820A0FEF7ECFF814605E0FB
:103F2000FEF7E8FFA0EB09000228CCD897FAA7F02B
:103F3000B0FA80F040F02000400901D0306800E085
:103F4000706A97FAA7F1B1FA81F101F01F0104FA42
:103F500001F10842E4D1287800076CD5A869A8B31C
:103F600094FAA4F0B0FA80F008EB8000C0F8804426
:103F7000FEF7C0FF814607E0A4E100BFFEF7BAFFED
:103F8000A0EB090002289ED897FAA7F0B0FA80F0BB
:103F900040F06000B4EB501F01D130680BE097FA9D
:103FA000A7F0B0FA80F040F06000B7EB501F01D1ED
:103FB000306A00E0706A97FAA7F1B1FA81F101F076
:103FC0001F0104FA01F21042D8D034E0FFE794FA5E
:103FD000A4F1B1FA81F108EB8101C1F880A4FEF7E8
:103FE00089FF814606E000BFFEF784FFA0EB0900D1
:103FF00002289AD897FAA7F0B0FA80F040F0600053
:10400000B4EB501F01D130680BE097FAA7F0B0FA7B
:1040100080F040F06000B7EB501F01D1306A00E043
:10402000706A97FAA7F1B1FA81F101F01F0104FA61
:1040300001F21042D8D12878400768D5F0694FF0D6
:104040000009C00009D4F06940F08050F061F069C7
:104050004FF0010900F0805000902B480168C9051D
:1040600012D4016841F480710160FEF743FF83467A
:1040700006E000BFFEF73EFFA0EB0B00642875D8FA
:1040800021480068C005F5D5E86801280AD008B1C4
:10409000052811D0306A20F001003062306A20F02B
:1040A000040002E0306A40F001003062E86868B362
:1040B000FEF720FF83460DE0306A40F004003062D6
:1040C000F0E700BFFEF716FFA0EB0B0141F28830CE
:1040D00081424BD897FAA7F0B0FA80F040F0400048
:1040E000B4EB501F01D1306813E097FAA7F0B0FA93
:1040F00080F040F04000B7EB501F09D1306A08E073
:104100000010024000004242007000400CE040E01D
:10411000706A97FAA7F1B1FA81F101F01F0104FA70
:1041200001F21042CED02DE0FEF7E4FE834607E018
:10413000FEF7E0FEA0EB0B0141F28830814215D87A
:1041400097FAA7F0B0FA80F040F04000B4EB501FAF
:1041500001D130680CE097FAA7F0B0FA80F040F097
:104160004000B7EB501F02D1306A01E083E0706A73
:1041700097FAA7F1B1FA81F101F01F0104FA01F2F7
:104180001042D5D1B9F1000F03D0F06920F0805072
:10419000F061E86980B37168C1F38101022977D0C9
:1041A0004FF080714F000228504609D091FAA1F1DA
:1041B000B1FA81F148F82100FEF79CFE05465DE06A
:1041C000894691FAA1F1B1FA81F1C24648F821007D
:1041D000FEF790FE804605E0FEF78CFEA0EB08009F
:1041E000022848D897FAA7F0B0FA80F040F02000F3
:1041F000400902D0306801E066E0706A97FAA7F1E2
:10420000B1FA81F101F01F0104FA01F10842E3D192
:10421000D5E908100843716821F4741108437060EF
:1042200099FAA9F0B0FA80F04AF82040FEF762FE51
:10423000054604E0FEF75EFE401B02281BD897FAF5
:10424000A7F0B0FA80F040F02000400901D03068BB
:1042500000E0706A97FAA7F1B1FA81F101F01F014D
:1042600004FA01F10842E5D02EE000BFFEF742FE5D
:10427000401B022802D90320BDE8F88F97FAA7F067
:10428000B0FA80F040F02000400902D0306801E030
:104290000BE0706A97FAA7F1B1FA81F101F01F0102
:1042A00004FA01F10842E1D10EE00128E4D070687F
:1042B0002A6A00F48031914204D1696A00F47010D6
:1042C000884201D00120D7E70020D5E710B5401E75
:1042D000B0F1807F01D3012010BD4FF0E024606178
:1042E0000F21601701F025FD0020A061072020614B
:1042F000002010BD7047704770470000F0B590F87F
:104300003C20012A2CD0012480F83C40022280F875
:104310003D2003685A689D68124EB34203D122F4CF
:1043200070074A683A4322F070070A683A435A60B5
:104330000268B24208D0B2F1804F05D00A4B9A42CF
:1043400002D00A4B9A4204D1896825F080031943B0
:10435000916080F83D40002180F83C100846F0BD97
:104360000220F0BD002C014000040040004001404C
:1043700010B5040003D094F83D0010B107E001200F
:1043800010BD002084F83C00204600F023F80220F5
:1043900084F83D00211D206801F0B2FA012084F864
:1043A000480084F83E0084F83F0084F8400084F818
:1043B000410084F8420084F8430084F8440084F803
:1043C000450084F8460084F8470084F83D0000204A
:1043D00010BD000008B51A4A01681A48914208D178
:1043E000816941F480318161806900F480300090FE
:1043F00008BD154A91420ED1816941F400318161B5
:104400008069002200F40030009011461920FFF767
:1044100079FA192010E00D4A9142E9D1816941F4FD
:10442000802181618069002200F4802000900121B8
:104430001A20FFF767FA1A20BDE80840FFF754BAC0
:10444000004001400010024000440140004801408B
:1044500090F83D10012901D001207047022180F819
:104460003D1000680C49884208D0B0F1804F05D05B
:104470000A49884202D00A49884207D18168094A1C
:104480001140062906D0B1F5803F03D0016841F004
:104490000101016000207047002C01400004004031
:1044A000004001400700010090F83D10012901D0B3
:1044B00001207047022180F83D100168CA6842F06F
:1044C0000102CA6000680D49884208D0B0F1804FEF
:1044D00005D00B49884202D00A49884207D1816839
:1044E000094A1140062906D0B1F5803F03D0016882
:1044F00041F001010160002070470000002C0140E4
:1045000000040040004001400700010001680A6A01
:1045100041F211131A4207D10A6A9B101A4203D1C1
:104520000A6822F001020A60012180F83D10002093
:104530007047000070B5044690F83C00012817D081
:10454000012584F83C50022084F83D0022689068E0
:104550002E4B184020F47F4090600868502830D0DF
:104560000DDC20284DD005DC98B310283BD148E065
:10457000022070BD302844D0402834D139E0602872
:1045800028D0702806D0B0F5805F2CD0B0F5005F41
:1045900029D10AE0CB68D1E90121206801F0F4F9C2
:1045A0002068816841F0770109E0CB68D1E90121F9
:1045B000206801F0E9F92068816841F48041816058
:1045C00011E0CA684968206801F0F0F950212068BC
:1045D00007E016E0CA684968206801F0F8F9602130
:1045E000206801F0DBF984F83D50002084F83C009D
:1045F00070BDCA684968206801F0D8F94021206878
:10460000EFE7226801461046EBE7000088FFFEFF57
:10461000704770B50446006801694FF00005C94352
:10462000890715D4C168C943890711D4E91E0161FE
:1046300001202077206880698007204602D0FFF79C
:10464000E7FF04E000F0A7F8204600F0A5F8257782
:1046500020680169C943490717D4C168C94349079C
:1046600013D46FF004010161022020772068806973
:1046700010F4407F204602D0FFF7CAFF04E000F0AC
:104680008AF8204600F088F8257720680169C94338
:10469000090716D4C168C943090712D46FF008018D
:1046A0000161042020772068C0698007204602D07D
:1046B000FFF7AEFF04E000F06EF8204600F06CF863
:1046C000257720680169C943C90617D4C168C94361
:1046D000C90613D46FF0100101610820207720680B
:1046E000C06910F4407F204602D0FFF791FF04E03C
:1046F00000F051F8204600F04FF825772068016956
:10470000C943C90708D1C168C943C90704D1891E73
:104710000161204600F042F820680169C94309069A
:1047200009D4C168C943090605D46FF0800101614D
:104730002046FFF7E0FD20680169C943C90509D497
:10474000C168C943090605D46FF480710161204630
:10475000FFF7D0FD20680169C943490609D4C16843
:10476000C943490605D46FF040010161204600F0BD
:1047700029F920680169C94389060BD4C168C94376
:10478000890607D46FF0200101612046BDE8704022
:10479000FFF7B2BD70BD7047704700002DE9F041D2
:1047A00006467948794D7A4C4FF000082DED028B82
:1047B00086422AD16069401C1421B0FBF1F260618D
:1047C00001FB120008BBA4F802804FF48050A080C7
:1047D000D4ED060A9FED6F1A80EE810A84ED060A79
:1047E00010EE100A03F0B0F841EC100B02F0DCF808
:1047F00051EC100B02F018FB9FED670A606284ED2C
:10480000060AB7EE000A85ED080A644886427DD1A3
:104810005E4818380088A0F26C7000EE100AB8EEFE
:10482000C00ADFED5F0A20EE200ADFED5E0AB3EE7C
:10483000041A60EE200A80EE810ADFED5B0A60EE6A
:10484000200A9FED5A1A9FED5A0A00EE810A10EED7
:10485000100A03F079F841EC100B9FED561B01F0A4
:104860007BFAB0EE408AF0EE608AA06903F06CF843
:1048700053EC182B02F00AFB02F0D6FAA061444F69
:10488000208928374D4EC82834D237F81000D5ED8E
:10489000080A00EE100A0021B8EE400A20EE800A55
:1048A000BCEEC00A10EE100A80B202F023FA208992
:1048B000E8B9002210213046FEF716FB00BF00BF0A
:1048C00000BF00BF00BF00BF00BF00BF00BF00BFF0
:1048D00000BF00BF00BF00BF00BF00BF00BF00BFE0
:1048E00000BF00BF012208213046FEF7FDFA2089F3
:1048F000C8283BD380B207EB4000A0F58050D5ED2F
:10490000080AB0F8700E00EE100A00E037E0B8EECA
:10491000401A9FED2B0A002100EEC10ABCEEC00A2E
:1049200010EE100A80B202F0E5F92089C8281DD1E6
:10493000002208213046FEF7D7FA00BF00BF00BFB3
:1049400000BF00BF00BF00BF00BF00BF00BF00BF6F
:1049500000BF00BF00BF00BF00BF00BF00BF00BF5F
:1049600000BF012210213046FEF7BEFA2089401C0C
:1049700080B22081B0F5C87F01D1A4F80880BDECD9
:10498000028BBDE8F08100001405002080020020A9
:10499000000000200000C843000000006005002067
:1049A000000080393333534000007F434A0CC23F3C
:1049B000D509E83D00000000000000400004004868
:1049C0000000B446704710B5040002D0A06F10B1CB
:1049D00007E0012010BD002084F87400204600F09C
:1049E00025F82420A0672068016821F001010160FA
:1049F000204601F091F80128ECD0606A10B1204601
:104A000000F0F7FF2068416821F490414160206880
:104A1000816821F02A0181602068016841F001016C
:104A200001602046BDE8104001F047B810B586B0DF
:104A3000044614216846FBF739FD12492068884274
:104A40001ED11148816941F480418161816901F47D
:104A500080410591416941F4802141614069694685
:104A600000F480200590C0200090022001900020DA
:104A7000029003200390072004900448FEF762F997
:104A800006B010BD0038014000100240000400488C
:104A9000062911D2DFE801F00911171D2303006870
:104AA000D0F8841341F0010104E00068D0F88413C9
:104AB00041F00201C0F8841370470068D0F88413F5
:104AC00041F00401F6E70068D0F8841341F00801D2
:104AD000F0E70068D0F8841341F01001EAE70068BD
:104AE000D0F8841341F02001E4E7F0B50024E42578
:104AF000076805EBC11657F806C0B82505EBC115C8
:104B00007D59202A27D00CDC042A15D004DC012A88
:104B100012D0022A2BD11EE0082A1CD0102A26D13E
:104B20000AE0402A08D0802A15D0B2F5807F03D051
:104B3000B2F5007F1BD10EE04FF0BC0E0EEBC11E94
:104B40005A6847F80E204FF0C00E07680EEBC111EF
:104B50009A687A500BE0C42404EBC1145A683A51A5
:104B6000C827046807EBC1119A6862501024FE211F
:104B7000A1401A682CEA010CA240D96842EA0C0252
:104B8000A14011431A69D3F814C01746A2400A4342
:104B90000CFA04FC99694CEA020CA14041EA0C01B0
:104BA000082F06D1AA0504D4AA0102D4DA69A240CA
:104BB000114300688151F0BD2DE9F04F8024036856
:104BC00004EBC1169C5924F070449C5103689A462A
:104BD0009D59E82404EBC114A64653F80490E4243C
:104BE00004EBC114A3461C59D3F8A03325F02007C9
:104BF00055693D4325F4006795693D4325F4806779
:104C0000D5693D4325F0C067156A3D4325F000672F
:104C1000556A3D4325F07047956A3D43176B25F46F
:104C20000035B7F1005F01D145F4003525F04007AC
:104C3000556BD2F848802F4327F4802C176D47EA34
:104C40000C0727F0FC7748EA070892F8387029F03B
:104C50001F0C07F01F0747EA0C0727F0004CD76B23
:104C600047EA0C0725B924F4807C146C44EA0C0450
:104C7000D2F844C0BCF5606F02D0BCF5F05F01D142
:104C8000402D03D124F4F0544CEA0404D56C0529DA
:104C900021D2DFE801F003090F151B00D26A23F4CB
:104CA000003343EA420316E0D26A23F4802343EA46
:104CB000820310E0D26A23F4002343EAC2030AE02D
:104CC000D26A23F4801343EA021304E0D26A23F485
:104CD000001343EA42134AF80680066846F80E704D
:104CE000066846F80B40D424026804EBC111555005
:104CF0000068C0F8A033BDE8F08FFEE701688A695C
:104D0000D243920701D400228A6200688169C943B4
:104D1000C90703D0816941F001018161704700003A
:104D20002DE9F0410446006890460E468069C04374
:104D3000C00633D40025202720688069C043800640
:104D400015D5701CF8D0FEF7D5F8A0EB0800B042DE
:104D500001D8002EF0D154F8440F40F0200044F860
:104D600004096770A57025700120BDE8F0812168F5
:104D70001020C8612068C7612046FFF7BFFF54F8C4
:104D8000440B4168064A11404160206840F004002D
:104D900044F820096777A5772577E5E70020E4E761
:104DA00000E800FEF0B50568059C68684FF4806671
:104DB000064FC1F3090106EA545641EA02413E4357
:104DC0001943B043214308436860F0BDFF63FF030C
:104DD0002DE9F0411D4617460E460446DDF81880C1
:104DE00008E0681C06D0FEF785F8A0EB0800A84292
:104DF0000BD855B12068806936EA000012D0002037
:104E0000B842EED00020BDE8F08154F8440F40F0E5
:104E1000200044F80409202060700020A070207059
:104E20000120F0E70120EBE770B516460D46044679
:104E30000DE0324629462046FFF772FF08B10120F7
:104E400070BDFEF757F8801BA84207D835B120681F
:104E50008069C0438006ECD4002070BD54F8440F34
:104E600040F0200044F80409202060700020A07069
:104E70002070E4E770B516460D4604460FE0324652
:104E800029462046FFF74CFF08B1012070BD681C81
:104E900005D0FEF72FF8801BA84207D835B120684F
:104EA0008069C0438007EAD4002070BD54F8440FE5
:104EB00040F0200044F80409202060700020A07019
:104EC0002070E2E7F0B589B0002406940794182119
:104ED00068460894FBF7EAFA33484FF0A0410125F1
:104EE000C0E9001405618460457680F82040A9027D
:104EF000C1620627C7614FF4E071C460816280F827
:104F000030400426466104764463FDF789FA08B10F
:104F1000FCF7F8FF06A924480694FCF7F5FF08B152
:104F2000FCF7F0FF00950394CDE901540494694621
:104F30001D480594FDF758F808B1FCF7E3FF02207F
:104F40000090019069461848FDF74EF808B1FCF74B
:104F5000D9FF03200090019069461348FDF744F8FB
:104F600008B1FCF7CFFF009669460F480196FDF7A0
:104F70003BF808B1FCF7C6FF0B200090052001901C
:104F800069460948FDF730F808B1FCF7BBFF0C2073
:104F9000CDE9000769460448FDF726F8002801D04E
:104FA000FCF7B0FF09B0F0BDC80200200C4810B5F6
:104FB0000A4901605021416000212A22C0E9021201
:104FC0000161816101214162FDF71AFC002803D0D3
:104FD000BDE81040FCF796BF10BD00002000014066
:104FE0005C0300203EB500240D49009401940B4859
:104FF000029408600846FDF781FD08B1FCF782FFC6
:105000003C2000901022694602940548FDF74AFDB5
:10501000002801D0FCF776FF3EBD00000074004080
:105020008C030020094808B5416941F00101416144
:105030004069002200F00100009007210B20FEF7DC
:1050400061FCBDE808400B20FEF74EBC001002409A
:10505000F0B587B014216846FBF728FA1E4841696D
:1050600041F480014161416901F480010591416988
:1050700041F400314161416901F400310591416918
:1050800041F48021416140694FF0904600F4802056
:105090000590002240213046FDF726FF0F4F0022E9
:1050A00018213846FDF720FF4020009001250024FC
:1050B000CDE90154694630460394FDF743FE1820BC
:1050C000CDE900050220CDE9020469463846FDF726
:1050D00039FE07B0F0BD0000001002400004004897
:1050E0002DE9F041B0B000242D942E9426942794FD
:1050F0002894542168462994FBF7D8F92A942B94D4
:1051000024211DA82C94FBF7D1F9202115A8FBF729
:10511000CDF9B748B549C0E900148460FDF7C6FF72
:1051200008B1FCF7EFFE0C21B148FDF748FF08B1CC
:10513000FCF7E8FE0A21AE48FEF764F808B1FCF778
:10514000E1FE4FF480302D9080112E902DAA012188
:10515000A748FDF7D5FE08B1FCF7D4FE4FF4B440E4
:10516000269027ABFF2001254FF0080883E8210196
:1051700026AA05219E48FEF766F808B1FCF7C2FE94
:10518000009401940294CDE903454FF00060CDE90D
:10519000084005940694079480000A94CDE90B40DA
:1051A0006A4605219248FEF76EF908B1FCF7AAFE9F
:1051B00026AA00218E482794FEF745F808B1FCF78F
:1051C000A1FE009401940294CDE903450D944FF49F
:1051D00080700E94CDE90F401020CDE9124011945B
:1051E0006A46002182481494FEF74DF908B1FCF795
:1051F00089FE02946A4601217D48CDE90345FEF708
:1052000042F908B1FCF77EFE02946A460221784812
:10521000CDE90345FEF737F908B1FCF773FE0294B8
:10522000CDE903456A46032171481194FEF72BF935
:1052300008B1FCF767FE41F288352AAB0122002154
:105240006B482A95FEF73CF808B1FCF75BFE42F28A
:105250001076CDE92A642AAB0222002164482C94FE
:10526000FEF72EF808B1FCF74DFE4FF4FA70CDE9C9
:105270001D401F942094CDE92140239424941DAA1D
:1052800000215B482594FDF7CBFE08B1FCF73AFE00
:105290001DAA01215648FDF7C3FE08B1FCF732FEF6
:1052A0001DAA02215248FDF7BBFE08B1FCF72AFEF9
:1052B0001DAA03214E48FDF7B3FE08B1FCF722FEFC
:1052C00015A8042780E89001189419941A941B9447
:1052D00015AB0122002146481C94FEF7A1F808B145
:1052E000FCF710FE15AB042201214148FEF798F8A7
:1052F00008B1FCF707FE8020169015AB10220221A2
:105300003B48FEF78DF808B1FCF7FCFD15AB4022D9
:10531000032137481697FEF783F808B1FCF7F2FD32
:10532000169415AB0222002131481794FEF778F845
:1053300008B1FCF7E7FD15AB082201212C48FEF768
:105340006FF808B1FCF7DEFD15AB202202212848DA
:10535000FEF766F808B1FCF7D5FD15AB80220321F6
:105360002348FEF75DF808B1FCF7CCFD45F6CC30DC
:10537000269026AA012128941D48FDF764FF08B154
:10538000FCF7C0FD01222AAB114619482A95FDF70A
:1053900097FF08B1FCF7B6FD26AA02211448FDF7D5
:1053A00052FF08B1FCF7AEFD2AAB012202211048E2
:1053B0002A96FDF785FF08B1FCF7A4FD26AA032174
:1053C0000B48FDF740FF08B1FCF79CFD2AAB01221A
:1053D000032107482A95FDF773FF08B1FCF792FDFA
:1053E0000348FDF7D5FE30B0BDE8F0810074014000
:1053F000A0030020134810B5114901601249416013
:1054000000210122C0E90212016141618161C16193
:105410000162FEF7E9F808B1FCF774FD00210948C4
:10542000FEF78EF808B1FCF76DFD00210548FEF788
:10543000B2F8002803D0BDE81040FCF763BD10BDF2
:10544000005400407C0400203F1E100010B588B0BE
:105450000024184800940194029403940494059441
:105460001349069401604721C0E901144FF6FF710A
:10547000C0E9031444618461FEF77AFF08B1FCF7C8
:1054800041FD4FF48050009069460A48FFF752F8FA
:1054900008B1FCF737FD049404A906480694FEF70A
:1054A0002DFF002801D0FCF72DFD08B010BD000035
:1054B00000400140C80400200C4810B50A490160B2
:1054C00047214160002140F2E732C0E90212016148
:1054D000416180218161FEF74BFF002803D0BDE8C8
:1054E0001040FCF70FBD10BD004401401405002022
:1054F0000C4810B50A490160472141600021312262
:10550000C0E902120161416180218161FEF730FF33
:10551000002803D0BDE81040FCF7F4BC10BD00002B
:1055200000480140600500200D4810B50B4901609E
:105530004FF416414160002181600C22C160C0E936
:1055400004128161C16101624162FFF73CFA0028E7
:1055500003D0BDE81040FCF7D5BC10BD00380140B9
:10556000AC050020FEE7FEE770B5002404F1B000B2
:10557000C0B200F0F3F8002000F0F0F8102000F0C6
:10558000EDF80025002000F0FBF86D1CEDB2802D39
:10559000F8D3641CE4B2082CE8D370BD10B58D209C
:1055A00000F0DCF8142000F0D9F8BDE81040AF207E
:1055B00000F0D4B810B54FF4FA70FDF7B1FBAE208F
:1055C00000F0CCF8002000F0C9F8102000F0C6F878
:1055D000402000F0C3F8812000F0C0F8FF2000F068
:1055E000BDF8A12000F0BAF8C82000F0B7F8A62056
:1055F00000F0B4F8A82000F0B1F83F2000F0AEF8B9
:10560000D32000F0ABF8002000F0A8F8D52000F07F
:10561000A5F8802000F0A2F8D92000F09FF8F12032
:1056200000F09CF8DA2000F099F8122000F096F8CB
:10563000DB2000F093F8402000F090F8202000F0EC
:105640008DF8022000F08AF88D2000F087F81420F1
:1056500000F084F8A42000F081F8A62000F07EF885
:10566000AF2000F07BF8FFF77FFF0021BDE810407E
:105670000846AFF3008010B50446B031C8B200F060
:105680006DF8102040EA141000F068F804F00F00E4
:10569000BDE8104040F0010000F060B82DE9F04195
:1056A000203A00240D468046D6B27F2803D9002038
:1056B0004D1C8046EDB2102B29460FD0FFF7DBFFC3
:1056C000164906EB460001EB4005285D00F058F84E
:1056D000641CE4B2062CF8D3BDE8F081FFF7CBFFE1
:1056E0000F4F00BF04EB0610385C00F049F8641C53
:1056F000E4B2082CF6D36D1CE9B24046FFF7BBFFBD
:105700005FF0000404EB06103844007A00F038F82B
:10571000641CE4B2082CF5D3DEE70000367B0008F9
:105720005E7D00082DE9F041984617460E46044676
:1057300000250DE0434631462046FFF7AFFF083411
:10574000E4B2782C02D90024B61CF6B26D1CEDB27E
:105750007A5D002AEED1BDE8F08100001CB5002181
:105760008DF804108DF805004FF6FF7000900223AD
:1057700001AA78210148FDF793FF1CBD7C0400209D
:105780001CB540218DF804108DF805004FF6FF7010
:105790000090022301AA78210148FDF781FF1CBD7A
:1057A0007C0400200FB42DE9F0410E4680461546DA
:1057B00064210B48FAF758FE0AAA09480999FAF732
:1057C00041FE84B200272B46054A31464046FFF78A
:1057D000A9FF034807552046BDE8F0015DF814FB1A
:1057E000C8010020002828D0002A26D0017092EDA0
:1057F000001A80ED011A92ED011A80ED021A92ED65
:10580000021A80ED031A80ED040A9FED0C0AC0ED28
:10581000050A80ED0E0A80ED0D0A80ED0C0A80ED80
:10582000080A80ED0B0A80ED0A0A80ED090A80ED76
:10583000110A80ED100A80ED0F0A70470000000089
:1058400070477047FEF700B830B597B0282168461A
:10585000FAF72CFE142111A8FAF728FE1C210AA839
:10586000FAF724FE032001210090049110214FF447
:10587000803000240591CDE901040225CDE90750CF
:105880004FF4E01009906846FEF73CFA08B172B692
:10589000FEE70F20CDE911054FF48060CDE91340FC
:1058A000022111A81594FEF723F908B172B6FEE79C
:1058B00044F2A1000A900C944FF48070CDE90D40A1
:1058C000000110900AA8FEF74FF8002801D072B628
:1058D000FEE717B030BD00000248016841F47001D6
:1058E0000160704788ED00E00148FEF792BE0000BD
:1058F000600500200148FEF78CBE00001405002062
:10590000F0B502681B4B1C4F4FF0804C984203D0FF
:10591000604501D0B84203D122F070044A682243A6
:10592000164C174D174E984209D0604507D0B84223
:1059300005D0A04203D0A84201D0B04203D122F446
:105940004077CA683A434F6922F080023A430260C6
:105950008A68C2620A688262984205D0A04203D077
:10596000A84201D0B04201D109690163012141611E
:10597000F0BD0000002C0140000400400040014048
:10598000004401400048014010B5846842EA032207
:1059900024F47F440A432243826010BD826822F0CF
:1059A00070020A4342F007018160704710B5036A34
:1059B000046A24F001040462846924F0F00444EAD7
:1059C000021423F00A020A438461026210BD10B57A
:1059D000036A23F0100303628369046A23F47043AB
:1059E00043EA023224F0A00343EA0111826101621A
:1059F00010BD90F82410C90706D001684A68836A70
:105A000022F400321A434A6090F82410890706D520
:105A100001684A68C36A22F480321A434A6090F8E7
:105A20002410490706D501684A68036B22F48022D6
:105A30001A434A6090F82410090706D501684A689D
:105A4000436B22F400421A434A6090F82410C906BE
:105A500006D501688A68836B22F480521A438A60F3
:105A600090F82410890606D501688A68C36B22F471
:105A700000521A438A6090F82410490611D5016833
:105A80004A68036C22F480121A434A60016CB1F533
:105A9000801F06D101684A68436C22F4C0021A4391
:105AA0004A6090F82410090606D501684A68806C9F
:105AB00022F4002202434A607047F8B500260446EB
:105AC000C0F88060FDF716FA0546206800686FF0A0
:105AD0007E47000708D52B4600224FF400112046D0
