:020000040800F2
:10000000080C0020D5020008096E0008CD61000828
:10001000056E00082D1B0008557D0008000000003B
:1000200000000000000000000000000075750008DE
:10003000CD1B00080000000071750008CD75000898
:10004000EF020008EF020008EF020008EF020008CC
:10005000EF020008EF020008EF020008EF020008BC
:10006000EF020008EF020008EF020008311B000851
:10007000EF020008EF020008EF020008EF0200089C
:10008000EF020008EF020008EF020008EF0200088C
:10009000EF020008EF020008EF020008EF0200087C
:1000A000EF020008EF0200089D760008EF0200084A
:1000B000EF020008EF02000800000000EF02000855
:1000C000EF0200080000000000000000EF0200083E
:1000D00000000000EF020008EF020008EF02000835
:1000E000EF020008EF02000800000000000000001E
:1000F0000000000000000000000000000000000000
:1001000000000000000000000000000000000000EF
:100110000000000000000000EF020008EF020008ED
:1001200000000000000000000000000000000000CF
:1001300000000000000000000000000000000000BF
:10014000EF020008EF02000800000000EF020008C4
:10015000EF020008EF020008EF020008EF020008BB
:10016000EF020008EF02000800000000000000009D
:10017000000000000000000000000000000000007F
:1001800000000000EF02000800F002F800F092F812
:100190000AA090E8000C82448344AAF10107DA45E2
:1001A00001D100F087F8AFF2090EBAE80F0013F0A2
:1001B000010F18BFFB1A43F0010318479491000088
:1001C000B4910000103A24BF78C878C1FAD8520719
:1001D00024BF30C830C144BF04680C6070470000C1
:1001E0000023002400250026103A28BF78C1FBD840
:1001F000520728BF30C148BF0B6070476E2900F01E
:100200000982702900F04B83662908F01B84652958
:1002100008F01884672908F01584612908F014840F
:1002200003681B0A28BF41F08001692900F0B681EC
:10023000642900F0B381752900F0B0816F2900F0C6
:10024000D982782900F01783E92900F07382E42924
:1002500000F07082F52900F06D82EF2900F0D6825F
:10026000F82900F016830368DB0928BF41F08001FC
:10027000632900F0B187732900F0B687E32900F005
:10028000C187F32900F0C687002070471FB508F02A
:10029000BDFB01F019F804000020002108F0A0FBCC
:1002A000401C60600020002108F084FBE0601FBD5E
:1002B00010B510BD00F0DAFF1146FFF7E7FF07F0B9
:1002C00091FE01F018F903B4FFF7F2FF03BC01F04F
:1002D000EDFA00000948804709480047FEE7FEE7BD
:1002E000FEE7FEE7FEE7FEE7FEE7FEE7FEE7FEE7E6
:1002F00004480549054A064B704700008976000806
:100300008901000808060020080C002008080020C9
:100310000808002053EA020C00F069802DE9F04B38
:100320004FF00006002B1FBFB3FA83F503FA05F464
:1003300024FA05F65E4012BF1643B2FA82F502FABD
:1003400005F4C5F120051EBF22FA05FC44EA0C04A1
:10035000203556EA044C4FEA144418BF641C4FF091
:1003600000084FF00009904271EB030C39D30029CB
:1003700019BFB1FA81F701FA07F6B0FA80F700FA6F
:1003800007F6C7F120071EBF20FA07FC46EA0C0655
:100390002037B6FBF4FCA7EB0507103F07F01F0B57
:1003A000CBF120062CFA06F60CFA0BFB44BFB34641
:1003B0000026202FA4BF5E464FF0000B5BEA060C20
:1003C00008BF4FF0010B19EB0B0948EB0608ABFB1C
:1003D000027C06FB02CC0BFB03CCC01B71EB0C01B7
:1003E000C1E70B46024641464846BDE8F08B13B5CF
:1003F000084318BF4FF0FF300146AFF30080BDE85F
:100400001C4070471CB50C46064B7B446946009067
:10041000204600F018F904460020694600F026F94D
:1004200020461CBD5F0200004FF000020429C0F00E
:10043000128010F0030C00F01B80CCF1040CBCF116
:10044000020F18BF00F8012BA8BF20F8022BA1EB68
:100450000C0100F00DB85FEAC17C24BF00F8012B4D
:1004600000F8012B48BF00F8012B70474FF0000245
:1004700000B5134694469646203922BFA0E80C509A
:10048000A0E80C50B1F12001BFF4F7AF090728BF75
:10049000A0E80C5048BF0CC05DF804EB890028BFF1
:1004A00040F8042B08BF704748BF20F8022B11F01A
:1004B000804F18BF00F8012B704770477047704796
:1004C00010B500F0BBFA006810BD10B5044600F08E
:1004D000B5FA046010BD70B5044685690068C106B0
:1004E00001D5302600E02026C00707D070BDD4E932
:1004F000012130469047206A401C20626D1EF6D5CF
:1005000070BD70B5044685690078C00707D170BD1D
:10051000D4E9012120209047206A401C20626D1EF2
:10052000F6D570BD09684A0501D540B27047C905C6
:10053000FCD500B2704709684A0501D5C0B27047C2
:10054000C905FCD580B2704770B50C460546012A36
:1005500005D02878800600D5EA69002302E001234F
:1005600005E05B1C934202D2E05C0028F9D1A86947
:10057000E618C01AA861286A184428622846FFF7BE
:10058000AAFF04E0D5E9012114F8010B9047B44219
:10059000F8D32846FFF7B5FF70BD00002DE9F04104
:1005A0000646002410687529314616A510D0FFF7BD
:1005B000B9FF002802DA404213A507E031688A0734
:1005C00001D512A502E0490704D511A5012401E0D7
:1005D000FFF7B1FF00210A2206F1240709E0B0FB72
:1005E000F2FCB0FBF2F302FB1C00303078541846EA
:1005F000491C0028F3D123462A463046BDE8F04185
:1006000000F065BA000000002D0000002B00000083
:100610002000000011680268006A530501D50870C7
:100620000AE0D30501D5088006E0130603D5C217FA
:10063000C1E9000200E008600120704701694A1C1E
:1006400002610878704700B58FB0CDE90131002113
:10065000059105497944CDE903101146684600F03B
:1006600029F90FB000BD0000E5FFFFFF0A6802F89E
:10067000010B0A60704700002DE9FF5F15468A46AE
:100680000446DFF8AC80F8440027D8E900103E4665
:10069000CDE9001010E03AF816106A4602A800F002
:1006A000BDFD411C07D02178890603D5E2693918C0
:1006B00091420DD80744761C2078800602D5E06967
:1006C000B84205DDAE42E6DB3AF816000028E2D17A
:1006D000A069C01BA0612046FFF7FDFED8E900100D
:1006E000CDE90010002017E03AF818106A4602A879
:1006F00000F094FDB0F1FF3F81460BD000250DF1D5
:10070000080B05E0D4E901211BF8050090476D1C9A
:100710004D45F7D308F10100B0428046E4DB206A82
:10072000384420622046FFF7ECFEBDE8FF9F000042
:10073000C28300002DE9F0418046D21D22F007025D
:100740000025D2E90002F52915A614D0011E72F188
:10075000000106DA0023D0EB030063EB020211A6CE
:1007600008E0D8F800108B0701D50FA602E0490772
:1007700001D50EA601251146002408F1240704E046
:1007800000F060F930323A55641C50EA0102F7D1AA
:100790002B46324621464046BDE8F04100F097B96D
:1007A000000000002D0000002B00000020000000D1
:1007B00030B4002100F1240408E002F00705D2085B
:1007C000303542EA4372DB086554491C52EA03059E
:1007D000F3D10468002310A2250708D504F02004F3
:1007E0000C4304D0C46901230CA2641EC46130BC54
:1007F00000F06DB910B5044621461068FFF79BFE66
:1008000002462046BDE810400023D1E7D21D22F069
:100810000701D1E90023CBE7000000003000000011
:10082000F0B40D460188090502D5214C7C4402E054
:100830001F4C7C440E34002100F1240608E002F035
:100840000F071209E75D42EA03721B097754491C3E
:1008500052EA0307F3D102780023120704D5702D62
:1008600006D009B1022311342246F0BC00F02FB9A2
:1008700001231034F8E770B504460D462146106890
:10088000FFF759FE024629462046BDE87040002386
:10089000C6E7D21D22F00703D3E90023C0E70368AF
:1008A000126843F0200303600823C3610023B7E705
:1008B000248200002DE9F05F894604464FF0000ACB
:1008C000DFF874B1FB44C0F820A02046E1688847F7
:1008D000002874D0252806D0D4E901219047206A49
:1008E000401C2062F1E700265F462046E168884709
:1008F0002028054607DB312D05D2781910F8200C89
:1009000008B10643F1E7B00701D526F00406C4F8A4
:100910001CA00027C4F818A02A2D09D0284608F0EA
:1009200041F838B304EB8708303DC8F8185019E097
:1009300059F8041B204604EB87029161E16888475F
:10094000012F054618D1E069002820DA26F020069C
:100950001DE0D8F8180000EB800005EB40003038AF
:10096000C8F818002046E1688847054608F01AF8DC
:100970000028EED1012F0AD02E2D08D12046E168A3
:1009800088477F1C0546022F46F02006C4DBA0697D
:10099000002803DA404246F00106A061F00701D0CA
:1009A00026F010066C2D0BD0682D09D04C2D39D0B7
:1009B0006A2D35D0742D35D07A2D33D016E038E03D
:1009C000E1682F4620468847B842054609D16C2F7A
:1009D00026D04FF48060E1680643204688470546EC
:1009E00004E06C2F1AD04FF4807006430DB3A5F1CC
:1009F0004100192802D8203546F400664A462946A7
:100A0000204626604E46FFF7F9FB80B101280BD047
:100A1000F61D26F0070000F1080956E74020E4E73C
:100A20008020D8E70020D6E706F104094DE72846E4
:100A300052E7206ABDE8F09FB4810000004870478B
:100A40004800002030B5B0F10A0271F100034FEA0E
:100A5000900E4EEA817EB0EB0E0061EB91014FEA01
:100A6000101E4EEA017E10EB0E0041EB11114FEA11
:100A7000102E4EEA016E10EB0E0041EB11214FEAF1
:100A8000104E4EEA014E10EB0E0041EB11414018A2
:100A900041F100014FEAD00040EA41704FEAD10134
:100AA0004FEA810444EA907410EB800544EB0104A2
:100AB0006D1944EB0404521BA3414FF0000348BFDF
:100AC0000A3200D530BD401C41F1000130BD2DE996
:100AD000F0470D4699469246044600F12408016805
:100AE000880604D5E06921F01001216000E00120B2
:100AF000A84201DD471B00E00027A1697A1902EB3B
:100B00000900081AA0612078C00602D42046FFF729
:100B1000E2FC002608E0D4E901211AF8060090471B
:100B2000206A401C761C20624E45F4DB2078C0060B
:100B30000AD52046FFF7CFFC06E0D4E9012130209A
:100B40009047206A401C2062381EA7F10107F4DCA0
:100B500007E0D4E9012118F805009047206A401CFD
:100B60002062281EA5F10105F3DC2046FFF7C9FC31
:100B70002078000602D50220BDE8F0870120FBE7BF
:100B80002DE9F04F1C4683460E468BB0D2E900306B
:100B9000149DC10F009120F00041080D01D00122E9
:100BA00000E00022801A0027DA1B61EB0051914619
:100BB0000A438846A0F2324A0AD00021084607F0CC
:100BC00031FF10F4400F14D00099A1B1400213E09E
:100BD000012D02D00020302105E0E043CDE90607D9
:100BE00005E03154401CA042FBDBCDE906740895BA
:100BF00029E0002005E00002002801DA022000E0E0
:100C00000120012D08950FD00021CDE904103046B8
:100C1000CDE902A4CDE9009809AA06A900F098FB45
:100C20000790099810B105E00121EEE71021084670
:100C300007F0F8FE012D06D1DDE90610641C214401
:100C4000884200DA0897079806AC375494E80E00FB
:100C5000CBE90012CBF808300BB0BDE8F08F2DE9DE
:100C6000F04F88460446D21D22F00701ADF5477DBE
:100C7000D1E90001CDE9BE0107F05FFE0246BF9851
:100C8000C00F01D02D2007E02068810701D52B205F
:100C900002E0202101EAC000032AC09001D0072A07
:100CA00005DB03464146204600F012FB08E12078B0
:100CB000800601D5E06900E0062040F2F123B8F19A
:100CC000650F814606D0B8F1660F16D0B8F1670FF0
:100CD0006BD12FE00020B9F53C7F009001DC09F1D9
:100CE0000103BEAA01A9C1A8FFF74AFFDDE9C1704F
:100CF000002609F10105834644E001204B4600909F
:100D00004FF00047BEAA01A9C1A8FFF739FFDDE9EE
:100D1000C2B0C1995D46002610B909F101000D1855
:100D2000B9EB050003D4C0F1FF3609F10105A5EBCD
:100D3000090028E0B9F1010F01DA4FF001090020A4
:100D400099450090484600DC0346BEAA01A9C1A807
:100D5000FFF716FFDDE9C1704D4600268346207877
:100D600000070AD4AB4500DA5D4601A8012D04DD79
:100D7000411911F8011C302907D04F4502DA17F14B
:100D8000040F04DA012082460FE06D1EEEE7002F0B
:100D900002DCED1B3E4403E0781CA84200DD7D1C14
:100DA000B81B00F1010A4FF000472078000703D478
:100DB000AA4501DB4FF0FF3A0021B7F1004F0DF2D9
:100DC00017388DF8171324D002202B23002F01DAB7
:100DD0007F422D230A21021EA0F1010000DC5FB139
:100DE00097FBF1FC97FBF1F201FB1C7C17460CF121
:100DF000300C08F801CDEEE7A8F10100037021885E
:100E0000090501D5452100E06521A0F1010800F8A0
:100E1000011CC098C4A9A1EB0807FF1D00B1012067
:100E2000411901EBEA70A1693844081A401EA0611B
:100E30002078C00602D42046FFF74DFBC09828B1A9
:100E4000D4E901219047206A401C20622078C00626
:100E500022D52046FFF73FFB1EE0002E04DBB34502
:100E600002DD01A8805D00E03020D4E90121904737
:100E7000206A401C2062761CAAF101005FEA000A89
:100E80000AD100F021FAC0680168405CD4E9012170
:100E90009047206A401C2062281EA5F10105DCDC79
:100EA00007E0D4E9012118F8010B9047206A401CA3
:100EB0002062381EA7F10107F3DC2046FFF721FB73
:100EC00003200DF5477DC8E62DE9F04F04460D4699
:100ED000D21D22F0070089B0D0E900974846394674
:100EE00007F02BFD0246F80F01D02D2307E0206804
:100EF000810701D52B2302E0202101EAC0038DF8F0
:100F000020300BB1012000E00020032A824601D0EE
:100F1000072A04DB2946204600F0DAF93FE1207871
:100F2000800601D40D2500E0E569C7F30A560D2DB2
:100F300049DA00214FEA175B084607F073FD002FDE
:100F400000F4400007DA00EB80004FF4400100EBB2
:100F5000D07001EA60008115012901DD4FF0FF31F9
:100F600000224FEA850CBCF1180F06D31346ACF1F2
:100F700018004FF08052C24003E04FF4801323FA70
:100F80000CF30CF10C0CBCF1200F04D3ACF1200CD1
:100F900009FA0CF001E007FA0CF000294FF00048C4
:100FA00001DD18B90FE00ED140450CD319EB020951
:100FB0005F4121B9404502D19F4329EA0209BBEBB9
:100FC000175F00D0761C2088000502D57B48784446
:100FD00002E07A487844193808AA302302F80A3027
:100FE000037C0AF10101002E0AF1020A53546A46F9
:100FF00002DC4FF0300101E04FF031014FF0010809
:101000008DF8001002D0A6F2FF3603E059EA47013E
:1010100000D06B4E002D02DC2178090704D54FF07B
:1010200002082E218DF80110C44600210BE0C7F301
:1010300003433F01C35C491C6D1E02F808300529BB
:1010400008F1010801DA002DF1DC00210CE000EBD1
:101050001973491C1B786D1E082902F808304FEAE5
:10106000091908F1010801DA002DF0DC21688B066E
:1010700002D516E0A8F10108E04505DD02EB080302
:1010800013F8013C302BF5D0B8F1000F09DD02EB6D
:10109000080313F8013C2E2B03D1090701D4A8F152
:1010A0000108002D05DD3E2102F808106D1E08F133
:1010B0000108407C002E02F8080008F1010804DA5B
:1010C0002D20764202F8080002E02B2002F80800EA
:1010D0000A214FF47A70864208F101080BDB96FB77
:1010E000F0F3303302F8083096FBF0F308F1010812
:1010F00000FB136601E0642E0CDB642096FBF0F32A
:10110000303302F8083096FBF0F308F1010800FBD9
:10111000136601E00A2E06DB96FBF1F0303002F890
:10112000080008F1010896FBF1F001FB1060303077
:1011300002F80800A16908F1010808EB050202EBBA
:101140000A00081AA0612078C00602D42046FFF7E2
:10115000C2F9216A08AE01EB0A00206204E0D4E97A
:10116000012116F8010B9047BAF1010AF7D2207855
:10117000C00602D52046FFF7AEF96E4609E016F824
:10118000010B3E280FD0D4E901219047206A401C72
:101190002062B8F10108F2D22046FFF7B2F909B097
:1011A0000320BDE8F08F206A2844206203E0D4E9E0
:1011B0000121302090476D1EEBD3F8E7CE7A000076
:1011C00002FCFFFF10B5436913B1AFF3008001E0EB
:1011D000FFF7BAF9012010BD127800F124010A705E
:1011E00000224A700122EDE711684FF0FF32E9E773
:1011F00010B5436913B1AFF3008001E0FFF73CFA8B
:10120000012010BD128800F1240182840022C284D2
:101210000122EDE711684FF0FF32E9E72DE9F041D7
:1012200016460C46054600F047F8036893F801019E
:10123000012807D0FF2C12D8185D80B101202C7036
:10124000BDE8F081D3F807013246214603F20713C7
:10125000C7182846BC46BDE8F041002360474FF060
:10126000FF30EDE700487047480000207546FFF763
:10127000F9FFAE4605006946534620F00700854653
:1012800018B020B5FFF734F8BDE820404FF0000655
:101290004FF000074FF000084FF0000BAC46ACE8F1
:1012A000C009ACE8C009ACE8C009ACE8C00921F04D
:1012B00007018D467047000010B500F005F8001DCD
:1012C00010BD00BF1D770000004870476800002077
:1012D0002DE9F0411F46044603260168072A01F460
:1012E000006004DB08B116A505E016A503E008B10F
:1012F00015A500E015A521F010002060A069C01E12
:10130000A0610FB1401EA0612046FFF7E4F84FB185
:10131000D4E9012138469047206A401C2062C01C55
:10132000206206E0206AFAE7D4E9012115F8010BF2
:101330009047761EF8D22046FFF7E3F8BDE8F0812B
:101340004E414E006E616E00494E4600696E660069
:101350002DE9FF4F0446ADF5437DD1AB93E8250061
:10136000D099DDF854830091CDE90102C0AAC1A94A
:1013700003A800F0E1F90346C198D499064641B1AB
:101380001D446D1C012D04DAC5F10101012508443D
:101390000B44A6464FF0FF324FF0390B002124E0FA
:1013A000401EB04201D300270CE0DDF800C38708DF
:1013B0003CF817704FEA807C4FEA1C7C27FA0CF748
:1013C00007F00F076D1E092F0EDA002A02DB3032FC
:1013D00004F8012B5A46002903DD491E04F8012BAD
:1013E000F9E700213A4600E0491C08B1002DD7DC9E
:1013F0004FF0010CB8F1020F08D0B8F1010F07D07F
:10140000A0B1401EB04205D300270CE0002522E029
:10141000022520E0C09F850837F8155087073F0F49
:10142000FD4005F00F07052F02DB04E04FF0000739
:101430004FF0000507E003DC002901DCD50701D0EF
:10144000012500E002250FB14FF0000C022D02D063
:10145000BCF1000F22D04FF00009DDF800A313E02B
:10146000401EB04201D300270BE04FEA90083AF843
:1014700018704FEA80784FEA187827FA08F707F0D3
:101480000F070FB1012004E00028E9D1B9F10000F5
:1014900001D04FF0000C022D00D10546012D02F1C4
:1014A00001000AD010B1303204F8012B584600294F
:1014B00016DD491E04F8010BF9E718B1313204F8C2
:1014C000012B06E0312004F8010BD4985B1C00B915
:1014D000491E3020002903DD491E04F8010BF9E7FD
:1014E000C4980360C598C0F800C00DF5477DA4EB13
:1014F0000E00BDE8F08F10B50446AFF30080204623
:10150000BDE81040FEF7DFBE810B43F26D42514350
:10151000490B01EB107101EB507070472DE9FF5F33
:10152000804600252F46DDF838A02CE001990020E8
:10153000044631F817B021E0544503D2039931F83D
:10154000141000E000210BFB0100B0B13E19002196
:1015500002E028F815106D1CB542FAD938F81610BB
:10156000014489460846FFF7CFFF6FF41C7100FB6A
:1015700001F209EB021128F81610641C5445DBD364
:101580000028D9D17F1C02988742CFD3284604B0C7
:10159000BDE8F09F2DE9FF4F87B003AC0123002584
:1015A000159EADF8182084E80B000A9B0121DBB1E1
:1015B000B3FA83F0C0F11F0783EA53000DF10C0B5F
:1015C00080EA900080EA101080EA102080EA104043
:1015D00000F00100784021EA00045BF8240002805A
:1015E00001A840F8241072E00180169808B100218B
:1015F000016001200BB0BDE8F08F0DF1040858F830
:10160000242000925BF82410C4F101045BF824004C
:101610000B46FFF783FF48F824000A996D0001206C
:10162000B84008420ED0059806AB009058F8242028
:101630005BF82410C4F101045BF82400FFF76EFF8F
:1016400048F82400149890B358F82400B0423ED9CA
:10165000811B1498002827DD4FF0000948464A46B0
:101660005BF82430DFF8C0E116E033F812C01CEB61
:10167000000010D041F6372C824600FB0CF040F2FF
:10168000712C0EEBC000400F00FB0CF8BAEB081FEA
:1016900001D04FF00109521C8A42E6D333F811C041
:1016A0004844604423F811005B46002009E00EE046
:1016B00053F8242000EB010C32F81CC022F810C0B3
:1016C000401CB042F4D301A80D4440F824607F1EB2
:1016D00093D5169800B1056001A850F8240089E759
:1016E0002DE9F0438946844600210A460B461DE059
:1016F0004B4502D23CF8134021444FF00A08002524
:101700002C46B1FBF8F6970708FB16163F0FB1FB06
:10171000F8F106FA07F72F43521CBDB206B1104686
:10172000641C042CEDD32CF813505B1C4B45DFD309
:101730000029DDD1BDE8F0832DE9FF4F824689B055
:101740000526DDF860B035E0042E0DDA22464FF4B0
:101750000050ADF804000120009001AB03A906A8D9
:10176000FFF7DCFE074600E0002706EB860000EBF3
:10177000C602DDE9160100F09FF800240DF11808FB
:101780000DF10C09C0F30C0510E0BC4202D238F890
:10179000140005442846FFF7B7FE6FF41C7141435F
:1017A00005EB0111054629F81410641CBC42ECD36A
:1017B000002DEAD1301EA6F10106C5DC0025BBF1E3
:1017C000000128460AF5BD7609DD0B465146022286
:1017D0000090019002903046FFF7DCFE0FE00BDA3C
:1017E00051460522CBF10003009001900290304653
:1017F000FFF7D0FE5D4602E00120AAF87A013346E9
:10180000224603A900905046FFF788FE0B9A014636
:101810005046C2F800A0FFF763FF0A996D1E0860EA
:1018200028440DB0E7E6000000F0FFFF00000000D4
:1018300030B44FF0013C50F8042B51F8043BCCFA83
:1018400052F4D51A20D1FCB950F8042B51F8043BBE
:10185000CCFA52F4D51A17D1B4B950F8042B51F878
:10186000043BCCFA52F4D51A0ED16CB950F8042BC3
:1018700051F8043BCCFA52F4D51A05D1002CDAD039
:1018800030BC4FF00000704729BAB1FA81F111F075
:101890001801D1F120008440F2D1CA40CB4012F0AF
:1018A000FF0213F0FF0330BCD01A70470149182023
:1018B000ABBEFEE726000200B2F120030AD5C2F15A
:1018C000200320FA02F001FA03F340EA030021FAB0
:1018D00002F1704721FA03F04FF0000170477047A2
:1018E00080B584B003900398406A02900298006C1F
:1018F00010F0500F27D1FFE70298016C41F40071FE
:10190000016402980068C06810F4406F17D1FFE7C7
:101910000298407E002812D1FFE70298016C21F462
:10192000807101640298006CC004002806D4FFE7AF
:101930000298016C41F001010164FFE7FFE70298A2
:1019400000F0CEFC08E00298806B006B03990190D8
:10195000084601998847FFE704B080BD80B582B092
:1019600001900198406A00900098016C41F040019C
:1019700001640098416C41F004014164009800F05A
:101980005FFD02B080BD000080B582B0019001987B
:10199000406A0090009800F04FFD02B080BD00004A
:1019A00080B584B00290002001900299096889688E
:1019B00001F003010129009005D1FFE702980068BA
:1019C00000680090FFE70098C007002845D0FFE7B7
:1019D00002980068806800F00D0001280DD1FFE733
:1019E000FFE702980068816841F002018160029877
:1019F000006803210160FFE70DE00298016C41F0EF
:101A0000100101640298416C41F001014164012020
:101A10008DF80F0025E001F0B7FB0190FFE7029879
:101A200000688068C007002816D0FFE701F0ACFB13
:101A30000199401A03280ED3FFE70298016C41F088
:101A4000100101640298416C41F0010141640120E0
:101A50008DF80F0005E0E2E7FFE700208DF80F00AA
:101A6000FFE79DF80F0004B080BD000080B584B092
:101A700002900020019002990968896801F0030131
:101A80000129009005D1FFE70298006800680090E6
:101A9000FFE70098C00700283FD1FFE702980068E1
:101AA00080683F21C8F2000108420ED0FFE702988B
:101AB000016C41F0100101640298416C41F0010198
:101AC000416401208DF80F002BE0029800688168C6
:101AD00041F00101816001F057FB0190FFE702989E
:101AE00000680068C007002816D1FFE701F04CFB32
:101AF0000199401A03280ED3FFE70298016C41F0C8
:101B0000100101640298416C41F00101416401201F
:101B10008DF80F0005E0E2E7FFE700208DF80F00E9
:101B2000FFE79DF80F0004B080BD0000FFE7FEE76F
:101B300080B540F26020C2F2000000F0F9FF80BDE5
:101B400081B00090009801684FF6F872CBF6FD72F4
:101B500011444CF6CD42CCF6CC42A1FB02126FF000
:101B6000030303EA9202026400980022C4F2020214
:101B7000C26301B07047000084B0039002910192EB
:101B800000930398C16B006C012202FA00F04860D8
:101B9000009803990968486003984068102809D1A3
:101BA000FFE701980399096888600298039909681A
:101BB000C86008E002980399096888600198039951
:101BC0000968C860FFE704B0704700007047000074
:101BD00081B0EFF3108072B60090FFE7FEE70000DF
:101BE0009DB01B901A9100208DF867001A9800682C
:101BF000002801D0FFE7FFE71B980068B0F1A04F75
:101C000006D1FFE740F20010C5F20000049003E0A7
:101C10004FF0A0400490FFE70498002804D1FFE7AC
:101C200001208DF87300B9E0FFE71B9890F83C00A5
:101C3000012804D1FFE702208DF87300AEE01B9865
:101C4000012180F83C10FFE7FFE71B9800688068DF
:101C500000F004000021B1EB900F40F08B80FFE713
:101C60000498806800F004000021B1EB900F40F070
:101C70008180FFE740F20030C5F2000018901A980A
:101C80000068002842D0FFE71898806820F4604080
:101C90001A9949681B9A92F8302041EA4231084368
:101CA000189988601B980068806800F00300002184
:101CB0000128039105D1FFE71B9800680068039095
:101CC000FFE70398C00700281FD1FFE7049880684A
:101CD00000F0030000210128029104D1FFE70498DD
:101CE00000680290FFE70298C00700280DD1FFE7C7
:101CF0001898806840F61F7188431A990A688968A5
:101D00001143084318998860FFE732E0189881680A
:101D100021F4604181601B980068806800F0030036
:101D200000210128019105D1FFE71B980068006898
:101D30000190FFE70198C007002819D1FFE7049838
:101D4000806800F0030000210128009104D1FFE722
:101D5000049800680090FFE70098C007002807D1AA
:101D6000FFE71898816840F61F7291438160FFE792
:101D7000FFE708E01B98016C41F02001016401209D
:101D80008DF86700FFE7FFE71B98002180F83C1003
:101D9000FFE79DF867008DF87300FFE79DF873007B
:101DA0001DB070479FB01D901C9100208DF86F00F2
:101DB00004901C98C068012801D0FFE700E0FFE70D
:101DC000FFE71D9890F83C00012804D1FFE70220AE
:101DD0008DF87B007FE21D98012180F83C10FFE721
:101DE000FFE71D980068806800F004000021B1EB57
:101DF000900F40F05C82FFE71C984068042813D8DD
:101E0000FFE71D980068006B1C990A68496801EBA0
:101E1000410149001F238B40984302FA01F1084316
:101E20001D99096808634DE01C984068092816D878
:101E3000FFE71D980068406B1C990A68496801EB30
:101E400041016FF01D0303EB41011F238B409843B9
:101E500002FA01F108431D990968486331E01C98B2
:101E600040680E2816D8FFE71D980068806B1C9903
:101E70000A68496801EB41016FF03B0303EB410144
:101E80001F238B40984302FA01F108431D9909680A
:101E9000886315E01D980068C06B1C990A68496842
:101EA00001EB41016FF0590303EB41011F238B400C
:101EB000984302FA01F108431D990968C863FFE7D6
:101EC000FFE7FFE71D980068806810F00C0F40F0F6
:101ED000D980FFE71C9800680A2812D3FFE71D98F5
:101EE000006880691C990A68896802EB42021E3A00
:101EF000072393409843914008431D9909688861DE
:101F000010E01D98006840691C990A68896802EB16
:101F10004202072393409843914008431D99096862
:101F20004861FFE71C9840691D990968C96801F07C
:101F300018018908884005901C98006901380146FD
:101F40000328039154D80399DFE801F002162A3ED2
:101F50001D980068006E4FF20001C0F2FF3108408A
:101F60001C990968059A42EA8161084340F00040E3
:101F70001D990968086684E01D980068406E4FF25C
:101F80000001C0F2FF3108401C990968059A42EA35
:101F90008161084340F000401D990968486670E07F
:101FA0001D980068806E4FF20001C0F2FF310840BA
:101FB0001C990968059A42EA8161084340F0004093
:101FC0001D99096888665CE01D980068C06E4FF234
:101FD0000001C0F2FF3108401C990968059A42EAE5
:101FE0008161084340F000401D990968C86648E0D7
:101FF0001D980068006E00F0F8401C990968B0EB6D
:10200000816F07D1FFE71D980068016E21F0004144
:102010000166FFE71D980068406E00F0F8401C99CB
:102020000968B0EB816F07D1FFE71D980068416E2A
:1020300021F000414166FFE71D980068806E00F0C6
:10204000F8401C990968B0EB816F07D1FFE71D9834
:102050000068816E21F000418166FFE71D980068ED
:10206000C06E00F0F8401C990968B0EB816F07D191
:10207000FFE71D980068C16E21F00041C166FFE7CF
:10208000FFE7FFE71D980068806800F0030000216B
:102090000128029105D1FFE71D98006800680290B1
:1020A000FFE70298C007002840F00081FFE71C9876
:1020B000C06801280ED0FFE71C980068012101FAD2
:1020C00000F01D990968D1F8B02022EA0000C1F89B
:1020D000B00035E01C980068012101FA00F01D995C
:1020E0000968D1F8B0201043C1F8B0001C9800680E
:1020F0000A2812D3FFE71D98006880691C990A68B6
:10210000896802EB42021B3A0723934098439140AF
:1021100008431D990968886111E01D9800684069AD
:102120001C990A68896802EB420203320723934034
:102130009843914008431D9909684861FFE7FFE70C
:1021400040F20030C5F200001A901C980068102878
:1021500006D1FFE71A9880680002002818D5FFE72B
:102160001C980068112806D1FFE71A988068C00102
:1021700000280DD5FFE71C980068122840F09580D4
:10218000FFE71A9880684002002800F18E80FFE780
:102190001D980068B0F1A04F06D1FFE740F2001093
:1021A000C5F20000069003E04FF0A0400690FFE764
:1021B0001D980068806800F003000021012801914B
:1021C00005D1FFE71D98006800680190FFE70198BE
:1021D000C00700285FD1FFE70698002812D0FFE76C
:1021E0000698806800F0030000210128009104D1C6
:1021F000FFE7069800680090FFE70098C0070028F6
:1022000049D1FFE71C980068102825D1FFE71D98E9
:102210000068B0F1A04F1FD1FFE71A98816841F420
:102220000001816040F20000C2F2000000684DF63B
:102230008361C4F21B31A0FB0101890C01EB810118
:1022400049000491FFE70498002804D0FFE70498B0
:1022500001380490F7E71DE01C98006811280CD1A4
:10226000FFE71D980068B0F1A04F06D1FFE71A986C
:10227000816841F0807181600BE01C980068122831
:1022800006D1FFE71A98816841F480018160FFE779
:10229000FFE7FFE708E01D98016C41F020010164B1
:1022A00001208DF86F00FFE7FFE7FFE708E01D98CA
:1022B000016C41F02001016401208DF86F00FFE7FF
:1022C000FFE71D98002180F83C10FFE79DF86F00A4
:1022D0008DF87B00FFE79DF87B001FB07047000082
:1022E00080B582B00190019840F2C011C2F20001A5
:1022F000884240F09F80FFE740F2AA00C2F200004F
:1023000000210180FFE740F2AA00C2F2000000882D
:10231000052800F38380FFE740F2A800C2F2000026
:1023200000210180FFE740F2A800C2F2000000880F
:10233000042823DCFFE740F2A800C2F20000008876
:1023400000EB400140F2D402C2F2000202EB810134
:1023500040F2AA02C2F20002128831F8121040F2D2
:10236000AC02C2F2000222F81010FFE740F2A8000F
:10237000C2F20000018801310180D4E740F2AC00D4
:10238000C2F20000052105F049FD40F2A800C2F2AA
:1023900000000221018040F2B800C2F200000021DA
:1023A0000160FFE740F2A800C2F2000000880228A6
:1023B0001BDCFFE740F2A800C2F20000008840F2F8
:1023C000AC01C2F2000131F8100040F2B801C2F2D3
:1023D00000010A6810440860FFE740F2A800C2F25A
:1023E0000000018801310180DCE740F2B800C2F250
:1023F0000000006840F2AA01C2F20001098840F220
:102400001012C2F2000222F81100FFE740F2AA0007
:10241000C2F2000001880131018074E740F2C0106F
:10242000C2F2000040F2D401C2F200011E2200F00C
:1024300085FAFFE702B080BD81B0009001B070471F
:1024400081B0009001B0704780B59CB01A90002018
:102450008DF86700039002901A98002804D1FFE7D6
:1024600001208DF86F0096E11A980069002808D0C5
:10247000FFE71A9890F82000002801D0FFE7FFE757
:10248000FFE71A98006CC006002879D4FFE71A9875
:10249000006C002854D1FFE71A98002141641A9873
:1024A000C1641A9881641A9880F83C101A9800F058
:1024B00077F91A9800688068C00000283FD4FFE7C9
:1024C0001A98FFF76DFA8DF867001A98006CC0062D
:1024D000002833D4FFE79DF8670000282ED1FFE7DE
:1024E0001A98006C40F0020020F488501A99086491
:1024F0001A980068816821F0405181601A9800683C
:10250000816841F08051816040F20000C2F2000019
:1025100000684DF68361C4F21B31A0FB0101890CF8
:1025200001EB810149000291FFE70298002804D0E5
:10253000FFE7029801380290F7E7FFE7FFE7FFE7C0
:102540001A9800688068C000002807D5FFE71A982D
:10255000006880688000002811D5FFE71A98006C99
:1025600040F0100020F002001A9908641A98416C9B
:1025700041F00101416401208DF86700FFE7FFE7AA
:102580001A98006CC006002800F1F480FFE79DF85F
:102590006700002840F0EE80FFE71A980068806826
:1025A00000F004000021B1EB900F40F0E380FFE762
:1025B0001A98006C40F0020020F480701A990864A8
:1025C00040F20030C5F2000018901A980068B0F18F
:1025D000A04F06D1FFE740F20010C5F200000490C2
:1025E00003E04FF0A0400490FFE71A98006880686D
:1025F00000F0030000210128019105D1FFE71A989E
:10260000006800680190FFE70198C007002820D10A
:10261000FFE70498002812D0FFE70498806800F0D4
:10262000030000210128009104D1FFE7049800680D
:102630000090FFE70098C00700280AD1FFE718982C
:10264000806820F440301A994968084318998860D6
:10265000FFE71A98417E4903426B01F58053012A36
:1026600018BF19468268C06840EA010040EA0200CB
:10267000039940EA010003901A9890F8200001287D
:1026800021D1FFE71A98407E00280DD1FFE71A9864
:10269000406A0021CFF6FE7101EB404003990843E8
:1026A00040F4803003900DE01A98006C40F0200058
:1026B00020F002001A9908641A98416C41F0010157
:1026C0004164FFE7FFE71A98806A012808D0FFE716
:1026D0001A98816AC06A0843039908430390FFE788
:1026E0001A980068806810F00C0F12D1FFE71A9852
:1026F0000068C16844F202029143C1601A98017EE9
:1027000090F83000890341EA4000039908430390A0
:10271000FFE71A980068C0684CF20701CFF6F07125
:102720000840039908431A990968C8601A98006913
:1027300001280CD1FFE71A980068006B20F00F0009
:102740001A990A68C96901390843106306E01A98A2
:102750000068016B21F00F010163FFE71A98002167
:1027600041641A98006C40F0010020F002001A99B0
:1027700008640BE01A98006C40F0100020F0020092
:102780001A99086401208DF86700FFE79DF867003B
:102790008DF86F00FFE79DF86F001CB080BD000052
:1027A00080B58EB00D9000200C900B900A9009908F
:1027B00008900D980068B0F1A04F7DD1FFE740F27E
:1027C000BC00C2F20000016801310160006801280C
:1027D00010D1FFE7FFE741F21400C4F202000168E4
:1027E00041F080510160006800F080500790079828
:1027F000FFE7FFE7FFE741F21400C4F202000168BF
:1028000041F400310160006800F400300690069841
:10281000FFE7FFE741F21400C4F20200016841F44F
:1028200080210160006800F4802005900598FFE792
:102830000F2008900320099000210A914FF0904248
:1028400008AB0290104601911946009300F0E2FA9D
:1028500002980890099001990A9140F20040C4F64C
:102860000000009900F0D6FA40F26020C2F20000A9
:102870000821C4F202010160019941608160802257
:10288000C2604FF4807202614FF4806242618161E4
:10289000C16100F0F1F9002803D0FFE7FFF798F9D4
:1028A000FFE7FFE70D9840F26021C2F2000181636B
:1028B0000D984862FFE73FE00D98006840F2001174
:1028C000C5F20001884236D1FFE740F2BC00C2F2F7
:1028D00000000168013101600068012810D1FFE7A4
:1028E000FFE741F21400C4F20200016841F0805198
:1028F0000160006800F0805004900498FFE7FFE753
:10290000FFE741F21400C4F20200016841F4003113
:102910000160006800F4003003900398FFE7102086
:1029200008900320099000200A904FF0904008A9D9
:1029300000F070FAFFE7FFE70EB080BD80B586B00B
:1029400004900391029200208DF807000499096811
:10295000896801F00401B0EB910F40F0DC80FFE7E3
:10296000FFE7049890F83C00012804D1FFE702201B
:102970008DF81700D8E00498012180F83C10FFE79B
:10298000FFE740F20830C5F200000068C0060028EA
:1029900040F0B680FFE70498FFF768F88DF807006D
:1029A0009DF80700002840F0A380FFE70498006C22
:1029B00040F4807040F6016188430499086440F255
:1029C0000830C5F200000068C006002806D0FFE706
:1029D00004980068B0F1A04F16D1FFE70498016C8D
:1029E00021F48011016404980068C0688001002807
:1029F00009D5FFE70498006C40F4805020F40050A3
:102A000004990864FFE729E00498016C41F48011FF
:102A1000016404980068B0F1A04F09D0FFE7049862
:102A2000006840F20011C5F20001884208D1FFE7BA
:102A30000C20C5F2000000688001002804D40CE0DE
:102A40000120002809D1FFE70498006C40F4805071
:102A500020F4005004990864FFE7FFE70498006C35
:102A6000C004002806D5FFE70498416C21F0060158
:102A7000416403E0049800214164FFE7FFE7049804
:102A8000002180F83C10FFE70498806B41F6E101DB
:102A9000C0F6000181620498806B41F68911C0F68E
:102AA0000001C1620498806B41F65D11C0F600011F
:102AB0000163049800681C21016004980068416863
:102AC00041F01001416004980068C16841F00101C3
:102AD000C16004980168806B4031039A029B00F04A
:102AE00011F9049909688A6842F004028A6006E0D4
:102AF000FFE70498002180F83C10FFE7FFE709E0BA
:102B000001208DF80700FFE70498002180F83C10B1
:102B1000FFE7FFE703E002208DF80700FFE79DF8DD
:102B200007008DF81700FFE79DF8170006B080BD7D
:102B300080B584B003900398C06B0068029003983E
:102B400000680068019002980399096CC84040072A
:102B5000002825D5FFE79DF80400400700281FD571
:102B6000FFE70398006800688006002807D4FFE7A5
:102B700003980068016821F004010160FFE70398F1
:102B8000C16B006C042202FA00F048600398C06A2E
:102B9000002804D0FFE70398C16A8847FFE768E090
:102BA00002980399096CC840800700282FD5FFE7D9
:102BB0009DF804008007002829D5FFE703980068E6
:102BC0000068800600280BD4FFE7039800680168BE
:102BD00021F00A0101600398012180F82110FFE72C
:102BE0000398C16B006C022202FA00F04860FFE714
:102BF0000398002180F82010FFE70398806A0028DE
:102C000004D0FFE70398816A8847FFE730E0029825
:102C10000399096CC8400007002828D5FFE79DF8F4
:102C200004000007002822D5FFE703980068016828
:102C300021F00E0101600398C16B006C012202FAC1
:102C400000F0486003988263039880F82120FFE732
:102C50000398002180F82010FFE70398006B0028FC
:102C600004D0FFE70398016B8847FFE7FFE7FFE722
:102C7000FFE704B080BD000080B584B00290002062
:102C800001900298002804D1FFE701208DF80F0081
:102C900033E00298022180F8211002980068006851
:102CA0000190019843F6F0718843019002984168C1
:102CB0008268C368D0F810C01143194341EA0C017F
:102CC0004269114382691143C0690843019908436D
:102CD000019001980299096808600298FEF730FF98
:102CE0000298002181630298012280F82120029835
:102CF00080F820108DF80F10FFE79DF80F0004B04A
:102D000080BD000080B586B00490039102920193CB
:102D100000208DF80300FFE7049890F820000128B8
:102D200004D1FFE702208DF817004DE0049801213F
:102D300080F82010FFE7FFE7049890F821000128B1
:102D400033D1FFE70498022180F821100498002174
:102D5000816304980068016821F001010160049812
:102D60000399029A019BFEF707FF0498C06A0028A6
:102D700007D0FFE704980068016841F00E01016088
:102D80000CE004980068016841F00A0101600498B1
:102D90000068016821F004010160FFE70498006801
:102DA000016841F00101016009E0FFE7049800219A
:102DB00080F82010FFE702208DF80300FFE79DF860
:102DC00003008DF81700FFE79DF8170006B080BDDF
:102DD00080B584B0039000F0D7F902900398019079
:102DE00001980130002809D0FFE740F23D00C2F20F
:102DF00000000078019908440190FFE7FFE700F028
:102E0000C3F90299401A0199884201D2FFE7F6E717
:102E100004B080BD89B00890079100200690FFE7BC
:102E2000079800680699C840002800F09081FFE7E5
:102E3000079800680699012202FA01F108400590FE
:102E40000598002800F07F81FFE707984068012877
:102E50000FD0FFE70798406802280AD0FFE70798DD
:102E60004068112805D0FFE70798406812282FD145
:102E7000FFE708988068049006984000032101FA53
:102E800000F0049921EA000004900798C0680699B0
:102E90004900884004990843049004980899886080
:102EA0000898406804900698012101FA00F00499FE
:102EB00021EA0000049007984068C0F300100699CA
:102EC0008840049908430490049808994860FFE7F3
:102ED0000898C068049006984000032101FA00F0A9
:102EE000049921EA00000490079880680699490037
:102EF000884004990843049004980899C86007988A
:102F00004068022805D0FFE707984068122826D1BC
:102F1000FFE7089806996FF0030202EA510108449E
:102F2000006A0490069800F0070080000F2101FA63
:102F300000F0049921EA00000490079800690699BE
:102F400001F007018900884004990843049004981F
:102F50000899069B02EA530211440862FFE70898A9
:102F60000068049006984000032101FA00F00499DB
:102F700021EA000004900798406800F003000699D9
:102F8000490088400499084304900498089908600F
:102F90000798C079C006002840F1D480FFE7FFE71A
:102FA00041F21800C4F20200016841F00101016021
:102FB000006800F0010003900398FFE7069820F0F6
:102FC00003000821C4F2010140580490069800F063
:102FD000030080000F2101FA00F0049921EA0000AB
:102FE00004900898B0F1904F03D1FFE700200290C1
:102FF00026E0089840F20041C4F60001884203D15F
:10300000FFE70120019018E0089840F60001C4F69F
:103010000001884203D1FFE7022000900AE00898EF
:1030200040F60041C4F600010522884208BF032291
:103030000092FFE700980190FFE701980290FFE7F8
:103040000298069901F00301890088400499084319
:1030500004900498069921F003010822C4F20102A9
:10306000885040F20040C4F20100006804900598C6
:10307000049921EA0000049007988079C00700288D
:1030800005D0FFE70598049908430490FFE70498EA
:1030900040F20041C4F20101086040F20440C4F271
:1030A0000100006804900598049921EA000004904A
:1030B000079880798007002805D5FFE705980499CF
:1030C00008430490FFE7049840F20441C4F2010170
:1030D000086040F20840C4F20100006804900598BE
:1030E000049921EA0000049007988079C00600281E
:1030F00005D5FFE70598049908430490FFE7049875
:1031000040F20841C4F20101086040F20C40C4F2F0
:103110000100006804900598049921EA00000490D9
:10312000079880798006002805D5FFE7059804995F
:1031300008430490FFE7049840F20C41C4F20101F7
:103140000860FFE7FFE706980130069068E609B0DF
:103150007047000082B013468C460190ADF8021013
:103160008DF801209DF80100002805D0FFE7BDF88B
:1031700002000199886104E0BDF8020001998862AB
:10318000FFE702B07047000040F22450C2F2000096
:103190000068704786B0049003910292049890F8FA
:1031A000C100022804D1FFE702208DF8170099E042
:1031B000FFE7049890F8C000012804D1FFE702203F
:1031C0008DF817008EE00498012180F8C010FFE709
:1031D000FFE70498022180F8C11004980068D0F835
:1031E000800301900398013801460728009151D8C7
:1031F0000099DFE801F004164F294F4F4F3C01982A
:1032000020F4E02001900298006800F4E020019989
:10321000084301900298406804990968C1F8BC030A
:1032200043E0019820F4601001900298006800F4D7
:10323000E020019941EAC000019002984068049999
:103240000968C1F8C00330E0019820F0E0700190F7
:103250000298006800F4E020019941EA8010019092
:103260000298406804990968C1F8C4031DE00198F8
:1032700020F0606001900298006800F4E02001995D
:1032800041EA402001900298406804990968C1F819
:10329000C8030AE00498072180F8C110FFE70498EA
:1032A000002180F8C010FFE7FFE7049890F8C10004
:1032B000072804D1FFE701208DF8170012E00198DC
:1032C00004990968C1F880030498012180F8C110AD
:1032D000FFE70498002180F8C010FFE700208DF878
:1032E0001700FFE79DF8170006B0704783B0019004
:1032F0000091FFE7019890F8C000012804D1FFE792
:1033000002208DF80B0044E00198012180F8C010E4
:10331000FFE7FFE70198022180F8C1100098013013
:10332000002811D1FFE701980068D0F8CC1321F0F4
:103330000201C0F8CC1301980068D0F8CC1341F01A
:103340000101C0F8CC131CE001980068D0F8CC1340
:1033500041F00201C0F8CC1301980068D0F8CC030A
:1033600020F00C000099084301990968C1F8CC03CA
:1033700001980068D0F8CC1341F00101C0F8CC13DB
:10338000FFE70198012180F8C11000208DF80B00A3
:10339000FFE79DF80B0003B07047000085B0039075
:1033A00002910192039890F8C100022804D1FFE72E
:1033B00002208DF8130077E0FFE7039890F8C00033
:1033C000012804D1FFE702208DF813006CE0039878
:1033D000012180F8C010FFE7FFE70398022180F881
:1033E000C1100198006800F4E05000900198406816
:1033F0006FF35F200099084300900198806800F403
:1034000000700099084300900198006900F4804022
:103410000099084300900198C06800F400400099AA
:1034200008430090019840690021C0F2FF1101EAB1
:1034300000400099084300900198806900F00070F6
:103440000099084300900198006A00F080400099BC
:10345000084300900198C06900F0004000990843BB
:10346000009003980068029900EBC110D0F8B800F2
:1034700042F20001C3F60041084000990843039955
:103480000968029A01EBC211C1F8B8000398012142
:1034900080F8C110FFE70398002180F8C010FFE713
:1034A00000208DF81300FFE79DF8130005B070476A
:1034B00080B586B004900498002804D1FFE701206D
:1034C0008DF81700C0E00498022180F8C11004981C
:1034D0000021C0F8C4100498C0F8C8100498C0F8BF
:1034E000CC100498C0F8D0100498C0F8D4100498F8
:1034F000C0F8D8100498007AC007002838D0FFE739
:103500000498006847F20041C4F20101884210D1DA
:10351000FFE7FFE741F21800C4F20200016841F042
:1035200000510160006800F0005001900198FFE731
:10353000FFE70498006800680290029820F4404079
:1035400002900498006900F44040029908430290F8
:10355000029820F4405002900498406900F44050D2
:103560000299084302900298049909680860FFE7ED
:10357000049800F06DF80498007A8007002814D5AC
:10358000FFE70498006800680290029820F44070F9
:1035900002900498C06800F44070029908430290B9
:1035A0000298049909680860FFE70498012180F8EF
:1035B000C110FFE70498002180F8C010FFE7002049
:1035C0008DF80F00FFE79DF80F00052838D8FFE7BA
:1035D00004989DF80F10C1EBC10100EB81000021A0
:1035E000816104989DF80F20C2EBC20200EB8200BB
:1035F000C16104989DF80F20C2EBC20200EB82006B
:10360000016204989DF80F20C2EBC20200EB820019
:10361000416204989DF80F20C2EBC20200EB8200C9
:10362000816204989DF80F20C2EBC20200EB820079
:103630000163FFE79DF80F0001308DF80F00C2E72E
:1036400000208DF81700FFE79DF8170006B080BD39
:1036500082B001900198006847F20041C4F2010174
:10366000884210D1FFE7FFE741F21800C4F20200E0
:10367000016841F000510160006800F000500090C6
:103680000098FFE7FFE702B07047000080B58EB0FA
:103690000D9000200C900B900A90099008900D98C6
:1036A000006847F20041C4F2010188424AD1FFE7B5
:1036B000FFE741F21400C4F20200016841F48021E6
:1036C0000160006800F4802007900798FFE7FFE79B
:1036D00041F21400C4F20200016841F400310160BB
:1036E000006800F4003006900698FFE74FF4704041
:1036F00008900220099000210A9103220B920D23C9
:103700000C9340F2004CC4F6000C0DF1200E059015
:1037100060460491714603920293CDF804E0FFF7EE
:1037200079FB4FF4706008900598099004990A910C
:10373000039A0B92029B0C934FF090400199FFF774
:1037400069FBFFE70EB080BD80B584B002900191A7
:10375000FFF71AFD0090FFE702980068D0F8880391
:1037600000F480300021B1EB104F1BD1FFE701982E
:103770000130002815D0FFE7FFF706FD0099401A39
:103780000199884204D8FFE70198002808D1FFE793
:103790000298072180F8C11003208DF80F000FE078
:1037A000FFE7D9E70298012180F8C110FFE70298EE
:1037B000002180F8C010FFE700208DF80F00FFE720
:1037C0009DF80F0004B080BD80B584B002900191D7
:1037D0000092029890F8C100022804D1FFE702206D
:1037E0008DF80F001AE00298022180F8C1100198AC
:1037F000052805D1FFE70298009902F033FA05E0A9
:1038000002980199009A02F071FBFFE702980121EA
:1038100080F8C11000208DF80F00FFE79DF80F0021
:1038200004B080BD87B0059004910392029305987F
:1038300090F8C100022804D1FFE702208DF81B0098
:103840004EE1FFE7059890F8C000012804D1FFE79A
:1038500002208DF81B0043E10598012180F8C0107B
:10386000FFE7FFE70598022180F8C11004980528BA
:103870003BD1FFE7039801380146072801911ED884
:103880000199DFE801F0040A1C101C1C1C160298A8
:10389000006805990968C8611CE0029800680599EC
:1038A0000968486216E0029800680599096888620C
:1038B00010E00298006805990968C8620AE0059856
:1038C000072180F8C110FFE70598002180F8C0109B
:1038D000FFE7FFE7059890F8C100072804D1FFE74C
:1038E00001208DF81B00FBE0ECE003980138014655
:1038F0000728009100F2D0800099DFE801F0040E63
:10390000CD68CDCDCD720298006805990968049AFA
:1039100001EBC211C1F89C00C9E00298006805994A
:103920000968049A01EBC211C1F8A400029840682A
:1039300000283AD0FFE705980068049900EBC11011
:10394000D0F8801021F44051C0F8801002984068EF
:1039500005990968049A01EBC211D1F8802010433F
:10396000C1F8800002984068B0F5005F0AD1FFE717
:103970000298806805990968049A01EBC211C1F8A0
:103980009C0011E002984068B0F5405F0AD1FFE763
:103990000298806805990968049A01EBC211C1F880
:1039A000A80000E0FFE7FFE710E005980068049931
:1039B00000EBC110D0F8800020F440500599096850
:1039C000049A01EBC211C1F88000FFE76FE0029892
:1039D000006805990968049A01EBC211C1F8A800B2
:1039E00065E00298006805990968049A01EBC21124
:1039F000C1F8AC000298406800283BD0FFE705986A
:103A00000068049900EBC110D0F8801021F4404107
:103A1000C0F880100298406805990968049A01EB83
:103A2000C211D1F8802042EA8000C1F880000298DB
:103A30004068B0F5005F0AD1FFE7029880680599F9
:103A40000968049A01EBC211C1F89C0011E00298C8
:103A50004068B0F5405F0AD1FFE702988068059999
:103A60000968049A01EBC211C1F8A80000E0FFE761
:103A7000FFE710E005980068049900EBC110D0F84A
:103A8000800020F4404005990968049A01EBC211B6
:103A9000C1F88000FFE70AE00598072180F8C1100F
:103AA000FFE70598002180F8C010FFE7FFE70598C1
:103AB00090F8C100072804D1FFE701208DF81B0012
:103AC0000EE0FFE70598012180F8C110FFE7059897
:103AD000002180F8C010FFE700208DF81B00FFE7F1
:103AE0009DF81B0007B0704783B001900091FFE77D
:103AF000019890F8C000012804D1FFE702208DF85A
:103B00000B001DE00198012180F8C010FFE7FFE7DE
:103B10000198022180F8C1100098019909680A688B
:103B2000104308600198012180F8C110FFE7019857
:103B3000002180F8C010FFE700208DF80B00FFE7A0
:103B40009DF80B0003B0704780B586B004900391D8
:103B500002920193049890F8C100022804D1FFE773
:103B600002208DF8170028E0FFE7049890F8C000C5
:103B7000012804D1FFE702208DF817001DE004980A
:103B8000012180F8C010FFE7FFE70498022180F8C8
:103B9000C11004980399029A019B02F0EDF8049871
:103BA000012180F8C110FFE70498002180F8C010BF
:103BB000FFE700208DF81700FFE79DF8170006B01B
:103BC00080BD000083B001900091FFE7019890F85C
:103BD000C000012804D1FFE702208DF80B001FE090
:103BE0000198012180F8C010FFE7FFE7019802214A
:103BF00080F8C110009801990968D1F89423104306
:103C0000C1F894030198012180F8C110FFE70198E1
:103C1000002180F8C010FFE700208DF80B00FFE7BF
:103C20009DF80B0003B0704780B584B002900191FD
:103C30000092029890F8C100022804D1FFE7022008
:103C40008DF80F0062E0FFE7029890F8C0000128AD
:103C500004D1FFE702208DF80F0057E00298012100
:103C600080F8C010FFE7FFE70298022180F8C1103A
:103C70000198052805D1FFE70298009902F01CF889
:103C800005E002980199009A02F06AF9FFE70098AE
:103C900000680299019AC2EBC20201EB820108623C
:103CA000009840680299019AC2EBC20201EB8201BE
:103CB0004862009880680299019AC2EBC20201EB47
:103CC000820188620098C0680299019AC2EBC20220
:103CD00001EB8201C862009800690299019AC2EB67
:103CE000C20201EB820108630298019901F074FF9E
:103CF0000298012180F8C110FFE70298002180F8A6
:103D0000C010FFE700208DF80F00FFE79DF80F00BF
:103D100004B080BD83B001900091019890F84100FB
:103D200020283BD1FFE7FFE7019890F840000128E9
:103D300004D1FFE702208DF80B0033E00198012148
:103D400080F84010FFE7FFE70198242180F8411038
:103D500001980068016821F0010101600198006884
:103D6000016821F4805101600098019909680A688E
:103D70001043086001980068016841F0010101608A
:103D80000198202180F84110FFE70198002180F878
:103D90004010FFE700208DF80B0003E002208DF8B3
:103DA0000B00FFE79DF80B0003B0704784B0029052
:103DB0000191029890F84100202840D1FFE7FFE7E9
:103DC000029890F84000012804D1FFE702208DF806
:103DD0000F0038E00298012180F84010FFE7FFE76C
:103DE0000298242180F8411002980068016821F0AF
:103DF000010101600298006800680090009820F4BA
:103E0000706000900198009941EA002000900098AD
:103E100002990968086002980068016841F0010190
:103E200001600298202180F84110FFE702980021EC
:103E300080F84010FFE700208DF80F0003E002201B
:103E40008DF80F00FFE79DF80F0004B070470000E9
:103E500080B582B000900098002804D1FFE70120CF
:103E60008DF8070074E0009890F84100002808D110
:103E7000FFE70098002180F84010009800F084F9D6
:103E8000FFE70098242180F841100098006801683D
:103E900021F00101016000980168406820F0706025
:103EA000086100980068816821F4004181600098F1
:103EB000C068012807D1FFE700980168806840F4D6
:103EC0000040886006E000980168806840F4044083
:103ED0008860FFE70098C068022806D1FFE70098D5
:103EE00000684FF400614160FFE700980068416896
:103EF00048F20002C0F200221143416000980068BD
:103F0000C16821F40041C1600098016802694369F9
:103F100080691A4342EA0020C86000980168C269BB
:103F2000006A1043086000980068016841F00101D0
:103F300001600098002141640098202280F841200F
:103F400000980163009880F842108DF80710FFE791
:103F50009DF8070002B080BD10B588B0DDF828C01C
:103F60009E460C460690ADF816100492ADF80E3041
:103F7000069890F84100202840F0FD80FFE7FFE719
:103F8000069890F84000012804D1FFE702208DF840
:103F90001F00F4E00698012180F84010FFE7FFE7DA
:103FA000FFF7F2F80290069802996A4611604FF402
:103FB00000410122192302F0CDF9002804D0FFE7C7
:103FC00001208DF81F00DAE00698212180F84110C9
:103FD0000698102180F84210069800214164049848
:103FE000069A5062BDF80E00069A50850698416305
:103FF0000698408DB0F5807F14D3FFE70698FF2127
:1040000001850698BDF8161090F828206B4642F2FC
:10401000000CC8F2000CC3F800C04FF0807302F02F
:1040200071F914E00698408D069908850698BDF848
:10403000161090F828206B4642F2000CC8F2000CD3
:10404000C3F800C04FF0007302F05CF9FFE7FFE730
:104050000698408D002864D0FFE706980A99029AD6
:1040600002F00CFA002804D0FFE701208DF81F00B1
:1040700085E006980168406A007888620698416A7F
:10408000013141620698418D013941850698018DC3
:10409000013901850698408D002841D0FFE7069838
:1040A000008D00283CD1FFE706980A9B02996A46DA
:1040B00011608021002202F04DF9002804D0FFE7B2
:1040C00001208DF81F005AE00698408DB0F5807FE2
:1040D00012D3FFE70698FF2101850698BDF8161058
:1040E00090F828206B464FF0000CC3F800C04FF04A
:1040F000807302F007F912E00698408D0699088552
:104100000698BDF8161090F828206B464FF0000C6A
:10411000C3F800C04FF0007302F0F4F8FFE7FFE7C8
:1041200096E706980A99029A02F060F9002804D0EE
:10413000FFE701208DF81F0021E00698006820218C
:10414000C1610698006842684EF60003CFF600632E
:104150001A404260069880F841100698002180F8C5
:104160004210FFE70698002180F84010FFE700208A
:104170008DF81F0003E002208DF81F00FFE79DF877
:104180001F0008B010BD000080B58EB00D9000205B
:104190000C900B900A90099008900D98006845F2D9
:1041A0000041C4F20001884259D1FFE7FFE741F224
:1041B0001400C4F20200016841F40031016000689B
:1041C00000F4003007900798FFE7FFE741F2140082
:1041D000C4F20200016841F480210160006800F42B
:1041E000802006900698FFE74FF4004008901220C8
:1041F000099001210A9103220B9204230C934FF0A2
:10420000904C0DF1200E049060460391714602928D
:104210000193CDF800E0FEF7FDFD4FF4007008902B
:104220000498099003990A91029A0B92019B0C93AE
:1042300040F20040C4F600000099FEF7EBFDFFE7F6
:1042400041F21C00C4F20200016841F40011016057
:10425000006800F4001005900598FFE7FFE70EB036
:1042600080BD000040F23D00C2F20000007840F244
:104270002451C2F200010A6810440860704700002F
:1042800080B582B042F20000C4F20200016841F041
:1042900010010160032000F093F80020019000F06D
:1042A00007F8009000F03EF8019802B080BD0000D1
:1042B00080B582B0009040F20000C2F200000068B9
:1042C00040F23D01C2F2000109784FF47A72B2FB6C
:1042D000F1F1B0FBF1F001F043F9002804D0FFE761
:1042E00001208DF8070018E000980F280DD8FFE78F
:1042F00000994FF0FF30002200F042F8009840F2A1
:104300004001C2F20001086003E001208DF80700BF
:1043100003E000208DF80700FFE79DF8070002B0DA
:1043200080BD000082B0FFE741F21800C4F2020035
:10433000016841F001010160006800F00100019096
:104340000198FFE7FFE741F21C00C4F20200016898
:1043500041F080510160006800F0805000900098AA
:10436000FFE702B07047000080B582B001468DF8CB
:1043700007009DF90700009103F0EEFC02B080BD3C
:1043800080B588B003468DF81F0006910592002085
:104390000490039303F0FAFC04909DF91F00049924
:1043A000069A059B0290084611461A4602F02EFD19
:1043B000029901900846019903F0F0FC08B080BD15
:1043C00080B582B00190019803F00AFD02B080BD73
:1043D00080B58AB008900020079006908DF81700ED
:1043E00008988078C007002800F0D580FFE741F2E8
:1043F0001C00C4F202000068C000002813D4FFE7CC
:10440000FFE741F21C00C4F20200016841F0805154
:104410000160006800F0805004900498FFE70120DC
:104420008DF81700FFE747F20000C4F200000068B3
:10443000C005002822D4FFE747F20000C4F20000C4
:10444000016841F480710160FEF79EFE0790FFE76E
:1044500047F20000C4F200000068C00500280CD438
:10446000FFE7FEF791FE0799401A652804D3FFE79E
:1044700003208DF82700ECE0EAE7FFE741F2200097
:10448000C4F20200006800F440700690069800280C
:1044900067D0FFE706980899496801F4407188429F
:1044A0005FD0FFE741F22000C4F20200016821F46E
:1044B0004071069140F24041C4F2422101220A605B
:1044C00000220A60069901609DF81800C0070028C4
:1044D00046D0FFE7FEF758FE0790FFE701200028CF
:1044E00007D1FFE741F20000C4F202000068039028
:1044F00022E00020002807D1FFE741F22000C4F2AB
:1045000002000068029014E00120002807D1FFE7B4
:1045100041F20400C4F202000068019006E041F29A
:104520002400C4F2020000680190FFE701980290A5
:10453000FFE702980390FFE70398800700280ED456
:10454000FFE7FEF721FE0799401A41F289318842C0
:1045500004D3FFE703208DF827007AE0BEE7FFE7EA
:10456000FFE741F22000C4F20200016821F440712B
:10457000089A5268114301609DF81700012809D17B
:10458000FFE741F21C00C4F20200016821F08051F3
:104590000160FFE7FFE708980078C00700280CD00B
:1045A000FFE741F23000C4F20200016821F003018C
:1045B000089A926811430160FFE708980078800626
:1045C00000280CD5FFE741F23000C4F20200016878
:1045D00021F01001089AD26811430160FFE70898A2
:1045E0000078000600280CD5FFE741F22C00C4F249
:1045F0000200016821F4F871089A12691143016000
:10460000FFE708984078C00600280CD5FFE741F284
:104610003000C4F20200016821F48071089A5269E6
:1046200011430160FFE708984078400600280CD548
:10463000FFE741F23000C4F20200016821F480512A
:10464000089A926911430160FFE700208DF8270066
:10465000FFE79DF827000AB080BD000080B58EB04E
:104660000C900B9100200A900C98002804D1FFE7D1
:1046700001208DF837007CE10B9842F20001C4F272
:104680000201096801F00701884216D9FFE742F2EA
:104690000000C4F20200016821F007010B9A1143E7
:1046A0000160006800F007000B99884204D0FFE722
:1046B00001208DF837005CE1FFE70C980078800757
:1046C00000280CD5FFE741F20400C4F202000168A3
:1046D00021F0F0010C9A926811430160FFE70C98F9
:1046E0000078C007002800F0DF80FFE70C984068E2
:1046F000012838D1FFE70020002807D1FFE741F269
:104700000000C4F202000068099022E001200028A5
:1047100007D1FFE741F22000C4F2020000680890D0
:1047200014E00120002807D1FFE741F20400C4F2A1
:1047300002000068079006E041F22400C4F2020083
:1047400000680790FFE707980890FFE7089809902E
:10475000FFE709988003002804D4FFE701208DF8C3
:10476000370006E175E00C984068022838D1FFE771
:104770000020002807D1FFE741F20000C4F2020048
:104780000068069022E00120002807D1FFE741F2EF
:104790002000C4F202000068059014E00120002807
:1047A00007D1FFE741F20400C4F202000068049060
:1047B00006E041F22400C4F2020000680490FFE722
:1047C00004980590FFE705980690FFE7069880019A
:1047D000002804D4FFE701208DF83700C9E037E056
:1047E0000020002807D1FFE741F20000C4F20200D8
:1047F0000068039022E00120002807D1FFE741F282
:104800002000C4F202000068029014E00120002899
:1048100007D1FFE741F20400C4F2020000680190F2
:1048200006E041F22400C4F2020000680190FFE7B4
:1048300001980290FFE702980390FFE70398800732
:10484000002804D4FFE701208DF8370091E0FFE74E
:10485000FFE741F20400C4F20200016821F0030105
:104860000C9A526811430160FEF78EFC0A90FFE734
:1048700041F20400C4F20200006800F00C000C9940
:104880004968B0EB810F0ED0FFE7FEF77DFC0A9977
:10489000401A41F28931884204D3FFE703208DF8A2
:1048A000370066E0E4E7FFE70B9842F20001C4F24C
:1048B0000201096801F00701884216D2FFE742F2BF
:1048C0000000C4F20200016821F007010B9A1143B5
:1048D0000160006800F007000B99884204D0FFE7F0
:1048E00001208DF8370044E0FFE70C98007840077E
:1048F00000280CD5FFE741F20400C4F20200016871
:1049000021F4E0610C9AD26811430160FFE70C9832
:104910000078000700280DD5FFE741F20400C4F23B
:104920000200016821F460510C9A126941EAC20147
:104930000160FFE700F04CF841F20401C4F202010B
:104940000968C9B2090948F6B322C0F60002515CF1
:10495000C84040F20001C2F20001086040F240008D
:10496000C2F200000068FFF7A3FC00218DF83710A9
:10497000FFE79DF837000EB080BD000040F2000058
:10498000C2F200000068704780B5FFF7F7FF41F200
:104990000401C4F202010968C1F3022148F6C322EE
:1049A000C0F60002515CC84080BD000080B5FFF732
:1049B000E5FF41F20401C4F202010968C1F3C2211A
:1049C00048F6C322C0F60002515CC84080BD00001A
:1049D00080B588B000200790069005900490039061
:1049E00041F20400C4F2020000680790079800F04A
:1049F0000C0001460028029143D0FFE702980428EA
:104A000004D0FFE70298082806D03BE041F20020DE
:104A1000C0F27A0003903BE00798C0F3834049F26C
:104A2000E321C0F60001085C049041F22C00C4F2BE
:104A30000200006800F00F0049F2F321C0F6000107
:104A4000085C06909DF81E00C00700280ED0FFE706
:104A5000069A41F20020C0F27A0000210191019BE8
:104A6000FBF758FC04994843059007E0049840F68A
:104A70000011C0F23D0148430590FFE705980390FF
:104A800006E0FFE741F20020C0F27A000390FFE762
:104A9000039808B080BD000080B5AEB02C902C9873
:104AA000002805D1FFE701208DF8B70000F053BDC5
:104AB0002C980078C007002800F03D81FFE741F204
:104AC0000400C4F20200006800F00C00042813D0B7
:104AD000FFE741F20400C4F20200006800F00C009D
:104AE000082847D1FFE741F20400C4F20200006841
:104AF000C00300283ED5FFE70020002807D1FFE7CC
:104B000041F20000C4F202000068279022E0012078
:104B1000002807D1FFE741F22000C4F2020000683C
:104B2000269014E00120002807D1FFE741F204009D
:104B3000C4F202000068259006E041F22400C4F2AD
:104B4000020000682590FFE725982690FFE7269849
:104B50002790FFE72798800300280AD5FFE72C98C5
:104B60004068002805D1FFE701208DF8B70000F06C
:104B7000F2BCDFE0FFE72C984068B0F5803F09D138
:104B8000FFE741F20000C4F20200016841F4803105
:104B9000016033E02C98406800280DD1FFE741F216
:104BA0000000C4F20200016821F480310160016854
:104BB00021F48021016020E02C984068B0F5A02FFE
:104BC0000DD1FFE741F20000C4F20200016841F498
:104BD00080210160016841F4803101600CE041F204
:104BE0000000C4F20200016821F480310160016814
:104BF00021F480210160FFE7FFE7FFE7FFE741F2D3
:104C00002C00C4F20200016821F00F012C9A926876
:104C1000114301602C984068002845D0FFE7FEF75B
:104C2000B3FA2B90FFE70020002807D1FFE741F2FD
:104C30000000C4F202000068249022E00120002855
:104C400007D1FFE741F22000C4F202000068239080
:104C500014E00120002807D1FFE741F20400C4F26C
:104C600002000068229006E041F22400C4F2020033
:104C700000682290FFE722982390FFE72398249072
:104C8000FFE72498800300280DD4FFE7FEF77CFAA5
:104C90002B99401A652805D3FFE703208DF8B7004C
:104CA00000F059BCBFE744E0FEF76EFA2B90FFE737
:104CB0000020002807D1FFE741F20000C4F2020003
:104CC0000068219022E00120002807D1FFE741F28F
:104CD0002000C4F202000068209014E001200028A7
:104CE00007D1FFE741F20400C4F2020000681F9000
:104CF00006E041F22400C4F2020000681F90FFE7C2
:104D00001F982090FFE720982190FFE721988003CB
:104D100000280DD5FFE7FEF737FA2B99401A6528D2
:104D200005D3FFE703208DF8B70000F014BCBFE700
:104D3000FFE7FFE7FFE72C9800788007002840F1A5
:104D40000C81FFE741F20400C4F20200006810F099
:104D50000C0F13D0FFE741F20400C4F20200006818
:104D600000F00C00082853D1FFE741F20400C4F220
:104D700002000068C00300284AD4FFE70020002892
:104D800007D1FFE741F20000C4F2020000681E9064
:104D900022E00120002807D1FFE741F22000C4F201
:104DA000020000681D9014E00120002807D1FFE7F1
:104DB00041F20400C4F2020000681C9006E041F2D7
:104DC0002400C4F2020000681C90FFE71C981D90AC
:104DD000FFE71D981E90FFE71E988007002809D561
:104DE000FFE72C980069012804D0FFE701208DF827
:104DF000B700B0E341F20000C4F20200016821F004
:104E0000F8012C9A526941EAC2010160FFE7A3E070
:104E10002C980069002855D0FFE70020C4F24220FA
:104E200001210160FEF7B0F92B90FFE70020002878
:104E300007D1FFE741F20000C4F2020000681B90B6
:104E400022E00120002807D1FFE741F22000C4F250
:104E5000020000681A9014E00120002807D1FFE743
:104E600041F20400C4F202000068199006E041F229
:104E70002400C4F2020000681990FFE719981A9004
:104E8000FFE71A981B90FFE71B98800700280CD4B7
:104E9000FFE7FEF779F92B99401A032804D3FFE7BF
:104EA00003208DF8B70056E3C0E741F20000C4F2DA
:104EB0000200016821F0F8012C9A526941EAC2010E
:104EC000016048E00020C4F2422000210160FEF7AA
:104ED0005BF92B90FFE70020002807D1FFE741F2A4
:104EE0000000C4F202000068189022E001200028AF
:104EF00007D1FFE741F22000C4F2020000681790DA
:104F000014E00120002807D1FFE741F20400C4F2B9
:104F100002000068169006E041F22400C4F202008C
:104F200000681690FFE716981790FFE717981890FB
:104F3000FFE71898800700280CD5FFE7FEF724F953
:104F40002B99401A032804D3FFE703208DF8B700FC
:104F500001E3C0E7FFE7FFE7FFE72C9800780007D1
:104F6000002840F19B80FFE72C98806900284AD0F8
:104F7000FFE740F28040C4F2422001210160FEF7C9
:104F800003F92B90FFE70120002807D1FFE741F24A
:104F90000000C4F202000068159022E00120002801
:104FA00007D1FFE741F22000C4F20200006814902C
:104FB00014E00120002807D1FFE741F20400C4F209
:104FC00002000068139006E041F22400C4F20200DF
:104FD00000681390FFE713981490FFE7149815905A
:104FE000FFE71598800700280CD4FFE7FEF7CCF800
:104FF0002B99401A032804D3FFE703208DF8B7004C
:10500000A9E2C0E749E040F28040C4F2422000211A
:105010000160FEF7B9F82B90FFE70120002807D1C7
:10502000FFE741F20000C4F202000068129022E0A3
:105030000120002807D1FFE741F22000C4F202005E
:105040000068119014E00120002807D1FFE741F229
:105050000400C4F202000068109006E041F224004F
:10506000C4F2020000681090FFE710981190FFE76B
:1050700011981290FFE71298800700280CD5FFE7DF
:10508000FEF782F82B99401A032804D3FFE7032088
:105090008DF8B7005FE2C0E7FFE7FFE72C980078E4
:1050A0004007002840F12E81FFE700208DF8A7007F
:1050B00041F21C00C4F202000068C000002813D4B2
:1050C000FFE7FFE741F21C00C4F20200016841F073
:1050D00080510160006800F0805028902898FFE718
:1050E00001208DF8A700FFE747F20000C4F200009E
:1050F0000068C005002822D4FFE747F20000C4F290
:105100000000016841F480710160FEF73DF82B90CA
:10511000FFE747F20000C4F200000068C005002865
:105120000CD4FFE7FEF730F82B99401A652804D31A
:10513000FFE703208DF8B7000DE2EAE7FFE7FFE79E
:105140002C98C068012809D1FFE741F22000C4F281
:105150000200016841F00101016032E02C98C06852
:1051600000280DD1FFE741F22000C4F202000168DF
:1051700021F001010160016821F0040101601FE0DC
:105180002C98C06805280DD1FFE741F22000C4F239
:105190000200016841F004010160016841F0010171
:1051A00001600CE041F22000C4F20200016821F02D
:1051B00001010160016821F004010160FFE7FFE7E0
:1051C000FFE7FFE72C98C068002846D0FFE7FDF70F
:1051D000DBFF2B90FFE70120002807D1FFE741F21A
:1051E0000000C4F2020000680F9022E000200028B6
:1051F00007D1FFE741F22000C4F2020000680E90E0
:1052000014E00120002807D1FFE741F20400C4F2B6
:10521000020000680D9006E041F22400C4F2020092
:1052200000680D90FFE70D980E90FFE70E980F9025
:10523000FFE70F98800700280ED4FFE7FDF7A4FFD3
:105240002B99401A41F28931884204D3FFE70320A9
:105250008DF8B7007FE1BEE745E0FDF795FF2B90A5
:10526000FFE70120002807D1FFE741F20000C4F268
:10527000020000680C9022E00020002807D1FFE720
:1052800041F22000C4F2020000680B9014E00120FB
:10529000002807D1FFE741F20400C4F202000068D1
:1052A0000A9006E041F22400C4F2020000680A906D
:1052B000FFE70A980B90FFE70B980C90FFE70C981C
:1052C000800700280ED5FFE7FDF75EFF2B99401AF7
:1052D00041F28931884204D3FFE703208DF8B700FB
:1052E00039E1BEE7FFE79DF8A700012809D1FFE7F4
:1052F00041F21C00C4F20200016821F080510160FB
:10530000FFE7FFE72C98C069002800F02081FFE745
:1053100041F20400C4F20200006800F00C0008280A
:1053200000F0EF80FFE72C98C069022840F09F80D2
:10533000FFE76020C4F2422000210160FDF724FF56
:105340002B90FFE70020002807D1FFE741F2000083
:10535000C4F202000068099022E00120002807D171
:10536000FFE741F22000C4F202000068089014E058
:105370000120002807D1FFE741F20400C4F2020037
:105380000068079006E041F22400C4F202000068C1
:105390000790FFE707980890FFE708980990FFE754
:1053A0000998800100280CD5FFE7FDF7EDFE2B9949
:1053B000401A032804D3FFE703208DF8B700CAE0A2
:1053C000C0E741F20400C4F20200016821F4741144
:1053D0002C9A136A526A1A43114301606020C4F286
:1053E000422001210160FDF7CFFE2B90FFE7002056
:1053F000002807D1FFE741F20000C4F20200006874
:10540000069022E00120002807D1FFE741F22000AA
:10541000C4F202000068059014E00120002807D1C2
:10542000FFE741F20400C4F202000068049006E0C5
:1054300041F22400C4F2020000680490FFE70498DF
:105440000590FFE705980690FFE706988001002881
:105450000CD4FFE7FDF798FE2B99401A032804D3DC
:10546000FFE703208DF8B70075E0C0E748E0602053
:10547000C4F2422000210160FDF786FE2B90FFE779
:105480000020002807D1FFE741F20000C4F202002B
:105490000068039022E00120002807D1FFE741F2D5
:1054A0002000C4F202000068029014E001200028ED
:1054B00007D1FFE741F20400C4F202000068019046
:1054C00006E041F22400C4F2020000680190FFE708
:1054D00001980290FFE702980390FFE7039880018C
:1054E00000280CD5FFE7FDF74FFE2B99401A032843
:1054F00004D3FFE703208DF8B7002CE0C0E7FFE7F7
:1055000024E02C98C069012804D1FFE701208DF820
:10551000B70020E041F20400C4F2020000682A90C3
:105520002A9800F480302C99096A884208D1FFE754
:105530002A9800F470102C99496A884204D0FFE739
:1055400001208DF8B70006E0FFE7FFE7FFE7002046
:105550008DF8B700FFE79DF8B7002EB080BD0000C2
:1055600080B582B00190019802F006F802B080BDCB
:1055700081B0009001B0704781B0009001B07047D9
:1055800081B0009001B0704780B584B0029002985D
:10559000002804D1FFE701208DF80F0049E00298B0
:1055A00090F83D00002808D1FFE70298002180F81C
:1055B0003C10029800F042F8FFE70298022180F8C0
:1055C0003D10029850F8041B01900846019902F022
:1055D0006DF80298012180F84810FFE70298012138
:1055E00080F83E10029880F83F10029880F8401032
:1055F000029880F84110029880F84210029880F8D2
:105600004310FFE7FFE70298012180F84410029859
:1056100080F84510029880F84610029880F84710EC
:10562000FFE70298012180F83D1000208DF80F005F
:10563000FFE79DF80F0004B080BD000080B584B086
:1056400003900398006844F60001C4F20101884207
:105650001AD1FFE7FFE741F21800C4F20200016827
:1056600041F480210160006800F4802002900298DB
:10567000FFE71A20002101900091009AFEF780FEBA
:105680000198FEF771FEFFE704B080BD83B0019082
:10569000019890F83D00012804D0FFE701208DF823
:1056A0000B004EE00198022180F83D10019800683F
:1056B000C16841F00101C1600198006842F60041F3
:1056C000C4F20101884218D0FFE701980068B0F1E8
:1056D000804F12D0FFE70198006840F20041C4F209
:1056E0000001884209D0FFE70198006844F20001F8
:1056F000C4F20101884219D1FFE70198006880686F
:105700000721C0F2010108400090009806280CD043
:10571000FFE70098B0F5803F07D0FFE701980068E9
:10572000016841F001010160FFE706E001980068AF
:10573000016841F001010160FFE700208DF80B00D6
:10574000FFE79DF80B0003B07047000081B00090A8
:1057500001B0704780B582B001900198006800697F
:1057600000F002000021B1EB500F29D0FFE70198B3
:105770000068C06800F002000021B1EB500F1ED09D
:10578000FFE7019800686FF00201016101980121B3
:1057900001770198006880698007002804D0FFE73E
:1057A0000198FFF7D3FF06E0019800F031F9019866
:1057B00000F032F9FFE7019800210177FFE7FFE7EA
:1057C00001980068006900F004000021B1EB900F1F
:1057D00029D0FFE701980068C06800F004000021AC
:1057E000B1EB900F1ED0FFE7019800686FF0040145
:1057F000016101980221017701980068806910F425
:10580000407F04D0FFE70198FFF7A0FF06E0019872
:1058100000F0FEF8019800F0FFF8FFE70198002182
:105820000177FFE7FFE701980068006900F00800D2
:105830000021B1EBD00F29D0FFE701980068C068C4
:1058400000F008000021B1EBD00F1ED0FFE7019857
:1058500000686FF008010161019804210177019847
:105860000068C0698007002804D0FFE70198FFF7AF
:105870006DFF06E0019800F0CBF8019800F0CCF83D
:10588000FFE7019800210177FFE7FFE70198006833
:10589000006900F010000021B1EB101F29D0FFE7D4
:1058A00001980068C06800F010000021B1EB101FE3
:1058B0001ED0FFE7019800686FF0100101610198A8
:1058C0000821017701980068C06910F4407F04D076
:1058D000FFE70198FFF73AFF06E0019800F098F81B
:1058E000019800F099F8FFE7019800210177FFE7A0
:1058F000FFE7019800680069C007002811D0FFE7A2
:1059000001980068C068C007002809D0FFE7019827
:1059100000686FF001010161019800F081F8FFE774
:10592000FFE7019800680069C0B20021B1EBD01F09
:1059300013D0FFE701980068C068C0B20021B1EB46
:10594000D01F09D0FFE7019800686FF08001016166
:105950000198FFF711FEFFE7FFE701980068006973
:1059600000F480700021B1EB102F13D0FFE70198F5
:105970000068C068C0B20021B1EBD01F09D0FFE7BA
:10598000019800686FF4807101610198FFF7F0FDE4
:10599000FFE7FFE701980068006900F04000002180
:1059A000B1EB901F14D0FFE701980068C06800F0C9
:1059B00040000021B1EB901F09D0FFE7019800687B
:1059C0006FF040010161019800F066F8FFE7FFE722
:1059D00001980068006900F020000021B1EB501F21
:1059E00014D0FFE701980068C06800F02000002193
:1059F000B1EB501F09D0FFE7019800686FF020015C
:105A000001610198FFF7BCFDFFE7FFE702B080BD31
:105A100081B0009001B0704781B0009001B0704734
:105A200080B582B00190019840F2CC31C2F2000101
:105A300088422ED1FFE740F23C00C2F2000000781D
:105A4000002825D1FFE700208DF80300FFE79DF82F
:105A50000300032819DCFFE79DF8030040F2A04192
:105A6000C2F2000101EB8002528831F82010511A75
:105A700040F2B042C2F2000222F81010FFE79DF897
:105A8000030001308DF80300E1E702F027FFFFE794
:105A9000FFE702B080BD000081B0009001B0704708
:105AA00080B582B000900098002804D1FFE7012063
:105AB0008DF8070047E000988069002801D0FFE7D3
:105AC00000E0FFE70098806F002808D1FFE700980A
:105AD000002180F87410009800F03AF8FFE7009871
