:020000040800F2
:10000000200B002029020008C54600089141000885
:10001000C1460008C1050008DD54000800000000CA
:100020000000000000000000000000007949000806
:100030004D06000800000000194900087B4900082F
:10004000430200084302000843020008430200087C
:10005000430200084302000843020008430200086C
:10006000430200084302000843020008D5050008C7
:10007000E5050008F50500084302000843020008F2
:10008000430200084302000843020008430200083C
:10009000430200084302000843020008430200082C
:1000A00043020008414A0008294A000843020008A8
:1000B0004302000843020008000000004302000859
:1000C0004302000800000000000000004302000896
:1000D000000000004302000843020008CD5400085D
:1000E0004302000843020008000000000000000076
:1000F0000000000000000000000000000000000000
:1001000000000000000000000000000000000000EF
:100110000000000000000000430200084302000845
:1001200000000000000000000000000000000000CF
:1001300000000000000000000000000000000000BF
:10014000C505000843020008000000004302000843
:10015000430200084302000843020008430200086B
:1001600043020008430200080000000000000000F5
:10017000000000000000000000000000000000007F
:10018000000000004302000800F002F800F03CF814
:100190000AA090E8000C82448344AAF10107DA45E2
:1001A00001D100F031F8AFF2090EBAE80F0013F0F8
:1001B000010F18BFFB1A43F0010318472C59000028
:1001C0004C590000103A24BF78C878C1FAD85207B9
:1001D00024BF30C830C144BF04680C6070470000C1
:1001E0000023002400250026103A28BF78C1FBD840
:1001F000520728BF30C148BF0B6070471FB505F0DC
:1002000047FC1FBD10B510BD00F0CFF81146FFF739
:10021000F5FF05F081F900F0EDF803B4FFF7F2FF08
:1002200003BC00F0F5F80000094880470948004782
:10023000FEE7FEE7FEE7FEE7FEE7FEE7FEE7FEE796
:10024000FEE7FEE704480549054A064B70470000F3
:10025000154A00088901000820050020200B002015
:10026000200700202007002053EA020C00F06980DC
:100270002DE9F04B4FF00006002B1FBFB3FA83F5BA
:1002800003FA05F424FA05F65E4012BF1643B2FAEB
:1002900082F502FA05F4C5F120051EBF22FA05FC1D
:1002A00044EA0C04203556EA044C4FEA144418BFC3
:1002B000641C4FF000084FF00009904271EB030CF2
:1002C00039D3002919BFB1FA81F701FA07F6B0FA5C
:1002D00080F700FA07F6C7F120071EBF20FA07FCD7
:1002E00046EA0C062037B6FBF4FCA7EB0507103FE7
:1002F00007F01F0BCBF120060CFA0BFB2CFA06F6CD
:1003000044BFB3460026202FA4BF5E464FF0000B2B
:100310005BEA060C08BF4FF0010B19EB0B09ABFBB6
:10032000027C48EB0608C01B06FB02CC0BFB03CC8F
:1003300071EB0C01C1E70B46024641464846BDE859
:10034000F08B13B54FF000004FF00001AFF30080C9
:10035000BDE81C4070474FF0000200B513469446BC
:100360009646203922BFA0E80C50A0E80C50B1F10D
:100370002001BFF4F7AF090728BFA0E80C5048BF21
:100380000CC05DF804EB890028BF40F8042B08BFBF
:10039000704748BF20F8022B11F0804F18BF00F8BB
:1003A000012B7047704770477047754600F02CF876
:1003B000AE4605006946534620F00700854618B052
:1003C00020B5FFF73FFFBDE820404FF000064FF09B
:1003D00000074FF000084FF0000B21F00701AC467A
:1003E000ACE8C009ACE8C009ACE8C009ACE8C00999
:1003F0008D46704710B50446AFF300802046BDE837
:100400001040FFF70ABF000000487047C0040020FA
:1004100001491820ABBEFEE726000200704770B508
:1004200005466C6A206C00F05000D0B9206C40F496
:10043000007020642068C06800F4406068B9607E85
:1004400058B9206C20F480702064206C00F4805037
:1004500018B9206C40F001002064204600F0A6FB93
:1004600003E0A06B016B2846884770BD70B5054658
:100470006C6A206C40F040002064606C40F0040026
:100480006064204600F0B7FC70BD70B50446656A34
:10049000284600F0AFFC70BD70B50446002520680A
:1004A000806800F00300012806D12068006800F091
:1004B000010008B1012000E0002080B320688068BE
:1004C00000F00D00012800D100E0002050B100BF75
:1004D0002068806840F0020021688860032021685D
:1004E000086009E0206C40F010002064606C40F06F
:1004F00001006064012070BD01F052FA05460FE072
:1005000001F04EFA401B02280AD9206C40F010007E
:100510002064606C40F0010060640120EBE705E0BE
:100520002068806800F001000028E9D10020E2E79F
:1005300070B5044600252068806800F0030001289B
:1005400006D12068006800F0010008B1012000E039
:10055000002088BB206880681849084008B901203D
:1005600000E0002048B9206C40F010002064606C6E
:1005700040F001006064012070BD2068806840F098
:1005800001002168886001F00BFA05460EE001F0D9
:1005900007FA401B022809D9206C40F010002064A3
:1005A000606C40F0010060640120E5E720680068AD
:1005B00000F001000028EAD00020DDE73F000080C5
:1005C00000BFFEE710B5024800F062FE10BD00005B
:1005D000A801002010B5024800F0F4FF10BD000093
:1005E0006401002010B5024800F0ECFF10BD0000CF
:1005F0007C04002010B5024800F0E4FF10BD0000AC
:1006000038040020054A0168891A1422B1FBF2F16E
:100610008900016401490839C1637047080002403C
:1006200030B590F840500124AC40C56B6C60046854
:1006300063604468102C04D10468A2600468E1601F
:1006400003E00468A1600468E26030BD704772B6E0
:1006500000BFFEE770B594B002460B460024186850
:1006600000B100BF1068B0F1A04F02D14648009021
:1006700002E04FF0A0400090009810B9012014B0A3
:1006800070BD00BF92F83C00012801D10220F6E7BE
:10069000012082F83C0000BF10688068C0F3800031
:1006A000002864D100988068C0F3800000285ED1E3
:1006B0003649186890B392F830005D6845EA4030DA
:1006C0008D6825F46045284388601068806800F0D4
:1006D0000300012806D11068006800F0010008B18D
:1006E000012000E00020002846D10098806800F03A
:1006F0000300012806D10098006800F0010008B14D
:10070000012000E0002088BB9D68186828438D68A0
:1007100040F61F76B543284388602DE0FFE78868E0
:1007200020F4604088601068806800F003000128B1
:1007300006D11068006800F0010008B1012000E057
:10074000002098B90098806800F00300012806D1C5
:100750000098006800F0010008B1012000E00020CE
:1007600020B9886840F61F75A843886004E0106CC3
:1007700040F020001064012400BF002082F83C00FB
:1007800000BF20467BE7000000010050000300503E
:10079000F0B595B00246002500200090C8680128F9
:1007A00000D000E000BF00BF92F83C00012802D159
:1007B000022015B0F0BD012082F83C0000BF106897
:1007C0008068C0F38000002879D14868052812D2DB
:1007D0001068006B0E7906EB460677001F26BE40B8
:1007E000B0430F7907EB47077F000E68BE403043E8
:1007F0001668306343E048680A2814D21068406BDA
:100800000E79761F06EB460677001F26BE40B043E2
:100810000F797F1F07EB47077F000E68BE4030430C
:10082000166870632BE048680F2814D21068806B3C
:100830000E790A3E06EB460677001F26BE40B043FF
:100840000F790A3F07EB47077F000E68BE40304331
:100850001668B06313E01068C06B0E790F3E06EBAC
:10086000460677001F26BE40B0430F790F3F07EBC7
:1008700047077F000E68BE4030431668F06310687B
:10088000806800F00C0008B1012000E00020002882
:1008900070D108680A2813D3106880690E780A3E60
:1008A00006EB46070726BE40B0430F780A3F07EB2A
:1008B00047078E68BE4030431668B06110E05FE1C4
:1008C000106840690E7806EB46070726BE40B04325
:1008D0000F7807EB47078E68BE403043166870619B
:1008E00048691668F668C6F3C106760000FA06F491
:1008F0000869012806D0022812D003281ED0042837
:1009000039D129E01068006EA34E30400E784FF0C8
:10091000004747EA8666264330431668306663E040
:100920001068406E9C4E30400E784FF0004747EA0A
:100930008666264330431668706655E01068806E00
:10094000954E30400E784FF0004747EA86662643C2
:1009500030431668B06647E01068C06E8E4E304077
:100960000E784FF0004747EA866626433043166804
:10097000F06639E039E01068006E00F0F8400E785B
:10098000B0EB866F05D11068006E20F0004016684D
:1009900030661068406E00F0F8400E78B0EB866F5D
:1009A00005D11068406E20F000401668706610682F
:1009B000806E00F0F8400E78B0EB866F05D11068BD
:1009C000806E20F000401668B0661068C06E00F0BF
:1009D000F8400E78B0EB866F05D11068C06E20F03D
:1009E00000401668F06600BF00BF1068806800F025
:1009F0000300012806D11068006800F0010008B16A
:100A0000012000E0002000287ED1C86801280AD01B
:100A10001068D0F8B0000F780126BE40B0431668C9
:100A2000C6F8B00032E01068D0F8B0000F780126A8
:100A3000BE4030431668C6F8B00008680A2813D3D1
:100A4000106886690878093800EB40070720B8402D
:100A500026EA00000E78093E06EB46068F68B7408E
:100A600038431668B06111E0106840690E78761C52
:100A700006EB46070726BE40B0430F787F1C07EB06
:100A800047078E68BE40304316687061434B086864
:100A9000102803D1986800F4000070B1086811288C
:100AA00003D1986800F0807038B1086812286CD1C2
:100AB000986800F48000002867D11068B0F1A04F5A
:100AC00002D13748019002E04FF0A0400190106839
:100AD000806800F00300012806D11068006800F06B
:100AE000010008B1012000E0002070BB019880B136
:100AF0000198806800F00300012808D1019800687F
:100B000000F0010018B100E033E0012000E0002017
:100B1000D8B90868102819D11068B0F1A04F15D1C4
:100B2000986840F4000098601E4800681E4EB0FBB4
:100B3000F6F000EB80004000009002E00098401EBC
:100B4000009000980028F9D11FE013E008681128F0
:100B500008D11068B0F1A04F04D1986840F08070BF
:100B6000986012E0086812280FD1986840F480005D
:100B700098600AE0106C40F020001064012504E049
:100B8000106C40F020001064012500BF002082F8A6
:100B90003C0000BF28460CE600F0FF830003005035
:100BA000000100504C00002040420F002DE9F047AA
:100BB00006468448864275D140214FF0904000F0AF
:100BC000DFFE00243CE04FF0000900274FF480587E
:100BD000002527E005EB45007B4901EB800030F85C
:100BE0001400B84205DD05EB450001EB800030F84C
:100BF000147005EB4500744901EB800030F81400D7
:100C0000404505DA05EB450001EB800030F8148023
:100C100005EB45006C4901EB800030F8140081447D
:100C2000681CC5B2052DD5DBA9EB0700A0EB0800B9
:100C30000321B0FBF1F0654921F81400601CC4B237
:100C4000062CC0DB61480088C0F5EB606049086095
:100C50005E488088A0F22E705E4908605C4800689B
:100C6000642820DA5A48006810F1640F1BDD042163
:100C7000594802F05BFE0421574802F09BF900221C
:100C80001821564800F086FE554890F90000554955
:100C900008700020524908709FED530A534880EDB8
:100CA0000A0A33E08CE04E480078A8B9484800684A
:100CB0000A2811DD0421484802F0A2FD042146481B
:100CC00002F010F9464890F90000464908700120EA
:100CD0004349087004F0B2FC41480078B0B93C4880
:100CE000006810F10A0F11DA04213B4802F088FD78
:100CF0000421394802F0F6F8394890F900003949E2
:100D00000870FF203649087004F076FC34480078FB
:100D1000012827D12E4890ED000AF8EEC00A2D4890
:100D200090ED000AB8EEC00A304803F0CDFC2F4821
:100D300090ED080AB5EEC00AF1EE10FA03D29FED6D
:100D40002A0A80ED080A294991ED080ADFED280AF0
:100D500030EEC00ABCEEC00A10EE101A88B20021B4
:100D600004F042FC1E4890F90000401C18BB1848D3
:100D700090ED000AF8EEC00A164890ED000AB8EEB1
:100D8000C00A1A4803F0A0FC184890ED080AB5EE16
:100D9000C00AF1EE10FA03D29FED130A80ED080AA3
:100DA000124991ED080ABCEEC00A10EE101A88B282
:100DB000002104F019FC1E220349024800F0B4F996
:100DC000BDE8F08714010020500000208C000020B6
:100DD000080000200C000020380200200004004819
:100DE00010000020110000200000000098000020EA
:100DF00000F8E04570477047F0B595B0044600260E
:100E000000250020009014B9012015B0F0BD206924
:100E100018B12020005D00B100BF206C00F0100070
:100E2000002853D1206C98BB002060640021E1644D
:100E3000A06484F83C00204600F008F9206880682F
:100E400000F0805020BB2046FFF726FB0646206CB2
:100E500000F01000E0B9DEB9206C20F4885040F0BA
:100E6000020020642068806820F04050216888607B
:100E70002068806840F08050216888606E48006873
:100E80006E49B0FBF1F000EB80004000009003E001
:100E900005E00098401E009000980028F9D12068D5
:100EA000806800F0805030B12068806800F0005009
:100EB000B0F1005F0AD1206C20F0020040F0100079
:100EC0002064606C40F0010060640126206C00F03A
:100ED0001000002873D1002EFCD120688068C0F378
:100EE00080000028F6D1206C20F4807040F00200D1
:100EF0002064534F2068B0F1A04F02D151480190B7
:100F000002E04FF0A04001902068806800F00300EC
:100F1000012806D12068006800F0010008B1012016
:100F200000E00020B0B9019870B10198806800F02D
:100F30000300012806D10198006800F0010008B103
:100F4000012000E0002028B9B86820F44030616832
:100F50000843B860606B012802D04FF4805100E074
:100F60000021607E41EA4030E1680843A1680843FF
:100F700005432020005D012813D1607E38B9A08C84
:100F8000401E4FF4803141EA4040054309E0206CA7
:100F900020F0020040F020002064606C40F001006E
:100FA0006064A06A012803D0D4E90A01084305431C
:100FB0002068806800F00C0010B1012001E032E0F0
:100FC000002068B92068C06844F2020188432168A3
:100FD000C860207E810394F8300041EA4000054358
:100FE0002068C0681849084028432168C860206903
:100FF000012809D12068006B20F00F00E169491E2B
:1010000008432168086305E02068006B20F00F00AA
:101010002168086300206064206C20F0020040F02A
:101020000100206406E0206C20F0020040F0100077
:10103000206401263046E8E64C00002040420F00C4
:10104000000300500001005007C0F0FF10B586B04B
:101050000446142101A8FFF77EF92068B0F1A04FE3
:1010600057D100BF2C48406940F080502A49486160
:101070000846406900F08050009000BF00BF00BFEC
:101080000846406940F4003048610846406900F471
:101090000030009000BF00BF00BF0846406940F428
:1010A000802048610846406900F48020009000BF1D
:1010B00000BF0F200190032002900020039001A99F
:1010C0004FF0904000F07EFB032001900290002042
:1010D000039001A9114800F075FB114811490860FF
:1010E0000020486000210F4881608021C1604900D4
:1010F000016189004161202181610021C16100F00D
:10110000D4FA08B1FFF7A3FA00BF0648A06344620F
:1011100000BF06B010BD00000010024000040048EF
:1011200008000240640100202DE9F04104460D460C
:101130001646002720688068C0F3800000287DD113
:1011400000BF94F83C00012802D10220BDE8F081E4
:10115000012084F83C0000BF4848006800F01F00F0
:1011600000286CD12046FFF7E3F90746002F76D11F
:10117000206C40F60161884340F4807020643F4851
:10118000006800F01F0018B12068B0F1A04F0FD127
:10119000206C20F4801020642068C06800F000708B
:1011A00000B3206C20F4005040F48050206419E01B
:1011B000206C40F4801020642068B0F1A04F03D070
:1011C0002F492068884205D14FF0A040C06800F048
:1011D000007000E0002028B1206C20F4005040F4A2
:1011E00080502064206C00F48050B0F5805F04D102
:1011F000606C20F00600606401E00020606400BFC5
:10120000002084F83C0000BF1E48A16B88621E4885
:10121000A16BC8621D48A16B08631C20216808608F
:101220002068406840F01000216848602068C0686D
:1012300040F001002168C860226802E01AE013E073
:101240000DE002F1400133462A46A06B00F058FA47
:101250002068806840F00400216888600BE000BFCF
:10126000002084F83C0006E0012700BF002084F83D
:101270003C0000E00227384668E700000803005001
:10128000000100501F0400088B0400086D040008D2
:1012900070B5054613492868884201D1400407E02B
:1012A000104908312868884201D1C00600E00120B9
:1012B000044604F0010018B10B480068204003E028
:1012C000094820380068204058B104F0010010B1EE
:1012D0000548046002E0044820380460284600F015
:1012E000A9F870BD200001403404014038B504461F
:1012F000002524B194F8290000F0100008B1012560
:101300005EE0206A00B100BF00BF2E48806940F057
:1013100001002C4988610846806900F001000090B6
:1013200000BF00BF204600F053F894F8290010B920
:10133000002084F828006068602801D0606806E01A
:1013400021492068884201D1602000E01F48606088
:1013500000BF002000902068006800901B49C9432E
:10136000009808406168084300900098A16808430D
:101370000090009820F44020A16908430090009854
:1013800020F47050A18901F4705108430090009836
:1013900020F40040216908430090009861690843E7
:1013A00000900098E169084300900098216A084382
:1013B000009000982168086000BF012084F829008F
:1013C000284638BD00100240200001407000400057
:1013D00010B586B00446142101A8FEF7BCFF1349DE
:1013E0002068884220D100BF1148406940F4003095
:1013F0000F4948610846406900F40030009000BF82
:1014000000BF80200190032002900020039001A9DA
:101410004FF0904000F0D6F900220121402000F06A
:1014200063FC402000F050FC06B010BD20000140DD
:10143000001002407047000070B5034600240025EC
:101440001E4E1868B04201D102B900E000BF00BFD3
:101450005879012801D1022070BD0120587100BFC8
:101460000220187118680468144E1868B04209D137
:1014700042B940F6FE7090408443D1E9000640EA4C
:10148000060507E040F6FE70904084438E680868C9
:1014900040EA060505FA02F004431868046018687B
:1014A0000068C0269640B0431E6830600120187165
:1014B00000BF0020587100BF00BFCDE7007400409E
:1014C00010B504460CB9012010BD207920B90020C8
:1014D0006071204600F008F8022020710020206191
:1014E000012020710020EFE708B5094A0168914208
:1014F0000DD100BF0749C96941F00051054AD161CA
:101500001146C96901F00051009100BF00BF08BD3C
:101510000074004000100240014691F821000228AA
:1015200008D00420886300BF002081F8200000BF9D
:10153000012070470868006820F00E000A681060FB
:101540000868006820F001000A68106091F84020E7
:1015500001209040CA6B5060012081F8210000BF3B
:10156000002081F8200000BF00BFE2E770B504460C
:10157000002594F82100022803D00420A06301254F
:101580001EE02068006820F00E00216808602068D6
:10159000006820F001002168086094F840100120E4
:1015A0008840E16B4860012084F8210000BF0020E2
:1015B00084F8200000BF606B10B12046616B884743
:1015C000284670BD70B50446E06B05682068066863
:1015D00094F84010042088402840D0B106F0040060
:1015E000B8B12068006800F0200028B920680068C1
:1015F00020F004002168086094F84010042088401E
:10160000E16B4860E06A00284ED02046E16A8847D6
:101610004AE094F8401002208840284008B306F0C1
:101620000200F0B12068006800F0200040B9206896
:10163000006820F00A0021680860012084F8210079
:1016400094F8401002208840E16B486000BF002001
:1016500084F8200000BFA06A30B32046A16A884702
:1016600022E094F84010082088402840E0B106F0BD
:101670000800C8B12068006820F00E0021680860EA
:1016800094F8401001208840E16B48600120A0637D
:1016900084F8210000BF002084F8200000BF206BE8
:1016A00010B12046216B884770BD70B504460025F7
:1016B0000CB9012070BD022084F821002068056863
:1016C00043F6F0708543D4E901010843E16808431B
:1016D0002169084361690843A1690843E169084336
:1016E0000543206805602046FEF78CFF0020A063BC
:1016F000012084F82100002084F8200000BFD9E7F1
:101700002DE9F04104460D4616461F464FF00008ED
:1017100000BF94F82000012802D10220BDE8F0812A
:10172000012084F8200000BF94F8210001282CD16A
:10173000022084F821000020A0632068006820F0C7
:101740000100216808603B46324629462046FEF7E4
:1017500067FFE06A30B12068006840F00E00216841
:1017600008600BE02068006840F00A00216808600B
:101770002068006820F00400216808602068006884
:1017800040F001002168086006E000BF002084F8F6
:10179000200000BF4FF002084046BFE770B5044686
:1017A00000F0FEF806462546681C10B10448007893
:1017B000054400BF00F0F4F8801BA842FAD370BDC6
:1017C0004800002078B503460022C6E00126964076
:1017D0000D6805EA0604002C72D04D68012D08D072
:1017E0004D68022D05D04D68112D02D04D68122D87
:1017F00013D1986856000325B540A8435600CD681C
:10180000B54028439860586801259540A8430D7954
:10181000C5F30015954028435860D8685600032545
:10182000B540A84356008D68B5402843D8604D6840
:10183000022D02D04D68122D13D1D60803F12005D8
:1018400055F826005507EE0E0F25B540A84356075C
:10185000F60E0D69B5402843D60803F1200545F87A
:101860002600186856000325B540A8430D7905F0F9
:1018700003055600B540284318604D6805F08055B3
:10188000B5F1805F68D100BF374DAD6945F0010506
:10189000354EB5613546AD6905F00105009500BFCF
:1018A00000BF4FEAB635960855F8260095072E0F6B
:1018B0000F25B540A843B3F1904F02D1002510E0A9
:1018C0004AE02A4DAB4201D101250AE0284DAB4246
:1018D00001D1022505E0274DAB4201D1032500E0EF
:1018E00005259607360FB5402843234D960845F841
:1018F0002600224D2868A0434D6805F48035B5F5D3
:10190000803F00D120431D4D28602D1D2868A04335
:101910004D6805F40035B5F5003F00D12043174D63
:101920002D1D28602D1D2868A0434D6805F48015E5
:10193000B5F5801F00D12043104D083528602D1DBE
:101940002868A0434D6805F40015B5F5001F00D1C7
:1019500020430A4D0C352860521C0D68D540002DDF
:101960007FF434AF78BD000000100240000400484E
:1019700000080048000C0048080001400004014035
:1019800010B5426921EA020302EA010443EA044372
:10199000836110BD0AB1816100E08162704700007F
:1019A000014800687047000040000020024692F89D
:1019B000410020282DD100BF92F84000012801D11C
:1019C00002207047012082F8400000BF242082F8E6
:1019D00041001068006820F001001368186010686A
:1019E000006820F48050136818601068006808438D
:1019F000136818601068006840F0010013681860F0
:101A0000202082F8410000BF002082F8400000BF83
:101A1000D7E70220D5E710B502460B4692F8410001
:101A200020282AD100BF92F84000012801D10220CD
:101A300010BD012082F8400000BF242082F8410040
:101A40001068006820F001001468206010680168C8
:101A500021F4706141EA0321106801601068006898
:101A600040F0010014682060202082F8410000BF8F
:101A7000002082F8400000BFDAE70220D8E700002B
:101A800010B504460CB9012010BD94F8410028B9E6
:101A9000002084F84000204600F054F8242084F808
:101AA00041002068006820F001002168086060683B
:101AB00020F07060216808612068806820F4004090
:101AC00021688860E068012805D1A06840F40040E2
:101AD0002168886004E0A06840F4044021688860C0
:101AE000E068022802D180022168486020684068CE
:101AF00013490843216848602068C06820F400400A
:101B00002168C860D4E904010843A16940EA0120C2
:101B10002168C860D4E9070108432168086020688B
:101B2000006840F001002168086000206064202007
:101B300084F841000020206384F8420000BFA3E73E
:101B40000080000210B586B00446142101A8FEF7FB
:101B500002FC27492068884247D100BF25484069D8
:101B600040F40030234948610846406900F40030E1
:101B7000009000BF00BF00BF0846406940F48020CD
:101B800048610846406900F48020009000BF00BF13
:101B90004FF4004001901220029001200390032096
:101BA00004900420059001A94FF09040FFF70AFE31
:101BB0004FF4007001901220029001200390032046
:101BC00004900420059001A90B48FFF7FBFD00BF1E
:101BD0000848C06940F400100649C8610846C06959
:101BE00000F40010009000BF00BF06B010BD000060
:101BF0000054004000100240000400480348006800
:101C000003490978084401490860704740000020F2
:101C10004800002010B50848006840F01000064950
:101C20000860032000F09EF8002000F007F800F0A4
:101C30002BF8002010BD00000020024070B50446C3
:101C40000E4800784FF47A71B1FBF0F00C49096846
:101C5000B1FBF0F5284601F089F808B1012070BD0C
:101C6000102C07D200222146501E00F03DF80548F6
:101C7000046001E00120F2E70020F0E748000020C6
:101C80004C0000204400002008B500BF0D488069CA
:101C900040F001000B4988610846806900F00100AE
:101CA000009000BF00BF00BF0846C06940F08050F0
:101CB000C8610846C06900F08050009000BF00BFB6
:101CC00008BD00000010024001460846002809DB5C
:101CD00000F01F0301229A4043099B0003F1E02317
:101CE000C3F8002100BF70472DE9F05F80460D4624
:101CF0001646002703F0F4FB074639462A463346CA
:101D000001F00700C0F1070ABAF1040F02D94FF041
:101D1000040A01E0C0F1070AD14600F1040ABAF151
:101D2000070F02D24FF0000A01E0A0F1030AD446E7
:101D30004FF0010A0AFA09FAAAF1010A0AEA020AAC
:101D40000AFA0CFA4FF0010B0BFA0CFBABF1010B8A
:101D50000BEA030B4AEA0B042146404603F0C8FB9A
:101D6000BDE8F09F00BF00F00702064B19684FF670
:101D7000FF031940044B0B4343EA0221014B196056
:101D800000BF70470CED00E00000FA05F8B504460E
:101D9000002600250027206800F48030B0F5803F41
:101DA00073D17A48C06900F0805070B900BF77489D
:101DB000C06940F080507549C8610846C06900F0AC
:101DC0008050009000BF00BF01277148006800F4F8
:101DD0008070B0B96E48006840F480706C4908604B
:101DE000FFF7DEFD064606E0FFF7DAFD801B6428FC
:101DF00001D90320F8BD6648006800F4807000280F
:101E0000F2D06248006A00F44075002D6BD0A088C3
:101E100000F44070A84266D05C48006A20F4407527
:101E20000121080490FAA0F0B0FA80F0594A02EBC0
:101E30008000C0F800140020090491FAA1F1B1FA61
:101E400081F102EB8101C1F800045048056205F000
:101E50000100B8B3FFF7A4FD064608E0FFF7A0FDB8
:101E6000801B41F28831884201D90320C2E740201B
:101E7000022191FAA1F1B1FA81F108430121B1EBFC
:101E8000601F03D1414800681FE03BE04020022171
:101E900091FAA1F1B1FA81F108430221B1EB601F7F
:101EA00002D13A48006A10E04020022191FAA1F1E3
:101EB000B1FA81F108430421B1EB601F03D133482B
:101EC000406802E00FE03148406A4021022292FA65
:101ED000A2F2B2FA82F2114301F01F0201219140F5
:101EE00008400028BAD02948006A20F44070616890
:101EF000084326490862012F04D10846C06920F032
:101F00008050C861207800F0010038B11F48006B94
:101F100020F00300A16808431C490863207800F002
:101F20002000202807D11948006B20F01000E1683C
:101F3000084316490863207800F08000802807D104
:101F40001248C06A20F4F870216908430F49C8623A
:101F5000208800F48050B0F5805F07D10B48006BFB
:101F600020F480706169084308490863208800F400
:101F70008040B0F5804F07D10448006B20F48050BA
:101F8000A169084301490863002033E700100240BB
:101F9000007000400000424270B504460D46002625
:101FA0000CB9012070BDA248006800F00700A842EB
:101FB0000ED29F48006820F0070028439C49086023
:101FC0000846006800F00700A84201D00120E9E7B8
:101FD000207800F00200022807D19648406820F0DF
:101FE000F000A168084393494860207800F00100A0
:101FF00000287CD0606801283BD12020010391FAA1
:10200000A1F1B1FA81F108430121B1EB601F02D1C6
:10201000884800681DE02020010391FAA1F1B1FA7F
:1020200081F108430221B1EB601F02D18148006AAF
:102030000FE02020010391FAA1F1B1FA81F10843E8
:102040000421B1EB601F02D17A48406801E0794871
:10205000406A20210A0392FAA2F2B2FA82F21143F4
:1020600001F01F0201219140084000287CD101208D
:1020700098E7606802283BD12020010591FAA1F180
:10208000B1FA81F108430121B1EB601F02D1694827
:1020900000681DE02020010591FAA1F1B1FA81F15B
:1020A00008430221B1EB601F02D16248006A0FE0D1
:1020B0002020010591FAA1F1B1FA81F10843042130
:1020C000B1EB601F02D15B48406801E05948406AAB
:1020D00020210A0592FAA2F2B2FA82F2114301F02B
:1020E0001F02012191400840E8BB01205AE758E057
:1020F0002020022191FAA1F1B1FA81F108430121D6
:10210000B1EB601F02D14B4800681DE02020022186
:1021100091FAA1F1B1FA81F108430221B1EB601FFC
:1021200002D14448006A0FE02020022191FAA1F177
:10213000B1FA81F108430421B1EB601F02D13D489F
:10214000406801E03B48406A2021022292FAA2F254
:10215000B2FA82F2114301F01F02012191400840BE
:1021600008B901201EE7FFE73248406820F003006D
:10217000616808432F494860FFF712FC064608E0F3
:10218000FFF70EFC801B41F28831884201D9032001
:1021900008E72848406800F00C006168B0EB810F48
:1021A000EED12348006800F00700A8420ED920486D
:1021B000006820F0070028431D49086008460068B1
:1021C00000F00700A84201D00120EBE6207800F0E3
:1021D0000400042807D11748406820F4E060E16853
:1021E000084314494860207800F00800082808D106
:1021F0001048406820F46050216940EAC1000D4950
:10220000486000F051F80B49496801F0F001F022F4
:1022100092FAA2F2B2FA82F2D140074A515CC84067
:102220000649086006480068FFF708FD0020B9E687
:102230000020024000100240D05A00084C0000204C
:102240004400002001480068704700004C00002056
:1022500000B5FFF7F7FF0749496801F4E0614FF463
:10226000E06292FAA2F2B2FA82F2D140024A515CE2
:10227000C84000BD00100240E05A000800B5FFF75A
:10228000E1FF0749496801F460514FF4605292FA46
:10229000A2F2B2FA82F2D140024A515CC84000BDBB
:1022A00000100240E05A00082DE9F041002400250A
:1022B00000270026A0461F48446804F00C0078B3AD
:1022C000042802D008282CD102E0DFF86C802CE032
:1022D00004F470104FF4701191FAA1F1B1FA81F188
:1022E000C84016490E5C1348C06A00F00F000F2169
:1022F00091FAA1F1B1FA81F1C84011490D5C04F4E1
:10230000803040B12A4600230B481946FDF7ACFF48
:10231000A0FB067102E00B48A0FB0671B84604E082
:1023200000E000BFDFF8108000BF00BF4046BDE8FE
:10233000F08100000010024000127A00B05A00083C
:10234000C05A000800093D00F8B504460CB9012048
:10235000F8BD207800F0010000287BD0FA484068E2
:1023600000F00C0004280CD0F748406800F00C0086
:10237000082845D1F448406800F48030B0F5803F2B
:102380003ED12020010391FAA1F1B1FA81F1084375
:102390000121B1EB601F02D1EB4800681DE0202055
:1023A000010391FAA1F1B1FA81F108430221B1EBE5
:1023B000601F02D1E448006A0FE02020010391FA77
:1023C000A1F1B1FA81F108430421B1EB601F02D100
:1023D000DD48406801E0DC48406A20210A0392FAA7
:1023E000A2F2B2FA82F2114301F01F0201219140E0
:1023F00008400028B1D0606800282BD10120A7E751
:1024000000BF6068B0F5803F06D1CF48006840F457
:102410008030CD49086029E0606858B9CA48006832
:1024200020F48030C84908600846006820F4802005
:1024300008601BE06068B0F5A02F0CD1C2480068AE
:1024400040F48020C04908600846006840F48030AD
:1024500008600BE0A1E0BC48006820F48030BA4975
:1024600008600846006820F48020086000BFB64875
:10247000C06A20F00F00A1680843B349C8626068D1
:10248000A0B3FFF78DFA054606E0FFF789FA401B77
:10249000642801D903205BE72020010391FAA1F110
:1024A000B1FA81F108430121B1EB601F02D1A648C6
:1024B00000681EE02020010391FAA1F1B1FA81F138
:1024C00008430221B1EB601F02D19F48006A10E06F
:1024D0002020010391FAA1F1B1FA81F1084304210E
:1024E000B1EB601F03D19848406802E010E09648C5
:1024F000406A20210A0392FAA2F2B2FA82F2114350
:1025000001F01F020121914008400028BDD044E0A5
:10251000FFF746FA054606E0FFF742FA401B64283B
:1025200001D9032014E72020010391FAA1F1B1FAA7
:1025300081F108430121B1EB601F02D1824800689C
:102540001DE02020010391FAA1F1B1FA81F10843C5
:102550000221B1EB601F02D17B48006A0FE020200E
:10256000010391FAA1F1B1FA81F108430421B1EB21
:10257000601F02D17448406801E07348406A20211E
:102580000A0392FAA2F2B2FA82F2114301F01F0298
:102590000121914008400028BED1207800F00200BF
:1025A00002285CD16848406800F00C0050B16648D1
:1025B000406800F00C00082852D16348406800F4DD
:1025C0008030E8BB2020022191FAA1F1B1FA81F11B
:1025D00008430121B1EB601F02D15B4800681DE098
:1025E0002020022191FAA1F1B1FA81F108430221E0
:1025F000B1EB601F02D15448006A0FE02020022195
:1026000091FAA1F1B1FA81F108430421B1EB601F05
:1026100002D14D48406801E04B48406A2021022227
:1026200092FAA2F2B2FA82F2114301F01F020121E2
:102630009140084028B12069012802D0012087E696
:102640000EE04148006820F0F800F82292FAA2F269
:10265000B2FA82F26169914008433B490860B1E0F7
:10266000206970B3012191FAA1F0B0FA80F0374AE5
:1026700042F82010FFF794F9054606E0FFF790F9BD
:10268000401B022801D9032062E62020022191FA92
:10269000A1F1B1FA81F108430121B1EB601F02D130
:1026A000294800681EE02020022191FAA1F1B1FA28
:1026B00081F108430221B1EB601F03D12248006A77
:1026C00010E02CE02020022191FAA1F1B1FA81F171
:1026D00008430421B1EB601F02D11B48406801E0B0
:1026E0001948406A2021022292FAA2F2B2FA82F23A
:1026F000114301F01F020121914008400028BDD084
:102700001148006820F0F800F82292FAA2F2B2FA1A
:1027100082F26169914008430B49086052E0002051
:10272000012191FAA1F1B1FA81F1084A42F82100A0
:10273000FFF736F905460BE0FFF732F9401B022898
:1027400006D9032004E600000010024000004242C7
:102750002020022191FAA1F1B1FA81F1084301216F
:10276000B1EB601F02D1FB4800681DE02020022170
:1027700091FAA1F1B1FA81F108430221B1EB601F96
:1027800002D1F448006A0FE02020022191FAA1F161
:10279000B1FA81F108430421B1EB601F02D1ED4889
:1027A000406801E0EB48406A2021022292FAA2F23E
:1027B000B2FA82F2114301F01F0201219140084058
:1027C0000028B9D1207800F00800082851D1A0696C
:1027D00080B3012191FAA1F0B0FA80F0DE4A02EB59
:1027E0008000C0F88014FFF7DBF8054606E0FFF72D
:1027F000D7F8401B022801D90320A9E56020022157
:1028000091FAA1F1B1FA81F108430121B1EB601F06
:1028100002D1D04800681EE06020022191FAA1F1A7
:10282000B1FA81F108430221B1EB601F03D1C9481D
:10283000006A10E01EE06020022191FAA1F1B1FAD5
:1028400081F108430421B1EB601F02D1C148406807
:1028500001E0C048406A6021022292FAA2F2B2FA74
:1028600082F2114301F01F0201219140084000282B
:10287000BDD04FE00020012191FAA1F1B1FA81F120
:10288000B54A02EB8101C1F88004FFF789F80546DB
:1028900006E0FFF785F8401B022801D9032057E521
:1028A0006020022191FAA1F1B1FA81F108430121DE
:1028B000B1EB601F02D1A74800681DE06020022133
:1028C00091FAA1F1B1FA81F108430221B1EB601F45
:1028D00002D1A048006A0FE06020022191FAA1F124
:1028E000B1FA81F108430421B1EB601F02D199488C
:1028F000406801E09748406A6021022292FAA2F201
:10290000B2FA82F2114301F01F0201219140084006
:102910000028BED1207800F00400042873D10027DD
:102920008C48C06900F0805070B900BF8948C06908
:1029300040F080508749C8610846C06900F0805067
:10294000009000BF00BF01278448006800F4807039
:10295000B0B98248006840F4807080490860FFF791
:102960001FF8054606E0FFF71BF8401B642801D955
:102970000320EDE47948006800F480700028F2D06C
:1029800000BFE068012806D17248006A40F00100EB
:102990007049086227E0E06858B96E48006A20F084
:1029A00001006C4908620846006A20F004000862D1
:1029B00019E0E06805280BD16648006A40F0040081
:1029C000644908620846006A40F0010008620AE0B3
:1029D0006048006A20F001005E4908620846006A0B
:1029E00020F00400086200BFE068B8B3FEF7D8FF2B
:1029F000054609E0FEF7D4FF401B41F288318842CA
:102A000002D90320A4E48BE04020022191FAA1F135
:102A1000B1FA81F108430121B1EB601F02D14D48A9
:102A200000681EE04020022191FAA1F1B1FA81F183
:102A300008430221B1EB601F02D14648006A10E052
:102A40004020022191FAA1F1B1FA81F10843042159
:102A5000B1EB601F03D13F48406802E010E03D4801
:102A6000406A4021022292FAA2F2B2FA82F21143A3
:102A700001F01F020121914008400028BAD046E031
:102A8000FEF78EFF054608E0FEF78AFF401B41F285
:102A90008831884201D903205AE44020022191FA6A
:102AA000A1F1B1FA81F108430121B1EB601F02D11C
:102AB000284800681DE04020022191FAA1F1B1FAF6
:102AC00081F108430221B1EB601F02D12148006A65
:102AD0000FE04020022191FAA1F1B1FA81F10843FF
:102AE0000421B1EB601F02D11A48406801E0194887
:102AF000406A4021022292FAA2F2B2FA82F2114313
:102B000001F01F020121914008400028BCD1012F93
:102B100005D11048C06920F080500E49C86100BF3F
:102B2000E069002874D00B48406800F00C000828C9
:102B30006FD0E06902286DD100204FF0807191FACA
:102B4000A1F1B1FA81F1044A42F82100FEF728FF11
:102B500005460CE0001002400000424200700040B8
:102B6000FEF71EFF401B022801D9032047E4202066
:102B7000010591FAA1F1B1FA81F108430121B1EB0C
:102B8000601F02D1774800681DE02020010591FAFE
:102B9000A1F1B1FA81F108430221B1EB601F02D12A
:102BA0007048006A0FE02020010591FAA1F1B1FA06
:102BB00081F108430421B1EB601F02D169484068EC
:102BC00001E06848406A20210A0592FAA2F2B2FAAE
:102BD00082F2114301F01F020121914008400028B8
:102BE000BED1D4E9081008435E49496821F4741144
:102BF00008435C4948600120010691FAA1F1B1FA4D
:102C000081F1594A42F82100FEF7CAFE054609E063
:102C1000A5E092E041E0FEF7C3FE401B022801D987
:102C2000032038E42020010591FAA1F1B1FA81F1E5
:102C300008430121B1EB601F02D14A4800681DE042
:102C40002020010591FAA1F1B1FA81F10843022196
:102C5000B1EB601F02D14348006A0FE0202001055C
:102C600091FAA1F1B1FA81F108430421B1EB601F9F
:102C700002D13C48406801E03A48406A20210A05F8
:102C800092FAA2F2B2FA82F2114301F01F0201217C
:102C9000914008400028BED061E000204FF08071D4
:102CA00091FAA1F1B1FA81F12F4A42F82100FEF721
:102CB00077FE054606E0FEF773FE401B022801D9A9
:102CC00003202FE42020010591FAA1F1B1FA81F14E
:102CD00008430121B1EB601F02D1224800681DE0CA
:102CE0002020010591FAA1F1B1FA81F108430221F6
:102CF000B1EB601F02D11B48006A0FE020200105E4
:102D000091FAA1F1B1FA81F108430421B1EB601FFE
:102D100002D11448406801E01248406A20210A05A7
:102D200092FAA2F2B2FA82F2114301F01F020121DB
:102D3000914008400028BED111E0E069012800D18F
:102D40007DE40848466806F48031206A814204D157
:102D500006F47011606A814201D001206FE4002006
:102D60006DE40000001002400000424270B50446CD
:102D70002546681EB0F1807F01D301200FE0681E58
:102D80004FF0E02148610F214FF0FF3002F0B0FB1F
:102D900000204FF0E021886107200861002070BD0D
:102DA000704770477047000010B50346002200BF0F
:102DB00093F83C00012801D1022010BD012083F8C6
:102DC0003C0000BF22F0FF00CC6840EA040222F47D
:102DD00040708C6840EA040222F480604C6840EA4B
:102DE000040222F400600C6840EA040222F48050DD
:102DF0000C6940EA040222F400504C6940EA0402E3
:102E000022F480408C6A40EA040222F470200C8B89
:102E100040EA04420D4C1868A0420ED122F4700022
:102E20008C8C40EA045222F08070CC6940EA0402A3
:102E300022F000700C6A40EA04021868426400BF85
:102E4000002083F83C0000BF00BFB6E7002C014023
:102E500030B502460B4600BF92F83C00012801D174
:102E6000022030BD012082F83C0000BF022082F821
:102E70003D001068416810688468174D1068A842CA
:102E800003D121F470015868014321F070011868E2
:102E9000014310684160104D1068A8420BD01068C3
:102EA000B0F1804F07D00D4D1068A84203D00C4DF3
:102EB0001068A84205D124F0800498680443106883
:102EC0008460012082F83D0000BF002082F83C00B1
:102ED00000BF00BFC5E70000002C01400004004017
:102EE0000040014070B504460D4615B994F8440001
:102EF0000BE0042D02D14520005D06E0082D02D133
:102F00004620005D01E04720005D012801D001203E
:102F100070BD1DB9022084F844000EE0042D03D1D9
:102F200002214520015508E0082D03D10221462049
:102F3000015502E00221472001550422294620685C
:102F400001F0E5FD2068406C40F4004021684864D1
:102F50001449206888420BD02068B0F1804F07D018
:102F600011492068884203D010492068884210D156
:102F7000206880680E4900EA0106062E0FD0B6F5DB
:102F8000803F0CD02068006840F001002168086094
:102F900005E02068006840F001002168086000201A
:102FA000B6E70000002C0140000400400040014052
:102FB0000700010070B504460D460022294620682E
:102FC00001F0A5FD00BF2068006A41F21111084020
:102FD00050B92068006A8910084028B92068406C00
:102FE00020F400402168486400BF00BF2068006AE8
:102FF00041F21111084050B92068006A8910084058
:1030000028B92068006820F001002168086000BF2E
:103010001DB9012084F844000EE0042D03D10121E4
:103020004520015508E0082D03D101214620015516
:1030300002E0012147200155002070BD10B5044673
:103040000CB9012010BD94F83D0028B9002084F887
:103050003C00204600F02AF8022084F83D00211DA3
:10306000206801F0F9FC012084F8480000BF84F8D2
:103070003E0001213F2001554020015541200155CE
:10308000422001554320015500BF00BF012084F8B4
:10309000440045200155462001554720015500BFF9
:1030A000012084F83D000020CCE7000038B504463C
:1030B0003E49206888421ED100BF3D48806940F4E7
:1030C00000603B4988610846806900F40060009018
:1030D00000BF00BF002211461920FEF705FE19208F
:1030E000FEF7F2FD002201211A20FEF7FDFD1A2055
:1030F000FEF7EAFD58E02F49206888420DD100BF55
:103100002B48C06940F010002949C8610846C069D1
:1031100000F01000009000BF46E027492068884278
:103120000DD100BF2248806940F480302049886179
:103130000846806900F48030009000BF34E01F49E9
:103140002068884216D100BF1948806940F40030D9
:10315000174988610846806900F40030009000BF7C
:1031600000BF002211461920FEF7BEFD1920FEF710
:10317000ABFD19E012492068884215D100BF0C4808
:10318000806940F480200A4988610846806900F41B
:103190008020009000BF00BF002201211A20FEF70E
:1031A000A3FD1A20FEF790FD38BD0000002C014061
:1031B0000010024000100040004001400044014067
:1031C00000480140014691F83D00012801D001204E
:1031D0007047022081F83D00144B086898420BD0DC
:1031E0000868B0F1804F07D0114B0868984203D0AF
:1031F000104B0868984210D1086880680E4B00EAAE
:103200000302062A0FD0B2F5803F0CD00868006890
:1032100040F001000B68186005E00868006840F0A5
:1032200001000B6818600020D2E70000002C01406C
:10323000000400400040014007000100014691F8F1
:103240003D00012801D001207047022081F83D0097
:103250000868C06840F001000B68D860144B08682B
:1032600098420BD00868B0F1804F07D0114B086826
:10327000984203D0104B0868984210D108688068C3
:103280000E4B00EA0302062A0FD0B2F5803F0CD0A5
:103290000868006840F001000B68186005E00868E5
:1032A000006840F001000B6818600020CCE70000C7
:1032B000002C0140000400400040014007000100D4
:1032C0002DE9F04104460D4600BF94F83C0001286A
:1032D00002D10220BDE8F081012084F83C0000BF4B
:1032E000022084F83D00206886683748064026F4AE
:1032F0007F46206886602868502833D00CDC202860
:1033000050D004DC00284BD0102851D149E030289F
:1033100049D040284CD139E060282DD0702807D002
:10332000B0F5805F03D0B0F5005F41D10DE040E023
:10333000D5E902136A68206801F0FAFB2068866804
:1033400046F077062068866033E0D5E902136A68A4
:10335000206801F0EDFB2068806840F4804021681F
:10336000886026E0EA686968206801F07FFD5021E6
:10337000206801F0E8FB1CE0EA686968206801F059
:1033800088FD6021206801F0DEFB12E0EA686968D0
:10339000206801F06BFD4021206801F0D4FB08E0BB
:1033A00000BF00BF00BF2968206801F0CCFB00E02F
:1033B00000BF00BF012084F83D0000BF002084F85A
:1033C0003C0000BF00BF85E788FFFEFF704710B5D7
:1033D000044620680069C0F34000D8B12068C06886
:1033E000C0F34000B0B16FF0020021680861012015
:1033F00020772068806900F0030018B12046FFF7AD
:10340000E5FF05E0204600F00DF9204600F0F7F951
:103410000020207720680069C0F38000D8B12068C0
:10342000C068C0F38000B0B16FF00400216808618B
:10343000022020772068806900F4407018B120468F
:10344000FFF7C4FF05E0204600F0ECF8204600F04E
:10345000D6F90020207720680069C0F3C000D8B1F9
:103460002068C068C0F3C000B0B16FF008002168E8
:103470000861042020772068C06900F0030018B1BB
:103480002046FFF7A3FF05E0204600F0CBF82046DA
:1034900000F0B5F90020207720680069C0F3001023
:1034A000D8B12068C068C0F30010B0B16FF0100050
:1034B00021680861082020772068C06900F4407006
:1034C00018B12046FFF782FF05E0204600F0AAF879
:1034D000204600F094F9002020772068006900F071
:1034E000010058B12068C06800F0010030B16FF0F1
:1034F000010021680861204600F084FA2068006914
:10350000C0F3C01058B12068C068C0F3C01030B11B
:103510006FF08000216808612046FFF742FC2068B8
:103520000069C0F3002058B12068C068C0F3C01023
:1035300030B16FF48070216808612046FFF730FCDD
:1035400020680069C0F3801058B12068C068C0F3DB
:10355000801030B16FF0400021680861204600F013
:1035600052FA20680069C0F3401058B12068C06862
:10357000C0F3401030B16FF0200021680861204690
:10358000FFF710FC10BD000010B586B004461421F2
:1035900001A8FCF7E0FE20492068884239D100BF2D
:1035A0001E48406940F480201C4948610846406933
:1035B00000F48020009000BF00BF00BF08464069B3
:1035C00040F4003048610846406900F40030009043
:1035D00000BF00BF4FF48040019002200290002005
:1035E0000390032004900620059001A90C48FEF7E3
:1035F000E9F84FF40070019002200290002003903F
:10360000032004900620059001A94FF09040FEF79A
:10361000D9F806B010BD0000002C01400010024097
:1036200000040048704770B504460D46164600BFBA
:1036300094F83C00012801D1022070BD012084F8DB
:103640003C0000BF0C2E51D005DC4EB1042E1ED024
:10365000082E7AD133E0102E60D0142EF9D175E007
:103660002946206801F078FA2068806940F0080057
:10367000216888612068806920F0040021688861E1
:1036800020688069296908432168886177E02946B4
:10369000206801F0ADFA2068806940F4006021687C
:1036A00088612068806920F48060216888612068D2
:1036B0008069296940EA0120216888615FE0294624
:1036C000206801F0E7FA2068C06940F0080021682E
:1036D000C8612068C06920F004002168C8612068C2
:1036E000C069296908432168C86148E02946206803
:1036F00001F020FB2068C06940F400602168C861C7
:103700002068C06920F480602168C8612068C069B1
:10371000296940EA01202168C86130E02946206813
:1037200001F03EFB2068406D40F0080021684865CC
:103730002068406D20F00400216848652068406DD5
:10374000296908432168486519E017E0294620687F
:1037500001F058FB2068406D40F400602168486526
:103760002068406D20F48060216848652068406DC5
:10377000296940EA01202168486500E000BF00BFD8
:1037800000BF002084F83C0000BF00BF55E710B523
:1037900004460CB9012010BD94F83D0028B9002062
:1037A00084F83C00204600F029F8022084F83D000F
:1037B000211D206801F050F9012084F8480000BF65
:1037C00084F83E0001213F20015540200155412051
:1037D0000155422001554320015500BF00BF012083
:1037E00084F84400452001554620015547200155E5
:1037F00000BF012084F83D000020CCE770477047EF
:1038000070B504460D4615B994F83E0015E0042D38
:1038100002D13F20005D10E0082D02D14020005D64
:103820000BE00C2D02D14120005D06E0102D02D1ED
:103830004220005D01E04320005D012801D001200D
:1038400070BD1DB9022084F83E001AE0042D03D19A
:1038500002213F20015514E0082D03D10221402010
:1038600001550EE00C2D03D102214120015508E045
:10387000102D03D102214220015502E002214320F4
:10388000015501222946206801F030F921492068BC
:1038900088420BD020492068884207D01F49206801
:1038A000884203D01E492068884201D1012000E0EF
:1038B000002028B12068406C40F400402168486432
:1038C0001449206888420BD02068B0F1804F07D09F
:1038D00014492068884203D00F492068884210D1DB
:1038E00020688068104900EA0106062E0FD0B6F560
:1038F000803F0CD02068006840F00100216808601B
:1039000005E02068006840F00100216808600020A0
:1039100096E70000002C01400040014000440140B7
:1039200000480140000400400700010030B5044693
:103930000D4600222946206801F0D8F82D4920685C
:1039400088420BD02C492068884207D02B49206838
:10395000884203D02A492068884201D1012000E032
:10396000002090B100BF2068006A41F211110840A8
:1039700050B92068006A8910084028B92068406C56
:1039800020F400402168486400BF00BF2068006A3E
:1039900041F21111084050B92068006A89100840AE
:1039A00028B92068006820F001002168086000BF85
:1039B0001DB9012084F83E001AE0042D03D1012135
:1039C0003F20015514E0082D03D10121402001556D
:1039D0000EE00C2D03D101214120015508E0102DEE
:1039E00003D101214220015502E00121432001556C
:1039F000002030BD002C0140004001400044014047
:103A0000004801407047704770477047704700009A
:103A10002DE9F04704462068C569206806682068DB
:103A2000876840F60F0005EA0009B9F1000F0CD1D4
:103A300005F0200048B106F0200030B1606E10B1F2
:103A40002046616E8847BDE8F087B9F1000F7DD050
:103A500007F0010018B99B4830400028F7D005F066
:103A6000010058B106F4807040B10120216808625D
:103A7000D4F8800040F00100C4F8800005F0020096
:103A800058B107F0010040B1022021680862D4F863
:103A9000800040F00400C4F8800005F0040058B134
:103AA00007F0010040B1042021680862D4F88000CA
:103AB00040F00200C4F8800005F0080070B106F084
:103AC000200010B907F0010040B108202168086209
:103AD000D4F8800040F00800C4F8800005F40060CD
:103AE00060B106F0806048B14FF400602168086260
:103AF000D4F8800040F02000C4F88000D4F88000A2
:103B000090B305F0200038B106F0200020B1606EBF
:103B100010B12046616E8847D4F880A02068806884
:103B200000F04000402802D00AF0280028B32046C8
:103B300001F016FB2068806800F04000402818D192
:103B40002068806820F04000216800E01CE0886068
:103B5000206F50B15C48216F4863206FFDF706FD70
:103B600010B1206F416B88470DE02046FFF74EFFF4
:103B700009E02046FFF74AFF05E02046FFF746FF31
:103B80000020C4F880005EE7206E012874D105F0A3
:103B90001000002870D006F0100000286CD0102013
:103BA000216808622068806800F0400040283AD10F
:103BB000206F006840681FFA80F8B8F1000F31D01C
:103BC000B4F8580040452DDDA4F85A80206F806974
:103BD00020281ED02068006820F4807021680860CA
:103BE0002068806820F00100216888602068806873
:103BF00020F04000216888602020E06700202066D7
:103C00002068006820F0100021680860206FFDF730
:103C100083FCB4F85800B4F85A20801A81B22046C8
:103C2000FFF7F2FE0FE734F8580F6188401A1FFAC9
:103C300080F86088583CE8B1B8F1000F1AD02068CD
:103C4000006820F49070216808602068806820F087
:103C50000100216888602020E067002020666066FF
:103C60002068006820F01000216808604146204666
:103C7000FFF7CAFEE7E6FFE705F4801050B107F44E
:103C8000800038B14FF48010216808622046FFF7A9
:103C9000BCFED8E605F0800040B106F0800028B1F7
:103CA000A06E10B12046A16E8847CCE605F040001A
:103CB00030B106F0400018B1204601F06CFAC2E6BF
:103CC00000BFC0E6200100042550000810B50446DE
:103CD0000CB9012010BDA06900B100E000BFA06FC9
:103CE00028B9002084F87400204600F029F8242028
:103CF000A0672068006820F0010021680860204665
:103D000001F062FA012800D1E4E7606A10B12046B0
:103D100001F0D3F82068406820F4904021684860A2
:103D20002068806820F02A00216888602068006888
:103D300040F0010021680860204601F03AF9C9E727
:103D400010B586B00446142101A8FCF704FB3549E0
:103D50002068884264D100BF3348C06940F48020A5
:103D60003149C8610846C06900F48020009000BF56
:103D700000BF00BF0846406940F480204861084603
:103D8000406900F48020009000BF00BF4FF4406005
:103D9000019002200290002003900320049007204D
:103DA000059001A92148FDF70DFD21482149086032
:103DB0000020486000211F4881608021C1600021EF
:103DC000016141618161C161FDF76FFC08B1FCF7E0
:103DD0003EFC00BF17482067446200BF14481438F7
:103DE0001549086010204860002113488160802137
:103DF000C1600021016141618161C161FDF755FC34
:103E000008B1FCF724FC00BF0B48E066446200BF29
:103E1000002211462720FDF767FF2720FDF754FFFA
:103E200006B010BD004800400010024000040048E9
:103E300030000240380400207C04002070B50446A5
:103E40000D461646E06F202821D105B10EB901209C
:103E500070BD00BF94F87400012801D10220F7E77B
:103E6000012084F8740000BF0020206620684068AC
:103E700000F4000028B12068006840F080602168EC
:103E8000086032462946204601F076FAE0E7022033
:103E9000DEE700002DE9F0472DED048B8146142765
:103EA00000250026A8460024F4E0781EC7B21F258E
:103EB0004FF00008681EC5B2002606E07948805D14
:103EC000404400F0FF08701CC6B2AE42F6DB7548F5
:103ED000405D40457ED1734989790906714AD2799E
:103EE00041EA02416F4A127A41EA02216D4A527A4E
:103EF00041EA020001F065FD41EC190B9FED6A0BF0
:103F000053EC102B01F0EEFB41EC180B01F0B8FB69
:103F1000674908606349897A0906624AD27A41EAA8
:103F20000241604A127B41EA02215E4A527B41EA29
:103F3000020001F046FD41EC190B9FED5B0B53ECC9
:103F4000102B01F0CFFB41EC180B01F099FB594904
:103F500008605449897B0906524AD27B41EA0241F2
:103F6000504A127C41EA02214E4A527C41EA020048
:103F700001F027FD41EC190B9FED4B0B53EC102B7F
:103F800001F0B0FB41EC180B01F07AFB4A490860E4
:103F900012242246641C4349895C0B062246641C99
:103FA0004049895C43EA01432246641C3D49895CDF
:103FB00043EA01212246631CDCB23A4B9A5C41EA97
:103FC000020001F0E7FC41EC190B9FED3C0B53ECB8
:103FD000102B00E05AE001F085FB41EC180B01F0DA
:103FE0004FFB384908602146621CD4B22D4A515C0F
:103FF0000B062246611CCCB22A49895C43EA014384
:104000002246611CCCB22749895C43EA0121224641
:10401000631CDCB2234B9A5C41EA020001F0D1FC44
:1040200041EC190B9FED200B53EC102B01F05AFBC8
:1040300041EC180B01F024FB234908602146621C67
:10404000D4B2184A515C0B062146621CD4B2154A00
:10405000515C43EA01432146621CD4B2114A515CCF
:1040600043EA01212246631CDCB20E4B9A5C41EA12
:10407000020001F0A6FC41EC180B9FED100B53EC75
:10408000102B01F02FFB114A03C202E0012010495E
:10409000087002E0002F7FF408AF00BFBDEC048B76
:1040A000BDE8F087E00000200000000000408F40E5
:1040B0001800002014000020240000200000000050
:1040C0000088C340200000201C00002028000020A1
:1040D000340000207047000070B504460E461546B7
:1040E000A06F20284AD106B10DB9012070BD00BFD4
:1040F00094F87400012801D10220F7E7012084F828
:10410000740000BF44F84C6FA580E5800020606318
:104110002120E062206A4C3C00B31948E16E8862BD
:104120001848E16EC8621848E16E08630020E16E2D
:104130004863236803F128022B46E16CE06EFDF72B
:10414000DFFA58B11020C4F8800000BF002084F8C6
:10415000740000BF2020A0670120C7E7402021682D
:10416000086200BF002084F8740000BF20688068E7
:1041700040F08000216888600020B7E70220B5E7A2
:104180001F510008535100083D5000087047704708
:1041900000BFFEE700B589B00020069007900890A8
:1041A00018216846FCF7D7F84FF0A040384908605E
:1041B000002048600021364881600121016141767C
:1041C000002180F820104FF48061C1624FF45071DB
:1041D00081620021C1600621C161002180F8301098
:1041E00004214161002101764163FCF705FE08B11D
:1041F000FCF72DFA0020069006A92548FCF72AFABC
:1042000008B1FCF724FA01200090019000200390EF
:1042100002900490059069461D48FCF7B9FA08B170
:10422000FCF715FA02200090019069461848FCF747
:10423000AFFA08B1FCF70BFA032000900190694631
:104240001348FCF7A5FA08B1FCF701FA0420009026
:10425000019069460E48FCF79BFA08B1FCF7F7F9A4
:104260000B2000900520019069460948FCF790FA60
:1042700008B1FCF7ECF90C2000900620019069468B
:104280000348FCF785FA08B1FCF7E1F909B000BD75
:104290001401002010B50A480A49086050204860FF
:1042A0000021084881602A21C160002101618161EB
:1042B00001214162FDF71AF808B1FCF7C8F910BDF9
:1042C00020000140A80100200EB5002000900190C0
:1042D00002900B480B4908600846FDF7F1F808B159
:1042E000FCF7B5F93C2000900020029010226946AE
:1042F0000448FDF7A1F808B1FCF7A9F90EBD0000CC
:1043000000740040D801002008B500BF1248406981
:1043100040F00100104948610846406900F0010082
:10432000009000BF00BF002207210B20FDF7DCFC3E
:104330000B20FDF7C9FC002211460C20FDF7D4FC30
:104340000C20FDF7C1FC002211460D20FDF7CCFC2E
:104350000D20FDF7B9FC08BD0010024000B587B084
:10436000142102A8FBF7F7FF00BF2648406940F47C
:104370008000244948610846406900F480000190AB
:1043800000BF00BF00BF0846406940F400304861EC
:104390000846406900F40030019000BF00BF00BF34
:1043A0000846406940F4802048610846406900F4AE
:1043B0008020019000BF00BF002240214FF09040BC
:1043C000FDF7E8FA002218210F48FDF7E3FA402034
:1043D00002900120039000200490059002A94FF064
:1043E0009040FDF7EFF91820029001200390022081
:1043F00004900020059002A90348FDF7E3F907B0F7
:1044000000BD0000001002400004004810B5124832
:10441000124908601248486000211048816001215B
:10442000C1600021016141618161C1610162FDF7EB
:1044300027FB08B1FCF70BF900210848FDF7B6FA95
:1044400008B1FCF704F900210448FDF7E4FA08B1CB
:10445000FCF7FDF810BD000000540040EC01002006
:104460003F1E100000B587B0002003900490059017
:10447000069000900190029014481549086047206A
:1044800048600021124881604FF6FF71C160002131
:10449000016141618161FEF7D1FD08B1FCF7D7F8F8
:1044A0004FF48050039003A90948FEF709FF08B1B3
:1044B000FCF7CDF800200090029069460448FEF712
:1044C000C7FC08B1FCF7C3F807B000BD00400140CD
:1044D000D002002010B50B480B4908604720486007
:1044E00000210948816040F2E731C160002101618B
:1044F000416180218161FEF7A1FD08B1FCF7A7F8B9
:1045000010BD0000004401401C03002010B50B4802
:104510000B4908600020486000210948816040F68E
:104520000F61C16000210161416180218161FEF75D
:1045300085FD08B1FCF78BF810BD00000048014074
:104540006803002000B599B00020159016901790D0
:1045500018901290139014901C210BA8FBF7FBFEEF
:104560002C216846FBF7F7FE2F48304908600020F1
:10457000486000212D48816041F61F41C160002143
:10458000016141618161FEF759FD08B1FCF75FF8F7
:104590004FF48050159015A92448FEF791FE08B1FC
:1045A000FCF755F82148FFF7F2F808B1FCF74FF88F
:1045B000002012901390149012A91C48FEF748FC9A
:1045C00008B1FCF744F860200B9000200C900D908F
:1045D0000E900F901090119004220BA91348FFF732
:1045E00022F808B1FCF733F8002000900190029007
:1045F00032200390002004904FF4005005900020DA
:10460000069007904FF000700890002009900A90E3
:1046100069460648FEF7C8FB08B1FCF718F80348DE
:10462000FEF7B2FF19B000BD002C01403802002097
:104630000EB500200090019002900F480F490860CD
:104640000020486000210D48816041F61F41C16093
:1046500080218161FEF7F2FC08B1FBF7F8FF202012
:1046600000900020029069460448FEF7F1FB08B173
:10467000FBF7EDFF0EBD000000100040840200209B
:1046800010B50D480D4908604FF4165048600021E0
:104690000A488160C16001610C2141610021816192
:1046A000C16101620020054948620846FFF70EFB20
:1046B00008B1FBF7CCFF10BD00480040B403002058
:1046C00000BFFEE700BFFEE7B0EE401A10B99FED55
:1046D000790A704790ED100A80ED110A90ED0F0AEB
:1046E00080ED100AC0ED060A80ED071A30EEC10A0F
:1046F00080ED0F0A0178002975D190ED010AD0ED07
:104700000F1A20EE210A80ED090A90ED0A0AD0ED79
:10471000021A90ED0F2A01EE820A80ED0A0A90ED4E
:104720000D0A80ED0E0A90ED0C0A80ED0D0A90ED59
:104730000F0AD0ED101A30EE610A80ED0C0A90EDF0
:10474000030AD0ED0C1A20EE210A80ED0B0A90ED41
:104750000A0AD0ED051AB4EEE10AF1EE10FA04DD12
:1047600090ED050A80ED0A0A10E090ED0A0AD0EDFE
:10477000051AF1EE611AB4EEE10AF1EE10FA05D273
:1047800090ED050AB1EE400A80ED0A0A90ED090AA3
:10479000D0ED0A1A30EE210AD0ED0B1A30EE210AC4
:1047A00080ED080A90ED080AD0ED041AB4EEE10A93
:1047B000F1EE10FA04DD90ED040A80ED080A76E0CF
:1047C00090ED080AD0ED041AF1EE611AB4EEE10A98
:1047D000F1EE10FA6BD290ED040AB1EE400A80EDD2
:1047E000080A64E0FFE70178012960D190ED0F0A23
:1047F000D0ED101A30EE610AD0ED011A20EE210A38
:1048000080ED090A90ED020AD0ED0F1A20EE210A80
:1048100080ED0A0A90ED0D0A80ED0E0A90ED0C0A6B
:1048200080ED0D0A90ED0F0AD0ED101AB0EE002ABF
:1048300002EE610AD0ED111A30EE210A80ED0C0A69
:1048400090ED030AD0ED0C1A20EE210A80ED0B0A40
:1048500090ED090AD0ED0A1A30EE210AD0ED0B1ABC
:1048600030EE210AD0ED081A30EE210A80ED080A58
:1048700090ED080AD0ED041AB4EEE10AF1EE10FA58
:1048800004DD90ED040A80ED080A10E090ED080ABE
:10489000D0ED041AF1EE611AB4EEE10AF1EE10FA6D
:1048A00005D290ED040AB1EE400A80ED080A90EDC1
:1048B000080A0EE70000000000B102B9704701705D
:1048C00092ED001A80ED011A92ED011A80ED021AA4
:1048D00092ED021A80ED031A80ED040AC0ED050A7C
:1048E0009FED0C1A80ED0E1A80ED0D1A80ED0C1A5A
:1048F0009FED081A80ED081A80ED0B1A80ED0A1A58
:1049000080ED091A80ED111A80ED101A80ED0F1A52
:1049100000BFD3E7000000007047000010B5044658
:10492000114884700020114908600F4800780E4932
:10493000497808440C49897808440B49C9780844E7
:1049400009490979084408494979084406498871A0
:1049500007220748FFF7C0FB1F2206490448FFF75C
:104960006DFA002010BD000035000020300000204E
:10497000B4030020E0000020704710B5FDF73EF9B9
:1049800010BD00B597B028210DA8FBF7E4FC142159
:1049900008A8FBF7E0FC1C2101A8FBF7DCFC0320C6
:1049A0000D904FF480300E9000200F900120119058
:1049B0001020129002201490C10315914FF4E011C1
:1049C00016910DA8FDF7C0FC08B1FBF740FE0F20C3
:1049D00008900220099000200A904FF480600B900C
:1049E00000200C90022108A8FDF7D6FA08B1FBF7C9
:1049F0002EFE4FF4855001904FF4807005900020FA
:104A00000490069001A8FDF7C1F908B1FBF71FFE5D
:104A100017B000BD0348006840F470000149086009
:104A20007047000088ED00E010B50348FEF7CFFCAA
:104A30000248FEF7CCFC10BD3802002068030020BD
:104A400010B50348FEF7C3FC0248FEF7C0FC10BDDA
:104A5000380200201C03002010B502681E4B98424B
:104A600005D0B0F1804F02D01C4B984203D122F008
:104A700070024B681A43184B98420ED0B0F1804F29
:104A80000BD0164B984208D0154B984205D0154BC9
:104A9000984202D0144B984203D122F44072CB6862
:104AA0001A4322F080034C6943EA040202608B68D7
:104AB000C3620B688362084B984208D0084B984247
:104AC00005D0084B984202D0074B984201D10B69A0
:104AD00003630123436110BD002C0140000400402A
:104AE00000400140004401400048014030B501F061
:104AF0001F05012404FA05F3046A9C430462046A56
:104B000001F01F0502FA05F52C43046230BD30B5F3
:104B100001F01F05042404FA05F3046A9C430462AF
:104B2000046A01F01F0502FA05F52C43046230BD4A
:104B300030B50C46816821F47F4142EA03252543C4
:104B40002943816030BD0A46816821F0700142F03E
:104B5000070319438160704730B5056A25F00105E8
:104B60000562026A436884691C4D2C4024F00304EA
:104B70000D682C4322F002028D682A43184DA8428A
:104B800000D10BE0174DA84200D107E0164DA84216
:104B900000D103E0154DA84206D100BF22F0080263
:104BA000CD682A4322F004020D4DA84208D00D4DD5
:104BB000A84205D00C4DA84202D00C4DA84207D106
:104BC00023F4807323F400734D692B438D692B43C9
:104BD000436084614D684563026230BD8FFFFEFF14
:104BE000002C0140004001400044014000480140C9
:104BF00030B5056A25F010050562026A43688469CC
:104C00001F4D2C4024F440740D6844EA052422F022
:104C100020028D6842EA05121A4DA84200D10BE02D
:104C2000194DA84200D100BF184DA84200D100BFC5
:104C3000174DA84207D106E022F08002CD6842EA73
:104C4000051222F040020F4DA84208D00E4DA84296
:104C500005D00E4DA84202D00D4DA84209D123F433
:104C6000806323F400634D6943EA85038D6943EA59
:104C70008503436084614D688563026230BD000036
:104C8000FF8FFFFE002C0140004001400044014026
:104C90000048014030B5056A25F480750562026A56
:104CA0004368C4691E4D2C4024F003040D682C4356
:104CB00022F400728D6842EA05221A4DA84200D102
:104CC0000BE0194DA84200D100BF184DA84200D1F9
:104CD00000BF174DA84207D106E022F40062CD685C
:104CE00042EA052222F480620E4DA84208D00E4D01
:104CF000A84205D00D4DA84202D00D4DA84209D1C1
:104D000023F4805323F400534D6943EA05138D695E
:104D100043EA05134360C4614D68C563026230BD58
:104D20008FFFFEFF002C0140004001400044014085
:104D30000048014030B5056A25F480550562036AD4
:104D40004468C269114D2A4022F440720D6842EA5B
:104D5000052223F400538D6843EA05330C4DA84225
:104D600008D00C4DA84205D00B4DA84202D00B4DE7
:104D7000A84204D124F480444D6944EA8514446077
:104D8000C2614D680564036230BD0000FF8FFFFE05
:104D9000002C014000400140004401400048014017
:104DA00030B5056A25F480350562026A4368446DB2
:104DB0000F4D2C400D682C4322F400320D8942EA3D
:104DC00005420C4DA84208D00B4DA84205D00B4D12
:104DD000A84202D00A4DA84204D123F480334D6981
:104DE00043EA0523436044654D688565026230BD32
:104DF0008FFFFEFF002C01400040014000440140B5
:104E00000048014030B5056A25F480150562026A44
:104E10004368446D104D2C400D6844EA052422F48B
:104E200000120D8942EA05520C4DA84208D00C4DE3
:104E3000A84205D00B4DA84202D00B4DA84204D188
:104E400023F480234D6943EA8523436044654D681C
:104E5000C565026230BD0000FF8FFFFE002C0140DF
:104E600000400140004401400048014030B50B467D
:104E70001446026A056A25F001050562816921F080
:104E8000F00141EA041122F00A021A438161026230
:104E900030BD30B50B461446056A25F01005056295
:104EA0008169026A21F4704141EA043122F0A002D2
:104EB00042EA03128161026230BD90F8241001F0D1
:104EC000010139B10168496821F40031826A114356
:104ED0000268516090F8241001F00201022907D104
:104EE0000168496821F48031C26A11430268516047
:104EF00090F8241001F00401042907D101684968E1
:104F000021F48021026B11430268516090F8241053
:104F100001F00801082907D10168496821F400411E
:104F2000426B11430268516090F8241001F01001A7
:104F3000102907D10168896821F48051826B1143DF
:104F40000268916090F8241001F02001202907D117
:104F50000168896821F40051C26B114302689160B5
:104F600090F8241001F04001402913D101684968EC
:104F700021F48011026C114302685160016CB1F59B
:104F8000801F07D10168496821F4C001426C1143B8
:104F90000268516090F8241001F08001802907D147
:104FA0000168496821F40021826C11430268516054
:104FB000704738B504460020C4F88000FCF7F0FCC8
:104FC00005462068006800F0080008280CD16FF042
:104FD0007E402B4600224FF400110090204600F046
:104FE00019FA08B1032038BD2068006800F00400F9
:104FF00004280CD16FF07E402B4600224FF4800134
:105000000090204600F006FA08B10320EBE72020CC
:10501000A067E0670020206600BF84F8740000BF2E
:1050200000BFE0E770B505466C6A0020A4F85A009E
:10503000A4F852002046FEF7E9FC70BD2DE9F041CE
:1050400005466C6AA66FE76F2068806800F08000F4
:10505000802807D1212E05D10020A4F85200204637
:1050600000F0A9F82068806800F04000402807D1CF
:10507000222F05D10020A4F85A00204600F070F835
:10508000D4F8800040F01000C4F880002046FEF7FD
:10509000BDFCBDE8F08170B505466C6AA8692028A2
:1050A0001FD00020A4F85A002068006820F4807007
:1050B000216808602068806820F00100216888600D
:1050C0002068806820F04000216888602020E06728
:1050D000206E012805D12068006820F010002168AA
:1050E0000860206E012805D1B4F858102046FEF75C
:1050F0008BFC02E02046FEF7CDFE70BD70B5054684
:105100006C6A206E012806D1B4F858004108204688
:10511000FEF77AFC02E02046FEF7DCFF70BD70B5BA
:1051200005466C6AA86920280FD00020A4F8520018
:105130002068806820F0800021688860206800680E
:1051400040F040002168086002E02046FFF71EF8AA
:1051500070BD70B50446656A2846FFF718F870BD43
:105160000168096821F4907102681160016889681A
:1051700021F0010102689160016E012905D10168E9
:10518000096821F01001026811602021C167002127
:1051900001664166704710B504462068006820F03B
:1051A0004000216808602020A0670020A0662046FB
:1051B000FEF7ECFF10BD0168096821F0C00102682C
:1051C00011602021816770472DE9F04704464FF0B8
:1051D000000A2169A068084361690843E16940EA5F
:1051E0000108206800685E49084040EA080021681C
:1051F00008602068406820F44050E1680843216856
:105200004860D4F81880206A40EA0808206880685E
:1052100020F4306040EA08002168886000BF5149EE
:105220002068884216D15048006B00F0030030B16E
:10523000012808D0022808D0032808D101E0002660
:1052400007E0022605E0042603E0082601E0102618
:1052500000BF0CE045492068884201D1002606E0E5
:1052600043492068884201D1002600E0102600BF93
:10527000E069B0F5004F3AD1092E17D2DFE806F009
:1052800005090D160F1616161300FCF7E1FF05466B
:1052900010E0FCF7F3FF05460CE0364D0AE0FDF7A1
:1052A00003F8054606E04FF4004503E000254FF003
:1052B000010A00BF00BF8DB36800616800EB5100B8
:1052C000B0FBF1F087B2102F0ED3B7F5803F0BD2B1
:1052D0004FF6F07007EA0009C7F3420049EA0009F7
:1052E0002068C0F80C9034E04FF0010A31E0092E3C
:1052F00018D2DFE806F005090D170F17171714006D
:10530000FCF7A6FF054611E0FCF7B8FF05460DE0E7
:10531000184D0BE0FCF7C8FF054607E019E04FF415
:10532000004503E000254FF0010A00BF00BF85B132
:10533000606805EB50006168B0FBF1F087B2102F98
:1053400005D3B7F5803F02D22068C76001E04FF077
:10535000010A00206066A0665046BDE8F0870000A4
:10536000F369FFEF003801400010024000440040A4
:105370000048004000127A0070B504460E461546FB
:105380006665A4F858500020C4F880002220E06729
:10539000206F00B31C48216F88621C48216FC862CF
:1053A0001B48216F08630020216F4863236803F1C5
:1053B00024012B46626D206FFCF7A2F958B1102032
:1053C000C4F8800000BF002084F8740000BF2020D3
:1053D000A067012070BD00BF002084F8740000BFEA
:1053E0002068006840F48070216808602068806848
:1053F00040F00100216888602068806840F040002B
:10540000216888600020E5E797500008FD500008FB
:105410003D5000082DE9F04104460D4617469846D8
:10542000069E46E0701C002843D0FCF7B9FAA0EBBA
:105430000800B04200D8B6B92068006820F4D070E7
:10544000216808602068806820F001002168886079
:105450002020A067E06700BF002084F8740000BF30
:105460000320BDE8F0812068006800F0040000B36C
:105470002068C069C0F3C020D8B14FF40060216833
:1054800008622068006820F4D070216808602068F5
:10549000806820F00100216888602020A067E06714
:1054A000C4F8800000BF002084F8740000BF03200F
:1054B000D7E72068C0692840A84201D1012000E058
:1054C0000020B842AED00020CBE7000010B5024863
:1054D000FEF79EFA10BD0000B403002000BFFEE7F7
:1054E00002480068C0F30220704700000CED00E0A5
:1054F00010B5002804DB0A07130E054A135406E012
:105500000A07140E034A00F00F031B1FD45410BDEA
:1055100000E400E018ED00E0FCF77CFBFFF731FA57
:10552000FEF71CFFFEF7F0FEFEF7F0FFFEF732FE7F
:10553000FEF7B0FEFEF7C8FEFEF768FFFEF7CAFFF3
:10554000FEF790FFFFF774F8FEF7FCFFFFF798F8FF
:10555000DFED1B0A9FED1A0A1A4A01211A48FFF7CC
:10556000ABF9002208211948FCF714FA0022102197
:105570001648FCF70FFA002240214FF09040FCF74C
:1055800009FA04211248FEF73BF904211048FDF7FF
:10559000A9FC1048FDF716FE0F48FDF74FFE0F4817
:1055A000FDF74CFE1E220E490E48FBF7BDFD06E03E
:1055B0000120FFF7B3F94FF4FA70FCF7EFF8F7E7C3
:1055C00000F8E045A45A00089800002000040048B4
:1055D0003802002084020020680300201C03002001
:1055E00050000020140100204FF46162014B1A604A
:1055F00070470000382C014010B5002208210E48E9
:10560000FCF7C8F900BF00BF00BF00BF00BF00BF6C
:1056100000BF00BF00BF00BF00BF00BF00BF00BF92
:1056200000BF00BF00BF00BF00BF00BF01221021AC
:105630000148FCF7AFF910BD0004004810B5002286
:1056400010210E48FCF7A6F900BF00BF00BF00BF45
:1056500000BF00BF00BF00BF00BF00BF00BF00BF52
:1056600000BF00BF00BF00BF00BF00BF00BF00BF42
:10567000012208210148FCF78DF910BD0004004803
:1056800021F00042A2F16052B2F5801F01F0004308
:1056900028BFD2F17F6C0BD95FEA001C43EAC2023B
:1056A00042EB507018BF704728BF20F001007047D0
:1056B000B2F5801FBCBF184670474FEA410C1CF57D
:1056C000001F02D2084600F0E8B970B500F08CF96E
:1056D00000000089FFF7F6BF4FF00040A0F5800002
:1056E000704700002DE9C04130B4DFF8A0C23CEAA9
:1056F000111418BF3CEA131400F0EC8081EA030592
:105700001CEA111444EAD57418BF1CEA131500F002
:10571000C780A4EB05044FF0004545EAC12145EAE6
:10572000C32341EA505143EA525304F17F74994232
:1057300004F500344FEAC0204FEAC22208BF90426D
:1057400000F09C804FEA13650FF24016765D4FEA39
:10575000134506FB05F7C7F1807706FB07F74FEA0D
:10576000D737A7FB03687642C8F58038A7FB06CE7B
:1057700038BFA8F1010807FB08E64FF0000EA6FBB2
:10578000028CE6FB03CEDCF1000CCEF1004E38BFFC
:10579000AEF1010EA6FB0C584FF000074FF00005CC
:1057A000E6FB0E87A1FB08C6A0FB07CE16EB0E0694
:1057B00045F10005E1FB076515F1E04E7EBFA4F55C
:1057C00080345FEA46066D4116F1800745F1000519
:1057D0004FEA17274FEA066647EA0567A6F1DE4655
:1057E000B6F1805F4FEA15251FD9384624F0010C29
:1057F00005EBC471BCF1FE6F01EB0C1102D8F0BCDB
:10580000BDE8008124425CBF01F5801E9EEAC47F92
:1058100002D4F0BCBDE80081244238D4F0BCA1F130
:10582000C041BDE8004100F02DB94FEAD22242EA62
:1058300043524FEAD323A7FB02864FEAD02040EA27
:10584000415007FB03661EEA0E0F4FEAD12105FB0C
:10585000026658BFA6EB0056B6EB00564FEA520E52
:105860004EEAC37E18EB0E0E56EB530EBDD518EB69
:1058700002085E417F1C55F10005B6E74FF4801524
:105880004FF000074FF000064FF00008ADE7F0BC06
:105890004FF0000001F1C04101F00041BDE800817E
:1058A00011EA0C1F0CEA131500D00CE013EA0C1FD0
:1058B00000F025804FF00000F0BC81EA030101F008
:1058C0000041BDE80081F0BCBDE8004181EA030170
:1058D00000F0D8B8F0BCBDE8004170B500F084F825
:1058E000097EFC3E00F007B881EA03014FF000009A
:1058F00001F00041704781EA030100F0C3B8F0BC39
:10590000BDE800414FF0000021497047FFFDFBF961
:10591000F7F5F4F2F0EEEDEBE9E8E6E4E3E1E0DEE2
:10592000DDDBDAD8D7D5D4D3D1D0CFCDCCCBCAC854
:10593000C7C6C5C4C2C1C0BFBEBDBCBBBAB9B8B77B
:10594000B6B5B4B3B2B1B0AFAEADACABAAA9A8A86E
:10595000A7A6A5A4A3A3A2A1A09F9F9E9D9C9C9B3C
:105960009A999998979796959594939392919190E7
:105970008F8F8E8E8D8C8C8B8B8A89898888878778
:105980008685858484838382828181800000FF07ED
:105990000000F87F10F0004248BF4042B0FA80F3A8
:1059A00010FA03F10AD0C3F11D0303F580634FEA37
:1059B000415002EB035202EBD12170474FF000003F
:1059C0007047B0FA80F310FA03F10AD0C3F11D0357
:1059D00003F580634FEA41504FEA035202EBD121B5
:1059E00070474FF0000070470EF1020E2EF0030ECC
:1059F0005EF8046B364205D4012A43EB030515F526
:105A0000001F12D8012841EB010C1CF5001F0CD817
:105A10000ED14FEAD17C15F5001F0CEB4C0C0CF1AC
:105A2000020C08BF4CEBD37C04E04FF0080C01E003
:105A30004FEAD37C0CEB4C0526FA05F606F0070678
:105A4000B6F1040C06D20EEB860CBDE870404CF0AB
:105A5000010C6047DFE80CF0090B02024FF0004137
:105A60004FF00000A1F5002170BD19461046012835
:105A700051EB010418BFD4F5001484BF002001F0DD
:105A8000004170BD0808A0F500114FEA31017047D0
:105A90004FF04070E1EE100A7047FF2141EAD0500C
:105AA000C00570470000000000000000000000007A
:105AB00002030405060708090A0B0C0D0E0F10104F
:105AC0000102030405060708090A0B0C0D0E0F104E
:105AD000000000000000000001020304060708099E
