:020000040800F2
:10000000A80A0020D50200080562000873590008FC
:1000100001620008B51E00082F6C000800000000F7
:10002000000000000000000000000000FF66000863
:10003000111F000800000000FD66000801670008AD
:10004000ED020008ED020008ED020008ED020008D4
:10005000ED020008ED020008ED020008ED020008C4
:10006000ED020008ED020008ED020008B91E0008CC
:10007000ED020008ED020008ED020008ED020008A4
:10008000ED020008ED020008ED020008ED02000894
:10009000ED020008ED020008ED020008ED02000884
:1000A000ED020008ED020008B9670008ED02000843
:1000B000ED020008ED02000800000000ED0200085B
:1000C000ED0200080000000000000000ED02000842
:1000D00000000000ED020008ED020008ED0200083B
:1000E000ED020008ED020008000000000000000022
:1000F0000000000000000000000000000000000000
:1001000000000000000000000000000000000000EF
:100110000000000000000000ED020008ED020008F1
:1001200000000000000000000000000000000000CF
:1001300000000000000000000000000000000000BF
:10014000ED020008ED020008000000002150000848
:10015000ED020008ED020008ED020008ED020008C3
:10016000ED020008ED0200080000000000000000A1
:10017000000000000000000000000000000000007F
:1001800000000000ED02000800F002F800F092F814
:100190000AA090E8000C82448344AAF10107DA45E2
:1001A00001D100F087F8AFF2090EBAE80F0013F0A2
:1001B000010F18BFFB1A43F001031847E475000054
:1001C00004760000103A24BF78C878C1FAD85207E4
:1001D00024BF30C830C144BF04680C6070470000C1
:1001E0000023002400250026103A28BF78C1FBD840
:1001F000520728BF30C148BF0B6070476E2900F01E
:10020000FB81702900F03D83662906F01886652978
:1002100006F01586672906F01286612906F0118618
:1002200003681B0A28BF41F08001692900F0A881FA
:10023000642900F0A581752900F0A2816F2900F0E2
:10024000CA82782900F00983E92900F06582E4294F
:1002500000F06282F52900F05F82EF2900F0C7828A
:10026000F82900F008830368DB0928BF41F080010A
:10027000632901F00B80732901F01080E32901F05C
:100280001B80F32901F02080002070471FB506F085
:10029000D1FD01F06BF804000020002106F0B4FD50
:1002A000401C60600020002106F098FDE0601FBD4A
:1002B00010B510BD01F02CF81146FFF7E7FF06F06E
:1002C00017FD01F009F903B4FFF7F2FF03BC01F0D9
:1002D00051F90000804709480047FEE7FEE7FEE7C6
:1002E000FEE7FEE7FEE7FEE7FEE7FEE7FEE70000CB
:1002F00003480449044A054B70470000890100087F
:10030000A8040020A80A0020A8060020A8060020B3
:1003100053EA020C00F069802DE9F04B4FF0000623
:10032000002B1FBFB3FA83F503FA05F424FA05F690
:100330005E4012BF1643B2FA82F502FA05F4C5F127
:1003400020051EBF22FA05FC44EA0C04203556EABB
:10035000044C4FEA144418BF641C4FF000084FF0DF
:100360000009904271EB030C39D3002919BFB1FA8F
:1003700081F701FA07F6B0FA80F700FA07F6C7F13D
:1003800020071EBF20FA07FC46EA0C062037B6FB02
:10039000F4FCA7EB0507103F07F01F0BCBF120067D
:1003A0000CFA0BFB2CFA06F644BFB3460026202FAE
:1003B000A4BF5E464FF0000B5BEA060C08BF4FF08F
:1003C000010B19EB0B09ABFB027C48EB0608C01BC9
:1003D00006FB02CC0BFB03CC71EB0C01C1E70B4617
:1003E000024641464846BDE8F08B13B54FF0000089
:1003F0004FF00001AFF30080BDE81C4070470000E3
:100400001CB50C46064B7B4469460090204600F024
:100410000CF904460020694600F01AF920461CBD7C
:10042000470200004FF000020429C0F0128010F0D3
:10043000030C00F01B80CCF1040CBCF1020F18BFC0
:1004400000F8012BA8BF20F8022BA1EB0C0100F053
:100450000DB85FEAC17C24BF00F8012B00F8012B26
:1004600048BF00F8012B70474FF0000200B513465B
:1004700094469646203922BFA0E80C50A0E80C50C4
:10048000B1F12001BFF4F7AF090728BFA0E80C5075
:1004900048BF0CC05DF804EB890028BF40F8042B6E
:1004A00008BF704748BF20F8022B11F0804F18BFDB
:1004B00000F8012B704770477047704770B50446CD
:1004C00085690068C10601D5302600E02026C007F6
:1004D00007D070BDD4E9012130469047206A401C06
:1004E00020626D1EF6D570BD70B504468569007832
:1004F000C00707D170BDD4E9012120209047206AB0
:10050000401C20626D1EF6D570BD09684A0501D5F4
:1005100040B27047C905FCD500B2704709684A056A
:1005200001D5C0B27047C905FCD580B2704770B51F
:100530000C460546012A05D02878800600D5EA69D0
:10054000002302E0012305E05B1C934202D2E05C41
:100550000028F9D1A869E618C01AA861286A1844C9
:1005600028622846FFF7AAFF04E0D5E9012114F824
:10057000010B9047B442F8D32846FFF7B5FF70BD92
:100580002DE9F0410646002410687529314616A56C
:1005900010D0FFF7BAFF002802DA404213A507E0A7
:1005A00031688A0701D512A502E0490704D511A5D3
:1005B000012401E0FFF7B2FF00210A2206F124071F
:1005C00009E0B0FBF2FCB0FBF2F302FB1C003030A0
:1005D00078541846491C0028F3D123462A46304651
:1005E000BDE8F04100F061BA000000002D000000FD
:1005F0002B0000002000000011680268006A53050B
:1006000001D508700AE0D30501D5088006E013067D
:1006100003D5C217C1E9000200E00860012070475D
:1006200001694A1C02610878704700B58FB0CDE9B6
:1006300001310021059105497944CDE903101146A6
:10064000684600F029F90FB000BD0000E5FFFFFF8C
:100650000A6802F8010B0A60704700002DE9FF5F8D
:1006600015468A460446DFF8AC80F8440027D8E9EE
:1006700000103E46CDE9001010E03AF816106A4628
:1006800002A800F025FE411C07D02178890603D579
:10069000E269391891420DD80744761C207880060B
:1006A00002D5E069B84205DDAE42E6DB3AF8160055
:1006B0000028E2D1A069C01BA0612046FFF7FEFE22
:1006C000D8E90010CDE90010002017E03AF8181022
:1006D0006A4602A800F0FCFDB0F1FF3F81460BD056
:1006E00000250DF1080B05E0D4E901211BF80500F8
:1006F00090476D1C4D45F7D308F10100B04280468C
:10070000E4DB206A384420622046FFF7EDFEBDE8B6
:10071000FF9F0000367000002DE9F0418046D21D99
:1007200022F007020025D2E90002F52915A614D00F
:10073000011E72F1000106DA0023D0EB030063EB27
:10074000020211A608E0D8F800108B0701D50FA609
:1007500002E0490701D50EA601251146002408F143
:10076000240704E000F05CF930323A55641C50EA8A
:100770000102F7D12B46324621464046BDE8F04102
:1007800000F093B9000000002D0000002B000000D5
:100790002000000030B4002100F1240408E002F041
:1007A0000705D208303542EA4372DB086554491C1C
:1007B00052EA0305F3D10468002310A2250707D5E8
:1007C000A40600D421B1C46901230DA2641EC46132
:1007D00030BC00F06AB910B5044621461068FFF736
:1007E0009DFE02462046BDE810400023D2E7D21D00
:1007F00022F00701D1E90023CCE70000000000004F
:1008000030000000F0B40D460188090502D5214CE6
:100810007C4402E01F4C7C440E34002100F124068D
:1008200008E002F00F071209E75D42EA03721B09B4
:100830007754491C52EA0307F3D1027800231207C8
:1008400004D5702D06D009B1022311342246F0BC24
:1008500000F02BB901231034F8E770B504460D46BB
:1008600021461068FFF75AFE024629462046BDE899
:1008700070400023C6E7D21D22F00703D3E900230E
:10088000C0E70368126843F0200303600823C361D4
:100890000023B7E7986E00002DE9F05F8946044613
:1008A0004FF0000ADFF874B1FB44C0F820A02046E6
:1008B000E1688847002874D0252806D0D4E90121B2
:1008C0009047206A401C2062F1E700265F462046E0
:1008D000E16888472028054607DB312D05D27819C5
:1008E00010F8200C08B10643F1E7B00701D526F057
:1008F0000406C4F81CA00027C4F818A02A2D09D0AB
:10090000284606F0CBF938B304EB8708303DC8F829
:10091000185019E059F8041B204604EB8702916136
:10092000E1688847012F054618D1E069002820DAE0
:1009300026F020061DE0D8F8180000EB800005EB3B
:1009400040003038C8F818002046E168884705465E
:1009500006F0A4F90028EED1012F0AD02E2D08D1DF
:100960002046E16888477F1C0546022F46F0200696
:10097000C4DBA069002803DA404246F00106A0610A
:10098000F00701D026F010066C2D0BD0682D09D091
:100990004C2D39D06A2D35D0742D35D07A2D33D0E9
:1009A00016E038E0E1682F4620468847B842054601
:1009B00009D16C2F26D04FF48060E16806432046B1
:1009C0008847054604E06C2F1AD04FF48070064328
:1009D0000DB3A5F14100192802D8203546F4006670
:1009E0004A462946204626604E46FFF707FC80B15E
:1009F00001280BD0F61D26F0070000F1080956E784
:100A00004020E4E78020D8E70020D6E706F104097B
:100A10004DE7284652E7206ABDE8F09F286E0000A7
:100A200030B5B0F10A024FEA900E71F100034EEAC0
:100A3000817EB0EB0E0061EB91014FEA101E4EEA91
:100A4000017E10EB0E0041EB11114FEA102E4EEA21
:100A5000016E10EB0E0041EB11214FEA104E4EEAF1
:100A6000014E10EB0E0041EB1141401841F1000125
:100A70004FEAD00040EA41704FEAD10110EB800507
:100A80004FEA810444EA907444EB01046D1944EB8D
:100A90000404521BA3414FF0000348BF0A3200D5A3
:100AA00030BD401C41F1000130BD2DE9F0470D463D
:100AB00099469246044600F124080168880604D548
:100AC000E06921F01001216000E00120A84201DD71
:100AD000471B00E00027A1697A1902EB0900081AF8
:100AE000A0612078C00602D42046FFF7E7FC00266C
:100AF00008E0D4E901211AF806009047206A401C5A
:100B0000761C20624E45F4DB2078C0060AD52046CC
:100B1000FFF7D4FC06E0D4E9012130209047206A99
:100B2000401C2062381EA7F10107F4DC07E0D4E97D
:100B3000012118F805009047206A401C2062281EF9
:100B4000A5F10105F3DC2046FFF7CEFC2078000676
:100B500002D50220BDE8F0870120FBE770472DE9B0
:100B6000FF4F0C461E464FF0FF378BB0D2E9000115
:100B7000DDF860800A908A46C1F30A5505B93D4602
:100B8000002108464FF00000BAF1000F00F44000C9
:100B900005DA00EB80004FF4400101EA50004FEA13
:100BA0009059B9F1010F00DDB9460A9850EA4A00A0
:100BB0000ED044F61050A5F2FF3545432F14B8F17E
:100BC000000F1ED07542291E1EDDC9F100021CE077
:100BD000B8F1010F4FF0000001D0302103E0F243E3
:100BE00005E02154401CB042FBDB304600220021CE
:100BF00021540B99C1F80880C1E900200FB0BDE86D
:100C0000F08FBD1B6D1CDEE74A4600DA694206A87C
:100C100000F0F0FB06AB93E8070003AB83E80700A6
:100C200050460A9900F0ADFC8DE80700A0F5005091
:100C30001F3800900398002D0ADD42F21F014A463A
:100C40000844002303A90390684600F016FF09E05A
:100C5000A0F500504A461F38002303A903906846B8
:100C600000F020FF8DE807000004000C03D04FF0D7
:100C7000FF30410800E01046B8F1000F03D0002219
:100C8000009215461EE0751E05D4FFF7C9FE3032EE
:100C900062556D1EF9D5B3460122084302D00022E9
:100CA0007F1C04E02078302801D100227F1E002A1A
:100CB000099784D01DE0112D07DAFFF7B1FE30321D
:100CC00062556D1C50EA0102F5D1084302D000982C
:100CD000C8B10EE00021681E05E0235C625C63542D
:100CE0002254401E491C8142F7DBAB46A81B401E24
:100CF0000990002004F80B000B98099AC0F80880AE
:100D0000C0E9002B7AE711264FF0000857E72DE9DC
:100D1000F04F88460446D21D22F0070191B0D1E978
:100D20000001CDE90A0105F084FF02460B98C00FCF
:100D300001D02D2007E02068810701D52B2002E09B
:100D4000202101EAC000032A099001D0072A05DB0F
:100D500003464146204600F00DFB0BE1207880065B
:100D600001D5E06900E00620B8F1650F814606D0A4
:100D7000B8F1660F18D0B8F1670F70D131E00020DC
:100D8000B9F1110F009001DB112301E009F101031A
:100D90000AAA01A90CA8FFF7E2FEDDE90C70002603
:100DA00009F10105834647E001204B4600904FF0D2
:100DB00000470AAA01A90CA8FFF7D1FEDDE90DB092
:100DC0000C995D46002610B909F101000D18B9EB28
:100DD000050003D4C0F1FF3609F10105A5EB0900B8
:100DE0002BE0B9F1010F01DA4FF001090020B9F150
:100DF000110F0090484601DD112300E003460AAAC6
:100E000001A90CA8FFF7ABFEDDE90C704D460026EA
:100E10008346207800070AD4AB4500DA5D4601A876
:100E2000012D04DD411911F8011C302907D04F456F
:100E300002DA17F1040F04DA012082460FE06D1E7A
:100E4000EEE7002F02DCED1B3E4403E0781CA842D5
:100E500000DD7D1CB81B00F1010A4FF0004720782F
:100E6000000703D4AA4501DB4FF0FF3A0021B7F198
:100E7000004F0DF143088DF8431024D002202B239E
:100E8000002F01DA7F422D230A21021EA0F101006A
:100E900000DC5FB197FBF1FC97FBF1F201FB1C7CDE
:100EA00017460CF1300C08F801CDEEE7A8F101006F
:100EB00003702188090501D5452100E06521A0F1D5
:100EC000010800F8011C09980FA9A1EB0807FF1DF4
:100ED00000B10120411901EBEA70A1693844081AF8
:100EE000401EA0612078C00602D42046FFF7E6FA33
:100EF000099828B1D4E901219047206A401C20625A
:100F00002078C00622D52046FFF7D8FA1EE0002E32
:100F100004DBB34502DD01A8805D00E03020D4E9A8
:100F200001219047206A401C2062761CAAF1010032
:100F30005FEA000A0AD100F019FAC0680168405C53
:100F4000D4E901219047206A401C2062281EA5F1A7
:100F50000105DCDC07E0D4E9012118F8010B90471A
:100F6000206A401C2062381EA7F10107F3DC2046EE
:100F7000FFF7BAFA032011B041E600002DE9F04F67
:100F800004460D46D21D22F0070089B0D0E9009733
:100F90004846394605F04DFE0246F80F01D02D2394
:100FA00007E02068810701D52B2302E0202101EA18
:100FB000C0038DF820300BB1012000E00020032A8F
:100FC000824601D0072A04DB2946204600F0D2F9E8
:100FD0003FE12078800601D40D2500E0E569C7F3E4
:100FE0000A560D2D49DA00214FEA175B08464FF0EB
:100FF0000000002F00F4400007DA00EB80004FF4FF
:10100000400100EBD07001EA60008115012901DD8B
:101010004FF0FF3100224FEA850CBCF1180F06D3C8
:101020001346ACF118004FF08052C24003E04FF479
:10103000801323FA0CF30CF10C0CBCF1200F04D339
:10104000ACF1200C09FA0CF001E007FA0CF00029D1
:101050004FF0004801DD18B90FE00ED140450CD328
:1010600019EB02095F4121B9404502D19F4329EAAA
:101070000209BBEB175F00D0761C2088000502D563
:101080007B48784402E07A487844193808AA30232B
:1010900002F80A30037C0AF10101002E0AF1020A6B
:1010A00053546A4602DC4FF0300101E04FF0310149
:1010B0004FF001088DF8001002D0A6F2FF3603E0D1
:1010C00059EA470100D06B4E002D02DC2178090758
:1010D00004D54FF002082E218DF80110C4460021DE
:1010E0000BE0C7F303433F01C35C491C6D1E02F8CC
:1010F0000830052908F1010801DA002DF1DC002192
:101100000CE000EB1973491C1B786D1E082902F8CE
:1011100008304FEA091908F1010801DA002DF0DC66
:1011200021688B0602D516E0A8F10108E04505DD2F
:1011300002EB080313F8013C302BF5D0B8F1000F97
:1011400009DD02EB080313F8013C2E2B03D109073C
:1011500001D4A8F10108002D05DD3E2102F8081098
:101160006D1E08F10108407C002E02F8080008F10D
:10117000010804DA2D20764202F8080002E02B2054
:1011800002F808000A214FF47A70864208F101083B
:101190000BDB96FBF0F3303302F8083096FBF0F3EC
:1011A00008F1010800FB136601E0642E0CDB6420EB
:1011B00096FBF0F3303302F8083096FBF0F308F1B9
:1011C000010800FB136601E00A2E06DB96FBF1F036
:1011D000303002F8080008F1010896FBF1F001FB3D
:1011E0001060303002F80800A16908F1010808EB2E
:1011F000050202EB0A00081AA0612078C00602D49A
:101200002046FFF75BF9216A08AE01EB0A00206275
:1012100004E0D4E9012116F8010B9047BAF1010A64
:10122000F7D22078C00602D52046FFF747F96E4670
:1012300009E016F8010B3E280FD0D4E901219047B0
:10124000206A401C2062B8F10108F2D22046FFF764
:101250004BF909B00320BDE8F08F206A28442062D2
:1012600003E0D4E90121302090476D1EEBD3F8E76D
:101270007266000002FCFFFF10B5436913B1AFF3C3
:10128000008001E0FFF753F9012010BD127800F152
:1012900024010A7000224A700122EDE711684FF024
:1012A000FF32E9E710B5436913B1AFF3008001E005
:1012B000FFF7D4F9012010BD128800F124018284C7
:1012C0000022C2840122EDE711684FF0FF32E9E706
:1012D00070B516460C46054600F040F8036893F8D2
:1012E0000101012806D0FF2C0FD8185D68B101203C
:1012F0002C7070BDD3F807013246214603F2071364
:1013000003442846BDE8704018474FF0FF3070BDD9
:10131000754600F0EBF8AE4605006946534620F0EE
:101320000700854618B020B5FEF7E2FFBDE8204073
:101330004FF000064FF000074FF000084FF0000B91
:1013400021F00701AC46ACE8C009ACE8C009ACE844
:10135000C009ACE8C0098D467047000010B500F028
:1013600005F8001D10BD00BFA15A000000487047DD
:10137000680400202DE9F0411F4604460326016859
:10138000072A01F4006004DB08B116A505E016A5E4
:1013900003E008B115A500E015A521F010002060BC
:1013A000A069C01EA0610FB1401EA0612046FFF7DA
:1013B00085F84FB1D4E9012138469047206A401C96
:1013C0002062C01C206206E0206AFAE7D4E901210D
:1013D00015F8010B9047761EF8D22046FFF784F8E7
:1013E000BDE8F0814E414E006E616E00494E4600F0
:1013F000696E66002DE9F047814616468AB0354889
:1014000078440DC88DE80D0032487844801C03AC48
:101410000DC884E80D0041F69B300844372190FB4D
:10142000F1F290FBF1F5A5F1800501FB12041B3CE4
:1014300002D56442012000E00020DFF898A0804639
:101440000027FA44AAF1BE0A0EE0E0070AD03246AD
:10145000684607EB470101230AEB810100F022FBFC
:101460008DE8070064107F1C002CEED1194F7F44DB
:10147000AE3F19E0E80715D007EB04100DF1180A8C
:1014800090E80E008AE80E00C068F04201D1981979
:1014900008903246012306A903A800F003FB03AB22
:1014A00083E807006D10641C002DE3D14FF00103A9
:1014B00032466946B8F1000F03A802D000F0DDFA09
:1014C00001E000F0EFFAC9E90001C9F808200AB00C
:1014D000BDE8F0878463000010B50446AFF30080D8
:1014E0002046BDE81040FEF7EEBE00000048704701
:1014F000480400204FF0013C50F8042B51F8043B05
:101500009A4221D1A2EB0C03934313EACC1317D1D7
:1015100050F8042B51F8043B9A4215D1A2EB0C036E
:10152000934313EACC130BD150F8042B51F8043B2E
:101530009A4209D1A2EB0C03934313EACC13DBD0FC
:101540004FF00000704700BFD01A01BAB1FA81F124
:1015500001F0180122FA01F0CB40C1F12001DBB209
:10156000C0B2C01A2CFA01F3D11A914311EAC31187
:10157000E6D1704701491820ABBEFEE72600020005
:1015800070475FEA400C08BF91F0000F4FEA8C23D0
:101590004FEAC12243EA51514FEA1C5018BF00F5EF
:1015A000F0404FEA300018BF41F000415FEA6C5C48
:1015B00000F02980BCF1FF3F08BF40F08040704739
:1015C000130C06BF12044FF0100C4FF0000C130E5A
:1015D00004BF12020CF1080C130F04BF12010CF12E
:1015E000040C930F04BF92000CF1020CD30F04BF44
:1015F00052000CF1010C11464FF00002A0F11F0047
:10160000A0EB0C00704711F0004F08BF704731F09D
:1016100000413FF4D5AF0B0C06BF09044FF0100C8E
:101620004FF0000C0B0E04BF09020CF1080C0B0F5D
:1016300004BF09010CF1040C8B0F04BF89000CF1ED
:10164000020CCB0F04BF49000CF1010CCCF12003BC
:10165000A0EB0C0022FA03F302FA0CF241EA0301B8
:1016600000F10100704720F07F4C80EA030023F076
:101670007F47ACEB070303F57C5300F0004003F118
:10168000FF032DE980494FEA154B09B44FEA144393
:1016900025EA0B4E24EA03480FF2042606EB132733
:1016A00049083E785FEA320203FB0667C7F5000788
:1016B00007FB06F64FEA54374FEAD64606F1020614
:1016C00007FB066CCCF1005C4FEA1C472CEA074C88
:1016D00007FB06F40CFB06F504EB15464FEA9616DD
:1016E00034BF00204FF000404FEAD13706FB07FC23
:1016F0004FEA1C4C0CFB0BF7D21B03FB0CF761EB06
:1017000007010CFB0EF7B0EB074072EB17420CFB26
:1017100008F734BFA2EB0742B2EB074261EB174177
:101720004FEA0C444FEA910706FB07FC4FEA1C4CBA
:101730000CFB0BF7B0EBC74072EB573203FB0CF717
:1017400034BFA2EBC742B2EBC74261EB57310CFB8F
:101750000EF7B0EBC70072EB57720CFB08F734BF03
:10176000A2EBC702B2EBC70261EB5771039F4FEACE
:10177000816141EA921104EBCC044FEAD1374FEA80
:10178000826206FB07FC42EA90124FEA80604FEA51
:101790001C4C0CFB0BF7D21B03FB0CF761EB070196
:1017A0000CFB0EF7B0EB074072EB17420CFB08F78F
:1017B00034BFA2EB0742B2EB074261EB17414FEA9D
:1017C0008C554FEA910704EB9C2406FB07FC4FEA7B
:1017D0001C4C0CFB0BF7B0EBC74072EB573203FB12
:1017E0000CF734BFA2EBC742B2EBC74261EB5731F3
:1017F0000CFB0EF7B0EBC70072EB57720CFB08F74F
:1018000034BFA2EBC702B2EBC70261EB577115EB15
:101810004C254FEA816141EA92114FEA82624FEA18
:10182000D13742EA901206FB07FC44F100044FEA6C
:1018300080604FEA1C4C0CFB0BF7D21B03FB0CF730
:1018400061EB07010CFB0EF7B0EB074072EB1742A0
:101850000CFB08F734BFA2EB0742B2EB074261EB87
:10186000174115EB1C154FEA813141EA92414FEACD
:10187000823242EA90424FEA80304FEA0C7644F1DD
:10188000000448EA03434EEA0B484FF0000EB2EB67
:10189000080C71EB030724BF624639464EEB0E0E6F
:1018A0004FF0000B0018524149414BEB0B0BB2EBD0
:1018B000080C71EB03077BF1000B24BF624639462D
:1018C0004EEB0E0E4FF0000B0018524149414BEB0E
:1018D0000B0BB2EB080C71EB03077BF1000B24BF81
:1018E000624639464EEB0E0E51EA020718BF46F02B
:1018F000010616EB0E7655F1000254F1000103D5F6
:10190000BDE88901BDE80088BDE88901BDE800485F
:10191000B619524141EB0101A3F1010370478080E8
:101920007F7E7D7C7B7A7978777676757473727139
:1019300071706F6E6E6D6C6C6B6A6A6968686766F1
:1019400066656464636362616160605F5F5E5E5D83
:101950005D5C5C5B5B5A5A595958585757565655F7
:1019600055555454535352525251515050504F4F59
:101970004F4E4E4D4D4D4C4C4C4B4B4B4A4A4A49A9
:1019800049494848484747474746464645454544EC
:101990004444444343434342424242414141002B79
:1019A0009C4630D477002BD01CB54FEA370703B4E0
:1019B0004FF010004FF01001BAF1000F06D0BCF14B
:1019C000000FDCBF40F0080040F008014FF00000BD
:1019D0000FBCBDE810400BF1010BBBF1010F08BFBC
:1019E0005FEA170722BF12F1010211F101014FF066
:1019F000004143F1000300F0004043EA000070475B
:101A0000F9D35708D0E746EA064613F1400F4FEAEC
:101A100016461FDD13F1200FDFBF16430A460021D3
:101A200020335B42BED0C3F1200746EA064602FAE5
:101A300007F74FEA164646EA0706C3F1200722FADF
:101A400003F201FA07F721FA03F14FF0000342EA2B
:101A50000702A7E746EA020646EA06464FEA1646A6
:101A600046EA0106BCBF46EA0646360C4FF00003C4
:101A70004FF000024FF0000194E72DE9804C9A46A8
:101A8000934670B491E8380007C831EA400C48BF6B
:101A900034EA430C03D5FFF7E6FDFFF780FFF0BC07
:101AA000BDE8008C2DE9804C9A46934670B491E8CD
:101AB000380007C810F0804F08BF13F0804F03D1E3
:101AC00000F005F8FFF76BFFF0BCBDE8008C20F0DC
:101AD0007F4780EA030023F07F4C07EB0C03A3F55C
:101AE0007C5300F00040A3F1FE0392F0000F00F0E1
:101AF000B38095F0000F00F077802DE901494FEA9F
:101B000011404FEA144621EA004800FB06FC24EA93
:101B1000064708FB06F607FB08F800FB07F718EB7B
:101B200006484CEB164C4FEA124B18EB07484FEAAD
:101B300015464CEB174022EA0B4E0BFB06FC25EA40
:101B400006470EFB06F607FB0EFE0BFB07F71EEB28
:101B5000064E4CEB164C4FF000061EEB074E4CEBBE
:101B6000174B18EB0B0840F1000018EB0E0B58EB6D
:101B7000000840F100008F1A4FF000013CBFC9433C
:101B8000661B14BFB5EB040C00213CBFC943F61B18
:101B90004FEA17444EEA8E0E27EA04454FEA1C47E7
:101BA00004FB07622CEA074C05FB07F70CFB05F664
:101BB00004FB0CFC16EB074642EB174216EB0C46F7
:101BC00042EB1C421BEB060658EB0202414146EA7F
:101BD0009E0601D5BDE80189B619524141EB0101CC
:101BE000A3F10103BDE801894FEA14454FEA11470B
:101BF00024EA054621EA074C05FB07F406FB07F734
:101C00000CFB06F105FB0CFC11EB074144EB174400
:101C10004FEA124711EB0C4144EB1C4422EA074CFB
:101C200005FB07F206FB07F70CFB06F605FB0CFCB1
:101C300016EB074642EB174216EB0C4642EB1C45EF
:101C40006A1854F1000148BF7047B619524141EB80
:101C50000101A3F10103704795F0000F37D04FEA5F
:101C600011424FEA144721EA024624EA074C02FBDC
:101C700007F106FB07F70CFB06F402FB0CFC14EB68
:101C8000074441EB17414FEA154714EB0C4441EB75
:101C90001C4125EA074C02FB07F506FB07F70CFB86
:101CA00006F602FB0CFC16EB074645EB174516EB58
:101CB0000C4645EB1C42121951F1000148BF704718
:101CC000B619524141EB0101A3F1010370474FEAFC
:101CD00014454FEA114724EA054621EA074C05FB63
:101CE00007F106FB07F70CFB06F24FF0000605FBB9
:101CF0000CFC12EB074241EB174112EB0C4251EB8B
:101D00001C4148BF7047921841EB0101A3F1010348
:101D1000704770B505466C6A206C00F05000D0B971
:101D2000206C40F4007020642068C06800F44060BB
:101D300068B9607E58B9206C20F480702064206CF3
:101D400000F4805018B9206C40F001002064204657
:101D500000F08EFB03E0A06B016B2846884770BD46
:101D600070B505466C6A206C40F040002064606CE1
:101D700040F004006064204600F007FC70BD70B5C0
:101D80000446656A284600F0FFFB70BD70B5044646
:101D900000252068806800F00300012806D1206833
:101DA000006800F0010008B1012000E0002080B3CD
:101DB0002068806800F00D00012800D100E00020BC
:101DC00050B100BF2068806840F002002168886040
:101DD00003202168086009E0206C40F010002064B6
:101DE000606C40F001006064012070BD00F0FCFFF9
:101DF00005460FE000F0F8FF401B02280AD9206CCE
:101E000040F010002064606C40F00100606401202C
:101E1000EBE705E02068806800F001000028E9D1C8
:101E20000020E2E770B5044600252068806800F0D5
:101E30000300012806D12068006800F0010008B105
:101E4000012000E0002088BB206880681849084015
:101E500008B9012000E0002048B9206C40F01000D3
:101E60002064606C40F001006064012070BD206857
:101E7000806840F001002168886000F0B5FF0546E9
:101E80000EE000F0B1FF401B022809D9206C40F0A1
:101E900010002064606C40F0010060640120E5E700
:101EA0002068006800F001000028EAD00020DDE78B
:101EB0003F00008000BFFEE710B5024800F0B0FD13
:101EC00010BD00000C020020054A0168891A142286
:101ED000B1FBF2F18900016401490839C16370471F
:101EE0000800024030B590F840500124AC40C56B6A
:101EF0006C60046863604468102C04D10468A260BC
:101F00000468E16003E00468A1600468E26030BD39
:101F1000704772B600BFFEE770B594B002460B463C
:101F20000024186800B100BF1068B0F1A04F02D1C2
:101F30004648009002E04FF0A0400090009810B991
:101F4000012014B070BD00BF92F83C00012801D1FF
:101F50000220F6E7012082F83C0000BF106880688C
:101F6000C0F38000002864D100988068C0F380002E
:101F700000285ED13649186890B392F830005D6849
:101F800045EA40308D6825F4604528438860106834
:101F9000806800F00300012806D11068006800F096
:101FA000010008B1012000E00020002846D100987F
:101FB000806800F00300012806D10098006800F056
:101FC000010008B1012000E0002088BB9D6818686E
:101FD00028438D6840F61F76B543284388602DE07E
:101FE000FFE7886820F4604088601068806800F02F
:101FF0000300012806D11068006800F0010008B154
:10200000012000E0002098B90098806800F00300EB
:10201000012806D10098006800F0010008B10120F5
:1020200000E0002020B9886840F61F75A84388604A
:1020300004E0106C40F020001064012400BF002078
:1020400082F83C0000BF20467BE700000001005002
:1020500000030050F0B595B0024600250020009026
:10206000C868012800D000E000BF00BF92F83C0023
:10207000012802D1022015B0F0BD012082F83C00F9
:1020800000BF10688068C0F38000002879D14868DC
:10209000052812D21068006B0E7906EB4606770011
:1020A0001F26BE40B0430F7907EB47077F000E683D
:1020B000BE4030431668306343E048680A2814D2B3
:1020C0001068406B0E79761F06EB460677001F26D8
:1020D000BE40B0430F797F1F07EB47077F000E68B4
:1020E000BE403043166870632BE048680F2814D256
:1020F0001068806B0E790A3E06EB460677001F26B5
:10210000BE40B0430F790A3F07EB47077F000E68D8
:10211000BE4030431668B06313E01068C06B0E79A0
:102120000F3E06EB460677001F26BE40B0430F79F0
:102130000F3F07EB47077F000E68BE40304316682D
:10214000F0631068806800F00C0008B1012000E026
:102150000020002870D108680A2813D3106880690D
:102160000E780A3E06EB46070726BE40B0430F78BE
:102170000A3F07EB47078E68BE4030431668B061E0
:1021800010E05FE1106840690E7806EB460707260D
:10219000BE40B0430F7807EB47078E68BE40304320
:1021A0001668706148691668F668C6F3C10676005D
:1021B00000FA06F40869012806D0022812D0032884
:1021C0001ED0042839D129E01068006EA34E30409B
:1021D0000E784FF0004747EA86662643304316687C
:1021E000306663E01068406E9C4E30400E784FF0D1
:1021F000004747EA8666264330431668706655E016
:102200001068806E954E30400E784FF0004747EAD8
:102210008666264330431668B06647E01068C06E95
:102220008E4E30400E784FF0004747EA86662643D0
:1022300030431668F06639E039E01068006E00F04F
:10224000F8400E78B0EB866F05D11068006E20F074
:102250000040166830661068406E00F0F8400E7856
:10226000B0EB866F05D11068406E20F00040166814
:1022700070661068806E00F0F8400E78B0EB866FE4
:1022800005D11068806E20F000401668B0661068B6
:10229000C06E00F0F8400E78B0EB866F05D1106884
:1022A000C06E20F000401668F06600BF00BF1068E6
:1022B000806800F00300012806D11068006800F073
:1022C000010008B1012000E0002000287ED1C8688C
:1022D00001280AD01068D0F8B0000F780126BE405F
:1022E000B0431668C6F8B00032E01068D0F8B0000D
:1022F0000F780126BE4030431668C6F8B000086863
:102300000A2813D3106886690878093800EB40075B
:102310000720B84026EA00000E78093E06EB460684
:102320008F68B74038431668B06111E010684069A3
:102330000E78761C06EB46070726BE40B0430F78A2
:102340007F1C07EB47078E68BE40304316687061FC
:10235000434B0868102803D1986800F4000070B15E
:102360000868112803D1986800F0807038B10868B7
:1023700012286CD1986800F48000002867D110689A
:10238000B0F1A04F02D13748019002E04FF0A040D9
:1023900001901068806800F00300012806D11068E1
:1023A000006800F0010008B1012000E0002070BBCF
:1023B000019880B10198806800F00300012808D1DD
:1023C0000198006800F0010018B100E033E001203E
:1023D00000E00020D8B90868102819D11068B0F1C1
:1023E000A04F15D1986840F4000098601E4800681E
:1023F0001E4EB0FBF6F000EB80004000009002E0C3
:102400000098401E009000980028F9D11FE013E0CA
:102410000868112808D11068B0F1A04F04D198685D
:1024200040F08070986012E0086812280FD1986818
:1024300040F4800098600AE0106C40F020001064C6
:10244000012504E0106C40F020001064012500BF5D
:10245000002082F83C0000BF28460CE600F0FF8315
:1024600000030050000100505C00002040420F00BB
:102470002DE9F04107463A4887426FD1002447E0F2
:1024800000250BE005EB4500364901EB800030F8F4
:102490001400354921F81500681C85B20A2DF1DBBE
:1024A0000A21314804F001FC0225002605E02E48EF
:1024B00030F815000644681C85B2082DF7DB00EEE5
:1024C000106AB8EE400AF1EE080A80EE201ABCEE5F
:1024D000C10A10EE100A254921F81400244800EB27
:1024E000C40090ED010A224800EBC40090ED001AF0
:1024F000084630F8140000EE900AF8EE600A01EE8B
:10250000200A1C4800EB840080ED000A601CC4B265
:10251000062CB5DB1748D0ED020AB0EE600A16486B
:10252000D0ED000A154803F0C1FF6421144800688B
:10253000C0F8A410114890ED080ADFED120A30EE41
:10254000C00ABCEEC00A10EE100A0D490968C1F8B5
:102550009C003C220349024800F0AEF9BDE8F0813E
:10256000BC010020C4000020A80100203C01002084
:102570000000002048010020300000206001002001
:10258000500200200000614670477047F0B595B0DA
:102590000446002600250020009014B9012015B043
:1025A000F0BD206918B12020005D00B100BF206C93
:1025B00000F01000002853D1206C98BB002060640C
:1025C0000021E164A06484F83C00204600F008F992
:1025D0002068806800F0805020BB2046FFF7D6FBC3
:1025E0000646206C00F01000E0B9DEB9206C20F443
:1025F000885040F0020020642068806820F040503D
:10260000216888602068806840F080502168886078
:102610006E4800686E49B0FBF1F000EB80004000AE
:10262000009003E005E00098401E0090009800280C
:10263000F9D12068806800F0805030B1206880684F
:1026400000F00050B0F1005F0AD1206C20F00200D1
:1026500040F010002064606C40F0010060640126CE
:10266000206C00F01000002873D1002EFCD12068EF
:102670008068C0F380000028F6D1206C20F48070C0
:1026800040F002002064534F2068B0F1A04F02D107
:102690005148019002E04FF0A0400190206880680E
:1026A00000F00300012806D12068006800F0010056
:1026B00008B1012000E00020B0B9019870B1019884
:1026C000806800F00300012806D10198006800F03E
:1026D000010008B1012000E0002028B9B86820F40A
:1026E000403061680843B860606B012802D04FF445
:1026F000805100E00021607E41EA4030E1680843FB
:10270000A168084305432020005D012813D1607EA5
:1027100038B9A08C401E4FF4803141EA4040054357
:1027200009E0206C20F0020040F020002064606C82
:1027300040F001006064A06A012803D0D4E90A01D6
:10274000084305432068806800F00C0010B10120A8
:1027500001E032E0002068B92068C06844F202015C
:1027600088432168C860207E810394F8300041EAE4
:10277000400005432068C068184908402843216884
:10278000C8602069012809D12068006B20F00F0083
:10279000E169491E08432168086305E02068006B71
:1027A00020F00F002168086300206064206C20F096
:1027B000020040F00100206406E0206C20F00200DE
:1027C00040F01000206401263046E8E65C0000205E
:1027D00040420F00000300500001005007C0F0FF0E
:1027E00010B586B00446142101A8FDF73DFE20680F
:1027F000B0F1A04F56D100BF2B48406940F0805047
:10280000294948610846406900F08050009000BFA7
:1028100000BF00BF0846406940F4003048610846E8
:10282000406900F40030009000BF00BF00BF0846C0
:10283000406940F4802048610846406900F48020E7
:10284000009000BF00BF0F200190032002900020E5
:10285000039001A94FF0904000F0E2F903200190AD
:1028600002900020039001A9104800F0D9F9104807
:10287000104908600020486000210E4881608021D6
:10288000C160490001618900416100218161C1612C
:1028900000F039F908B1FFF73CFB00BF0548A06321
:1028A000446200BF06B010BD0010024000040048A2
:1028B000080002400C0200202DE9F04104460D46BC
:1028C0001646002720688068C0F3800000287DD16C
:1028D00000BF94F83C00012802D10220BDE8F0813D
:1028E000012084F83C0000BF4848006800F01F0049
:1028F00000286CD12046FFF795FA0746002F76D1C5
:10290000206C40F60161884340F4807020643F48A9
:10291000006800F01F0018B12068B0F1A04F0FD17F
:10292000206C20F4801020642068C06800F00070E3
:1029300000B3206C20F4005040F48050206419E073
:10294000206C40F4801020642068B0F1A04F03D0C8
:102950002F492068884205D14FF0A040C06800F0A0
:10296000007000E0002028B1206C20F4005040F4FA
:1029700080502064206C00F48050B0F5805F04D15A
:10298000606C20F00600606401E00020606400BF1D
:10299000002084F83C0000BF1E48A16B88621E48DE
:1029A000A16BC8621D48A16B08631C2021680860E8
:1029B0002068406840F01000216848602068C068C6
:1029C00040F001002168C860226802E01AE013E0CC
:1029D0000DE002F1400133462A46A06B00F0BEF83C
:1029E0002068806840F00400216888600BE000BF28
:1029F000002084F83C0006E0012700BF002084F896
:102A00003C0000E00227384668E700000803005059
:102A100000010050131D00087F1D0008611D000803
:102A200070B50446E06B05682068066894F84010AD
:102A3000042088402840D0B106F00400B8B12068D6
:102A4000006800F0200028B92068006820F0040029
:102A50002168086094F8401004208840E16B4860C9
:102A6000E06A00284ED02046E16A88474AE094F8A0
:102A7000401002208840284008B306F00200F0B160
:102A80002068006800F0200040B92068006820F04D
:102A90000A0021680860012084F8210094F84010A1
:102AA00002208840E16B486000BF002084F82000CD
:102AB00000BFA06A30B32046A16A884722E094F89C
:102AC0004010082088402840E0B106F00800C8B156
:102AD0002068006820F00E002168086094F840101B
:102AE00001208840E16B48600120A06384F8210048
:102AF00000BF002084F8200000BF206B10B12046EA
:102B0000216B884770BD70B5044600250CB90120C3
:102B100070BD022084F821002068056843F6F0703B
:102B20008543D4E901010843E1680843216908436A
:102B300061690843A1690843E169084305432068C6
:102B400005602046FFF7C0F90020A063012084F84B
:102B50002100002084F8200000BFD9E72DE9F041D2
:102B600004460D4616461F464FF0000800BF94F875
:102B70002000012802D10220BDE8F081012084F864
:102B8000200000BF94F8210001282CD1022084F8F5
:102B900021000020A0632068006820F00100216867
:102BA00008603B46324629462046FFF79BF9E06A1B
:102BB00030B12068006840F00E00216808600BE02A
:102BC0002068006840F00A002168086020680068FA
:102BD00020F00400216808602068006840F00100CF
:102BE0002168086006E000BF002084F8200000BFD4
:102BF0004FF002084046BFE770B5044600F0F4F815
:102C000006462546681C10B104480078054400BFFC
:102C100000F0EAF8801BA842FAD370BD4000002003
:102C200078B503460022C6E0012696400D6805EA05
:102C30000604002C72D04D68012D08D04D68022D7D
:102C400005D04D68112D02D04D68122D13D1986812
:102C500056000325B540A8435600CD68B54028432B
:102C60009860586801259540A8430D79C5F3001573
:102C7000954028435860D86856000325B540A843BE
:102C800056008D68B5402843D8604D68022D02D0AB
:102C90004D68122D13D1D60803F1200555F82600F2
:102CA0005507EE0E0F25B540A8435607F60E0D69E1
:102CB000B5402843D60803F1200545F826001868DA
:102CC00056000325B540A8430D7905F003055600CD
:102CD000B540284318604D6805F08055B5F1805F18
:102CE00068D100BF374DAD6945F00105354EB5617E
:102CF0003546AD6905F00105009500BF00BF4FEAFC
:102D0000B635960855F8260095072E0F0F25B540C5
:102D1000A843B3F1904F02D1002510E04AE02A4DBC
:102D2000AB4201D101250AE0284DAB4201D1022579
:102D300005E0274DAB4201D1032500E005259607AC
:102D4000360FB5402843234D960845F82600224DFE
:102D50002868A0434D6805F48035B5F5803F00D163
:102D600020431D4D28602D1D2868A0434D6805F4A3
:102D70000035B5F5003F00D12043174D2D1D2860CB
:102D80002D1D2868A0434D6805F48015B5F5801FFA
:102D900000D12043104D083528602D1D2868A04320
:102DA0004D6805F40015B5F5001F00D120430A4D0C
:102DB0000C352860521C0D68D540002D7FF434AFCF
:102DC00078BD0000001002400004004800080048E0
:102DD000000C004808000140000401400AB1816174
:102DE00000E0816270470000014800687047000001
:102DF0003800002030B503460C4693F8C100022885
:102E000000D130BD00BF93F8C000012801D10220DD
:102E1000F7E7012083F8C00000BF022083F8C1005B
:102E20001868D0F88013012C06D0022C0FD0042C87
:102E30001AD0082C32D124E021F4E021106800F4EB
:102E4000E020014355681868C0F8BC532FE021F416
:102E500060114FF46015106805EAC0000143556821
:102E60001868C0F8C05322E021F0E0714FF0E0751F
:102E7000106805EA8010014355681868C0F8C4530B
:102E800015E021F060614FF06065106805EA4020B0
:102E9000014355681868C0F8C85308E0072083F854
:102EA000C10000BF002083F8C00000BF00BF00BF0A
:102EB00093F8C100072801D10120A2E71868C0F8E3
:102EC0008013012083F8C10000BF002083F8C000F8
:102ED00000BF00BF95E77047704770477047704765
:102EE0007047704770477047024600BF92F8C000B5
:102EF000012801D102207047012082F8C00000BFE4
:102F0000022082F8C100481C80B91068D0F8CC03B8
:102F100020F002031068C0F8CC331068D0F8CC035E
:102F200040F001031068C0F8CC3318E01068D0F806
:102F3000CC0340F002031068C0F8CC331068D0F81E
:102F4000CC0320F00C0008431368C3F8CC031068CE
:102F5000D0F8CC0340F001031068C0F8CC33012056
:102F600082F8C1000020C6E730B503460C4693F84E
:102F7000C100022800D130BD00BF93F8C000012875
:102F800001D10220F7E7012083F8C00000BF022032
:102F900083F8C100108800F4E0519088C0F3080065
:102FA0000143108900F400700143108A00F480404E
:102FB0000143908900F400400143908A134D05EAD3
:102FC00000400143906900F000700143106A00F076
:102FD00080400143D06900F0004001431868803010
:102FE00000EBC410806B0A4D284008431D688035F3
:102FF00005EBC415A863012083F8C10000BF0020C1
:1030000083F8C00000BF00BFB5E700000000FF016B
:103010000020003C7047704770477047704770470A
:1030200070B505460C46FF2C03D1284602F040F847
:1030300009E0052C03D1284602F0F1F803E021460F
:10304000284602F00EFA70BDF8B504460CB901200E
:10305000F8BD0220C43404F8030C00202060606036
:10306000A060E06020616061C43C207A00F0010053
:1030700008B33549206888420DD100BF33488069C4
:1030800040F00050314988610846806900F00050E6
:10309000009000BF00BF2068066826F44046208AE2
:1030A00000F44040064326F44056A08A00F4405005
:1030B000064320680660204600F04AF8207A00F0B7
:1030C000020048B12068066826F44076A08900F422
:1030D0004070064320680660012084F8C10000BFEC
:1030E000002084F8C00000BF002529E00021C5EBC6
:1030F000C50204F1180040F82210C5EBC50200EB30
:1031000082004160C5EBC50204F1180000EB8200AB
:103110008160C5EBC50204F1180000EB8200C160BC
:10312000C5EBC50204F1180000EB82000161C5EB9C
:10313000C50204F1180000EB82008161681CC5B271
:10314000052DD3D9002083E7007401400010024010
:1031500038B504460D492068884215D100BF0C4897
:10316000806940F000500A4988610846806900F093
:103170000050009000BF00BF00221146432000F025
:10318000FDFC432000F0EAFC38BD00000074014063
:103190000010024010B586B00446142101A8FDF7C6
:1031A00063F920492068884239D100BF1E48406930
:1031B00040F480201C4948610846406900F48020A2
:1031C000009000BF00BF00BF0846406940F40030D7
:1031D00048610846406900F40030009000BF00BF1D
:1031E0004FF47040019002200290002003900320D1
:1031F00004900D20059001A90C48FFF711FD4FF434
:10320000706001900220029000200390032004903F
:103210000D20059001A94FF09040FFF701FD06B089
:1032200010BD00000074014000100240000400487E
:10323000704770477047704770B504460D46FFF7FA
:10324000D3FD06460CE0681C50B1FFF7CDFD801B96
:10325000A84200D825B9072084F8C100032070BD1A
:103260002068D0F88803C0F300400028EBD001208C
:1032700084F8C10000BF002084F8C00000BF00BF78
:10328000EDE7704770477047704770B504460D46CC
:10329000164694F8C100022800D170BD022084F8BF
:1032A000C100052D04D13146204601F076FF04E02F
:1032B00032462946204602F04BFA012084F8C1002C
:1032C0000020EAE730B5044694F8C100022800D196
:1032D00030BD00BF94F8C000012801D10220F7E7FB
:1032E000012084F8C00000BF022084F8C100052935
:1032F00028D1012A06D0022A08D0042A0AD0082A96
:1033000010D10BE018682568E86114E0186825689A
:10331000686210E018682568A8620CE018682568E3
:10332000E86208E0072084F8C10000BF002084F8AC
:10333000C00000BF00BF00BF94F8C10007287DD1C6
:103340000120C5E7012A06D0022A0BD0042A4CD05E
:10335000082A74D150E01D682068803000EBC1104D
:10336000C5619AE01D682068803000EBC11045629D
:10337000586868B32068803000EBC110006820F402
:1033800040552068803000EBC11005602068803017
:1033900000EBC11000685D6828432568803505EBA7
:1033A000C11528605868B0F5005F06D19D68206897
:1033B000803000EBC110C56116E05868B0F5405F81
:1033C00012D19D682068803000EBC11085620BE04F
:1033D0002068803000EBC110006820F44050256860
:1033E000803505EBC115286057E01D6820688030E6
:1033F00000EBC110856250E01D682068803000EB52
:10340000C110C562586888B32068803000EBC110D5
:10341000006820F440452068803000EBC110056052
:103420002068803000EBC11000685D6840EA8505C7
:103430002068803000EBC110056001E034E023E03B
:103440005868B0F5005F06D19D682068803000EBB9
:10345000C110C56117E05868B0F5405F13D19D6891
:103460002068803000EBC11085620CE0FFE7206827
:10347000803000EBC110006820F4404025688035A2
:1034800005EBC115286008E0072084F8C10000BFE3
:10349000002084F8C00000BF00BF00BF94F8C10046
:1034A000072801D1012013E7012084F8C10000BFE3
:1034B000002084F8C00000BF00BF09E7024600BF3B
:1034C00092F8C000012801D102207047012082F843
:1034D000C00000BF022082F8C100106800680843E5
:1034E00013681860012082F8C10000BF002082F834
:1034F000C00000BF00BFE8E730B502460B4600BF82
:1035000092F8C000012801D1022030BD012082F8CC
:10351000C00000BF022082F8C1001068D0F89003FC
:10352000546820431468C4F8900303F4803030B129
:103530001068C468D2F8AC0004431068C46000216D
:1035400018E0154850F82100184088B11068803004
:1035500000EBC110C068C1EBC10502F1180404EB17
:103560008504A46820431468803404EBC114E0602F
:10357000481CC1B20529E4D31068006818431468D8
:103580002060012082F8C10000BF002082F8C00046
:1035900000BF00BFB9E70000440000202DE9F04162
:1035A00004460D4616461F4694F8C100022801D174
:1035B000BDE8F08100BF94F8C000012801D10220CD
:1035C000F6E7012084F8C00000BF022084F8C100A3
:1035D0003B4632462946204601F0CAFE012084F8C7
:1035E000C10000BF002084F8C00000BF00BFDFE7BB
:1035F000024600BF92F8C000012801D102207047A6
:10360000012082F8C00000BF022082F8C1001068CB
:10361000D0F8940308431368C3F89403012082F898
:10362000C10000BF002082F8C00000BF00BFE6E775
:1036300070B504460D46164694F8C100022800D124
:1036400070BD00BF94F8C000012801D10220F7E747
:10365000012084F8C00000BF022084F8C100052DBD
:1036600004D13146204601F0ACFD04E03246294643
:10367000204602F08DF8C5EBC50204F1180000EBFE
:10368000820031688160C5EBC50204F1180000EBCF
:1036900082007168C160C5EBC50204F1180000EB3F
:1036A0008200B1680161C5EBC50204F1180000EBAE
:1036B0008200F1684161C5EBC50204F1180000EB1E
:1036C0008200316981612946204601F0B1FC012068
:1036D00084F8C10000BF002084F8C00000BF00BF14
:1036E000AEE7024692F8410020282DD100BF92F8A3
:1036F0004000012801D102207047012082F84000DB
:1037000000BF242082F841001068006820F001000A
:10371000136818601068006820F4805013681860FF
:10372000106800680843136818601068006840F06B
:10373000010013681860202082F8410000BF0020BB
:1037400082F8400000BFD7E70220D5E710B5024657
:103750000B4692F8410020282AD100BF92F8400081
:10376000012801D1022010BD012082F8400000BFD5
:10377000242082F841001068006820F001001468DD
:1037800020601068016821F4706141EA032110682B
:1037900001601068006840F001001468206020207B
:1037A00082F8410000BF002082F8400000BFDAE745
:1037B0000220D8E710B504460CB9012010BD94F8DA
:1037C000410028B9002084F84000204600F004F9A8
:1037D000242084F841002068006820F0010021685E
:1037E0000860606820F07060216808612068806867
:1037F00020F4004021688860E068012805D1A068B5
:1038000040F400402168886004E0A06840F404406F
:1038100021688860E068022802D18002216848603F
:103820002068406813490843216848602068C068E0
:1038300020F400402168C860D4E904010843A1696C
:1038400040EA01202168C860D4E9070108432168E3
:1038500008602068006840F00100216808600020CE
:103860006064202084F841000020206384F8420036
:1038700000BFA3E7008000022DE9F8430446894613
:1038800016461F46DDF8208094F84100202871D1AB
:1038900000BF94F84000012802D10220BDE8F8835F
:1038A000012084F8400000BFFFF79EFA0546192367
:1038B0000122D1032046009502F0D8F808B101207A
:1038C000ECE7212084F84100102084F84200002019
:1038D0006064666267856063608DFF280BD9FF2096
:1038E00020853B48009094F82820C3024946204692
:1038F00002F0A2F80AE0608D20853548009094F827
:10390000282003034946204602F096F83FE02A4665
:103910004146204602F004F908B10120BEE7606A82
:10392000007821688862606A401C6062608D401E79
:103930006085208D401E2085608D40B3208D30BB7A
:103940004346002280212046009502F08FF808B1FE
:103950000120A3E7608DFF280DD9FF2020850020DE
:10396000009094F828204FF080734946204602F0DA
:1039700063F80CE02AE0608D20850020009094F828
:1039800028204FF000734946204602F055F8608D1C
:103990000028BCD12A464146204602F096F808B1DC
:1039A00001207BE720202168C86120684068094920
:1039B000084021684860202084F84100002084F8F5
:1039C000420000BF84F8400000BF67E7022065E7BF
:1039D0000020008000E800FE10B586B004461421E7
:1039E00001A8FCF741FD27492068884247D100BF64
:1039F0002548406940F40030234948610846406941
:103A000000F40030009000BF00BF00BF08464069CE
:103A100040F4802048610846406900F4802000900E
:103A200000BF00BF4FF4004001901220029001201F
:103A30000390032004900420059001A94FF09040CA
:103A4000FFF7EEF84FF40070019012200290012071
:103A50000390032004900420059001A90B48FFF770
:103A6000DFF800BF0848C06940F400100649C8618B
:103A70000846C06900F40010009000BF00BF06B007
:103A800010BD000000540040001002400004004837
:103A900003480068034909780844014908607047F1
:103AA000380000204000002010B50848006840F0B1
:103AB000100006490860032000F09EF8002000F086
:103AC00007F800F02BF8002010BD00000020024095
:103AD00070B504460E4800784FF47A71B1FBF0F0EF
:103AE0000C490968B1FBF0F5284601F089F808B1E6
:103AF000012070BD102C07D200222146501E00F07C
:103B00003DF80548046001E00120F2E70020F0E7FD
:103B1000400000205C0000203C00002008B500BFF1
:103B20000D48806940F001000B49886108468069B2
:103B300000F00100009000BF00BF00BF0846C06950
:103B400040F08050C8610846C06900F08050009085
:103B500000BF00BF08BD000000100240014608463B
:103B6000002809DB00F01F0301229A4043099B0053
:103B700003F1E023C3F8002100BF70472DE9F05F97
:103B800080460D461646002703F06CF80746394676
:103B90002A46334601F00700C0F1070ABAF1040FC4
:103BA00002D94FF0040A01E0C0F1070AD14600F142
:103BB000040ABAF1070F02D24FF0000A01E0A0F1A7
:103BC000030AD4464FF0010A0AFA09FAAAF1010AD7
:103BD0000AEA020A0AFA0CFA4FF0010B0BFA0CFB84
:103BE000ABF1010B0BEA030B4AEA0B0421464046FA
:103BF00003F040F8BDE8F09F00BF00F00702064B5D
:103C000019684FF6FF031940044B0B4343EA0221A6
:103C1000014B196000BF70470CED00E00000FA0591
:103C2000F8B50446002600250027206800F48030FF
:103C3000B0F5803F73D17A48C06900F0805070B908
:103C400000BF7748C06940F080507549C861084698
:103C5000C06900F08050009000BF00BF012771488C
:103C6000006800F48070B0B96E48006840F480705D
:103C70006C490860FFF7B8F8064606E0FFF7B4F8AD
:103C8000801B642801D90320F8BD6648006800F451
:103C900080700028F2D06248006A00F44075002D60
:103CA0006BD0A08800F44070A84266D05C48006ADF
:103CB00020F440750121080490FAA0F0B0FA80F0D9
:103CC000594A02EB8000C0F800140020090491FA60
:103CD000A1F1B1FA81F102EB8101C1F80004504871
:103CE000056205F00100B8B3FFF77EF8064608E06C
:103CF000FFF77AF8801B41F28831884201D903200E
:103D0000C2E74020022191FAA1F1B1FA81F1084302
:103D10000121B1EB601F03D1414800681FE03BE087
:103D20004020022191FAA1F1B1FA81F10843022168
:103D3000B1EB601F02D13A48006A10E04020022136
:103D400091FAA1F1B1FA81F108430421B1EB601FAE
:103D500003D13348406802E00FE03148406A402117
:103D6000022292FAA2F2B2FA82F2114301F01F0289
:103D70000121914008400028BAD02948006A20F467
:103D800040706168084326490862012F04D1084643
:103D9000C06920F08050C861207800F0010038B17F
:103DA0001F48006B20F00300A16808431C4908630A
:103DB000207800F02000202807D11948006B20F05F
:103DC0001000E168084316490863207800F080007D
:103DD000802807D11248C06A20F4F870216908438E
:103DE0000F49C862208800F48050B0F5805F07D189
:103DF0000B48006B20F48070616908430849086330
:103E0000208800F48040B0F5804F07D10448006B53
:103E100020F48050A169084301490863002033E77A
:103E200000100240007000400000424270B504469D
:103E30000D4600260CB9012070BDA248006800F0B4
:103E40000700A8420ED29F48006820F007002843D0
:103E50009C4908600846006800F00700A84201D0AD
:103E60000120E9E7207800F00200022807D19648F7
:103E7000406820F0F000A16808439349486020782A
:103E800000F0010000287CD0606801283BD1202090
:103E9000010391FAA1F1B1FA81F108430121B1EBDB
:103EA000601F02D1884800681DE02020010391FABC
:103EB000A1F1B1FA81F108430221B1EB601F02D1F7
:103EC0008148006A0FE02020010391FAA1F1B1FAC4
:103ED00081F108430421B1EB601F02D17A484068A8
:103EE00001E07948406A20210A0392FAA2F2B2FA6C
:103EF00082F2114301F01F02012191400840002885
:103F00007CD1012098E7606802283BD12020010580
:103F100091FAA1F1B1FA81F108430121B1EB601FDF
:103F200002D1694800681DE02020010591FAA1F145
:103F3000B1FA81F108430221B1EB601F02D162485E
:103F4000006A0FE02020010591FAA1F1B1FA81F198
:103F500008430421B1EB601F02D15B48406801E0D7
:103F60005948406A20210A0592FAA2F2B2FA82F276
:103F7000114301F01F02012191400840E8BB0120DC
:103F80005AE758E02020022191FAA1F1B1FA81F11B
:103F900008430121B1EB601F02D14B4800681DE0CE
:103FA0002020022191FAA1F1B1FA81F10843022106
:103FB000B1EB601F02D14448006A0FE020200221CB
:103FC00091FAA1F1B1FA81F108430421B1EB601F2C
:103FD00002D13D48406801E03B48406A202102226E
:103FE00092FAA2F2B2FA82F2114301F01F02012109
:103FF0009140084008B901201EE7FFE732484068B9
:1040000020F00300616808432F494860FEF7ECFE8A
:10401000064608E0FEF7E8FE801B41F28831884240
:1040200001D9032008E72848406800F00C006168C7
:10403000B0EB810FEED12348006800F00700A842E2
:104040000ED92048006820F0070028431D49086069
:104050000846006800F00700A84201D00120EBE606
:10406000207800F00400042807D11748406820F4A5
:10407000E060E168084314494860207800F00800D7
:10408000082808D11048406820F46050216940EAAF
:10409000C1000D49486000F051F80B49496801F032
:1040A000F001F02292FAA2F2B2FA82F2D140074A6B
:1040B000515CC8400649086006480068FFF708FDE3
:1040C0000020B9E600200240001002408C76000873
:1040D0005C0000203C0000200148006870470000A0
:1040E0005C00002000B5FFF7F7FF0749496801F4BD
:1040F000E0614FF4E06292FAA2F2B2FA82F2D140A9
:10410000024A515CC84000BD001002409C76000885
:1041100000B5FFF7E1FF0749496801F460514FF42A
:10412000605292FAA2F2B2FA82F2D140024A515C93
:10413000C84000BD001002409C7600082DE9F04107
:104140000024002500270026A0461F48446804F0EC
:104150000C0078B3042802D008282CD102E0DFF844
:104160006C802CE004F470104FF4701191FAA1F1FE
:10417000B1FA81F1C84016490E5C1348C06A00F0DC
:104180000F000F2191FAA1F1B1FA81F1C840114954
:104190000D5C04F4803040B12A4600230B481946D8
:1041A000FCF7B6F8A0FB067102E00B48A0FB067115
:1041B000B84604E000E000BFDFF8108000BF00BF99
:1041C0004046BDE8F08100000010024000127A0075
:1041D0006C7600087C76000800093D00F8B50446BE
:1041E0000CB90120F8BD207800F0010000287BD038
:1041F000FA48406800F00C0004280CD0F7484068EA
:1042000000F00C00082845D1F448406800F48030E4
:10421000B0F5803F3ED12020010391FAA1F1B1FA1F
:1042200081F108430121B1EB601F02D1EB48006826
:104230001DE02020010391FAA1F1B1FA81F10843B8
:104240000221B1EB601F02D1E448006A0FE0202098
:10425000010391FAA1F1B1FA81F108430421B1EB14
:10426000601F02D1DD48406801E0DC48406A20213F
:104270000A0392FAA2F2B2FA82F2114301F01F028B
:104280000121914008400028B1D0606800282BD15E
:104290000120A7E700BF6068B0F5803F06D1CF4896
:1042A000006840F48030CD49086029E0606858B962
:1042B000CA48006820F48030C84908600846006891
:1042C00020F4802008601BE06068B0F5A02F0CD1BE
:1042D000C248006840F48020C04908600846006871
:1042E00040F4803008600BE0A1E0BC48006820F496
:1042F0008030BA4908600846006820F480200860D1
:1043000000BFB648C06A20F00F00A1680843B34957
:10431000C8626068A0B3FEF767FD054606E0FEF7D9
:1043200063FD401B642801D903205BE720200103C3
:1043300091FAA1F1B1FA81F108430121B1EB601FBB
:1043400002D1A64800681EE02020010391FAA1F1E5
:10435000B1FA81F108430221B1EB601F02D19F48FD
:10436000006A10E02020010391FAA1F1B1FA81F175
:1043700008430421B1EB601F03D19848406802E074
:1043800010E09648406A20210A0392FAA2F2B2FA9B
:1043900082F2114301F01F020121914008400028E0
:1043A000BDD044E0FEF720FD054606E0FEF71CFD0B
:1043B000401B642801D9032014E72020010391FA4F
:1043C000A1F1B1FA81F108430121B1EB601F02D1E3
:1043D000824800681DE02020010391FAA1F1B1FAA2
:1043E00081F108430221B1EB601F02D17B48006AD2
:1043F0000FE02020010391FAA1F1B1FA81F1084305
:104400000421B1EB601F02D17448406801E0734899
:10441000406A20210A0392FAA2F2B2FA82F2114310
:1044200001F01F020121914008400028BED12078F0
:1044300000F0020002285CD16848406800F00C00DF
:1044400050B16648406800F00C00082852D163481B
:10445000406800F48030E8BB2020022191FAA1F1ED
:10446000B1FA81F108430121B1EB601F02D15B4831
:1044700000681DE02020022191FAA1F1B1FA81F13A
:1044800008430221B1EB601F02D15448006A0FE0DB
:104490002020022191FAA1F1B1FA81F1084304210F
:1044A000B1EB601F02D14D48406801E04B48406AC3
:1044B0002021022292FAA2F2B2FA82F2114301F012
:1044C0001F0201219140084028B12069012802D033
:1044D000012087E60EE04148006820F0F800F8224D
:1044E00092FAA2F2B2FA82F26169914008433B4922
:1044F0000860B1E0206970B3012191FAA1F0B0FA2F
:1045000080F0374A42F82010FEF76EFC054606E0C0
:10451000FEF76AFC401B022801D9032062E6202036
:10452000022191FAA1F1B1FA81F108430121B1EB25
:10453000601F02D1294800681EE02020022191FA64
:10454000A1F1B1FA81F108430221B1EB601F03D15F
:104550002248006A10E02CE02020022191FAA1F10B
:10456000B1FA81F108430421B1EB601F02D11B486D
:10457000406801E01948406A2021022292FAA2F222
:10458000B2FA82F2114301F01F020121914008406A
:104590000028BDD01148006820F0F800F82292FAF7
:1045A000A2F2B2FA82F26169914008430B490860B5
:1045B00052E00020012191FAA1F1B1FA81F1084AFB
:1045C00042F82100FEF710FC05460BE0FEF70CFC5C
:1045D000401B022806D9032004E600000010024018
:1045E000000042422020022191FAA1F1B1FA81F1AA
:1045F00008430121B1EB601F02D1FB4800681DE0B8
:104600002020022191FAA1F1B1FA81F1084302219F
:10461000B1EB601F02D1F448006A0FE020200221B4
:1046200091FAA1F1B1FA81F108430421B1EB601FC5
:1046300002D1ED48406801E0EB48406A20210222A7
:1046400092FAA2F2B2FA82F2114301F01F020121A2
:10465000914008400028B9D1207800F008000828CF
:1046600051D1A06980B3012191FAA1F0B0FA80F094
:10467000DE4A02EB8000C0F88014FEF7B5FB054669
:1046800006E0FEF7B1FB401B022801D90320A9E593
:104690006020022191FAA1F1B1FA81F108430121D0
:1046A000B1EB601F02D1D04800681EE060200221FB
:1046B00091FAA1F1B1FA81F108430221B1EB601F37
:1046C00003D1C948006A10E01EE06020022191FA7F
:1046D000A1F1B1FA81F108430421B1EB601F02D1CD
:1046E000C148406801E0C048406A6021022292FA55
:1046F000A2F2B2FA82F2114301F01F0201219140AD
:1047000008400028BDD04FE00020012191FAA1F11E
:10471000B1FA81F1B54A02EB8101C1F88004FEF7DC
:1047200063FB054606E0FEF75FFB401B022801D94C
:10473000032057E56020022191FAA1F1B1FA81F13D
:1047400008430121B1EB601F02D1A74800681DE0BA
:104750006020022191FAA1F1B1FA81F1084302210E
:10476000B1EB601F02D1A048006A0FE06020022177
:1047700091FAA1F1B1FA81F108430421B1EB601F74
:1047800002D19948406801E09748406A60210222BE
:1047900092FAA2F2B2FA82F2114301F01F02012151
:1047A000914008400028BED1207800F00400042881
:1047B00073D100278C48C06900F0805070B900BFE9
:1047C0008948C06940F080508749C8610846C0697F
:1047D00000F08050009000BF00BF012784480068AF
:1047E00000F48070B0B98248006840F4807080495D
:1047F0000860FEF7F9FA054606E0FEF7F5FA401BF9
:10480000642801D90320EDE47948006800F4807041
:104810000028F2D000BFE068012806D17248006A83
:1048200040F001007049086227E0E06858B96E481E
:10483000006A20F001006C4908620846006A20F016
:104840000400086219E0E06805280BD16648006A98
:1048500040F00400644908620846006A40F0010024
:1048600008620AE06048006A20F001005E490862C0
:104870000846006A20F00400086200BFE068B8B390
:10488000FEF7B2FA054609E0FEF7AEFA401B41F228
:104890008831884202D90320A4E48BE04020022121
:1048A00091FAA1F1B1FA81F108430121B1EB601F46
:1048B00002D14D4800681EE04020022191FAA1F18A
:1048C000B1FA81F108430221B1EB601F02D14648E1
:1048D000006A10E04020022191FAA1F1B1FA81F1C1
:1048E00008430421B1EB601F03D13F48406802E058
:1048F00010E03D48406A4021022292FAA2F2B2FA48
:1049000082F2114301F01F0201219140084000286A
:10491000BAD046E0FEF768FA054608E0FEF764FA0A
:10492000401B41F28831884201D903205AE44020DB
:10493000022191FAA1F1B1FA81F108430121B1EB11
:10494000601F02D1284800681DE04020022191FA32
:10495000A1F1B1FA81F108430221B1EB601F02D14C
:104960002148006A0FE04020022191FAA1F1B1FA3A
:1049700081F108430421B1EB601F02D11A4840685D
:1049800001E01948406A4021022292FAA2F2B2FAEA
:1049900082F2114301F01F020121914008400028DA
:1049A000BCD1012F05D11048C06920F080500E49BC
:1049B000C86100BFE069002874D00B48406800F06F
:1049C0000C0008286FD0E06902286DD100204FF05C
:1049D000807191FAA1F1B1FA81F1044A42F8210003
:1049E000FEF702FA05460CE00010024000004242C9
:1049F00000700040FEF7F8F9401B022801D903209F
:104A000047E42020010591FAA1F1B1FA81F10843B0
:104A10000121B1EB601F02D1774800681DE0202022
:104A2000010591FAA1F1B1FA81F108430221B1EB3C
:104A3000601F02D17048006A0FE02020010591FA42
:104A4000A1F1B1FA81F108430421B1EB601F02D159
:104A50006948406801E06848406A20210A0592FAE6
:104A6000A2F2B2FA82F2114301F01F020121914039
:104A700008400028BED1D4E9081008435E494968BF
:104A800021F4741108435C4948600120010691FA41
:104A9000A1F1B1FA81F1594A42F82100FEF7A4F9D7
:104AA000054609E0A5E092E041E0FEF79DF9401BD4
:104AB000022801D9032038E42020010591FAA1F150
:104AC000B1FA81F108430121B1EB601F02D14A48DC
:104AD00000681DE02020010591FAA1F1B1FA81F1F1
:104AE00008430221B1EB601F02D14348006A0FE086
:104AF0002020010591FAA1F1B1FA81F108430421C6
:104B0000B1EB601F02D13C48406801E03A48406A7E
:104B100020210A0592FAA2F2B2FA82F2114301F0C0
:104B20001F020121914008400028BED061E0002012
:104B30004FF0807191FAA1F1B1FA81F12F4A42F858
:104B40002100FEF751F9054606E0FEF74DF9401B3E
:104B5000022801D903202FE42020010591FAA1F1B8
:104B6000B1FA81F108430121B1EB601F02D1224863
:104B700000681DE02020010591FAA1F1B1FA81F150
:104B800008430221B1EB601F02D11B48006A0FE00D
:104B90002020010591FAA1F1B1FA81F10843042125
:104BA000B1EB601F02D11448406801E01248406A2E
:104BB00020210A0592FAA2F2B2FA82F2114301F020
:104BC0001F020121914008400028BED111E0E06998
:104BD000012800D17DE40848466806F48031206A47
:104BE000814204D106F47011606A814201D0012033
:104BF0006FE400206DE4000000100240000042421B
:104C000070B504462546681EB0F1807F01D30120AF
:104C10000FE0681E4FF0E02148610F214FF0FF3098
:104C200002F028F800204FF0E02188610720086199
:104C3000002070BD70477047704710B504460CB92E
:104C4000012010BD94F83D0028B9002084F83C00F4
:104C5000204600F029F8022084F83D00211D20683C
:104C600001F0B2FD012084F8480000BF84F83E0046
:104C700001213F200155402001554120015542208E
:104C800001554320015500BF00BF012084F84400B6
:104C900045200155462001554720015500BF012000
:104CA00084F83D000020CCE738B504460D49206863
:104CB000884215D100BF0C48806940F480200A4921
:104CC00088610846806900F48020009000BF00BF22
:104CD000002211461A20FEF751FF1A20FEF73EFF70
:104CE00038BD00000048014000100240014691F824
:104CF0003D00012801D001207047022081F83D00CD
:104D00000868C06840F001000B68D860144B086860
:104D100098420BD00868B0F1804F07D0114B08685B
:104D2000984203D0104B0868984210D108688068F8
:104D30000E4B00EA0302062A0FD0B2F5803F0CD0DA
:104D40000868006840F001000B68186005E008681A
:104D5000006840F001000B6818600020CCE70000FC
:104D6000002C014000040040004001400700010009
:104D7000704710B5044620680069C0F34000D8B100
:104D80002068C068C0F34000B0B16FF00200216835
:104D90000861012020772068806900F0030018B1C5
:104DA0002046FFF7E5FF05E0204600F0BEF820466C
:104DB00000F0BCF80020207720680069C0F3800074
:104DC000D8B12068C068C0F38000B0B16FF00400B3
:104DD00021680861022020772068806900F4407013
:104DE00018B12046FFF7C4FF05E0204600F09DF80B
:104DF000204600F09BF80020207720680069C0F36F
:104E0000C000D8B12068C068C0F3C000B0B16FF076
:104E1000080021680861042020772068C06900F03C
:104E2000030018B12046FFF7A3FF05E0204600F07D
:104E30007CF8204600F07AF800202077206800698E
:104E4000C0F30010D8B12068C068C0F30010B0B142
:104E50006FF0100021680861082020772068C06981
:104E600000F4407018B12046FFF782FF05E02046AD
:104E700000F05BF8204600F059F800202077206809
:104E8000006900F0010058B12068C06800F001001E
:104E900030B16FF0010021680861204600F047F84A
:104EA00020680069C0F3C01058B12068C068C0F322
:104EB000C01030B16FF08000216808612046FFF714
:104EC000BAFE20680069C0F3002058B12068C068AD
:104ED000C0F3C01030B16FF48070216808612046C3
:104EE000FFF7A8FE20680069C0F3801058B1206861
:104EF000C068C0F3801030B16FF0400021680861D5
:104F0000204600F015F820680069C0F3401058B141
:104F10002068C068C0F3401030B16FF020002168F5
:104F200008612046FFF788FE10BD70477047704744
:104F3000704710B504460CB9012010BDA06900B13E
:104F400000E000BFA06F28B9002084F8740020465C
:104F500000F02AF82420A0672068006820F00100F3
:104F600021680860204601F02FFD012800D1E4E708
:104F7000606A10B1204601F071FC2068406820F49E
:104F80009040216848602068806820F02A002168ED
:104F900088602068006840F00100216808602046B1
:104FA00001F0D8FCC9E7000010B586B00446142112
:104FB00001A8FBF759FA17492068884228D100BF99
:104FC0001548806940F4804013498861084680692B
:104FD00000F48040009000BF00BF00BF0846406959
:104FE00040F4802048610846406900F48020009029
:104FF00000BF00BFC020019002200290002003905B
:10500000032004900720059001A90448FDF708FE3D
:1050100006B010BD003801400010024000040048F6
:1050200010B505210148FDF7FBFF10BD500200201F
:1050300006293AD2DFE801F00C151E27300302687A
:10504000D2F8842342F001030268C2F884332DE0D1
:105050000268D2F8842342F002030268C2F8843363
:1050600024E00268D2F8842342F004030268C2F804
:1050700084331BE00268D2F8842342F008030268FC
:10508000C2F8843312E00268D2F8842342F010039D
:105090000268C2F8843309E00268D2F8842342F03F
:1050A00020030268C2F8843300E000BF00BF7047ED
:1050B00010B504462068D0F8880300F0010060B104
:1050C0002068D0F8900300F0010030B10121206881
:1050D000C0F88C132046FDF79EFF2068D0F88803A7
:1050E000C0F3400060B12068D0F89003C0F34000E6
:1050F00030B102212068C0F88C132046FDF78CFFE8
:105100002068D0F88803C0F3800060B12068D0F830
:105110009003C0F3800030B104212068C0F88C13E4
:105120002046FDF77AFF2068D0F88803C0F3C0005E
:1051300060B12068D0F89003C0F3C00030B10821FE
:105140002068C0F88C132046FDF768FF2068D0F86F
:105150008803C0F3001060B12068D0F89003C0F35A
:10516000001030B110212068C0F88C132046FDF7E4
:1051700056FF2068D0F88803C0F3401060B1206863
:10518000D0F89003C0F3401030B120212068C0F85F
:105190008C132046FEF778F810BD10B503681A6826
:1051A00022F007028B681A4322F01802CB681A43D8
:1051B00003681A600B68046863614B680468A36144
:1051C00010BD10B50246146820681468D4F8A033E6
:1051D00020F020004C69204320F400608C692043BB
:1051E00020F48060CC69204320F0C0600C6A20432A
:1051F00020F000604C6A204320F040408C6A40EA76
:10520000840020F000500C6B204323F48033CC6AE0
:105210002343146820601468C4F8A03310BD10B58F
:1052200004462068D0F88803C0F30040A8B1206885
:10523000D0F89003C0F3004078B14FF4803120687B
:10524000C0F88C13012084F8C10000BF002084F84E
:10525000C00000BF2046FDF746FE2068D0F8880356
:10526000C0F3404068B12068D0F89003C0F34040DC
:1052700038B14FF400312068C0F88C132046FDF798
:105280002AFE2068406800F0010058B12068C0681C
:1052900000F0010030B1012021688860052120461E
:1052A000FDF71CFE20684068C0F3400058B120683C
:1052B000C068C0F3400030B1022021688860052139
:1052C0002046FDF70CFE20684068C0F3800058B10E
:1052D0002068C068C0F3800030B104202168886075
:1052E00005212046FDF7FCFD20684068C0F3C000A2
:1052F00058B12068C068C0F3C00030B108202168F0
:10530000886005212046FDF7ECFD20684068C0F369
:10531000001058B12068C068C0F3001030B11020F0
:105320002168886005212046FDF7ACFF20684068B1
:10533000C0F3401050B12068C068C0F3401028B1DD
:105340002020216888602046FDF79DFF2068406886
:10535000C0F3801058B12068C068C0F3801030B12D
:1053600040202168886005212046FDF78AFF10BD96
:10537000F0B5154600240768803707EBC1177A6E31
:105380000768803707EBC117BE6B202D2FD00CDCD0
:10539000042D16D004DC012D12D0022D3BD124E0C7
:1053A000082D23D0102D36D10CE0402D0BD0802DB0
:1053B0001ED0B5F5807F07D0B5F5007F2BD118E062
:1053C00000BF00BF00BF00BFD3F804C0076880372C
:1053D00007EBC117C7F83CC0D3F808C0076880378F
:1053E00007EBC117C7F840C016E000BF00BF00BF01
:1053F00000BFD3F804C00768803707EBC117C7F8B0
:1054000044C0D3F808C00768803707EBC117C7F856
:1054100048C0102400E000BF00BFFE27A740BA43E9
:105420001F68A7403A43DF68A7403A431F69A74077
:105430003A435F69A7403A439F69A7403A431F69CF
:10544000082F08D106F400772FB906F0007717B9B6
:10545000DF69A7403A430768803707EBC1177A66D0
:10546000F0BD70B504460D462068803000EBC510D5
:10547000406800F0010088B12068803000EBC51062
:10548000C06800F0010048B101212068803000EBC5
:10549000C510816029462046FDF720FD2068803038
:1054A00000EBC5104068C0F3400088B12068803030
:1054B00000EBC510C068C0F3400048B1022120686D
:1054C000803000EBC510816029462046FDF707FDBE
:1054D0002068803000EBC5104068C0F3800088B1C0
:1054E0002068803000EBC510C068C0F3800048B170
:1054F00004212068803000EBC510816029462046D9
:10550000FDF7EEFC2068803000EBC5104068C0F36A
:10551000C00088B12068803000EBC510C068C0F3BF
:10552000C00048B108212068803000EBC5108160C0
:1055300029462046FDF7D5FC2068803000EBC510D9
:105540004068C0F3001088B12068803000EBC510BF
:10555000C068C0F3001048B110212068803000EB13
:10556000C510816029462046FDF78CFE20688030FA
:1055700000EBC5104068C0F3801088B1206880300F
:1055800000EBC510C068C0F3801048B1402120680E
:10559000803000EBC510816029462046FDF771FE82
:1055A0002068803000EBC5104068C0F3C01088B19F
:1055B0002068803000EBC510C068C0F3C01048B14F
:1055C00080212068803000EBC5108160294620468C
:1055D000FDF782FC2068803000EBC5104068C0F306
:1055E000002090B12068803000EBC510C068C0F387
:1055F000002050B14FF480712068803000EBC5105E
:10560000816029462046FDF768FC2068803000EB69
:10561000C5104068C0F3402090B12068803000EB96
:10562000C510C068C0F3402050B14FF4007120682D
:10563000803000EBC510816029462046FDF7F9FD5A
:105640002068803000EBC5104068C0F3802090B126
:105650002068803000EBC510C068C0F3802050B1D6
:105660004FF480612068803000EBC51081602946CE
:105670002046FDF7DDFD2068803000EBC510406856
:10568000C0F3C02090B12068803000EBC510C06826
:10569000C0F3C02050B14FF400612068803000EBAF
:1056A000C510816029462046FDF7C5FD2068803081
:1056B00000EBC5104068C0F3003090B12068803026
:1056C00000EBC510C068C0F3003050B14FF48051FA
:1056D0002068803000EBC510816029462046FDF728
:1056E000A9FD2068803000EBC5104068C0F3403051
:1056F00090B12068803000EBC510C068C0F3403026
:1057000050B14FF400512068803000EBC51081602B
:1057100029462046FDF7E6FB2068803000EBC510E7
:105720004068C0F3803090B12068803000EBC51035
:10573000C068C0F3803050B14FF4804120688030A1
:1057400000EBC510816029462046FDF763FC70BD63
:1057500030B50468803404EBC114236823F00703D8
:105760009468234323F01803D468234304688034E7
:1057700004EBC114236015680468803404EBC11481
:10578000656155680468803404EBC114A56130BDBF
:105790002DE9F0410346D3F800C00CF1800C0CEB6E
:1057A000C11CDCF800C02CF07048D3F800C00CF12C
:1057B000800C0CEBC11CCCF80080D3F800C00CF1BD
:1057C000800C0CEBC11CDCF80000D3F800C00CF11D
:1057D000800C0CEBC11CDCF86850D3F800C00CF155
:1057E000800C0CEBC11CDCF86460D3F800C0DCF862
:1057F000A04320F02000D2F814C04CEA000020F4AE
:105800000060D2F818C04CEA000020F48060D2F8A2
:105810001CC04CEA000020F0C060D2F820C04CEA66
:10582000000020F00060D2F824C04CEA000020F014
:105830007040D2F828C04CEA000020F40030D2F8C2
:1058400030C0BCF1005F01D140F4003020F04000D6
:10585000D2F834C04CEA000020F48020D2F850C0C6
:105860004CEA000020F0FC70D2F848C04CEA00007E
:1058700025F01F0592F838C00CF01F0C4CEA050506
:1058800025F00045D2F83CC04CEA0505D2F834C0FA
:10589000BCF1000F05D126F48076D2F840C04CEA66
:1058A0000606D2F844C0BCF5606F04D0D2F844C0FC
:1058B000BCF5F05F04D1D2F834C0BCF1400F05D183
:1058C00026F4F056D2F844C04CEA0606D76C0529F7
:1058D00027D2DFE801F0030A11181F0024F4003476
:1058E000D2F82CC044EA4C041CE024F48024D2F802
:1058F0002CC044EA8C0415E024F40024D2F82CC017
:1059000044EACC040EE024F48014D2F82CC044EA1B
:105910000C1407E024F40014D2F82CC044EA4C1410
:1059200000E000BF00BFD3F800C00CF1800C0CEB0E
:10593000C11CCCF80000D3F800C00CF1800C0CEBBB
:10594000C11CCCF86850D3F800C00CF1800C0CEBF3
:10595000C11CCCF86460D3F800C00CF1800C0CEBD7
:10596000C11CCCF85470D3F800C0CCF8A043BDE8FB
:10597000F08100BFFEE701688969C1F3400111B100
:105980000021026891620168896901F0010129B969
:105990000168896941F00101026891617047000066
:1059A00070B504460D46164620688069C0F30010A5
:1059B00000283DD017E0681CA8B1FDF715FA801B40
:1059C000A84200D87DB9606C40F0200060642020BF
:1059D00084F84100002084F8420000BF84F84000B1
:1059E00000BF012070BD20688069C0F3401000280E
:1059F000E1D010202168C86120202168C8612046BC
:105A0000FFF7B9FF206840680A49084021684860EC
:105A1000606C40F004006064202084F841000020A5
:105A200084F8420000BF84F8400000BF0120D9E79D
:105A30000020D7E700E800FEF0B5059C05686D681A
:105A40004FF4806606EA545666F0FC2646F4C046DB
:105A5000B543C1F309064FF47F0707EA02473E4307
:105A60001E432643354306687560F0BD2DE9F041BD
:105A700004460E4617461D46DDF8188019E0681CDE
:105A8000B8B1FDF7B1F9A0EB0800A84200D885B97C
:105A9000606C40F020006064202084F84100002009
:105AA00084F8420000BF84F8400000BF0120BDE838
:105AB000F081206880693040B04201D1012000E0CF
:105AC0000020B842DBD00020F1E770B504460D4657
:105AD00016461DE0324629462046FFF761FF08B111
